{
	"whitelist.sol": {
		"whitelist": {
			"abi": [
				{
					"inputs": [
						{
							"internalType": "address",
							"name": "_uen_management_contract_address",
							"type": "address"
						},
						{
							"internalType": "address",
							"name": "_initialOwner",
							"type": "address"
						}
					],
					"stateMutability": "nonpayable",
					"type": "constructor"
				},
				{
					"inputs": [
						{
							"internalType": "address",
							"name": "owner",
							"type": "address"
						}
					],
					"name": "OwnableInvalidOwner",
					"type": "error"
				},
				{
					"inputs": [
						{
							"internalType": "address",
							"name": "account",
							"type": "address"
						}
					],
					"name": "OwnableUnauthorizedAccount",
					"type": "error"
				},
				{
					"anonymous": false,
					"inputs": [
						{
							"indexed": true,
							"internalType": "address",
							"name": "previousOwner",
							"type": "address"
						},
						{
							"indexed": true,
							"internalType": "address",
							"name": "newOwner",
							"type": "address"
						}
					],
					"name": "OwnershipTransferred",
					"type": "event"
				},
				{
					"anonymous": false,
					"inputs": [
						{
							"indexed": false,
							"internalType": "string[]",
							"name": "_uens",
							"type": "string[]"
						},
						{
							"indexed": false,
							"internalType": "string[]",
							"name": "_names",
							"type": "string[]"
						},
						{
							"indexed": false,
							"internalType": "uint256",
							"name": "_timestamp",
							"type": "uint256"
						},
						{
							"indexed": false,
							"internalType": "address",
							"name": "_caller",
							"type": "address"
						},
						{
							"indexed": false,
							"internalType": "string",
							"name": "_action",
							"type": "string"
						}
					],
					"name": "whitelist_event",
					"type": "event"
				},
				{
					"inputs": [
						{
							"internalType": "address",
							"name": "_new_uen_list_contract_address",
							"type": "address"
						}
					],
					"name": "change_uen_list_contract_address",
					"outputs": [],
					"stateMutability": "nonpayable",
					"type": "function"
				},
				{
					"inputs": [
						{
							"internalType": "string",
							"name": "_uen",
							"type": "string"
						}
					],
					"name": "get_uen_to_whitelist",
					"outputs": [
						{
							"internalType": "address",
							"name": "",
							"type": "address"
						}
					],
					"stateMutability": "view",
					"type": "function"
				},
				{
					"inputs": [
						{
							"internalType": "address",
							"name": "_whitelist",
							"type": "address"
						}
					],
					"name": "get_whitelist_to_uen",
					"outputs": [
						{
							"internalType": "string",
							"name": "",
							"type": "string"
						}
					],
					"stateMutability": "view",
					"type": "function"
				},
				{
					"inputs": [
						{
							"internalType": "string[]",
							"name": "_uens",
							"type": "string[]"
						},
						{
							"internalType": "string[]",
							"name": "_names",
							"type": "string[]"
						},
						{
							"internalType": "address[]",
							"name": "_admins",
							"type": "address[]"
						}
					],
					"name": "map_whitelist_to_uen",
					"outputs": [],
					"stateMutability": "nonpayable",
					"type": "function"
				},
				{
					"inputs": [],
					"name": "owner",
					"outputs": [
						{
							"internalType": "address",
							"name": "",
							"type": "address"
						}
					],
					"stateMutability": "view",
					"type": "function"
				},
				{
					"inputs": [
						{
							"internalType": "string[]",
							"name": "_uens",
							"type": "string[]"
						},
						{
							"internalType": "string[]",
							"name": "_names",
							"type": "string[]"
						},
						{
							"internalType": "address[]",
							"name": "_admins",
							"type": "address[]"
						}
					],
					"name": "remove_whitelist_to_uen_mapping",
					"outputs": [],
					"stateMutability": "nonpayable",
					"type": "function"
				},
				{
					"inputs": [],
					"name": "renounceOwnership",
					"outputs": [],
					"stateMutability": "nonpayable",
					"type": "function"
				},
				{
					"inputs": [
						{
							"internalType": "address",
							"name": "newOwner",
							"type": "address"
						}
					],
					"name": "transferOwnership",
					"outputs": [],
					"stateMutability": "nonpayable",
					"type": "function"
				},
				{
					"inputs": [],
					"name": "uen_management_contract",
					"outputs": [
						{
							"internalType": "contract Iuen_management",
							"name": "",
							"type": "address"
						}
					],
					"stateMutability": "view",
					"type": "function"
				},
				{
					"inputs": [
						{
							"internalType": "string",
							"name": "",
							"type": "string"
						}
					],
					"name": "uen_to_whitelist",
					"outputs": [
						{
							"internalType": "address",
							"name": "",
							"type": "address"
						}
					],
					"stateMutability": "view",
					"type": "function"
				},
				{
					"inputs": [
						{
							"internalType": "address",
							"name": "",
							"type": "address"
						}
					],
					"name": "whitelist_to_uen",
					"outputs": [
						{
							"internalType": "string",
							"name": "",
							"type": "string"
						}
					],
					"stateMutability": "view",
					"type": "function"
				}
			],
			"devdoc": {
				"errors": {
					"OwnableInvalidOwner(address)": [
						{
							"details": "The owner is not a valid owner account. (eg. `address(0)`)"
						}
					],
					"OwnableUnauthorizedAccount(address)": [
						{
							"details": "The caller account is not authorized to perform an operation."
						}
					]
				},
				"kind": "dev",
				"methods": {
					"owner()": {
						"details": "Returns the address of the current owner."
					},
					"renounceOwnership()": {
						"details": "Leaves the contract without owner. It will not be possible to call `onlyOwner` functions. Can only be called by the current owner. NOTE: Renouncing ownership will leave the contract without an owner, thereby disabling any functionality that is only available to the owner."
					},
					"transferOwnership(address)": {
						"details": "Transfers ownership of the contract to a new account (`newOwner`). Can only be called by the current owner."
					}
				},
				"version": 1
			},
			"evm": {
				"assembly": "    /* \"whitelist.sol\":862:5175  contract whitelist is Ownable{... */\n  mstore(0x40, 0x80)\n    /* \"whitelist.sol\":1735:1988  constructor (address _uen_management_contract_address, address _initialOwner) Ownable(_initialOwner) {... */\n  callvalue\n  dup1\n  iszero\n  tag_1\n  jumpi\n  0x00\n  dup1\n  revert\ntag_1:\n  pop\n  mload(0x40)\n  sub(codesize, bytecodeSize)\n  dup1\n  bytecodeSize\n  dup4\n  codecopy\n  dup2\n  dup2\n  add\n  0x40\n  mstore\n  dup2\n  add\n  swap1\n  tag_2\n  swap2\n  swap1\n  tag_3\n  jump\t// in\ntag_2:\n    /* \"whitelist.sol\":1821:1834  _initialOwner */\n  dup1\n    /* \"@openzeppelin/contracts/access/Ownable.sol\":1297:1298  0 */\n  0x00\n    /* \"@openzeppelin/contracts/access/Ownable.sol\":1273:1299  initialOwner == address(0) */\n  0xffffffffffffffffffffffffffffffffffffffff\n  and\n    /* \"@openzeppelin/contracts/access/Ownable.sol\":1273:1285  initialOwner */\n  dup2\n    /* \"@openzeppelin/contracts/access/Ownable.sol\":1273:1299  initialOwner == address(0) */\n  0xffffffffffffffffffffffffffffffffffffffff\n  and\n  sub\n    /* \"@openzeppelin/contracts/access/Ownable.sol\":1269:1364  if (initialOwner == address(0)) {... */\n  tag_7\n  jumpi\n    /* \"@openzeppelin/contracts/access/Ownable.sol\":1350:1351  0 */\n  0x00\n    /* \"@openzeppelin/contracts/access/Ownable.sol\":1322:1353  OwnableInvalidOwner(address(0)) */\n  mload(0x40)\n  0x1e4fbdf700000000000000000000000000000000000000000000000000000000\n  dup2\n  mstore\n  0x04\n  add\n  tag_8\n  swap2\n  swap1\n  tag_9\n  jump\t// in\ntag_8:\n  mload(0x40)\n  dup1\n  swap2\n  sub\n  swap1\n  revert\n    /* \"@openzeppelin/contracts/access/Ownable.sol\":1269:1364  if (initialOwner == address(0)) {... */\ntag_7:\n    /* \"@openzeppelin/contracts/access/Ownable.sol\":1373:1405  _transferOwnership(initialOwner) */\n  tag_10\n    /* \"@openzeppelin/contracts/access/Ownable.sol\":1392:1404  initialOwner */\n  dup2\n    /* \"@openzeppelin/contracts/access/Ownable.sol\":1373:1391  _transferOwnership */\n  shl(0x20, tag_11)\n    /* \"@openzeppelin/contracts/access/Ownable.sol\":1373:1405  _transferOwnership(initialOwner) */\n  0x20\n  shr\n  jump\t// in\ntag_10:\n    /* \"@openzeppelin/contracts/access/Ownable.sol\":1225:1412  constructor(address initialOwner) {... */\n  pop\n    /* \"whitelist.sol\":1951:1983  _uen_management_contract_address */\n  dup2\n    /* \"whitelist.sol\":1909:1932  uen_management_contract */\n  0x01\n  0x00\n    /* \"whitelist.sol\":1909:1984  uen_management_contract = Iuen_management(_uen_management_contract_address) */\n  0x0100\n  exp\n  dup2\n  sload\n  dup2\n  0xffffffffffffffffffffffffffffffffffffffff\n  mul\n  not\n  and\n  swap1\n  dup4\n  0xffffffffffffffffffffffffffffffffffffffff\n  and\n  mul\n  or\n  swap1\n  sstore\n  pop\n    /* \"whitelist.sol\":1735:1988  constructor (address _uen_management_contract_address, address _initialOwner) Ownable(_initialOwner) {... */\n  pop\n  pop\n    /* \"whitelist.sol\":862:5175  contract whitelist is Ownable{... */\n  jump(tag_13)\n    /* \"@openzeppelin/contracts/access/Ownable.sol\":2912:3099  function _transferOwnership(address newOwner) internal virtual {... */\ntag_11:\n    /* \"@openzeppelin/contracts/access/Ownable.sol\":2985:3001  address oldOwner */\n  0x00\n    /* \"@openzeppelin/contracts/access/Ownable.sol\":3004:3010  _owner */\n  dup1\n  0x00\n  swap1\n  sload\n  swap1\n  0x0100\n  exp\n  swap1\n  div\n  0xffffffffffffffffffffffffffffffffffffffff\n  and\n    /* \"@openzeppelin/contracts/access/Ownable.sol\":2985:3010  address oldOwner = _owner */\n  swap1\n  pop\n    /* \"@openzeppelin/contracts/access/Ownable.sol\":3029:3037  newOwner */\n  dup2\n    /* \"@openzeppelin/contracts/access/Ownable.sol\":3020:3026  _owner */\n  0x00\n  dup1\n    /* \"@openzeppelin/contracts/access/Ownable.sol\":3020:3037  _owner = newOwner */\n  0x0100\n  exp\n  dup2\n  sload\n  dup2\n  0xffffffffffffffffffffffffffffffffffffffff\n  mul\n  not\n  and\n  swap1\n  dup4\n  0xffffffffffffffffffffffffffffffffffffffff\n  and\n  mul\n  or\n  swap1\n  sstore\n  pop\n    /* \"@openzeppelin/contracts/access/Ownable.sol\":3083:3091  newOwner */\n  dup2\n    /* \"@openzeppelin/contracts/access/Ownable.sol\":3052:3092  OwnershipTransferred(oldOwner, newOwner) */\n  0xffffffffffffffffffffffffffffffffffffffff\n  and\n    /* \"@openzeppelin/contracts/access/Ownable.sol\":3073:3081  oldOwner */\n  dup2\n    /* \"@openzeppelin/contracts/access/Ownable.sol\":3052:3092  OwnershipTransferred(oldOwner, newOwner) */\n  0xffffffffffffffffffffffffffffffffffffffff\n  and\n  0x8be0079c531659141344cd1fd0a4f28419497f9722a3daafe3b4186f6b6457e0\n  mload(0x40)\n  mload(0x40)\n  dup1\n  swap2\n  sub\n  swap1\n  log3\n    /* \"@openzeppelin/contracts/access/Ownable.sol\":2975:3099  {... */\n  pop\n    /* \"@openzeppelin/contracts/access/Ownable.sol\":2912:3099  function _transferOwnership(address newOwner) internal virtual {... */\n  pop\n  jump\t// out\n    /* \"#utility.yul\":88:205   */\ntag_16:\n    /* \"#utility.yul\":197:198   */\n  0x00\n    /* \"#utility.yul\":194:195   */\n  dup1\n    /* \"#utility.yul\":187:199   */\n  revert\n    /* \"#utility.yul\":334:460   */\ntag_18:\n    /* \"#utility.yul\":371:378   */\n  0x00\n    /* \"#utility.yul\":411:453   */\n  0xffffffffffffffffffffffffffffffffffffffff\n    /* \"#utility.yul\":404:409   */\n  dup3\n    /* \"#utility.yul\":400:454   */\n  and\n    /* \"#utility.yul\":389:454   */\n  swap1\n  pop\n    /* \"#utility.yul\":334:460   */\n  swap2\n  swap1\n  pop\n  jump\t// out\n    /* \"#utility.yul\":466:562   */\ntag_19:\n    /* \"#utility.yul\":503:510   */\n  0x00\n    /* \"#utility.yul\":532:556   */\n  tag_29\n    /* \"#utility.yul\":550:555   */\n  dup3\n    /* \"#utility.yul\":532:556   */\n  tag_18\n  jump\t// in\ntag_29:\n    /* \"#utility.yul\":521:556   */\n  swap1\n  pop\n    /* \"#utility.yul\":466:562   */\n  swap2\n  swap1\n  pop\n  jump\t// out\n    /* \"#utility.yul\":568:690   */\ntag_20:\n    /* \"#utility.yul\":641:665   */\n  tag_31\n    /* \"#utility.yul\":659:664   */\n  dup2\n    /* \"#utility.yul\":641:665   */\n  tag_19\n  jump\t// in\ntag_31:\n    /* \"#utility.yul\":634:639   */\n  dup2\n    /* \"#utility.yul\":631:666   */\n  eq\n    /* \"#utility.yul\":621:684   */\n  tag_32\n  jumpi\n    /* \"#utility.yul\":680:681   */\n  0x00\n    /* \"#utility.yul\":677:678   */\n  dup1\n    /* \"#utility.yul\":670:682   */\n  revert\n    /* \"#utility.yul\":621:684   */\ntag_32:\n    /* \"#utility.yul\":568:690   */\n  pop\n  jump\t// out\n    /* \"#utility.yul\":696:839   */\ntag_21:\n    /* \"#utility.yul\":753:758   */\n  0x00\n    /* \"#utility.yul\":784:790   */\n  dup2\n    /* \"#utility.yul\":778:791   */\n  mload\n    /* \"#utility.yul\":769:791   */\n  swap1\n  pop\n    /* \"#utility.yul\":800:833   */\n  tag_34\n    /* \"#utility.yul\":827:832   */\n  dup2\n    /* \"#utility.yul\":800:833   */\n  tag_20\n  jump\t// in\ntag_34:\n    /* \"#utility.yul\":696:839   */\n  swap3\n  swap2\n  pop\n  pop\n  jump\t// out\n    /* \"#utility.yul\":845:1352   */\ntag_3:\n    /* \"#utility.yul\":924:930   */\n  0x00\n    /* \"#utility.yul\":932:938   */\n  dup1\n    /* \"#utility.yul\":981:983   */\n  0x40\n    /* \"#utility.yul\":969:978   */\n  dup4\n    /* \"#utility.yul\":960:967   */\n  dup6\n    /* \"#utility.yul\":956:979   */\n  sub\n    /* \"#utility.yul\":952:984   */\n  slt\n    /* \"#utility.yul\":949:1068   */\n  iszero\n  tag_36\n  jumpi\n    /* \"#utility.yul\":987:1066   */\n  tag_37\n  tag_16\n  jump\t// in\ntag_37:\n    /* \"#utility.yul\":949:1068   */\ntag_36:\n    /* \"#utility.yul\":1107:1108   */\n  0x00\n    /* \"#utility.yul\":1132:1196   */\n  tag_38\n    /* \"#utility.yul\":1188:1195   */\n  dup6\n    /* \"#utility.yul\":1179:1185   */\n  dup3\n    /* \"#utility.yul\":1168:1177   */\n  dup7\n    /* \"#utility.yul\":1164:1186   */\n  add\n    /* \"#utility.yul\":1132:1196   */\n  tag_21\n  jump\t// in\ntag_38:\n    /* \"#utility.yul\":1122:1196   */\n  swap3\n  pop\n    /* \"#utility.yul\":1078:1206   */\n  pop\n    /* \"#utility.yul\":1245:1247   */\n  0x20\n    /* \"#utility.yul\":1271:1335   */\n  tag_39\n    /* \"#utility.yul\":1327:1334   */\n  dup6\n    /* \"#utility.yul\":1318:1324   */\n  dup3\n    /* \"#utility.yul\":1307:1316   */\n  dup7\n    /* \"#utility.yul\":1303:1325   */\n  add\n    /* \"#utility.yul\":1271:1335   */\n  tag_21\n  jump\t// in\ntag_39:\n    /* \"#utility.yul\":1261:1335   */\n  swap2\n  pop\n    /* \"#utility.yul\":1216:1345   */\n  pop\n    /* \"#utility.yul\":845:1352   */\n  swap3\n  pop\n  swap3\n  swap1\n  pop\n  jump\t// out\n    /* \"#utility.yul\":1358:1476   */\ntag_22:\n    /* \"#utility.yul\":1445:1469   */\n  tag_41\n    /* \"#utility.yul\":1463:1468   */\n  dup2\n    /* \"#utility.yul\":1445:1469   */\n  tag_19\n  jump\t// in\ntag_41:\n    /* \"#utility.yul\":1440:1443   */\n  dup3\n    /* \"#utility.yul\":1433:1470   */\n  mstore\n    /* \"#utility.yul\":1358:1476   */\n  pop\n  pop\n  jump\t// out\n    /* \"#utility.yul\":1482:1704   */\ntag_9:\n    /* \"#utility.yul\":1575:1579   */\n  0x00\n    /* \"#utility.yul\":1613:1615   */\n  0x20\n    /* \"#utility.yul\":1602:1611   */\n  dup3\n    /* \"#utility.yul\":1598:1616   */\n  add\n    /* \"#utility.yul\":1590:1616   */\n  swap1\n  pop\n    /* \"#utility.yul\":1626:1697   */\n  tag_43\n    /* \"#utility.yul\":1694:1695   */\n  0x00\n    /* \"#utility.yul\":1683:1692   */\n  dup4\n    /* \"#utility.yul\":1679:1696   */\n  add\n    /* \"#utility.yul\":1670:1676   */\n  dup5\n    /* \"#utility.yul\":1626:1697   */\n  tag_22\n  jump\t// in\ntag_43:\n    /* \"#utility.yul\":1482:1704   */\n  swap3\n  swap2\n  pop\n  pop\n  jump\t// out\n    /* \"whitelist.sol\":862:5175  contract whitelist is Ownable{... */\ntag_13:\n  dataSize(sub_0)\n  dup1\n  dataOffset(sub_0)\n  0x00\n  codecopy\n  0x00\n  return\nstop\n\nsub_0: assembly {\n        /* \"whitelist.sol\":862:5175  contract whitelist is Ownable{... */\n      mstore(0x40, 0x80)\n      callvalue\n      dup1\n      iszero\n      tag_1\n      jumpi\n      0x00\n      dup1\n      revert\n    tag_1:\n      pop\n      jumpi(tag_2, lt(calldatasize, 0x04))\n      shr(0xe0, calldataload(0x00))\n      dup1\n      0x9c2badef\n      gt\n      tag_14\n      jumpi\n      dup1\n      0x9c2badef\n      eq\n      tag_8\n      jumpi\n      dup1\n      0xa7a404a6\n      eq\n      tag_9\n      jumpi\n      dup1\n      0xa9b295e3\n      eq\n      tag_10\n      jumpi\n      dup1\n      0xb98cb1a4\n      eq\n      tag_11\n      jumpi\n      dup1\n      0xc2e7b688\n      eq\n      tag_12\n      jumpi\n      dup1\n      0xf2fde38b\n      eq\n      tag_13\n      jumpi\n      jump(tag_2)\n    tag_14:\n      dup1\n      0x11c2f8e6\n      eq\n      tag_3\n      jumpi\n      dup1\n      0x58581383\n      eq\n      tag_4\n      jumpi\n      dup1\n      0x715018a6\n      eq\n      tag_5\n      jumpi\n      dup1\n      0x8da5cb5b\n      eq\n      tag_6\n      jumpi\n      dup1\n      0x9a82845c\n      eq\n      tag_7\n      jumpi\n    tag_2:\n      0x00\n      dup1\n      revert\n        /* \"whitelist.sol\":1311:1357  Iuen_management public uen_management_contract */\n    tag_3:\n      tag_15\n      tag_16\n      jump\t// in\n    tag_15:\n      mload(0x40)\n      tag_17\n      swap2\n      swap1\n      tag_18\n      jump\t// in\n    tag_17:\n      mload(0x40)\n      dup1\n      swap2\n      sub\n      swap1\n      return\n        /* \"whitelist.sol\":2245:2374  function get_whitelist_to_uen(address _whitelist) public view returns (string memory) {... */\n    tag_4:\n      tag_19\n      0x04\n      dup1\n      calldatasize\n      sub\n      dup2\n      add\n      swap1\n      tag_20\n      swap2\n      swap1\n      tag_21\n      jump\t// in\n    tag_20:\n      tag_22\n      jump\t// in\n    tag_19:\n      mload(0x40)\n      tag_23\n      swap2\n      swap1\n      tag_24\n      jump\t// in\n    tag_23:\n      mload(0x40)\n      dup1\n      swap2\n      sub\n      swap1\n      return\n        /* \"@openzeppelin/contracts/access/Ownable.sol\":2293:2394  function renounceOwnership() public virtual onlyOwner {... */\n    tag_5:\n      tag_25\n      tag_26\n      jump\t// in\n    tag_25:\n      stop\n        /* \"@openzeppelin/contracts/access/Ownable.sol\":1638:1723  function owner() public view virtual returns (address) {... */\n    tag_6:\n      tag_27\n      tag_28\n      jump\t// in\n    tag_27:\n      mload(0x40)\n      tag_29\n      swap2\n      swap1\n      tag_30\n      jump\t// in\n    tag_29:\n      mload(0x40)\n      dup1\n      swap2\n      sub\n      swap1\n      return\n        /* \"whitelist.sol\":2606:2788  function change_uen_list_contract_address(address _new_uen_list_contract_address) external onlyOwner {... */\n    tag_7:\n      tag_31\n      0x04\n      dup1\n      calldatasize\n      sub\n      dup2\n      add\n      swap1\n      tag_32\n      swap2\n      swap1\n      tag_21\n      jump\t// in\n    tag_32:\n      tag_33\n      jump\t// in\n    tag_31:\n      stop\n        /* \"whitelist.sol\":1680:1731  mapping (address => string) public whitelist_to_uen */\n    tag_8:\n      tag_34\n      0x04\n      dup1\n      calldatasize\n      sub\n      dup2\n      add\n      swap1\n      tag_35\n      swap2\n      swap1\n      tag_21\n      jump\t// in\n    tag_35:\n      tag_36\n      jump\t// in\n    tag_34:\n      mload(0x40)\n      tag_37\n      swap2\n      swap1\n      tag_24\n      jump\t// in\n    tag_37:\n      mload(0x40)\n      dup1\n      swap2\n      sub\n      swap1\n      return\n        /* \"whitelist.sol\":4448:5173  function remove_whitelist_to_uen_mapping(string[] memory _uens, string[] memory _names, address[] memory _admins) external onlyOwner {... */\n    tag_9:\n      tag_38\n      0x04\n      dup1\n      calldatasize\n      sub\n      dup2\n      add\n      swap1\n      tag_39\n      swap2\n      swap1\n      tag_40\n      jump\t// in\n    tag_39:\n      tag_41\n      jump\t// in\n    tag_38:\n      stop\n        /* \"whitelist.sol\":2056:2173  function get_uen_to_whitelist(string memory _uen) public view returns (address) {... */\n    tag_10:\n      tag_42\n      0x04\n      dup1\n      calldatasize\n      sub\n      dup2\n      add\n      swap1\n      tag_43\n      swap2\n      swap1\n      tag_44\n      jump\t// in\n    tag_43:\n      tag_45\n      jump\t// in\n    tag_42:\n      mload(0x40)\n      tag_46\n      swap2\n      swap1\n      tag_30\n      jump\t// in\n    tag_46:\n      mload(0x40)\n      dup1\n      swap2\n      sub\n      swap1\n      return\n        /* \"whitelist.sol\":1548:1598  mapping(string => address) public uen_to_whitelist */\n    tag_11:\n      tag_47\n      0x04\n      dup1\n      calldatasize\n      sub\n      dup2\n      add\n      swap1\n      tag_48\n      swap2\n      swap1\n      tag_44\n      jump\t// in\n    tag_48:\n      tag_49\n      jump\t// in\n    tag_47:\n      mload(0x40)\n      tag_50\n      swap2\n      swap1\n      tag_30\n      jump\t// in\n    tag_50:\n      mload(0x40)\n      dup1\n      swap2\n      sub\n      swap1\n      return\n        /* \"whitelist.sol\":3268:3982  function map_whitelist_to_uen(string[] memory _uens, string[] memory _names, address[] memory _admins) external onlyOwner {... */\n    tag_12:\n      tag_51\n      0x04\n      dup1\n      calldatasize\n      sub\n      dup2\n      add\n      swap1\n      tag_52\n      swap2\n      swap1\n      tag_40\n      jump\t// in\n    tag_52:\n      tag_53\n      jump\t// in\n    tag_51:\n      stop\n        /* \"@openzeppelin/contracts/access/Ownable.sol\":2543:2758  function transferOwnership(address newOwner) public virtual onlyOwner {... */\n    tag_13:\n      tag_54\n      0x04\n      dup1\n      calldatasize\n      sub\n      dup2\n      add\n      swap1\n      tag_55\n      swap2\n      swap1\n      tag_21\n      jump\t// in\n    tag_55:\n      tag_56\n      jump\t// in\n    tag_54:\n      stop\n        /* \"whitelist.sol\":1311:1357  Iuen_management public uen_management_contract */\n    tag_16:\n      0x01\n      0x00\n      swap1\n      sload\n      swap1\n      0x0100\n      exp\n      swap1\n      div\n      0xffffffffffffffffffffffffffffffffffffffff\n      and\n      dup2\n      jump\t// out\n        /* \"whitelist.sol\":2245:2374  function get_whitelist_to_uen(address _whitelist) public view returns (string memory) {... */\n    tag_22:\n        /* \"whitelist.sol\":2316:2329  string memory */\n      0x60\n        /* \"whitelist.sol\":2342:2358  whitelist_to_uen */\n      0x03\n        /* \"whitelist.sol\":2342:2370  whitelist_to_uen[_whitelist] */\n      0x00\n        /* \"whitelist.sol\":2359:2369  _whitelist */\n      dup4\n        /* \"whitelist.sol\":2342:2370  whitelist_to_uen[_whitelist] */\n      0xffffffffffffffffffffffffffffffffffffffff\n      and\n      0xffffffffffffffffffffffffffffffffffffffff\n      and\n      dup2\n      mstore\n      0x20\n      add\n      swap1\n      dup2\n      mstore\n      0x20\n      add\n      0x00\n      keccak256\n        /* \"whitelist.sol\":2335:2370  return whitelist_to_uen[_whitelist] */\n      dup1\n      sload\n      tag_58\n      swap1\n      tag_59\n      jump\t// in\n    tag_58:\n      dup1\n      0x1f\n      add\n      0x20\n      dup1\n      swap2\n      div\n      mul\n      0x20\n      add\n      mload(0x40)\n      swap1\n      dup2\n      add\n      0x40\n      mstore\n      dup1\n      swap3\n      swap2\n      swap1\n      dup2\n      dup2\n      mstore\n      0x20\n      add\n      dup3\n      dup1\n      sload\n      tag_60\n      swap1\n      tag_59\n      jump\t// in\n    tag_60:\n      dup1\n      iszero\n      tag_61\n      jumpi\n      dup1\n      0x1f\n      lt\n      tag_62\n      jumpi\n      0x0100\n      dup1\n      dup4\n      sload\n      div\n      mul\n      dup4\n      mstore\n      swap2\n      0x20\n      add\n      swap2\n      jump(tag_61)\n    tag_62:\n      dup3\n      add\n      swap2\n      swap1\n      0x00\n      mstore\n      keccak256(0x00, 0x20)\n      swap1\n    tag_63:\n      dup2\n      sload\n      dup2\n      mstore\n      swap1\n      0x01\n      add\n      swap1\n      0x20\n      add\n      dup1\n      dup4\n      gt\n      tag_63\n      jumpi\n      dup3\n      swap1\n      sub\n      0x1f\n      and\n      dup3\n      add\n      swap2\n    tag_61:\n      pop\n      pop\n      pop\n      pop\n      pop\n      swap1\n      pop\n        /* \"whitelist.sol\":2245:2374  function get_whitelist_to_uen(address _whitelist) public view returns (string memory) {... */\n      swap2\n      swap1\n      pop\n      jump\t// out\n        /* \"@openzeppelin/contracts/access/Ownable.sol\":2293:2394  function renounceOwnership() public virtual onlyOwner {... */\n    tag_26:\n        /* \"@openzeppelin/contracts/access/Ownable.sol\":1531:1544  _checkOwner() */\n      tag_65\n        /* \"@openzeppelin/contracts/access/Ownable.sol\":1531:1542  _checkOwner */\n      tag_66\n        /* \"@openzeppelin/contracts/access/Ownable.sol\":1531:1544  _checkOwner() */\n      jump\t// in\n    tag_65:\n        /* \"@openzeppelin/contracts/access/Ownable.sol\":2357:2387  _transferOwnership(address(0)) */\n      tag_68\n        /* \"@openzeppelin/contracts/access/Ownable.sol\":2384:2385  0 */\n      0x00\n        /* \"@openzeppelin/contracts/access/Ownable.sol\":2357:2375  _transferOwnership */\n      tag_69\n        /* \"@openzeppelin/contracts/access/Ownable.sol\":2357:2387  _transferOwnership(address(0)) */\n      jump\t// in\n    tag_68:\n        /* \"@openzeppelin/contracts/access/Ownable.sol\":2293:2394  function renounceOwnership() public virtual onlyOwner {... */\n      jump\t// out\n        /* \"@openzeppelin/contracts/access/Ownable.sol\":1638:1723  function owner() public view virtual returns (address) {... */\n    tag_28:\n        /* \"@openzeppelin/contracts/access/Ownable.sol\":1684:1691  address */\n      0x00\n        /* \"@openzeppelin/contracts/access/Ownable.sol\":1710:1716  _owner */\n      dup1\n      0x00\n      swap1\n      sload\n      swap1\n      0x0100\n      exp\n      swap1\n      div\n      0xffffffffffffffffffffffffffffffffffffffff\n      and\n        /* \"@openzeppelin/contracts/access/Ownable.sol\":1703:1716  return _owner */\n      swap1\n      pop\n        /* \"@openzeppelin/contracts/access/Ownable.sol\":1638:1723  function owner() public view virtual returns (address) {... */\n      swap1\n      jump\t// out\n        /* \"whitelist.sol\":2606:2788  function change_uen_list_contract_address(address _new_uen_list_contract_address) external onlyOwner {... */\n    tag_33:\n        /* \"@openzeppelin/contracts/access/Ownable.sol\":1531:1544  _checkOwner() */\n      tag_72\n        /* \"@openzeppelin/contracts/access/Ownable.sol\":1531:1542  _checkOwner */\n      tag_66\n        /* \"@openzeppelin/contracts/access/Ownable.sol\":1531:1544  _checkOwner() */\n      jump\t// in\n    tag_72:\n        /* \"whitelist.sol\":2753:2783  _new_uen_list_contract_address */\n      dup1\n        /* \"whitelist.sol\":2711:2734  uen_management_contract */\n      0x01\n      0x00\n        /* \"whitelist.sol\":2711:2784  uen_management_contract = Iuen_management(_new_uen_list_contract_address) */\n      0x0100\n      exp\n      dup2\n      sload\n      dup2\n      0xffffffffffffffffffffffffffffffffffffffff\n      mul\n      not\n      and\n      swap1\n      dup4\n      0xffffffffffffffffffffffffffffffffffffffff\n      and\n      mul\n      or\n      swap1\n      sstore\n      pop\n        /* \"whitelist.sol\":2606:2788  function change_uen_list_contract_address(address _new_uen_list_contract_address) external onlyOwner {... */\n      pop\n      jump\t// out\n        /* \"whitelist.sol\":1680:1731  mapping (address => string) public whitelist_to_uen */\n    tag_36:\n      mstore(0x20, 0x03)\n      dup1\n      0x00\n      mstore\n      keccak256(0x00, 0x40)\n      0x00\n      swap2\n      pop\n      swap1\n      pop\n      dup1\n      sload\n      tag_74\n      swap1\n      tag_59\n      jump\t// in\n    tag_74:\n      dup1\n      0x1f\n      add\n      0x20\n      dup1\n      swap2\n      div\n      mul\n      0x20\n      add\n      mload(0x40)\n      swap1\n      dup2\n      add\n      0x40\n      mstore\n      dup1\n      swap3\n      swap2\n      swap1\n      dup2\n      dup2\n      mstore\n      0x20\n      add\n      dup3\n      dup1\n      sload\n      tag_75\n      swap1\n      tag_59\n      jump\t// in\n    tag_75:\n      dup1\n      iszero\n      tag_76\n      jumpi\n      dup1\n      0x1f\n      lt\n      tag_77\n      jumpi\n      0x0100\n      dup1\n      dup4\n      sload\n      div\n      mul\n      dup4\n      mstore\n      swap2\n      0x20\n      add\n      swap2\n      jump(tag_76)\n    tag_77:\n      dup3\n      add\n      swap2\n      swap1\n      0x00\n      mstore\n      keccak256(0x00, 0x20)\n      swap1\n    tag_78:\n      dup2\n      sload\n      dup2\n      mstore\n      swap1\n      0x01\n      add\n      swap1\n      0x20\n      add\n      dup1\n      dup4\n      gt\n      tag_78\n      jumpi\n      dup3\n      swap1\n      sub\n      0x1f\n      and\n      dup3\n      add\n      swap2\n    tag_76:\n      pop\n      pop\n      pop\n      pop\n      pop\n      dup2\n      jump\t// out\n        /* \"whitelist.sol\":4448:5173  function remove_whitelist_to_uen_mapping(string[] memory _uens, string[] memory _names, address[] memory _admins) external onlyOwner {... */\n    tag_41:\n        /* \"@openzeppelin/contracts/access/Ownable.sol\":1531:1544  _checkOwner() */\n      tag_80\n        /* \"@openzeppelin/contracts/access/Ownable.sol\":1531:1542  _checkOwner */\n      tag_66\n        /* \"@openzeppelin/contracts/access/Ownable.sol\":1531:1544  _checkOwner() */\n      jump\t// in\n    tag_80:\n        /* \"whitelist.sol\":4610:4617  _admins */\n      dup1\n        /* \"whitelist.sol\":4610:4624  _admins.length */\n      mload\n        /* \"whitelist.sol\":4594:4599  _uens */\n      dup4\n        /* \"whitelist.sol\":4594:4606  _uens.length */\n      mload\n        /* \"whitelist.sol\":4594:4624  _uens.length == _admins.length */\n      eq\n        /* \"whitelist.sol\":4594:4657  _uens.length == _admins.length && _uens.length == _names.length */\n      dup1\n      iszero\n      tag_82\n      jumpi\n      pop\n        /* \"whitelist.sol\":4644:4650  _names */\n      dup2\n        /* \"whitelist.sol\":4644:4657  _names.length */\n      mload\n        /* \"whitelist.sol\":4628:4633  _uens */\n      dup4\n        /* \"whitelist.sol\":4628:4640  _uens.length */\n      mload\n        /* \"whitelist.sol\":4628:4657  _uens.length == _names.length */\n      eq\n        /* \"whitelist.sol\":4594:4657  _uens.length == _admins.length && _uens.length == _names.length */\n    tag_82:\n        /* \"whitelist.sol\":4585:4698  require (_uens.length == _admins.length && _uens.length == _names.length, \"All inputs must have the same length\") */\n      tag_83\n      jumpi\n      mload(0x40)\n      0x08c379a000000000000000000000000000000000000000000000000000000000\n      dup2\n      mstore\n      0x04\n      add\n      tag_84\n      swap1\n      tag_85\n      jump\t// in\n    tag_84:\n      mload(0x40)\n      dup1\n      swap2\n      sub\n      swap1\n      revert\n    tag_83:\n        /* \"whitelist.sol\":4707:4713  uint i */\n      0x00\n        /* \"whitelist.sol\":4702:5073  for (uint i = 0; i < _uens.length; i++) {... */\n    tag_86:\n        /* \"whitelist.sol\":4723:4728  _uens */\n      dup4\n        /* \"whitelist.sol\":4723:4735  _uens.length */\n      mload\n        /* \"whitelist.sol\":4719:4720  i */\n      dup2\n        /* \"whitelist.sol\":4719:4735  i < _uens.length */\n      lt\n        /* \"whitelist.sol\":4702:5073  for (uint i = 0; i < _uens.length; i++) {... */\n      iszero\n      tag_87\n      jumpi\n        /* \"whitelist.sol\":4857:4863  _names */\n      dup3\n        /* \"whitelist.sol\":4864:4865  i */\n      dup2\n        /* \"whitelist.sol\":4857:4866  _names[i] */\n      dup2\n      mload\n      dup2\n      lt\n      tag_89\n      jumpi\n      tag_90\n      tag_91\n      jump\t// in\n    tag_90:\n    tag_89:\n      0x20\n      mul\n      0x20\n      add\n      add\n      mload\n        /* \"whitelist.sol\":4840:4867  abi.encodePacked(_names[i]) */\n      add(0x20, mload(0x40))\n      tag_92\n      swap2\n      swap1\n      tag_93\n      jump\t// in\n    tag_92:\n      mload(0x40)\n      0x20\n      dup2\n      dup4\n      sub\n      sub\n      dup2\n      mstore\n      swap1\n      0x40\n      mstore\n        /* \"whitelist.sol\":4830:4868  keccak256(abi.encodePacked(_names[i])) */\n      dup1\n      mload\n      swap1\n      0x20\n      add\n      keccak256\n        /* \"whitelist.sol\":4782:4805  uen_management_contract */\n      0x01\n      0x00\n      swap1\n      sload\n      swap1\n      0x0100\n      exp\n      swap1\n      div\n      0xffffffffffffffffffffffffffffffffffffffff\n      and\n        /* \"whitelist.sol\":4782:4814  uen_management_contract.get_name */\n      0xffffffffffffffffffffffffffffffffffffffff\n      and\n      0xa8f5d7a6\n        /* \"whitelist.sol\":4815:4820  _uens */\n      dup7\n        /* \"whitelist.sol\":4821:4822  i */\n      dup5\n        /* \"whitelist.sol\":4815:4823  _uens[i] */\n      dup2\n      mload\n      dup2\n      lt\n      tag_94\n      jumpi\n      tag_95\n      tag_91\n      jump\t// in\n    tag_95:\n    tag_94:\n      0x20\n      mul\n      0x20\n      add\n      add\n      mload\n        /* \"whitelist.sol\":4782:4824  uen_management_contract.get_name(_uens[i]) */\n      mload(0x40)\n      dup3\n      0xffffffff\n      and\n      0xe0\n      shl\n      dup2\n      mstore\n      0x04\n      add\n      tag_96\n      swap2\n      swap1\n      tag_24\n      jump\t// in\n    tag_96:\n      0x00\n      mload(0x40)\n      dup1\n      dup4\n      sub\n      dup2\n      dup7\n      gas\n      staticcall\n      iszero\n      dup1\n      iszero\n      tag_98\n      jumpi\n      returndatasize\n      0x00\n      dup1\n      returndatacopy\n      revert(0x00, returndatasize)\n    tag_98:\n      pop\n      pop\n      pop\n      pop\n      mload(0x40)\n      returndatasize\n      0x00\n      dup3\n      returndatacopy\n      returndatasize\n      not(0x1f)\n      0x1f\n      dup3\n      add\n      and\n      dup3\n      add\n      dup1\n      0x40\n      mstore\n      pop\n      dup2\n      add\n      swap1\n      tag_99\n      swap2\n      swap1\n      tag_100\n      jump\t// in\n    tag_99:\n        /* \"whitelist.sol\":4765:4825  abi.encodePacked(uen_management_contract.get_name(_uens[i])) */\n      add(0x20, mload(0x40))\n      tag_101\n      swap2\n      swap1\n      tag_93\n      jump\t// in\n    tag_101:\n      mload(0x40)\n      0x20\n      dup2\n      dup4\n      sub\n      sub\n      dup2\n      mstore\n      swap1\n      0x40\n      mstore\n        /* \"whitelist.sol\":4755:4826  keccak256(abi.encodePacked(uen_management_contract.get_name(_uens[i]))) */\n      dup1\n      mload\n      swap1\n      0x20\n      add\n      keccak256\n        /* \"whitelist.sol\":4755:4868  keccak256(abi.encodePacked(uen_management_contract.get_name(_uens[i]))) == keccak256(abi.encodePacked(_names[i])) */\n      eq\n        /* \"whitelist.sol\":4747:4892  require(keccak256(abi.encodePacked(uen_management_contract.get_name(_uens[i]))) == keccak256(abi.encodePacked(_names[i])), \"Name does not match\") */\n      tag_102\n      jumpi\n      mload(0x40)\n      0x08c379a000000000000000000000000000000000000000000000000000000000\n      dup2\n      mstore\n      0x04\n      add\n      tag_103\n      swap1\n      tag_104\n      jump\t// in\n    tag_103:\n      mload(0x40)\n      dup1\n      swap2\n      sub\n      swap1\n      revert\n    tag_102:\n        /* \"whitelist.sol\":4935:4942  _admins */\n      dup2\n        /* \"whitelist.sol\":4943:4944  i */\n      dup2\n        /* \"whitelist.sol\":4935:4945  _admins[i] */\n      dup2\n      mload\n      dup2\n      lt\n      tag_105\n      jumpi\n      tag_106\n      tag_91\n      jump\t// in\n    tag_106:\n    tag_105:\n      0x20\n      mul\n      0x20\n      add\n      add\n      mload\n        /* \"whitelist.sol\":4905:4945  uen_to_whitelist[_uens[i]] == _admins[i] */\n      0xffffffffffffffffffffffffffffffffffffffff\n      and\n        /* \"whitelist.sol\":4905:4921  uen_to_whitelist */\n      0x02\n        /* \"whitelist.sol\":4922:4927  _uens */\n      dup6\n        /* \"whitelist.sol\":4928:4929  i */\n      dup4\n        /* \"whitelist.sol\":4922:4930  _uens[i] */\n      dup2\n      mload\n      dup2\n      lt\n      tag_107\n      jumpi\n      tag_108\n      tag_91\n      jump\t// in\n    tag_108:\n    tag_107:\n      0x20\n      mul\n      0x20\n      add\n      add\n      mload\n        /* \"whitelist.sol\":4905:4931  uen_to_whitelist[_uens[i]] */\n      mload(0x40)\n      tag_109\n      swap2\n      swap1\n      tag_93\n      jump\t// in\n    tag_109:\n      swap1\n      dup2\n      mstore\n      0x20\n      add\n      mload(0x40)\n      dup1\n      swap2\n      sub\n      swap1\n      keccak256\n      0x00\n      swap1\n      sload\n      swap1\n      0x0100\n      exp\n      swap1\n      div\n      0xffffffffffffffffffffffffffffffffffffffff\n      and\n        /* \"whitelist.sol\":4905:4945  uen_to_whitelist[_uens[i]] == _admins[i] */\n      0xffffffffffffffffffffffffffffffffffffffff\n      and\n      eq\n        /* \"whitelist.sol\":4897:4974  require(uen_to_whitelist[_uens[i]] == _admins[i], \"Whitelist does not exist\") */\n      tag_110\n      jumpi\n      mload(0x40)\n      0x08c379a000000000000000000000000000000000000000000000000000000000\n      dup2\n      mstore\n      0x04\n      add\n      tag_111\n      swap1\n      tag_112\n      jump\t// in\n    tag_111:\n      mload(0x40)\n      dup1\n      swap2\n      sub\n      swap1\n      revert\n    tag_110:\n        /* \"whitelist.sol\":4986:5002  uen_to_whitelist */\n      0x02\n        /* \"whitelist.sol\":5003:5008  _uens */\n      dup5\n        /* \"whitelist.sol\":5009:5010  i */\n      dup3\n        /* \"whitelist.sol\":5003:5011  _uens[i] */\n      dup2\n      mload\n      dup2\n      lt\n      tag_113\n      jumpi\n      tag_114\n      tag_91\n      jump\t// in\n    tag_114:\n    tag_113:\n      0x20\n      mul\n      0x20\n      add\n      add\n      mload\n        /* \"whitelist.sol\":4986:5012  uen_to_whitelist[_uens[i]] */\n      mload(0x40)\n      tag_115\n      swap2\n      swap1\n      tag_93\n      jump\t// in\n    tag_115:\n      swap1\n      dup2\n      mstore\n      0x20\n      add\n      mload(0x40)\n      dup1\n      swap2\n      sub\n      swap1\n      keccak256\n      0x00\n        /* \"whitelist.sol\":4979:5012  delete uen_to_whitelist[_uens[i]] */\n      0x0100\n      exp\n      dup2\n      sload\n      swap1\n      0xffffffffffffffffffffffffffffffffffffffff\n      mul\n      not\n      and\n      swap1\n      sstore\n        /* \"whitelist.sol\":5024:5040  whitelist_to_uen */\n      0x03\n        /* \"whitelist.sol\":5024:5068  whitelist_to_uen[uen_to_whitelist[_uens[i]]] */\n      0x00\n        /* \"whitelist.sol\":5041:5057  uen_to_whitelist */\n      0x02\n        /* \"whitelist.sol\":5058:5063  _uens */\n      dup7\n        /* \"whitelist.sol\":5064:5065  i */\n      dup5\n        /* \"whitelist.sol\":5058:5066  _uens[i] */\n      dup2\n      mload\n      dup2\n      lt\n      tag_116\n      jumpi\n      tag_117\n      tag_91\n      jump\t// in\n    tag_117:\n    tag_116:\n      0x20\n      mul\n      0x20\n      add\n      add\n      mload\n        /* \"whitelist.sol\":5041:5067  uen_to_whitelist[_uens[i]] */\n      mload(0x40)\n      tag_118\n      swap2\n      swap1\n      tag_93\n      jump\t// in\n    tag_118:\n      swap1\n      dup2\n      mstore\n      0x20\n      add\n      mload(0x40)\n      dup1\n      swap2\n      sub\n      swap1\n      keccak256\n      0x00\n      swap1\n      sload\n      swap1\n      0x0100\n      exp\n      swap1\n      div\n      0xffffffffffffffffffffffffffffffffffffffff\n      and\n        /* \"whitelist.sol\":5024:5068  whitelist_to_uen[uen_to_whitelist[_uens[i]]] */\n      0xffffffffffffffffffffffffffffffffffffffff\n      and\n      0xffffffffffffffffffffffffffffffffffffffff\n      and\n      dup2\n      mstore\n      0x20\n      add\n      swap1\n      dup2\n      mstore\n      0x20\n      add\n      0x00\n      keccak256\n      0x00\n        /* \"whitelist.sol\":5017:5068  delete whitelist_to_uen[uen_to_whitelist[_uens[i]]] */\n      tag_119\n      swap2\n      swap1\n      tag_120\n      jump\t// in\n    tag_119:\n        /* \"whitelist.sol\":4737:4740  i++ */\n      dup1\n      dup1\n      0x01\n      add\n      swap2\n      pop\n      pop\n        /* \"whitelist.sol\":4702:5073  for (uint i = 0; i < _uens.length; i++) {... */\n      jump(tag_86)\n    tag_87:\n      pop\n        /* \"whitelist.sol\":5081:5169  whitelist_event(_uens, _names, block.timestamp, msg.sender, \"Whitelist removed for UEN\") */\n      0xc34ccbed97ba0e83987b49db1d6ecbf95305505abc406fb675bda2d8158571f0\n        /* \"whitelist.sol\":5097:5102  _uens */\n      dup4\n        /* \"whitelist.sol\":5104:5110  _names */\n      dup4\n        /* \"whitelist.sol\":5112:5127  block.timestamp */\n      timestamp\n        /* \"whitelist.sol\":5129:5139  msg.sender */\n      caller\n        /* \"whitelist.sol\":5081:5169  whitelist_event(_uens, _names, block.timestamp, msg.sender, \"Whitelist removed for UEN\") */\n      mload(0x40)\n      tag_121\n      swap5\n      swap4\n      swap3\n      swap2\n      swap1\n      tag_122\n      jump\t// in\n    tag_121:\n      mload(0x40)\n      dup1\n      swap2\n      sub\n      swap1\n      log1\n        /* \"whitelist.sol\":4448:5173  function remove_whitelist_to_uen_mapping(string[] memory _uens, string[] memory _names, address[] memory _admins) external onlyOwner {... */\n      pop\n      pop\n      pop\n      jump\t// out\n        /* \"whitelist.sol\":2056:2173  function get_uen_to_whitelist(string memory _uen) public view returns (address) {... */\n    tag_45:\n        /* \"whitelist.sol\":2127:2134  address */\n      0x00\n        /* \"whitelist.sol\":2147:2163  uen_to_whitelist */\n      0x02\n        /* \"whitelist.sol\":2164:2168  _uen */\n      dup3\n        /* \"whitelist.sol\":2147:2169  uen_to_whitelist[_uen] */\n      mload(0x40)\n      tag_124\n      swap2\n      swap1\n      tag_93\n      jump\t// in\n    tag_124:\n      swap1\n      dup2\n      mstore\n      0x20\n      add\n      mload(0x40)\n      dup1\n      swap2\n      sub\n      swap1\n      keccak256\n      0x00\n      swap1\n      sload\n      swap1\n      0x0100\n      exp\n      swap1\n      div\n      0xffffffffffffffffffffffffffffffffffffffff\n      and\n        /* \"whitelist.sol\":2140:2169  return uen_to_whitelist[_uen] */\n      swap1\n      pop\n        /* \"whitelist.sol\":2056:2173  function get_uen_to_whitelist(string memory _uen) public view returns (address) {... */\n      swap2\n      swap1\n      pop\n      jump\t// out\n        /* \"whitelist.sol\":1548:1598  mapping(string => address) public uen_to_whitelist */\n    tag_49:\n      0x02\n      dup2\n      dup1\n      mload\n      0x20\n      dup2\n      add\n      dup3\n      add\n      dup1\n      mload\n      dup5\n      dup3\n      mstore\n      0x20\n      dup4\n      add\n      0x20\n      dup6\n      add\n      keccak256\n      dup2\n      dup4\n      mstore\n      dup1\n      swap6\n      pop\n      pop\n      pop\n      pop\n      pop\n      pop\n      0x00\n      swap2\n      pop\n      sload\n      swap1\n      0x0100\n      exp\n      swap1\n      div\n      0xffffffffffffffffffffffffffffffffffffffff\n      and\n      dup2\n      jump\t// out\n        /* \"whitelist.sol\":3268:3982  function map_whitelist_to_uen(string[] memory _uens, string[] memory _names, address[] memory _admins) external onlyOwner {... */\n    tag_53:\n        /* \"@openzeppelin/contracts/access/Ownable.sol\":1531:1544  _checkOwner() */\n      tag_126\n        /* \"@openzeppelin/contracts/access/Ownable.sol\":1531:1542  _checkOwner */\n      tag_66\n        /* \"@openzeppelin/contracts/access/Ownable.sol\":1531:1544  _checkOwner() */\n      jump\t// in\n    tag_126:\n        /* \"whitelist.sol\":3421:3428  _admins */\n      dup1\n        /* \"whitelist.sol\":3421:3435  _admins.length */\n      mload\n        /* \"whitelist.sol\":3405:3410  _uens */\n      dup4\n        /* \"whitelist.sol\":3405:3417  _uens.length */\n      mload\n        /* \"whitelist.sol\":3405:3435  _uens.length == _admins.length */\n      eq\n        /* \"whitelist.sol\":3405:3468  _uens.length == _admins.length && _uens.length == _names.length */\n      dup1\n      iszero\n      tag_128\n      jumpi\n      pop\n        /* \"whitelist.sol\":3455:3461  _names */\n      dup2\n        /* \"whitelist.sol\":3455:3468  _names.length */\n      mload\n        /* \"whitelist.sol\":3439:3444  _uens */\n      dup4\n        /* \"whitelist.sol\":3439:3451  _uens.length */\n      mload\n        /* \"whitelist.sol\":3439:3468  _uens.length == _names.length */\n      eq\n        /* \"whitelist.sol\":3405:3468  _uens.length == _admins.length && _uens.length == _names.length */\n    tag_128:\n        /* \"whitelist.sol\":3397:3509  require(_uens.length == _admins.length && _uens.length == _names.length, \"All inputs must have the same length\") */\n      tag_129\n      jumpi\n      mload(0x40)\n      0x08c379a000000000000000000000000000000000000000000000000000000000\n      dup2\n      mstore\n      0x04\n      add\n      tag_130\n      swap1\n      tag_85\n      jump\t// in\n    tag_130:\n      mload(0x40)\n      dup1\n      swap2\n      sub\n      swap1\n      revert\n    tag_129:\n        /* \"whitelist.sol\":3518:3524  uint i */\n      0x00\n        /* \"whitelist.sol\":3513:3884  for (uint i = 0; i < _uens.length; i++) {... */\n    tag_131:\n        /* \"whitelist.sol\":3534:3539  _uens */\n      dup4\n        /* \"whitelist.sol\":3534:3546  _uens.length */\n      mload\n        /* \"whitelist.sol\":3530:3531  i */\n      dup2\n        /* \"whitelist.sol\":3530:3546  i < _uens.length */\n      lt\n        /* \"whitelist.sol\":3513:3884  for (uint i = 0; i < _uens.length; i++) {... */\n      iszero\n      tag_132\n      jumpi\n        /* \"whitelist.sol\":3558:3576  string memory name */\n      0x00\n        /* \"whitelist.sol\":3579:3602  uen_management_contract */\n      0x01\n      0x00\n      swap1\n      sload\n      swap1\n      0x0100\n      exp\n      swap1\n      div\n      0xffffffffffffffffffffffffffffffffffffffff\n      and\n        /* \"whitelist.sol\":3579:3611  uen_management_contract.get_name */\n      0xffffffffffffffffffffffffffffffffffffffff\n      and\n      0xa8f5d7a6\n        /* \"whitelist.sol\":3612:3617  _uens */\n      dup7\n        /* \"whitelist.sol\":3618:3619  i */\n      dup5\n        /* \"whitelist.sol\":3612:3620  _uens[i] */\n      dup2\n      mload\n      dup2\n      lt\n      tag_134\n      jumpi\n      tag_135\n      tag_91\n      jump\t// in\n    tag_135:\n    tag_134:\n      0x20\n      mul\n      0x20\n      add\n      add\n      mload\n        /* \"whitelist.sol\":3579:3621  uen_management_contract.get_name(_uens[i]) */\n      mload(0x40)\n      dup3\n      0xffffffff\n      and\n      0xe0\n      shl\n      dup2\n      mstore\n      0x04\n      add\n      tag_136\n      swap2\n      swap1\n      tag_24\n      jump\t// in\n    tag_136:\n      0x00\n      mload(0x40)\n      dup1\n      dup4\n      sub\n      dup2\n      dup7\n      gas\n      staticcall\n      iszero\n      dup1\n      iszero\n      tag_138\n      jumpi\n      returndatasize\n      0x00\n      dup1\n      returndatacopy\n      revert(0x00, returndatasize)\n    tag_138:\n      pop\n      pop\n      pop\n      pop\n      mload(0x40)\n      returndatasize\n      0x00\n      dup3\n      returndatacopy\n      returndatasize\n      not(0x1f)\n      0x1f\n      dup3\n      add\n      and\n      dup3\n      add\n      dup1\n      0x40\n      mstore\n      pop\n      dup2\n      add\n      swap1\n      tag_139\n      swap2\n      swap1\n      tag_100\n      jump\t// in\n    tag_139:\n        /* \"whitelist.sol\":3558:3621  string memory name = uen_management_contract.get_name(_uens[i]) */\n      swap1\n      pop\n        /* \"whitelist.sol\":3655:3656  0 */\n      0x00\n        /* \"whitelist.sol\":3640:3644  name */\n      dup2\n        /* \"whitelist.sol\":3634:3652  bytes(name).length */\n      mload\n        /* \"whitelist.sol\":3634:3656  bytes(name).length > 0 */\n      gt\n        /* \"whitelist.sol\":3626:3679  require(bytes(name).length > 0, \"UEN does not exist\") */\n      tag_140\n      jumpi\n      mload(0x40)\n      0x08c379a000000000000000000000000000000000000000000000000000000000\n      dup2\n      mstore\n      0x04\n      add\n      tag_141\n      swap1\n      tag_142\n      jump\t// in\n    tag_141:\n      mload(0x40)\n      dup1\n      swap2\n      sub\n      swap1\n      revert\n    tag_140:\n        /* \"whitelist.sol\":3756:3762  _names */\n      dup4\n        /* \"whitelist.sol\":3763:3764  i */\n      dup3\n        /* \"whitelist.sol\":3756:3765  _names[i] */\n      dup2\n      mload\n      dup2\n      lt\n      tag_143\n      jumpi\n      tag_144\n      tag_91\n      jump\t// in\n    tag_144:\n    tag_143:\n      0x20\n      mul\n      0x20\n      add\n      add\n      mload\n        /* \"whitelist.sol\":3739:3766  abi.encodePacked(_names[i]) */\n      add(0x20, mload(0x40))\n      tag_145\n      swap2\n      swap1\n      tag_93\n      jump\t// in\n    tag_145:\n      mload(0x40)\n      0x20\n      dup2\n      dup4\n      sub\n      sub\n      dup2\n      mstore\n      swap1\n      0x40\n      mstore\n        /* \"whitelist.sol\":3729:3767  keccak256(abi.encodePacked(_names[i])) */\n      dup1\n      mload\n      swap1\n      0x20\n      add\n      keccak256\n        /* \"whitelist.sol\":3719:3723  name */\n      dup2\n        /* \"whitelist.sol\":3702:3724  abi.encodePacked(name) */\n      add(0x20, mload(0x40))\n      tag_146\n      swap2\n      swap1\n      tag_93\n      jump\t// in\n    tag_146:\n      mload(0x40)\n      0x20\n      dup2\n      dup4\n      sub\n      sub\n      dup2\n      mstore\n      swap1\n      0x40\n      mstore\n        /* \"whitelist.sol\":3692:3725  keccak256(abi.encodePacked(name)) */\n      dup1\n      mload\n      swap1\n      0x20\n      add\n      keccak256\n        /* \"whitelist.sol\":3692:3767  keccak256(abi.encodePacked(name)) == keccak256(abi.encodePacked(_names[i])) */\n      eq\n        /* \"whitelist.sol\":3684:3791  require(keccak256(abi.encodePacked(name)) == keccak256(abi.encodePacked(_names[i])), \"Name does not match\") */\n      tag_147\n      jumpi\n      mload(0x40)\n      0x08c379a000000000000000000000000000000000000000000000000000000000\n      dup2\n      mstore\n      0x04\n      add\n      tag_148\n      swap1\n      tag_104\n      jump\t// in\n    tag_148:\n      mload(0x40)\n      dup1\n      swap2\n      sub\n      swap1\n      revert\n    tag_147:\n        /* \"whitelist.sol\":3825:3832  _admins */\n      dup3\n        /* \"whitelist.sol\":3833:3834  i */\n      dup3\n        /* \"whitelist.sol\":3825:3835  _admins[i] */\n      dup2\n      mload\n      dup2\n      lt\n      tag_149\n      jumpi\n      tag_150\n      tag_91\n      jump\t// in\n    tag_150:\n    tag_149:\n      0x20\n      mul\n      0x20\n      add\n      add\n      mload\n        /* \"whitelist.sol\":3796:3812  uen_to_whitelist */\n      0x02\n        /* \"whitelist.sol\":3813:3818  _uens */\n      dup7\n        /* \"whitelist.sol\":3819:3820  i */\n      dup5\n        /* \"whitelist.sol\":3813:3821  _uens[i] */\n      dup2\n      mload\n      dup2\n      lt\n      tag_151\n      jumpi\n      tag_152\n      tag_91\n      jump\t// in\n    tag_152:\n    tag_151:\n      0x20\n      mul\n      0x20\n      add\n      add\n      mload\n        /* \"whitelist.sol\":3796:3822  uen_to_whitelist[_uens[i]] */\n      mload(0x40)\n      tag_153\n      swap2\n      swap1\n      tag_93\n      jump\t// in\n    tag_153:\n      swap1\n      dup2\n      mstore\n      0x20\n      add\n      mload(0x40)\n      dup1\n      swap2\n      sub\n      swap1\n      keccak256\n      0x00\n        /* \"whitelist.sol\":3796:3835  uen_to_whitelist[_uens[i]] = _admins[i] */\n      0x0100\n      exp\n      dup2\n      sload\n      dup2\n      0xffffffffffffffffffffffffffffffffffffffff\n      mul\n      not\n      and\n      swap1\n      dup4\n      0xffffffffffffffffffffffffffffffffffffffff\n      and\n      mul\n      or\n      swap1\n      sstore\n      pop\n        /* \"whitelist.sol\":3871:3876  _uens */\n      dup5\n        /* \"whitelist.sol\":3877:3878  i */\n      dup3\n        /* \"whitelist.sol\":3871:3879  _uens[i] */\n      dup2\n      mload\n      dup2\n      lt\n      tag_154\n      jumpi\n      tag_155\n      tag_91\n      jump\t// in\n    tag_155:\n    tag_154:\n      0x20\n      mul\n      0x20\n      add\n      add\n      mload\n        /* \"whitelist.sol\":3840:3856  whitelist_to_uen */\n      0x03\n        /* \"whitelist.sol\":3840:3868  whitelist_to_uen[_admins[i]] */\n      0x00\n        /* \"whitelist.sol\":3857:3864  _admins */\n      dup6\n        /* \"whitelist.sol\":3865:3866  i */\n      dup6\n        /* \"whitelist.sol\":3857:3867  _admins[i] */\n      dup2\n      mload\n      dup2\n      lt\n      tag_156\n      jumpi\n      tag_157\n      tag_91\n      jump\t// in\n    tag_157:\n    tag_156:\n      0x20\n      mul\n      0x20\n      add\n      add\n      mload\n        /* \"whitelist.sol\":3840:3868  whitelist_to_uen[_admins[i]] */\n      0xffffffffffffffffffffffffffffffffffffffff\n      and\n      0xffffffffffffffffffffffffffffffffffffffff\n      and\n      dup2\n      mstore\n      0x20\n      add\n      swap1\n      dup2\n      mstore\n      0x20\n      add\n      0x00\n      keccak256\n        /* \"whitelist.sol\":3840:3879  whitelist_to_uen[_admins[i]] = _uens[i] */\n      swap1\n      dup2\n      tag_158\n      swap2\n      swap1\n      tag_159\n      jump\t// in\n    tag_158:\n      pop\n        /* \"whitelist.sol\":3553:3884  {... */\n      pop\n        /* \"whitelist.sol\":3548:3551  i++ */\n      dup1\n      dup1\n      0x01\n      add\n      swap2\n      pop\n      pop\n        /* \"whitelist.sol\":3513:3884  for (uint i = 0; i < _uens.length; i++) {... */\n      jump(tag_131)\n    tag_132:\n      pop\n        /* \"whitelist.sol\":3892:3978  whitelist_event(_uens, _names, block.timestamp, msg.sender, \"Whitelist added for UEN\") */\n      0xc34ccbed97ba0e83987b49db1d6ecbf95305505abc406fb675bda2d8158571f0\n        /* \"whitelist.sol\":3908:3913  _uens */\n      dup4\n        /* \"whitelist.sol\":3915:3921  _names */\n      dup4\n        /* \"whitelist.sol\":3923:3938  block.timestamp */\n      timestamp\n        /* \"whitelist.sol\":3940:3950  msg.sender */\n      caller\n        /* \"whitelist.sol\":3892:3978  whitelist_event(_uens, _names, block.timestamp, msg.sender, \"Whitelist added for UEN\") */\n      mload(0x40)\n      tag_160\n      swap5\n      swap4\n      swap3\n      swap2\n      swap1\n      tag_161\n      jump\t// in\n    tag_160:\n      mload(0x40)\n      dup1\n      swap2\n      sub\n      swap1\n      log1\n        /* \"whitelist.sol\":3268:3982  function map_whitelist_to_uen(string[] memory _uens, string[] memory _names, address[] memory _admins) external onlyOwner {... */\n      pop\n      pop\n      pop\n      jump\t// out\n        /* \"@openzeppelin/contracts/access/Ownable.sol\":2543:2758  function transferOwnership(address newOwner) public virtual onlyOwner {... */\n    tag_56:\n        /* \"@openzeppelin/contracts/access/Ownable.sol\":1531:1544  _checkOwner() */\n      tag_163\n        /* \"@openzeppelin/contracts/access/Ownable.sol\":1531:1542  _checkOwner */\n      tag_66\n        /* \"@openzeppelin/contracts/access/Ownable.sol\":1531:1544  _checkOwner() */\n      jump\t// in\n    tag_163:\n        /* \"@openzeppelin/contracts/access/Ownable.sol\":2647:2648  0 */\n      0x00\n        /* \"@openzeppelin/contracts/access/Ownable.sol\":2627:2649  newOwner == address(0) */\n      0xffffffffffffffffffffffffffffffffffffffff\n      and\n        /* \"@openzeppelin/contracts/access/Ownable.sol\":2627:2635  newOwner */\n      dup2\n        /* \"@openzeppelin/contracts/access/Ownable.sol\":2627:2649  newOwner == address(0) */\n      0xffffffffffffffffffffffffffffffffffffffff\n      and\n      sub\n        /* \"@openzeppelin/contracts/access/Ownable.sol\":2623:2714  if (newOwner == address(0)) {... */\n      tag_165\n      jumpi\n        /* \"@openzeppelin/contracts/access/Ownable.sol\":2700:2701  0 */\n      0x00\n        /* \"@openzeppelin/contracts/access/Ownable.sol\":2672:2703  OwnableInvalidOwner(address(0)) */\n      mload(0x40)\n      0x1e4fbdf700000000000000000000000000000000000000000000000000000000\n      dup2\n      mstore\n      0x04\n      add\n      tag_166\n      swap2\n      swap1\n      tag_30\n      jump\t// in\n    tag_166:\n      mload(0x40)\n      dup1\n      swap2\n      sub\n      swap1\n      revert\n        /* \"@openzeppelin/contracts/access/Ownable.sol\":2623:2714  if (newOwner == address(0)) {... */\n    tag_165:\n        /* \"@openzeppelin/contracts/access/Ownable.sol\":2723:2751  _transferOwnership(newOwner) */\n      tag_167\n        /* \"@openzeppelin/contracts/access/Ownable.sol\":2742:2750  newOwner */\n      dup2\n        /* \"@openzeppelin/contracts/access/Ownable.sol\":2723:2741  _transferOwnership */\n      tag_69\n        /* \"@openzeppelin/contracts/access/Ownable.sol\":2723:2751  _transferOwnership(newOwner) */\n      jump\t// in\n    tag_167:\n        /* \"@openzeppelin/contracts/access/Ownable.sol\":2543:2758  function transferOwnership(address newOwner) public virtual onlyOwner {... */\n      pop\n      jump\t// out\n        /* \"@openzeppelin/contracts/access/Ownable.sol\":1796:1958  function _checkOwner() internal view virtual {... */\n    tag_66:\n        /* \"@openzeppelin/contracts/access/Ownable.sol\":1866:1878  _msgSender() */\n      tag_169\n        /* \"@openzeppelin/contracts/access/Ownable.sol\":1866:1876  _msgSender */\n      tag_170\n        /* \"@openzeppelin/contracts/access/Ownable.sol\":1866:1878  _msgSender() */\n      jump\t// in\n    tag_169:\n        /* \"@openzeppelin/contracts/access/Ownable.sol\":1855:1878  owner() != _msgSender() */\n      0xffffffffffffffffffffffffffffffffffffffff\n      and\n        /* \"@openzeppelin/contracts/access/Ownable.sol\":1855:1862  owner() */\n      tag_171\n        /* \"@openzeppelin/contracts/access/Ownable.sol\":1855:1860  owner */\n      tag_28\n        /* \"@openzeppelin/contracts/access/Ownable.sol\":1855:1862  owner() */\n      jump\t// in\n    tag_171:\n        /* \"@openzeppelin/contracts/access/Ownable.sol\":1855:1878  owner() != _msgSender() */\n      0xffffffffffffffffffffffffffffffffffffffff\n      and\n      eq\n        /* \"@openzeppelin/contracts/access/Ownable.sol\":1851:1952  if (owner() != _msgSender()) {... */\n      tag_172\n      jumpi\n        /* \"@openzeppelin/contracts/access/Ownable.sol\":1928:1940  _msgSender() */\n      tag_173\n        /* \"@openzeppelin/contracts/access/Ownable.sol\":1928:1938  _msgSender */\n      tag_170\n        /* \"@openzeppelin/contracts/access/Ownable.sol\":1928:1940  _msgSender() */\n      jump\t// in\n    tag_173:\n        /* \"@openzeppelin/contracts/access/Ownable.sol\":1901:1941  OwnableUnauthorizedAccount(_msgSender()) */\n      mload(0x40)\n      0x118cdaa700000000000000000000000000000000000000000000000000000000\n      dup2\n      mstore\n      0x04\n      add\n      tag_174\n      swap2\n      swap1\n      tag_30\n      jump\t// in\n    tag_174:\n      mload(0x40)\n      dup1\n      swap2\n      sub\n      swap1\n      revert\n        /* \"@openzeppelin/contracts/access/Ownable.sol\":1851:1952  if (owner() != _msgSender()) {... */\n    tag_172:\n        /* \"@openzeppelin/contracts/access/Ownable.sol\":1796:1958  function _checkOwner() internal view virtual {... */\n      jump\t// out\n        /* \"@openzeppelin/contracts/access/Ownable.sol\":2912:3099  function _transferOwnership(address newOwner) internal virtual {... */\n    tag_69:\n        /* \"@openzeppelin/contracts/access/Ownable.sol\":2985:3001  address oldOwner */\n      0x00\n        /* \"@openzeppelin/contracts/access/Ownable.sol\":3004:3010  _owner */\n      dup1\n      0x00\n      swap1\n      sload\n      swap1\n      0x0100\n      exp\n      swap1\n      div\n      0xffffffffffffffffffffffffffffffffffffffff\n      and\n        /* \"@openzeppelin/contracts/access/Ownable.sol\":2985:3010  address oldOwner = _owner */\n      swap1\n      pop\n        /* \"@openzeppelin/contracts/access/Ownable.sol\":3029:3037  newOwner */\n      dup2\n        /* \"@openzeppelin/contracts/access/Ownable.sol\":3020:3026  _owner */\n      0x00\n      dup1\n        /* \"@openzeppelin/contracts/access/Ownable.sol\":3020:3037  _owner = newOwner */\n      0x0100\n      exp\n      dup2\n      sload\n      dup2\n      0xffffffffffffffffffffffffffffffffffffffff\n      mul\n      not\n      and\n      swap1\n      dup4\n      0xffffffffffffffffffffffffffffffffffffffff\n      and\n      mul\n      or\n      swap1\n      sstore\n      pop\n        /* \"@openzeppelin/contracts/access/Ownable.sol\":3083:3091  newOwner */\n      dup2\n        /* \"@openzeppelin/contracts/access/Ownable.sol\":3052:3092  OwnershipTransferred(oldOwner, newOwner) */\n      0xffffffffffffffffffffffffffffffffffffffff\n      and\n        /* \"@openzeppelin/contracts/access/Ownable.sol\":3073:3081  oldOwner */\n      dup2\n        /* \"@openzeppelin/contracts/access/Ownable.sol\":3052:3092  OwnershipTransferred(oldOwner, newOwner) */\n      0xffffffffffffffffffffffffffffffffffffffff\n      and\n      0x8be0079c531659141344cd1fd0a4f28419497f9722a3daafe3b4186f6b6457e0\n      mload(0x40)\n      mload(0x40)\n      dup1\n      swap2\n      sub\n      swap1\n      log3\n        /* \"@openzeppelin/contracts/access/Ownable.sol\":2975:3099  {... */\n      pop\n        /* \"@openzeppelin/contracts/access/Ownable.sol\":2912:3099  function _transferOwnership(address newOwner) internal virtual {... */\n      pop\n      jump\t// out\n        /* \"@openzeppelin/contracts/utils/Context.sol\":656:752  function _msgSender() internal view virtual returns (address) {... */\n    tag_170:\n        /* \"@openzeppelin/contracts/utils/Context.sol\":709:716  address */\n      0x00\n        /* \"@openzeppelin/contracts/utils/Context.sol\":735:745  msg.sender */\n      caller\n        /* \"@openzeppelin/contracts/utils/Context.sol\":728:745  return msg.sender */\n      swap1\n      pop\n        /* \"@openzeppelin/contracts/utils/Context.sol\":656:752  function _msgSender() internal view virtual returns (address) {... */\n      swap1\n      jump\t// out\n    tag_120:\n      pop\n      dup1\n      sload\n      tag_177\n      swap1\n      tag_59\n      jump\t// in\n    tag_177:\n      0x00\n      dup3\n      sstore\n      dup1\n      0x1f\n      lt\n      tag_179\n      jumpi\n      pop\n      jump(tag_178)\n    tag_179:\n      0x1f\n      add\n      0x20\n      swap1\n      div\n      swap1\n      0x00\n      mstore\n      keccak256(0x00, 0x20)\n      swap1\n      dup2\n      add\n      swap1\n      tag_180\n      swap2\n      swap1\n      tag_181\n      jump\t// in\n    tag_180:\n    tag_178:\n      pop\n      jump\t// out\n    tag_181:\n    tag_182:\n      dup1\n      dup3\n      gt\n      iszero\n      tag_183\n      jumpi\n      0x00\n      dup2\n      0x00\n      swap1\n      sstore\n      pop\n      0x01\n      add\n      jump(tag_182)\n    tag_183:\n      pop\n      swap1\n      jump\t// out\n        /* \"#utility.yul\":7:133   */\n    tag_184:\n        /* \"#utility.yul\":44:51   */\n      0x00\n        /* \"#utility.yul\":84:126   */\n      0xffffffffffffffffffffffffffffffffffffffff\n        /* \"#utility.yul\":77:82   */\n      dup3\n        /* \"#utility.yul\":73:127   */\n      and\n        /* \"#utility.yul\":62:127   */\n      swap1\n      pop\n        /* \"#utility.yul\":7:133   */\n      swap2\n      swap1\n      pop\n      jump\t// out\n        /* \"#utility.yul\":139:199   */\n    tag_185:\n        /* \"#utility.yul\":167:170   */\n      0x00\n        /* \"#utility.yul\":188:193   */\n      dup2\n        /* \"#utility.yul\":181:193   */\n      swap1\n      pop\n        /* \"#utility.yul\":139:199   */\n      swap2\n      swap1\n      pop\n      jump\t// out\n        /* \"#utility.yul\":205:347   */\n    tag_186:\n        /* \"#utility.yul\":255:264   */\n      0x00\n        /* \"#utility.yul\":288:341   */\n      tag_263\n        /* \"#utility.yul\":306:340   */\n      tag_264\n        /* \"#utility.yul\":315:339   */\n      tag_265\n        /* \"#utility.yul\":333:338   */\n      dup5\n        /* \"#utility.yul\":315:339   */\n      tag_184\n      jump\t// in\n    tag_265:\n        /* \"#utility.yul\":306:340   */\n      tag_185\n      jump\t// in\n    tag_264:\n        /* \"#utility.yul\":288:341   */\n      tag_184\n      jump\t// in\n    tag_263:\n        /* \"#utility.yul\":275:341   */\n      swap1\n      pop\n        /* \"#utility.yul\":205:347   */\n      swap2\n      swap1\n      pop\n      jump\t// out\n        /* \"#utility.yul\":353:479   */\n    tag_187:\n        /* \"#utility.yul\":403:412   */\n      0x00\n        /* \"#utility.yul\":436:473   */\n      tag_267\n        /* \"#utility.yul\":467:472   */\n      dup3\n        /* \"#utility.yul\":436:473   */\n      tag_186\n      jump\t// in\n    tag_267:\n        /* \"#utility.yul\":423:473   */\n      swap1\n      pop\n        /* \"#utility.yul\":353:479   */\n      swap2\n      swap1\n      pop\n      jump\t// out\n        /* \"#utility.yul\":485:634   */\n    tag_188:\n        /* \"#utility.yul\":558:567   */\n      0x00\n        /* \"#utility.yul\":591:628   */\n      tag_269\n        /* \"#utility.yul\":622:627   */\n      dup3\n        /* \"#utility.yul\":591:628   */\n      tag_187\n      jump\t// in\n    tag_269:\n        /* \"#utility.yul\":578:628   */\n      swap1\n      pop\n        /* \"#utility.yul\":485:634   */\n      swap2\n      swap1\n      pop\n      jump\t// out\n        /* \"#utility.yul\":640:817   */\n    tag_189:\n        /* \"#utility.yul\":750:810   */\n      tag_271\n        /* \"#utility.yul\":804:809   */\n      dup2\n        /* \"#utility.yul\":750:810   */\n      tag_188\n      jump\t// in\n    tag_271:\n        /* \"#utility.yul\":745:748   */\n      dup3\n        /* \"#utility.yul\":738:811   */\n      mstore\n        /* \"#utility.yul\":640:817   */\n      pop\n      pop\n      jump\t// out\n        /* \"#utility.yul\":823:1091   */\n    tag_18:\n        /* \"#utility.yul\":939:943   */\n      0x00\n        /* \"#utility.yul\":977:979   */\n      0x20\n        /* \"#utility.yul\":966:975   */\n      dup3\n        /* \"#utility.yul\":962:980   */\n      add\n        /* \"#utility.yul\":954:980   */\n      swap1\n      pop\n        /* \"#utility.yul\":990:1084   */\n      tag_273\n        /* \"#utility.yul\":1081:1082   */\n      0x00\n        /* \"#utility.yul\":1070:1079   */\n      dup4\n        /* \"#utility.yul\":1066:1083   */\n      add\n        /* \"#utility.yul\":1057:1063   */\n      dup5\n        /* \"#utility.yul\":990:1084   */\n      tag_189\n      jump\t// in\n    tag_273:\n        /* \"#utility.yul\":823:1091   */\n      swap3\n      swap2\n      pop\n      pop\n      jump\t// out\n        /* \"#utility.yul\":1097:1172   */\n    tag_190:\n        /* \"#utility.yul\":1130:1136   */\n      0x00\n        /* \"#utility.yul\":1163:1165   */\n      0x40\n        /* \"#utility.yul\":1157:1166   */\n      mload\n        /* \"#utility.yul\":1147:1166   */\n      swap1\n      pop\n        /* \"#utility.yul\":1097:1172   */\n      swap1\n      jump\t// out\n        /* \"#utility.yul\":1178:1295   */\n    tag_191:\n        /* \"#utility.yul\":1287:1288   */\n      0x00\n        /* \"#utility.yul\":1284:1285   */\n      dup1\n        /* \"#utility.yul\":1277:1289   */\n      revert\n        /* \"#utility.yul\":1301:1418   */\n    tag_192:\n        /* \"#utility.yul\":1410:1411   */\n      0x00\n        /* \"#utility.yul\":1407:1408   */\n      dup1\n        /* \"#utility.yul\":1400:1412   */\n      revert\n        /* \"#utility.yul\":1424:1520   */\n    tag_193:\n        /* \"#utility.yul\":1461:1468   */\n      0x00\n        /* \"#utility.yul\":1490:1514   */\n      tag_278\n        /* \"#utility.yul\":1508:1513   */\n      dup3\n        /* \"#utility.yul\":1490:1514   */\n      tag_184\n      jump\t// in\n    tag_278:\n        /* \"#utility.yul\":1479:1514   */\n      swap1\n      pop\n        /* \"#utility.yul\":1424:1520   */\n      swap2\n      swap1\n      pop\n      jump\t// out\n        /* \"#utility.yul\":1526:1648   */\n    tag_194:\n        /* \"#utility.yul\":1599:1623   */\n      tag_280\n        /* \"#utility.yul\":1617:1622   */\n      dup2\n        /* \"#utility.yul\":1599:1623   */\n      tag_193\n      jump\t// in\n    tag_280:\n        /* \"#utility.yul\":1592:1597   */\n      dup2\n        /* \"#utility.yul\":1589:1624   */\n      eq\n        /* \"#utility.yul\":1579:1642   */\n      tag_281\n      jumpi\n        /* \"#utility.yul\":1638:1639   */\n      0x00\n        /* \"#utility.yul\":1635:1636   */\n      dup1\n        /* \"#utility.yul\":1628:1640   */\n      revert\n        /* \"#utility.yul\":1579:1642   */\n    tag_281:\n        /* \"#utility.yul\":1526:1648   */\n      pop\n      jump\t// out\n        /* \"#utility.yul\":1654:1793   */\n    tag_195:\n        /* \"#utility.yul\":1700:1705   */\n      0x00\n        /* \"#utility.yul\":1738:1744   */\n      dup2\n        /* \"#utility.yul\":1725:1745   */\n      calldataload\n        /* \"#utility.yul\":1716:1745   */\n      swap1\n      pop\n        /* \"#utility.yul\":1754:1787   */\n      tag_283\n        /* \"#utility.yul\":1781:1786   */\n      dup2\n        /* \"#utility.yul\":1754:1787   */\n      tag_194\n      jump\t// in\n    tag_283:\n        /* \"#utility.yul\":1654:1793   */\n      swap3\n      swap2\n      pop\n      pop\n      jump\t// out\n        /* \"#utility.yul\":1799:2128   */\n    tag_21:\n        /* \"#utility.yul\":1858:1864   */\n      0x00\n        /* \"#utility.yul\":1907:1909   */\n      0x20\n        /* \"#utility.yul\":1895:1904   */\n      dup3\n        /* \"#utility.yul\":1886:1893   */\n      dup5\n        /* \"#utility.yul\":1882:1905   */\n      sub\n        /* \"#utility.yul\":1878:1910   */\n      slt\n        /* \"#utility.yul\":1875:1994   */\n      iszero\n      tag_285\n      jumpi\n        /* \"#utility.yul\":1913:1992   */\n      tag_286\n      tag_191\n      jump\t// in\n    tag_286:\n        /* \"#utility.yul\":1875:1994   */\n    tag_285:\n        /* \"#utility.yul\":2033:2034   */\n      0x00\n        /* \"#utility.yul\":2058:2111   */\n      tag_287\n        /* \"#utility.yul\":2103:2110   */\n      dup5\n        /* \"#utility.yul\":2094:2100   */\n      dup3\n        /* \"#utility.yul\":2083:2092   */\n      dup6\n        /* \"#utility.yul\":2079:2101   */\n      add\n        /* \"#utility.yul\":2058:2111   */\n      tag_195\n      jump\t// in\n    tag_287:\n        /* \"#utility.yul\":2048:2111   */\n      swap2\n      pop\n        /* \"#utility.yul\":2004:2121   */\n      pop\n        /* \"#utility.yul\":1799:2128   */\n      swap3\n      swap2\n      pop\n      pop\n      jump\t// out\n        /* \"#utility.yul\":2134:2233   */\n    tag_196:\n        /* \"#utility.yul\":2186:2192   */\n      0x00\n        /* \"#utility.yul\":2220:2225   */\n      dup2\n        /* \"#utility.yul\":2214:2226   */\n      mload\n        /* \"#utility.yul\":2204:2226   */\n      swap1\n      pop\n        /* \"#utility.yul\":2134:2233   */\n      swap2\n      swap1\n      pop\n      jump\t// out\n        /* \"#utility.yul\":2239:2408   */\n    tag_197:\n        /* \"#utility.yul\":2323:2334   */\n      0x00\n        /* \"#utility.yul\":2357:2363   */\n      dup3\n        /* \"#utility.yul\":2352:2355   */\n      dup3\n        /* \"#utility.yul\":2345:2364   */\n      mstore\n        /* \"#utility.yul\":2397:2401   */\n      0x20\n        /* \"#utility.yul\":2392:2395   */\n      dup3\n        /* \"#utility.yul\":2388:2402   */\n      add\n        /* \"#utility.yul\":2373:2402   */\n      swap1\n      pop\n        /* \"#utility.yul\":2239:2408   */\n      swap3\n      swap2\n      pop\n      pop\n      jump\t// out\n        /* \"#utility.yul\":2414:2660   */\n    tag_198:\n        /* \"#utility.yul\":2495:2496   */\n      0x00\n        /* \"#utility.yul\":2505:2618   */\n    tag_291:\n        /* \"#utility.yul\":2519:2525   */\n      dup4\n        /* \"#utility.yul\":2516:2517   */\n      dup2\n        /* \"#utility.yul\":2513:2526   */\n      lt\n        /* \"#utility.yul\":2505:2618   */\n      iszero\n      tag_293\n      jumpi\n        /* \"#utility.yul\":2604:2605   */\n      dup1\n        /* \"#utility.yul\":2599:2602   */\n      dup3\n        /* \"#utility.yul\":2595:2606   */\n      add\n        /* \"#utility.yul\":2589:2607   */\n      mload\n        /* \"#utility.yul\":2585:2586   */\n      dup2\n        /* \"#utility.yul\":2580:2583   */\n      dup5\n        /* \"#utility.yul\":2576:2587   */\n      add\n        /* \"#utility.yul\":2569:2608   */\n      mstore\n        /* \"#utility.yul\":2541:2543   */\n      0x20\n        /* \"#utility.yul\":2538:2539   */\n      dup2\n        /* \"#utility.yul\":2534:2544   */\n      add\n        /* \"#utility.yul\":2529:2544   */\n      swap1\n      pop\n        /* \"#utility.yul\":2505:2618   */\n      jump(tag_291)\n    tag_293:\n        /* \"#utility.yul\":2652:2653   */\n      0x00\n        /* \"#utility.yul\":2643:2649   */\n      dup5\n        /* \"#utility.yul\":2638:2641   */\n      dup5\n        /* \"#utility.yul\":2634:2650   */\n      add\n        /* \"#utility.yul\":2627:2654   */\n      mstore\n        /* \"#utility.yul\":2476:2660   */\n      pop\n        /* \"#utility.yul\":2414:2660   */\n      pop\n      pop\n      pop\n      jump\t// out\n        /* \"#utility.yul\":2666:2768   */\n    tag_199:\n        /* \"#utility.yul\":2707:2713   */\n      0x00\n        /* \"#utility.yul\":2758:2760   */\n      0x1f\n        /* \"#utility.yul\":2754:2761   */\n      not\n        /* \"#utility.yul\":2749:2751   */\n      0x1f\n        /* \"#utility.yul\":2742:2747   */\n      dup4\n        /* \"#utility.yul\":2738:2752   */\n      add\n        /* \"#utility.yul\":2734:2762   */\n      and\n        /* \"#utility.yul\":2724:2762   */\n      swap1\n      pop\n        /* \"#utility.yul\":2666:2768   */\n      swap2\n      swap1\n      pop\n      jump\t// out\n        /* \"#utility.yul\":2774:3151   */\n    tag_200:\n        /* \"#utility.yul\":2862:2865   */\n      0x00\n        /* \"#utility.yul\":2890:2929   */\n      tag_296\n        /* \"#utility.yul\":2923:2928   */\n      dup3\n        /* \"#utility.yul\":2890:2929   */\n      tag_196\n      jump\t// in\n    tag_296:\n        /* \"#utility.yul\":2945:3016   */\n      tag_297\n        /* \"#utility.yul\":3009:3015   */\n      dup2\n        /* \"#utility.yul\":3004:3007   */\n      dup6\n        /* \"#utility.yul\":2945:3016   */\n      tag_197\n      jump\t// in\n    tag_297:\n        /* \"#utility.yul\":2938:3016   */\n      swap4\n      pop\n        /* \"#utility.yul\":3025:3090   */\n      tag_298\n        /* \"#utility.yul\":3083:3089   */\n      dup2\n        /* \"#utility.yul\":3078:3081   */\n      dup6\n        /* \"#utility.yul\":3071:3075   */\n      0x20\n        /* \"#utility.yul\":3064:3069   */\n      dup7\n        /* \"#utility.yul\":3060:3076   */\n      add\n        /* \"#utility.yul\":3025:3090   */\n      tag_198\n      jump\t// in\n    tag_298:\n        /* \"#utility.yul\":3115:3144   */\n      tag_299\n        /* \"#utility.yul\":3137:3143   */\n      dup2\n        /* \"#utility.yul\":3115:3144   */\n      tag_199\n      jump\t// in\n    tag_299:\n        /* \"#utility.yul\":3110:3113   */\n      dup5\n        /* \"#utility.yul\":3106:3145   */\n      add\n        /* \"#utility.yul\":3099:3145   */\n      swap2\n      pop\n        /* \"#utility.yul\":2866:3151   */\n      pop\n        /* \"#utility.yul\":2774:3151   */\n      swap3\n      swap2\n      pop\n      pop\n      jump\t// out\n        /* \"#utility.yul\":3157:3470   */\n    tag_24:\n        /* \"#utility.yul\":3270:3274   */\n      0x00\n        /* \"#utility.yul\":3308:3310   */\n      0x20\n        /* \"#utility.yul\":3297:3306   */\n      dup3\n        /* \"#utility.yul\":3293:3311   */\n      add\n        /* \"#utility.yul\":3285:3311   */\n      swap1\n      pop\n        /* \"#utility.yul\":3357:3366   */\n      dup2\n        /* \"#utility.yul\":3351:3355   */\n      dup2\n        /* \"#utility.yul\":3347:3367   */\n      sub\n        /* \"#utility.yul\":3343:3344   */\n      0x00\n        /* \"#utility.yul\":3332:3341   */\n      dup4\n        /* \"#utility.yul\":3328:3345   */\n      add\n        /* \"#utility.yul\":3321:3368   */\n      mstore\n        /* \"#utility.yul\":3385:3463   */\n      tag_301\n        /* \"#utility.yul\":3458:3462   */\n      dup2\n        /* \"#utility.yul\":3449:3455   */\n      dup5\n        /* \"#utility.yul\":3385:3463   */\n      tag_200\n      jump\t// in\n    tag_301:\n        /* \"#utility.yul\":3377:3463   */\n      swap1\n      pop\n        /* \"#utility.yul\":3157:3470   */\n      swap3\n      swap2\n      pop\n      pop\n      jump\t// out\n        /* \"#utility.yul\":3476:3594   */\n    tag_201:\n        /* \"#utility.yul\":3563:3587   */\n      tag_303\n        /* \"#utility.yul\":3581:3586   */\n      dup2\n        /* \"#utility.yul\":3563:3587   */\n      tag_193\n      jump\t// in\n    tag_303:\n        /* \"#utility.yul\":3558:3561   */\n      dup3\n        /* \"#utility.yul\":3551:3588   */\n      mstore\n        /* \"#utility.yul\":3476:3594   */\n      pop\n      pop\n      jump\t// out\n        /* \"#utility.yul\":3600:3822   */\n    tag_30:\n        /* \"#utility.yul\":3693:3697   */\n      0x00\n        /* \"#utility.yul\":3731:3733   */\n      0x20\n        /* \"#utility.yul\":3720:3729   */\n      dup3\n        /* \"#utility.yul\":3716:3734   */\n      add\n        /* \"#utility.yul\":3708:3734   */\n      swap1\n      pop\n        /* \"#utility.yul\":3744:3815   */\n      tag_305\n        /* \"#utility.yul\":3812:3813   */\n      0x00\n        /* \"#utility.yul\":3801:3810   */\n      dup4\n        /* \"#utility.yul\":3797:3814   */\n      add\n        /* \"#utility.yul\":3788:3794   */\n      dup5\n        /* \"#utility.yul\":3744:3815   */\n      tag_201\n      jump\t// in\n    tag_305:\n        /* \"#utility.yul\":3600:3822   */\n      swap3\n      swap2\n      pop\n      pop\n      jump\t// out\n        /* \"#utility.yul\":3828:3945   */\n    tag_202:\n        /* \"#utility.yul\":3937:3938   */\n      0x00\n        /* \"#utility.yul\":3934:3935   */\n      dup1\n        /* \"#utility.yul\":3927:3939   */\n      revert\n        /* \"#utility.yul\":3951:4131   */\n    tag_203:\n        /* \"#utility.yul\":3999:4076   */\n      0x4e487b7100000000000000000000000000000000000000000000000000000000\n        /* \"#utility.yul\":3996:3997   */\n      0x00\n        /* \"#utility.yul\":3989:4077   */\n      mstore\n        /* \"#utility.yul\":4096:4100   */\n      0x41\n        /* \"#utility.yul\":4093:4094   */\n      0x04\n        /* \"#utility.yul\":4086:4101   */\n      mstore\n        /* \"#utility.yul\":4120:4124   */\n      0x24\n        /* \"#utility.yul\":4117:4118   */\n      0x00\n        /* \"#utility.yul\":4110:4125   */\n      revert\n        /* \"#utility.yul\":4137:4418   */\n    tag_204:\n        /* \"#utility.yul\":4220:4247   */\n      tag_309\n        /* \"#utility.yul\":4242:4246   */\n      dup3\n        /* \"#utility.yul\":4220:4247   */\n      tag_199\n      jump\t// in\n    tag_309:\n        /* \"#utility.yul\":4212:4218   */\n      dup2\n        /* \"#utility.yul\":4208:4248   */\n      add\n        /* \"#utility.yul\":4350:4356   */\n      dup2\n        /* \"#utility.yul\":4338:4348   */\n      dup2\n        /* \"#utility.yul\":4335:4357   */\n      lt\n        /* \"#utility.yul\":4314:4332   */\n      0xffffffffffffffff\n        /* \"#utility.yul\":4302:4312   */\n      dup3\n        /* \"#utility.yul\":4299:4333   */\n      gt\n        /* \"#utility.yul\":4296:4358   */\n      or\n        /* \"#utility.yul\":4293:4381   */\n      iszero\n      tag_310\n      jumpi\n        /* \"#utility.yul\":4361:4379   */\n      tag_311\n      tag_203\n      jump\t// in\n    tag_311:\n        /* \"#utility.yul\":4293:4381   */\n    tag_310:\n        /* \"#utility.yul\":4401:4411   */\n      dup1\n        /* \"#utility.yul\":4397:4399   */\n      0x40\n        /* \"#utility.yul\":4390:4412   */\n      mstore\n        /* \"#utility.yul\":4180:4418   */\n      pop\n        /* \"#utility.yul\":4137:4418   */\n      pop\n      pop\n      jump\t// out\n        /* \"#utility.yul\":4424:4553   */\n    tag_205:\n        /* \"#utility.yul\":4458:4464   */\n      0x00\n        /* \"#utility.yul\":4485:4505   */\n      tag_313\n      tag_190\n      jump\t// in\n    tag_313:\n        /* \"#utility.yul\":4475:4505   */\n      swap1\n      pop\n        /* \"#utility.yul\":4514:4547   */\n      tag_314\n        /* \"#utility.yul\":4542:4546   */\n      dup3\n        /* \"#utility.yul\":4534:4540   */\n      dup3\n        /* \"#utility.yul\":4514:4547   */\n      tag_204\n      jump\t// in\n    tag_314:\n        /* \"#utility.yul\":4424:4553   */\n      swap2\n      swap1\n      pop\n      jump\t// out\n        /* \"#utility.yul\":4559:4880   */\n    tag_206:\n        /* \"#utility.yul\":4646:4650   */\n      0x00\n        /* \"#utility.yul\":4736:4754   */\n      0xffffffffffffffff\n        /* \"#utility.yul\":4728:4734   */\n      dup3\n        /* \"#utility.yul\":4725:4755   */\n      gt\n        /* \"#utility.yul\":4722:4778   */\n      iszero\n      tag_316\n      jumpi\n        /* \"#utility.yul\":4758:4776   */\n      tag_317\n      tag_203\n      jump\t// in\n    tag_317:\n        /* \"#utility.yul\":4722:4778   */\n    tag_316:\n        /* \"#utility.yul\":4808:4812   */\n      0x20\n        /* \"#utility.yul\":4800:4806   */\n      dup3\n        /* \"#utility.yul\":4796:4813   */\n      mul\n        /* \"#utility.yul\":4788:4813   */\n      swap1\n      pop\n        /* \"#utility.yul\":4868:4872   */\n      0x20\n        /* \"#utility.yul\":4862:4866   */\n      dup2\n        /* \"#utility.yul\":4858:4873   */\n      add\n        /* \"#utility.yul\":4850:4873   */\n      swap1\n      pop\n        /* \"#utility.yul\":4559:4880   */\n      swap2\n      swap1\n      pop\n      jump\t// out\n        /* \"#utility.yul\":4886:5003   */\n    tag_207:\n        /* \"#utility.yul\":4995:4996   */\n      0x00\n        /* \"#utility.yul\":4992:4993   */\n      dup1\n        /* \"#utility.yul\":4985:4997   */\n      revert\n        /* \"#utility.yul\":5009:5126   */\n    tag_208:\n        /* \"#utility.yul\":5118:5119   */\n      0x00\n        /* \"#utility.yul\":5115:5116   */\n      dup1\n        /* \"#utility.yul\":5108:5120   */\n      revert\n        /* \"#utility.yul\":5132:5440   */\n    tag_209:\n        /* \"#utility.yul\":5194:5198   */\n      0x00\n        /* \"#utility.yul\":5284:5302   */\n      0xffffffffffffffff\n        /* \"#utility.yul\":5276:5282   */\n      dup3\n        /* \"#utility.yul\":5273:5303   */\n      gt\n        /* \"#utility.yul\":5270:5326   */\n      iszero\n      tag_321\n      jumpi\n        /* \"#utility.yul\":5306:5324   */\n      tag_322\n      tag_203\n      jump\t// in\n    tag_322:\n        /* \"#utility.yul\":5270:5326   */\n    tag_321:\n        /* \"#utility.yul\":5344:5373   */\n      tag_323\n        /* \"#utility.yul\":5366:5372   */\n      dup3\n        /* \"#utility.yul\":5344:5373   */\n      tag_199\n      jump\t// in\n    tag_323:\n        /* \"#utility.yul\":5336:5373   */\n      swap1\n      pop\n        /* \"#utility.yul\":5428:5432   */\n      0x20\n        /* \"#utility.yul\":5422:5426   */\n      dup2\n        /* \"#utility.yul\":5418:5433   */\n      add\n        /* \"#utility.yul\":5410:5433   */\n      swap1\n      pop\n        /* \"#utility.yul\":5132:5440   */\n      swap2\n      swap1\n      pop\n      jump\t// out\n        /* \"#utility.yul\":5446:5592   */\n    tag_210:\n        /* \"#utility.yul\":5543:5549   */\n      dup3\n        /* \"#utility.yul\":5538:5541   */\n      dup2\n        /* \"#utility.yul\":5533:5536   */\n      dup4\n        /* \"#utility.yul\":5520:5550   */\n      calldatacopy\n        /* \"#utility.yul\":5584:5585   */\n      0x00\n        /* \"#utility.yul\":5575:5581   */\n      dup4\n        /* \"#utility.yul\":5570:5573   */\n      dup4\n        /* \"#utility.yul\":5566:5582   */\n      add\n        /* \"#utility.yul\":5559:5586   */\n      mstore\n        /* \"#utility.yul\":5446:5592   */\n      pop\n      pop\n      pop\n      jump\t// out\n        /* \"#utility.yul\":5598:6023   */\n    tag_211:\n        /* \"#utility.yul\":5676:5681   */\n      0x00\n        /* \"#utility.yul\":5701:5767   */\n      tag_326\n        /* \"#utility.yul\":5717:5766   */\n      tag_327\n        /* \"#utility.yul\":5759:5765   */\n      dup5\n        /* \"#utility.yul\":5717:5766   */\n      tag_209\n      jump\t// in\n    tag_327:\n        /* \"#utility.yul\":5701:5767   */\n      tag_205\n      jump\t// in\n    tag_326:\n        /* \"#utility.yul\":5692:5767   */\n      swap1\n      pop\n        /* \"#utility.yul\":5790:5796   */\n      dup3\n        /* \"#utility.yul\":5783:5788   */\n      dup2\n        /* \"#utility.yul\":5776:5797   */\n      mstore\n        /* \"#utility.yul\":5828:5832   */\n      0x20\n        /* \"#utility.yul\":5821:5826   */\n      dup2\n        /* \"#utility.yul\":5817:5833   */\n      add\n        /* \"#utility.yul\":5866:5869   */\n      dup5\n        /* \"#utility.yul\":5857:5863   */\n      dup5\n        /* \"#utility.yul\":5852:5855   */\n      dup5\n        /* \"#utility.yul\":5848:5864   */\n      add\n        /* \"#utility.yul\":5845:5870   */\n      gt\n        /* \"#utility.yul\":5842:5954   */\n      iszero\n      tag_328\n      jumpi\n        /* \"#utility.yul\":5873:5952   */\n      tag_329\n      tag_208\n      jump\t// in\n    tag_329:\n        /* \"#utility.yul\":5842:5954   */\n    tag_328:\n        /* \"#utility.yul\":5963:6017   */\n      tag_330\n        /* \"#utility.yul\":6010:6016   */\n      dup5\n        /* \"#utility.yul\":6005:6008   */\n      dup3\n        /* \"#utility.yul\":6000:6003   */\n      dup6\n        /* \"#utility.yul\":5963:6017   */\n      tag_210\n      jump\t// in\n    tag_330:\n        /* \"#utility.yul\":5682:6023   */\n      pop\n        /* \"#utility.yul\":5598:6023   */\n      swap4\n      swap3\n      pop\n      pop\n      pop\n      jump\t// out\n        /* \"#utility.yul\":6043:6383   */\n    tag_212:\n        /* \"#utility.yul\":6099:6104   */\n      0x00\n        /* \"#utility.yul\":6148:6151   */\n      dup3\n        /* \"#utility.yul\":6141:6145   */\n      0x1f\n        /* \"#utility.yul\":6133:6139   */\n      dup4\n        /* \"#utility.yul\":6129:6146   */\n      add\n        /* \"#utility.yul\":6125:6152   */\n      slt\n        /* \"#utility.yul\":6115:6237   */\n      tag_332\n      jumpi\n        /* \"#utility.yul\":6156:6235   */\n      tag_333\n      tag_202\n      jump\t// in\n    tag_333:\n        /* \"#utility.yul\":6115:6237   */\n    tag_332:\n        /* \"#utility.yul\":6273:6279   */\n      dup2\n        /* \"#utility.yul\":6260:6280   */\n      calldataload\n        /* \"#utility.yul\":6298:6377   */\n      tag_334\n        /* \"#utility.yul\":6373:6376   */\n      dup5\n        /* \"#utility.yul\":6365:6371   */\n      dup3\n        /* \"#utility.yul\":6358:6362   */\n      0x20\n        /* \"#utility.yul\":6350:6356   */\n      dup7\n        /* \"#utility.yul\":6346:6363   */\n      add\n        /* \"#utility.yul\":6298:6377   */\n      tag_211\n      jump\t// in\n    tag_334:\n        /* \"#utility.yul\":6289:6377   */\n      swap2\n      pop\n        /* \"#utility.yul\":6105:6383   */\n      pop\n        /* \"#utility.yul\":6043:6383   */\n      swap3\n      swap2\n      pop\n      pop\n      jump\t// out\n        /* \"#utility.yul\":6405:7350   */\n    tag_213:\n        /* \"#utility.yul\":6511:6516   */\n      0x00\n        /* \"#utility.yul\":6536:6627   */\n      tag_336\n        /* \"#utility.yul\":6552:6626   */\n      tag_337\n        /* \"#utility.yul\":6619:6625   */\n      dup5\n        /* \"#utility.yul\":6552:6626   */\n      tag_206\n      jump\t// in\n    tag_337:\n        /* \"#utility.yul\":6536:6627   */\n      tag_205\n      jump\t// in\n    tag_336:\n        /* \"#utility.yul\":6527:6627   */\n      swap1\n      pop\n        /* \"#utility.yul\":6647:6652   */\n      dup1\n        /* \"#utility.yul\":6676:6682   */\n      dup4\n        /* \"#utility.yul\":6669:6674   */\n      dup3\n        /* \"#utility.yul\":6662:6683   */\n      mstore\n        /* \"#utility.yul\":6710:6714   */\n      0x20\n        /* \"#utility.yul\":6703:6708   */\n      dup3\n        /* \"#utility.yul\":6699:6715   */\n      add\n        /* \"#utility.yul\":6692:6715   */\n      swap1\n      pop\n        /* \"#utility.yul\":6763:6767   */\n      0x20\n        /* \"#utility.yul\":6755:6761   */\n      dup5\n        /* \"#utility.yul\":6751:6768   */\n      mul\n        /* \"#utility.yul\":6743:6749   */\n      dup4\n        /* \"#utility.yul\":6739:6769   */\n      add\n        /* \"#utility.yul\":6792:6795   */\n      dup6\n        /* \"#utility.yul\":6784:6790   */\n      dup2\n        /* \"#utility.yul\":6781:6796   */\n      gt\n        /* \"#utility.yul\":6778:6900   */\n      iszero\n      tag_338\n      jumpi\n        /* \"#utility.yul\":6811:6890   */\n      tag_339\n      tag_207\n      jump\t// in\n    tag_339:\n        /* \"#utility.yul\":6778:6900   */\n    tag_338:\n        /* \"#utility.yul\":6926:6932   */\n      dup4\n        /* \"#utility.yul\":6909:7344   */\n    tag_340:\n        /* \"#utility.yul\":6943:6949   */\n      dup2\n        /* \"#utility.yul\":6938:6941   */\n      dup2\n        /* \"#utility.yul\":6935:6950   */\n      lt\n        /* \"#utility.yul\":6909:7344   */\n      iszero\n      tag_342\n      jumpi\n        /* \"#utility.yul\":7032:7035   */\n      dup1\n        /* \"#utility.yul\":7019:7036   */\n      calldataload\n        /* \"#utility.yul\":7068:7086   */\n      0xffffffffffffffff\n        /* \"#utility.yul\":7055:7066   */\n      dup2\n        /* \"#utility.yul\":7052:7087   */\n      gt\n        /* \"#utility.yul\":7049:7171   */\n      iszero\n      tag_343\n      jumpi\n        /* \"#utility.yul\":7090:7169   */\n      tag_344\n      tag_202\n      jump\t// in\n    tag_344:\n        /* \"#utility.yul\":7049:7171   */\n    tag_343:\n        /* \"#utility.yul\":7214:7225   */\n      dup1\n        /* \"#utility.yul\":7206:7212   */\n      dup7\n        /* \"#utility.yul\":7202:7226   */\n      add\n        /* \"#utility.yul\":7252:7299   */\n      tag_345\n        /* \"#utility.yul\":7295:7298   */\n      dup10\n        /* \"#utility.yul\":7283:7293   */\n      dup3\n        /* \"#utility.yul\":7252:7299   */\n      tag_212\n      jump\t// in\n    tag_345:\n        /* \"#utility.yul\":7247:7250   */\n      dup6\n        /* \"#utility.yul\":7240:7300   */\n      mstore\n        /* \"#utility.yul\":7329:7333   */\n      0x20\n        /* \"#utility.yul\":7324:7327   */\n      dup6\n        /* \"#utility.yul\":7320:7334   */\n      add\n        /* \"#utility.yul\":7313:7334   */\n      swap5\n      pop\n        /* \"#utility.yul\":6985:7344   */\n      pop\n      pop\n        /* \"#utility.yul\":6969:6973   */\n      0x20\n        /* \"#utility.yul\":6964:6967   */\n      dup2\n        /* \"#utility.yul\":6960:6974   */\n      add\n        /* \"#utility.yul\":6953:6974   */\n      swap1\n      pop\n        /* \"#utility.yul\":6909:7344   */\n      jump(tag_340)\n    tag_342:\n        /* \"#utility.yul\":6913:6934   */\n      pop\n        /* \"#utility.yul\":6517:7350   */\n      pop\n      pop\n        /* \"#utility.yul\":6405:7350   */\n      swap4\n      swap3\n      pop\n      pop\n      pop\n      jump\t// out\n        /* \"#utility.yul\":7372:7762   */\n    tag_214:\n        /* \"#utility.yul\":7453:7458   */\n      0x00\n        /* \"#utility.yul\":7502:7505   */\n      dup3\n        /* \"#utility.yul\":7495:7499   */\n      0x1f\n        /* \"#utility.yul\":7487:7493   */\n      dup4\n        /* \"#utility.yul\":7483:7500   */\n      add\n        /* \"#utility.yul\":7479:7506   */\n      slt\n        /* \"#utility.yul\":7469:7591   */\n      tag_347\n      jumpi\n        /* \"#utility.yul\":7510:7589   */\n      tag_348\n      tag_202\n      jump\t// in\n    tag_348:\n        /* \"#utility.yul\":7469:7591   */\n    tag_347:\n        /* \"#utility.yul\":7627:7633   */\n      dup2\n        /* \"#utility.yul\":7614:7634   */\n      calldataload\n        /* \"#utility.yul\":7652:7756   */\n      tag_349\n        /* \"#utility.yul\":7752:7755   */\n      dup5\n        /* \"#utility.yul\":7744:7750   */\n      dup3\n        /* \"#utility.yul\":7737:7741   */\n      0x20\n        /* \"#utility.yul\":7729:7735   */\n      dup7\n        /* \"#utility.yul\":7725:7742   */\n      add\n        /* \"#utility.yul\":7652:7756   */\n      tag_213\n      jump\t// in\n    tag_349:\n        /* \"#utility.yul\":7643:7756   */\n      swap2\n      pop\n        /* \"#utility.yul\":7459:7762   */\n      pop\n        /* \"#utility.yul\":7372:7762   */\n      swap3\n      swap2\n      pop\n      pop\n      jump\t// out\n        /* \"#utility.yul\":7768:8079   */\n    tag_215:\n        /* \"#utility.yul\":7845:7849   */\n      0x00\n        /* \"#utility.yul\":7935:7953   */\n      0xffffffffffffffff\n        /* \"#utility.yul\":7927:7933   */\n      dup3\n        /* \"#utility.yul\":7924:7954   */\n      gt\n        /* \"#utility.yul\":7921:7977   */\n      iszero\n      tag_351\n      jumpi\n        /* \"#utility.yul\":7957:7975   */\n      tag_352\n      tag_203\n      jump\t// in\n    tag_352:\n        /* \"#utility.yul\":7921:7977   */\n    tag_351:\n        /* \"#utility.yul\":8007:8011   */\n      0x20\n        /* \"#utility.yul\":7999:8005   */\n      dup3\n        /* \"#utility.yul\":7995:8012   */\n      mul\n        /* \"#utility.yul\":7987:8012   */\n      swap1\n      pop\n        /* \"#utility.yul\":8067:8071   */\n      0x20\n        /* \"#utility.yul\":8061:8065   */\n      dup2\n        /* \"#utility.yul\":8057:8072   */\n      add\n        /* \"#utility.yul\":8049:8072   */\n      swap1\n      pop\n        /* \"#utility.yul\":7768:8079   */\n      swap2\n      swap1\n      pop\n      jump\t// out\n        /* \"#utility.yul\":8102:8812   */\n    tag_216:\n        /* \"#utility.yul\":8198:8203   */\n      0x00\n        /* \"#utility.yul\":8223:8304   */\n      tag_354\n        /* \"#utility.yul\":8239:8303   */\n      tag_355\n        /* \"#utility.yul\":8296:8302   */\n      dup5\n        /* \"#utility.yul\":8239:8303   */\n      tag_215\n      jump\t// in\n    tag_355:\n        /* \"#utility.yul\":8223:8304   */\n      tag_205\n      jump\t// in\n    tag_354:\n        /* \"#utility.yul\":8214:8304   */\n      swap1\n      pop\n        /* \"#utility.yul\":8324:8329   */\n      dup1\n        /* \"#utility.yul\":8353:8359   */\n      dup4\n        /* \"#utility.yul\":8346:8351   */\n      dup3\n        /* \"#utility.yul\":8339:8360   */\n      mstore\n        /* \"#utility.yul\":8387:8391   */\n      0x20\n        /* \"#utility.yul\":8380:8385   */\n      dup3\n        /* \"#utility.yul\":8376:8392   */\n      add\n        /* \"#utility.yul\":8369:8392   */\n      swap1\n      pop\n        /* \"#utility.yul\":8440:8444   */\n      0x20\n        /* \"#utility.yul\":8432:8438   */\n      dup5\n        /* \"#utility.yul\":8428:8445   */\n      mul\n        /* \"#utility.yul\":8420:8426   */\n      dup4\n        /* \"#utility.yul\":8416:8446   */\n      add\n        /* \"#utility.yul\":8469:8472   */\n      dup6\n        /* \"#utility.yul\":8461:8467   */\n      dup2\n        /* \"#utility.yul\":8458:8473   */\n      gt\n        /* \"#utility.yul\":8455:8577   */\n      iszero\n      tag_356\n      jumpi\n        /* \"#utility.yul\":8488:8567   */\n      tag_357\n      tag_207\n      jump\t// in\n    tag_357:\n        /* \"#utility.yul\":8455:8577   */\n    tag_356:\n        /* \"#utility.yul\":8603:8609   */\n      dup4\n        /* \"#utility.yul\":8586:8806   */\n    tag_358:\n        /* \"#utility.yul\":8620:8626   */\n      dup2\n        /* \"#utility.yul\":8615:8618   */\n      dup2\n        /* \"#utility.yul\":8612:8627   */\n      lt\n        /* \"#utility.yul\":8586:8806   */\n      iszero\n      tag_360\n      jumpi\n        /* \"#utility.yul\":8695:8698   */\n      dup1\n        /* \"#utility.yul\":8724:8761   */\n      tag_361\n        /* \"#utility.yul\":8757:8760   */\n      dup9\n        /* \"#utility.yul\":8745:8755   */\n      dup3\n        /* \"#utility.yul\":8724:8761   */\n      tag_195\n      jump\t// in\n    tag_361:\n        /* \"#utility.yul\":8719:8722   */\n      dup5\n        /* \"#utility.yul\":8712:8762   */\n      mstore\n        /* \"#utility.yul\":8791:8795   */\n      0x20\n        /* \"#utility.yul\":8786:8789   */\n      dup5\n        /* \"#utility.yul\":8782:8796   */\n      add\n        /* \"#utility.yul\":8775:8796   */\n      swap4\n      pop\n        /* \"#utility.yul\":8662:8806   */\n      pop\n        /* \"#utility.yul\":8646:8650   */\n      0x20\n        /* \"#utility.yul\":8641:8644   */\n      dup2\n        /* \"#utility.yul\":8637:8651   */\n      add\n        /* \"#utility.yul\":8630:8651   */\n      swap1\n      pop\n        /* \"#utility.yul\":8586:8806   */\n      jump(tag_358)\n    tag_360:\n        /* \"#utility.yul\":8590:8611   */\n      pop\n        /* \"#utility.yul\":8204:8812   */\n      pop\n      pop\n        /* \"#utility.yul\":8102:8812   */\n      swap4\n      swap3\n      pop\n      pop\n      pop\n      jump\t// out\n        /* \"#utility.yul\":8835:9205   */\n    tag_217:\n        /* \"#utility.yul\":8906:8911   */\n      0x00\n        /* \"#utility.yul\":8955:8958   */\n      dup3\n        /* \"#utility.yul\":8948:8952   */\n      0x1f\n        /* \"#utility.yul\":8940:8946   */\n      dup4\n        /* \"#utility.yul\":8936:8953   */\n      add\n        /* \"#utility.yul\":8932:8959   */\n      slt\n        /* \"#utility.yul\":8922:9044   */\n      tag_363\n      jumpi\n        /* \"#utility.yul\":8963:9042   */\n      tag_364\n      tag_202\n      jump\t// in\n    tag_364:\n        /* \"#utility.yul\":8922:9044   */\n    tag_363:\n        /* \"#utility.yul\":9080:9086   */\n      dup2\n        /* \"#utility.yul\":9067:9087   */\n      calldataload\n        /* \"#utility.yul\":9105:9199   */\n      tag_365\n        /* \"#utility.yul\":9195:9198   */\n      dup5\n        /* \"#utility.yul\":9187:9193   */\n      dup3\n        /* \"#utility.yul\":9180:9184   */\n      0x20\n        /* \"#utility.yul\":9172:9178   */\n      dup7\n        /* \"#utility.yul\":9168:9185   */\n      add\n        /* \"#utility.yul\":9105:9199   */\n      tag_216\n      jump\t// in\n    tag_365:\n        /* \"#utility.yul\":9096:9199   */\n      swap2\n      pop\n        /* \"#utility.yul\":8912:9205   */\n      pop\n        /* \"#utility.yul\":8835:9205   */\n      swap3\n      swap2\n      pop\n      pop\n      jump\t// out\n        /* \"#utility.yul\":9211:10500   */\n    tag_40:\n        /* \"#utility.yul\":9383:9389   */\n      0x00\n        /* \"#utility.yul\":9391:9397   */\n      dup1\n        /* \"#utility.yul\":9399:9405   */\n      0x00\n        /* \"#utility.yul\":9448:9450   */\n      0x60\n        /* \"#utility.yul\":9436:9445   */\n      dup5\n        /* \"#utility.yul\":9427:9434   */\n      dup7\n        /* \"#utility.yul\":9423:9446   */\n      sub\n        /* \"#utility.yul\":9419:9451   */\n      slt\n        /* \"#utility.yul\":9416:9535   */\n      iszero\n      tag_367\n      jumpi\n        /* \"#utility.yul\":9454:9533   */\n      tag_368\n      tag_191\n      jump\t// in\n    tag_368:\n        /* \"#utility.yul\":9416:9535   */\n    tag_367:\n        /* \"#utility.yul\":9602:9603   */\n      0x00\n        /* \"#utility.yul\":9591:9600   */\n      dup5\n        /* \"#utility.yul\":9587:9604   */\n      add\n        /* \"#utility.yul\":9574:9605   */\n      calldataload\n        /* \"#utility.yul\":9632:9650   */\n      0xffffffffffffffff\n        /* \"#utility.yul\":9624:9630   */\n      dup2\n        /* \"#utility.yul\":9621:9651   */\n      gt\n        /* \"#utility.yul\":9618:9735   */\n      iszero\n      tag_369\n      jumpi\n        /* \"#utility.yul\":9654:9733   */\n      tag_370\n      tag_192\n      jump\t// in\n    tag_370:\n        /* \"#utility.yul\":9618:9735   */\n    tag_369:\n        /* \"#utility.yul\":9759:9847   */\n      tag_371\n        /* \"#utility.yul\":9839:9846   */\n      dup7\n        /* \"#utility.yul\":9830:9836   */\n      dup3\n        /* \"#utility.yul\":9819:9828   */\n      dup8\n        /* \"#utility.yul\":9815:9837   */\n      add\n        /* \"#utility.yul\":9759:9847   */\n      tag_214\n      jump\t// in\n    tag_371:\n        /* \"#utility.yul\":9749:9847   */\n      swap4\n      pop\n        /* \"#utility.yul\":9545:9857   */\n      pop\n        /* \"#utility.yul\":9924:9926   */\n      0x20\n        /* \"#utility.yul\":9913:9922   */\n      dup5\n        /* \"#utility.yul\":9909:9927   */\n      add\n        /* \"#utility.yul\":9896:9928   */\n      calldataload\n        /* \"#utility.yul\":9955:9973   */\n      0xffffffffffffffff\n        /* \"#utility.yul\":9947:9953   */\n      dup2\n        /* \"#utility.yul\":9944:9974   */\n      gt\n        /* \"#utility.yul\":9941:10058   */\n      iszero\n      tag_372\n      jumpi\n        /* \"#utility.yul\":9977:10056   */\n      tag_373\n      tag_192\n      jump\t// in\n    tag_373:\n        /* \"#utility.yul\":9941:10058   */\n    tag_372:\n        /* \"#utility.yul\":10082:10170   */\n      tag_374\n        /* \"#utility.yul\":10162:10169   */\n      dup7\n        /* \"#utility.yul\":10153:10159   */\n      dup3\n        /* \"#utility.yul\":10142:10151   */\n      dup8\n        /* \"#utility.yul\":10138:10160   */\n      add\n        /* \"#utility.yul\":10082:10170   */\n      tag_214\n      jump\t// in\n    tag_374:\n        /* \"#utility.yul\":10072:10170   */\n      swap3\n      pop\n        /* \"#utility.yul\":9867:10180   */\n      pop\n        /* \"#utility.yul\":10247:10249   */\n      0x40\n        /* \"#utility.yul\":10236:10245   */\n      dup5\n        /* \"#utility.yul\":10232:10250   */\n      add\n        /* \"#utility.yul\":10219:10251   */\n      calldataload\n        /* \"#utility.yul\":10278:10296   */\n      0xffffffffffffffff\n        /* \"#utility.yul\":10270:10276   */\n      dup2\n        /* \"#utility.yul\":10267:10297   */\n      gt\n        /* \"#utility.yul\":10264:10381   */\n      iszero\n      tag_375\n      jumpi\n        /* \"#utility.yul\":10300:10379   */\n      tag_376\n      tag_192\n      jump\t// in\n    tag_376:\n        /* \"#utility.yul\":10264:10381   */\n    tag_375:\n        /* \"#utility.yul\":10405:10483   */\n      tag_377\n        /* \"#utility.yul\":10475:10482   */\n      dup7\n        /* \"#utility.yul\":10466:10472   */\n      dup3\n        /* \"#utility.yul\":10455:10464   */\n      dup8\n        /* \"#utility.yul\":10451:10473   */\n      add\n        /* \"#utility.yul\":10405:10483   */\n      tag_217\n      jump\t// in\n    tag_377:\n        /* \"#utility.yul\":10395:10483   */\n      swap2\n      pop\n        /* \"#utility.yul\":10190:10493   */\n      pop\n        /* \"#utility.yul\":9211:10500   */\n      swap3\n      pop\n      swap3\n      pop\n      swap3\n      jump\t// out\n        /* \"#utility.yul\":10506:11015   */\n    tag_44:\n        /* \"#utility.yul\":10575:10581   */\n      0x00\n        /* \"#utility.yul\":10624:10626   */\n      0x20\n        /* \"#utility.yul\":10612:10621   */\n      dup3\n        /* \"#utility.yul\":10603:10610   */\n      dup5\n        /* \"#utility.yul\":10599:10622   */\n      sub\n        /* \"#utility.yul\":10595:10627   */\n      slt\n        /* \"#utility.yul\":10592:10711   */\n      iszero\n      tag_379\n      jumpi\n        /* \"#utility.yul\":10630:10709   */\n      tag_380\n      tag_191\n      jump\t// in\n    tag_380:\n        /* \"#utility.yul\":10592:10711   */\n    tag_379:\n        /* \"#utility.yul\":10778:10779   */\n      0x00\n        /* \"#utility.yul\":10767:10776   */\n      dup3\n        /* \"#utility.yul\":10763:10780   */\n      add\n        /* \"#utility.yul\":10750:10781   */\n      calldataload\n        /* \"#utility.yul\":10808:10826   */\n      0xffffffffffffffff\n        /* \"#utility.yul\":10800:10806   */\n      dup2\n        /* \"#utility.yul\":10797:10827   */\n      gt\n        /* \"#utility.yul\":10794:10911   */\n      iszero\n      tag_381\n      jumpi\n        /* \"#utility.yul\":10830:10909   */\n      tag_382\n      tag_192\n      jump\t// in\n    tag_382:\n        /* \"#utility.yul\":10794:10911   */\n    tag_381:\n        /* \"#utility.yul\":10935:10998   */\n      tag_383\n        /* \"#utility.yul\":10990:10997   */\n      dup5\n        /* \"#utility.yul\":10981:10987   */\n      dup3\n        /* \"#utility.yul\":10970:10979   */\n      dup6\n        /* \"#utility.yul\":10966:10988   */\n      add\n        /* \"#utility.yul\":10935:10998   */\n      tag_212\n      jump\t// in\n    tag_383:\n        /* \"#utility.yul\":10925:10998   */\n      swap2\n      pop\n        /* \"#utility.yul\":10721:11008   */\n      pop\n        /* \"#utility.yul\":10506:11015   */\n      swap3\n      swap2\n      pop\n      pop\n      jump\t// out\n        /* \"#utility.yul\":11021:11201   */\n    tag_218:\n        /* \"#utility.yul\":11069:11146   */\n      0x4e487b7100000000000000000000000000000000000000000000000000000000\n        /* \"#utility.yul\":11066:11067   */\n      0x00\n        /* \"#utility.yul\":11059:11147   */\n      mstore\n        /* \"#utility.yul\":11166:11170   */\n      0x22\n        /* \"#utility.yul\":11163:11164   */\n      0x04\n        /* \"#utility.yul\":11156:11171   */\n      mstore\n        /* \"#utility.yul\":11190:11194   */\n      0x24\n        /* \"#utility.yul\":11187:11188   */\n      0x00\n        /* \"#utility.yul\":11180:11195   */\n      revert\n        /* \"#utility.yul\":11207:11527   */\n    tag_59:\n        /* \"#utility.yul\":11251:11257   */\n      0x00\n        /* \"#utility.yul\":11288:11289   */\n      0x02\n        /* \"#utility.yul\":11282:11286   */\n      dup3\n        /* \"#utility.yul\":11278:11290   */\n      div\n        /* \"#utility.yul\":11268:11290   */\n      swap1\n      pop\n        /* \"#utility.yul\":11335:11336   */\n      0x01\n        /* \"#utility.yul\":11329:11333   */\n      dup3\n        /* \"#utility.yul\":11325:11337   */\n      and\n        /* \"#utility.yul\":11356:11374   */\n      dup1\n        /* \"#utility.yul\":11346:11427   */\n      tag_386\n      jumpi\n        /* \"#utility.yul\":11412:11416   */\n      0x7f\n        /* \"#utility.yul\":11404:11410   */\n      dup3\n        /* \"#utility.yul\":11400:11417   */\n      and\n        /* \"#utility.yul\":11390:11417   */\n      swap2\n      pop\n        /* \"#utility.yul\":11346:11427   */\n    tag_386:\n        /* \"#utility.yul\":11474:11476   */\n      0x20\n        /* \"#utility.yul\":11466:11472   */\n      dup3\n        /* \"#utility.yul\":11463:11477   */\n      lt\n        /* \"#utility.yul\":11443:11461   */\n      dup2\n        /* \"#utility.yul\":11440:11478   */\n      sub\n        /* \"#utility.yul\":11437:11521   */\n      tag_387\n      jumpi\n        /* \"#utility.yul\":11493:11511   */\n      tag_388\n      tag_218\n      jump\t// in\n    tag_388:\n        /* \"#utility.yul\":11437:11521   */\n    tag_387:\n        /* \"#utility.yul\":11258:11527   */\n      pop\n        /* \"#utility.yul\":11207:11527   */\n      swap2\n      swap1\n      pop\n      jump\t// out\n        /* \"#utility.yul\":11533:11756   */\n    tag_219:\n        /* \"#utility.yul\":11673:11707   */\n      0x416c6c20696e70757473206d7573742068617665207468652073616d65206c65\n        /* \"#utility.yul\":11669:11670   */\n      0x00\n        /* \"#utility.yul\":11661:11667   */\n      dup3\n        /* \"#utility.yul\":11657:11671   */\n      add\n        /* \"#utility.yul\":11650:11708   */\n      mstore\n        /* \"#utility.yul\":11742:11748   */\n      0x6e67746800000000000000000000000000000000000000000000000000000000\n        /* \"#utility.yul\":11737:11739   */\n      0x20\n        /* \"#utility.yul\":11729:11735   */\n      dup3\n        /* \"#utility.yul\":11725:11740   */\n      add\n        /* \"#utility.yul\":11718:11749   */\n      mstore\n        /* \"#utility.yul\":11533:11756   */\n      pop\n      jump\t// out\n        /* \"#utility.yul\":11762:12128   */\n    tag_220:\n        /* \"#utility.yul\":11904:11907   */\n      0x00\n        /* \"#utility.yul\":11925:11992   */\n      tag_391\n        /* \"#utility.yul\":11989:11991   */\n      0x24\n        /* \"#utility.yul\":11984:11987   */\n      dup4\n        /* \"#utility.yul\":11925:11992   */\n      tag_197\n      jump\t// in\n    tag_391:\n        /* \"#utility.yul\":11918:11992   */\n      swap2\n      pop\n        /* \"#utility.yul\":12001:12094   */\n      tag_392\n        /* \"#utility.yul\":12090:12093   */\n      dup3\n        /* \"#utility.yul\":12001:12094   */\n      tag_219\n      jump\t// in\n    tag_392:\n        /* \"#utility.yul\":12119:12121   */\n      0x40\n        /* \"#utility.yul\":12114:12117   */\n      dup3\n        /* \"#utility.yul\":12110:12122   */\n      add\n        /* \"#utility.yul\":12103:12122   */\n      swap1\n      pop\n        /* \"#utility.yul\":11762:12128   */\n      swap2\n      swap1\n      pop\n      jump\t// out\n        /* \"#utility.yul\":12134:12553   */\n    tag_85:\n        /* \"#utility.yul\":12300:12304   */\n      0x00\n        /* \"#utility.yul\":12338:12340   */\n      0x20\n        /* \"#utility.yul\":12327:12336   */\n      dup3\n        /* \"#utility.yul\":12323:12341   */\n      add\n        /* \"#utility.yul\":12315:12341   */\n      swap1\n      pop\n        /* \"#utility.yul\":12387:12396   */\n      dup2\n        /* \"#utility.yul\":12381:12385   */\n      dup2\n        /* \"#utility.yul\":12377:12397   */\n      sub\n        /* \"#utility.yul\":12373:12374   */\n      0x00\n        /* \"#utility.yul\":12362:12371   */\n      dup4\n        /* \"#utility.yul\":12358:12375   */\n      add\n        /* \"#utility.yul\":12351:12398   */\n      mstore\n        /* \"#utility.yul\":12415:12546   */\n      tag_394\n        /* \"#utility.yul\":12541:12545   */\n      dup2\n        /* \"#utility.yul\":12415:12546   */\n      tag_220\n      jump\t// in\n    tag_394:\n        /* \"#utility.yul\":12407:12546   */\n      swap1\n      pop\n        /* \"#utility.yul\":12134:12553   */\n      swap2\n      swap1\n      pop\n      jump\t// out\n        /* \"#utility.yul\":12559:12739   */\n    tag_91:\n        /* \"#utility.yul\":12607:12684   */\n      0x4e487b7100000000000000000000000000000000000000000000000000000000\n        /* \"#utility.yul\":12604:12605   */\n      0x00\n        /* \"#utility.yul\":12597:12685   */\n      mstore\n        /* \"#utility.yul\":12704:12708   */\n      0x32\n        /* \"#utility.yul\":12701:12702   */\n      0x04\n        /* \"#utility.yul\":12694:12709   */\n      mstore\n        /* \"#utility.yul\":12728:12732   */\n      0x24\n        /* \"#utility.yul\":12725:12726   */\n      0x00\n        /* \"#utility.yul\":12718:12733   */\n      revert\n        /* \"#utility.yul\":12745:12893   */\n    tag_221:\n        /* \"#utility.yul\":12847:12858   */\n      0x00\n        /* \"#utility.yul\":12884:12887   */\n      dup2\n        /* \"#utility.yul\":12869:12887   */\n      swap1\n      pop\n        /* \"#utility.yul\":12745:12893   */\n      swap3\n      swap2\n      pop\n      pop\n      jump\t// out\n        /* \"#utility.yul\":12899:13289   */\n    tag_222:\n        /* \"#utility.yul\":13005:13008   */\n      0x00\n        /* \"#utility.yul\":13033:13072   */\n      tag_398\n        /* \"#utility.yul\":13066:13071   */\n      dup3\n        /* \"#utility.yul\":13033:13072   */\n      tag_196\n      jump\t// in\n    tag_398:\n        /* \"#utility.yul\":13088:13177   */\n      tag_399\n        /* \"#utility.yul\":13170:13176   */\n      dup2\n        /* \"#utility.yul\":13165:13168   */\n      dup6\n        /* \"#utility.yul\":13088:13177   */\n      tag_221\n      jump\t// in\n    tag_399:\n        /* \"#utility.yul\":13081:13177   */\n      swap4\n      pop\n        /* \"#utility.yul\":13186:13251   */\n      tag_400\n        /* \"#utility.yul\":13244:13250   */\n      dup2\n        /* \"#utility.yul\":13239:13242   */\n      dup6\n        /* \"#utility.yul\":13232:13236   */\n      0x20\n        /* \"#utility.yul\":13225:13230   */\n      dup7\n        /* \"#utility.yul\":13221:13237   */\n      add\n        /* \"#utility.yul\":13186:13251   */\n      tag_198\n      jump\t// in\n    tag_400:\n        /* \"#utility.yul\":13276:13282   */\n      dup1\n        /* \"#utility.yul\":13271:13274   */\n      dup5\n        /* \"#utility.yul\":13267:13283   */\n      add\n        /* \"#utility.yul\":13260:13283   */\n      swap2\n      pop\n        /* \"#utility.yul\":13009:13289   */\n      pop\n        /* \"#utility.yul\":12899:13289   */\n      swap3\n      swap2\n      pop\n      pop\n      jump\t// out\n        /* \"#utility.yul\":13295:13570   */\n    tag_93:\n        /* \"#utility.yul\":13427:13430   */\n      0x00\n        /* \"#utility.yul\":13449:13544   */\n      tag_402\n        /* \"#utility.yul\":13540:13543   */\n      dup3\n        /* \"#utility.yul\":13531:13537   */\n      dup5\n        /* \"#utility.yul\":13449:13544   */\n      tag_222\n      jump\t// in\n    tag_402:\n        /* \"#utility.yul\":13442:13544   */\n      swap2\n      pop\n        /* \"#utility.yul\":13561:13564   */\n      dup2\n        /* \"#utility.yul\":13554:13564   */\n      swap1\n      pop\n        /* \"#utility.yul\":13295:13570   */\n      swap3\n      swap2\n      pop\n      pop\n      jump\t// out\n        /* \"#utility.yul\":13576:14010   */\n    tag_223:\n        /* \"#utility.yul\":13665:13670   */\n      0x00\n        /* \"#utility.yul\":13690:13756   */\n      tag_404\n        /* \"#utility.yul\":13706:13755   */\n      tag_405\n        /* \"#utility.yul\":13748:13754   */\n      dup5\n        /* \"#utility.yul\":13706:13755   */\n      tag_209\n      jump\t// in\n    tag_405:\n        /* \"#utility.yul\":13690:13756   */\n      tag_205\n      jump\t// in\n    tag_404:\n        /* \"#utility.yul\":13681:13756   */\n      swap1\n      pop\n        /* \"#utility.yul\":13779:13785   */\n      dup3\n        /* \"#utility.yul\":13772:13777   */\n      dup2\n        /* \"#utility.yul\":13765:13786   */\n      mstore\n        /* \"#utility.yul\":13817:13821   */\n      0x20\n        /* \"#utility.yul\":13810:13815   */\n      dup2\n        /* \"#utility.yul\":13806:13822   */\n      add\n        /* \"#utility.yul\":13855:13858   */\n      dup5\n        /* \"#utility.yul\":13846:13852   */\n      dup5\n        /* \"#utility.yul\":13841:13844   */\n      dup5\n        /* \"#utility.yul\":13837:13853   */\n      add\n        /* \"#utility.yul\":13834:13859   */\n      gt\n        /* \"#utility.yul\":13831:13943   */\n      iszero\n      tag_406\n      jumpi\n        /* \"#utility.yul\":13862:13941   */\n      tag_407\n      tag_208\n      jump\t// in\n    tag_407:\n        /* \"#utility.yul\":13831:13943   */\n    tag_406:\n        /* \"#utility.yul\":13952:14004   */\n      tag_408\n        /* \"#utility.yul\":13997:14003   */\n      dup5\n        /* \"#utility.yul\":13992:13995   */\n      dup3\n        /* \"#utility.yul\":13987:13990   */\n      dup6\n        /* \"#utility.yul\":13952:14004   */\n      tag_198\n      jump\t// in\n    tag_408:\n        /* \"#utility.yul\":13671:14010   */\n      pop\n        /* \"#utility.yul\":13576:14010   */\n      swap4\n      swap3\n      pop\n      pop\n      pop\n      jump\t// out\n        /* \"#utility.yul\":14030:14385   */\n    tag_224:\n        /* \"#utility.yul\":14097:14102   */\n      0x00\n        /* \"#utility.yul\":14146:14149   */\n      dup3\n        /* \"#utility.yul\":14139:14143   */\n      0x1f\n        /* \"#utility.yul\":14131:14137   */\n      dup4\n        /* \"#utility.yul\":14127:14144   */\n      add\n        /* \"#utility.yul\":14123:14150   */\n      slt\n        /* \"#utility.yul\":14113:14235   */\n      tag_410\n      jumpi\n        /* \"#utility.yul\":14154:14233   */\n      tag_411\n      tag_202\n      jump\t// in\n    tag_411:\n        /* \"#utility.yul\":14113:14235   */\n    tag_410:\n        /* \"#utility.yul\":14264:14270   */\n      dup2\n        /* \"#utility.yul\":14258:14271   */\n      mload\n        /* \"#utility.yul\":14289:14379   */\n      tag_412\n        /* \"#utility.yul\":14375:14378   */\n      dup5\n        /* \"#utility.yul\":14367:14373   */\n      dup3\n        /* \"#utility.yul\":14360:14364   */\n      0x20\n        /* \"#utility.yul\":14352:14358   */\n      dup7\n        /* \"#utility.yul\":14348:14365   */\n      add\n        /* \"#utility.yul\":14289:14379   */\n      tag_223\n      jump\t// in\n    tag_412:\n        /* \"#utility.yul\":14280:14379   */\n      swap2\n      pop\n        /* \"#utility.yul\":14103:14385   */\n      pop\n        /* \"#utility.yul\":14030:14385   */\n      swap3\n      swap2\n      pop\n      pop\n      jump\t// out\n        /* \"#utility.yul\":14391:14915   */\n    tag_100:\n        /* \"#utility.yul\":14471:14477   */\n      0x00\n        /* \"#utility.yul\":14520:14522   */\n      0x20\n        /* \"#utility.yul\":14508:14517   */\n      dup3\n        /* \"#utility.yul\":14499:14506   */\n      dup5\n        /* \"#utility.yul\":14495:14518   */\n      sub\n        /* \"#utility.yul\":14491:14523   */\n      slt\n        /* \"#utility.yul\":14488:14607   */\n      iszero\n      tag_414\n      jumpi\n        /* \"#utility.yul\":14526:14605   */\n      tag_415\n      tag_191\n      jump\t// in\n    tag_415:\n        /* \"#utility.yul\":14488:14607   */\n    tag_414:\n        /* \"#utility.yul\":14667:14668   */\n      0x00\n        /* \"#utility.yul\":14656:14665   */\n      dup3\n        /* \"#utility.yul\":14652:14669   */\n      add\n        /* \"#utility.yul\":14646:14670   */\n      mload\n        /* \"#utility.yul\":14697:14715   */\n      0xffffffffffffffff\n        /* \"#utility.yul\":14689:14695   */\n      dup2\n        /* \"#utility.yul\":14686:14716   */\n      gt\n        /* \"#utility.yul\":14683:14800   */\n      iszero\n      tag_416\n      jumpi\n        /* \"#utility.yul\":14719:14798   */\n      tag_417\n      tag_192\n      jump\t// in\n    tag_417:\n        /* \"#utility.yul\":14683:14800   */\n    tag_416:\n        /* \"#utility.yul\":14824:14898   */\n      tag_418\n        /* \"#utility.yul\":14890:14897   */\n      dup5\n        /* \"#utility.yul\":14881:14887   */\n      dup3\n        /* \"#utility.yul\":14870:14879   */\n      dup6\n        /* \"#utility.yul\":14866:14888   */\n      add\n        /* \"#utility.yul\":14824:14898   */\n      tag_224\n      jump\t// in\n    tag_418:\n        /* \"#utility.yul\":14814:14898   */\n      swap2\n      pop\n        /* \"#utility.yul\":14617:14908   */\n      pop\n        /* \"#utility.yul\":14391:14915   */\n      swap3\n      swap2\n      pop\n      pop\n      jump\t// out\n        /* \"#utility.yul\":14921:15090   */\n    tag_225:\n        /* \"#utility.yul\":15061:15082   */\n      0x4e616d6520646f6573206e6f74206d6174636800000000000000000000000000\n        /* \"#utility.yul\":15057:15058   */\n      0x00\n        /* \"#utility.yul\":15049:15055   */\n      dup3\n        /* \"#utility.yul\":15045:15059   */\n      add\n        /* \"#utility.yul\":15038:15083   */\n      mstore\n        /* \"#utility.yul\":14921:15090   */\n      pop\n      jump\t// out\n        /* \"#utility.yul\":15096:15462   */\n    tag_226:\n        /* \"#utility.yul\":15238:15241   */\n      0x00\n        /* \"#utility.yul\":15259:15326   */\n      tag_421\n        /* \"#utility.yul\":15323:15325   */\n      0x13\n        /* \"#utility.yul\":15318:15321   */\n      dup4\n        /* \"#utility.yul\":15259:15326   */\n      tag_197\n      jump\t// in\n    tag_421:\n        /* \"#utility.yul\":15252:15326   */\n      swap2\n      pop\n        /* \"#utility.yul\":15335:15428   */\n      tag_422\n        /* \"#utility.yul\":15424:15427   */\n      dup3\n        /* \"#utility.yul\":15335:15428   */\n      tag_225\n      jump\t// in\n    tag_422:\n        /* \"#utility.yul\":15453:15455   */\n      0x20\n        /* \"#utility.yul\":15448:15451   */\n      dup3\n        /* \"#utility.yul\":15444:15456   */\n      add\n        /* \"#utility.yul\":15437:15456   */\n      swap1\n      pop\n        /* \"#utility.yul\":15096:15462   */\n      swap2\n      swap1\n      pop\n      jump\t// out\n        /* \"#utility.yul\":15468:15887   */\n    tag_104:\n        /* \"#utility.yul\":15634:15638   */\n      0x00\n        /* \"#utility.yul\":15672:15674   */\n      0x20\n        /* \"#utility.yul\":15661:15670   */\n      dup3\n        /* \"#utility.yul\":15657:15675   */\n      add\n        /* \"#utility.yul\":15649:15675   */\n      swap1\n      pop\n        /* \"#utility.yul\":15721:15730   */\n      dup2\n        /* \"#utility.yul\":15715:15719   */\n      dup2\n        /* \"#utility.yul\":15711:15731   */\n      sub\n        /* \"#utility.yul\":15707:15708   */\n      0x00\n        /* \"#utility.yul\":15696:15705   */\n      dup4\n        /* \"#utility.yul\":15692:15709   */\n      add\n        /* \"#utility.yul\":15685:15732   */\n      mstore\n        /* \"#utility.yul\":15749:15880   */\n      tag_424\n        /* \"#utility.yul\":15875:15879   */\n      dup2\n        /* \"#utility.yul\":15749:15880   */\n      tag_226\n      jump\t// in\n    tag_424:\n        /* \"#utility.yul\":15741:15880   */\n      swap1\n      pop\n        /* \"#utility.yul\":15468:15887   */\n      swap2\n      swap1\n      pop\n      jump\t// out\n        /* \"#utility.yul\":15893:16067   */\n    tag_227:\n        /* \"#utility.yul\":16033:16059   */\n      0x57686974656c69737420646f6573206e6f742065786973740000000000000000\n        /* \"#utility.yul\":16029:16030   */\n      0x00\n        /* \"#utility.yul\":16021:16027   */\n      dup3\n        /* \"#utility.yul\":16017:16031   */\n      add\n        /* \"#utility.yul\":16010:16060   */\n      mstore\n        /* \"#utility.yul\":15893:16067   */\n      pop\n      jump\t// out\n        /* \"#utility.yul\":16073:16439   */\n    tag_228:\n        /* \"#utility.yul\":16215:16218   */\n      0x00\n        /* \"#utility.yul\":16236:16303   */\n      tag_427\n        /* \"#utility.yul\":16300:16302   */\n      0x18\n        /* \"#utility.yul\":16295:16298   */\n      dup4\n        /* \"#utility.yul\":16236:16303   */\n      tag_197\n      jump\t// in\n    tag_427:\n        /* \"#utility.yul\":16229:16303   */\n      swap2\n      pop\n        /* \"#utility.yul\":16312:16405   */\n      tag_428\n        /* \"#utility.yul\":16401:16404   */\n      dup3\n        /* \"#utility.yul\":16312:16405   */\n      tag_227\n      jump\t// in\n    tag_428:\n        /* \"#utility.yul\":16430:16432   */\n      0x20\n        /* \"#utility.yul\":16425:16428   */\n      dup3\n        /* \"#utility.yul\":16421:16433   */\n      add\n        /* \"#utility.yul\":16414:16433   */\n      swap1\n      pop\n        /* \"#utility.yul\":16073:16439   */\n      swap2\n      swap1\n      pop\n      jump\t// out\n        /* \"#utility.yul\":16445:16864   */\n    tag_112:\n        /* \"#utility.yul\":16611:16615   */\n      0x00\n        /* \"#utility.yul\":16649:16651   */\n      0x20\n        /* \"#utility.yul\":16638:16647   */\n      dup3\n        /* \"#utility.yul\":16634:16652   */\n      add\n        /* \"#utility.yul\":16626:16652   */\n      swap1\n      pop\n        /* \"#utility.yul\":16698:16707   */\n      dup2\n        /* \"#utility.yul\":16692:16696   */\n      dup2\n        /* \"#utility.yul\":16688:16708   */\n      sub\n        /* \"#utility.yul\":16684:16685   */\n      0x00\n        /* \"#utility.yul\":16673:16682   */\n      dup4\n        /* \"#utility.yul\":16669:16686   */\n      add\n        /* \"#utility.yul\":16662:16709   */\n      mstore\n        /* \"#utility.yul\":16726:16857   */\n      tag_430\n        /* \"#utility.yul\":16852:16856   */\n      dup2\n        /* \"#utility.yul\":16726:16857   */\n      tag_228\n      jump\t// in\n    tag_430:\n        /* \"#utility.yul\":16718:16857   */\n      swap1\n      pop\n        /* \"#utility.yul\":16445:16864   */\n      swap2\n      swap1\n      pop\n      jump\t// out\n        /* \"#utility.yul\":16870:16994   */\n    tag_229:\n        /* \"#utility.yul\":16947:16953   */\n      0x00\n        /* \"#utility.yul\":16981:16986   */\n      dup2\n        /* \"#utility.yul\":16975:16987   */\n      mload\n        /* \"#utility.yul\":16965:16987   */\n      swap1\n      pop\n        /* \"#utility.yul\":16870:16994   */\n      swap2\n      swap1\n      pop\n      jump\t// out\n        /* \"#utility.yul\":17000:17194   */\n    tag_230:\n        /* \"#utility.yul\":17109:17120   */\n      0x00\n        /* \"#utility.yul\":17143:17149   */\n      dup3\n        /* \"#utility.yul\":17138:17141   */\n      dup3\n        /* \"#utility.yul\":17131:17150   */\n      mstore\n        /* \"#utility.yul\":17183:17187   */\n      0x20\n        /* \"#utility.yul\":17178:17181   */\n      dup3\n        /* \"#utility.yul\":17174:17188   */\n      add\n        /* \"#utility.yul\":17159:17188   */\n      swap1\n      pop\n        /* \"#utility.yul\":17000:17194   */\n      swap3\n      swap2\n      pop\n      pop\n      jump\t// out\n        /* \"#utility.yul\":17200:17342   */\n    tag_231:\n        /* \"#utility.yul\":17277:17281   */\n      0x00\n        /* \"#utility.yul\":17300:17303   */\n      dup2\n        /* \"#utility.yul\":17292:17303   */\n      swap1\n      pop\n        /* \"#utility.yul\":17330:17334   */\n      0x20\n        /* \"#utility.yul\":17325:17328   */\n      dup3\n        /* \"#utility.yul\":17321:17335   */\n      add\n        /* \"#utility.yul\":17313:17335   */\n      swap1\n      pop\n        /* \"#utility.yul\":17200:17342   */\n      swap2\n      swap1\n      pop\n      jump\t// out\n        /* \"#utility.yul\":17348:17507   */\n    tag_232:\n        /* \"#utility.yul\":17422:17433   */\n      0x00\n        /* \"#utility.yul\":17456:17462   */\n      dup3\n        /* \"#utility.yul\":17451:17454   */\n      dup3\n        /* \"#utility.yul\":17444:17463   */\n      mstore\n        /* \"#utility.yul\":17496:17500   */\n      0x20\n        /* \"#utility.yul\":17491:17494   */\n      dup3\n        /* \"#utility.yul\":17487:17501   */\n      add\n        /* \"#utility.yul\":17472:17501   */\n      swap1\n      pop\n        /* \"#utility.yul\":17348:17507   */\n      swap3\n      swap2\n      pop\n      pop\n      jump\t// out\n        /* \"#utility.yul\":17513:17870   */\n    tag_233:\n        /* \"#utility.yul\":17591:17594   */\n      0x00\n        /* \"#utility.yul\":17619:17658   */\n      tag_436\n        /* \"#utility.yul\":17652:17657   */\n      dup3\n        /* \"#utility.yul\":17619:17658   */\n      tag_196\n      jump\t// in\n    tag_436:\n        /* \"#utility.yul\":17674:17735   */\n      tag_437\n        /* \"#utility.yul\":17728:17734   */\n      dup2\n        /* \"#utility.yul\":17723:17726   */\n      dup6\n        /* \"#utility.yul\":17674:17735   */\n      tag_232\n      jump\t// in\n    tag_437:\n        /* \"#utility.yul\":17667:17735   */\n      swap4\n      pop\n        /* \"#utility.yul\":17744:17809   */\n      tag_438\n        /* \"#utility.yul\":17802:17808   */\n      dup2\n        /* \"#utility.yul\":17797:17800   */\n      dup6\n        /* \"#utility.yul\":17790:17794   */\n      0x20\n        /* \"#utility.yul\":17783:17788   */\n      dup7\n        /* \"#utility.yul\":17779:17795   */\n      add\n        /* \"#utility.yul\":17744:17809   */\n      tag_198\n      jump\t// in\n    tag_438:\n        /* \"#utility.yul\":17834:17863   */\n      tag_439\n        /* \"#utility.yul\":17856:17862   */\n      dup2\n        /* \"#utility.yul\":17834:17863   */\n      tag_199\n      jump\t// in\n    tag_439:\n        /* \"#utility.yul\":17829:17832   */\n      dup5\n        /* \"#utility.yul\":17825:17864   */\n      add\n        /* \"#utility.yul\":17818:17864   */\n      swap2\n      pop\n        /* \"#utility.yul\":17595:17870   */\n      pop\n        /* \"#utility.yul\":17513:17870   */\n      swap3\n      swap2\n      pop\n      pop\n      jump\t// out\n        /* \"#utility.yul\":17876:18072   */\n    tag_234:\n        /* \"#utility.yul\":17965:17975   */\n      0x00\n        /* \"#utility.yul\":18000:18066   */\n      tag_441\n        /* \"#utility.yul\":18062:18065   */\n      dup4\n        /* \"#utility.yul\":18054:18060   */\n      dup4\n        /* \"#utility.yul\":18000:18066   */\n      tag_233\n      jump\t// in\n    tag_441:\n        /* \"#utility.yul\":17986:18066   */\n      swap1\n      pop\n        /* \"#utility.yul\":17876:18072   */\n      swap3\n      swap2\n      pop\n      pop\n      jump\t// out\n        /* \"#utility.yul\":18078:18201   */\n    tag_235:\n        /* \"#utility.yul\":18158:18162   */\n      0x00\n        /* \"#utility.yul\":18190:18194   */\n      0x20\n        /* \"#utility.yul\":18185:18188   */\n      dup3\n        /* \"#utility.yul\":18181:18195   */\n      add\n        /* \"#utility.yul\":18173:18195   */\n      swap1\n      pop\n        /* \"#utility.yul\":18078:18201   */\n      swap2\n      swap1\n      pop\n      jump\t// out\n        /* \"#utility.yul\":18235:19226   */\n    tag_236:\n        /* \"#utility.yul\":18374:18377   */\n      0x00\n        /* \"#utility.yul\":18403:18467   */\n      tag_444\n        /* \"#utility.yul\":18461:18466   */\n      dup3\n        /* \"#utility.yul\":18403:18467   */\n      tag_229\n      jump\t// in\n    tag_444:\n        /* \"#utility.yul\":18483:18579   */\n      tag_445\n        /* \"#utility.yul\":18572:18578   */\n      dup2\n        /* \"#utility.yul\":18567:18570   */\n      dup6\n        /* \"#utility.yul\":18483:18579   */\n      tag_230\n      jump\t// in\n    tag_445:\n        /* \"#utility.yul\":18476:18579   */\n      swap4\n      pop\n        /* \"#utility.yul\":18605:18608   */\n      dup4\n        /* \"#utility.yul\":18650:18654   */\n      0x20\n        /* \"#utility.yul\":18642:18648   */\n      dup3\n        /* \"#utility.yul\":18638:18655   */\n      mul\n        /* \"#utility.yul\":18633:18636   */\n      dup6\n        /* \"#utility.yul\":18629:18656   */\n      add\n        /* \"#utility.yul\":18680:18746   */\n      tag_446\n        /* \"#utility.yul\":18740:18745   */\n      dup6\n        /* \"#utility.yul\":18680:18746   */\n      tag_231\n      jump\t// in\n    tag_446:\n        /* \"#utility.yul\":18769:18776   */\n      dup1\n        /* \"#utility.yul\":18800:18801   */\n      0x00\n        /* \"#utility.yul\":18785:19181   */\n    tag_447:\n        /* \"#utility.yul\":18810:18816   */\n      dup6\n        /* \"#utility.yul\":18807:18808   */\n      dup2\n        /* \"#utility.yul\":18804:18817   */\n      lt\n        /* \"#utility.yul\":18785:19181   */\n      iszero\n      tag_449\n      jumpi\n        /* \"#utility.yul\":18881:18890   */\n      dup5\n        /* \"#utility.yul\":18875:18879   */\n      dup5\n        /* \"#utility.yul\":18871:18891   */\n      sub\n        /* \"#utility.yul\":18866:18869   */\n      dup10\n        /* \"#utility.yul\":18859:18892   */\n      mstore\n        /* \"#utility.yul\":18932:18938   */\n      dup2\n        /* \"#utility.yul\":18926:18939   */\n      mload\n        /* \"#utility.yul\":18960:19044   */\n      tag_450\n        /* \"#utility.yul\":19039:19043   */\n      dup6\n        /* \"#utility.yul\":19024:19037   */\n      dup3\n        /* \"#utility.yul\":18960:19044   */\n      tag_234\n      jump\t// in\n    tag_450:\n        /* \"#utility.yul\":18952:19044   */\n      swap5\n      pop\n        /* \"#utility.yul\":19067:19137   */\n      tag_451\n        /* \"#utility.yul\":19130:19136   */\n      dup4\n        /* \"#utility.yul\":19067:19137   */\n      tag_235\n      jump\t// in\n    tag_451:\n        /* \"#utility.yul\":19057:19137   */\n      swap3\n      pop\n        /* \"#utility.yul\":19166:19170   */\n      0x20\n        /* \"#utility.yul\":19161:19164   */\n      dup11\n        /* \"#utility.yul\":19157:19171   */\n      add\n        /* \"#utility.yul\":19150:19171   */\n      swap10\n      pop\n        /* \"#utility.yul\":18845:19181   */\n      pop\n        /* \"#utility.yul\":18832:18833   */\n      0x01\n        /* \"#utility.yul\":18829:18830   */\n      dup2\n        /* \"#utility.yul\":18825:18834   */\n      add\n        /* \"#utility.yul\":18820:18834   */\n      swap1\n      pop\n        /* \"#utility.yul\":18785:19181   */\n      jump(tag_447)\n    tag_449:\n        /* \"#utility.yul\":18789:18803   */\n      pop\n        /* \"#utility.yul\":19197:19201   */\n      dup3\n        /* \"#utility.yul\":19190:19201   */\n      swap8\n      pop\n        /* \"#utility.yul\":19217:19220   */\n      dup8\n        /* \"#utility.yul\":19210:19220   */\n      swap6\n      pop\n        /* \"#utility.yul\":18379:19226   */\n      pop\n      pop\n      pop\n      pop\n      pop\n        /* \"#utility.yul\":18235:19226   */\n      swap3\n      swap2\n      pop\n      pop\n      jump\t// out\n        /* \"#utility.yul\":19232:19309   */\n    tag_237:\n        /* \"#utility.yul\":19269:19276   */\n      0x00\n        /* \"#utility.yul\":19298:19303   */\n      dup2\n        /* \"#utility.yul\":19287:19303   */\n      swap1\n      pop\n        /* \"#utility.yul\":19232:19309   */\n      swap2\n      swap1\n      pop\n      jump\t// out\n        /* \"#utility.yul\":19315:19433   */\n    tag_238:\n        /* \"#utility.yul\":19402:19426   */\n      tag_454\n        /* \"#utility.yul\":19420:19425   */\n      dup2\n        /* \"#utility.yul\":19402:19426   */\n      tag_237\n      jump\t// in\n    tag_454:\n        /* \"#utility.yul\":19397:19400   */\n      dup3\n        /* \"#utility.yul\":19390:19427   */\n      mstore\n        /* \"#utility.yul\":19315:19433   */\n      pop\n      pop\n      jump\t// out\n        /* \"#utility.yul\":19439:19614   */\n    tag_239:\n        /* \"#utility.yul\":19579:19606   */\n      0x57686974656c6973742072656d6f76656420666f722055454e00000000000000\n        /* \"#utility.yul\":19575:19576   */\n      0x00\n        /* \"#utility.yul\":19567:19573   */\n      dup3\n        /* \"#utility.yul\":19563:19577   */\n      add\n        /* \"#utility.yul\":19556:19607   */\n      mstore\n        /* \"#utility.yul\":19439:19614   */\n      pop\n      jump\t// out\n        /* \"#utility.yul\":19620:19986   */\n    tag_240:\n        /* \"#utility.yul\":19762:19765   */\n      0x00\n        /* \"#utility.yul\":19783:19850   */\n      tag_457\n        /* \"#utility.yul\":19847:19849   */\n      0x19\n        /* \"#utility.yul\":19842:19845   */\n      dup4\n        /* \"#utility.yul\":19783:19850   */\n      tag_197\n      jump\t// in\n    tag_457:\n        /* \"#utility.yul\":19776:19850   */\n      swap2\n      pop\n        /* \"#utility.yul\":19859:19952   */\n      tag_458\n        /* \"#utility.yul\":19948:19951   */\n      dup3\n        /* \"#utility.yul\":19859:19952   */\n      tag_239\n      jump\t// in\n    tag_458:\n        /* \"#utility.yul\":19977:19979   */\n      0x20\n        /* \"#utility.yul\":19972:19975   */\n      dup3\n        /* \"#utility.yul\":19968:19980   */\n      add\n        /* \"#utility.yul\":19961:19980   */\n      swap1\n      pop\n        /* \"#utility.yul\":19620:19986   */\n      swap2\n      swap1\n      pop\n      jump\t// out\n        /* \"#utility.yul\":19992:21235   */\n    tag_122:\n        /* \"#utility.yul\":20410:20414   */\n      0x00\n        /* \"#utility.yul\":20448:20451   */\n      0xa0\n        /* \"#utility.yul\":20437:20446   */\n      dup3\n        /* \"#utility.yul\":20433:20452   */\n      add\n        /* \"#utility.yul\":20425:20452   */\n      swap1\n      pop\n        /* \"#utility.yul\":20498:20507   */\n      dup2\n        /* \"#utility.yul\":20492:20496   */\n      dup2\n        /* \"#utility.yul\":20488:20508   */\n      sub\n        /* \"#utility.yul\":20484:20485   */\n      0x00\n        /* \"#utility.yul\":20473:20482   */\n      dup4\n        /* \"#utility.yul\":20469:20486   */\n      add\n        /* \"#utility.yul\":20462:20509   */\n      mstore\n        /* \"#utility.yul\":20526:20654   */\n      tag_460\n        /* \"#utility.yul\":20649:20653   */\n      dup2\n        /* \"#utility.yul\":20640:20646   */\n      dup8\n        /* \"#utility.yul\":20526:20654   */\n      tag_236\n      jump\t// in\n    tag_460:\n        /* \"#utility.yul\":20518:20654   */\n      swap1\n      pop\n        /* \"#utility.yul\":20701:20710   */\n      dup2\n        /* \"#utility.yul\":20695:20699   */\n      dup2\n        /* \"#utility.yul\":20691:20711   */\n      sub\n        /* \"#utility.yul\":20686:20688   */\n      0x20\n        /* \"#utility.yul\":20675:20684   */\n      dup4\n        /* \"#utility.yul\":20671:20689   */\n      add\n        /* \"#utility.yul\":20664:20712   */\n      mstore\n        /* \"#utility.yul\":20729:20857   */\n      tag_461\n        /* \"#utility.yul\":20852:20856   */\n      dup2\n        /* \"#utility.yul\":20843:20849   */\n      dup7\n        /* \"#utility.yul\":20729:20857   */\n      tag_236\n      jump\t// in\n    tag_461:\n        /* \"#utility.yul\":20721:20857   */\n      swap1\n      pop\n        /* \"#utility.yul\":20867:20939   */\n      tag_462\n        /* \"#utility.yul\":20935:20937   */\n      0x40\n        /* \"#utility.yul\":20924:20933   */\n      dup4\n        /* \"#utility.yul\":20920:20938   */\n      add\n        /* \"#utility.yul\":20911:20917   */\n      dup6\n        /* \"#utility.yul\":20867:20939   */\n      tag_238\n      jump\t// in\n    tag_462:\n        /* \"#utility.yul\":20949:21021   */\n      tag_463\n        /* \"#utility.yul\":21017:21019   */\n      0x60\n        /* \"#utility.yul\":21006:21015   */\n      dup4\n        /* \"#utility.yul\":21002:21020   */\n      add\n        /* \"#utility.yul\":20993:20999   */\n      dup5\n        /* \"#utility.yul\":20949:21021   */\n      tag_201\n      jump\t// in\n    tag_463:\n        /* \"#utility.yul\":21069:21078   */\n      dup2\n        /* \"#utility.yul\":21063:21067   */\n      dup2\n        /* \"#utility.yul\":21059:21079   */\n      sub\n        /* \"#utility.yul\":21053:21056   */\n      0x80\n        /* \"#utility.yul\":21042:21051   */\n      dup4\n        /* \"#utility.yul\":21038:21057   */\n      add\n        /* \"#utility.yul\":21031:21080   */\n      mstore\n        /* \"#utility.yul\":21097:21228   */\n      tag_464\n        /* \"#utility.yul\":21223:21227   */\n      dup2\n        /* \"#utility.yul\":21097:21228   */\n      tag_240\n      jump\t// in\n    tag_464:\n        /* \"#utility.yul\":21089:21228   */\n      swap1\n      pop\n        /* \"#utility.yul\":19992:21235   */\n      swap6\n      swap5\n      pop\n      pop\n      pop\n      pop\n      pop\n      jump\t// out\n        /* \"#utility.yul\":21241:21409   */\n    tag_241:\n        /* \"#utility.yul\":21381:21401   */\n      0x55454e20646f6573206e6f742065786973740000000000000000000000000000\n        /* \"#utility.yul\":21377:21378   */\n      0x00\n        /* \"#utility.yul\":21369:21375   */\n      dup3\n        /* \"#utility.yul\":21365:21379   */\n      add\n        /* \"#utility.yul\":21358:21402   */\n      mstore\n        /* \"#utility.yul\":21241:21409   */\n      pop\n      jump\t// out\n        /* \"#utility.yul\":21415:21781   */\n    tag_242:\n        /* \"#utility.yul\":21557:21560   */\n      0x00\n        /* \"#utility.yul\":21578:21645   */\n      tag_467\n        /* \"#utility.yul\":21642:21644   */\n      0x12\n        /* \"#utility.yul\":21637:21640   */\n      dup4\n        /* \"#utility.yul\":21578:21645   */\n      tag_197\n      jump\t// in\n    tag_467:\n        /* \"#utility.yul\":21571:21645   */\n      swap2\n      pop\n        /* \"#utility.yul\":21654:21747   */\n      tag_468\n        /* \"#utility.yul\":21743:21746   */\n      dup3\n        /* \"#utility.yul\":21654:21747   */\n      tag_241\n      jump\t// in\n    tag_468:\n        /* \"#utility.yul\":21772:21774   */\n      0x20\n        /* \"#utility.yul\":21767:21770   */\n      dup3\n        /* \"#utility.yul\":21763:21775   */\n      add\n        /* \"#utility.yul\":21756:21775   */\n      swap1\n      pop\n        /* \"#utility.yul\":21415:21781   */\n      swap2\n      swap1\n      pop\n      jump\t// out\n        /* \"#utility.yul\":21787:22206   */\n    tag_142:\n        /* \"#utility.yul\":21953:21957   */\n      0x00\n        /* \"#utility.yul\":21991:21993   */\n      0x20\n        /* \"#utility.yul\":21980:21989   */\n      dup3\n        /* \"#utility.yul\":21976:21994   */\n      add\n        /* \"#utility.yul\":21968:21994   */\n      swap1\n      pop\n        /* \"#utility.yul\":22040:22049   */\n      dup2\n        /* \"#utility.yul\":22034:22038   */\n      dup2\n        /* \"#utility.yul\":22030:22050   */\n      sub\n        /* \"#utility.yul\":22026:22027   */\n      0x00\n        /* \"#utility.yul\":22015:22024   */\n      dup4\n        /* \"#utility.yul\":22011:22028   */\n      add\n        /* \"#utility.yul\":22004:22051   */\n      mstore\n        /* \"#utility.yul\":22068:22199   */\n      tag_470\n        /* \"#utility.yul\":22194:22198   */\n      dup2\n        /* \"#utility.yul\":22068:22199   */\n      tag_242\n      jump\t// in\n    tag_470:\n        /* \"#utility.yul\":22060:22199   */\n      swap1\n      pop\n        /* \"#utility.yul\":21787:22206   */\n      swap2\n      swap1\n      pop\n      jump\t// out\n        /* \"#utility.yul\":22212:22353   */\n    tag_243:\n        /* \"#utility.yul\":22261:22265   */\n      0x00\n        /* \"#utility.yul\":22284:22287   */\n      dup2\n        /* \"#utility.yul\":22276:22287   */\n      swap1\n      pop\n        /* \"#utility.yul\":22307:22310   */\n      dup2\n        /* \"#utility.yul\":22304:22305   */\n      0x00\n        /* \"#utility.yul\":22297:22311   */\n      mstore\n        /* \"#utility.yul\":22341:22345   */\n      0x20\n        /* \"#utility.yul\":22338:22339   */\n      0x00\n        /* \"#utility.yul\":22328:22346   */\n      keccak256\n        /* \"#utility.yul\":22320:22346   */\n      swap1\n      pop\n        /* \"#utility.yul\":22212:22353   */\n      swap2\n      swap1\n      pop\n      jump\t// out\n        /* \"#utility.yul\":22359:22452   */\n    tag_244:\n        /* \"#utility.yul\":22396:22402   */\n      0x00\n        /* \"#utility.yul\":22443:22445   */\n      0x20\n        /* \"#utility.yul\":22438:22440   */\n      0x1f\n        /* \"#utility.yul\":22431:22436   */\n      dup4\n        /* \"#utility.yul\":22427:22441   */\n      add\n        /* \"#utility.yul\":22423:22446   */\n      div\n        /* \"#utility.yul\":22413:22446   */\n      swap1\n      pop\n        /* \"#utility.yul\":22359:22452   */\n      swap2\n      swap1\n      pop\n      jump\t// out\n        /* \"#utility.yul\":22458:22565   */\n    tag_245:\n        /* \"#utility.yul\":22502:22510   */\n      0x00\n        /* \"#utility.yul\":22552:22557   */\n      dup3\n        /* \"#utility.yul\":22546:22550   */\n      dup3\n        /* \"#utility.yul\":22542:22558   */\n      shl\n        /* \"#utility.yul\":22521:22558   */\n      swap1\n      pop\n        /* \"#utility.yul\":22458:22565   */\n      swap3\n      swap2\n      pop\n      pop\n      jump\t// out\n        /* \"#utility.yul\":22571:22964   */\n    tag_246:\n        /* \"#utility.yul\":22640:22646   */\n      0x00\n        /* \"#utility.yul\":22690:22691   */\n      0x08\n        /* \"#utility.yul\":22678:22688   */\n      dup4\n        /* \"#utility.yul\":22674:22692   */\n      mul\n        /* \"#utility.yul\":22713:22810   */\n      tag_475\n        /* \"#utility.yul\":22743:22809   */\n      0xffffffffffffffffffffffffffffffffffffffffffffffffffffffffffffffff\n        /* \"#utility.yul\":22732:22741   */\n      dup3\n        /* \"#utility.yul\":22713:22810   */\n      tag_245\n      jump\t// in\n    tag_475:\n        /* \"#utility.yul\":22831:22870   */\n      tag_476\n        /* \"#utility.yul\":22861:22869   */\n      dup7\n        /* \"#utility.yul\":22850:22859   */\n      dup4\n        /* \"#utility.yul\":22831:22870   */\n      tag_245\n      jump\t// in\n    tag_476:\n        /* \"#utility.yul\":22819:22870   */\n      swap6\n      pop\n        /* \"#utility.yul\":22903:22907   */\n      dup1\n        /* \"#utility.yul\":22899:22908   */\n      not\n        /* \"#utility.yul\":22892:22897   */\n      dup5\n        /* \"#utility.yul\":22888:22909   */\n      and\n        /* \"#utility.yul\":22879:22909   */\n      swap4\n      pop\n        /* \"#utility.yul\":22952:22956   */\n      dup1\n        /* \"#utility.yul\":22942:22950   */\n      dup7\n        /* \"#utility.yul\":22938:22957   */\n      and\n        /* \"#utility.yul\":22931:22936   */\n      dup5\n        /* \"#utility.yul\":22928:22958   */\n      or\n        /* \"#utility.yul\":22918:22958   */\n      swap3\n      pop\n        /* \"#utility.yul\":22647:22964   */\n      pop\n      pop\n        /* \"#utility.yul\":22571:22964   */\n      swap4\n      swap3\n      pop\n      pop\n      pop\n      jump\t// out\n        /* \"#utility.yul\":22970:23112   */\n    tag_247:\n        /* \"#utility.yul\":23020:23029   */\n      0x00\n        /* \"#utility.yul\":23053:23106   */\n      tag_478\n        /* \"#utility.yul\":23071:23105   */\n      tag_479\n        /* \"#utility.yul\":23080:23104   */\n      tag_480\n        /* \"#utility.yul\":23098:23103   */\n      dup5\n        /* \"#utility.yul\":23080:23104   */\n      tag_237\n      jump\t// in\n    tag_480:\n        /* \"#utility.yul\":23071:23105   */\n      tag_185\n      jump\t// in\n    tag_479:\n        /* \"#utility.yul\":23053:23106   */\n      tag_237\n      jump\t// in\n    tag_478:\n        /* \"#utility.yul\":23040:23106   */\n      swap1\n      pop\n        /* \"#utility.yul\":22970:23112   */\n      swap2\n      swap1\n      pop\n      jump\t// out\n        /* \"#utility.yul\":23118:23193   */\n    tag_248:\n        /* \"#utility.yul\":23161:23164   */\n      0x00\n        /* \"#utility.yul\":23182:23187   */\n      dup2\n        /* \"#utility.yul\":23175:23187   */\n      swap1\n      pop\n        /* \"#utility.yul\":23118:23193   */\n      swap2\n      swap1\n      pop\n      jump\t// out\n        /* \"#utility.yul\":23199:23468   */\n    tag_249:\n        /* \"#utility.yul\":23309:23348   */\n      tag_483\n        /* \"#utility.yul\":23340:23347   */\n      dup4\n        /* \"#utility.yul\":23309:23348   */\n      tag_247\n      jump\t// in\n    tag_483:\n        /* \"#utility.yul\":23370:23461   */\n      tag_484\n        /* \"#utility.yul\":23419:23460   */\n      tag_485\n        /* \"#utility.yul\":23443:23459   */\n      dup3\n        /* \"#utility.yul\":23419:23460   */\n      tag_248\n      jump\t// in\n    tag_485:\n        /* \"#utility.yul\":23411:23417   */\n      dup5\n        /* \"#utility.yul\":23404:23408   */\n      dup5\n        /* \"#utility.yul\":23398:23409   */\n      sload\n        /* \"#utility.yul\":23370:23461   */\n      tag_246\n      jump\t// in\n    tag_484:\n        /* \"#utility.yul\":23364:23368   */\n      dup3\n        /* \"#utility.yul\":23357:23462   */\n      sstore\n        /* \"#utility.yul\":23275:23468   */\n      pop\n        /* \"#utility.yul\":23199:23468   */\n      pop\n      pop\n      pop\n      jump\t// out\n        /* \"#utility.yul\":23474:23547   */\n    tag_250:\n        /* \"#utility.yul\":23519:23522   */\n      0x00\n        /* \"#utility.yul\":23474:23547   */\n      swap1\n      jump\t// out\n        /* \"#utility.yul\":23553:23742   */\n    tag_251:\n        /* \"#utility.yul\":23630:23662   */\n      tag_488\n      tag_250\n      jump\t// in\n    tag_488:\n        /* \"#utility.yul\":23671:23736   */\n      tag_489\n        /* \"#utility.yul\":23729:23735   */\n      dup2\n        /* \"#utility.yul\":23721:23727   */\n      dup5\n        /* \"#utility.yul\":23715:23719   */\n      dup5\n        /* \"#utility.yul\":23671:23736   */\n      tag_249\n      jump\t// in\n    tag_489:\n        /* \"#utility.yul\":23606:23742   */\n      pop\n        /* \"#utility.yul\":23553:23742   */\n      pop\n      pop\n      jump\t// out\n        /* \"#utility.yul\":23748:23934   */\n    tag_252:\n        /* \"#utility.yul\":23808:23928   */\n    tag_491:\n        /* \"#utility.yul\":23825:23828   */\n      dup2\n        /* \"#utility.yul\":23818:23823   */\n      dup2\n        /* \"#utility.yul\":23815:23829   */\n      lt\n        /* \"#utility.yul\":23808:23928   */\n      iszero\n      tag_493\n      jumpi\n        /* \"#utility.yul\":23879:23918   */\n      tag_494\n        /* \"#utility.yul\":23916:23917   */\n      0x00\n        /* \"#utility.yul\":23909:23914   */\n      dup3\n        /* \"#utility.yul\":23879:23918   */\n      tag_251\n      jump\t// in\n    tag_494:\n        /* \"#utility.yul\":23852:23853   */\n      0x01\n        /* \"#utility.yul\":23845:23850   */\n      dup2\n        /* \"#utility.yul\":23841:23854   */\n      add\n        /* \"#utility.yul\":23832:23854   */\n      swap1\n      pop\n        /* \"#utility.yul\":23808:23928   */\n      jump(tag_491)\n    tag_493:\n        /* \"#utility.yul\":23748:23934   */\n      pop\n      pop\n      jump\t// out\n        /* \"#utility.yul\":23940:24483   */\n    tag_253:\n        /* \"#utility.yul\":24041:24043   */\n      0x1f\n        /* \"#utility.yul\":24036:24039   */\n      dup3\n        /* \"#utility.yul\":24033:24044   */\n      gt\n        /* \"#utility.yul\":24030:24476   */\n      iszero\n      tag_496\n      jumpi\n        /* \"#utility.yul\":24075:24113   */\n      tag_497\n        /* \"#utility.yul\":24107:24112   */\n      dup2\n        /* \"#utility.yul\":24075:24113   */\n      tag_243\n      jump\t// in\n    tag_497:\n        /* \"#utility.yul\":24159:24188   */\n      tag_498\n        /* \"#utility.yul\":24177:24187   */\n      dup5\n        /* \"#utility.yul\":24159:24188   */\n      tag_244\n      jump\t// in\n    tag_498:\n        /* \"#utility.yul\":24149:24157   */\n      dup2\n        /* \"#utility.yul\":24145:24189   */\n      add\n        /* \"#utility.yul\":24342:24344   */\n      0x20\n        /* \"#utility.yul\":24330:24340   */\n      dup6\n        /* \"#utility.yul\":24327:24345   */\n      lt\n        /* \"#utility.yul\":24324:24373   */\n      iszero\n      tag_499\n      jumpi\n        /* \"#utility.yul\":24363:24371   */\n      dup2\n        /* \"#utility.yul\":24348:24371   */\n      swap1\n      pop\n        /* \"#utility.yul\":24324:24373   */\n    tag_499:\n        /* \"#utility.yul\":24386:24466   */\n      tag_500\n        /* \"#utility.yul\":24442:24464   */\n      tag_501\n        /* \"#utility.yul\":24460:24463   */\n      dup6\n        /* \"#utility.yul\":24442:24464   */\n      tag_244\n      jump\t// in\n    tag_501:\n        /* \"#utility.yul\":24432:24440   */\n      dup4\n        /* \"#utility.yul\":24428:24465   */\n      add\n        /* \"#utility.yul\":24415:24426   */\n      dup3\n        /* \"#utility.yul\":24386:24466   */\n      tag_252\n      jump\t// in\n    tag_500:\n        /* \"#utility.yul\":24045:24476   */\n      pop\n      pop\n        /* \"#utility.yul\":24030:24476   */\n    tag_496:\n        /* \"#utility.yul\":23940:24483   */\n      pop\n      pop\n      pop\n      jump\t// out\n        /* \"#utility.yul\":24489:24606   */\n    tag_254:\n        /* \"#utility.yul\":24543:24551   */\n      0x00\n        /* \"#utility.yul\":24593:24598   */\n      dup3\n        /* \"#utility.yul\":24587:24591   */\n      dup3\n        /* \"#utility.yul\":24583:24599   */\n      shr\n        /* \"#utility.yul\":24562:24599   */\n      swap1\n      pop\n        /* \"#utility.yul\":24489:24606   */\n      swap3\n      swap2\n      pop\n      pop\n      jump\t// out\n        /* \"#utility.yul\":24612:24781   */\n    tag_255:\n        /* \"#utility.yul\":24656:24662   */\n      0x00\n        /* \"#utility.yul\":24689:24740   */\n      tag_504\n        /* \"#utility.yul\":24737:24738   */\n      0x00\n        /* \"#utility.yul\":24733:24739   */\n      not\n        /* \"#utility.yul\":24725:24730   */\n      dup5\n        /* \"#utility.yul\":24722:24723   */\n      0x08\n        /* \"#utility.yul\":24718:24731   */\n      mul\n        /* \"#utility.yul\":24689:24740   */\n      tag_254\n      jump\t// in\n    tag_504:\n        /* \"#utility.yul\":24685:24741   */\n      not\n        /* \"#utility.yul\":24770:24774   */\n      dup1\n        /* \"#utility.yul\":24764:24768   */\n      dup4\n        /* \"#utility.yul\":24760:24775   */\n      and\n        /* \"#utility.yul\":24750:24775   */\n      swap2\n      pop\n        /* \"#utility.yul\":24663:24781   */\n      pop\n        /* \"#utility.yul\":24612:24781   */\n      swap3\n      swap2\n      pop\n      pop\n      jump\t// out\n        /* \"#utility.yul\":24786:25081   */\n    tag_256:\n        /* \"#utility.yul\":24862:24866   */\n      0x00\n        /* \"#utility.yul\":25008:25037   */\n      tag_506\n        /* \"#utility.yul\":25033:25036   */\n      dup4\n        /* \"#utility.yul\":25027:25031   */\n      dup4\n        /* \"#utility.yul\":25008:25037   */\n      tag_255\n      jump\t// in\n    tag_506:\n        /* \"#utility.yul\":25000:25037   */\n      swap2\n      pop\n        /* \"#utility.yul\":25070:25073   */\n      dup3\n        /* \"#utility.yul\":25067:25068   */\n      0x02\n        /* \"#utility.yul\":25063:25074   */\n      mul\n        /* \"#utility.yul\":25057:25061   */\n      dup3\n        /* \"#utility.yul\":25054:25075   */\n      or\n        /* \"#utility.yul\":25046:25075   */\n      swap1\n      pop\n        /* \"#utility.yul\":24786:25081   */\n      swap3\n      swap2\n      pop\n      pop\n      jump\t// out\n        /* \"#utility.yul\":25086:26481   */\n    tag_159:\n        /* \"#utility.yul\":25203:25240   */\n      tag_508\n        /* \"#utility.yul\":25236:25239   */\n      dup3\n        /* \"#utility.yul\":25203:25240   */\n      tag_196\n      jump\t// in\n    tag_508:\n        /* \"#utility.yul\":25305:25323   */\n      0xffffffffffffffff\n        /* \"#utility.yul\":25297:25303   */\n      dup2\n        /* \"#utility.yul\":25294:25324   */\n      gt\n        /* \"#utility.yul\":25291:25347   */\n      iszero\n      tag_509\n      jumpi\n        /* \"#utility.yul\":25327:25345   */\n      tag_510\n      tag_203\n      jump\t// in\n    tag_510:\n        /* \"#utility.yul\":25291:25347   */\n    tag_509:\n        /* \"#utility.yul\":25371:25409   */\n      tag_511\n        /* \"#utility.yul\":25403:25407   */\n      dup3\n        /* \"#utility.yul\":25397:25408   */\n      sload\n        /* \"#utility.yul\":25371:25409   */\n      tag_59\n      jump\t// in\n    tag_511:\n        /* \"#utility.yul\":25456:25523   */\n      tag_512\n        /* \"#utility.yul\":25516:25522   */\n      dup3\n        /* \"#utility.yul\":25508:25514   */\n      dup3\n        /* \"#utility.yul\":25502:25506   */\n      dup6\n        /* \"#utility.yul\":25456:25523   */\n      tag_253\n      jump\t// in\n    tag_512:\n        /* \"#utility.yul\":25550:25551   */\n      0x00\n        /* \"#utility.yul\":25574:25578   */\n      0x20\n        /* \"#utility.yul\":25561:25578   */\n      swap1\n      pop\n        /* \"#utility.yul\":25606:25608   */\n      0x1f\n        /* \"#utility.yul\":25598:25604   */\n      dup4\n        /* \"#utility.yul\":25595:25609   */\n      gt\n        /* \"#utility.yul\":25623:25624   */\n      0x01\n        /* \"#utility.yul\":25618:26236   */\n      dup2\n      eq\n      tag_514\n      jumpi\n        /* \"#utility.yul\":26280:26281   */\n      0x00\n        /* \"#utility.yul\":26297:26303   */\n      dup5\n        /* \"#utility.yul\":26294:26371   */\n      iszero\n      tag_515\n      jumpi\n        /* \"#utility.yul\":26346:26355   */\n      dup3\n        /* \"#utility.yul\":26341:26344   */\n      dup8\n        /* \"#utility.yul\":26337:26356   */\n      add\n        /* \"#utility.yul\":26331:26357   */\n      mload\n        /* \"#utility.yul\":26322:26357   */\n      swap1\n      pop\n        /* \"#utility.yul\":26294:26371   */\n    tag_515:\n        /* \"#utility.yul\":26397:26464   */\n      tag_516\n        /* \"#utility.yul\":26457:26463   */\n      dup6\n        /* \"#utility.yul\":26450:26455   */\n      dup3\n        /* \"#utility.yul\":26397:26464   */\n      tag_256\n      jump\t// in\n    tag_516:\n        /* \"#utility.yul\":26391:26395   */\n      dup7\n        /* \"#utility.yul\":26384:26465   */\n      sstore\n        /* \"#utility.yul\":26253:26475   */\n      pop\n        /* \"#utility.yul\":25588:26475   */\n      jump(tag_513)\n        /* \"#utility.yul\":25618:26236   */\n    tag_514:\n        /* \"#utility.yul\":25670:25674   */\n      0x1f\n        /* \"#utility.yul\":25666:25675   */\n      not\n        /* \"#utility.yul\":25658:25664   */\n      dup5\n        /* \"#utility.yul\":25654:25676   */\n      and\n        /* \"#utility.yul\":25704:25741   */\n      tag_517\n        /* \"#utility.yul\":25736:25740   */\n      dup7\n        /* \"#utility.yul\":25704:25741   */\n      tag_243\n      jump\t// in\n    tag_517:\n        /* \"#utility.yul\":25763:25764   */\n      0x00\n        /* \"#utility.yul\":25777:25985   */\n    tag_518:\n        /* \"#utility.yul\":25791:25798   */\n      dup3\n        /* \"#utility.yul\":25788:25789   */\n      dup2\n        /* \"#utility.yul\":25785:25799   */\n      lt\n        /* \"#utility.yul\":25777:25985   */\n      iszero\n      tag_520\n      jumpi\n        /* \"#utility.yul\":25870:25879   */\n      dup5\n        /* \"#utility.yul\":25865:25868   */\n      dup10\n        /* \"#utility.yul\":25861:25880   */\n      add\n        /* \"#utility.yul\":25855:25881   */\n      mload\n        /* \"#utility.yul\":25847:25853   */\n      dup3\n        /* \"#utility.yul\":25840:25882   */\n      sstore\n        /* \"#utility.yul\":25921:25922   */\n      0x01\n        /* \"#utility.yul\":25913:25919   */\n      dup3\n        /* \"#utility.yul\":25909:25923   */\n      add\n        /* \"#utility.yul\":25899:25923   */\n      swap2\n      pop\n        /* \"#utility.yul\":25968:25970   */\n      0x20\n        /* \"#utility.yul\":25957:25966   */\n      dup6\n        /* \"#utility.yul\":25953:25971   */\n      add\n        /* \"#utility.yul\":25940:25971   */\n      swap5\n      pop\n        /* \"#utility.yul\":25814:25818   */\n      0x20\n        /* \"#utility.yul\":25811:25812   */\n      dup2\n        /* \"#utility.yul\":25807:25819   */\n      add\n        /* \"#utility.yul\":25802:25819   */\n      swap1\n      pop\n        /* \"#utility.yul\":25777:25985   */\n      jump(tag_518)\n    tag_520:\n        /* \"#utility.yul\":26013:26019   */\n      dup7\n        /* \"#utility.yul\":26004:26011   */\n      dup4\n        /* \"#utility.yul\":26001:26020   */\n      lt\n        /* \"#utility.yul\":25998:26177   */\n      iszero\n      tag_521\n      jumpi\n        /* \"#utility.yul\":26071:26080   */\n      dup5\n        /* \"#utility.yul\":26066:26069   */\n      dup10\n        /* \"#utility.yul\":26062:26081   */\n      add\n        /* \"#utility.yul\":26056:26082   */\n      mload\n        /* \"#utility.yul\":26114:26162   */\n      tag_522\n        /* \"#utility.yul\":26156:26160   */\n      0x1f\n        /* \"#utility.yul\":26148:26154   */\n      dup10\n        /* \"#utility.yul\":26144:26161   */\n      and\n        /* \"#utility.yul\":26133:26142   */\n      dup3\n        /* \"#utility.yul\":26114:26162   */\n      tag_255\n      jump\t// in\n    tag_522:\n        /* \"#utility.yul\":26106:26112   */\n      dup4\n        /* \"#utility.yul\":26099:26163   */\n      sstore\n        /* \"#utility.yul\":26021:26177   */\n      pop\n        /* \"#utility.yul\":25998:26177   */\n    tag_521:\n        /* \"#utility.yul\":26223:26224   */\n      0x01\n        /* \"#utility.yul\":26219:26220   */\n      0x02\n        /* \"#utility.yul\":26211:26217   */\n      dup9\n        /* \"#utility.yul\":26207:26221   */\n      mul\n        /* \"#utility.yul\":26203:26225   */\n      add\n        /* \"#utility.yul\":26197:26201   */\n      dup9\n        /* \"#utility.yul\":26190:26226   */\n      sstore\n        /* \"#utility.yul\":25625:26236   */\n      pop\n      pop\n      pop\n        /* \"#utility.yul\":25588:26475   */\n    tag_513:\n      pop\n        /* \"#utility.yul\":25178:26481   */\n      pop\n      pop\n      pop\n        /* \"#utility.yul\":25086:26481   */\n      pop\n      pop\n      jump\t// out\n        /* \"#utility.yul\":26487:26660   */\n    tag_257:\n        /* \"#utility.yul\":26627:26652   */\n      0x57686974656c69737420616464656420666f722055454e000000000000000000\n        /* \"#utility.yul\":26623:26624   */\n      0x00\n        /* \"#utility.yul\":26615:26621   */\n      dup3\n        /* \"#utility.yul\":26611:26625   */\n      add\n        /* \"#utility.yul\":26604:26653   */\n      mstore\n        /* \"#utility.yul\":26487:26660   */\n      pop\n      jump\t// out\n        /* \"#utility.yul\":26666:27032   */\n    tag_258:\n        /* \"#utility.yul\":26808:26811   */\n      0x00\n        /* \"#utility.yul\":26829:26896   */\n      tag_525\n        /* \"#utility.yul\":26893:26895   */\n      0x17\n        /* \"#utility.yul\":26888:26891   */\n      dup4\n        /* \"#utility.yul\":26829:26896   */\n      tag_197\n      jump\t// in\n    tag_525:\n        /* \"#utility.yul\":26822:26896   */\n      swap2\n      pop\n        /* \"#utility.yul\":26905:26998   */\n      tag_526\n        /* \"#utility.yul\":26994:26997   */\n      dup3\n        /* \"#utility.yul\":26905:26998   */\n      tag_257\n      jump\t// in\n    tag_526:\n        /* \"#utility.yul\":27023:27025   */\n      0x20\n        /* \"#utility.yul\":27018:27021   */\n      dup3\n        /* \"#utility.yul\":27014:27026   */\n      add\n        /* \"#utility.yul\":27007:27026   */\n      swap1\n      pop\n        /* \"#utility.yul\":26666:27032   */\n      swap2\n      swap1\n      pop\n      jump\t// out\n        /* \"#utility.yul\":27038:28281   */\n    tag_161:\n        /* \"#utility.yul\":27456:27460   */\n      0x00\n        /* \"#utility.yul\":27494:27497   */\n      0xa0\n        /* \"#utility.yul\":27483:27492   */\n      dup3\n        /* \"#utility.yul\":27479:27498   */\n      add\n        /* \"#utility.yul\":27471:27498   */\n      swap1\n      pop\n        /* \"#utility.yul\":27544:27553   */\n      dup2\n        /* \"#utility.yul\":27538:27542   */\n      dup2\n        /* \"#utility.yul\":27534:27554   */\n      sub\n        /* \"#utility.yul\":27530:27531   */\n      0x00\n        /* \"#utility.yul\":27519:27528   */\n      dup4\n        /* \"#utility.yul\":27515:27532   */\n      add\n        /* \"#utility.yul\":27508:27555   */\n      mstore\n        /* \"#utility.yul\":27572:27700   */\n      tag_528\n        /* \"#utility.yul\":27695:27699   */\n      dup2\n        /* \"#utility.yul\":27686:27692   */\n      dup8\n        /* \"#utility.yul\":27572:27700   */\n      tag_236\n      jump\t// in\n    tag_528:\n        /* \"#utility.yul\":27564:27700   */\n      swap1\n      pop\n        /* \"#utility.yul\":27747:27756   */\n      dup2\n        /* \"#utility.yul\":27741:27745   */\n      dup2\n        /* \"#utility.yul\":27737:27757   */\n      sub\n        /* \"#utility.yul\":27732:27734   */\n      0x20\n        /* \"#utility.yul\":27721:27730   */\n      dup4\n        /* \"#utility.yul\":27717:27735   */\n      add\n        /* \"#utility.yul\":27710:27758   */\n      mstore\n        /* \"#utility.yul\":27775:27903   */\n      tag_529\n        /* \"#utility.yul\":27898:27902   */\n      dup2\n        /* \"#utility.yul\":27889:27895   */\n      dup7\n        /* \"#utility.yul\":27775:27903   */\n      tag_236\n      jump\t// in\n    tag_529:\n        /* \"#utility.yul\":27767:27903   */\n      swap1\n      pop\n        /* \"#utility.yul\":27913:27985   */\n      tag_530\n        /* \"#utility.yul\":27981:27983   */\n      0x40\n        /* \"#utility.yul\":27970:27979   */\n      dup4\n        /* \"#utility.yul\":27966:27984   */\n      add\n        /* \"#utility.yul\":27957:27963   */\n      dup6\n        /* \"#utility.yul\":27913:27985   */\n      tag_238\n      jump\t// in\n    tag_530:\n        /* \"#utility.yul\":27995:28067   */\n      tag_531\n        /* \"#utility.yul\":28063:28065   */\n      0x60\n        /* \"#utility.yul\":28052:28061   */\n      dup4\n        /* \"#utility.yul\":28048:28066   */\n      add\n        /* \"#utility.yul\":28039:28045   */\n      dup5\n        /* \"#utility.yul\":27995:28067   */\n      tag_201\n      jump\t// in\n    tag_531:\n        /* \"#utility.yul\":28115:28124   */\n      dup2\n        /* \"#utility.yul\":28109:28113   */\n      dup2\n        /* \"#utility.yul\":28105:28125   */\n      sub\n        /* \"#utility.yul\":28099:28102   */\n      0x80\n        /* \"#utility.yul\":28088:28097   */\n      dup4\n        /* \"#utility.yul\":28084:28103   */\n      add\n        /* \"#utility.yul\":28077:28126   */\n      mstore\n        /* \"#utility.yul\":28143:28274   */\n      tag_532\n        /* \"#utility.yul\":28269:28273   */\n      dup2\n        /* \"#utility.yul\":28143:28274   */\n      tag_258\n      jump\t// in\n    tag_532:\n        /* \"#utility.yul\":28135:28274   */\n      swap1\n      pop\n        /* \"#utility.yul\":27038:28281   */\n      swap6\n      swap5\n      pop\n      pop\n      pop\n      pop\n      pop\n      jump\t// out\n\n    auxdata: 0xa2646970667358221220b6bda88aa190d6ea001c93edf98cc37958026dde59d8fd6ea4c01434eac5392264736f6c63430008160033\n}\n",
				"bytecode": {
					"linkReferences": {},
					"object": "608060405234801562000010575f80fd5b5060405162001ee038038062001ee083398181016040528101906200003691906200022a565b805f73ffffffffffffffffffffffffffffffffffffffff168173ffffffffffffffffffffffffffffffffffffffff1603620000aa575f6040517f1e4fbdf7000000000000000000000000000000000000000000000000000000008152600401620000a1919062000280565b60405180910390fd5b620000bb816200010460201b60201c565b508160015f6101000a81548173ffffffffffffffffffffffffffffffffffffffff021916908373ffffffffffffffffffffffffffffffffffffffff16021790555050506200029b565b5f805f9054906101000a900473ffffffffffffffffffffffffffffffffffffffff169050815f806101000a81548173ffffffffffffffffffffffffffffffffffffffff021916908373ffffffffffffffffffffffffffffffffffffffff1602179055508173ffffffffffffffffffffffffffffffffffffffff168173ffffffffffffffffffffffffffffffffffffffff167f8be0079c531659141344cd1fd0a4f28419497f9722a3daafe3b4186f6b6457e060405160405180910390a35050565b5f80fd5b5f73ffffffffffffffffffffffffffffffffffffffff82169050919050565b5f620001f482620001c9565b9050919050565b6200020681620001e8565b811462000211575f80fd5b50565b5f815190506200022481620001fb565b92915050565b5f8060408385031215620002435762000242620001c5565b5b5f620002528582860162000214565b9250506020620002658582860162000214565b9150509250929050565b6200027a81620001e8565b82525050565b5f602082019050620002955f8301846200026f565b92915050565b611c3780620002a95f395ff3fe608060405234801561000f575f80fd5b50600436106100a7575f3560e01c80639c2badef1161006f5780639c2badef1461013d578063a7a404a61461016d578063a9b295e314610189578063b98cb1a4146101b9578063c2e7b688146101e9578063f2fde38b14610205576100a7565b806311c2f8e6146100ab57806358581383146100c9578063715018a6146100f95780638da5cb5b146101035780639a82845c14610121575b5f80fd5b6100b3610221565b6040516100c09190610eb7565b60405180910390f35b6100e360048036038101906100de9190610f1c565b610246565b6040516100f09190610fd1565b60405180910390f35b610101610313565b005b61010b610326565b6040516101189190611000565b60405180910390f35b61013b60048036038101906101369190610f1c565b61034d565b005b61015760048036038101906101529190610f1c565b610398565b6040516101649190610fd1565b60405180910390f35b610187600480360381019061018291906112e7565b610433565b005b6101a3600480360381019061019e919061138b565b61081c565b6040516101b09190611000565b60405180910390f35b6101d360048036038101906101ce919061138b565b610862565b6040516101e09190611000565b60405180910390f35b61020360048036038101906101fe91906112e7565b6108aa565b005b61021f600480360381019061021a9190610f1c565b610c12565b005b60015f9054906101000a900473ffffffffffffffffffffffffffffffffffffffff1681565b606060035f8373ffffffffffffffffffffffffffffffffffffffff1673ffffffffffffffffffffffffffffffffffffffff1681526020019081526020015f208054610290906113ff565b80601f01602080910402602001604051908101604052809291908181526020018280546102bc906113ff565b80156103075780601f106102de57610100808354040283529160200191610307565b820191905f5260205f20905b8154815290600101906020018083116102ea57829003601f168201915b50505050509050919050565b61031b610c96565b6103245f610d1d565b565b5f805f9054906101000a900473ffffffffffffffffffffffffffffffffffffffff16905090565b610355610c96565b8060015f6101000a81548173ffffffffffffffffffffffffffffffffffffffff021916908373ffffffffffffffffffffffffffffffffffffffff16021790555050565b6003602052805f5260405f205f9150905080546103b4906113ff565b80601f01602080910402602001604051908101604052809291908181526020018280546103e0906113ff565b801561042b5780601f106104025761010080835404028352916020019161042b565b820191905f5260205f20905b81548152906001019060200180831161040e57829003601f168201915b505050505081565b61043b610c96565b8051835114801561044d575081518351145b61048c576040517f08c379a00000000000000000000000000000000000000000000000000000000081526004016104839061149f565b60405180910390fd5b5f5b83518110156107d9578281815181106104aa576104a96114bd565b5b60200260200101516040516020016104c29190611524565b6040516020818303038152906040528051906020012060015f9054906101000a900473ffffffffffffffffffffffffffffffffffffffff1673ffffffffffffffffffffffffffffffffffffffff1663a8f5d7a6868481518110610528576105276114bd565b5b60200260200101516040518263ffffffff1660e01b815260040161054c9190610fd1565b5f60405180830381865afa158015610566573d5f803e3d5ffd5b505050506040513d5f823e3d601f19601f8201168201806040525081019061058e91906115a8565b60405160200161059e9190611524565b60405160208183030381529060405280519060200120146105f4576040517f08c379a00000000000000000000000000000000000000000000000000000000081526004016105eb90611639565b60405180910390fd5b818181518110610607576106066114bd565b5b602002602001015173ffffffffffffffffffffffffffffffffffffffff16600285838151811061063a576106396114bd565b5b602002602001015160405161064f9190611524565b90815260200160405180910390205f9054906101000a900473ffffffffffffffffffffffffffffffffffffffff1673ffffffffffffffffffffffffffffffffffffffff16146106d3576040517f08c379a00000000000000000000000000000000000000000000000000000000081526004016106ca906116a1565b60405180910390fd5b60028482815181106106e8576106e76114bd565b5b60200260200101516040516106fd9190611524565b90815260200160405180910390205f6101000a81549073ffffffffffffffffffffffffffffffffffffffff021916905560035f6002868481518110610745576107446114bd565b5b602002602001015160405161075a9190611524565b90815260200160405180910390205f9054906101000a900473ffffffffffffffffffffffffffffffffffffffff1673ffffffffffffffffffffffffffffffffffffffff1673ffffffffffffffffffffffffffffffffffffffff1681526020019081526020015f205f6107cc9190610de5565b808060010191505061048e565b507fc34ccbed97ba0e83987b49db1d6ecbf95305505abc406fb675bda2d8158571f08383423360405161080f9493929190611824565b60405180910390a1505050565b5f60028260405161082d9190611524565b90815260200160405180910390205f9054906101000a900473ffffffffffffffffffffffffffffffffffffffff169050919050565b6002818051602081018201805184825260208301602085012081835280955050505050505f915054906101000a900473ffffffffffffffffffffffffffffffffffffffff1681565b6108b2610c96565b805183511480156108c4575081518351145b610903576040517f08c379a00000000000000000000000000000000000000000000000000000000081526004016108fa9061149f565b60405180910390fd5b5f5b8351811015610bcf575f60015f9054906101000a900473ffffffffffffffffffffffffffffffffffffffff1673ffffffffffffffffffffffffffffffffffffffff1663a8f5d7a686848151811061095f5761095e6114bd565b5b60200260200101516040518263ffffffff1660e01b81526004016109839190610fd1565b5f60405180830381865afa15801561099d573d5f803e3d5ffd5b505050506040513d5f823e3d601f19601f820116820180604052508101906109c591906115a8565b90505f815111610a0a576040517f08c379a0000000000000000000000000000000000000000000000000000000008152600401610a01906118d2565b60405180910390fd5b838281518110610a1d57610a1c6114bd565b5b6020026020010151604051602001610a359190611524565b6040516020818303038152906040528051906020012081604051602001610a5c9190611524565b6040516020818303038152906040528051906020012014610ab2576040517f08c379a0000000000000000000000000000000000000000000000000000000008152600401610aa990611639565b60405180910390fd5b828281518110610ac557610ac46114bd565b5b60200260200101516002868481518110610ae257610ae16114bd565b5b6020026020010151604051610af79190611524565b90815260200160405180910390205f6101000a81548173ffffffffffffffffffffffffffffffffffffffff021916908373ffffffffffffffffffffffffffffffffffffffff160217905550848281518110610b5557610b546114bd565b5b602002602001015160035f858581518110610b7357610b726114bd565b5b602002602001015173ffffffffffffffffffffffffffffffffffffffff1673ffffffffffffffffffffffffffffffffffffffff1681526020019081526020015f209081610bc09190611a84565b50508080600101915050610905565b507fc34ccbed97ba0e83987b49db1d6ecbf95305505abc406fb675bda2d8158571f083834233604051610c059493929190611b9d565b60405180910390a1505050565b610c1a610c96565b5f73ffffffffffffffffffffffffffffffffffffffff168173ffffffffffffffffffffffffffffffffffffffff1603610c8a575f6040517f1e4fbdf7000000000000000000000000000000000000000000000000000000008152600401610c819190611000565b60405180910390fd5b610c9381610d1d565b50565b610c9e610dde565b73ffffffffffffffffffffffffffffffffffffffff16610cbc610326565b73ffffffffffffffffffffffffffffffffffffffff1614610d1b57610cdf610dde565b6040517f118cdaa7000000000000000000000000000000000000000000000000000000008152600401610d129190611000565b60405180910390fd5b565b5f805f9054906101000a900473ffffffffffffffffffffffffffffffffffffffff169050815f806101000a81548173ffffffffffffffffffffffffffffffffffffffff021916908373ffffffffffffffffffffffffffffffffffffffff1602179055508173ffffffffffffffffffffffffffffffffffffffff168173ffffffffffffffffffffffffffffffffffffffff167f8be0079c531659141344cd1fd0a4f28419497f9722a3daafe3b4186f6b6457e060405160405180910390a35050565b5f33905090565b508054610df1906113ff565b5f825580601f10610e025750610e1f565b601f0160209004905f5260205f2090810190610e1e9190610e22565b5b50565b5b80821115610e39575f815f905550600101610e23565b5090565b5f73ffffffffffffffffffffffffffffffffffffffff82169050919050565b5f819050919050565b5f610e7f610e7a610e7584610e3d565b610e5c565b610e3d565b9050919050565b5f610e9082610e65565b9050919050565b5f610ea182610e86565b9050919050565b610eb181610e97565b82525050565b5f602082019050610eca5f830184610ea8565b92915050565b5f604051905090565b5f80fd5b5f80fd5b5f610eeb82610e3d565b9050919050565b610efb81610ee1565b8114610f05575f80fd5b50565b5f81359050610f1681610ef2565b92915050565b5f60208284031215610f3157610f30610ed9565b5b5f610f3e84828501610f08565b91505092915050565b5f81519050919050565b5f82825260208201905092915050565b5f5b83811015610f7e578082015181840152602081019050610f63565b5f8484015250505050565b5f601f19601f8301169050919050565b5f610fa382610f47565b610fad8185610f51565b9350610fbd818560208601610f61565b610fc681610f89565b840191505092915050565b5f6020820190508181035f830152610fe98184610f99565b905092915050565b610ffa81610ee1565b82525050565b5f6020820190506110135f830184610ff1565b92915050565b5f80fd5b7f4e487b71000000000000000000000000000000000000000000000000000000005f52604160045260245ffd5b61105382610f89565b810181811067ffffffffffffffff821117156110725761107161101d565b5b80604052505050565b5f611084610ed0565b9050611090828261104a565b919050565b5f67ffffffffffffffff8211156110af576110ae61101d565b5b602082029050602081019050919050565b5f80fd5b5f80fd5b5f67ffffffffffffffff8211156110e2576110e161101d565b5b6110eb82610f89565b9050602081019050919050565b828183375f83830152505050565b5f611118611113846110c8565b61107b565b905082815260208101848484011115611134576111336110c4565b5b61113f8482856110f8565b509392505050565b5f82601f83011261115b5761115a611019565b5b813561116b848260208601611106565b91505092915050565b5f61118661118184611095565b61107b565b905080838252602082019050602084028301858111156111a9576111a86110c0565b5b835b818110156111f057803567ffffffffffffffff8111156111ce576111cd611019565b5b8086016111db8982611147565b855260208501945050506020810190506111ab565b5050509392505050565b5f82601f83011261120e5761120d611019565b5b813561121e848260208601611174565b91505092915050565b5f67ffffffffffffffff8211156112415761124061101d565b5b602082029050602081019050919050565b5f61126461125f84611227565b61107b565b90508083825260208201905060208402830185811115611287576112866110c0565b5b835b818110156112b0578061129c8882610f08565b845260208401935050602081019050611289565b5050509392505050565b5f82601f8301126112ce576112cd611019565b5b81356112de848260208601611252565b91505092915050565b5f805f606084860312156112fe576112fd610ed9565b5b5f84013567ffffffffffffffff81111561131b5761131a610edd565b5b611327868287016111fa565b935050602084013567ffffffffffffffff81111561134857611347610edd565b5b611354868287016111fa565b925050604084013567ffffffffffffffff81111561137557611374610edd565b5b611381868287016112ba565b9150509250925092565b5f602082840312156113a05761139f610ed9565b5b5f82013567ffffffffffffffff8111156113bd576113bc610edd565b5b6113c984828501611147565b91505092915050565b7f4e487b71000000000000000000000000000000000000000000000000000000005f52602260045260245ffd5b5f600282049050600182168061141657607f821691505b602082108103611429576114286113d2565b5b50919050565b7f416c6c20696e70757473206d7573742068617665207468652073616d65206c655f8201527f6e67746800000000000000000000000000000000000000000000000000000000602082015250565b5f611489602483610f51565b91506114948261142f565b604082019050919050565b5f6020820190508181035f8301526114b68161147d565b9050919050565b7f4e487b71000000000000000000000000000000000000000000000000000000005f52603260045260245ffd5b5f81905092915050565b5f6114fe82610f47565b61150881856114ea565b9350611518818560208601610f61565b80840191505092915050565b5f61152f82846114f4565b915081905092915050565b5f61154c611547846110c8565b61107b565b905082815260208101848484011115611568576115676110c4565b5b611573848285610f61565b509392505050565b5f82601f83011261158f5761158e611019565b5b815161159f84826020860161153a565b91505092915050565b5f602082840312156115bd576115bc610ed9565b5b5f82015167ffffffffffffffff8111156115da576115d9610edd565b5b6115e68482850161157b565b91505092915050565b7f4e616d6520646f6573206e6f74206d61746368000000000000000000000000005f82015250565b5f611623601383610f51565b915061162e826115ef565b602082019050919050565b5f6020820190508181035f83015261165081611617565b9050919050565b7f57686974656c69737420646f6573206e6f7420657869737400000000000000005f82015250565b5f61168b601883610f51565b915061169682611657565b602082019050919050565b5f6020820190508181035f8301526116b88161167f565b9050919050565b5f81519050919050565b5f82825260208201905092915050565b5f819050602082019050919050565b5f82825260208201905092915050565b5f61170282610f47565b61170c81856116e8565b935061171c818560208601610f61565b61172581610f89565b840191505092915050565b5f61173b83836116f8565b905092915050565b5f602082019050919050565b5f611759826116bf565b61176381856116c9565b935083602082028501611775856116d9565b805f5b858110156117b057848403895281516117918582611730565b945061179c83611743565b925060208a01995050600181019050611778565b50829750879550505050505092915050565b5f819050919050565b6117d4816117c2565b82525050565b7f57686974656c6973742072656d6f76656420666f722055454e000000000000005f82015250565b5f61180e601983610f51565b9150611819826117da565b602082019050919050565b5f60a0820190508181035f83015261183c818761174f565b90508181036020830152611850818661174f565b905061185f60408301856117cb565b61186c6060830184610ff1565b818103608083015261187d81611802565b905095945050505050565b7f55454e20646f6573206e6f7420657869737400000000000000000000000000005f82015250565b5f6118bc601283610f51565b91506118c782611888565b602082019050919050565b5f6020820190508181035f8301526118e9816118b0565b9050919050565b5f819050815f5260205f209050919050565b5f6020601f8301049050919050565b5f82821b905092915050565b5f6008830261194c7fffffffffffffffffffffffffffffffffffffffffffffffffffffffffffffffff82611911565b6119568683611911565b95508019841693508086168417925050509392505050565b5f61198861198361197e846117c2565b610e5c565b6117c2565b9050919050565b5f819050919050565b6119a18361196e565b6119b56119ad8261198f565b84845461191d565b825550505050565b5f90565b6119c96119bd565b6119d4818484611998565b505050565b5b818110156119f7576119ec5f826119c1565b6001810190506119da565b5050565b601f821115611a3c57611a0d816118f0565b611a1684611902565b81016020851015611a25578190505b611a39611a3185611902565b8301826119d9565b50505b505050565b5f82821c905092915050565b5f611a5c5f1984600802611a41565b1980831691505092915050565b5f611a748383611a4d565b9150826002028217905092915050565b611a8d82610f47565b67ffffffffffffffff811115611aa657611aa561101d565b5b611ab082546113ff565b611abb8282856119fb565b5f60209050601f831160018114611aec575f8415611ada578287015190505b611ae48582611a69565b865550611b4b565b601f198416611afa866118f0565b5f5b82811015611b2157848901518255600182019150602085019450602081019050611afc565b86831015611b3e5784890151611b3a601f891682611a4d565b8355505b6001600288020188555050505b505050505050565b7f57686974656c69737420616464656420666f722055454e0000000000000000005f82015250565b5f611b87601783610f51565b9150611b9282611b53565b602082019050919050565b5f60a0820190508181035f830152611bb5818761174f565b90508181036020830152611bc9818661174f565b9050611bd860408301856117cb565b611be56060830184610ff1565b8181036080830152611bf681611b7b565b90509594505050505056fea2646970667358221220b6bda88aa190d6ea001c93edf98cc37958026dde59d8fd6ea4c01434eac5392264736f6c63430008160033",
					"opcodes": "PUSH1 0x80 PUSH1 0x40 MSTORE CALLVALUE DUP1 ISZERO PUSH3 0x10 JUMPI PUSH0 DUP1 REVERT JUMPDEST POP PUSH1 0x40 MLOAD PUSH3 0x1EE0 CODESIZE SUB DUP1 PUSH3 0x1EE0 DUP4 CODECOPY DUP2 DUP2 ADD PUSH1 0x40 MSTORE DUP2 ADD SWAP1 PUSH3 0x36 SWAP2 SWAP1 PUSH3 0x22A JUMP JUMPDEST DUP1 PUSH0 PUSH20 0xFFFFFFFFFFFFFFFFFFFFFFFFFFFFFFFFFFFFFFFF AND DUP2 PUSH20 0xFFFFFFFFFFFFFFFFFFFFFFFFFFFFFFFFFFFFFFFF AND SUB PUSH3 0xAA JUMPI PUSH0 PUSH1 0x40 MLOAD PUSH32 0x1E4FBDF700000000000000000000000000000000000000000000000000000000 DUP2 MSTORE PUSH1 0x4 ADD PUSH3 0xA1 SWAP2 SWAP1 PUSH3 0x280 JUMP JUMPDEST PUSH1 0x40 MLOAD DUP1 SWAP2 SUB SWAP1 REVERT JUMPDEST PUSH3 0xBB DUP2 PUSH3 0x104 PUSH1 0x20 SHL PUSH1 0x20 SHR JUMP JUMPDEST POP DUP2 PUSH1 0x1 PUSH0 PUSH2 0x100 EXP DUP2 SLOAD DUP2 PUSH20 0xFFFFFFFFFFFFFFFFFFFFFFFFFFFFFFFFFFFFFFFF MUL NOT AND SWAP1 DUP4 PUSH20 0xFFFFFFFFFFFFFFFFFFFFFFFFFFFFFFFFFFFFFFFF AND MUL OR SWAP1 SSTORE POP POP POP PUSH3 0x29B JUMP JUMPDEST PUSH0 DUP1 PUSH0 SWAP1 SLOAD SWAP1 PUSH2 0x100 EXP SWAP1 DIV PUSH20 0xFFFFFFFFFFFFFFFFFFFFFFFFFFFFFFFFFFFFFFFF AND SWAP1 POP DUP2 PUSH0 DUP1 PUSH2 0x100 EXP DUP2 SLOAD DUP2 PUSH20 0xFFFFFFFFFFFFFFFFFFFFFFFFFFFFFFFFFFFFFFFF MUL NOT AND SWAP1 DUP4 PUSH20 0xFFFFFFFFFFFFFFFFFFFFFFFFFFFFFFFFFFFFFFFF AND MUL OR SWAP1 SSTORE POP DUP2 PUSH20 0xFFFFFFFFFFFFFFFFFFFFFFFFFFFFFFFFFFFFFFFF AND DUP2 PUSH20 0xFFFFFFFFFFFFFFFFFFFFFFFFFFFFFFFFFFFFFFFF AND PUSH32 0x8BE0079C531659141344CD1FD0A4F28419497F9722A3DAAFE3B4186F6B6457E0 PUSH1 0x40 MLOAD PUSH1 0x40 MLOAD DUP1 SWAP2 SUB SWAP1 LOG3 POP POP JUMP JUMPDEST PUSH0 DUP1 REVERT JUMPDEST PUSH0 PUSH20 0xFFFFFFFFFFFFFFFFFFFFFFFFFFFFFFFFFFFFFFFF DUP3 AND SWAP1 POP SWAP2 SWAP1 POP JUMP JUMPDEST PUSH0 PUSH3 0x1F4 DUP3 PUSH3 0x1C9 JUMP JUMPDEST SWAP1 POP SWAP2 SWAP1 POP JUMP JUMPDEST PUSH3 0x206 DUP2 PUSH3 0x1E8 JUMP JUMPDEST DUP2 EQ PUSH3 0x211 JUMPI PUSH0 DUP1 REVERT JUMPDEST POP JUMP JUMPDEST PUSH0 DUP2 MLOAD SWAP1 POP PUSH3 0x224 DUP2 PUSH3 0x1FB JUMP JUMPDEST SWAP3 SWAP2 POP POP JUMP JUMPDEST PUSH0 DUP1 PUSH1 0x40 DUP4 DUP6 SUB SLT ISZERO PUSH3 0x243 JUMPI PUSH3 0x242 PUSH3 0x1C5 JUMP JUMPDEST JUMPDEST PUSH0 PUSH3 0x252 DUP6 DUP3 DUP7 ADD PUSH3 0x214 JUMP JUMPDEST SWAP3 POP POP PUSH1 0x20 PUSH3 0x265 DUP6 DUP3 DUP7 ADD PUSH3 0x214 JUMP JUMPDEST SWAP2 POP POP SWAP3 POP SWAP3 SWAP1 POP JUMP JUMPDEST PUSH3 0x27A DUP2 PUSH3 0x1E8 JUMP JUMPDEST DUP3 MSTORE POP POP JUMP JUMPDEST PUSH0 PUSH1 0x20 DUP3 ADD SWAP1 POP PUSH3 0x295 PUSH0 DUP4 ADD DUP5 PUSH3 0x26F JUMP JUMPDEST SWAP3 SWAP2 POP POP JUMP JUMPDEST PUSH2 0x1C37 DUP1 PUSH3 0x2A9 PUSH0 CODECOPY PUSH0 RETURN INVALID PUSH1 0x80 PUSH1 0x40 MSTORE CALLVALUE DUP1 ISZERO PUSH2 0xF JUMPI PUSH0 DUP1 REVERT JUMPDEST POP PUSH1 0x4 CALLDATASIZE LT PUSH2 0xA7 JUMPI PUSH0 CALLDATALOAD PUSH1 0xE0 SHR DUP1 PUSH4 0x9C2BADEF GT PUSH2 0x6F JUMPI DUP1 PUSH4 0x9C2BADEF EQ PUSH2 0x13D JUMPI DUP1 PUSH4 0xA7A404A6 EQ PUSH2 0x16D JUMPI DUP1 PUSH4 0xA9B295E3 EQ PUSH2 0x189 JUMPI DUP1 PUSH4 0xB98CB1A4 EQ PUSH2 0x1B9 JUMPI DUP1 PUSH4 0xC2E7B688 EQ PUSH2 0x1E9 JUMPI DUP1 PUSH4 0xF2FDE38B EQ PUSH2 0x205 JUMPI PUSH2 0xA7 JUMP JUMPDEST DUP1 PUSH4 0x11C2F8E6 EQ PUSH2 0xAB JUMPI DUP1 PUSH4 0x58581383 EQ PUSH2 0xC9 JUMPI DUP1 PUSH4 0x715018A6 EQ PUSH2 0xF9 JUMPI DUP1 PUSH4 0x8DA5CB5B EQ PUSH2 0x103 JUMPI DUP1 PUSH4 0x9A82845C EQ PUSH2 0x121 JUMPI JUMPDEST PUSH0 DUP1 REVERT JUMPDEST PUSH2 0xB3 PUSH2 0x221 JUMP JUMPDEST PUSH1 0x40 MLOAD PUSH2 0xC0 SWAP2 SWAP1 PUSH2 0xEB7 JUMP JUMPDEST PUSH1 0x40 MLOAD DUP1 SWAP2 SUB SWAP1 RETURN JUMPDEST PUSH2 0xE3 PUSH1 0x4 DUP1 CALLDATASIZE SUB DUP2 ADD SWAP1 PUSH2 0xDE SWAP2 SWAP1 PUSH2 0xF1C JUMP JUMPDEST PUSH2 0x246 JUMP JUMPDEST PUSH1 0x40 MLOAD PUSH2 0xF0 SWAP2 SWAP1 PUSH2 0xFD1 JUMP JUMPDEST PUSH1 0x40 MLOAD DUP1 SWAP2 SUB SWAP1 RETURN JUMPDEST PUSH2 0x101 PUSH2 0x313 JUMP JUMPDEST STOP JUMPDEST PUSH2 0x10B PUSH2 0x326 JUMP JUMPDEST PUSH1 0x40 MLOAD PUSH2 0x118 SWAP2 SWAP1 PUSH2 0x1000 JUMP JUMPDEST PUSH1 0x40 MLOAD DUP1 SWAP2 SUB SWAP1 RETURN JUMPDEST PUSH2 0x13B PUSH1 0x4 DUP1 CALLDATASIZE SUB DUP2 ADD SWAP1 PUSH2 0x136 SWAP2 SWAP1 PUSH2 0xF1C JUMP JUMPDEST PUSH2 0x34D JUMP JUMPDEST STOP JUMPDEST PUSH2 0x157 PUSH1 0x4 DUP1 CALLDATASIZE SUB DUP2 ADD SWAP1 PUSH2 0x152 SWAP2 SWAP1 PUSH2 0xF1C JUMP JUMPDEST PUSH2 0x398 JUMP JUMPDEST PUSH1 0x40 MLOAD PUSH2 0x164 SWAP2 SWAP1 PUSH2 0xFD1 JUMP JUMPDEST PUSH1 0x40 MLOAD DUP1 SWAP2 SUB SWAP1 RETURN JUMPDEST PUSH2 0x187 PUSH1 0x4 DUP1 CALLDATASIZE SUB DUP2 ADD SWAP1 PUSH2 0x182 SWAP2 SWAP1 PUSH2 0x12E7 JUMP JUMPDEST PUSH2 0x433 JUMP JUMPDEST STOP JUMPDEST PUSH2 0x1A3 PUSH1 0x4 DUP1 CALLDATASIZE SUB DUP2 ADD SWAP1 PUSH2 0x19E SWAP2 SWAP1 PUSH2 0x138B JUMP JUMPDEST PUSH2 0x81C JUMP JUMPDEST PUSH1 0x40 MLOAD PUSH2 0x1B0 SWAP2 SWAP1 PUSH2 0x1000 JUMP JUMPDEST PUSH1 0x40 MLOAD DUP1 SWAP2 SUB SWAP1 RETURN JUMPDEST PUSH2 0x1D3 PUSH1 0x4 DUP1 CALLDATASIZE SUB DUP2 ADD SWAP1 PUSH2 0x1CE SWAP2 SWAP1 PUSH2 0x138B JUMP JUMPDEST PUSH2 0x862 JUMP JUMPDEST PUSH1 0x40 MLOAD PUSH2 0x1E0 SWAP2 SWAP1 PUSH2 0x1000 JUMP JUMPDEST PUSH1 0x40 MLOAD DUP1 SWAP2 SUB SWAP1 RETURN JUMPDEST PUSH2 0x203 PUSH1 0x4 DUP1 CALLDATASIZE SUB DUP2 ADD SWAP1 PUSH2 0x1FE SWAP2 SWAP1 PUSH2 0x12E7 JUMP JUMPDEST PUSH2 0x8AA JUMP JUMPDEST STOP JUMPDEST PUSH2 0x21F PUSH1 0x4 DUP1 CALLDATASIZE SUB DUP2 ADD SWAP1 PUSH2 0x21A SWAP2 SWAP1 PUSH2 0xF1C JUMP JUMPDEST PUSH2 0xC12 JUMP JUMPDEST STOP JUMPDEST PUSH1 0x1 PUSH0 SWAP1 SLOAD SWAP1 PUSH2 0x100 EXP SWAP1 DIV PUSH20 0xFFFFFFFFFFFFFFFFFFFFFFFFFFFFFFFFFFFFFFFF AND DUP2 JUMP JUMPDEST PUSH1 0x60 PUSH1 0x3 PUSH0 DUP4 PUSH20 0xFFFFFFFFFFFFFFFFFFFFFFFFFFFFFFFFFFFFFFFF AND PUSH20 0xFFFFFFFFFFFFFFFFFFFFFFFFFFFFFFFFFFFFFFFF AND DUP2 MSTORE PUSH1 0x20 ADD SWAP1 DUP2 MSTORE PUSH1 0x20 ADD PUSH0 KECCAK256 DUP1 SLOAD PUSH2 0x290 SWAP1 PUSH2 0x13FF JUMP JUMPDEST DUP1 PUSH1 0x1F ADD PUSH1 0x20 DUP1 SWAP2 DIV MUL PUSH1 0x20 ADD PUSH1 0x40 MLOAD SWAP1 DUP2 ADD PUSH1 0x40 MSTORE DUP1 SWAP3 SWAP2 SWAP1 DUP2 DUP2 MSTORE PUSH1 0x20 ADD DUP3 DUP1 SLOAD PUSH2 0x2BC SWAP1 PUSH2 0x13FF JUMP JUMPDEST DUP1 ISZERO PUSH2 0x307 JUMPI DUP1 PUSH1 0x1F LT PUSH2 0x2DE JUMPI PUSH2 0x100 DUP1 DUP4 SLOAD DIV MUL DUP4 MSTORE SWAP2 PUSH1 0x20 ADD SWAP2 PUSH2 0x307 JUMP JUMPDEST DUP3 ADD SWAP2 SWAP1 PUSH0 MSTORE PUSH1 0x20 PUSH0 KECCAK256 SWAP1 JUMPDEST DUP2 SLOAD DUP2 MSTORE SWAP1 PUSH1 0x1 ADD SWAP1 PUSH1 0x20 ADD DUP1 DUP4 GT PUSH2 0x2EA JUMPI DUP3 SWAP1 SUB PUSH1 0x1F AND DUP3 ADD SWAP2 JUMPDEST POP POP POP POP POP SWAP1 POP SWAP2 SWAP1 POP JUMP JUMPDEST PUSH2 0x31B PUSH2 0xC96 JUMP JUMPDEST PUSH2 0x324 PUSH0 PUSH2 0xD1D JUMP JUMPDEST JUMP JUMPDEST PUSH0 DUP1 PUSH0 SWAP1 SLOAD SWAP1 PUSH2 0x100 EXP SWAP1 DIV PUSH20 0xFFFFFFFFFFFFFFFFFFFFFFFFFFFFFFFFFFFFFFFF AND SWAP1 POP SWAP1 JUMP JUMPDEST PUSH2 0x355 PUSH2 0xC96 JUMP JUMPDEST DUP1 PUSH1 0x1 PUSH0 PUSH2 0x100 EXP DUP2 SLOAD DUP2 PUSH20 0xFFFFFFFFFFFFFFFFFFFFFFFFFFFFFFFFFFFFFFFF MUL NOT AND SWAP1 DUP4 PUSH20 0xFFFFFFFFFFFFFFFFFFFFFFFFFFFFFFFFFFFFFFFF AND MUL OR SWAP1 SSTORE POP POP JUMP JUMPDEST PUSH1 0x3 PUSH1 0x20 MSTORE DUP1 PUSH0 MSTORE PUSH1 0x40 PUSH0 KECCAK256 PUSH0 SWAP2 POP SWAP1 POP DUP1 SLOAD PUSH2 0x3B4 SWAP1 PUSH2 0x13FF JUMP JUMPDEST DUP1 PUSH1 0x1F ADD PUSH1 0x20 DUP1 SWAP2 DIV MUL PUSH1 0x20 ADD PUSH1 0x40 MLOAD SWAP1 DUP2 ADD PUSH1 0x40 MSTORE DUP1 SWAP3 SWAP2 SWAP1 DUP2 DUP2 MSTORE PUSH1 0x20 ADD DUP3 DUP1 SLOAD PUSH2 0x3E0 SWAP1 PUSH2 0x13FF JUMP JUMPDEST DUP1 ISZERO PUSH2 0x42B JUMPI DUP1 PUSH1 0x1F LT PUSH2 0x402 JUMPI PUSH2 0x100 DUP1 DUP4 SLOAD DIV MUL DUP4 MSTORE SWAP2 PUSH1 0x20 ADD SWAP2 PUSH2 0x42B JUMP JUMPDEST DUP3 ADD SWAP2 SWAP1 PUSH0 MSTORE PUSH1 0x20 PUSH0 KECCAK256 SWAP1 JUMPDEST DUP2 SLOAD DUP2 MSTORE SWAP1 PUSH1 0x1 ADD SWAP1 PUSH1 0x20 ADD DUP1 DUP4 GT PUSH2 0x40E JUMPI DUP3 SWAP1 SUB PUSH1 0x1F AND DUP3 ADD SWAP2 JUMPDEST POP POP POP POP POP DUP2 JUMP JUMPDEST PUSH2 0x43B PUSH2 0xC96 JUMP JUMPDEST DUP1 MLOAD DUP4 MLOAD EQ DUP1 ISZERO PUSH2 0x44D JUMPI POP DUP2 MLOAD DUP4 MLOAD EQ JUMPDEST PUSH2 0x48C JUMPI PUSH1 0x40 MLOAD PUSH32 0x8C379A000000000000000000000000000000000000000000000000000000000 DUP2 MSTORE PUSH1 0x4 ADD PUSH2 0x483 SWAP1 PUSH2 0x149F JUMP JUMPDEST PUSH1 0x40 MLOAD DUP1 SWAP2 SUB SWAP1 REVERT JUMPDEST PUSH0 JUMPDEST DUP4 MLOAD DUP2 LT ISZERO PUSH2 0x7D9 JUMPI DUP3 DUP2 DUP2 MLOAD DUP2 LT PUSH2 0x4AA JUMPI PUSH2 0x4A9 PUSH2 0x14BD JUMP JUMPDEST JUMPDEST PUSH1 0x20 MUL PUSH1 0x20 ADD ADD MLOAD PUSH1 0x40 MLOAD PUSH1 0x20 ADD PUSH2 0x4C2 SWAP2 SWAP1 PUSH2 0x1524 JUMP JUMPDEST PUSH1 0x40 MLOAD PUSH1 0x20 DUP2 DUP4 SUB SUB DUP2 MSTORE SWAP1 PUSH1 0x40 MSTORE DUP1 MLOAD SWAP1 PUSH1 0x20 ADD KECCAK256 PUSH1 0x1 PUSH0 SWAP1 SLOAD SWAP1 PUSH2 0x100 EXP SWAP1 DIV PUSH20 0xFFFFFFFFFFFFFFFFFFFFFFFFFFFFFFFFFFFFFFFF AND PUSH20 0xFFFFFFFFFFFFFFFFFFFFFFFFFFFFFFFFFFFFFFFF AND PUSH4 0xA8F5D7A6 DUP7 DUP5 DUP2 MLOAD DUP2 LT PUSH2 0x528 JUMPI PUSH2 0x527 PUSH2 0x14BD JUMP JUMPDEST JUMPDEST PUSH1 0x20 MUL PUSH1 0x20 ADD ADD MLOAD PUSH1 0x40 MLOAD DUP3 PUSH4 0xFFFFFFFF AND PUSH1 0xE0 SHL DUP2 MSTORE PUSH1 0x4 ADD PUSH2 0x54C SWAP2 SWAP1 PUSH2 0xFD1 JUMP JUMPDEST PUSH0 PUSH1 0x40 MLOAD DUP1 DUP4 SUB DUP2 DUP7 GAS STATICCALL ISZERO DUP1 ISZERO PUSH2 0x566 JUMPI RETURNDATASIZE PUSH0 DUP1 RETURNDATACOPY RETURNDATASIZE PUSH0 REVERT JUMPDEST POP POP POP POP PUSH1 0x40 MLOAD RETURNDATASIZE PUSH0 DUP3 RETURNDATACOPY RETURNDATASIZE PUSH1 0x1F NOT PUSH1 0x1F DUP3 ADD AND DUP3 ADD DUP1 PUSH1 0x40 MSTORE POP DUP2 ADD SWAP1 PUSH2 0x58E SWAP2 SWAP1 PUSH2 0x15A8 JUMP JUMPDEST PUSH1 0x40 MLOAD PUSH1 0x20 ADD PUSH2 0x59E SWAP2 SWAP1 PUSH2 0x1524 JUMP JUMPDEST PUSH1 0x40 MLOAD PUSH1 0x20 DUP2 DUP4 SUB SUB DUP2 MSTORE SWAP1 PUSH1 0x40 MSTORE DUP1 MLOAD SWAP1 PUSH1 0x20 ADD KECCAK256 EQ PUSH2 0x5F4 JUMPI PUSH1 0x40 MLOAD PUSH32 0x8C379A000000000000000000000000000000000000000000000000000000000 DUP2 MSTORE PUSH1 0x4 ADD PUSH2 0x5EB SWAP1 PUSH2 0x1639 JUMP JUMPDEST PUSH1 0x40 MLOAD DUP1 SWAP2 SUB SWAP1 REVERT JUMPDEST DUP2 DUP2 DUP2 MLOAD DUP2 LT PUSH2 0x607 JUMPI PUSH2 0x606 PUSH2 0x14BD JUMP JUMPDEST JUMPDEST PUSH1 0x20 MUL PUSH1 0x20 ADD ADD MLOAD PUSH20 0xFFFFFFFFFFFFFFFFFFFFFFFFFFFFFFFFFFFFFFFF AND PUSH1 0x2 DUP6 DUP4 DUP2 MLOAD DUP2 LT PUSH2 0x63A JUMPI PUSH2 0x639 PUSH2 0x14BD JUMP JUMPDEST JUMPDEST PUSH1 0x20 MUL PUSH1 0x20 ADD ADD MLOAD PUSH1 0x40 MLOAD PUSH2 0x64F SWAP2 SWAP1 PUSH2 0x1524 JUMP JUMPDEST SWAP1 DUP2 MSTORE PUSH1 0x20 ADD PUSH1 0x40 MLOAD DUP1 SWAP2 SUB SWAP1 KECCAK256 PUSH0 SWAP1 SLOAD SWAP1 PUSH2 0x100 EXP SWAP1 DIV PUSH20 0xFFFFFFFFFFFFFFFFFFFFFFFFFFFFFFFFFFFFFFFF AND PUSH20 0xFFFFFFFFFFFFFFFFFFFFFFFFFFFFFFFFFFFFFFFF AND EQ PUSH2 0x6D3 JUMPI PUSH1 0x40 MLOAD PUSH32 0x8C379A000000000000000000000000000000000000000000000000000000000 DUP2 MSTORE PUSH1 0x4 ADD PUSH2 0x6CA SWAP1 PUSH2 0x16A1 JUMP JUMPDEST PUSH1 0x40 MLOAD DUP1 SWAP2 SUB SWAP1 REVERT JUMPDEST PUSH1 0x2 DUP5 DUP3 DUP2 MLOAD DUP2 LT PUSH2 0x6E8 JUMPI PUSH2 0x6E7 PUSH2 0x14BD JUMP JUMPDEST JUMPDEST PUSH1 0x20 MUL PUSH1 0x20 ADD ADD MLOAD PUSH1 0x40 MLOAD PUSH2 0x6FD SWAP2 SWAP1 PUSH2 0x1524 JUMP JUMPDEST SWAP1 DUP2 MSTORE PUSH1 0x20 ADD PUSH1 0x40 MLOAD DUP1 SWAP2 SUB SWAP1 KECCAK256 PUSH0 PUSH2 0x100 EXP DUP2 SLOAD SWAP1 PUSH20 0xFFFFFFFFFFFFFFFFFFFFFFFFFFFFFFFFFFFFFFFF MUL NOT AND SWAP1 SSTORE PUSH1 0x3 PUSH0 PUSH1 0x2 DUP7 DUP5 DUP2 MLOAD DUP2 LT PUSH2 0x745 JUMPI PUSH2 0x744 PUSH2 0x14BD JUMP JUMPDEST JUMPDEST PUSH1 0x20 MUL PUSH1 0x20 ADD ADD MLOAD PUSH1 0x40 MLOAD PUSH2 0x75A SWAP2 SWAP1 PUSH2 0x1524 JUMP JUMPDEST SWAP1 DUP2 MSTORE PUSH1 0x20 ADD PUSH1 0x40 MLOAD DUP1 SWAP2 SUB SWAP1 KECCAK256 PUSH0 SWAP1 SLOAD SWAP1 PUSH2 0x100 EXP SWAP1 DIV PUSH20 0xFFFFFFFFFFFFFFFFFFFFFFFFFFFFFFFFFFFFFFFF AND PUSH20 0xFFFFFFFFFFFFFFFFFFFFFFFFFFFFFFFFFFFFFFFF AND PUSH20 0xFFFFFFFFFFFFFFFFFFFFFFFFFFFFFFFFFFFFFFFF AND DUP2 MSTORE PUSH1 0x20 ADD SWAP1 DUP2 MSTORE PUSH1 0x20 ADD PUSH0 KECCAK256 PUSH0 PUSH2 0x7CC SWAP2 SWAP1 PUSH2 0xDE5 JUMP JUMPDEST DUP1 DUP1 PUSH1 0x1 ADD SWAP2 POP POP PUSH2 0x48E JUMP JUMPDEST POP PUSH32 0xC34CCBED97BA0E83987B49DB1D6ECBF95305505ABC406FB675BDA2D8158571F0 DUP4 DUP4 TIMESTAMP CALLER PUSH1 0x40 MLOAD PUSH2 0x80F SWAP5 SWAP4 SWAP3 SWAP2 SWAP1 PUSH2 0x1824 JUMP JUMPDEST PUSH1 0x40 MLOAD DUP1 SWAP2 SUB SWAP1 LOG1 POP POP POP JUMP JUMPDEST PUSH0 PUSH1 0x2 DUP3 PUSH1 0x40 MLOAD PUSH2 0x82D SWAP2 SWAP1 PUSH2 0x1524 JUMP JUMPDEST SWAP1 DUP2 MSTORE PUSH1 0x20 ADD PUSH1 0x40 MLOAD DUP1 SWAP2 SUB SWAP1 KECCAK256 PUSH0 SWAP1 SLOAD SWAP1 PUSH2 0x100 EXP SWAP1 DIV PUSH20 0xFFFFFFFFFFFFFFFFFFFFFFFFFFFFFFFFFFFFFFFF AND SWAP1 POP SWAP2 SWAP1 POP JUMP JUMPDEST PUSH1 0x2 DUP2 DUP1 MLOAD PUSH1 0x20 DUP2 ADD DUP3 ADD DUP1 MLOAD DUP5 DUP3 MSTORE PUSH1 0x20 DUP4 ADD PUSH1 0x20 DUP6 ADD KECCAK256 DUP2 DUP4 MSTORE DUP1 SWAP6 POP POP POP POP POP POP PUSH0 SWAP2 POP SLOAD SWAP1 PUSH2 0x100 EXP SWAP1 DIV PUSH20 0xFFFFFFFFFFFFFFFFFFFFFFFFFFFFFFFFFFFFFFFF AND DUP2 JUMP JUMPDEST PUSH2 0x8B2 PUSH2 0xC96 JUMP JUMPDEST DUP1 MLOAD DUP4 MLOAD EQ DUP1 ISZERO PUSH2 0x8C4 JUMPI POP DUP2 MLOAD DUP4 MLOAD EQ JUMPDEST PUSH2 0x903 JUMPI PUSH1 0x40 MLOAD PUSH32 0x8C379A000000000000000000000000000000000000000000000000000000000 DUP2 MSTORE PUSH1 0x4 ADD PUSH2 0x8FA SWAP1 PUSH2 0x149F JUMP JUMPDEST PUSH1 0x40 MLOAD DUP1 SWAP2 SUB SWAP1 REVERT JUMPDEST PUSH0 JUMPDEST DUP4 MLOAD DUP2 LT ISZERO PUSH2 0xBCF JUMPI PUSH0 PUSH1 0x1 PUSH0 SWAP1 SLOAD SWAP1 PUSH2 0x100 EXP SWAP1 DIV PUSH20 0xFFFFFFFFFFFFFFFFFFFFFFFFFFFFFFFFFFFFFFFF AND PUSH20 0xFFFFFFFFFFFFFFFFFFFFFFFFFFFFFFFFFFFFFFFF AND PUSH4 0xA8F5D7A6 DUP7 DUP5 DUP2 MLOAD DUP2 LT PUSH2 0x95F JUMPI PUSH2 0x95E PUSH2 0x14BD JUMP JUMPDEST JUMPDEST PUSH1 0x20 MUL PUSH1 0x20 ADD ADD MLOAD PUSH1 0x40 MLOAD DUP3 PUSH4 0xFFFFFFFF AND PUSH1 0xE0 SHL DUP2 MSTORE PUSH1 0x4 ADD PUSH2 0x983 SWAP2 SWAP1 PUSH2 0xFD1 JUMP JUMPDEST PUSH0 PUSH1 0x40 MLOAD DUP1 DUP4 SUB DUP2 DUP7 GAS STATICCALL ISZERO DUP1 ISZERO PUSH2 0x99D JUMPI RETURNDATASIZE PUSH0 DUP1 RETURNDATACOPY RETURNDATASIZE PUSH0 REVERT JUMPDEST POP POP POP POP PUSH1 0x40 MLOAD RETURNDATASIZE PUSH0 DUP3 RETURNDATACOPY RETURNDATASIZE PUSH1 0x1F NOT PUSH1 0x1F DUP3 ADD AND DUP3 ADD DUP1 PUSH1 0x40 MSTORE POP DUP2 ADD SWAP1 PUSH2 0x9C5 SWAP2 SWAP1 PUSH2 0x15A8 JUMP JUMPDEST SWAP1 POP PUSH0 DUP2 MLOAD GT PUSH2 0xA0A JUMPI PUSH1 0x40 MLOAD PUSH32 0x8C379A000000000000000000000000000000000000000000000000000000000 DUP2 MSTORE PUSH1 0x4 ADD PUSH2 0xA01 SWAP1 PUSH2 0x18D2 JUMP JUMPDEST PUSH1 0x40 MLOAD DUP1 SWAP2 SUB SWAP1 REVERT JUMPDEST DUP4 DUP3 DUP2 MLOAD DUP2 LT PUSH2 0xA1D JUMPI PUSH2 0xA1C PUSH2 0x14BD JUMP JUMPDEST JUMPDEST PUSH1 0x20 MUL PUSH1 0x20 ADD ADD MLOAD PUSH1 0x40 MLOAD PUSH1 0x20 ADD PUSH2 0xA35 SWAP2 SWAP1 PUSH2 0x1524 JUMP JUMPDEST PUSH1 0x40 MLOAD PUSH1 0x20 DUP2 DUP4 SUB SUB DUP2 MSTORE SWAP1 PUSH1 0x40 MSTORE DUP1 MLOAD SWAP1 PUSH1 0x20 ADD KECCAK256 DUP2 PUSH1 0x40 MLOAD PUSH1 0x20 ADD PUSH2 0xA5C SWAP2 SWAP1 PUSH2 0x1524 JUMP JUMPDEST PUSH1 0x40 MLOAD PUSH1 0x20 DUP2 DUP4 SUB SUB DUP2 MSTORE SWAP1 PUSH1 0x40 MSTORE DUP1 MLOAD SWAP1 PUSH1 0x20 ADD KECCAK256 EQ PUSH2 0xAB2 JUMPI PUSH1 0x40 MLOAD PUSH32 0x8C379A000000000000000000000000000000000000000000000000000000000 DUP2 MSTORE PUSH1 0x4 ADD PUSH2 0xAA9 SWAP1 PUSH2 0x1639 JUMP JUMPDEST PUSH1 0x40 MLOAD DUP1 SWAP2 SUB SWAP1 REVERT JUMPDEST DUP3 DUP3 DUP2 MLOAD DUP2 LT PUSH2 0xAC5 JUMPI PUSH2 0xAC4 PUSH2 0x14BD JUMP JUMPDEST JUMPDEST PUSH1 0x20 MUL PUSH1 0x20 ADD ADD MLOAD PUSH1 0x2 DUP7 DUP5 DUP2 MLOAD DUP2 LT PUSH2 0xAE2 JUMPI PUSH2 0xAE1 PUSH2 0x14BD JUMP JUMPDEST JUMPDEST PUSH1 0x20 MUL PUSH1 0x20 ADD ADD MLOAD PUSH1 0x40 MLOAD PUSH2 0xAF7 SWAP2 SWAP1 PUSH2 0x1524 JUMP JUMPDEST SWAP1 DUP2 MSTORE PUSH1 0x20 ADD PUSH1 0x40 MLOAD DUP1 SWAP2 SUB SWAP1 KECCAK256 PUSH0 PUSH2 0x100 EXP DUP2 SLOAD DUP2 PUSH20 0xFFFFFFFFFFFFFFFFFFFFFFFFFFFFFFFFFFFFFFFF MUL NOT AND SWAP1 DUP4 PUSH20 0xFFFFFFFFFFFFFFFFFFFFFFFFFFFFFFFFFFFFFFFF AND MUL OR SWAP1 SSTORE POP DUP5 DUP3 DUP2 MLOAD DUP2 LT PUSH2 0xB55 JUMPI PUSH2 0xB54 PUSH2 0x14BD JUMP JUMPDEST JUMPDEST PUSH1 0x20 MUL PUSH1 0x20 ADD ADD MLOAD PUSH1 0x3 PUSH0 DUP6 DUP6 DUP2 MLOAD DUP2 LT PUSH2 0xB73 JUMPI PUSH2 0xB72 PUSH2 0x14BD JUMP JUMPDEST JUMPDEST PUSH1 0x20 MUL PUSH1 0x20 ADD ADD MLOAD PUSH20 0xFFFFFFFFFFFFFFFFFFFFFFFFFFFFFFFFFFFFFFFF AND PUSH20 0xFFFFFFFFFFFFFFFFFFFFFFFFFFFFFFFFFFFFFFFF AND DUP2 MSTORE PUSH1 0x20 ADD SWAP1 DUP2 MSTORE PUSH1 0x20 ADD PUSH0 KECCAK256 SWAP1 DUP2 PUSH2 0xBC0 SWAP2 SWAP1 PUSH2 0x1A84 JUMP JUMPDEST POP POP DUP1 DUP1 PUSH1 0x1 ADD SWAP2 POP POP PUSH2 0x905 JUMP JUMPDEST POP PUSH32 0xC34CCBED97BA0E83987B49DB1D6ECBF95305505ABC406FB675BDA2D8158571F0 DUP4 DUP4 TIMESTAMP CALLER PUSH1 0x40 MLOAD PUSH2 0xC05 SWAP5 SWAP4 SWAP3 SWAP2 SWAP1 PUSH2 0x1B9D JUMP JUMPDEST PUSH1 0x40 MLOAD DUP1 SWAP2 SUB SWAP1 LOG1 POP POP POP JUMP JUMPDEST PUSH2 0xC1A PUSH2 0xC96 JUMP JUMPDEST PUSH0 PUSH20 0xFFFFFFFFFFFFFFFFFFFFFFFFFFFFFFFFFFFFFFFF AND DUP2 PUSH20 0xFFFFFFFFFFFFFFFFFFFFFFFFFFFFFFFFFFFFFFFF AND SUB PUSH2 0xC8A JUMPI PUSH0 PUSH1 0x40 MLOAD PUSH32 0x1E4FBDF700000000000000000000000000000000000000000000000000000000 DUP2 MSTORE PUSH1 0x4 ADD PUSH2 0xC81 SWAP2 SWAP1 PUSH2 0x1000 JUMP JUMPDEST PUSH1 0x40 MLOAD DUP1 SWAP2 SUB SWAP1 REVERT JUMPDEST PUSH2 0xC93 DUP2 PUSH2 0xD1D JUMP JUMPDEST POP JUMP JUMPDEST PUSH2 0xC9E PUSH2 0xDDE JUMP JUMPDEST PUSH20 0xFFFFFFFFFFFFFFFFFFFFFFFFFFFFFFFFFFFFFFFF AND PUSH2 0xCBC PUSH2 0x326 JUMP JUMPDEST PUSH20 0xFFFFFFFFFFFFFFFFFFFFFFFFFFFFFFFFFFFFFFFF AND EQ PUSH2 0xD1B JUMPI PUSH2 0xCDF PUSH2 0xDDE JUMP JUMPDEST PUSH1 0x40 MLOAD PUSH32 0x118CDAA700000000000000000000000000000000000000000000000000000000 DUP2 MSTORE PUSH1 0x4 ADD PUSH2 0xD12 SWAP2 SWAP1 PUSH2 0x1000 JUMP JUMPDEST PUSH1 0x40 MLOAD DUP1 SWAP2 SUB SWAP1 REVERT JUMPDEST JUMP JUMPDEST PUSH0 DUP1 PUSH0 SWAP1 SLOAD SWAP1 PUSH2 0x100 EXP SWAP1 DIV PUSH20 0xFFFFFFFFFFFFFFFFFFFFFFFFFFFFFFFFFFFFFFFF AND SWAP1 POP DUP2 PUSH0 DUP1 PUSH2 0x100 EXP DUP2 SLOAD DUP2 PUSH20 0xFFFFFFFFFFFFFFFFFFFFFFFFFFFFFFFFFFFFFFFF MUL NOT AND SWAP1 DUP4 PUSH20 0xFFFFFFFFFFFFFFFFFFFFFFFFFFFFFFFFFFFFFFFF AND MUL OR SWAP1 SSTORE POP DUP2 PUSH20 0xFFFFFFFFFFFFFFFFFFFFFFFFFFFFFFFFFFFFFFFF AND DUP2 PUSH20 0xFFFFFFFFFFFFFFFFFFFFFFFFFFFFFFFFFFFFFFFF AND PUSH32 0x8BE0079C531659141344CD1FD0A4F28419497F9722A3DAAFE3B4186F6B6457E0 PUSH1 0x40 MLOAD PUSH1 0x40 MLOAD DUP1 SWAP2 SUB SWAP1 LOG3 POP POP JUMP JUMPDEST PUSH0 CALLER SWAP1 POP SWAP1 JUMP JUMPDEST POP DUP1 SLOAD PUSH2 0xDF1 SWAP1 PUSH2 0x13FF JUMP JUMPDEST PUSH0 DUP3 SSTORE DUP1 PUSH1 0x1F LT PUSH2 0xE02 JUMPI POP PUSH2 0xE1F JUMP JUMPDEST PUSH1 0x1F ADD PUSH1 0x20 SWAP1 DIV SWAP1 PUSH0 MSTORE PUSH1 0x20 PUSH0 KECCAK256 SWAP1 DUP2 ADD SWAP1 PUSH2 0xE1E SWAP2 SWAP1 PUSH2 0xE22 JUMP JUMPDEST JUMPDEST POP JUMP JUMPDEST JUMPDEST DUP1 DUP3 GT ISZERO PUSH2 0xE39 JUMPI PUSH0 DUP2 PUSH0 SWAP1 SSTORE POP PUSH1 0x1 ADD PUSH2 0xE23 JUMP JUMPDEST POP SWAP1 JUMP JUMPDEST PUSH0 PUSH20 0xFFFFFFFFFFFFFFFFFFFFFFFFFFFFFFFFFFFFFFFF DUP3 AND SWAP1 POP SWAP2 SWAP1 POP JUMP JUMPDEST PUSH0 DUP2 SWAP1 POP SWAP2 SWAP1 POP JUMP JUMPDEST PUSH0 PUSH2 0xE7F PUSH2 0xE7A PUSH2 0xE75 DUP5 PUSH2 0xE3D JUMP JUMPDEST PUSH2 0xE5C JUMP JUMPDEST PUSH2 0xE3D JUMP JUMPDEST SWAP1 POP SWAP2 SWAP1 POP JUMP JUMPDEST PUSH0 PUSH2 0xE90 DUP3 PUSH2 0xE65 JUMP JUMPDEST SWAP1 POP SWAP2 SWAP1 POP JUMP JUMPDEST PUSH0 PUSH2 0xEA1 DUP3 PUSH2 0xE86 JUMP JUMPDEST SWAP1 POP SWAP2 SWAP1 POP JUMP JUMPDEST PUSH2 0xEB1 DUP2 PUSH2 0xE97 JUMP JUMPDEST DUP3 MSTORE POP POP JUMP JUMPDEST PUSH0 PUSH1 0x20 DUP3 ADD SWAP1 POP PUSH2 0xECA PUSH0 DUP4 ADD DUP5 PUSH2 0xEA8 JUMP JUMPDEST SWAP3 SWAP2 POP POP JUMP JUMPDEST PUSH0 PUSH1 0x40 MLOAD SWAP1 POP SWAP1 JUMP JUMPDEST PUSH0 DUP1 REVERT JUMPDEST PUSH0 DUP1 REVERT JUMPDEST PUSH0 PUSH2 0xEEB DUP3 PUSH2 0xE3D JUMP JUMPDEST SWAP1 POP SWAP2 SWAP1 POP JUMP JUMPDEST PUSH2 0xEFB DUP2 PUSH2 0xEE1 JUMP JUMPDEST DUP2 EQ PUSH2 0xF05 JUMPI PUSH0 DUP1 REVERT JUMPDEST POP JUMP JUMPDEST PUSH0 DUP2 CALLDATALOAD SWAP1 POP PUSH2 0xF16 DUP2 PUSH2 0xEF2 JUMP JUMPDEST SWAP3 SWAP2 POP POP JUMP JUMPDEST PUSH0 PUSH1 0x20 DUP3 DUP5 SUB SLT ISZERO PUSH2 0xF31 JUMPI PUSH2 0xF30 PUSH2 0xED9 JUMP JUMPDEST JUMPDEST PUSH0 PUSH2 0xF3E DUP5 DUP3 DUP6 ADD PUSH2 0xF08 JUMP JUMPDEST SWAP2 POP POP SWAP3 SWAP2 POP POP JUMP JUMPDEST PUSH0 DUP2 MLOAD SWAP1 POP SWAP2 SWAP1 POP JUMP JUMPDEST PUSH0 DUP3 DUP3 MSTORE PUSH1 0x20 DUP3 ADD SWAP1 POP SWAP3 SWAP2 POP POP JUMP JUMPDEST PUSH0 JUMPDEST DUP4 DUP2 LT ISZERO PUSH2 0xF7E JUMPI DUP1 DUP3 ADD MLOAD DUP2 DUP5 ADD MSTORE PUSH1 0x20 DUP2 ADD SWAP1 POP PUSH2 0xF63 JUMP JUMPDEST PUSH0 DUP5 DUP5 ADD MSTORE POP POP POP POP JUMP JUMPDEST PUSH0 PUSH1 0x1F NOT PUSH1 0x1F DUP4 ADD AND SWAP1 POP SWAP2 SWAP1 POP JUMP JUMPDEST PUSH0 PUSH2 0xFA3 DUP3 PUSH2 0xF47 JUMP JUMPDEST PUSH2 0xFAD DUP2 DUP6 PUSH2 0xF51 JUMP JUMPDEST SWAP4 POP PUSH2 0xFBD DUP2 DUP6 PUSH1 0x20 DUP7 ADD PUSH2 0xF61 JUMP JUMPDEST PUSH2 0xFC6 DUP2 PUSH2 0xF89 JUMP JUMPDEST DUP5 ADD SWAP2 POP POP SWAP3 SWAP2 POP POP JUMP JUMPDEST PUSH0 PUSH1 0x20 DUP3 ADD SWAP1 POP DUP2 DUP2 SUB PUSH0 DUP4 ADD MSTORE PUSH2 0xFE9 DUP2 DUP5 PUSH2 0xF99 JUMP JUMPDEST SWAP1 POP SWAP3 SWAP2 POP POP JUMP JUMPDEST PUSH2 0xFFA DUP2 PUSH2 0xEE1 JUMP JUMPDEST DUP3 MSTORE POP POP JUMP JUMPDEST PUSH0 PUSH1 0x20 DUP3 ADD SWAP1 POP PUSH2 0x1013 PUSH0 DUP4 ADD DUP5 PUSH2 0xFF1 JUMP JUMPDEST SWAP3 SWAP2 POP POP JUMP JUMPDEST PUSH0 DUP1 REVERT JUMPDEST PUSH32 0x4E487B7100000000000000000000000000000000000000000000000000000000 PUSH0 MSTORE PUSH1 0x41 PUSH1 0x4 MSTORE PUSH1 0x24 PUSH0 REVERT JUMPDEST PUSH2 0x1053 DUP3 PUSH2 0xF89 JUMP JUMPDEST DUP2 ADD DUP2 DUP2 LT PUSH8 0xFFFFFFFFFFFFFFFF DUP3 GT OR ISZERO PUSH2 0x1072 JUMPI PUSH2 0x1071 PUSH2 0x101D JUMP JUMPDEST JUMPDEST DUP1 PUSH1 0x40 MSTORE POP POP POP JUMP JUMPDEST PUSH0 PUSH2 0x1084 PUSH2 0xED0 JUMP JUMPDEST SWAP1 POP PUSH2 0x1090 DUP3 DUP3 PUSH2 0x104A JUMP JUMPDEST SWAP2 SWAP1 POP JUMP JUMPDEST PUSH0 PUSH8 0xFFFFFFFFFFFFFFFF DUP3 GT ISZERO PUSH2 0x10AF JUMPI PUSH2 0x10AE PUSH2 0x101D JUMP JUMPDEST JUMPDEST PUSH1 0x20 DUP3 MUL SWAP1 POP PUSH1 0x20 DUP2 ADD SWAP1 POP SWAP2 SWAP1 POP JUMP JUMPDEST PUSH0 DUP1 REVERT JUMPDEST PUSH0 DUP1 REVERT JUMPDEST PUSH0 PUSH8 0xFFFFFFFFFFFFFFFF DUP3 GT ISZERO PUSH2 0x10E2 JUMPI PUSH2 0x10E1 PUSH2 0x101D JUMP JUMPDEST JUMPDEST PUSH2 0x10EB DUP3 PUSH2 0xF89 JUMP JUMPDEST SWAP1 POP PUSH1 0x20 DUP2 ADD SWAP1 POP SWAP2 SWAP1 POP JUMP JUMPDEST DUP3 DUP2 DUP4 CALLDATACOPY PUSH0 DUP4 DUP4 ADD MSTORE POP POP POP JUMP JUMPDEST PUSH0 PUSH2 0x1118 PUSH2 0x1113 DUP5 PUSH2 0x10C8 JUMP JUMPDEST PUSH2 0x107B JUMP JUMPDEST SWAP1 POP DUP3 DUP2 MSTORE PUSH1 0x20 DUP2 ADD DUP5 DUP5 DUP5 ADD GT ISZERO PUSH2 0x1134 JUMPI PUSH2 0x1133 PUSH2 0x10C4 JUMP JUMPDEST JUMPDEST PUSH2 0x113F DUP5 DUP3 DUP6 PUSH2 0x10F8 JUMP JUMPDEST POP SWAP4 SWAP3 POP POP POP JUMP JUMPDEST PUSH0 DUP3 PUSH1 0x1F DUP4 ADD SLT PUSH2 0x115B JUMPI PUSH2 0x115A PUSH2 0x1019 JUMP JUMPDEST JUMPDEST DUP2 CALLDATALOAD PUSH2 0x116B DUP5 DUP3 PUSH1 0x20 DUP7 ADD PUSH2 0x1106 JUMP JUMPDEST SWAP2 POP POP SWAP3 SWAP2 POP POP JUMP JUMPDEST PUSH0 PUSH2 0x1186 PUSH2 0x1181 DUP5 PUSH2 0x1095 JUMP JUMPDEST PUSH2 0x107B JUMP JUMPDEST SWAP1 POP DUP1 DUP4 DUP3 MSTORE PUSH1 0x20 DUP3 ADD SWAP1 POP PUSH1 0x20 DUP5 MUL DUP4 ADD DUP6 DUP2 GT ISZERO PUSH2 0x11A9 JUMPI PUSH2 0x11A8 PUSH2 0x10C0 JUMP JUMPDEST JUMPDEST DUP4 JUMPDEST DUP2 DUP2 LT ISZERO PUSH2 0x11F0 JUMPI DUP1 CALLDATALOAD PUSH8 0xFFFFFFFFFFFFFFFF DUP2 GT ISZERO PUSH2 0x11CE JUMPI PUSH2 0x11CD PUSH2 0x1019 JUMP JUMPDEST JUMPDEST DUP1 DUP7 ADD PUSH2 0x11DB DUP10 DUP3 PUSH2 0x1147 JUMP JUMPDEST DUP6 MSTORE PUSH1 0x20 DUP6 ADD SWAP5 POP POP POP PUSH1 0x20 DUP2 ADD SWAP1 POP PUSH2 0x11AB JUMP JUMPDEST POP POP POP SWAP4 SWAP3 POP POP POP JUMP JUMPDEST PUSH0 DUP3 PUSH1 0x1F DUP4 ADD SLT PUSH2 0x120E JUMPI PUSH2 0x120D PUSH2 0x1019 JUMP JUMPDEST JUMPDEST DUP2 CALLDATALOAD PUSH2 0x121E DUP5 DUP3 PUSH1 0x20 DUP7 ADD PUSH2 0x1174 JUMP JUMPDEST SWAP2 POP POP SWAP3 SWAP2 POP POP JUMP JUMPDEST PUSH0 PUSH8 0xFFFFFFFFFFFFFFFF DUP3 GT ISZERO PUSH2 0x1241 JUMPI PUSH2 0x1240 PUSH2 0x101D JUMP JUMPDEST JUMPDEST PUSH1 0x20 DUP3 MUL SWAP1 POP PUSH1 0x20 DUP2 ADD SWAP1 POP SWAP2 SWAP1 POP JUMP JUMPDEST PUSH0 PUSH2 0x1264 PUSH2 0x125F DUP5 PUSH2 0x1227 JUMP JUMPDEST PUSH2 0x107B JUMP JUMPDEST SWAP1 POP DUP1 DUP4 DUP3 MSTORE PUSH1 0x20 DUP3 ADD SWAP1 POP PUSH1 0x20 DUP5 MUL DUP4 ADD DUP6 DUP2 GT ISZERO PUSH2 0x1287 JUMPI PUSH2 0x1286 PUSH2 0x10C0 JUMP JUMPDEST JUMPDEST DUP4 JUMPDEST DUP2 DUP2 LT ISZERO PUSH2 0x12B0 JUMPI DUP1 PUSH2 0x129C DUP9 DUP3 PUSH2 0xF08 JUMP JUMPDEST DUP5 MSTORE PUSH1 0x20 DUP5 ADD SWAP4 POP POP PUSH1 0x20 DUP2 ADD SWAP1 POP PUSH2 0x1289 JUMP JUMPDEST POP POP POP SWAP4 SWAP3 POP POP POP JUMP JUMPDEST PUSH0 DUP3 PUSH1 0x1F DUP4 ADD SLT PUSH2 0x12CE JUMPI PUSH2 0x12CD PUSH2 0x1019 JUMP JUMPDEST JUMPDEST DUP2 CALLDATALOAD PUSH2 0x12DE DUP5 DUP3 PUSH1 0x20 DUP7 ADD PUSH2 0x1252 JUMP JUMPDEST SWAP2 POP POP SWAP3 SWAP2 POP POP JUMP JUMPDEST PUSH0 DUP1 PUSH0 PUSH1 0x60 DUP5 DUP7 SUB SLT ISZERO PUSH2 0x12FE JUMPI PUSH2 0x12FD PUSH2 0xED9 JUMP JUMPDEST JUMPDEST PUSH0 DUP5 ADD CALLDATALOAD PUSH8 0xFFFFFFFFFFFFFFFF DUP2 GT ISZERO PUSH2 0x131B JUMPI PUSH2 0x131A PUSH2 0xEDD JUMP JUMPDEST JUMPDEST PUSH2 0x1327 DUP7 DUP3 DUP8 ADD PUSH2 0x11FA JUMP JUMPDEST SWAP4 POP POP PUSH1 0x20 DUP5 ADD CALLDATALOAD PUSH8 0xFFFFFFFFFFFFFFFF DUP2 GT ISZERO PUSH2 0x1348 JUMPI PUSH2 0x1347 PUSH2 0xEDD JUMP JUMPDEST JUMPDEST PUSH2 0x1354 DUP7 DUP3 DUP8 ADD PUSH2 0x11FA JUMP JUMPDEST SWAP3 POP POP PUSH1 0x40 DUP5 ADD CALLDATALOAD PUSH8 0xFFFFFFFFFFFFFFFF DUP2 GT ISZERO PUSH2 0x1375 JUMPI PUSH2 0x1374 PUSH2 0xEDD JUMP JUMPDEST JUMPDEST PUSH2 0x1381 DUP7 DUP3 DUP8 ADD PUSH2 0x12BA JUMP JUMPDEST SWAP2 POP POP SWAP3 POP SWAP3 POP SWAP3 JUMP JUMPDEST PUSH0 PUSH1 0x20 DUP3 DUP5 SUB SLT ISZERO PUSH2 0x13A0 JUMPI PUSH2 0x139F PUSH2 0xED9 JUMP JUMPDEST JUMPDEST PUSH0 DUP3 ADD CALLDATALOAD PUSH8 0xFFFFFFFFFFFFFFFF DUP2 GT ISZERO PUSH2 0x13BD JUMPI PUSH2 0x13BC PUSH2 0xEDD JUMP JUMPDEST JUMPDEST PUSH2 0x13C9 DUP5 DUP3 DUP6 ADD PUSH2 0x1147 JUMP JUMPDEST SWAP2 POP POP SWAP3 SWAP2 POP POP JUMP JUMPDEST PUSH32 0x4E487B7100000000000000000000000000000000000000000000000000000000 PUSH0 MSTORE PUSH1 0x22 PUSH1 0x4 MSTORE PUSH1 0x24 PUSH0 REVERT JUMPDEST PUSH0 PUSH1 0x2 DUP3 DIV SWAP1 POP PUSH1 0x1 DUP3 AND DUP1 PUSH2 0x1416 JUMPI PUSH1 0x7F DUP3 AND SWAP2 POP JUMPDEST PUSH1 0x20 DUP3 LT DUP2 SUB PUSH2 0x1429 JUMPI PUSH2 0x1428 PUSH2 0x13D2 JUMP JUMPDEST JUMPDEST POP SWAP2 SWAP1 POP JUMP JUMPDEST PUSH32 0x416C6C20696E70757473206D7573742068617665207468652073616D65206C65 PUSH0 DUP3 ADD MSTORE PUSH32 0x6E67746800000000000000000000000000000000000000000000000000000000 PUSH1 0x20 DUP3 ADD MSTORE POP JUMP JUMPDEST PUSH0 PUSH2 0x1489 PUSH1 0x24 DUP4 PUSH2 0xF51 JUMP JUMPDEST SWAP2 POP PUSH2 0x1494 DUP3 PUSH2 0x142F JUMP JUMPDEST PUSH1 0x40 DUP3 ADD SWAP1 POP SWAP2 SWAP1 POP JUMP JUMPDEST PUSH0 PUSH1 0x20 DUP3 ADD SWAP1 POP DUP2 DUP2 SUB PUSH0 DUP4 ADD MSTORE PUSH2 0x14B6 DUP2 PUSH2 0x147D JUMP JUMPDEST SWAP1 POP SWAP2 SWAP1 POP JUMP JUMPDEST PUSH32 0x4E487B7100000000000000000000000000000000000000000000000000000000 PUSH0 MSTORE PUSH1 0x32 PUSH1 0x4 MSTORE PUSH1 0x24 PUSH0 REVERT JUMPDEST PUSH0 DUP2 SWAP1 POP SWAP3 SWAP2 POP POP JUMP JUMPDEST PUSH0 PUSH2 0x14FE DUP3 PUSH2 0xF47 JUMP JUMPDEST PUSH2 0x1508 DUP2 DUP6 PUSH2 0x14EA JUMP JUMPDEST SWAP4 POP PUSH2 0x1518 DUP2 DUP6 PUSH1 0x20 DUP7 ADD PUSH2 0xF61 JUMP JUMPDEST DUP1 DUP5 ADD SWAP2 POP POP SWAP3 SWAP2 POP POP JUMP JUMPDEST PUSH0 PUSH2 0x152F DUP3 DUP5 PUSH2 0x14F4 JUMP JUMPDEST SWAP2 POP DUP2 SWAP1 POP SWAP3 SWAP2 POP POP JUMP JUMPDEST PUSH0 PUSH2 0x154C PUSH2 0x1547 DUP5 PUSH2 0x10C8 JUMP JUMPDEST PUSH2 0x107B JUMP JUMPDEST SWAP1 POP DUP3 DUP2 MSTORE PUSH1 0x20 DUP2 ADD DUP5 DUP5 DUP5 ADD GT ISZERO PUSH2 0x1568 JUMPI PUSH2 0x1567 PUSH2 0x10C4 JUMP JUMPDEST JUMPDEST PUSH2 0x1573 DUP5 DUP3 DUP6 PUSH2 0xF61 JUMP JUMPDEST POP SWAP4 SWAP3 POP POP POP JUMP JUMPDEST PUSH0 DUP3 PUSH1 0x1F DUP4 ADD SLT PUSH2 0x158F JUMPI PUSH2 0x158E PUSH2 0x1019 JUMP JUMPDEST JUMPDEST DUP2 MLOAD PUSH2 0x159F DUP5 DUP3 PUSH1 0x20 DUP7 ADD PUSH2 0x153A JUMP JUMPDEST SWAP2 POP POP SWAP3 SWAP2 POP POP JUMP JUMPDEST PUSH0 PUSH1 0x20 DUP3 DUP5 SUB SLT ISZERO PUSH2 0x15BD JUMPI PUSH2 0x15BC PUSH2 0xED9 JUMP JUMPDEST JUMPDEST PUSH0 DUP3 ADD MLOAD PUSH8 0xFFFFFFFFFFFFFFFF DUP2 GT ISZERO PUSH2 0x15DA JUMPI PUSH2 0x15D9 PUSH2 0xEDD JUMP JUMPDEST JUMPDEST PUSH2 0x15E6 DUP5 DUP3 DUP6 ADD PUSH2 0x157B JUMP JUMPDEST SWAP2 POP POP SWAP3 SWAP2 POP POP JUMP JUMPDEST PUSH32 0x4E616D6520646F6573206E6F74206D6174636800000000000000000000000000 PUSH0 DUP3 ADD MSTORE POP JUMP JUMPDEST PUSH0 PUSH2 0x1623 PUSH1 0x13 DUP4 PUSH2 0xF51 JUMP JUMPDEST SWAP2 POP PUSH2 0x162E DUP3 PUSH2 0x15EF JUMP JUMPDEST PUSH1 0x20 DUP3 ADD SWAP1 POP SWAP2 SWAP1 POP JUMP JUMPDEST PUSH0 PUSH1 0x20 DUP3 ADD SWAP1 POP DUP2 DUP2 SUB PUSH0 DUP4 ADD MSTORE PUSH2 0x1650 DUP2 PUSH2 0x1617 JUMP JUMPDEST SWAP1 POP SWAP2 SWAP1 POP JUMP JUMPDEST PUSH32 0x57686974656C69737420646F6573206E6F742065786973740000000000000000 PUSH0 DUP3 ADD MSTORE POP JUMP JUMPDEST PUSH0 PUSH2 0x168B PUSH1 0x18 DUP4 PUSH2 0xF51 JUMP JUMPDEST SWAP2 POP PUSH2 0x1696 DUP3 PUSH2 0x1657 JUMP JUMPDEST PUSH1 0x20 DUP3 ADD SWAP1 POP SWAP2 SWAP1 POP JUMP JUMPDEST PUSH0 PUSH1 0x20 DUP3 ADD SWAP1 POP DUP2 DUP2 SUB PUSH0 DUP4 ADD MSTORE PUSH2 0x16B8 DUP2 PUSH2 0x167F JUMP JUMPDEST SWAP1 POP SWAP2 SWAP1 POP JUMP JUMPDEST PUSH0 DUP2 MLOAD SWAP1 POP SWAP2 SWAP1 POP JUMP JUMPDEST PUSH0 DUP3 DUP3 MSTORE PUSH1 0x20 DUP3 ADD SWAP1 POP SWAP3 SWAP2 POP POP JUMP JUMPDEST PUSH0 DUP2 SWAP1 POP PUSH1 0x20 DUP3 ADD SWAP1 POP SWAP2 SWAP1 POP JUMP JUMPDEST PUSH0 DUP3 DUP3 MSTORE PUSH1 0x20 DUP3 ADD SWAP1 POP SWAP3 SWAP2 POP POP JUMP JUMPDEST PUSH0 PUSH2 0x1702 DUP3 PUSH2 0xF47 JUMP JUMPDEST PUSH2 0x170C DUP2 DUP6 PUSH2 0x16E8 JUMP JUMPDEST SWAP4 POP PUSH2 0x171C DUP2 DUP6 PUSH1 0x20 DUP7 ADD PUSH2 0xF61 JUMP JUMPDEST PUSH2 0x1725 DUP2 PUSH2 0xF89 JUMP JUMPDEST DUP5 ADD SWAP2 POP POP SWAP3 SWAP2 POP POP JUMP JUMPDEST PUSH0 PUSH2 0x173B DUP4 DUP4 PUSH2 0x16F8 JUMP JUMPDEST SWAP1 POP SWAP3 SWAP2 POP POP JUMP JUMPDEST PUSH0 PUSH1 0x20 DUP3 ADD SWAP1 POP SWAP2 SWAP1 POP JUMP JUMPDEST PUSH0 PUSH2 0x1759 DUP3 PUSH2 0x16BF JUMP JUMPDEST PUSH2 0x1763 DUP2 DUP6 PUSH2 0x16C9 JUMP JUMPDEST SWAP4 POP DUP4 PUSH1 0x20 DUP3 MUL DUP6 ADD PUSH2 0x1775 DUP6 PUSH2 0x16D9 JUMP JUMPDEST DUP1 PUSH0 JUMPDEST DUP6 DUP2 LT ISZERO PUSH2 0x17B0 JUMPI DUP5 DUP5 SUB DUP10 MSTORE DUP2 MLOAD PUSH2 0x1791 DUP6 DUP3 PUSH2 0x1730 JUMP JUMPDEST SWAP5 POP PUSH2 0x179C DUP4 PUSH2 0x1743 JUMP JUMPDEST SWAP3 POP PUSH1 0x20 DUP11 ADD SWAP10 POP POP PUSH1 0x1 DUP2 ADD SWAP1 POP PUSH2 0x1778 JUMP JUMPDEST POP DUP3 SWAP8 POP DUP8 SWAP6 POP POP POP POP POP POP SWAP3 SWAP2 POP POP JUMP JUMPDEST PUSH0 DUP2 SWAP1 POP SWAP2 SWAP1 POP JUMP JUMPDEST PUSH2 0x17D4 DUP2 PUSH2 0x17C2 JUMP JUMPDEST DUP3 MSTORE POP POP JUMP JUMPDEST PUSH32 0x57686974656C6973742072656D6F76656420666F722055454E00000000000000 PUSH0 DUP3 ADD MSTORE POP JUMP JUMPDEST PUSH0 PUSH2 0x180E PUSH1 0x19 DUP4 PUSH2 0xF51 JUMP JUMPDEST SWAP2 POP PUSH2 0x1819 DUP3 PUSH2 0x17DA JUMP JUMPDEST PUSH1 0x20 DUP3 ADD SWAP1 POP SWAP2 SWAP1 POP JUMP JUMPDEST PUSH0 PUSH1 0xA0 DUP3 ADD SWAP1 POP DUP2 DUP2 SUB PUSH0 DUP4 ADD MSTORE PUSH2 0x183C DUP2 DUP8 PUSH2 0x174F JUMP JUMPDEST SWAP1 POP DUP2 DUP2 SUB PUSH1 0x20 DUP4 ADD MSTORE PUSH2 0x1850 DUP2 DUP7 PUSH2 0x174F JUMP JUMPDEST SWAP1 POP PUSH2 0x185F PUSH1 0x40 DUP4 ADD DUP6 PUSH2 0x17CB JUMP JUMPDEST PUSH2 0x186C PUSH1 0x60 DUP4 ADD DUP5 PUSH2 0xFF1 JUMP JUMPDEST DUP2 DUP2 SUB PUSH1 0x80 DUP4 ADD MSTORE PUSH2 0x187D DUP2 PUSH2 0x1802 JUMP JUMPDEST SWAP1 POP SWAP6 SWAP5 POP POP POP POP POP JUMP JUMPDEST PUSH32 0x55454E20646F6573206E6F742065786973740000000000000000000000000000 PUSH0 DUP3 ADD MSTORE POP JUMP JUMPDEST PUSH0 PUSH2 0x18BC PUSH1 0x12 DUP4 PUSH2 0xF51 JUMP JUMPDEST SWAP2 POP PUSH2 0x18C7 DUP3 PUSH2 0x1888 JUMP JUMPDEST PUSH1 0x20 DUP3 ADD SWAP1 POP SWAP2 SWAP1 POP JUMP JUMPDEST PUSH0 PUSH1 0x20 DUP3 ADD SWAP1 POP DUP2 DUP2 SUB PUSH0 DUP4 ADD MSTORE PUSH2 0x18E9 DUP2 PUSH2 0x18B0 JUMP JUMPDEST SWAP1 POP SWAP2 SWAP1 POP JUMP JUMPDEST PUSH0 DUP2 SWAP1 POP DUP2 PUSH0 MSTORE PUSH1 0x20 PUSH0 KECCAK256 SWAP1 POP SWAP2 SWAP1 POP JUMP JUMPDEST PUSH0 PUSH1 0x20 PUSH1 0x1F DUP4 ADD DIV SWAP1 POP SWAP2 SWAP1 POP JUMP JUMPDEST PUSH0 DUP3 DUP3 SHL SWAP1 POP SWAP3 SWAP2 POP POP JUMP JUMPDEST PUSH0 PUSH1 0x8 DUP4 MUL PUSH2 0x194C PUSH32 0xFFFFFFFFFFFFFFFFFFFFFFFFFFFFFFFFFFFFFFFFFFFFFFFFFFFFFFFFFFFFFFFF DUP3 PUSH2 0x1911 JUMP JUMPDEST PUSH2 0x1956 DUP7 DUP4 PUSH2 0x1911 JUMP JUMPDEST SWAP6 POP DUP1 NOT DUP5 AND SWAP4 POP DUP1 DUP7 AND DUP5 OR SWAP3 POP POP POP SWAP4 SWAP3 POP POP POP JUMP JUMPDEST PUSH0 PUSH2 0x1988 PUSH2 0x1983 PUSH2 0x197E DUP5 PUSH2 0x17C2 JUMP JUMPDEST PUSH2 0xE5C JUMP JUMPDEST PUSH2 0x17C2 JUMP JUMPDEST SWAP1 POP SWAP2 SWAP1 POP JUMP JUMPDEST PUSH0 DUP2 SWAP1 POP SWAP2 SWAP1 POP JUMP JUMPDEST PUSH2 0x19A1 DUP4 PUSH2 0x196E JUMP JUMPDEST PUSH2 0x19B5 PUSH2 0x19AD DUP3 PUSH2 0x198F JUMP JUMPDEST DUP5 DUP5 SLOAD PUSH2 0x191D JUMP JUMPDEST DUP3 SSTORE POP POP POP POP JUMP JUMPDEST PUSH0 SWAP1 JUMP JUMPDEST PUSH2 0x19C9 PUSH2 0x19BD JUMP JUMPDEST PUSH2 0x19D4 DUP2 DUP5 DUP5 PUSH2 0x1998 JUMP JUMPDEST POP POP POP JUMP JUMPDEST JUMPDEST DUP2 DUP2 LT ISZERO PUSH2 0x19F7 JUMPI PUSH2 0x19EC PUSH0 DUP3 PUSH2 0x19C1 JUMP JUMPDEST PUSH1 0x1 DUP2 ADD SWAP1 POP PUSH2 0x19DA JUMP JUMPDEST POP POP JUMP JUMPDEST PUSH1 0x1F DUP3 GT ISZERO PUSH2 0x1A3C JUMPI PUSH2 0x1A0D DUP2 PUSH2 0x18F0 JUMP JUMPDEST PUSH2 0x1A16 DUP5 PUSH2 0x1902 JUMP JUMPDEST DUP2 ADD PUSH1 0x20 DUP6 LT ISZERO PUSH2 0x1A25 JUMPI DUP2 SWAP1 POP JUMPDEST PUSH2 0x1A39 PUSH2 0x1A31 DUP6 PUSH2 0x1902 JUMP JUMPDEST DUP4 ADD DUP3 PUSH2 0x19D9 JUMP JUMPDEST POP POP JUMPDEST POP POP POP JUMP JUMPDEST PUSH0 DUP3 DUP3 SHR SWAP1 POP SWAP3 SWAP2 POP POP JUMP JUMPDEST PUSH0 PUSH2 0x1A5C PUSH0 NOT DUP5 PUSH1 0x8 MUL PUSH2 0x1A41 JUMP JUMPDEST NOT DUP1 DUP4 AND SWAP2 POP POP SWAP3 SWAP2 POP POP JUMP JUMPDEST PUSH0 PUSH2 0x1A74 DUP4 DUP4 PUSH2 0x1A4D JUMP JUMPDEST SWAP2 POP DUP3 PUSH1 0x2 MUL DUP3 OR SWAP1 POP SWAP3 SWAP2 POP POP JUMP JUMPDEST PUSH2 0x1A8D DUP3 PUSH2 0xF47 JUMP JUMPDEST PUSH8 0xFFFFFFFFFFFFFFFF DUP2 GT ISZERO PUSH2 0x1AA6 JUMPI PUSH2 0x1AA5 PUSH2 0x101D JUMP JUMPDEST JUMPDEST PUSH2 0x1AB0 DUP3 SLOAD PUSH2 0x13FF JUMP JUMPDEST PUSH2 0x1ABB DUP3 DUP3 DUP6 PUSH2 0x19FB JUMP JUMPDEST PUSH0 PUSH1 0x20 SWAP1 POP PUSH1 0x1F DUP4 GT PUSH1 0x1 DUP2 EQ PUSH2 0x1AEC JUMPI PUSH0 DUP5 ISZERO PUSH2 0x1ADA JUMPI DUP3 DUP8 ADD MLOAD SWAP1 POP JUMPDEST PUSH2 0x1AE4 DUP6 DUP3 PUSH2 0x1A69 JUMP JUMPDEST DUP7 SSTORE POP PUSH2 0x1B4B JUMP JUMPDEST PUSH1 0x1F NOT DUP5 AND PUSH2 0x1AFA DUP7 PUSH2 0x18F0 JUMP JUMPDEST PUSH0 JUMPDEST DUP3 DUP2 LT ISZERO PUSH2 0x1B21 JUMPI DUP5 DUP10 ADD MLOAD DUP3 SSTORE PUSH1 0x1 DUP3 ADD SWAP2 POP PUSH1 0x20 DUP6 ADD SWAP5 POP PUSH1 0x20 DUP2 ADD SWAP1 POP PUSH2 0x1AFC JUMP JUMPDEST DUP7 DUP4 LT ISZERO PUSH2 0x1B3E JUMPI DUP5 DUP10 ADD MLOAD PUSH2 0x1B3A PUSH1 0x1F DUP10 AND DUP3 PUSH2 0x1A4D JUMP JUMPDEST DUP4 SSTORE POP JUMPDEST PUSH1 0x1 PUSH1 0x2 DUP9 MUL ADD DUP9 SSTORE POP POP POP JUMPDEST POP POP POP POP POP POP JUMP JUMPDEST PUSH32 0x57686974656C69737420616464656420666F722055454E000000000000000000 PUSH0 DUP3 ADD MSTORE POP JUMP JUMPDEST PUSH0 PUSH2 0x1B87 PUSH1 0x17 DUP4 PUSH2 0xF51 JUMP JUMPDEST SWAP2 POP PUSH2 0x1B92 DUP3 PUSH2 0x1B53 JUMP JUMPDEST PUSH1 0x20 DUP3 ADD SWAP1 POP SWAP2 SWAP1 POP JUMP JUMPDEST PUSH0 PUSH1 0xA0 DUP3 ADD SWAP1 POP DUP2 DUP2 SUB PUSH0 DUP4 ADD MSTORE PUSH2 0x1BB5 DUP2 DUP8 PUSH2 0x174F JUMP JUMPDEST SWAP1 POP DUP2 DUP2 SUB PUSH1 0x20 DUP4 ADD MSTORE PUSH2 0x1BC9 DUP2 DUP7 PUSH2 0x174F JUMP JUMPDEST SWAP1 POP PUSH2 0x1BD8 PUSH1 0x40 DUP4 ADD DUP6 PUSH2 0x17CB JUMP JUMPDEST PUSH2 0x1BE5 PUSH1 0x60 DUP4 ADD DUP5 PUSH2 0xFF1 JUMP JUMPDEST DUP2 DUP2 SUB PUSH1 0x80 DUP4 ADD MSTORE PUSH2 0x1BF6 DUP2 PUSH2 0x1B7B JUMP JUMPDEST SWAP1 POP SWAP6 SWAP5 POP POP POP POP POP JUMP INVALID LOG2 PUSH5 0x6970667358 0x22 SLT KECCAK256 0xB6 0xBD 0xA8 DUP11 LOG1 SWAP1 0xD6 0xEA STOP SHR SWAP4 0xED 0xF9 DUP13 0xC3 PUSH26 0x58026DDE59D8FD6EA4C01434EAC5392264736F6C634300081600 CALLER "
				},
				"gasEstimates": {
					"creation": {
						"codeDepositCost": "1444600",
						"executionCost": "infinite",
						"totalCost": "infinite"
					},
					"external": {
						"change_uen_list_contract_address(address)": "infinite",
						"get_uen_to_whitelist(string)": "infinite",
						"get_whitelist_to_uen(address)": "infinite",
						"map_whitelist_to_uen(string[],string[],address[])": "infinite",
						"owner()": "2582",
						"remove_whitelist_to_uen_mapping(string[],string[],address[])": "infinite",
						"renounceOwnership()": "infinite",
						"transferOwnership(address)": "infinite",
						"uen_management_contract()": "infinite",
						"uen_to_whitelist(string)": "infinite",
						"whitelist_to_uen(address)": "infinite"
					}
				},
				"methodIdentifiers": {
					"change_uen_list_contract_address(address)": "9a82845c",
					"get_uen_to_whitelist(string)": "a9b295e3",
					"get_whitelist_to_uen(address)": "58581383",
					"map_whitelist_to_uen(string[],string[],address[])": "c2e7b688",
					"owner()": "8da5cb5b",
					"remove_whitelist_to_uen_mapping(string[],string[],address[])": "a7a404a6",
					"renounceOwnership()": "715018a6",
					"transferOwnership(address)": "f2fde38b",
					"uen_management_contract()": "11c2f8e6",
					"uen_to_whitelist(string)": "b98cb1a4",
					"whitelist_to_uen(address)": "9c2badef"
				}
			},
			"storageLayout": {
				"storage": [
					{
						"astId": 8,
						"contract": "whitelist.sol:whitelist",
						"label": "_owner",
						"offset": 0,
						"slot": "0",
						"type": "t_address"
					},
					{
						"astId": 229,
						"contract": "whitelist.sol:whitelist",
						"label": "uen_management_contract",
						"offset": 0,
						"slot": "1",
						"type": "t_contract(Iuen_management)189"
					},
					{
						"astId": 233,
						"contract": "whitelist.sol:whitelist",
						"label": "uen_to_whitelist",
						"offset": 0,
						"slot": "2",
						"type": "t_mapping(t_string_memory_ptr,t_address)"
					},
					{
						"astId": 237,
						"contract": "whitelist.sol:whitelist",
						"label": "whitelist_to_uen",
						"offset": 0,
						"slot": "3",
						"type": "t_mapping(t_address,t_string_storage)"
					}
				],
				"types": {
					"t_address": {
						"encoding": "inplace",
						"label": "address",
						"numberOfBytes": "20"
					},
					"t_contract(Iuen_management)189": {
						"encoding": "inplace",
						"label": "contract Iuen_management",
						"numberOfBytes": "20"
					},
					"t_mapping(t_address,t_string_storage)": {
						"encoding": "mapping",
						"key": "t_address",
						"label": "mapping(address => string)",
						"numberOfBytes": "32",
						"value": "t_string_storage"
					},
					"t_mapping(t_string_memory_ptr,t_address)": {
						"encoding": "mapping",
						"key": "t_string_memory_ptr",
						"label": "mapping(string => address)",
						"numberOfBytes": "32",
						"value": "t_address"
					},
					"t_string_memory_ptr": {
						"encoding": "bytes",
						"label": "string",
						"numberOfBytes": "32"
					},
					"t_string_storage": {
						"encoding": "bytes",
						"label": "string",
						"numberOfBytes": "32"
					}
				}
			},
			"userdoc": {
				"kind": "user",
				"methods": {},
				"version": 1
			}
		}
	}
}