{
	"uen_management.sol": {
		"uen_management": {
			"abi": [
				{
					"inputs": [
						{
							"internalType": "address",
							"name": "_initialOwner",
							"type": "address"
						}
					],
					"stateMutability": "nonpayable",
					"type": "constructor"
				},
				{
					"inputs": [
						{
							"internalType": "address",
							"name": "owner",
							"type": "address"
						}
					],
					"name": "OwnableInvalidOwner",
					"type": "error"
				},
				{
					"inputs": [
						{
							"internalType": "address",
							"name": "account",
							"type": "address"
						}
					],
					"name": "OwnableUnauthorizedAccount",
					"type": "error"
				},
				{
					"anonymous": false,
					"inputs": [
						{
							"indexed": true,
							"internalType": "address",
							"name": "previousOwner",
							"type": "address"
						},
						{
							"indexed": true,
							"internalType": "address",
							"name": "newOwner",
							"type": "address"
						}
					],
					"name": "OwnershipTransferred",
					"type": "event"
				},
				{
					"anonymous": false,
					"inputs": [
						{
							"indexed": false,
							"internalType": "string[]",
							"name": "_uens",
							"type": "string[]"
						},
						{
							"indexed": false,
							"internalType": "string",
							"name": "_message",
							"type": "string"
						}
					],
					"name": "uen_event",
					"type": "event"
				},
				{
					"inputs": [
						{
							"internalType": "string[]",
							"name": "_uens",
							"type": "string[]"
						},
						{
							"internalType": "string[]",
							"name": "_names",
							"type": "string[]"
						}
					],
					"name": "add_uens",
					"outputs": [],
					"stateMutability": "nonpayable",
					"type": "function"
				},
				{
					"inputs": [],
					"name": "admin_list_contract",
					"outputs": [
						{
							"internalType": "address",
							"name": "",
							"type": "address"
						}
					],
					"stateMutability": "view",
					"type": "function"
				},
				{
					"inputs": [
						{
							"internalType": "uint256",
							"name": "",
							"type": "uint256"
						}
					],
					"name": "admins",
					"outputs": [
						{
							"internalType": "address",
							"name": "",
							"type": "address"
						}
					],
					"stateMutability": "view",
					"type": "function"
				},
				{
					"inputs": [],
					"name": "get_all_uens",
					"outputs": [
						{
							"internalType": "string[]",
							"name": "",
							"type": "string[]"
						}
					],
					"stateMutability": "view",
					"type": "function"
				},
				{
					"inputs": [
						{
							"internalType": "string",
							"name": "_uen",
							"type": "string"
						}
					],
					"name": "get_name",
					"outputs": [
						{
							"internalType": "string",
							"name": "",
							"type": "string"
						}
					],
					"stateMutability": "view",
					"type": "function"
				},
				{
					"inputs": [
						{
							"internalType": "string[]",
							"name": "_uens",
							"type": "string[]"
						},
						{
							"internalType": "string[]",
							"name": "_names",
							"type": "string[]"
						}
					],
					"name": "modify_uens",
					"outputs": [],
					"stateMutability": "nonpayable",
					"type": "function"
				},
				{
					"inputs": [],
					"name": "owner",
					"outputs": [
						{
							"internalType": "address",
							"name": "",
							"type": "address"
						}
					],
					"stateMutability": "view",
					"type": "function"
				},
				{
					"inputs": [
						{
							"internalType": "string[]",
							"name": "_uens",
							"type": "string[]"
						}
					],
					"name": "remove_uens",
					"outputs": [],
					"stateMutability": "nonpayable",
					"type": "function"
				},
				{
					"inputs": [],
					"name": "renounceOwnership",
					"outputs": [],
					"stateMutability": "nonpayable",
					"type": "function"
				},
				{
					"inputs": [
						{
							"internalType": "address",
							"name": "newOwner",
							"type": "address"
						}
					],
					"name": "transferOwnership",
					"outputs": [],
					"stateMutability": "nonpayable",
					"type": "function"
				},
				{
					"inputs": [
						{
							"internalType": "uint256",
							"name": "",
							"type": "uint256"
						}
					],
					"name": "uen_list",
					"outputs": [
						{
							"internalType": "string",
							"name": "",
							"type": "string"
						}
					],
					"stateMutability": "view",
					"type": "function"
				}
			],
			"devdoc": {
				"errors": {
					"OwnableInvalidOwner(address)": [
						{
							"details": "The owner is not a valid owner account. (eg. `address(0)`)"
						}
					],
					"OwnableUnauthorizedAccount(address)": [
						{
							"details": "The caller account is not authorized to perform an operation."
						}
					]
				},
				"kind": "dev",
				"methods": {
					"owner()": {
						"details": "Returns the address of the current owner."
					},
					"renounceOwnership()": {
						"details": "Leaves the contract without owner. It will not be possible to call `onlyOwner` functions. Can only be called by the current owner. NOTE: Renouncing ownership will leave the contract without an owner, thereby disabling any functionality that is only available to the owner."
					},
					"transferOwnership(address)": {
						"details": "Transfers ownership of the contract to a new account (`newOwner`). Can only be called by the current owner."
					}
				},
				"version": 1
			},
			"evm": {
				"assembly": "    /* \"uen_management.sol\":598:4021  contract uen_management is Ownable {... */\n  mstore(0x40, 0x80)\n    /* \"uen_management.sol\":1318:1384  constructor(address _initialOwner) Ownable(_initialOwner) {... */\n  callvalue\n  dup1\n  iszero\n  tag_1\n  jumpi\n  0x00\n  dup1\n  revert\ntag_1:\n  pop\n  mload(0x40)\n  sub(codesize, bytecodeSize)\n  dup1\n  bytecodeSize\n  dup4\n  codecopy\n  dup2\n  dup2\n  add\n  0x40\n  mstore\n  dup2\n  add\n  swap1\n  tag_2\n  swap2\n  swap1\n  tag_3\n  jump\t// in\ntag_2:\n    /* \"uen_management.sol\":1361:1374  _initialOwner */\n  dup1\n    /* \"@openzeppelin/contracts/access/Ownable.sol\":1297:1298  0 */\n  0x00\n    /* \"@openzeppelin/contracts/access/Ownable.sol\":1273:1299  initialOwner == address(0) */\n  0xffffffffffffffffffffffffffffffffffffffff\n  and\n    /* \"@openzeppelin/contracts/access/Ownable.sol\":1273:1285  initialOwner */\n  dup2\n    /* \"@openzeppelin/contracts/access/Ownable.sol\":1273:1299  initialOwner == address(0) */\n  0xffffffffffffffffffffffffffffffffffffffff\n  and\n  sub\n    /* \"@openzeppelin/contracts/access/Ownable.sol\":1269:1364  if (initialOwner == address(0)) {... */\n  tag_7\n  jumpi\n    /* \"@openzeppelin/contracts/access/Ownable.sol\":1350:1351  0 */\n  0x00\n    /* \"@openzeppelin/contracts/access/Ownable.sol\":1322:1353  OwnableInvalidOwner(address(0)) */\n  mload(0x40)\n  0x1e4fbdf700000000000000000000000000000000000000000000000000000000\n  dup2\n  mstore\n  0x04\n  add\n  tag_8\n  swap2\n  swap1\n  tag_9\n  jump\t// in\ntag_8:\n  mload(0x40)\n  dup1\n  swap2\n  sub\n  swap1\n  revert\n    /* \"@openzeppelin/contracts/access/Ownable.sol\":1269:1364  if (initialOwner == address(0)) {... */\ntag_7:\n    /* \"@openzeppelin/contracts/access/Ownable.sol\":1373:1405  _transferOwnership(initialOwner) */\n  tag_10\n    /* \"@openzeppelin/contracts/access/Ownable.sol\":1392:1404  initialOwner */\n  dup2\n    /* \"@openzeppelin/contracts/access/Ownable.sol\":1373:1391  _transferOwnership */\n  shl(0x20, tag_11)\n    /* \"@openzeppelin/contracts/access/Ownable.sol\":1373:1405  _transferOwnership(initialOwner) */\n  0x20\n  shr\n  jump\t// in\ntag_10:\n    /* \"@openzeppelin/contracts/access/Ownable.sol\":1225:1412  constructor(address initialOwner) {... */\n  pop\n    /* \"uen_management.sol\":1318:1384  constructor(address _initialOwner) Ownable(_initialOwner) {... */\n  pop\n    /* \"uen_management.sol\":598:4021  contract uen_management is Ownable {... */\n  jump(tag_13)\n    /* \"@openzeppelin/contracts/access/Ownable.sol\":2912:3099  function _transferOwnership(address newOwner) internal virtual {... */\ntag_11:\n    /* \"@openzeppelin/contracts/access/Ownable.sol\":2985:3001  address oldOwner */\n  0x00\n    /* \"@openzeppelin/contracts/access/Ownable.sol\":3004:3010  _owner */\n  dup1\n  0x00\n  swap1\n  sload\n  swap1\n  0x0100\n  exp\n  swap1\n  div\n  0xffffffffffffffffffffffffffffffffffffffff\n  and\n    /* \"@openzeppelin/contracts/access/Ownable.sol\":2985:3010  address oldOwner = _owner */\n  swap1\n  pop\n    /* \"@openzeppelin/contracts/access/Ownable.sol\":3029:3037  newOwner */\n  dup2\n    /* \"@openzeppelin/contracts/access/Ownable.sol\":3020:3026  _owner */\n  0x00\n  dup1\n    /* \"@openzeppelin/contracts/access/Ownable.sol\":3020:3037  _owner = newOwner */\n  0x0100\n  exp\n  dup2\n  sload\n  dup2\n  0xffffffffffffffffffffffffffffffffffffffff\n  mul\n  not\n  and\n  swap1\n  dup4\n  0xffffffffffffffffffffffffffffffffffffffff\n  and\n  mul\n  or\n  swap1\n  sstore\n  pop\n    /* \"@openzeppelin/contracts/access/Ownable.sol\":3083:3091  newOwner */\n  dup2\n    /* \"@openzeppelin/contracts/access/Ownable.sol\":3052:3092  OwnershipTransferred(oldOwner, newOwner) */\n  0xffffffffffffffffffffffffffffffffffffffff\n  and\n    /* \"@openzeppelin/contracts/access/Ownable.sol\":3073:3081  oldOwner */\n  dup2\n    /* \"@openzeppelin/contracts/access/Ownable.sol\":3052:3092  OwnershipTransferred(oldOwner, newOwner) */\n  0xffffffffffffffffffffffffffffffffffffffff\n  and\n  0x8be0079c531659141344cd1fd0a4f28419497f9722a3daafe3b4186f6b6457e0\n  mload(0x40)\n  mload(0x40)\n  dup1\n  swap2\n  sub\n  swap1\n  log3\n    /* \"@openzeppelin/contracts/access/Ownable.sol\":2975:3099  {... */\n  pop\n    /* \"@openzeppelin/contracts/access/Ownable.sol\":2912:3099  function _transferOwnership(address newOwner) internal virtual {... */\n  pop\n  jump\t// out\n    /* \"#utility.yul\":88:205   */\ntag_16:\n    /* \"#utility.yul\":197:198   */\n  0x00\n    /* \"#utility.yul\":194:195   */\n  dup1\n    /* \"#utility.yul\":187:199   */\n  revert\n    /* \"#utility.yul\":334:460   */\ntag_18:\n    /* \"#utility.yul\":371:378   */\n  0x00\n    /* \"#utility.yul\":411:453   */\n  0xffffffffffffffffffffffffffffffffffffffff\n    /* \"#utility.yul\":404:409   */\n  dup3\n    /* \"#utility.yul\":400:454   */\n  and\n    /* \"#utility.yul\":389:454   */\n  swap1\n  pop\n    /* \"#utility.yul\":334:460   */\n  swap2\n  swap1\n  pop\n  jump\t// out\n    /* \"#utility.yul\":466:562   */\ntag_19:\n    /* \"#utility.yul\":503:510   */\n  0x00\n    /* \"#utility.yul\":532:556   */\n  tag_29\n    /* \"#utility.yul\":550:555   */\n  dup3\n    /* \"#utility.yul\":532:556   */\n  tag_18\n  jump\t// in\ntag_29:\n    /* \"#utility.yul\":521:556   */\n  swap1\n  pop\n    /* \"#utility.yul\":466:562   */\n  swap2\n  swap1\n  pop\n  jump\t// out\n    /* \"#utility.yul\":568:690   */\ntag_20:\n    /* \"#utility.yul\":641:665   */\n  tag_31\n    /* \"#utility.yul\":659:664   */\n  dup2\n    /* \"#utility.yul\":641:665   */\n  tag_19\n  jump\t// in\ntag_31:\n    /* \"#utility.yul\":634:639   */\n  dup2\n    /* \"#utility.yul\":631:666   */\n  eq\n    /* \"#utility.yul\":621:684   */\n  tag_32\n  jumpi\n    /* \"#utility.yul\":680:681   */\n  0x00\n    /* \"#utility.yul\":677:678   */\n  dup1\n    /* \"#utility.yul\":670:682   */\n  revert\n    /* \"#utility.yul\":621:684   */\ntag_32:\n    /* \"#utility.yul\":568:690   */\n  pop\n  jump\t// out\n    /* \"#utility.yul\":696:839   */\ntag_21:\n    /* \"#utility.yul\":753:758   */\n  0x00\n    /* \"#utility.yul\":784:790   */\n  dup2\n    /* \"#utility.yul\":778:791   */\n  mload\n    /* \"#utility.yul\":769:791   */\n  swap1\n  pop\n    /* \"#utility.yul\":800:833   */\n  tag_34\n    /* \"#utility.yul\":827:832   */\n  dup2\n    /* \"#utility.yul\":800:833   */\n  tag_20\n  jump\t// in\ntag_34:\n    /* \"#utility.yul\":696:839   */\n  swap3\n  swap2\n  pop\n  pop\n  jump\t// out\n    /* \"#utility.yul\":845:1196   */\ntag_3:\n    /* \"#utility.yul\":915:921   */\n  0x00\n    /* \"#utility.yul\":964:966   */\n  0x20\n    /* \"#utility.yul\":952:961   */\n  dup3\n    /* \"#utility.yul\":943:950   */\n  dup5\n    /* \"#utility.yul\":939:962   */\n  sub\n    /* \"#utility.yul\":935:967   */\n  slt\n    /* \"#utility.yul\":932:1051   */\n  iszero\n  tag_36\n  jumpi\n    /* \"#utility.yul\":970:1049   */\n  tag_37\n  tag_16\n  jump\t// in\ntag_37:\n    /* \"#utility.yul\":932:1051   */\ntag_36:\n    /* \"#utility.yul\":1090:1091   */\n  0x00\n    /* \"#utility.yul\":1115:1179   */\n  tag_38\n    /* \"#utility.yul\":1171:1178   */\n  dup5\n    /* \"#utility.yul\":1162:1168   */\n  dup3\n    /* \"#utility.yul\":1151:1160   */\n  dup6\n    /* \"#utility.yul\":1147:1169   */\n  add\n    /* \"#utility.yul\":1115:1179   */\n  tag_21\n  jump\t// in\ntag_38:\n    /* \"#utility.yul\":1105:1179   */\n  swap2\n  pop\n    /* \"#utility.yul\":1061:1189   */\n  pop\n    /* \"#utility.yul\":845:1196   */\n  swap3\n  swap2\n  pop\n  pop\n  jump\t// out\n    /* \"#utility.yul\":1202:1320   */\ntag_22:\n    /* \"#utility.yul\":1289:1313   */\n  tag_40\n    /* \"#utility.yul\":1307:1312   */\n  dup2\n    /* \"#utility.yul\":1289:1313   */\n  tag_19\n  jump\t// in\ntag_40:\n    /* \"#utility.yul\":1284:1287   */\n  dup3\n    /* \"#utility.yul\":1277:1314   */\n  mstore\n    /* \"#utility.yul\":1202:1320   */\n  pop\n  pop\n  jump\t// out\n    /* \"#utility.yul\":1326:1548   */\ntag_9:\n    /* \"#utility.yul\":1419:1423   */\n  0x00\n    /* \"#utility.yul\":1457:1459   */\n  0x20\n    /* \"#utility.yul\":1446:1455   */\n  dup3\n    /* \"#utility.yul\":1442:1460   */\n  add\n    /* \"#utility.yul\":1434:1460   */\n  swap1\n  pop\n    /* \"#utility.yul\":1470:1541   */\n  tag_42\n    /* \"#utility.yul\":1538:1539   */\n  0x00\n    /* \"#utility.yul\":1527:1536   */\n  dup4\n    /* \"#utility.yul\":1523:1540   */\n  add\n    /* \"#utility.yul\":1514:1520   */\n  dup5\n    /* \"#utility.yul\":1470:1541   */\n  tag_22\n  jump\t// in\ntag_42:\n    /* \"#utility.yul\":1326:1548   */\n  swap3\n  swap2\n  pop\n  pop\n  jump\t// out\n    /* \"uen_management.sol\":598:4021  contract uen_management is Ownable {... */\ntag_13:\n  dataSize(sub_0)\n  dup1\n  dataOffset(sub_0)\n  0x00\n  codecopy\n  0x00\n  return\nstop\n\nsub_0: assembly {\n        /* \"uen_management.sol\":598:4021  contract uen_management is Ownable {... */\n      mstore(0x40, 0x80)\n      callvalue\n      dup1\n      iszero\n      tag_1\n      jumpi\n      0x00\n      dup1\n      revert\n    tag_1:\n      pop\n      jumpi(tag_2, lt(calldatasize, 0x04))\n      shr(0xe0, calldataload(0x00))\n      dup1\n      0x9926aa34\n      gt\n      tag_14\n      jumpi\n      dup1\n      0x9926aa34\n      eq\n      tag_8\n      jumpi\n      dup1\n      0xa8f5d7a6\n      eq\n      tag_9\n      jumpi\n      dup1\n      0xb30282fa\n      eq\n      tag_10\n      jumpi\n      dup1\n      0xb3d6da6e\n      eq\n      tag_11\n      jumpi\n      dup1\n      0xf2fde38b\n      eq\n      tag_12\n      jumpi\n      dup1\n      0xf9b378c2\n      eq\n      tag_13\n      jumpi\n      jump(tag_2)\n    tag_14:\n      dup1\n      0x14bfd6d0\n      eq\n      tag_3\n      jumpi\n      dup1\n      0x35b13db2\n      eq\n      tag_4\n      jumpi\n      dup1\n      0x46dc1ffc\n      eq\n      tag_5\n      jumpi\n      dup1\n      0x715018a6\n      eq\n      tag_6\n      jumpi\n      dup1\n      0x8da5cb5b\n      eq\n      tag_7\n      jumpi\n    tag_2:\n      0x00\n      dup1\n      revert\n        /* \"uen_management.sol\":1240:1263  address[] public admins */\n    tag_3:\n      tag_15\n      0x04\n      dup1\n      calldatasize\n      sub\n      dup2\n      add\n      swap1\n      tag_16\n      swap2\n      swap1\n      tag_17\n      jump\t// in\n    tag_16:\n      tag_18\n      jump\t// in\n    tag_15:\n      mload(0x40)\n      tag_19\n      swap2\n      swap1\n      tag_20\n      jump\t// in\n    tag_19:\n      mload(0x40)\n      dup1\n      swap2\n      sub\n      swap1\n      return\n        /* \"uen_management.sol\":2633:3145  function remove_uens(string[] memory _uens) external onlyOwner {... */\n    tag_4:\n      tag_21\n      0x04\n      dup1\n      calldatasize\n      sub\n      dup2\n      add\n      swap1\n      tag_22\n      swap2\n      swap1\n      tag_23\n      jump\t// in\n    tag_22:\n      tag_24\n      jump\t// in\n    tag_21:\n      stop\n        /* \"uen_management.sol\":1163:1197  address public admin_list_contract */\n    tag_5:\n      tag_25\n      tag_26\n      jump\t// in\n    tag_25:\n      mload(0x40)\n      tag_27\n      swap2\n      swap1\n      tag_20\n      jump\t// in\n    tag_27:\n      mload(0x40)\n      dup1\n      swap2\n      sub\n      swap1\n      return\n        /* \"@openzeppelin/contracts/access/Ownable.sol\":2293:2394  function renounceOwnership() public virtual onlyOwner {... */\n    tag_6:\n      tag_28\n      tag_29\n      jump\t// in\n    tag_28:\n      stop\n        /* \"@openzeppelin/contracts/access/Ownable.sol\":1638:1723  function owner() public view virtual returns (address) {... */\n    tag_7:\n      tag_30\n      tag_31\n      jump\t// in\n    tag_30:\n      mload(0x40)\n      tag_32\n      swap2\n      swap1\n      tag_20\n      jump\t// in\n    tag_32:\n      mload(0x40)\n      dup1\n      swap2\n      sub\n      swap1\n      return\n        /* \"uen_management.sol\":3644:4019  function modify_uens(string[] memory _uens, string[] memory _names) external onlyOwner {... */\n    tag_8:\n      tag_33\n      0x04\n      dup1\n      calldatasize\n      sub\n      dup2\n      add\n      swap1\n      tag_34\n      swap2\n      swap1\n      tag_35\n      jump\t// in\n    tag_34:\n      tag_36\n      jump\t// in\n    tag_33:\n      stop\n        /* \"uen_management.sol\":1447:1562  function get_name(string memory _uen) public view returns (string memory) {... */\n    tag_9:\n      tag_37\n      0x04\n      dup1\n      calldatasize\n      sub\n      dup2\n      add\n      swap1\n      tag_38\n      swap2\n      swap1\n      tag_39\n      jump\t// in\n    tag_38:\n      tag_40\n      jump\t// in\n    tag_37:\n      mload(0x40)\n      tag_41\n      swap2\n      swap1\n      tag_42\n      jump\t// in\n    tag_41:\n      mload(0x40)\n      dup1\n      swap2\n      sub\n      swap1\n      return\n        /* \"uen_management.sol\":842:866  string[] public uen_list */\n    tag_10:\n      tag_43\n      0x04\n      dup1\n      calldatasize\n      sub\n      dup2\n      add\n      swap1\n      tag_44\n      swap2\n      swap1\n      tag_17\n      jump\t// in\n    tag_44:\n      tag_45\n      jump\t// in\n    tag_43:\n      mload(0x40)\n      tag_46\n      swap2\n      swap1\n      tag_42\n      jump\t// in\n    tag_46:\n      mload(0x40)\n      dup1\n      swap2\n      sub\n      swap1\n      return\n        /* \"uen_management.sol\":1630:1724  function get_all_uens() public view returns (string[] memory) {... */\n    tag_11:\n      tag_47\n      tag_48\n      jump\t// in\n    tag_47:\n      mload(0x40)\n      tag_49\n      swap2\n      swap1\n      tag_50\n      jump\t// in\n    tag_49:\n      mload(0x40)\n      dup1\n      swap2\n      sub\n      swap1\n      return\n        /* \"@openzeppelin/contracts/access/Ownable.sol\":2543:2758  function transferOwnership(address newOwner) public virtual onlyOwner {... */\n    tag_12:\n      tag_51\n      0x04\n      dup1\n      calldatasize\n      sub\n      dup2\n      add\n      swap1\n      tag_52\n      swap2\n      swap1\n      tag_53\n      jump\t// in\n    tag_52:\n      tag_54\n      jump\t// in\n    tag_51:\n      stop\n        /* \"uen_management.sol\":1985:2497  function add_uens(string[] memory _uens, string[] memory _names) external onlyOwner {... */\n    tag_13:\n      tag_55\n      0x04\n      dup1\n      calldatasize\n      sub\n      dup2\n      add\n      swap1\n      tag_56\n      swap2\n      swap1\n      tag_35\n      jump\t// in\n    tag_56:\n      tag_57\n      jump\t// in\n    tag_55:\n      stop\n        /* \"uen_management.sol\":1240:1263  address[] public admins */\n    tag_18:\n      0x05\n      dup2\n      dup2\n      sload\n      dup2\n      lt\n      tag_58\n      jumpi\n      0x00\n      dup1\n      revert\n    tag_58:\n      swap1\n      0x00\n      mstore\n      keccak256(0x00, 0x20)\n      add\n      0x00\n      swap2\n      pop\n      sload\n      swap1\n      0x0100\n      exp\n      swap1\n      div\n      0xffffffffffffffffffffffffffffffffffffffff\n      and\n      dup2\n      jump\t// out\n        /* \"uen_management.sol\":2633:3145  function remove_uens(string[] memory _uens) external onlyOwner {... */\n    tag_24:\n        /* \"@openzeppelin/contracts/access/Ownable.sol\":1531:1544  _checkOwner() */\n      tag_61\n        /* \"@openzeppelin/contracts/access/Ownable.sol\":1531:1542  _checkOwner */\n      tag_62\n        /* \"@openzeppelin/contracts/access/Ownable.sol\":1531:1544  _checkOwner() */\n      jump\t// in\n    tag_61:\n        /* \"uen_management.sol\":2711:2720  uint256 i */\n      0x00\n        /* \"uen_management.sol\":2706:3092  for (uint256 i = 0; i < _uens.length; i++) {... */\n    tag_64:\n        /* \"uen_management.sol\":2730:2735  _uens */\n      dup2\n        /* \"uen_management.sol\":2730:2742  _uens.length */\n      mload\n        /* \"uen_management.sol\":2726:2727  i */\n      dup2\n        /* \"uen_management.sol\":2726:2742  i < _uens.length */\n      lt\n        /* \"uen_management.sol\":2706:3092  for (uint256 i = 0; i < _uens.length; i++) {... */\n      iszero\n      tag_65\n      jumpi\n        /* \"uen_management.sol\":2770:2781  uen_to_name */\n      0x02\n        /* \"uen_management.sol\":2782:2787  _uens */\n      dup3\n        /* \"uen_management.sol\":2788:2789  i */\n      dup3\n        /* \"uen_management.sol\":2782:2790  _uens[i] */\n      dup2\n      mload\n      dup2\n      lt\n      tag_67\n      jumpi\n      tag_68\n      tag_69\n      jump\t// in\n    tag_68:\n    tag_67:\n      0x20\n      mul\n      0x20\n      add\n      add\n      mload\n        /* \"uen_management.sol\":2770:2791  uen_to_name[_uens[i]] */\n      mload(0x40)\n      tag_70\n      swap2\n      swap1\n      tag_71\n      jump\t// in\n    tag_70:\n      swap1\n      dup2\n      mstore\n      0x20\n      add\n      mload(0x40)\n      dup1\n      swap2\n      sub\n      swap1\n      keccak256\n      0x00\n        /* \"uen_management.sol\":2763:2791  delete uen_to_name[_uens[i]] */\n      tag_72\n      swap2\n      swap1\n      tag_73\n      jump\t// in\n    tag_72:\n        /* \"uen_management.sol\":3001:3038  uen_list[uen_to_index[_uens[i]]] = \"\" */\n      mload(0x40)\n      dup1\n      0x20\n      add\n      0x40\n      mstore\n      dup1\n      0x00\n      dup2\n      mstore\n      pop\n        /* \"uen_management.sol\":3001:3009  uen_list */\n      0x01\n        /* \"uen_management.sol\":3010:3022  uen_to_index */\n      0x03\n        /* \"uen_management.sol\":3023:3028  _uens */\n      dup5\n        /* \"uen_management.sol\":3029:3030  i */\n      dup5\n        /* \"uen_management.sol\":3023:3031  _uens[i] */\n      dup2\n      mload\n      dup2\n      lt\n      tag_74\n      jumpi\n      tag_75\n      tag_69\n      jump\t// in\n    tag_75:\n    tag_74:\n      0x20\n      mul\n      0x20\n      add\n      add\n      mload\n        /* \"uen_management.sol\":3010:3032  uen_to_index[_uens[i]] */\n      mload(0x40)\n      tag_76\n      swap2\n      swap1\n      tag_71\n      jump\t// in\n    tag_76:\n      swap1\n      dup2\n      mstore\n      0x20\n      add\n      mload(0x40)\n      dup1\n      swap2\n      sub\n      swap1\n      keccak256\n      sload\n        /* \"uen_management.sol\":3001:3033  uen_list[uen_to_index[_uens[i]]] */\n      dup2\n      sload\n      dup2\n      lt\n      tag_77\n      jumpi\n      tag_78\n      tag_69\n      jump\t// in\n    tag_78:\n    tag_77:\n      swap1\n      0x00\n      mstore\n      keccak256(0x00, 0x20)\n      add\n        /* \"uen_management.sol\":3001:3038  uen_list[uen_to_index[_uens[i]]] = \"\" */\n      swap1\n      dup2\n      tag_80\n      swap2\n      swap1\n      tag_81\n      jump\t// in\n    tag_80:\n      pop\n        /* \"uen_management.sol\":3059:3071  uen_to_index */\n      0x03\n        /* \"uen_management.sol\":3072:3077  _uens */\n      dup3\n        /* \"uen_management.sol\":3078:3079  i */\n      dup3\n        /* \"uen_management.sol\":3072:3080  _uens[i] */\n      dup2\n      mload\n      dup2\n      lt\n      tag_82\n      jumpi\n      tag_83\n      tag_69\n      jump\t// in\n    tag_83:\n    tag_82:\n      0x20\n      mul\n      0x20\n      add\n      add\n      mload\n        /* \"uen_management.sol\":3059:3081  uen_to_index[_uens[i]] */\n      mload(0x40)\n      tag_84\n      swap2\n      swap1\n      tag_71\n      jump\t// in\n    tag_84:\n      swap1\n      dup2\n      mstore\n      0x20\n      add\n      mload(0x40)\n      dup1\n      swap2\n      sub\n      swap1\n      keccak256\n        /* \"uen_management.sol\":3052:3081  delete uen_to_index[_uens[i]] */\n      0x00\n      swap1\n      sstore\n        /* \"uen_management.sol\":2744:2747  i++ */\n      dup1\n      dup1\n      0x01\n      add\n      swap2\n      pop\n      pop\n        /* \"uen_management.sol\":2706:3092  for (uint256 i = 0; i < _uens.length; i++) {... */\n      jump(tag_64)\n    tag_65:\n      pop\n        /* \"uen_management.sol\":3106:3138  uen_event(_uens, \"UENs removed\") */\n      0x5462cca44bd73f863d8a33c18eddea04a24e4ac8e252404333dd97ac7a732ac8\n        /* \"uen_management.sol\":3116:3121  _uens */\n      dup2\n        /* \"uen_management.sol\":3106:3138  uen_event(_uens, \"UENs removed\") */\n      mload(0x40)\n      tag_85\n      swap2\n      swap1\n      tag_86\n      jump\t// in\n    tag_85:\n      mload(0x40)\n      dup1\n      swap2\n      sub\n      swap1\n      log1\n        /* \"uen_management.sol\":2633:3145  function remove_uens(string[] memory _uens) external onlyOwner {... */\n      pop\n      jump\t// out\n        /* \"uen_management.sol\":1163:1197  address public admin_list_contract */\n    tag_26:\n      0x04\n      0x00\n      swap1\n      sload\n      swap1\n      0x0100\n      exp\n      swap1\n      div\n      0xffffffffffffffffffffffffffffffffffffffff\n      and\n      dup2\n      jump\t// out\n        /* \"@openzeppelin/contracts/access/Ownable.sol\":2293:2394  function renounceOwnership() public virtual onlyOwner {... */\n    tag_29:\n        /* \"@openzeppelin/contracts/access/Ownable.sol\":1531:1544  _checkOwner() */\n      tag_88\n        /* \"@openzeppelin/contracts/access/Ownable.sol\":1531:1542  _checkOwner */\n      tag_62\n        /* \"@openzeppelin/contracts/access/Ownable.sol\":1531:1544  _checkOwner() */\n      jump\t// in\n    tag_88:\n        /* \"@openzeppelin/contracts/access/Ownable.sol\":2357:2387  _transferOwnership(address(0)) */\n      tag_90\n        /* \"@openzeppelin/contracts/access/Ownable.sol\":2384:2385  0 */\n      0x00\n        /* \"@openzeppelin/contracts/access/Ownable.sol\":2357:2375  _transferOwnership */\n      tag_91\n        /* \"@openzeppelin/contracts/access/Ownable.sol\":2357:2387  _transferOwnership(address(0)) */\n      jump\t// in\n    tag_90:\n        /* \"@openzeppelin/contracts/access/Ownable.sol\":2293:2394  function renounceOwnership() public virtual onlyOwner {... */\n      jump\t// out\n        /* \"@openzeppelin/contracts/access/Ownable.sol\":1638:1723  function owner() public view virtual returns (address) {... */\n    tag_31:\n        /* \"@openzeppelin/contracts/access/Ownable.sol\":1684:1691  address */\n      0x00\n        /* \"@openzeppelin/contracts/access/Ownable.sol\":1710:1716  _owner */\n      dup1\n      0x00\n      swap1\n      sload\n      swap1\n      0x0100\n      exp\n      swap1\n      div\n      0xffffffffffffffffffffffffffffffffffffffff\n      and\n        /* \"@openzeppelin/contracts/access/Ownable.sol\":1703:1716  return _owner */\n      swap1\n      pop\n        /* \"@openzeppelin/contracts/access/Ownable.sol\":1638:1723  function owner() public view virtual returns (address) {... */\n      swap1\n      jump\t// out\n        /* \"uen_management.sol\":3644:4019  function modify_uens(string[] memory _uens, string[] memory _names) external onlyOwner {... */\n    tag_36:\n        /* \"@openzeppelin/contracts/access/Ownable.sol\":1531:1544  _checkOwner() */\n      tag_94\n        /* \"@openzeppelin/contracts/access/Ownable.sol\":1531:1542  _checkOwner */\n      tag_62\n        /* \"@openzeppelin/contracts/access/Ownable.sol\":1531:1544  _checkOwner() */\n      jump\t// in\n    tag_94:\n        /* \"uen_management.sol\":3765:3771  _names */\n      dup1\n        /* \"uen_management.sol\":3765:3778  _names.length */\n      mload\n        /* \"uen_management.sol\":3749:3754  _uens */\n      dup3\n        /* \"uen_management.sol\":3749:3761  _uens.length */\n      mload\n        /* \"uen_management.sol\":3749:3778  _uens.length == _names.length */\n      eq\n        /* \"uen_management.sol\":3741:3817  require(_uens.length == _names.length, \"Mappings must have the same length\") */\n      tag_96\n      jumpi\n      mload(0x40)\n      0x08c379a000000000000000000000000000000000000000000000000000000000\n      dup2\n      mstore\n      0x04\n      add\n      tag_97\n      swap1\n      tag_98\n      jump\t// in\n    tag_97:\n      mload(0x40)\n      dup1\n      swap2\n      sub\n      swap1\n      revert\n    tag_96:\n        /* \"uen_management.sol\":3832:3841  uint256 i */\n      0x00\n        /* \"uen_management.sol\":3827:4013  for (uint256 i = 0; i < _uens.length; i++) {... */\n    tag_99:\n        /* \"uen_management.sol\":3851:3856  _uens */\n      dup3\n        /* \"uen_management.sol\":3851:3863  _uens.length */\n      mload\n        /* \"uen_management.sol\":3847:3848  i */\n      dup2\n        /* \"uen_management.sol\":3847:3863  i < _uens.length */\n      lt\n        /* \"uen_management.sol\":3827:4013  for (uint256 i = 0; i < _uens.length; i++) {... */\n      iszero\n      tag_100\n      jumpi\n        /* \"uen_management.sol\":3931:3932  0 */\n      0x00\n        /* \"uen_management.sol\":3898:3909  uen_to_name */\n      0x02\n        /* \"uen_management.sol\":3910:3915  _uens */\n      dup5\n        /* \"uen_management.sol\":3916:3917  i */\n      dup4\n        /* \"uen_management.sol\":3910:3918  _uens[i] */\n      dup2\n      mload\n      dup2\n      lt\n      tag_102\n      jumpi\n      tag_103\n      tag_69\n      jump\t// in\n    tag_103:\n    tag_102:\n      0x20\n      mul\n      0x20\n      add\n      add\n      mload\n        /* \"uen_management.sol\":3898:3919  uen_to_name[_uens[i]] */\n      mload(0x40)\n      tag_104\n      swap2\n      swap1\n      tag_71\n      jump\t// in\n    tag_104:\n      swap1\n      dup2\n      mstore\n      0x20\n      add\n      mload(0x40)\n      dup1\n      swap2\n      sub\n      swap1\n      keccak256\n        /* \"uen_management.sol\":3892:3927  bytes(uen_to_name[_uens[i]]).length */\n      dup1\n      sload\n      tag_105\n      swap1\n      tag_106\n      jump\t// in\n    tag_105:\n      swap1\n      pop\n        /* \"uen_management.sol\":3892:3932  bytes(uen_to_name[_uens[i]]).length != 0 */\n      sub\n        /* \"uen_management.sol\":3884:3955  require(bytes(uen_to_name[_uens[i]]).length != 0, \"UEN does not exist\") */\n      tag_107\n      jumpi\n      mload(0x40)\n      0x08c379a000000000000000000000000000000000000000000000000000000000\n      dup2\n      mstore\n      0x04\n      add\n      tag_108\n      swap1\n      tag_109\n      jump\t// in\n    tag_108:\n      mload(0x40)\n      dup1\n      swap2\n      sub\n      swap1\n      revert\n    tag_107:\n        /* \"uen_management.sol\":3993:3999  _names */\n      dup2\n        /* \"uen_management.sol\":4000:4001  i */\n      dup2\n        /* \"uen_management.sol\":3993:4002  _names[i] */\n      dup2\n      mload\n      dup2\n      lt\n      tag_110\n      jumpi\n      tag_111\n      tag_69\n      jump\t// in\n    tag_111:\n    tag_110:\n      0x20\n      mul\n      0x20\n      add\n      add\n      mload\n        /* \"uen_management.sol\":3969:3980  uen_to_name */\n      0x02\n        /* \"uen_management.sol\":3981:3986  _uens */\n      dup5\n        /* \"uen_management.sol\":3987:3988  i */\n      dup4\n        /* \"uen_management.sol\":3981:3989  _uens[i] */\n      dup2\n      mload\n      dup2\n      lt\n      tag_112\n      jumpi\n      tag_113\n      tag_69\n      jump\t// in\n    tag_113:\n    tag_112:\n      0x20\n      mul\n      0x20\n      add\n      add\n      mload\n        /* \"uen_management.sol\":3969:3990  uen_to_name[_uens[i]] */\n      mload(0x40)\n      tag_114\n      swap2\n      swap1\n      tag_71\n      jump\t// in\n    tag_114:\n      swap1\n      dup2\n      mstore\n      0x20\n      add\n      mload(0x40)\n      dup1\n      swap2\n      sub\n      swap1\n      keccak256\n        /* \"uen_management.sol\":3969:4002  uen_to_name[_uens[i]] = _names[i] */\n      swap1\n      dup2\n      tag_115\n      swap2\n      swap1\n      tag_81\n      jump\t// in\n    tag_115:\n      pop\n        /* \"uen_management.sol\":3865:3868  i++ */\n      dup1\n      dup1\n      0x01\n      add\n      swap2\n      pop\n      pop\n        /* \"uen_management.sol\":3827:4013  for (uint256 i = 0; i < _uens.length; i++) {... */\n      jump(tag_99)\n    tag_100:\n      pop\n        /* \"uen_management.sol\":3644:4019  function modify_uens(string[] memory _uens, string[] memory _names) external onlyOwner {... */\n      pop\n      pop\n      jump\t// out\n        /* \"uen_management.sol\":1447:1562  function get_name(string memory _uen) public view returns (string memory) {... */\n    tag_40:\n        /* \"uen_management.sol\":1506:1519  string memory */\n      0x60\n        /* \"uen_management.sol\":1538:1549  uen_to_name */\n      0x02\n        /* \"uen_management.sol\":1550:1554  _uen */\n      dup3\n        /* \"uen_management.sol\":1538:1555  uen_to_name[_uen] */\n      mload(0x40)\n      tag_117\n      swap2\n      swap1\n      tag_71\n      jump\t// in\n    tag_117:\n      swap1\n      dup2\n      mstore\n      0x20\n      add\n      mload(0x40)\n      dup1\n      swap2\n      sub\n      swap1\n      keccak256\n        /* \"uen_management.sol\":1531:1555  return uen_to_name[_uen] */\n      dup1\n      sload\n      tag_118\n      swap1\n      tag_106\n      jump\t// in\n    tag_118:\n      dup1\n      0x1f\n      add\n      0x20\n      dup1\n      swap2\n      div\n      mul\n      0x20\n      add\n      mload(0x40)\n      swap1\n      dup2\n      add\n      0x40\n      mstore\n      dup1\n      swap3\n      swap2\n      swap1\n      dup2\n      dup2\n      mstore\n      0x20\n      add\n      dup3\n      dup1\n      sload\n      tag_119\n      swap1\n      tag_106\n      jump\t// in\n    tag_119:\n      dup1\n      iszero\n      tag_120\n      jumpi\n      dup1\n      0x1f\n      lt\n      tag_121\n      jumpi\n      0x0100\n      dup1\n      dup4\n      sload\n      div\n      mul\n      dup4\n      mstore\n      swap2\n      0x20\n      add\n      swap2\n      jump(tag_120)\n    tag_121:\n      dup3\n      add\n      swap2\n      swap1\n      0x00\n      mstore\n      keccak256(0x00, 0x20)\n      swap1\n    tag_122:\n      dup2\n      sload\n      dup2\n      mstore\n      swap1\n      0x01\n      add\n      swap1\n      0x20\n      add\n      dup1\n      dup4\n      gt\n      tag_122\n      jumpi\n      dup3\n      swap1\n      sub\n      0x1f\n      and\n      dup3\n      add\n      swap2\n    tag_120:\n      pop\n      pop\n      pop\n      pop\n      pop\n      swap1\n      pop\n        /* \"uen_management.sol\":1447:1562  function get_name(string memory _uen) public view returns (string memory) {... */\n      swap2\n      swap1\n      pop\n      jump\t// out\n        /* \"uen_management.sol\":842:866  string[] public uen_list */\n    tag_45:\n      0x01\n      dup2\n      dup2\n      sload\n      dup2\n      lt\n      tag_123\n      jumpi\n      0x00\n      dup1\n      revert\n    tag_123:\n      swap1\n      0x00\n      mstore\n      keccak256(0x00, 0x20)\n      add\n      0x00\n      swap2\n      pop\n      swap1\n      pop\n      dup1\n      sload\n      tag_125\n      swap1\n      tag_106\n      jump\t// in\n    tag_125:\n      dup1\n      0x1f\n      add\n      0x20\n      dup1\n      swap2\n      div\n      mul\n      0x20\n      add\n      mload(0x40)\n      swap1\n      dup2\n      add\n      0x40\n      mstore\n      dup1\n      swap3\n      swap2\n      swap1\n      dup2\n      dup2\n      mstore\n      0x20\n      add\n      dup3\n      dup1\n      sload\n      tag_126\n      swap1\n      tag_106\n      jump\t// in\n    tag_126:\n      dup1\n      iszero\n      tag_127\n      jumpi\n      dup1\n      0x1f\n      lt\n      tag_128\n      jumpi\n      0x0100\n      dup1\n      dup4\n      sload\n      div\n      mul\n      dup4\n      mstore\n      swap2\n      0x20\n      add\n      swap2\n      jump(tag_127)\n    tag_128:\n      dup3\n      add\n      swap2\n      swap1\n      0x00\n      mstore\n      keccak256(0x00, 0x20)\n      swap1\n    tag_129:\n      dup2\n      sload\n      dup2\n      mstore\n      swap1\n      0x01\n      add\n      swap1\n      0x20\n      add\n      dup1\n      dup4\n      gt\n      tag_129\n      jumpi\n      dup3\n      swap1\n      sub\n      0x1f\n      and\n      dup3\n      add\n      swap2\n    tag_127:\n      pop\n      pop\n      pop\n      pop\n      pop\n      dup2\n      jump\t// out\n        /* \"uen_management.sol\":1630:1724  function get_all_uens() public view returns (string[] memory) {... */\n    tag_48:\n        /* \"uen_management.sol\":1675:1690  string[] memory */\n      0x60\n        /* \"uen_management.sol\":1709:1717  uen_list */\n      0x01\n        /* \"uen_management.sol\":1702:1717  return uen_list */\n      dup1\n      sload\n      dup1\n      0x20\n      mul\n      0x20\n      add\n      mload(0x40)\n      swap1\n      dup2\n      add\n      0x40\n      mstore\n      dup1\n      swap3\n      swap2\n      swap1\n      dup2\n      dup2\n      mstore\n      0x20\n      add\n      0x00\n      swap1\n    tag_131:\n      dup3\n      dup3\n      lt\n      iszero\n      tag_132\n      jumpi\n      dup4\n      dup3\n      swap1\n      0x00\n      mstore\n      keccak256(0x00, 0x20)\n      add\n      dup1\n      sload\n      tag_134\n      swap1\n      tag_106\n      jump\t// in\n    tag_134:\n      dup1\n      0x1f\n      add\n      0x20\n      dup1\n      swap2\n      div\n      mul\n      0x20\n      add\n      mload(0x40)\n      swap1\n      dup2\n      add\n      0x40\n      mstore\n      dup1\n      swap3\n      swap2\n      swap1\n      dup2\n      dup2\n      mstore\n      0x20\n      add\n      dup3\n      dup1\n      sload\n      tag_135\n      swap1\n      tag_106\n      jump\t// in\n    tag_135:\n      dup1\n      iszero\n      tag_136\n      jumpi\n      dup1\n      0x1f\n      lt\n      tag_137\n      jumpi\n      0x0100\n      dup1\n      dup4\n      sload\n      div\n      mul\n      dup4\n      mstore\n      swap2\n      0x20\n      add\n      swap2\n      jump(tag_136)\n    tag_137:\n      dup3\n      add\n      swap2\n      swap1\n      0x00\n      mstore\n      keccak256(0x00, 0x20)\n      swap1\n    tag_138:\n      dup2\n      sload\n      dup2\n      mstore\n      swap1\n      0x01\n      add\n      swap1\n      0x20\n      add\n      dup1\n      dup4\n      gt\n      tag_138\n      jumpi\n      dup3\n      swap1\n      sub\n      0x1f\n      and\n      dup3\n      add\n      swap2\n    tag_136:\n      pop\n      pop\n      pop\n      pop\n      pop\n      dup2\n      mstore\n      0x20\n      add\n      swap1\n      0x01\n      add\n      swap1\n      jump(tag_131)\n    tag_132:\n      pop\n      pop\n      pop\n      pop\n      swap1\n      pop\n        /* \"uen_management.sol\":1630:1724  function get_all_uens() public view returns (string[] memory) {... */\n      swap1\n      jump\t// out\n        /* \"@openzeppelin/contracts/access/Ownable.sol\":2543:2758  function transferOwnership(address newOwner) public virtual onlyOwner {... */\n    tag_54:\n        /* \"@openzeppelin/contracts/access/Ownable.sol\":1531:1544  _checkOwner() */\n      tag_140\n        /* \"@openzeppelin/contracts/access/Ownable.sol\":1531:1542  _checkOwner */\n      tag_62\n        /* \"@openzeppelin/contracts/access/Ownable.sol\":1531:1544  _checkOwner() */\n      jump\t// in\n    tag_140:\n        /* \"@openzeppelin/contracts/access/Ownable.sol\":2647:2648  0 */\n      0x00\n        /* \"@openzeppelin/contracts/access/Ownable.sol\":2627:2649  newOwner == address(0) */\n      0xffffffffffffffffffffffffffffffffffffffff\n      and\n        /* \"@openzeppelin/contracts/access/Ownable.sol\":2627:2635  newOwner */\n      dup2\n        /* \"@openzeppelin/contracts/access/Ownable.sol\":2627:2649  newOwner == address(0) */\n      0xffffffffffffffffffffffffffffffffffffffff\n      and\n      sub\n        /* \"@openzeppelin/contracts/access/Ownable.sol\":2623:2714  if (newOwner == address(0)) {... */\n      tag_142\n      jumpi\n        /* \"@openzeppelin/contracts/access/Ownable.sol\":2700:2701  0 */\n      0x00\n        /* \"@openzeppelin/contracts/access/Ownable.sol\":2672:2703  OwnableInvalidOwner(address(0)) */\n      mload(0x40)\n      0x1e4fbdf700000000000000000000000000000000000000000000000000000000\n      dup2\n      mstore\n      0x04\n      add\n      tag_143\n      swap2\n      swap1\n      tag_20\n      jump\t// in\n    tag_143:\n      mload(0x40)\n      dup1\n      swap2\n      sub\n      swap1\n      revert\n        /* \"@openzeppelin/contracts/access/Ownable.sol\":2623:2714  if (newOwner == address(0)) {... */\n    tag_142:\n        /* \"@openzeppelin/contracts/access/Ownable.sol\":2723:2751  _transferOwnership(newOwner) */\n      tag_144\n        /* \"@openzeppelin/contracts/access/Ownable.sol\":2742:2750  newOwner */\n      dup2\n        /* \"@openzeppelin/contracts/access/Ownable.sol\":2723:2741  _transferOwnership */\n      tag_91\n        /* \"@openzeppelin/contracts/access/Ownable.sol\":2723:2751  _transferOwnership(newOwner) */\n      jump\t// in\n    tag_144:\n        /* \"@openzeppelin/contracts/access/Ownable.sol\":2543:2758  function transferOwnership(address newOwner) public virtual onlyOwner {... */\n      pop\n      jump\t// out\n        /* \"uen_management.sol\":1985:2497  function add_uens(string[] memory _uens, string[] memory _names) external onlyOwner {... */\n    tag_57:\n        /* \"@openzeppelin/contracts/access/Ownable.sol\":1531:1544  _checkOwner() */\n      tag_146\n        /* \"@openzeppelin/contracts/access/Ownable.sol\":1531:1542  _checkOwner */\n      tag_62\n        /* \"@openzeppelin/contracts/access/Ownable.sol\":1531:1544  _checkOwner() */\n      jump\t// in\n    tag_146:\n        /* \"uen_management.sol\":2103:2109  _names */\n      dup1\n        /* \"uen_management.sol\":2103:2116  _names.length */\n      mload\n        /* \"uen_management.sol\":2087:2092  _uens */\n      dup3\n        /* \"uen_management.sol\":2087:2099  _uens.length */\n      mload\n        /* \"uen_management.sol\":2087:2116  _uens.length == _names.length */\n      eq\n        /* \"uen_management.sol\":2079:2155  require(_uens.length == _names.length, \"Mappings must have the same length\") */\n      tag_148\n      jumpi\n      mload(0x40)\n      0x08c379a000000000000000000000000000000000000000000000000000000000\n      dup2\n      mstore\n      0x04\n      add\n      tag_149\n      swap1\n      tag_98\n      jump\t// in\n    tag_149:\n      mload(0x40)\n      dup1\n      swap2\n      sub\n      swap1\n      revert\n    tag_148:\n        /* \"uen_management.sol\":2170:2179  uint256 i */\n      0x00\n        /* \"uen_management.sol\":2165:2446  for (uint256 i = 0; i < _uens.length; i++) {... */\n    tag_150:\n        /* \"uen_management.sol\":2189:2194  _uens */\n      dup3\n        /* \"uen_management.sol\":2189:2201  _uens.length */\n      mload\n        /* \"uen_management.sol\":2185:2186  i */\n      dup2\n        /* \"uen_management.sol\":2185:2201  i < _uens.length */\n      lt\n        /* \"uen_management.sol\":2165:2446  for (uint256 i = 0; i < _uens.length; i++) {... */\n      iszero\n      tag_151\n      jumpi\n        /* \"uen_management.sol\":2269:2270  0 */\n      0x00\n        /* \"uen_management.sol\":2236:2247  uen_to_name */\n      0x02\n        /* \"uen_management.sol\":2248:2253  _uens */\n      dup5\n        /* \"uen_management.sol\":2254:2255  i */\n      dup4\n        /* \"uen_management.sol\":2248:2256  _uens[i] */\n      dup2\n      mload\n      dup2\n      lt\n      tag_153\n      jumpi\n      tag_154\n      tag_69\n      jump\t// in\n    tag_154:\n    tag_153:\n      0x20\n      mul\n      0x20\n      add\n      add\n      mload\n        /* \"uen_management.sol\":2236:2257  uen_to_name[_uens[i]] */\n      mload(0x40)\n      tag_155\n      swap2\n      swap1\n      tag_71\n      jump\t// in\n    tag_155:\n      swap1\n      dup2\n      mstore\n      0x20\n      add\n      mload(0x40)\n      dup1\n      swap2\n      sub\n      swap1\n      keccak256\n        /* \"uen_management.sol\":2230:2265  bytes(uen_to_name[_uens[i]]).length */\n      dup1\n      sload\n      tag_156\n      swap1\n      tag_106\n      jump\t// in\n    tag_156:\n      swap1\n      pop\n        /* \"uen_management.sol\":2230:2270  bytes(uen_to_name[_uens[i]]).length == 0 */\n      eq\n        /* \"uen_management.sol\":2222:2293  require(bytes(uen_to_name[_uens[i]]).length == 0, \"UEN already exists\") */\n      tag_157\n      jumpi\n      mload(0x40)\n      0x08c379a000000000000000000000000000000000000000000000000000000000\n      dup2\n      mstore\n      0x04\n      add\n      tag_158\n      swap1\n      tag_159\n      jump\t// in\n    tag_158:\n      mload(0x40)\n      dup1\n      swap2\n      sub\n      swap1\n      revert\n    tag_157:\n        /* \"uen_management.sol\":2331:2337  _names */\n      dup2\n        /* \"uen_management.sol\":2338:2339  i */\n      dup2\n        /* \"uen_management.sol\":2331:2340  _names[i] */\n      dup2\n      mload\n      dup2\n      lt\n      tag_160\n      jumpi\n      tag_161\n      tag_69\n      jump\t// in\n    tag_161:\n    tag_160:\n      0x20\n      mul\n      0x20\n      add\n      add\n      mload\n        /* \"uen_management.sol\":2307:2318  uen_to_name */\n      0x02\n        /* \"uen_management.sol\":2319:2324  _uens */\n      dup5\n        /* \"uen_management.sol\":2325:2326  i */\n      dup4\n        /* \"uen_management.sol\":2319:2327  _uens[i] */\n      dup2\n      mload\n      dup2\n      lt\n      tag_162\n      jumpi\n      tag_163\n      tag_69\n      jump\t// in\n    tag_163:\n    tag_162:\n      0x20\n      mul\n      0x20\n      add\n      add\n      mload\n        /* \"uen_management.sol\":2307:2328  uen_to_name[_uens[i]] */\n      mload(0x40)\n      tag_164\n      swap2\n      swap1\n      tag_71\n      jump\t// in\n    tag_164:\n      swap1\n      dup2\n      mstore\n      0x20\n      add\n      mload(0x40)\n      dup1\n      swap2\n      sub\n      swap1\n      keccak256\n        /* \"uen_management.sol\":2307:2340  uen_to_name[_uens[i]] = _names[i] */\n      swap1\n      dup2\n      tag_165\n      swap2\n      swap1\n      tag_81\n      jump\t// in\n    tag_165:\n      pop\n        /* \"uen_management.sol\":2354:2362  uen_list */\n      0x01\n        /* \"uen_management.sol\":2368:2373  _uens */\n      dup4\n        /* \"uen_management.sol\":2374:2375  i */\n      dup3\n        /* \"uen_management.sol\":2368:2376  _uens[i] */\n      dup2\n      mload\n      dup2\n      lt\n      tag_166\n      jumpi\n      tag_167\n      tag_69\n      jump\t// in\n    tag_167:\n    tag_166:\n      0x20\n      mul\n      0x20\n      add\n      add\n      mload\n        /* \"uen_management.sol\":2354:2377  uen_list.push(_uens[i]) */\n      swap1\n      dup1\n      0x01\n      dup2\n      sload\n      add\n      dup1\n      dup3\n      sstore\n      dup1\n      swap2\n      pop\n      pop\n      0x01\n      swap1\n      sub\n      swap1\n      0x00\n      mstore\n      keccak256(0x00, 0x20)\n      add\n      0x00\n      swap1\n      swap2\n      swap1\n      swap2\n      swap1\n      swap2\n      pop\n      swap1\n      dup2\n      tag_169\n      swap2\n      swap1\n      tag_81\n      jump\t// in\n    tag_169:\n      pop\n        /* \"uen_management.sol\":2434:2435  1 */\n      0x01\n        /* \"uen_management.sol\":2416:2424  uen_list */\n      dup1\n        /* \"uen_management.sol\":2416:2431  uen_list.length */\n      dup1\n      sload\n      swap1\n      pop\n        /* \"uen_management.sol\":2416:2435  uen_list.length - 1 */\n      tag_170\n      swap2\n      swap1\n      tag_171\n      jump\t// in\n    tag_170:\n        /* \"uen_management.sol\":2391:2403  uen_to_index */\n      0x03\n        /* \"uen_management.sol\":2404:2409  _uens */\n      dup5\n        /* \"uen_management.sol\":2410:2411  i */\n      dup4\n        /* \"uen_management.sol\":2404:2412  _uens[i] */\n      dup2\n      mload\n      dup2\n      lt\n      tag_172\n      jumpi\n      tag_173\n      tag_69\n      jump\t// in\n    tag_173:\n    tag_172:\n      0x20\n      mul\n      0x20\n      add\n      add\n      mload\n        /* \"uen_management.sol\":2391:2413  uen_to_index[_uens[i]] */\n      mload(0x40)\n      tag_174\n      swap2\n      swap1\n      tag_71\n      jump\t// in\n    tag_174:\n      swap1\n      dup2\n      mstore\n      0x20\n      add\n      mload(0x40)\n      dup1\n      swap2\n      sub\n      swap1\n      keccak256\n        /* \"uen_management.sol\":2391:2435  uen_to_index[_uens[i]] = uen_list.length - 1 */\n      dup2\n      swap1\n      sstore\n      pop\n        /* \"uen_management.sol\":2203:2206  i++ */\n      dup1\n      dup1\n      0x01\n      add\n      swap2\n      pop\n      pop\n        /* \"uen_management.sol\":2165:2446  for (uint256 i = 0; i < _uens.length; i++) {... */\n      jump(tag_150)\n    tag_151:\n      pop\n        /* \"uen_management.sol\":2460:2490  uen_event(_uens, \"UENs added\") */\n      0x5462cca44bd73f863d8a33c18eddea04a24e4ac8e252404333dd97ac7a732ac8\n        /* \"uen_management.sol\":2470:2475  _uens */\n      dup3\n        /* \"uen_management.sol\":2460:2490  uen_event(_uens, \"UENs added\") */\n      mload(0x40)\n      tag_175\n      swap2\n      swap1\n      tag_176\n      jump\t// in\n    tag_175:\n      mload(0x40)\n      dup1\n      swap2\n      sub\n      swap1\n      log1\n        /* \"uen_management.sol\":1985:2497  function add_uens(string[] memory _uens, string[] memory _names) external onlyOwner {... */\n      pop\n      pop\n      jump\t// out\n        /* \"@openzeppelin/contracts/access/Ownable.sol\":1796:1958  function _checkOwner() internal view virtual {... */\n    tag_62:\n        /* \"@openzeppelin/contracts/access/Ownable.sol\":1866:1878  _msgSender() */\n      tag_178\n        /* \"@openzeppelin/contracts/access/Ownable.sol\":1866:1876  _msgSender */\n      tag_179\n        /* \"@openzeppelin/contracts/access/Ownable.sol\":1866:1878  _msgSender() */\n      jump\t// in\n    tag_178:\n        /* \"@openzeppelin/contracts/access/Ownable.sol\":1855:1878  owner() != _msgSender() */\n      0xffffffffffffffffffffffffffffffffffffffff\n      and\n        /* \"@openzeppelin/contracts/access/Ownable.sol\":1855:1862  owner() */\n      tag_180\n        /* \"@openzeppelin/contracts/access/Ownable.sol\":1855:1860  owner */\n      tag_31\n        /* \"@openzeppelin/contracts/access/Ownable.sol\":1855:1862  owner() */\n      jump\t// in\n    tag_180:\n        /* \"@openzeppelin/contracts/access/Ownable.sol\":1855:1878  owner() != _msgSender() */\n      0xffffffffffffffffffffffffffffffffffffffff\n      and\n      eq\n        /* \"@openzeppelin/contracts/access/Ownable.sol\":1851:1952  if (owner() != _msgSender()) {... */\n      tag_181\n      jumpi\n        /* \"@openzeppelin/contracts/access/Ownable.sol\":1928:1940  _msgSender() */\n      tag_182\n        /* \"@openzeppelin/contracts/access/Ownable.sol\":1928:1938  _msgSender */\n      tag_179\n        /* \"@openzeppelin/contracts/access/Ownable.sol\":1928:1940  _msgSender() */\n      jump\t// in\n    tag_182:\n        /* \"@openzeppelin/contracts/access/Ownable.sol\":1901:1941  OwnableUnauthorizedAccount(_msgSender()) */\n      mload(0x40)\n      0x118cdaa700000000000000000000000000000000000000000000000000000000\n      dup2\n      mstore\n      0x04\n      add\n      tag_183\n      swap2\n      swap1\n      tag_20\n      jump\t// in\n    tag_183:\n      mload(0x40)\n      dup1\n      swap2\n      sub\n      swap1\n      revert\n        /* \"@openzeppelin/contracts/access/Ownable.sol\":1851:1952  if (owner() != _msgSender()) {... */\n    tag_181:\n        /* \"@openzeppelin/contracts/access/Ownable.sol\":1796:1958  function _checkOwner() internal view virtual {... */\n      jump\t// out\n        /* \"@openzeppelin/contracts/access/Ownable.sol\":2912:3099  function _transferOwnership(address newOwner) internal virtual {... */\n    tag_91:\n        /* \"@openzeppelin/contracts/access/Ownable.sol\":2985:3001  address oldOwner */\n      0x00\n        /* \"@openzeppelin/contracts/access/Ownable.sol\":3004:3010  _owner */\n      dup1\n      0x00\n      swap1\n      sload\n      swap1\n      0x0100\n      exp\n      swap1\n      div\n      0xffffffffffffffffffffffffffffffffffffffff\n      and\n        /* \"@openzeppelin/contracts/access/Ownable.sol\":2985:3010  address oldOwner = _owner */\n      swap1\n      pop\n        /* \"@openzeppelin/contracts/access/Ownable.sol\":3029:3037  newOwner */\n      dup2\n        /* \"@openzeppelin/contracts/access/Ownable.sol\":3020:3026  _owner */\n      0x00\n      dup1\n        /* \"@openzeppelin/contracts/access/Ownable.sol\":3020:3037  _owner = newOwner */\n      0x0100\n      exp\n      dup2\n      sload\n      dup2\n      0xffffffffffffffffffffffffffffffffffffffff\n      mul\n      not\n      and\n      swap1\n      dup4\n      0xffffffffffffffffffffffffffffffffffffffff\n      and\n      mul\n      or\n      swap1\n      sstore\n      pop\n        /* \"@openzeppelin/contracts/access/Ownable.sol\":3083:3091  newOwner */\n      dup2\n        /* \"@openzeppelin/contracts/access/Ownable.sol\":3052:3092  OwnershipTransferred(oldOwner, newOwner) */\n      0xffffffffffffffffffffffffffffffffffffffff\n      and\n        /* \"@openzeppelin/contracts/access/Ownable.sol\":3073:3081  oldOwner */\n      dup2\n        /* \"@openzeppelin/contracts/access/Ownable.sol\":3052:3092  OwnershipTransferred(oldOwner, newOwner) */\n      0xffffffffffffffffffffffffffffffffffffffff\n      and\n      0x8be0079c531659141344cd1fd0a4f28419497f9722a3daafe3b4186f6b6457e0\n      mload(0x40)\n      mload(0x40)\n      dup1\n      swap2\n      sub\n      swap1\n      log3\n        /* \"@openzeppelin/contracts/access/Ownable.sol\":2975:3099  {... */\n      pop\n        /* \"@openzeppelin/contracts/access/Ownable.sol\":2912:3099  function _transferOwnership(address newOwner) internal virtual {... */\n      pop\n      jump\t// out\n        /* \"@openzeppelin/contracts/utils/Context.sol\":656:752  function _msgSender() internal view virtual returns (address) {... */\n    tag_179:\n        /* \"@openzeppelin/contracts/utils/Context.sol\":709:716  address */\n      0x00\n        /* \"@openzeppelin/contracts/utils/Context.sol\":735:745  msg.sender */\n      caller\n        /* \"@openzeppelin/contracts/utils/Context.sol\":728:745  return msg.sender */\n      swap1\n      pop\n        /* \"@openzeppelin/contracts/utils/Context.sol\":656:752  function _msgSender() internal view virtual returns (address) {... */\n      swap1\n      jump\t// out\n    tag_73:\n      pop\n      dup1\n      sload\n      tag_186\n      swap1\n      tag_106\n      jump\t// in\n    tag_186:\n      0x00\n      dup3\n      sstore\n      dup1\n      0x1f\n      lt\n      tag_188\n      jumpi\n      pop\n      jump(tag_187)\n    tag_188:\n      0x1f\n      add\n      0x20\n      swap1\n      div\n      swap1\n      0x00\n      mstore\n      keccak256(0x00, 0x20)\n      swap1\n      dup2\n      add\n      swap1\n      tag_189\n      swap2\n      swap1\n      tag_190\n      jump\t// in\n    tag_189:\n    tag_187:\n      pop\n      jump\t// out\n    tag_190:\n    tag_191:\n      dup1\n      dup3\n      gt\n      iszero\n      tag_192\n      jumpi\n      0x00\n      dup2\n      0x00\n      swap1\n      sstore\n      pop\n      0x01\n      add\n      jump(tag_191)\n    tag_192:\n      pop\n      swap1\n      jump\t// out\n        /* \"#utility.yul\":7:82   */\n    tag_193:\n        /* \"#utility.yul\":40:46   */\n      0x00\n        /* \"#utility.yul\":73:75   */\n      0x40\n        /* \"#utility.yul\":67:76   */\n      mload\n        /* \"#utility.yul\":57:76   */\n      swap1\n      pop\n        /* \"#utility.yul\":7:82   */\n      swap1\n      jump\t// out\n        /* \"#utility.yul\":88:205   */\n    tag_194:\n        /* \"#utility.yul\":197:198   */\n      0x00\n        /* \"#utility.yul\":194:195   */\n      dup1\n        /* \"#utility.yul\":187:199   */\n      revert\n        /* \"#utility.yul\":211:328   */\n    tag_195:\n        /* \"#utility.yul\":320:321   */\n      0x00\n        /* \"#utility.yul\":317:318   */\n      dup1\n        /* \"#utility.yul\":310:322   */\n      revert\n        /* \"#utility.yul\":334:411   */\n    tag_196:\n        /* \"#utility.yul\":371:378   */\n      0x00\n        /* \"#utility.yul\":400:405   */\n      dup2\n        /* \"#utility.yul\":389:405   */\n      swap1\n      pop\n        /* \"#utility.yul\":334:411   */\n      swap2\n      swap1\n      pop\n      jump\t// out\n        /* \"#utility.yul\":417:539   */\n    tag_197:\n        /* \"#utility.yul\":490:514   */\n      tag_265\n        /* \"#utility.yul\":508:513   */\n      dup2\n        /* \"#utility.yul\":490:514   */\n      tag_196\n      jump\t// in\n    tag_265:\n        /* \"#utility.yul\":483:488   */\n      dup2\n        /* \"#utility.yul\":480:515   */\n      eq\n        /* \"#utility.yul\":470:533   */\n      tag_266\n      jumpi\n        /* \"#utility.yul\":529:530   */\n      0x00\n        /* \"#utility.yul\":526:527   */\n      dup1\n        /* \"#utility.yul\":519:531   */\n      revert\n        /* \"#utility.yul\":470:533   */\n    tag_266:\n        /* \"#utility.yul\":417:539   */\n      pop\n      jump\t// out\n        /* \"#utility.yul\":545:684   */\n    tag_198:\n        /* \"#utility.yul\":591:596   */\n      0x00\n        /* \"#utility.yul\":629:635   */\n      dup2\n        /* \"#utility.yul\":616:636   */\n      calldataload\n        /* \"#utility.yul\":607:636   */\n      swap1\n      pop\n        /* \"#utility.yul\":645:678   */\n      tag_268\n        /* \"#utility.yul\":672:677   */\n      dup2\n        /* \"#utility.yul\":645:678   */\n      tag_197\n      jump\t// in\n    tag_268:\n        /* \"#utility.yul\":545:684   */\n      swap3\n      swap2\n      pop\n      pop\n      jump\t// out\n        /* \"#utility.yul\":690:1019   */\n    tag_17:\n        /* \"#utility.yul\":749:755   */\n      0x00\n        /* \"#utility.yul\":798:800   */\n      0x20\n        /* \"#utility.yul\":786:795   */\n      dup3\n        /* \"#utility.yul\":777:784   */\n      dup5\n        /* \"#utility.yul\":773:796   */\n      sub\n        /* \"#utility.yul\":769:801   */\n      slt\n        /* \"#utility.yul\":766:885   */\n      iszero\n      tag_270\n      jumpi\n        /* \"#utility.yul\":804:883   */\n      tag_271\n      tag_194\n      jump\t// in\n    tag_271:\n        /* \"#utility.yul\":766:885   */\n    tag_270:\n        /* \"#utility.yul\":924:925   */\n      0x00\n        /* \"#utility.yul\":949:1002   */\n      tag_272\n        /* \"#utility.yul\":994:1001   */\n      dup5\n        /* \"#utility.yul\":985:991   */\n      dup3\n        /* \"#utility.yul\":974:983   */\n      dup6\n        /* \"#utility.yul\":970:992   */\n      add\n        /* \"#utility.yul\":949:1002   */\n      tag_198\n      jump\t// in\n    tag_272:\n        /* \"#utility.yul\":939:1002   */\n      swap2\n      pop\n        /* \"#utility.yul\":895:1012   */\n      pop\n        /* \"#utility.yul\":690:1019   */\n      swap3\n      swap2\n      pop\n      pop\n      jump\t// out\n        /* \"#utility.yul\":1025:1151   */\n    tag_199:\n        /* \"#utility.yul\":1062:1069   */\n      0x00\n        /* \"#utility.yul\":1102:1144   */\n      0xffffffffffffffffffffffffffffffffffffffff\n        /* \"#utility.yul\":1095:1100   */\n      dup3\n        /* \"#utility.yul\":1091:1145   */\n      and\n        /* \"#utility.yul\":1080:1145   */\n      swap1\n      pop\n        /* \"#utility.yul\":1025:1151   */\n      swap2\n      swap1\n      pop\n      jump\t// out\n        /* \"#utility.yul\":1157:1253   */\n    tag_200:\n        /* \"#utility.yul\":1194:1201   */\n      0x00\n        /* \"#utility.yul\":1223:1247   */\n      tag_275\n        /* \"#utility.yul\":1241:1246   */\n      dup3\n        /* \"#utility.yul\":1223:1247   */\n      tag_199\n      jump\t// in\n    tag_275:\n        /* \"#utility.yul\":1212:1247   */\n      swap1\n      pop\n        /* \"#utility.yul\":1157:1253   */\n      swap2\n      swap1\n      pop\n      jump\t// out\n        /* \"#utility.yul\":1259:1377   */\n    tag_201:\n        /* \"#utility.yul\":1346:1370   */\n      tag_277\n        /* \"#utility.yul\":1364:1369   */\n      dup2\n        /* \"#utility.yul\":1346:1370   */\n      tag_200\n      jump\t// in\n    tag_277:\n        /* \"#utility.yul\":1341:1344   */\n      dup3\n        /* \"#utility.yul\":1334:1371   */\n      mstore\n        /* \"#utility.yul\":1259:1377   */\n      pop\n      pop\n      jump\t// out\n        /* \"#utility.yul\":1383:1605   */\n    tag_20:\n        /* \"#utility.yul\":1476:1480   */\n      0x00\n        /* \"#utility.yul\":1514:1516   */\n      0x20\n        /* \"#utility.yul\":1503:1512   */\n      dup3\n        /* \"#utility.yul\":1499:1517   */\n      add\n        /* \"#utility.yul\":1491:1517   */\n      swap1\n      pop\n        /* \"#utility.yul\":1527:1598   */\n      tag_279\n        /* \"#utility.yul\":1595:1596   */\n      0x00\n        /* \"#utility.yul\":1584:1593   */\n      dup4\n        /* \"#utility.yul\":1580:1597   */\n      add\n        /* \"#utility.yul\":1571:1577   */\n      dup5\n        /* \"#utility.yul\":1527:1598   */\n      tag_201\n      jump\t// in\n    tag_279:\n        /* \"#utility.yul\":1383:1605   */\n      swap3\n      swap2\n      pop\n      pop\n      jump\t// out\n        /* \"#utility.yul\":1611:1728   */\n    tag_202:\n        /* \"#utility.yul\":1720:1721   */\n      0x00\n        /* \"#utility.yul\":1717:1718   */\n      dup1\n        /* \"#utility.yul\":1710:1722   */\n      revert\n        /* \"#utility.yul\":1734:1836   */\n    tag_203:\n        /* \"#utility.yul\":1775:1781   */\n      0x00\n        /* \"#utility.yul\":1826:1828   */\n      0x1f\n        /* \"#utility.yul\":1822:1829   */\n      not\n        /* \"#utility.yul\":1817:1819   */\n      0x1f\n        /* \"#utility.yul\":1810:1815   */\n      dup4\n        /* \"#utility.yul\":1806:1820   */\n      add\n        /* \"#utility.yul\":1802:1830   */\n      and\n        /* \"#utility.yul\":1792:1830   */\n      swap1\n      pop\n        /* \"#utility.yul\":1734:1836   */\n      swap2\n      swap1\n      pop\n      jump\t// out\n        /* \"#utility.yul\":1842:2022   */\n    tag_204:\n        /* \"#utility.yul\":1890:1967   */\n      0x4e487b7100000000000000000000000000000000000000000000000000000000\n        /* \"#utility.yul\":1887:1888   */\n      0x00\n        /* \"#utility.yul\":1880:1968   */\n      mstore\n        /* \"#utility.yul\":1987:1991   */\n      0x41\n        /* \"#utility.yul\":1984:1985   */\n      0x04\n        /* \"#utility.yul\":1977:1992   */\n      mstore\n        /* \"#utility.yul\":2011:2015   */\n      0x24\n        /* \"#utility.yul\":2008:2009   */\n      0x00\n        /* \"#utility.yul\":2001:2016   */\n      revert\n        /* \"#utility.yul\":2028:2309   */\n    tag_205:\n        /* \"#utility.yul\":2111:2138   */\n      tag_284\n        /* \"#utility.yul\":2133:2137   */\n      dup3\n        /* \"#utility.yul\":2111:2138   */\n      tag_203\n      jump\t// in\n    tag_284:\n        /* \"#utility.yul\":2103:2109   */\n      dup2\n        /* \"#utility.yul\":2099:2139   */\n      add\n        /* \"#utility.yul\":2241:2247   */\n      dup2\n        /* \"#utility.yul\":2229:2239   */\n      dup2\n        /* \"#utility.yul\":2226:2248   */\n      lt\n        /* \"#utility.yul\":2205:2223   */\n      0xffffffffffffffff\n        /* \"#utility.yul\":2193:2203   */\n      dup3\n        /* \"#utility.yul\":2190:2224   */\n      gt\n        /* \"#utility.yul\":2187:2249   */\n      or\n        /* \"#utility.yul\":2184:2272   */\n      iszero\n      tag_285\n      jumpi\n        /* \"#utility.yul\":2252:2270   */\n      tag_286\n      tag_204\n      jump\t// in\n    tag_286:\n        /* \"#utility.yul\":2184:2272   */\n    tag_285:\n        /* \"#utility.yul\":2292:2302   */\n      dup1\n        /* \"#utility.yul\":2288:2290   */\n      0x40\n        /* \"#utility.yul\":2281:2303   */\n      mstore\n        /* \"#utility.yul\":2071:2309   */\n      pop\n        /* \"#utility.yul\":2028:2309   */\n      pop\n      pop\n      jump\t// out\n        /* \"#utility.yul\":2315:2444   */\n    tag_206:\n        /* \"#utility.yul\":2349:2355   */\n      0x00\n        /* \"#utility.yul\":2376:2396   */\n      tag_288\n      tag_193\n      jump\t// in\n    tag_288:\n        /* \"#utility.yul\":2366:2396   */\n      swap1\n      pop\n        /* \"#utility.yul\":2405:2438   */\n      tag_289\n        /* \"#utility.yul\":2433:2437   */\n      dup3\n        /* \"#utility.yul\":2425:2431   */\n      dup3\n        /* \"#utility.yul\":2405:2438   */\n      tag_205\n      jump\t// in\n    tag_289:\n        /* \"#utility.yul\":2315:2444   */\n      swap2\n      swap1\n      pop\n      jump\t// out\n        /* \"#utility.yul\":2450:2771   */\n    tag_207:\n        /* \"#utility.yul\":2537:2541   */\n      0x00\n        /* \"#utility.yul\":2627:2645   */\n      0xffffffffffffffff\n        /* \"#utility.yul\":2619:2625   */\n      dup3\n        /* \"#utility.yul\":2616:2646   */\n      gt\n        /* \"#utility.yul\":2613:2669   */\n      iszero\n      tag_291\n      jumpi\n        /* \"#utility.yul\":2649:2667   */\n      tag_292\n      tag_204\n      jump\t// in\n    tag_292:\n        /* \"#utility.yul\":2613:2669   */\n    tag_291:\n        /* \"#utility.yul\":2699:2703   */\n      0x20\n        /* \"#utility.yul\":2691:2697   */\n      dup3\n        /* \"#utility.yul\":2687:2704   */\n      mul\n        /* \"#utility.yul\":2679:2704   */\n      swap1\n      pop\n        /* \"#utility.yul\":2759:2763   */\n      0x20\n        /* \"#utility.yul\":2753:2757   */\n      dup2\n        /* \"#utility.yul\":2749:2764   */\n      add\n        /* \"#utility.yul\":2741:2764   */\n      swap1\n      pop\n        /* \"#utility.yul\":2450:2771   */\n      swap2\n      swap1\n      pop\n      jump\t// out\n        /* \"#utility.yul\":2777:2894   */\n    tag_208:\n        /* \"#utility.yul\":2886:2887   */\n      0x00\n        /* \"#utility.yul\":2883:2884   */\n      dup1\n        /* \"#utility.yul\":2876:2888   */\n      revert\n        /* \"#utility.yul\":2900:3017   */\n    tag_209:\n        /* \"#utility.yul\":3009:3010   */\n      0x00\n        /* \"#utility.yul\":3006:3007   */\n      dup1\n        /* \"#utility.yul\":2999:3011   */\n      revert\n        /* \"#utility.yul\":3023:3331   */\n    tag_210:\n        /* \"#utility.yul\":3085:3089   */\n      0x00\n        /* \"#utility.yul\":3175:3193   */\n      0xffffffffffffffff\n        /* \"#utility.yul\":3167:3173   */\n      dup3\n        /* \"#utility.yul\":3164:3194   */\n      gt\n        /* \"#utility.yul\":3161:3217   */\n      iszero\n      tag_296\n      jumpi\n        /* \"#utility.yul\":3197:3215   */\n      tag_297\n      tag_204\n      jump\t// in\n    tag_297:\n        /* \"#utility.yul\":3161:3217   */\n    tag_296:\n        /* \"#utility.yul\":3235:3264   */\n      tag_298\n        /* \"#utility.yul\":3257:3263   */\n      dup3\n        /* \"#utility.yul\":3235:3264   */\n      tag_203\n      jump\t// in\n    tag_298:\n        /* \"#utility.yul\":3227:3264   */\n      swap1\n      pop\n        /* \"#utility.yul\":3319:3323   */\n      0x20\n        /* \"#utility.yul\":3313:3317   */\n      dup2\n        /* \"#utility.yul\":3309:3324   */\n      add\n        /* \"#utility.yul\":3301:3324   */\n      swap1\n      pop\n        /* \"#utility.yul\":3023:3331   */\n      swap2\n      swap1\n      pop\n      jump\t// out\n        /* \"#utility.yul\":3337:3483   */\n    tag_211:\n        /* \"#utility.yul\":3434:3440   */\n      dup3\n        /* \"#utility.yul\":3429:3432   */\n      dup2\n        /* \"#utility.yul\":3424:3427   */\n      dup4\n        /* \"#utility.yul\":3411:3441   */\n      calldatacopy\n        /* \"#utility.yul\":3475:3476   */\n      0x00\n        /* \"#utility.yul\":3466:3472   */\n      dup4\n        /* \"#utility.yul\":3461:3464   */\n      dup4\n        /* \"#utility.yul\":3457:3473   */\n      add\n        /* \"#utility.yul\":3450:3477   */\n      mstore\n        /* \"#utility.yul\":3337:3483   */\n      pop\n      pop\n      pop\n      jump\t// out\n        /* \"#utility.yul\":3489:3914   */\n    tag_212:\n        /* \"#utility.yul\":3567:3572   */\n      0x00\n        /* \"#utility.yul\":3592:3658   */\n      tag_301\n        /* \"#utility.yul\":3608:3657   */\n      tag_302\n        /* \"#utility.yul\":3650:3656   */\n      dup5\n        /* \"#utility.yul\":3608:3657   */\n      tag_210\n      jump\t// in\n    tag_302:\n        /* \"#utility.yul\":3592:3658   */\n      tag_206\n      jump\t// in\n    tag_301:\n        /* \"#utility.yul\":3583:3658   */\n      swap1\n      pop\n        /* \"#utility.yul\":3681:3687   */\n      dup3\n        /* \"#utility.yul\":3674:3679   */\n      dup2\n        /* \"#utility.yul\":3667:3688   */\n      mstore\n        /* \"#utility.yul\":3719:3723   */\n      0x20\n        /* \"#utility.yul\":3712:3717   */\n      dup2\n        /* \"#utility.yul\":3708:3724   */\n      add\n        /* \"#utility.yul\":3757:3760   */\n      dup5\n        /* \"#utility.yul\":3748:3754   */\n      dup5\n        /* \"#utility.yul\":3743:3746   */\n      dup5\n        /* \"#utility.yul\":3739:3755   */\n      add\n        /* \"#utility.yul\":3736:3761   */\n      gt\n        /* \"#utility.yul\":3733:3845   */\n      iszero\n      tag_303\n      jumpi\n        /* \"#utility.yul\":3764:3843   */\n      tag_304\n      tag_209\n      jump\t// in\n    tag_304:\n        /* \"#utility.yul\":3733:3845   */\n    tag_303:\n        /* \"#utility.yul\":3854:3908   */\n      tag_305\n        /* \"#utility.yul\":3901:3907   */\n      dup5\n        /* \"#utility.yul\":3896:3899   */\n      dup3\n        /* \"#utility.yul\":3891:3894   */\n      dup6\n        /* \"#utility.yul\":3854:3908   */\n      tag_211\n      jump\t// in\n    tag_305:\n        /* \"#utility.yul\":3573:3914   */\n      pop\n        /* \"#utility.yul\":3489:3914   */\n      swap4\n      swap3\n      pop\n      pop\n      pop\n      jump\t// out\n        /* \"#utility.yul\":3934:4274   */\n    tag_213:\n        /* \"#utility.yul\":3990:3995   */\n      0x00\n        /* \"#utility.yul\":4039:4042   */\n      dup3\n        /* \"#utility.yul\":4032:4036   */\n      0x1f\n        /* \"#utility.yul\":4024:4030   */\n      dup4\n        /* \"#utility.yul\":4020:4037   */\n      add\n        /* \"#utility.yul\":4016:4043   */\n      slt\n        /* \"#utility.yul\":4006:4128   */\n      tag_307\n      jumpi\n        /* \"#utility.yul\":4047:4126   */\n      tag_308\n      tag_202\n      jump\t// in\n    tag_308:\n        /* \"#utility.yul\":4006:4128   */\n    tag_307:\n        /* \"#utility.yul\":4164:4170   */\n      dup2\n        /* \"#utility.yul\":4151:4171   */\n      calldataload\n        /* \"#utility.yul\":4189:4268   */\n      tag_309\n        /* \"#utility.yul\":4264:4267   */\n      dup5\n        /* \"#utility.yul\":4256:4262   */\n      dup3\n        /* \"#utility.yul\":4249:4253   */\n      0x20\n        /* \"#utility.yul\":4241:4247   */\n      dup7\n        /* \"#utility.yul\":4237:4254   */\n      add\n        /* \"#utility.yul\":4189:4268   */\n      tag_212\n      jump\t// in\n    tag_309:\n        /* \"#utility.yul\":4180:4268   */\n      swap2\n      pop\n        /* \"#utility.yul\":3996:4274   */\n      pop\n        /* \"#utility.yul\":3934:4274   */\n      swap3\n      swap2\n      pop\n      pop\n      jump\t// out\n        /* \"#utility.yul\":4296:5241   */\n    tag_214:\n        /* \"#utility.yul\":4402:4407   */\n      0x00\n        /* \"#utility.yul\":4427:4518   */\n      tag_311\n        /* \"#utility.yul\":4443:4517   */\n      tag_312\n        /* \"#utility.yul\":4510:4516   */\n      dup5\n        /* \"#utility.yul\":4443:4517   */\n      tag_207\n      jump\t// in\n    tag_312:\n        /* \"#utility.yul\":4427:4518   */\n      tag_206\n      jump\t// in\n    tag_311:\n        /* \"#utility.yul\":4418:4518   */\n      swap1\n      pop\n        /* \"#utility.yul\":4538:4543   */\n      dup1\n        /* \"#utility.yul\":4567:4573   */\n      dup4\n        /* \"#utility.yul\":4560:4565   */\n      dup3\n        /* \"#utility.yul\":4553:4574   */\n      mstore\n        /* \"#utility.yul\":4601:4605   */\n      0x20\n        /* \"#utility.yul\":4594:4599   */\n      dup3\n        /* \"#utility.yul\":4590:4606   */\n      add\n        /* \"#utility.yul\":4583:4606   */\n      swap1\n      pop\n        /* \"#utility.yul\":4654:4658   */\n      0x20\n        /* \"#utility.yul\":4646:4652   */\n      dup5\n        /* \"#utility.yul\":4642:4659   */\n      mul\n        /* \"#utility.yul\":4634:4640   */\n      dup4\n        /* \"#utility.yul\":4630:4660   */\n      add\n        /* \"#utility.yul\":4683:4686   */\n      dup6\n        /* \"#utility.yul\":4675:4681   */\n      dup2\n        /* \"#utility.yul\":4672:4687   */\n      gt\n        /* \"#utility.yul\":4669:4791   */\n      iszero\n      tag_313\n      jumpi\n        /* \"#utility.yul\":4702:4781   */\n      tag_314\n      tag_208\n      jump\t// in\n    tag_314:\n        /* \"#utility.yul\":4669:4791   */\n    tag_313:\n        /* \"#utility.yul\":4817:4823   */\n      dup4\n        /* \"#utility.yul\":4800:5235   */\n    tag_315:\n        /* \"#utility.yul\":4834:4840   */\n      dup2\n        /* \"#utility.yul\":4829:4832   */\n      dup2\n        /* \"#utility.yul\":4826:4841   */\n      lt\n        /* \"#utility.yul\":4800:5235   */\n      iszero\n      tag_317\n      jumpi\n        /* \"#utility.yul\":4923:4926   */\n      dup1\n        /* \"#utility.yul\":4910:4927   */\n      calldataload\n        /* \"#utility.yul\":4959:4977   */\n      0xffffffffffffffff\n        /* \"#utility.yul\":4946:4957   */\n      dup2\n        /* \"#utility.yul\":4943:4978   */\n      gt\n        /* \"#utility.yul\":4940:5062   */\n      iszero\n      tag_318\n      jumpi\n        /* \"#utility.yul\":4981:5060   */\n      tag_319\n      tag_202\n      jump\t// in\n    tag_319:\n        /* \"#utility.yul\":4940:5062   */\n    tag_318:\n        /* \"#utility.yul\":5105:5116   */\n      dup1\n        /* \"#utility.yul\":5097:5103   */\n      dup7\n        /* \"#utility.yul\":5093:5117   */\n      add\n        /* \"#utility.yul\":5143:5190   */\n      tag_320\n        /* \"#utility.yul\":5186:5189   */\n      dup10\n        /* \"#utility.yul\":5174:5184   */\n      dup3\n        /* \"#utility.yul\":5143:5190   */\n      tag_213\n      jump\t// in\n    tag_320:\n        /* \"#utility.yul\":5138:5141   */\n      dup6\n        /* \"#utility.yul\":5131:5191   */\n      mstore\n        /* \"#utility.yul\":5220:5224   */\n      0x20\n        /* \"#utility.yul\":5215:5218   */\n      dup6\n        /* \"#utility.yul\":5211:5225   */\n      add\n        /* \"#utility.yul\":5204:5225   */\n      swap5\n      pop\n        /* \"#utility.yul\":4876:5235   */\n      pop\n      pop\n        /* \"#utility.yul\":4860:4864   */\n      0x20\n        /* \"#utility.yul\":4855:4858   */\n      dup2\n        /* \"#utility.yul\":4851:4865   */\n      add\n        /* \"#utility.yul\":4844:4865   */\n      swap1\n      pop\n        /* \"#utility.yul\":4800:5235   */\n      jump(tag_315)\n    tag_317:\n        /* \"#utility.yul\":4804:4825   */\n      pop\n        /* \"#utility.yul\":4408:5241   */\n      pop\n      pop\n        /* \"#utility.yul\":4296:5241   */\n      swap4\n      swap3\n      pop\n      pop\n      pop\n      jump\t// out\n        /* \"#utility.yul\":5263:5653   */\n    tag_215:\n        /* \"#utility.yul\":5344:5349   */\n      0x00\n        /* \"#utility.yul\":5393:5396   */\n      dup3\n        /* \"#utility.yul\":5386:5390   */\n      0x1f\n        /* \"#utility.yul\":5378:5384   */\n      dup4\n        /* \"#utility.yul\":5374:5391   */\n      add\n        /* \"#utility.yul\":5370:5397   */\n      slt\n        /* \"#utility.yul\":5360:5482   */\n      tag_322\n      jumpi\n        /* \"#utility.yul\":5401:5480   */\n      tag_323\n      tag_202\n      jump\t// in\n    tag_323:\n        /* \"#utility.yul\":5360:5482   */\n    tag_322:\n        /* \"#utility.yul\":5518:5524   */\n      dup2\n        /* \"#utility.yul\":5505:5525   */\n      calldataload\n        /* \"#utility.yul\":5543:5647   */\n      tag_324\n        /* \"#utility.yul\":5643:5646   */\n      dup5\n        /* \"#utility.yul\":5635:5641   */\n      dup3\n        /* \"#utility.yul\":5628:5632   */\n      0x20\n        /* \"#utility.yul\":5620:5626   */\n      dup7\n        /* \"#utility.yul\":5616:5633   */\n      add\n        /* \"#utility.yul\":5543:5647   */\n      tag_214\n      jump\t// in\n    tag_324:\n        /* \"#utility.yul\":5534:5647   */\n      swap2\n      pop\n        /* \"#utility.yul\":5350:5653   */\n      pop\n        /* \"#utility.yul\":5263:5653   */\n      swap3\n      swap2\n      pop\n      pop\n      jump\t// out\n        /* \"#utility.yul\":5659:6218   */\n    tag_23:\n        /* \"#utility.yul\":5753:5759   */\n      0x00\n        /* \"#utility.yul\":5802:5804   */\n      0x20\n        /* \"#utility.yul\":5790:5799   */\n      dup3\n        /* \"#utility.yul\":5781:5788   */\n      dup5\n        /* \"#utility.yul\":5777:5800   */\n      sub\n        /* \"#utility.yul\":5773:5805   */\n      slt\n        /* \"#utility.yul\":5770:5889   */\n      iszero\n      tag_326\n      jumpi\n        /* \"#utility.yul\":5808:5887   */\n      tag_327\n      tag_194\n      jump\t// in\n    tag_327:\n        /* \"#utility.yul\":5770:5889   */\n    tag_326:\n        /* \"#utility.yul\":5956:5957   */\n      0x00\n        /* \"#utility.yul\":5945:5954   */\n      dup3\n        /* \"#utility.yul\":5941:5958   */\n      add\n        /* \"#utility.yul\":5928:5959   */\n      calldataload\n        /* \"#utility.yul\":5986:6004   */\n      0xffffffffffffffff\n        /* \"#utility.yul\":5978:5984   */\n      dup2\n        /* \"#utility.yul\":5975:6005   */\n      gt\n        /* \"#utility.yul\":5972:6089   */\n      iszero\n      tag_328\n      jumpi\n        /* \"#utility.yul\":6008:6087   */\n      tag_329\n      tag_195\n      jump\t// in\n    tag_329:\n        /* \"#utility.yul\":5972:6089   */\n    tag_328:\n        /* \"#utility.yul\":6113:6201   */\n      tag_330\n        /* \"#utility.yul\":6193:6200   */\n      dup5\n        /* \"#utility.yul\":6184:6190   */\n      dup3\n        /* \"#utility.yul\":6173:6182   */\n      dup6\n        /* \"#utility.yul\":6169:6191   */\n      add\n        /* \"#utility.yul\":6113:6201   */\n      tag_215\n      jump\t// in\n    tag_330:\n        /* \"#utility.yul\":6103:6201   */\n      swap2\n      pop\n        /* \"#utility.yul\":5899:6211   */\n      pop\n        /* \"#utility.yul\":5659:6218   */\n      swap3\n      swap2\n      pop\n      pop\n      jump\t// out\n        /* \"#utility.yul\":6224:7158   */\n    tag_35:\n        /* \"#utility.yul\":6362:6368   */\n      0x00\n        /* \"#utility.yul\":6370:6376   */\n      dup1\n        /* \"#utility.yul\":6419:6421   */\n      0x40\n        /* \"#utility.yul\":6407:6416   */\n      dup4\n        /* \"#utility.yul\":6398:6405   */\n      dup6\n        /* \"#utility.yul\":6394:6417   */\n      sub\n        /* \"#utility.yul\":6390:6422   */\n      slt\n        /* \"#utility.yul\":6387:6506   */\n      iszero\n      tag_332\n      jumpi\n        /* \"#utility.yul\":6425:6504   */\n      tag_333\n      tag_194\n      jump\t// in\n    tag_333:\n        /* \"#utility.yul\":6387:6506   */\n    tag_332:\n        /* \"#utility.yul\":6573:6574   */\n      0x00\n        /* \"#utility.yul\":6562:6571   */\n      dup4\n        /* \"#utility.yul\":6558:6575   */\n      add\n        /* \"#utility.yul\":6545:6576   */\n      calldataload\n        /* \"#utility.yul\":6603:6621   */\n      0xffffffffffffffff\n        /* \"#utility.yul\":6595:6601   */\n      dup2\n        /* \"#utility.yul\":6592:6622   */\n      gt\n        /* \"#utility.yul\":6589:6706   */\n      iszero\n      tag_334\n      jumpi\n        /* \"#utility.yul\":6625:6704   */\n      tag_335\n      tag_195\n      jump\t// in\n    tag_335:\n        /* \"#utility.yul\":6589:6706   */\n    tag_334:\n        /* \"#utility.yul\":6730:6818   */\n      tag_336\n        /* \"#utility.yul\":6810:6817   */\n      dup6\n        /* \"#utility.yul\":6801:6807   */\n      dup3\n        /* \"#utility.yul\":6790:6799   */\n      dup7\n        /* \"#utility.yul\":6786:6808   */\n      add\n        /* \"#utility.yul\":6730:6818   */\n      tag_215\n      jump\t// in\n    tag_336:\n        /* \"#utility.yul\":6720:6818   */\n      swap3\n      pop\n        /* \"#utility.yul\":6516:6828   */\n      pop\n        /* \"#utility.yul\":6895:6897   */\n      0x20\n        /* \"#utility.yul\":6884:6893   */\n      dup4\n        /* \"#utility.yul\":6880:6898   */\n      add\n        /* \"#utility.yul\":6867:6899   */\n      calldataload\n        /* \"#utility.yul\":6926:6944   */\n      0xffffffffffffffff\n        /* \"#utility.yul\":6918:6924   */\n      dup2\n        /* \"#utility.yul\":6915:6945   */\n      gt\n        /* \"#utility.yul\":6912:7029   */\n      iszero\n      tag_337\n      jumpi\n        /* \"#utility.yul\":6948:7027   */\n      tag_338\n      tag_195\n      jump\t// in\n    tag_338:\n        /* \"#utility.yul\":6912:7029   */\n    tag_337:\n        /* \"#utility.yul\":7053:7141   */\n      tag_339\n        /* \"#utility.yul\":7133:7140   */\n      dup6\n        /* \"#utility.yul\":7124:7130   */\n      dup3\n        /* \"#utility.yul\":7113:7122   */\n      dup7\n        /* \"#utility.yul\":7109:7131   */\n      add\n        /* \"#utility.yul\":7053:7141   */\n      tag_215\n      jump\t// in\n    tag_339:\n        /* \"#utility.yul\":7043:7141   */\n      swap2\n      pop\n        /* \"#utility.yul\":6838:7151   */\n      pop\n        /* \"#utility.yul\":6224:7158   */\n      swap3\n      pop\n      swap3\n      swap1\n      pop\n      jump\t// out\n        /* \"#utility.yul\":7164:7673   */\n    tag_39:\n        /* \"#utility.yul\":7233:7239   */\n      0x00\n        /* \"#utility.yul\":7282:7284   */\n      0x20\n        /* \"#utility.yul\":7270:7279   */\n      dup3\n        /* \"#utility.yul\":7261:7268   */\n      dup5\n        /* \"#utility.yul\":7257:7280   */\n      sub\n        /* \"#utility.yul\":7253:7285   */\n      slt\n        /* \"#utility.yul\":7250:7369   */\n      iszero\n      tag_341\n      jumpi\n        /* \"#utility.yul\":7288:7367   */\n      tag_342\n      tag_194\n      jump\t// in\n    tag_342:\n        /* \"#utility.yul\":7250:7369   */\n    tag_341:\n        /* \"#utility.yul\":7436:7437   */\n      0x00\n        /* \"#utility.yul\":7425:7434   */\n      dup3\n        /* \"#utility.yul\":7421:7438   */\n      add\n        /* \"#utility.yul\":7408:7439   */\n      calldataload\n        /* \"#utility.yul\":7466:7484   */\n      0xffffffffffffffff\n        /* \"#utility.yul\":7458:7464   */\n      dup2\n        /* \"#utility.yul\":7455:7485   */\n      gt\n        /* \"#utility.yul\":7452:7569   */\n      iszero\n      tag_343\n      jumpi\n        /* \"#utility.yul\":7488:7567   */\n      tag_344\n      tag_195\n      jump\t// in\n    tag_344:\n        /* \"#utility.yul\":7452:7569   */\n    tag_343:\n        /* \"#utility.yul\":7593:7656   */\n      tag_345\n        /* \"#utility.yul\":7648:7655   */\n      dup5\n        /* \"#utility.yul\":7639:7645   */\n      dup3\n        /* \"#utility.yul\":7628:7637   */\n      dup6\n        /* \"#utility.yul\":7624:7646   */\n      add\n        /* \"#utility.yul\":7593:7656   */\n      tag_213\n      jump\t// in\n    tag_345:\n        /* \"#utility.yul\":7583:7656   */\n      swap2\n      pop\n        /* \"#utility.yul\":7379:7666   */\n      pop\n        /* \"#utility.yul\":7164:7673   */\n      swap3\n      swap2\n      pop\n      pop\n      jump\t// out\n        /* \"#utility.yul\":7679:7778   */\n    tag_216:\n        /* \"#utility.yul\":7731:7737   */\n      0x00\n        /* \"#utility.yul\":7765:7770   */\n      dup2\n        /* \"#utility.yul\":7759:7771   */\n      mload\n        /* \"#utility.yul\":7749:7771   */\n      swap1\n      pop\n        /* \"#utility.yul\":7679:7778   */\n      swap2\n      swap1\n      pop\n      jump\t// out\n        /* \"#utility.yul\":7784:7953   */\n    tag_217:\n        /* \"#utility.yul\":7868:7879   */\n      0x00\n        /* \"#utility.yul\":7902:7908   */\n      dup3\n        /* \"#utility.yul\":7897:7900   */\n      dup3\n        /* \"#utility.yul\":7890:7909   */\n      mstore\n        /* \"#utility.yul\":7942:7946   */\n      0x20\n        /* \"#utility.yul\":7937:7940   */\n      dup3\n        /* \"#utility.yul\":7933:7947   */\n      add\n        /* \"#utility.yul\":7918:7947   */\n      swap1\n      pop\n        /* \"#utility.yul\":7784:7953   */\n      swap3\n      swap2\n      pop\n      pop\n      jump\t// out\n        /* \"#utility.yul\":7959:8205   */\n    tag_218:\n        /* \"#utility.yul\":8040:8041   */\n      0x00\n        /* \"#utility.yul\":8050:8163   */\n    tag_349:\n        /* \"#utility.yul\":8064:8070   */\n      dup4\n        /* \"#utility.yul\":8061:8062   */\n      dup2\n        /* \"#utility.yul\":8058:8071   */\n      lt\n        /* \"#utility.yul\":8050:8163   */\n      iszero\n      tag_351\n      jumpi\n        /* \"#utility.yul\":8149:8150   */\n      dup1\n        /* \"#utility.yul\":8144:8147   */\n      dup3\n        /* \"#utility.yul\":8140:8151   */\n      add\n        /* \"#utility.yul\":8134:8152   */\n      mload\n        /* \"#utility.yul\":8130:8131   */\n      dup2\n        /* \"#utility.yul\":8125:8128   */\n      dup5\n        /* \"#utility.yul\":8121:8132   */\n      add\n        /* \"#utility.yul\":8114:8153   */\n      mstore\n        /* \"#utility.yul\":8086:8088   */\n      0x20\n        /* \"#utility.yul\":8083:8084   */\n      dup2\n        /* \"#utility.yul\":8079:8089   */\n      add\n        /* \"#utility.yul\":8074:8089   */\n      swap1\n      pop\n        /* \"#utility.yul\":8050:8163   */\n      jump(tag_349)\n    tag_351:\n        /* \"#utility.yul\":8197:8198   */\n      0x00\n        /* \"#utility.yul\":8188:8194   */\n      dup5\n        /* \"#utility.yul\":8183:8186   */\n      dup5\n        /* \"#utility.yul\":8179:8195   */\n      add\n        /* \"#utility.yul\":8172:8199   */\n      mstore\n        /* \"#utility.yul\":8021:8205   */\n      pop\n        /* \"#utility.yul\":7959:8205   */\n      pop\n      pop\n      pop\n      jump\t// out\n        /* \"#utility.yul\":8211:8588   */\n    tag_219:\n        /* \"#utility.yul\":8299:8302   */\n      0x00\n        /* \"#utility.yul\":8327:8366   */\n      tag_353\n        /* \"#utility.yul\":8360:8365   */\n      dup3\n        /* \"#utility.yul\":8327:8366   */\n      tag_216\n      jump\t// in\n    tag_353:\n        /* \"#utility.yul\":8382:8453   */\n      tag_354\n        /* \"#utility.yul\":8446:8452   */\n      dup2\n        /* \"#utility.yul\":8441:8444   */\n      dup6\n        /* \"#utility.yul\":8382:8453   */\n      tag_217\n      jump\t// in\n    tag_354:\n        /* \"#utility.yul\":8375:8453   */\n      swap4\n      pop\n        /* \"#utility.yul\":8462:8527   */\n      tag_355\n        /* \"#utility.yul\":8520:8526   */\n      dup2\n        /* \"#utility.yul\":8515:8518   */\n      dup6\n        /* \"#utility.yul\":8508:8512   */\n      0x20\n        /* \"#utility.yul\":8501:8506   */\n      dup7\n        /* \"#utility.yul\":8497:8513   */\n      add\n        /* \"#utility.yul\":8462:8527   */\n      tag_218\n      jump\t// in\n    tag_355:\n        /* \"#utility.yul\":8552:8581   */\n      tag_356\n        /* \"#utility.yul\":8574:8580   */\n      dup2\n        /* \"#utility.yul\":8552:8581   */\n      tag_203\n      jump\t// in\n    tag_356:\n        /* \"#utility.yul\":8547:8550   */\n      dup5\n        /* \"#utility.yul\":8543:8582   */\n      add\n        /* \"#utility.yul\":8536:8582   */\n      swap2\n      pop\n        /* \"#utility.yul\":8303:8588   */\n      pop\n        /* \"#utility.yul\":8211:8588   */\n      swap3\n      swap2\n      pop\n      pop\n      jump\t// out\n        /* \"#utility.yul\":8594:8907   */\n    tag_42:\n        /* \"#utility.yul\":8707:8711   */\n      0x00\n        /* \"#utility.yul\":8745:8747   */\n      0x20\n        /* \"#utility.yul\":8734:8743   */\n      dup3\n        /* \"#utility.yul\":8730:8748   */\n      add\n        /* \"#utility.yul\":8722:8748   */\n      swap1\n      pop\n        /* \"#utility.yul\":8794:8803   */\n      dup2\n        /* \"#utility.yul\":8788:8792   */\n      dup2\n        /* \"#utility.yul\":8784:8804   */\n      sub\n        /* \"#utility.yul\":8780:8781   */\n      0x00\n        /* \"#utility.yul\":8769:8778   */\n      dup4\n        /* \"#utility.yul\":8765:8782   */\n      add\n        /* \"#utility.yul\":8758:8805   */\n      mstore\n        /* \"#utility.yul\":8822:8900   */\n      tag_358\n        /* \"#utility.yul\":8895:8899   */\n      dup2\n        /* \"#utility.yul\":8886:8892   */\n      dup5\n        /* \"#utility.yul\":8822:8900   */\n      tag_219\n      jump\t// in\n    tag_358:\n        /* \"#utility.yul\":8814:8900   */\n      swap1\n      pop\n        /* \"#utility.yul\":8594:8907   */\n      swap3\n      swap2\n      pop\n      pop\n      jump\t// out\n        /* \"#utility.yul\":8913:9037   */\n    tag_220:\n        /* \"#utility.yul\":8990:8996   */\n      0x00\n        /* \"#utility.yul\":9024:9029   */\n      dup2\n        /* \"#utility.yul\":9018:9030   */\n      mload\n        /* \"#utility.yul\":9008:9030   */\n      swap1\n      pop\n        /* \"#utility.yul\":8913:9037   */\n      swap2\n      swap1\n      pop\n      jump\t// out\n        /* \"#utility.yul\":9043:9237   */\n    tag_221:\n        /* \"#utility.yul\":9152:9163   */\n      0x00\n        /* \"#utility.yul\":9186:9192   */\n      dup3\n        /* \"#utility.yul\":9181:9184   */\n      dup3\n        /* \"#utility.yul\":9174:9193   */\n      mstore\n        /* \"#utility.yul\":9226:9230   */\n      0x20\n        /* \"#utility.yul\":9221:9224   */\n      dup3\n        /* \"#utility.yul\":9217:9231   */\n      add\n        /* \"#utility.yul\":9202:9231   */\n      swap1\n      pop\n        /* \"#utility.yul\":9043:9237   */\n      swap3\n      swap2\n      pop\n      pop\n      jump\t// out\n        /* \"#utility.yul\":9243:9385   */\n    tag_222:\n        /* \"#utility.yul\":9320:9324   */\n      0x00\n        /* \"#utility.yul\":9343:9346   */\n      dup2\n        /* \"#utility.yul\":9335:9346   */\n      swap1\n      pop\n        /* \"#utility.yul\":9373:9377   */\n      0x20\n        /* \"#utility.yul\":9368:9371   */\n      dup3\n        /* \"#utility.yul\":9364:9378   */\n      add\n        /* \"#utility.yul\":9356:9378   */\n      swap1\n      pop\n        /* \"#utility.yul\":9243:9385   */\n      swap2\n      swap1\n      pop\n      jump\t// out\n        /* \"#utility.yul\":9391:9550   */\n    tag_223:\n        /* \"#utility.yul\":9465:9476   */\n      0x00\n        /* \"#utility.yul\":9499:9505   */\n      dup3\n        /* \"#utility.yul\":9494:9497   */\n      dup3\n        /* \"#utility.yul\":9487:9506   */\n      mstore\n        /* \"#utility.yul\":9539:9543   */\n      0x20\n        /* \"#utility.yul\":9534:9537   */\n      dup3\n        /* \"#utility.yul\":9530:9544   */\n      add\n        /* \"#utility.yul\":9515:9544   */\n      swap1\n      pop\n        /* \"#utility.yul\":9391:9550   */\n      swap3\n      swap2\n      pop\n      pop\n      jump\t// out\n        /* \"#utility.yul\":9556:9913   */\n    tag_224:\n        /* \"#utility.yul\":9634:9637   */\n      0x00\n        /* \"#utility.yul\":9662:9701   */\n      tag_364\n        /* \"#utility.yul\":9695:9700   */\n      dup3\n        /* \"#utility.yul\":9662:9701   */\n      tag_216\n      jump\t// in\n    tag_364:\n        /* \"#utility.yul\":9717:9778   */\n      tag_365\n        /* \"#utility.yul\":9771:9777   */\n      dup2\n        /* \"#utility.yul\":9766:9769   */\n      dup6\n        /* \"#utility.yul\":9717:9778   */\n      tag_223\n      jump\t// in\n    tag_365:\n        /* \"#utility.yul\":9710:9778   */\n      swap4\n      pop\n        /* \"#utility.yul\":9787:9852   */\n      tag_366\n        /* \"#utility.yul\":9845:9851   */\n      dup2\n        /* \"#utility.yul\":9840:9843   */\n      dup6\n        /* \"#utility.yul\":9833:9837   */\n      0x20\n        /* \"#utility.yul\":9826:9831   */\n      dup7\n        /* \"#utility.yul\":9822:9838   */\n      add\n        /* \"#utility.yul\":9787:9852   */\n      tag_218\n      jump\t// in\n    tag_366:\n        /* \"#utility.yul\":9877:9906   */\n      tag_367\n        /* \"#utility.yul\":9899:9905   */\n      dup2\n        /* \"#utility.yul\":9877:9906   */\n      tag_203\n      jump\t// in\n    tag_367:\n        /* \"#utility.yul\":9872:9875   */\n      dup5\n        /* \"#utility.yul\":9868:9907   */\n      add\n        /* \"#utility.yul\":9861:9907   */\n      swap2\n      pop\n        /* \"#utility.yul\":9638:9913   */\n      pop\n        /* \"#utility.yul\":9556:9913   */\n      swap3\n      swap2\n      pop\n      pop\n      jump\t// out\n        /* \"#utility.yul\":9919:10115   */\n    tag_225:\n        /* \"#utility.yul\":10008:10018   */\n      0x00\n        /* \"#utility.yul\":10043:10109   */\n      tag_369\n        /* \"#utility.yul\":10105:10108   */\n      dup4\n        /* \"#utility.yul\":10097:10103   */\n      dup4\n        /* \"#utility.yul\":10043:10109   */\n      tag_224\n      jump\t// in\n    tag_369:\n        /* \"#utility.yul\":10029:10109   */\n      swap1\n      pop\n        /* \"#utility.yul\":9919:10115   */\n      swap3\n      swap2\n      pop\n      pop\n      jump\t// out\n        /* \"#utility.yul\":10121:10244   */\n    tag_226:\n        /* \"#utility.yul\":10201:10205   */\n      0x00\n        /* \"#utility.yul\":10233:10237   */\n      0x20\n        /* \"#utility.yul\":10228:10231   */\n      dup3\n        /* \"#utility.yul\":10224:10238   */\n      add\n        /* \"#utility.yul\":10216:10238   */\n      swap1\n      pop\n        /* \"#utility.yul\":10121:10244   */\n      swap2\n      swap1\n      pop\n      jump\t// out\n        /* \"#utility.yul\":10278:11269   */\n    tag_227:\n        /* \"#utility.yul\":10417:10420   */\n      0x00\n        /* \"#utility.yul\":10446:10510   */\n      tag_372\n        /* \"#utility.yul\":10504:10509   */\n      dup3\n        /* \"#utility.yul\":10446:10510   */\n      tag_220\n      jump\t// in\n    tag_372:\n        /* \"#utility.yul\":10526:10622   */\n      tag_373\n        /* \"#utility.yul\":10615:10621   */\n      dup2\n        /* \"#utility.yul\":10610:10613   */\n      dup6\n        /* \"#utility.yul\":10526:10622   */\n      tag_221\n      jump\t// in\n    tag_373:\n        /* \"#utility.yul\":10519:10622   */\n      swap4\n      pop\n        /* \"#utility.yul\":10648:10651   */\n      dup4\n        /* \"#utility.yul\":10693:10697   */\n      0x20\n        /* \"#utility.yul\":10685:10691   */\n      dup3\n        /* \"#utility.yul\":10681:10698   */\n      mul\n        /* \"#utility.yul\":10676:10679   */\n      dup6\n        /* \"#utility.yul\":10672:10699   */\n      add\n        /* \"#utility.yul\":10723:10789   */\n      tag_374\n        /* \"#utility.yul\":10783:10788   */\n      dup6\n        /* \"#utility.yul\":10723:10789   */\n      tag_222\n      jump\t// in\n    tag_374:\n        /* \"#utility.yul\":10812:10819   */\n      dup1\n        /* \"#utility.yul\":10843:10844   */\n      0x00\n        /* \"#utility.yul\":10828:11224   */\n    tag_375:\n        /* \"#utility.yul\":10853:10859   */\n      dup6\n        /* \"#utility.yul\":10850:10851   */\n      dup2\n        /* \"#utility.yul\":10847:10860   */\n      lt\n        /* \"#utility.yul\":10828:11224   */\n      iszero\n      tag_377\n      jumpi\n        /* \"#utility.yul\":10924:10933   */\n      dup5\n        /* \"#utility.yul\":10918:10922   */\n      dup5\n        /* \"#utility.yul\":10914:10934   */\n      sub\n        /* \"#utility.yul\":10909:10912   */\n      dup10\n        /* \"#utility.yul\":10902:10935   */\n      mstore\n        /* \"#utility.yul\":10975:10981   */\n      dup2\n        /* \"#utility.yul\":10969:10982   */\n      mload\n        /* \"#utility.yul\":11003:11087   */\n      tag_378\n        /* \"#utility.yul\":11082:11086   */\n      dup6\n        /* \"#utility.yul\":11067:11080   */\n      dup3\n        /* \"#utility.yul\":11003:11087   */\n      tag_225\n      jump\t// in\n    tag_378:\n        /* \"#utility.yul\":10995:11087   */\n      swap5\n      pop\n        /* \"#utility.yul\":11110:11180   */\n      tag_379\n        /* \"#utility.yul\":11173:11179   */\n      dup4\n        /* \"#utility.yul\":11110:11180   */\n      tag_226\n      jump\t// in\n    tag_379:\n        /* \"#utility.yul\":11100:11180   */\n      swap3\n      pop\n        /* \"#utility.yul\":11209:11213   */\n      0x20\n        /* \"#utility.yul\":11204:11207   */\n      dup11\n        /* \"#utility.yul\":11200:11214   */\n      add\n        /* \"#utility.yul\":11193:11214   */\n      swap10\n      pop\n        /* \"#utility.yul\":10888:11224   */\n      pop\n        /* \"#utility.yul\":10875:10876   */\n      0x01\n        /* \"#utility.yul\":10872:10873   */\n      dup2\n        /* \"#utility.yul\":10868:10877   */\n      add\n        /* \"#utility.yul\":10863:10877   */\n      swap1\n      pop\n        /* \"#utility.yul\":10828:11224   */\n      jump(tag_375)\n    tag_377:\n        /* \"#utility.yul\":10832:10846   */\n      pop\n        /* \"#utility.yul\":11240:11244   */\n      dup3\n        /* \"#utility.yul\":11233:11244   */\n      swap8\n      pop\n        /* \"#utility.yul\":11260:11263   */\n      dup8\n        /* \"#utility.yul\":11253:11263   */\n      swap6\n      pop\n        /* \"#utility.yul\":10422:11269   */\n      pop\n      pop\n      pop\n      pop\n      pop\n        /* \"#utility.yul\":10278:11269   */\n      swap3\n      swap2\n      pop\n      pop\n      jump\t// out\n        /* \"#utility.yul\":11275:11688   */\n    tag_50:\n        /* \"#utility.yul\":11438:11442   */\n      0x00\n        /* \"#utility.yul\":11476:11478   */\n      0x20\n        /* \"#utility.yul\":11465:11474   */\n      dup3\n        /* \"#utility.yul\":11461:11479   */\n      add\n        /* \"#utility.yul\":11453:11479   */\n      swap1\n      pop\n        /* \"#utility.yul\":11525:11534   */\n      dup2\n        /* \"#utility.yul\":11519:11523   */\n      dup2\n        /* \"#utility.yul\":11515:11535   */\n      sub\n        /* \"#utility.yul\":11511:11512   */\n      0x00\n        /* \"#utility.yul\":11500:11509   */\n      dup4\n        /* \"#utility.yul\":11496:11513   */\n      add\n        /* \"#utility.yul\":11489:11536   */\n      mstore\n        /* \"#utility.yul\":11553:11681   */\n      tag_381\n        /* \"#utility.yul\":11676:11680   */\n      dup2\n        /* \"#utility.yul\":11667:11673   */\n      dup5\n        /* \"#utility.yul\":11553:11681   */\n      tag_227\n      jump\t// in\n    tag_381:\n        /* \"#utility.yul\":11545:11681   */\n      swap1\n      pop\n        /* \"#utility.yul\":11275:11688   */\n      swap3\n      swap2\n      pop\n      pop\n      jump\t// out\n        /* \"#utility.yul\":11694:11816   */\n    tag_228:\n        /* \"#utility.yul\":11767:11791   */\n      tag_383\n        /* \"#utility.yul\":11785:11790   */\n      dup2\n        /* \"#utility.yul\":11767:11791   */\n      tag_200\n      jump\t// in\n    tag_383:\n        /* \"#utility.yul\":11760:11765   */\n      dup2\n        /* \"#utility.yul\":11757:11792   */\n      eq\n        /* \"#utility.yul\":11747:11810   */\n      tag_384\n      jumpi\n        /* \"#utility.yul\":11806:11807   */\n      0x00\n        /* \"#utility.yul\":11803:11804   */\n      dup1\n        /* \"#utility.yul\":11796:11808   */\n      revert\n        /* \"#utility.yul\":11747:11810   */\n    tag_384:\n        /* \"#utility.yul\":11694:11816   */\n      pop\n      jump\t// out\n        /* \"#utility.yul\":11822:11961   */\n    tag_229:\n        /* \"#utility.yul\":11868:11873   */\n      0x00\n        /* \"#utility.yul\":11906:11912   */\n      dup2\n        /* \"#utility.yul\":11893:11913   */\n      calldataload\n        /* \"#utility.yul\":11884:11913   */\n      swap1\n      pop\n        /* \"#utility.yul\":11922:11955   */\n      tag_386\n        /* \"#utility.yul\":11949:11954   */\n      dup2\n        /* \"#utility.yul\":11922:11955   */\n      tag_228\n      jump\t// in\n    tag_386:\n        /* \"#utility.yul\":11822:11961   */\n      swap3\n      swap2\n      pop\n      pop\n      jump\t// out\n        /* \"#utility.yul\":11967:12296   */\n    tag_53:\n        /* \"#utility.yul\":12026:12032   */\n      0x00\n        /* \"#utility.yul\":12075:12077   */\n      0x20\n        /* \"#utility.yul\":12063:12072   */\n      dup3\n        /* \"#utility.yul\":12054:12061   */\n      dup5\n        /* \"#utility.yul\":12050:12073   */\n      sub\n        /* \"#utility.yul\":12046:12078   */\n      slt\n        /* \"#utility.yul\":12043:12162   */\n      iszero\n      tag_388\n      jumpi\n        /* \"#utility.yul\":12081:12160   */\n      tag_389\n      tag_194\n      jump\t// in\n    tag_389:\n        /* \"#utility.yul\":12043:12162   */\n    tag_388:\n        /* \"#utility.yul\":12201:12202   */\n      0x00\n        /* \"#utility.yul\":12226:12279   */\n      tag_390\n        /* \"#utility.yul\":12271:12278   */\n      dup5\n        /* \"#utility.yul\":12262:12268   */\n      dup3\n        /* \"#utility.yul\":12251:12260   */\n      dup6\n        /* \"#utility.yul\":12247:12269   */\n      add\n        /* \"#utility.yul\":12226:12279   */\n      tag_229\n      jump\t// in\n    tag_390:\n        /* \"#utility.yul\":12216:12279   */\n      swap2\n      pop\n        /* \"#utility.yul\":12172:12289   */\n      pop\n        /* \"#utility.yul\":11967:12296   */\n      swap3\n      swap2\n      pop\n      pop\n      jump\t// out\n        /* \"#utility.yul\":12302:12482   */\n    tag_69:\n        /* \"#utility.yul\":12350:12427   */\n      0x4e487b7100000000000000000000000000000000000000000000000000000000\n        /* \"#utility.yul\":12347:12348   */\n      0x00\n        /* \"#utility.yul\":12340:12428   */\n      mstore\n        /* \"#utility.yul\":12447:12451   */\n      0x32\n        /* \"#utility.yul\":12444:12445   */\n      0x04\n        /* \"#utility.yul\":12437:12452   */\n      mstore\n        /* \"#utility.yul\":12471:12475   */\n      0x24\n        /* \"#utility.yul\":12468:12469   */\n      0x00\n        /* \"#utility.yul\":12461:12476   */\n      revert\n        /* \"#utility.yul\":12488:12636   */\n    tag_230:\n        /* \"#utility.yul\":12590:12601   */\n      0x00\n        /* \"#utility.yul\":12627:12630   */\n      dup2\n        /* \"#utility.yul\":12612:12630   */\n      swap1\n      pop\n        /* \"#utility.yul\":12488:12636   */\n      swap3\n      swap2\n      pop\n      pop\n      jump\t// out\n        /* \"#utility.yul\":12642:13032   */\n    tag_231:\n        /* \"#utility.yul\":12748:12751   */\n      0x00\n        /* \"#utility.yul\":12776:12815   */\n      tag_394\n        /* \"#utility.yul\":12809:12814   */\n      dup3\n        /* \"#utility.yul\":12776:12815   */\n      tag_216\n      jump\t// in\n    tag_394:\n        /* \"#utility.yul\":12831:12920   */\n      tag_395\n        /* \"#utility.yul\":12913:12919   */\n      dup2\n        /* \"#utility.yul\":12908:12911   */\n      dup6\n        /* \"#utility.yul\":12831:12920   */\n      tag_230\n      jump\t// in\n    tag_395:\n        /* \"#utility.yul\":12824:12920   */\n      swap4\n      pop\n        /* \"#utility.yul\":12929:12994   */\n      tag_396\n        /* \"#utility.yul\":12987:12993   */\n      dup2\n        /* \"#utility.yul\":12982:12985   */\n      dup6\n        /* \"#utility.yul\":12975:12979   */\n      0x20\n        /* \"#utility.yul\":12968:12973   */\n      dup7\n        /* \"#utility.yul\":12964:12980   */\n      add\n        /* \"#utility.yul\":12929:12994   */\n      tag_218\n      jump\t// in\n    tag_396:\n        /* \"#utility.yul\":13019:13025   */\n      dup1\n        /* \"#utility.yul\":13014:13017   */\n      dup5\n        /* \"#utility.yul\":13010:13026   */\n      add\n        /* \"#utility.yul\":13003:13026   */\n      swap2\n      pop\n        /* \"#utility.yul\":12752:13032   */\n      pop\n        /* \"#utility.yul\":12642:13032   */\n      swap3\n      swap2\n      pop\n      pop\n      jump\t// out\n        /* \"#utility.yul\":13038:13313   */\n    tag_71:\n        /* \"#utility.yul\":13170:13173   */\n      0x00\n        /* \"#utility.yul\":13192:13287   */\n      tag_398\n        /* \"#utility.yul\":13283:13286   */\n      dup3\n        /* \"#utility.yul\":13274:13280   */\n      dup5\n        /* \"#utility.yul\":13192:13287   */\n      tag_231\n      jump\t// in\n    tag_398:\n        /* \"#utility.yul\":13185:13287   */\n      swap2\n      pop\n        /* \"#utility.yul\":13304:13307   */\n      dup2\n        /* \"#utility.yul\":13297:13307   */\n      swap1\n      pop\n        /* \"#utility.yul\":13038:13313   */\n      swap3\n      swap2\n      pop\n      pop\n      jump\t// out\n        /* \"#utility.yul\":13319:13499   */\n    tag_232:\n        /* \"#utility.yul\":13367:13444   */\n      0x4e487b7100000000000000000000000000000000000000000000000000000000\n        /* \"#utility.yul\":13364:13365   */\n      0x00\n        /* \"#utility.yul\":13357:13445   */\n      mstore\n        /* \"#utility.yul\":13464:13468   */\n      0x22\n        /* \"#utility.yul\":13461:13462   */\n      0x04\n        /* \"#utility.yul\":13454:13469   */\n      mstore\n        /* \"#utility.yul\":13488:13492   */\n      0x24\n        /* \"#utility.yul\":13485:13486   */\n      0x00\n        /* \"#utility.yul\":13478:13493   */\n      revert\n        /* \"#utility.yul\":13505:13825   */\n    tag_106:\n        /* \"#utility.yul\":13549:13555   */\n      0x00\n        /* \"#utility.yul\":13586:13587   */\n      0x02\n        /* \"#utility.yul\":13580:13584   */\n      dup3\n        /* \"#utility.yul\":13576:13588   */\n      div\n        /* \"#utility.yul\":13566:13588   */\n      swap1\n      pop\n        /* \"#utility.yul\":13633:13634   */\n      0x01\n        /* \"#utility.yul\":13627:13631   */\n      dup3\n        /* \"#utility.yul\":13623:13635   */\n      and\n        /* \"#utility.yul\":13654:13672   */\n      dup1\n        /* \"#utility.yul\":13644:13725   */\n      tag_401\n      jumpi\n        /* \"#utility.yul\":13710:13714   */\n      0x7f\n        /* \"#utility.yul\":13702:13708   */\n      dup3\n        /* \"#utility.yul\":13698:13715   */\n      and\n        /* \"#utility.yul\":13688:13715   */\n      swap2\n      pop\n        /* \"#utility.yul\":13644:13725   */\n    tag_401:\n        /* \"#utility.yul\":13772:13774   */\n      0x20\n        /* \"#utility.yul\":13764:13770   */\n      dup3\n        /* \"#utility.yul\":13761:13775   */\n      lt\n        /* \"#utility.yul\":13741:13759   */\n      dup2\n        /* \"#utility.yul\":13738:13776   */\n      sub\n        /* \"#utility.yul\":13735:13819   */\n      tag_402\n      jumpi\n        /* \"#utility.yul\":13791:13809   */\n      tag_403\n      tag_232\n      jump\t// in\n    tag_403:\n        /* \"#utility.yul\":13735:13819   */\n    tag_402:\n        /* \"#utility.yul\":13556:13825   */\n      pop\n        /* \"#utility.yul\":13505:13825   */\n      swap2\n      swap1\n      pop\n      jump\t// out\n        /* \"#utility.yul\":13831:13972   */\n    tag_233:\n        /* \"#utility.yul\":13880:13884   */\n      0x00\n        /* \"#utility.yul\":13903:13906   */\n      dup2\n        /* \"#utility.yul\":13895:13906   */\n      swap1\n      pop\n        /* \"#utility.yul\":13926:13929   */\n      dup2\n        /* \"#utility.yul\":13923:13924   */\n      0x00\n        /* \"#utility.yul\":13916:13930   */\n      mstore\n        /* \"#utility.yul\":13960:13964   */\n      0x20\n        /* \"#utility.yul\":13957:13958   */\n      0x00\n        /* \"#utility.yul\":13947:13965   */\n      keccak256\n        /* \"#utility.yul\":13939:13965   */\n      swap1\n      pop\n        /* \"#utility.yul\":13831:13972   */\n      swap2\n      swap1\n      pop\n      jump\t// out\n        /* \"#utility.yul\":13978:14071   */\n    tag_234:\n        /* \"#utility.yul\":14015:14021   */\n      0x00\n        /* \"#utility.yul\":14062:14064   */\n      0x20\n        /* \"#utility.yul\":14057:14059   */\n      0x1f\n        /* \"#utility.yul\":14050:14055   */\n      dup4\n        /* \"#utility.yul\":14046:14060   */\n      add\n        /* \"#utility.yul\":14042:14065   */\n      div\n        /* \"#utility.yul\":14032:14065   */\n      swap1\n      pop\n        /* \"#utility.yul\":13978:14071   */\n      swap2\n      swap1\n      pop\n      jump\t// out\n        /* \"#utility.yul\":14077:14184   */\n    tag_235:\n        /* \"#utility.yul\":14121:14129   */\n      0x00\n        /* \"#utility.yul\":14171:14176   */\n      dup3\n        /* \"#utility.yul\":14165:14169   */\n      dup3\n        /* \"#utility.yul\":14161:14177   */\n      shl\n        /* \"#utility.yul\":14140:14177   */\n      swap1\n      pop\n        /* \"#utility.yul\":14077:14184   */\n      swap3\n      swap2\n      pop\n      pop\n      jump\t// out\n        /* \"#utility.yul\":14190:14583   */\n    tag_236:\n        /* \"#utility.yul\":14259:14265   */\n      0x00\n        /* \"#utility.yul\":14309:14310   */\n      0x08\n        /* \"#utility.yul\":14297:14307   */\n      dup4\n        /* \"#utility.yul\":14293:14311   */\n      mul\n        /* \"#utility.yul\":14332:14429   */\n      tag_408\n        /* \"#utility.yul\":14362:14428   */\n      0xffffffffffffffffffffffffffffffffffffffffffffffffffffffffffffffff\n        /* \"#utility.yul\":14351:14360   */\n      dup3\n        /* \"#utility.yul\":14332:14429   */\n      tag_235\n      jump\t// in\n    tag_408:\n        /* \"#utility.yul\":14450:14489   */\n      tag_409\n        /* \"#utility.yul\":14480:14488   */\n      dup7\n        /* \"#utility.yul\":14469:14478   */\n      dup4\n        /* \"#utility.yul\":14450:14489   */\n      tag_235\n      jump\t// in\n    tag_409:\n        /* \"#utility.yul\":14438:14489   */\n      swap6\n      pop\n        /* \"#utility.yul\":14522:14526   */\n      dup1\n        /* \"#utility.yul\":14518:14527   */\n      not\n        /* \"#utility.yul\":14511:14516   */\n      dup5\n        /* \"#utility.yul\":14507:14528   */\n      and\n        /* \"#utility.yul\":14498:14528   */\n      swap4\n      pop\n        /* \"#utility.yul\":14571:14575   */\n      dup1\n        /* \"#utility.yul\":14561:14569   */\n      dup7\n        /* \"#utility.yul\":14557:14576   */\n      and\n        /* \"#utility.yul\":14550:14555   */\n      dup5\n        /* \"#utility.yul\":14547:14577   */\n      or\n        /* \"#utility.yul\":14537:14577   */\n      swap3\n      pop\n        /* \"#utility.yul\":14266:14583   */\n      pop\n      pop\n        /* \"#utility.yul\":14190:14583   */\n      swap4\n      swap3\n      pop\n      pop\n      pop\n      jump\t// out\n        /* \"#utility.yul\":14589:14649   */\n    tag_237:\n        /* \"#utility.yul\":14617:14620   */\n      0x00\n        /* \"#utility.yul\":14638:14643   */\n      dup2\n        /* \"#utility.yul\":14631:14643   */\n      swap1\n      pop\n        /* \"#utility.yul\":14589:14649   */\n      swap2\n      swap1\n      pop\n      jump\t// out\n        /* \"#utility.yul\":14655:14797   */\n    tag_238:\n        /* \"#utility.yul\":14705:14714   */\n      0x00\n        /* \"#utility.yul\":14738:14791   */\n      tag_412\n        /* \"#utility.yul\":14756:14790   */\n      tag_413\n        /* \"#utility.yul\":14765:14789   */\n      tag_414\n        /* \"#utility.yul\":14783:14788   */\n      dup5\n        /* \"#utility.yul\":14765:14789   */\n      tag_196\n      jump\t// in\n    tag_414:\n        /* \"#utility.yul\":14756:14790   */\n      tag_237\n      jump\t// in\n    tag_413:\n        /* \"#utility.yul\":14738:14791   */\n      tag_196\n      jump\t// in\n    tag_412:\n        /* \"#utility.yul\":14725:14791   */\n      swap1\n      pop\n        /* \"#utility.yul\":14655:14797   */\n      swap2\n      swap1\n      pop\n      jump\t// out\n        /* \"#utility.yul\":14803:14878   */\n    tag_239:\n        /* \"#utility.yul\":14846:14849   */\n      0x00\n        /* \"#utility.yul\":14867:14872   */\n      dup2\n        /* \"#utility.yul\":14860:14872   */\n      swap1\n      pop\n        /* \"#utility.yul\":14803:14878   */\n      swap2\n      swap1\n      pop\n      jump\t// out\n        /* \"#utility.yul\":14884:15153   */\n    tag_240:\n        /* \"#utility.yul\":14994:15033   */\n      tag_417\n        /* \"#utility.yul\":15025:15032   */\n      dup4\n        /* \"#utility.yul\":14994:15033   */\n      tag_238\n      jump\t// in\n    tag_417:\n        /* \"#utility.yul\":15055:15146   */\n      tag_418\n        /* \"#utility.yul\":15104:15145   */\n      tag_419\n        /* \"#utility.yul\":15128:15144   */\n      dup3\n        /* \"#utility.yul\":15104:15145   */\n      tag_239\n      jump\t// in\n    tag_419:\n        /* \"#utility.yul\":15096:15102   */\n      dup5\n        /* \"#utility.yul\":15089:15093   */\n      dup5\n        /* \"#utility.yul\":15083:15094   */\n      sload\n        /* \"#utility.yul\":15055:15146   */\n      tag_236\n      jump\t// in\n    tag_418:\n        /* \"#utility.yul\":15049:15053   */\n      dup3\n        /* \"#utility.yul\":15042:15147   */\n      sstore\n        /* \"#utility.yul\":14960:15153   */\n      pop\n        /* \"#utility.yul\":14884:15153   */\n      pop\n      pop\n      pop\n      jump\t// out\n        /* \"#utility.yul\":15159:15232   */\n    tag_241:\n        /* \"#utility.yul\":15204:15207   */\n      0x00\n        /* \"#utility.yul\":15159:15232   */\n      swap1\n      jump\t// out\n        /* \"#utility.yul\":15238:15427   */\n    tag_242:\n        /* \"#utility.yul\":15315:15347   */\n      tag_422\n      tag_241\n      jump\t// in\n    tag_422:\n        /* \"#utility.yul\":15356:15421   */\n      tag_423\n        /* \"#utility.yul\":15414:15420   */\n      dup2\n        /* \"#utility.yul\":15406:15412   */\n      dup5\n        /* \"#utility.yul\":15400:15404   */\n      dup5\n        /* \"#utility.yul\":15356:15421   */\n      tag_240\n      jump\t// in\n    tag_423:\n        /* \"#utility.yul\":15291:15427   */\n      pop\n        /* \"#utility.yul\":15238:15427   */\n      pop\n      pop\n      jump\t// out\n        /* \"#utility.yul\":15433:15619   */\n    tag_243:\n        /* \"#utility.yul\":15493:15613   */\n    tag_425:\n        /* \"#utility.yul\":15510:15513   */\n      dup2\n        /* \"#utility.yul\":15503:15508   */\n      dup2\n        /* \"#utility.yul\":15500:15514   */\n      lt\n        /* \"#utility.yul\":15493:15613   */\n      iszero\n      tag_427\n      jumpi\n        /* \"#utility.yul\":15564:15603   */\n      tag_428\n        /* \"#utility.yul\":15601:15602   */\n      0x00\n        /* \"#utility.yul\":15594:15599   */\n      dup3\n        /* \"#utility.yul\":15564:15603   */\n      tag_242\n      jump\t// in\n    tag_428:\n        /* \"#utility.yul\":15537:15538   */\n      0x01\n        /* \"#utility.yul\":15530:15535   */\n      dup2\n        /* \"#utility.yul\":15526:15539   */\n      add\n        /* \"#utility.yul\":15517:15539   */\n      swap1\n      pop\n        /* \"#utility.yul\":15493:15613   */\n      jump(tag_425)\n    tag_427:\n        /* \"#utility.yul\":15433:15619   */\n      pop\n      pop\n      jump\t// out\n        /* \"#utility.yul\":15625:16168   */\n    tag_244:\n        /* \"#utility.yul\":15726:15728   */\n      0x1f\n        /* \"#utility.yul\":15721:15724   */\n      dup3\n        /* \"#utility.yul\":15718:15729   */\n      gt\n        /* \"#utility.yul\":15715:16161   */\n      iszero\n      tag_430\n      jumpi\n        /* \"#utility.yul\":15760:15798   */\n      tag_431\n        /* \"#utility.yul\":15792:15797   */\n      dup2\n        /* \"#utility.yul\":15760:15798   */\n      tag_233\n      jump\t// in\n    tag_431:\n        /* \"#utility.yul\":15844:15873   */\n      tag_432\n        /* \"#utility.yul\":15862:15872   */\n      dup5\n        /* \"#utility.yul\":15844:15873   */\n      tag_234\n      jump\t// in\n    tag_432:\n        /* \"#utility.yul\":15834:15842   */\n      dup2\n        /* \"#utility.yul\":15830:15874   */\n      add\n        /* \"#utility.yul\":16027:16029   */\n      0x20\n        /* \"#utility.yul\":16015:16025   */\n      dup6\n        /* \"#utility.yul\":16012:16030   */\n      lt\n        /* \"#utility.yul\":16009:16058   */\n      iszero\n      tag_433\n      jumpi\n        /* \"#utility.yul\":16048:16056   */\n      dup2\n        /* \"#utility.yul\":16033:16056   */\n      swap1\n      pop\n        /* \"#utility.yul\":16009:16058   */\n    tag_433:\n        /* \"#utility.yul\":16071:16151   */\n      tag_434\n        /* \"#utility.yul\":16127:16149   */\n      tag_435\n        /* \"#utility.yul\":16145:16148   */\n      dup6\n        /* \"#utility.yul\":16127:16149   */\n      tag_234\n      jump\t// in\n    tag_435:\n        /* \"#utility.yul\":16117:16125   */\n      dup4\n        /* \"#utility.yul\":16113:16150   */\n      add\n        /* \"#utility.yul\":16100:16111   */\n      dup3\n        /* \"#utility.yul\":16071:16151   */\n      tag_243\n      jump\t// in\n    tag_434:\n        /* \"#utility.yul\":15730:16161   */\n      pop\n      pop\n        /* \"#utility.yul\":15715:16161   */\n    tag_430:\n        /* \"#utility.yul\":15625:16168   */\n      pop\n      pop\n      pop\n      jump\t// out\n        /* \"#utility.yul\":16174:16291   */\n    tag_245:\n        /* \"#utility.yul\":16228:16236   */\n      0x00\n        /* \"#utility.yul\":16278:16283   */\n      dup3\n        /* \"#utility.yul\":16272:16276   */\n      dup3\n        /* \"#utility.yul\":16268:16284   */\n      shr\n        /* \"#utility.yul\":16247:16284   */\n      swap1\n      pop\n        /* \"#utility.yul\":16174:16291   */\n      swap3\n      swap2\n      pop\n      pop\n      jump\t// out\n        /* \"#utility.yul\":16297:16466   */\n    tag_246:\n        /* \"#utility.yul\":16341:16347   */\n      0x00\n        /* \"#utility.yul\":16374:16425   */\n      tag_438\n        /* \"#utility.yul\":16422:16423   */\n      0x00\n        /* \"#utility.yul\":16418:16424   */\n      not\n        /* \"#utility.yul\":16410:16415   */\n      dup5\n        /* \"#utility.yul\":16407:16408   */\n      0x08\n        /* \"#utility.yul\":16403:16416   */\n      mul\n        /* \"#utility.yul\":16374:16425   */\n      tag_245\n      jump\t// in\n    tag_438:\n        /* \"#utility.yul\":16370:16426   */\n      not\n        /* \"#utility.yul\":16455:16459   */\n      dup1\n        /* \"#utility.yul\":16449:16453   */\n      dup4\n        /* \"#utility.yul\":16445:16460   */\n      and\n        /* \"#utility.yul\":16435:16460   */\n      swap2\n      pop\n        /* \"#utility.yul\":16348:16466   */\n      pop\n        /* \"#utility.yul\":16297:16466   */\n      swap3\n      swap2\n      pop\n      pop\n      jump\t// out\n        /* \"#utility.yul\":16471:16766   */\n    tag_247:\n        /* \"#utility.yul\":16547:16551   */\n      0x00\n        /* \"#utility.yul\":16693:16722   */\n      tag_440\n        /* \"#utility.yul\":16718:16721   */\n      dup4\n        /* \"#utility.yul\":16712:16716   */\n      dup4\n        /* \"#utility.yul\":16693:16722   */\n      tag_246\n      jump\t// in\n    tag_440:\n        /* \"#utility.yul\":16685:16722   */\n      swap2\n      pop\n        /* \"#utility.yul\":16755:16758   */\n      dup3\n        /* \"#utility.yul\":16752:16753   */\n      0x02\n        /* \"#utility.yul\":16748:16759   */\n      mul\n        /* \"#utility.yul\":16742:16746   */\n      dup3\n        /* \"#utility.yul\":16739:16760   */\n      or\n        /* \"#utility.yul\":16731:16760   */\n      swap1\n      pop\n        /* \"#utility.yul\":16471:16766   */\n      swap3\n      swap2\n      pop\n      pop\n      jump\t// out\n        /* \"#utility.yul\":16771:18166   */\n    tag_81:\n        /* \"#utility.yul\":16888:16925   */\n      tag_442\n        /* \"#utility.yul\":16921:16924   */\n      dup3\n        /* \"#utility.yul\":16888:16925   */\n      tag_216\n      jump\t// in\n    tag_442:\n        /* \"#utility.yul\":16990:17008   */\n      0xffffffffffffffff\n        /* \"#utility.yul\":16982:16988   */\n      dup2\n        /* \"#utility.yul\":16979:17009   */\n      gt\n        /* \"#utility.yul\":16976:17032   */\n      iszero\n      tag_443\n      jumpi\n        /* \"#utility.yul\":17012:17030   */\n      tag_444\n      tag_204\n      jump\t// in\n    tag_444:\n        /* \"#utility.yul\":16976:17032   */\n    tag_443:\n        /* \"#utility.yul\":17056:17094   */\n      tag_445\n        /* \"#utility.yul\":17088:17092   */\n      dup3\n        /* \"#utility.yul\":17082:17093   */\n      sload\n        /* \"#utility.yul\":17056:17094   */\n      tag_106\n      jump\t// in\n    tag_445:\n        /* \"#utility.yul\":17141:17208   */\n      tag_446\n        /* \"#utility.yul\":17201:17207   */\n      dup3\n        /* \"#utility.yul\":17193:17199   */\n      dup3\n        /* \"#utility.yul\":17187:17191   */\n      dup6\n        /* \"#utility.yul\":17141:17208   */\n      tag_244\n      jump\t// in\n    tag_446:\n        /* \"#utility.yul\":17235:17236   */\n      0x00\n        /* \"#utility.yul\":17259:17263   */\n      0x20\n        /* \"#utility.yul\":17246:17263   */\n      swap1\n      pop\n        /* \"#utility.yul\":17291:17293   */\n      0x1f\n        /* \"#utility.yul\":17283:17289   */\n      dup4\n        /* \"#utility.yul\":17280:17294   */\n      gt\n        /* \"#utility.yul\":17308:17309   */\n      0x01\n        /* \"#utility.yul\":17303:17921   */\n      dup2\n      eq\n      tag_448\n      jumpi\n        /* \"#utility.yul\":17965:17966   */\n      0x00\n        /* \"#utility.yul\":17982:17988   */\n      dup5\n        /* \"#utility.yul\":17979:18056   */\n      iszero\n      tag_449\n      jumpi\n        /* \"#utility.yul\":18031:18040   */\n      dup3\n        /* \"#utility.yul\":18026:18029   */\n      dup8\n        /* \"#utility.yul\":18022:18041   */\n      add\n        /* \"#utility.yul\":18016:18042   */\n      mload\n        /* \"#utility.yul\":18007:18042   */\n      swap1\n      pop\n        /* \"#utility.yul\":17979:18056   */\n    tag_449:\n        /* \"#utility.yul\":18082:18149   */\n      tag_450\n        /* \"#utility.yul\":18142:18148   */\n      dup6\n        /* \"#utility.yul\":18135:18140   */\n      dup3\n        /* \"#utility.yul\":18082:18149   */\n      tag_247\n      jump\t// in\n    tag_450:\n        /* \"#utility.yul\":18076:18080   */\n      dup7\n        /* \"#utility.yul\":18069:18150   */\n      sstore\n        /* \"#utility.yul\":17938:18160   */\n      pop\n        /* \"#utility.yul\":17273:18160   */\n      jump(tag_447)\n        /* \"#utility.yul\":17303:17921   */\n    tag_448:\n        /* \"#utility.yul\":17355:17359   */\n      0x1f\n        /* \"#utility.yul\":17351:17360   */\n      not\n        /* \"#utility.yul\":17343:17349   */\n      dup5\n        /* \"#utility.yul\":17339:17361   */\n      and\n        /* \"#utility.yul\":17389:17426   */\n      tag_451\n        /* \"#utility.yul\":17421:17425   */\n      dup7\n        /* \"#utility.yul\":17389:17426   */\n      tag_233\n      jump\t// in\n    tag_451:\n        /* \"#utility.yul\":17448:17449   */\n      0x00\n        /* \"#utility.yul\":17462:17670   */\n    tag_452:\n        /* \"#utility.yul\":17476:17483   */\n      dup3\n        /* \"#utility.yul\":17473:17474   */\n      dup2\n        /* \"#utility.yul\":17470:17484   */\n      lt\n        /* \"#utility.yul\":17462:17670   */\n      iszero\n      tag_454\n      jumpi\n        /* \"#utility.yul\":17555:17564   */\n      dup5\n        /* \"#utility.yul\":17550:17553   */\n      dup10\n        /* \"#utility.yul\":17546:17565   */\n      add\n        /* \"#utility.yul\":17540:17566   */\n      mload\n        /* \"#utility.yul\":17532:17538   */\n      dup3\n        /* \"#utility.yul\":17525:17567   */\n      sstore\n        /* \"#utility.yul\":17606:17607   */\n      0x01\n        /* \"#utility.yul\":17598:17604   */\n      dup3\n        /* \"#utility.yul\":17594:17608   */\n      add\n        /* \"#utility.yul\":17584:17608   */\n      swap2\n      pop\n        /* \"#utility.yul\":17653:17655   */\n      0x20\n        /* \"#utility.yul\":17642:17651   */\n      dup6\n        /* \"#utility.yul\":17638:17656   */\n      add\n        /* \"#utility.yul\":17625:17656   */\n      swap5\n      pop\n        /* \"#utility.yul\":17499:17503   */\n      0x20\n        /* \"#utility.yul\":17496:17497   */\n      dup2\n        /* \"#utility.yul\":17492:17504   */\n      add\n        /* \"#utility.yul\":17487:17504   */\n      swap1\n      pop\n        /* \"#utility.yul\":17462:17670   */\n      jump(tag_452)\n    tag_454:\n        /* \"#utility.yul\":17698:17704   */\n      dup7\n        /* \"#utility.yul\":17689:17696   */\n      dup4\n        /* \"#utility.yul\":17686:17705   */\n      lt\n        /* \"#utility.yul\":17683:17862   */\n      iszero\n      tag_455\n      jumpi\n        /* \"#utility.yul\":17756:17765   */\n      dup5\n        /* \"#utility.yul\":17751:17754   */\n      dup10\n        /* \"#utility.yul\":17747:17766   */\n      add\n        /* \"#utility.yul\":17741:17767   */\n      mload\n        /* \"#utility.yul\":17799:17847   */\n      tag_456\n        /* \"#utility.yul\":17841:17845   */\n      0x1f\n        /* \"#utility.yul\":17833:17839   */\n      dup10\n        /* \"#utility.yul\":17829:17846   */\n      and\n        /* \"#utility.yul\":17818:17827   */\n      dup3\n        /* \"#utility.yul\":17799:17847   */\n      tag_246\n      jump\t// in\n    tag_456:\n        /* \"#utility.yul\":17791:17797   */\n      dup4\n        /* \"#utility.yul\":17784:17848   */\n      sstore\n        /* \"#utility.yul\":17706:17862   */\n      pop\n        /* \"#utility.yul\":17683:17862   */\n    tag_455:\n        /* \"#utility.yul\":17908:17909   */\n      0x01\n        /* \"#utility.yul\":17904:17905   */\n      0x02\n        /* \"#utility.yul\":17896:17902   */\n      dup9\n        /* \"#utility.yul\":17892:17906   */\n      mul\n        /* \"#utility.yul\":17888:17910   */\n      add\n        /* \"#utility.yul\":17882:17886   */\n      dup9\n        /* \"#utility.yul\":17875:17911   */\n      sstore\n        /* \"#utility.yul\":17310:17921   */\n      pop\n      pop\n      pop\n        /* \"#utility.yul\":17273:18160   */\n    tag_447:\n      pop\n        /* \"#utility.yul\":16863:18166   */\n      pop\n      pop\n      pop\n        /* \"#utility.yul\":16771:18166   */\n      pop\n      pop\n      jump\t// out\n        /* \"#utility.yul\":18172:18334   */\n    tag_248:\n        /* \"#utility.yul\":18312:18326   */\n      0x55454e732072656d6f7665640000000000000000000000000000000000000000\n        /* \"#utility.yul\":18308:18309   */\n      0x00\n        /* \"#utility.yul\":18300:18306   */\n      dup3\n        /* \"#utility.yul\":18296:18310   */\n      add\n        /* \"#utility.yul\":18289:18327   */\n      mstore\n        /* \"#utility.yul\":18172:18334   */\n      pop\n      jump\t// out\n        /* \"#utility.yul\":18340:18706   */\n    tag_249:\n        /* \"#utility.yul\":18482:18485   */\n      0x00\n        /* \"#utility.yul\":18503:18570   */\n      tag_459\n        /* \"#utility.yul\":18567:18569   */\n      0x0c\n        /* \"#utility.yul\":18562:18565   */\n      dup4\n        /* \"#utility.yul\":18503:18570   */\n      tag_217\n      jump\t// in\n    tag_459:\n        /* \"#utility.yul\":18496:18570   */\n      swap2\n      pop\n        /* \"#utility.yul\":18579:18672   */\n      tag_460\n        /* \"#utility.yul\":18668:18671   */\n      dup3\n        /* \"#utility.yul\":18579:18672   */\n      tag_248\n      jump\t// in\n    tag_460:\n        /* \"#utility.yul\":18697:18699   */\n      0x20\n        /* \"#utility.yul\":18692:18695   */\n      dup3\n        /* \"#utility.yul\":18688:18700   */\n      add\n        /* \"#utility.yul\":18681:18700   */\n      swap1\n      pop\n        /* \"#utility.yul\":18340:18706   */\n      swap2\n      swap1\n      pop\n      jump\t// out\n        /* \"#utility.yul\":18712:19432   */\n    tag_86:\n        /* \"#utility.yul\":18976:18980   */\n      0x00\n        /* \"#utility.yul\":19014:19016   */\n      0x40\n        /* \"#utility.yul\":19003:19012   */\n      dup3\n        /* \"#utility.yul\":18999:19017   */\n      add\n        /* \"#utility.yul\":18991:19017   */\n      swap1\n      pop\n        /* \"#utility.yul\":19063:19072   */\n      dup2\n        /* \"#utility.yul\":19057:19061   */\n      dup2\n        /* \"#utility.yul\":19053:19073   */\n      sub\n        /* \"#utility.yul\":19049:19050   */\n      0x00\n        /* \"#utility.yul\":19038:19047   */\n      dup4\n        /* \"#utility.yul\":19034:19051   */\n      add\n        /* \"#utility.yul\":19027:19074   */\n      mstore\n        /* \"#utility.yul\":19091:19219   */\n      tag_462\n        /* \"#utility.yul\":19214:19218   */\n      dup2\n        /* \"#utility.yul\":19205:19211   */\n      dup5\n        /* \"#utility.yul\":19091:19219   */\n      tag_227\n      jump\t// in\n    tag_462:\n        /* \"#utility.yul\":19083:19219   */\n      swap1\n      pop\n        /* \"#utility.yul\":19266:19275   */\n      dup2\n        /* \"#utility.yul\":19260:19264   */\n      dup2\n        /* \"#utility.yul\":19256:19276   */\n      sub\n        /* \"#utility.yul\":19251:19253   */\n      0x20\n        /* \"#utility.yul\":19240:19249   */\n      dup4\n        /* \"#utility.yul\":19236:19254   */\n      add\n        /* \"#utility.yul\":19229:19277   */\n      mstore\n        /* \"#utility.yul\":19294:19425   */\n      tag_463\n        /* \"#utility.yul\":19420:19424   */\n      dup2\n        /* \"#utility.yul\":19294:19425   */\n      tag_249\n      jump\t// in\n    tag_463:\n        /* \"#utility.yul\":19286:19425   */\n      swap1\n      pop\n        /* \"#utility.yul\":18712:19432   */\n      swap3\n      swap2\n      pop\n      pop\n      jump\t// out\n        /* \"#utility.yul\":19438:19659   */\n    tag_250:\n        /* \"#utility.yul\":19578:19612   */\n      0x4d617070696e6773206d7573742068617665207468652073616d65206c656e67\n        /* \"#utility.yul\":19574:19575   */\n      0x00\n        /* \"#utility.yul\":19566:19572   */\n      dup3\n        /* \"#utility.yul\":19562:19576   */\n      add\n        /* \"#utility.yul\":19555:19613   */\n      mstore\n        /* \"#utility.yul\":19647:19651   */\n      0x7468000000000000000000000000000000000000000000000000000000000000\n        /* \"#utility.yul\":19642:19644   */\n      0x20\n        /* \"#utility.yul\":19634:19640   */\n      dup3\n        /* \"#utility.yul\":19630:19645   */\n      add\n        /* \"#utility.yul\":19623:19652   */\n      mstore\n        /* \"#utility.yul\":19438:19659   */\n      pop\n      jump\t// out\n        /* \"#utility.yul\":19665:20031   */\n    tag_251:\n        /* \"#utility.yul\":19807:19810   */\n      0x00\n        /* \"#utility.yul\":19828:19895   */\n      tag_466\n        /* \"#utility.yul\":19892:19894   */\n      0x22\n        /* \"#utility.yul\":19887:19890   */\n      dup4\n        /* \"#utility.yul\":19828:19895   */\n      tag_217\n      jump\t// in\n    tag_466:\n        /* \"#utility.yul\":19821:19895   */\n      swap2\n      pop\n        /* \"#utility.yul\":19904:19997   */\n      tag_467\n        /* \"#utility.yul\":19993:19996   */\n      dup3\n        /* \"#utility.yul\":19904:19997   */\n      tag_250\n      jump\t// in\n    tag_467:\n        /* \"#utility.yul\":20022:20024   */\n      0x40\n        /* \"#utility.yul\":20017:20020   */\n      dup3\n        /* \"#utility.yul\":20013:20025   */\n      add\n        /* \"#utility.yul\":20006:20025   */\n      swap1\n      pop\n        /* \"#utility.yul\":19665:20031   */\n      swap2\n      swap1\n      pop\n      jump\t// out\n        /* \"#utility.yul\":20037:20456   */\n    tag_98:\n        /* \"#utility.yul\":20203:20207   */\n      0x00\n        /* \"#utility.yul\":20241:20243   */\n      0x20\n        /* \"#utility.yul\":20230:20239   */\n      dup3\n        /* \"#utility.yul\":20226:20244   */\n      add\n        /* \"#utility.yul\":20218:20244   */\n      swap1\n      pop\n        /* \"#utility.yul\":20290:20299   */\n      dup2\n        /* \"#utility.yul\":20284:20288   */\n      dup2\n        /* \"#utility.yul\":20280:20300   */\n      sub\n        /* \"#utility.yul\":20276:20277   */\n      0x00\n        /* \"#utility.yul\":20265:20274   */\n      dup4\n        /* \"#utility.yul\":20261:20278   */\n      add\n        /* \"#utility.yul\":20254:20301   */\n      mstore\n        /* \"#utility.yul\":20318:20449   */\n      tag_469\n        /* \"#utility.yul\":20444:20448   */\n      dup2\n        /* \"#utility.yul\":20318:20449   */\n      tag_251\n      jump\t// in\n    tag_469:\n        /* \"#utility.yul\":20310:20449   */\n      swap1\n      pop\n        /* \"#utility.yul\":20037:20456   */\n      swap2\n      swap1\n      pop\n      jump\t// out\n        /* \"#utility.yul\":20462:20630   */\n    tag_252:\n        /* \"#utility.yul\":20602:20622   */\n      0x55454e20646f6573206e6f742065786973740000000000000000000000000000\n        /* \"#utility.yul\":20598:20599   */\n      0x00\n        /* \"#utility.yul\":20590:20596   */\n      dup3\n        /* \"#utility.yul\":20586:20600   */\n      add\n        /* \"#utility.yul\":20579:20623   */\n      mstore\n        /* \"#utility.yul\":20462:20630   */\n      pop\n      jump\t// out\n        /* \"#utility.yul\":20636:21002   */\n    tag_253:\n        /* \"#utility.yul\":20778:20781   */\n      0x00\n        /* \"#utility.yul\":20799:20866   */\n      tag_472\n        /* \"#utility.yul\":20863:20865   */\n      0x12\n        /* \"#utility.yul\":20858:20861   */\n      dup4\n        /* \"#utility.yul\":20799:20866   */\n      tag_217\n      jump\t// in\n    tag_472:\n        /* \"#utility.yul\":20792:20866   */\n      swap2\n      pop\n        /* \"#utility.yul\":20875:20968   */\n      tag_473\n        /* \"#utility.yul\":20964:20967   */\n      dup3\n        /* \"#utility.yul\":20875:20968   */\n      tag_252\n      jump\t// in\n    tag_473:\n        /* \"#utility.yul\":20993:20995   */\n      0x20\n        /* \"#utility.yul\":20988:20991   */\n      dup3\n        /* \"#utility.yul\":20984:20996   */\n      add\n        /* \"#utility.yul\":20977:20996   */\n      swap1\n      pop\n        /* \"#utility.yul\":20636:21002   */\n      swap2\n      swap1\n      pop\n      jump\t// out\n        /* \"#utility.yul\":21008:21427   */\n    tag_109:\n        /* \"#utility.yul\":21174:21178   */\n      0x00\n        /* \"#utility.yul\":21212:21214   */\n      0x20\n        /* \"#utility.yul\":21201:21210   */\n      dup3\n        /* \"#utility.yul\":21197:21215   */\n      add\n        /* \"#utility.yul\":21189:21215   */\n      swap1\n      pop\n        /* \"#utility.yul\":21261:21270   */\n      dup2\n        /* \"#utility.yul\":21255:21259   */\n      dup2\n        /* \"#utility.yul\":21251:21271   */\n      sub\n        /* \"#utility.yul\":21247:21248   */\n      0x00\n        /* \"#utility.yul\":21236:21245   */\n      dup4\n        /* \"#utility.yul\":21232:21249   */\n      add\n        /* \"#utility.yul\":21225:21272   */\n      mstore\n        /* \"#utility.yul\":21289:21420   */\n      tag_475\n        /* \"#utility.yul\":21415:21419   */\n      dup2\n        /* \"#utility.yul\":21289:21420   */\n      tag_253\n      jump\t// in\n    tag_475:\n        /* \"#utility.yul\":21281:21420   */\n      swap1\n      pop\n        /* \"#utility.yul\":21008:21427   */\n      swap2\n      swap1\n      pop\n      jump\t// out\n        /* \"#utility.yul\":21433:21601   */\n    tag_254:\n        /* \"#utility.yul\":21573:21593   */\n      0x55454e20616c7265616479206578697374730000000000000000000000000000\n        /* \"#utility.yul\":21569:21570   */\n      0x00\n        /* \"#utility.yul\":21561:21567   */\n      dup3\n        /* \"#utility.yul\":21557:21571   */\n      add\n        /* \"#utility.yul\":21550:21594   */\n      mstore\n        /* \"#utility.yul\":21433:21601   */\n      pop\n      jump\t// out\n        /* \"#utility.yul\":21607:21973   */\n    tag_255:\n        /* \"#utility.yul\":21749:21752   */\n      0x00\n        /* \"#utility.yul\":21770:21837   */\n      tag_478\n        /* \"#utility.yul\":21834:21836   */\n      0x12\n        /* \"#utility.yul\":21829:21832   */\n      dup4\n        /* \"#utility.yul\":21770:21837   */\n      tag_217\n      jump\t// in\n    tag_478:\n        /* \"#utility.yul\":21763:21837   */\n      swap2\n      pop\n        /* \"#utility.yul\":21846:21939   */\n      tag_479\n        /* \"#utility.yul\":21935:21938   */\n      dup3\n        /* \"#utility.yul\":21846:21939   */\n      tag_254\n      jump\t// in\n    tag_479:\n        /* \"#utility.yul\":21964:21966   */\n      0x20\n        /* \"#utility.yul\":21959:21962   */\n      dup3\n        /* \"#utility.yul\":21955:21967   */\n      add\n        /* \"#utility.yul\":21948:21967   */\n      swap1\n      pop\n        /* \"#utility.yul\":21607:21973   */\n      swap2\n      swap1\n      pop\n      jump\t// out\n        /* \"#utility.yul\":21979:22398   */\n    tag_159:\n        /* \"#utility.yul\":22145:22149   */\n      0x00\n        /* \"#utility.yul\":22183:22185   */\n      0x20\n        /* \"#utility.yul\":22172:22181   */\n      dup3\n        /* \"#utility.yul\":22168:22186   */\n      add\n        /* \"#utility.yul\":22160:22186   */\n      swap1\n      pop\n        /* \"#utility.yul\":22232:22241   */\n      dup2\n        /* \"#utility.yul\":22226:22230   */\n      dup2\n        /* \"#utility.yul\":22222:22242   */\n      sub\n        /* \"#utility.yul\":22218:22219   */\n      0x00\n        /* \"#utility.yul\":22207:22216   */\n      dup4\n        /* \"#utility.yul\":22203:22220   */\n      add\n        /* \"#utility.yul\":22196:22243   */\n      mstore\n        /* \"#utility.yul\":22260:22391   */\n      tag_481\n        /* \"#utility.yul\":22386:22390   */\n      dup2\n        /* \"#utility.yul\":22260:22391   */\n      tag_255\n      jump\t// in\n    tag_481:\n        /* \"#utility.yul\":22252:22391   */\n      swap1\n      pop\n        /* \"#utility.yul\":21979:22398   */\n      swap2\n      swap1\n      pop\n      jump\t// out\n        /* \"#utility.yul\":22404:22584   */\n    tag_256:\n        /* \"#utility.yul\":22452:22529   */\n      0x4e487b7100000000000000000000000000000000000000000000000000000000\n        /* \"#utility.yul\":22449:22450   */\n      0x00\n        /* \"#utility.yul\":22442:22530   */\n      mstore\n        /* \"#utility.yul\":22549:22553   */\n      0x11\n        /* \"#utility.yul\":22546:22547   */\n      0x04\n        /* \"#utility.yul\":22539:22554   */\n      mstore\n        /* \"#utility.yul\":22573:22577   */\n      0x24\n        /* \"#utility.yul\":22570:22571   */\n      0x00\n        /* \"#utility.yul\":22563:22578   */\n      revert\n        /* \"#utility.yul\":22590:22784   */\n    tag_171:\n        /* \"#utility.yul\":22630:22634   */\n      0x00\n        /* \"#utility.yul\":22650:22670   */\n      tag_484\n        /* \"#utility.yul\":22668:22669   */\n      dup3\n        /* \"#utility.yul\":22650:22670   */\n      tag_196\n      jump\t// in\n    tag_484:\n        /* \"#utility.yul\":22645:22670   */\n      swap2\n      pop\n        /* \"#utility.yul\":22684:22704   */\n      tag_485\n        /* \"#utility.yul\":22702:22703   */\n      dup4\n        /* \"#utility.yul\":22684:22704   */\n      tag_196\n      jump\t// in\n    tag_485:\n        /* \"#utility.yul\":22679:22704   */\n      swap3\n      pop\n        /* \"#utility.yul\":22728:22729   */\n      dup3\n        /* \"#utility.yul\":22725:22726   */\n      dup3\n        /* \"#utility.yul\":22721:22730   */\n      sub\n        /* \"#utility.yul\":22713:22730   */\n      swap1\n      pop\n        /* \"#utility.yul\":22752:22753   */\n      dup2\n        /* \"#utility.yul\":22746:22750   */\n      dup2\n        /* \"#utility.yul\":22743:22754   */\n      gt\n        /* \"#utility.yul\":22740:22777   */\n      iszero\n      tag_486\n      jumpi\n        /* \"#utility.yul\":22757:22775   */\n      tag_487\n      tag_256\n      jump\t// in\n    tag_487:\n        /* \"#utility.yul\":22740:22777   */\n    tag_486:\n        /* \"#utility.yul\":22590:22784   */\n      swap3\n      swap2\n      pop\n      pop\n      jump\t// out\n        /* \"#utility.yul\":22790:22950   */\n    tag_257:\n        /* \"#utility.yul\":22930:22942   */\n      0x55454e7320616464656400000000000000000000000000000000000000000000\n        /* \"#utility.yul\":22926:22927   */\n      0x00\n        /* \"#utility.yul\":22918:22924   */\n      dup3\n        /* \"#utility.yul\":22914:22928   */\n      add\n        /* \"#utility.yul\":22907:22943   */\n      mstore\n        /* \"#utility.yul\":22790:22950   */\n      pop\n      jump\t// out\n        /* \"#utility.yul\":22956:23322   */\n    tag_258:\n        /* \"#utility.yul\":23098:23101   */\n      0x00\n        /* \"#utility.yul\":23119:23186   */\n      tag_490\n        /* \"#utility.yul\":23183:23185   */\n      0x0a\n        /* \"#utility.yul\":23178:23181   */\n      dup4\n        /* \"#utility.yul\":23119:23186   */\n      tag_217\n      jump\t// in\n    tag_490:\n        /* \"#utility.yul\":23112:23186   */\n      swap2\n      pop\n        /* \"#utility.yul\":23195:23288   */\n      tag_491\n        /* \"#utility.yul\":23284:23287   */\n      dup3\n        /* \"#utility.yul\":23195:23288   */\n      tag_257\n      jump\t// in\n    tag_491:\n        /* \"#utility.yul\":23313:23315   */\n      0x20\n        /* \"#utility.yul\":23308:23311   */\n      dup3\n        /* \"#utility.yul\":23304:23316   */\n      add\n        /* \"#utility.yul\":23297:23316   */\n      swap1\n      pop\n        /* \"#utility.yul\":22956:23322   */\n      swap2\n      swap1\n      pop\n      jump\t// out\n        /* \"#utility.yul\":23328:24048   */\n    tag_176:\n        /* \"#utility.yul\":23592:23596   */\n      0x00\n        /* \"#utility.yul\":23630:23632   */\n      0x40\n        /* \"#utility.yul\":23619:23628   */\n      dup3\n        /* \"#utility.yul\":23615:23633   */\n      add\n        /* \"#utility.yul\":23607:23633   */\n      swap1\n      pop\n        /* \"#utility.yul\":23679:23688   */\n      dup2\n        /* \"#utility.yul\":23673:23677   */\n      dup2\n        /* \"#utility.yul\":23669:23689   */\n      sub\n        /* \"#utility.yul\":23665:23666   */\n      0x00\n        /* \"#utility.yul\":23654:23663   */\n      dup4\n        /* \"#utility.yul\":23650:23667   */\n      add\n        /* \"#utility.yul\":23643:23690   */\n      mstore\n        /* \"#utility.yul\":23707:23835   */\n      tag_493\n        /* \"#utility.yul\":23830:23834   */\n      dup2\n        /* \"#utility.yul\":23821:23827   */\n      dup5\n        /* \"#utility.yul\":23707:23835   */\n      tag_227\n      jump\t// in\n    tag_493:\n        /* \"#utility.yul\":23699:23835   */\n      swap1\n      pop\n        /* \"#utility.yul\":23882:23891   */\n      dup2\n        /* \"#utility.yul\":23876:23880   */\n      dup2\n        /* \"#utility.yul\":23872:23892   */\n      sub\n        /* \"#utility.yul\":23867:23869   */\n      0x20\n        /* \"#utility.yul\":23856:23865   */\n      dup4\n        /* \"#utility.yul\":23852:23870   */\n      add\n        /* \"#utility.yul\":23845:23893   */\n      mstore\n        /* \"#utility.yul\":23910:24041   */\n      tag_494\n        /* \"#utility.yul\":24036:24040   */\n      dup2\n        /* \"#utility.yul\":23910:24041   */\n      tag_258\n      jump\t// in\n    tag_494:\n        /* \"#utility.yul\":23902:24041   */\n      swap1\n      pop\n        /* \"#utility.yul\":23328:24048   */\n      swap3\n      swap2\n      pop\n      pop\n      jump\t// out\n\n    auxdata: 0xa26469706673582212208d7a780719f08d3cc3b0beda4f545678b7454b5355685d77029fe81dbbd0a95f64736f6c63430008160033\n}\n",
				"bytecode": {
					"linkReferences": {},
					"object": "608060405234801562000010575f80fd5b5060405162001a3538038062001a358339818101604052810190620000369190620001e9565b805f73ffffffffffffffffffffffffffffffffffffffff168173ffffffffffffffffffffffffffffffffffffffff1603620000aa575f6040517f1e4fbdf7000000000000000000000000000000000000000000000000000000008152600401620000a191906200022a565b60405180910390fd5b620000bb81620000c360201b60201c565b505062000245565b5f805f9054906101000a900473ffffffffffffffffffffffffffffffffffffffff169050815f806101000a81548173ffffffffffffffffffffffffffffffffffffffff021916908373ffffffffffffffffffffffffffffffffffffffff1602179055508173ffffffffffffffffffffffffffffffffffffffff168173ffffffffffffffffffffffffffffffffffffffff167f8be0079c531659141344cd1fd0a4f28419497f9722a3daafe3b4186f6b6457e060405160405180910390a35050565b5f80fd5b5f73ffffffffffffffffffffffffffffffffffffffff82169050919050565b5f620001b38262000188565b9050919050565b620001c581620001a7565b8114620001d0575f80fd5b50565b5f81519050620001e381620001ba565b92915050565b5f6020828403121562000201576200020062000184565b5b5f6200021084828501620001d3565b91505092915050565b6200022481620001a7565b82525050565b5f6020820190506200023f5f83018462000219565b92915050565b6117e280620002535f395ff3fe608060405234801561000f575f80fd5b50600436106100a7575f3560e01c80639926aa341161006f5780639926aa341461013d578063a8f5d7a614610159578063b30282fa14610189578063b3d6da6e146101b9578063f2fde38b146101d7578063f9b378c2146101f3576100a7565b806314bfd6d0146100ab57806335b13db2146100db57806346dc1ffc146100f7578063715018a6146101155780638da5cb5b1461011f575b5f80fd5b6100c560048036038101906100c09190610bf7565b61020f565b6040516100d29190610c61565b60405180910390f35b6100f560048036038101906100f09190610e98565b61024a565b005b6100ff610393565b60405161010c9190610c61565b60405180910390f35b61011d6103b8565b005b6101276103cb565b6040516101349190610c61565b60405180910390f35b61015760048036038101906101529190610edf565b6103f2565b005b610173600480360381019061016e9190610f55565b610541565b6040516101809190611016565b60405180910390f35b6101a3600480360381019061019e9190610bf7565b6105ef565b6040516101b09190611016565b60405180910390f35b6101c1610695565b6040516101ce9190611139565b60405180910390f35b6101f160048036038101906101ec9190611183565b610769565b005b61020d60048036038101906102089190610edf565b6107ed565b005b6005818154811061021e575f80fd5b905f5260205f20015f915054906101000a900473ffffffffffffffffffffffffffffffffffffffff1681565b610252610a0c565b5f5b8151811015610358576002828281518110610272576102716111ae565b5b60200260200101516040516102879190611215565b90815260200160405180910390205f6102a09190610b5b565b60405180602001604052805f815250600160038484815181106102c6576102c56111ae565b5b60200260200101516040516102db9190611215565b908152602001604051809103902054815481106102fb576102fa6111ae565b5b905f5260205f2001908161030f9190611425565b506003828281518110610325576103246111ae565b5b602002602001015160405161033a9190611215565b90815260200160405180910390205f90558080600101915050610254565b507f5462cca44bd73f863d8a33c18eddea04a24e4ac8e252404333dd97ac7a732ac881604051610388919061153e565b60405180910390a150565b60045f9054906101000a900473ffffffffffffffffffffffffffffffffffffffff1681565b6103c0610a0c565b6103c95f610a93565b565b5f805f9054906101000a900473ffffffffffffffffffffffffffffffffffffffff16905090565b6103fa610a0c565b805182511461043e576040517f08c379a0000000000000000000000000000000000000000000000000000000008152600401610435906115e1565b60405180910390fd5b5f5b825181101561053c575f600284838151811061045f5761045e6111ae565b5b60200260200101516040516104749190611215565b9081526020016040518091039020805461048d90611258565b9050036104cf576040517f08c379a00000000000000000000000000000000000000000000000000000000081526004016104c690611649565b60405180910390fd5b8181815181106104e2576104e16111ae565b5b602002602001015160028483815181106104ff576104fe6111ae565b5b60200260200101516040516105149190611215565b9081526020016040518091039020908161052e9190611425565b508080600101915050610440565b505050565b60606002826040516105539190611215565b9081526020016040518091039020805461056c90611258565b80601f016020809104026020016040519081016040528092919081815260200182805461059890611258565b80156105e35780601f106105ba576101008083540402835291602001916105e3565b820191905f5260205f20905b8154815290600101906020018083116105c657829003601f168201915b50505050509050919050565b600181815481106105fe575f80fd5b905f5260205f20015f91509050805461061690611258565b80601f016020809104026020016040519081016040528092919081815260200182805461064290611258565b801561068d5780601f106106645761010080835404028352916020019161068d565b820191905f5260205f20905b81548152906001019060200180831161067057829003601f168201915b505050505081565b60606001805480602002602001604051908101604052809291908181526020015f905b82821015610760578382905f5260205f200180546106d590611258565b80601f016020809104026020016040519081016040528092919081815260200182805461070190611258565b801561074c5780601f106107235761010080835404028352916020019161074c565b820191905f5260205f20905b81548152906001019060200180831161072f57829003601f168201915b5050505050815260200190600101906106b8565b50505050905090565b610771610a0c565b5f73ffffffffffffffffffffffffffffffffffffffff168173ffffffffffffffffffffffffffffffffffffffff16036107e1575f6040517f1e4fbdf70000000000000000000000000000000000000000000000000000000081526004016107d89190610c61565b60405180910390fd5b6107ea81610a93565b50565b6107f5610a0c565b8051825114610839576040517f08c379a0000000000000000000000000000000000000000000000000000000008152600401610830906115e1565b60405180910390fd5b5f5b82518110156109d0575f600284838151811061085a576108596111ae565b5b602002602001015160405161086f9190611215565b9081526020016040518091039020805461088890611258565b9050146108ca576040517f08c379a00000000000000000000000000000000000000000000000000000000081526004016108c1906116b1565b60405180910390fd5b8181815181106108dd576108dc6111ae565b5b602002602001015160028483815181106108fa576108f96111ae565b5b602002602001015160405161090f9190611215565b908152602001604051809103902090816109299190611425565b50600183828151811061093f5761093e6111ae565b5b6020026020010151908060018154018082558091505060019003905f5260205f20015f9091909190915090816109759190611425565b506001808054905061098791906116fc565b600384838151811061099c5761099b6111ae565b5b60200260200101516040516109b19190611215565b908152602001604051809103902081905550808060010191505061083b565b507f5462cca44bd73f863d8a33c18eddea04a24e4ac8e252404333dd97ac7a732ac882604051610a009190611779565b60405180910390a15050565b610a14610b54565b73ffffffffffffffffffffffffffffffffffffffff16610a326103cb565b73ffffffffffffffffffffffffffffffffffffffff1614610a9157610a55610b54565b6040517f118cdaa7000000000000000000000000000000000000000000000000000000008152600401610a889190610c61565b60405180910390fd5b565b5f805f9054906101000a900473ffffffffffffffffffffffffffffffffffffffff169050815f806101000a81548173ffffffffffffffffffffffffffffffffffffffff021916908373ffffffffffffffffffffffffffffffffffffffff1602179055508173ffffffffffffffffffffffffffffffffffffffff168173ffffffffffffffffffffffffffffffffffffffff167f8be0079c531659141344cd1fd0a4f28419497f9722a3daafe3b4186f6b6457e060405160405180910390a35050565b5f33905090565b508054610b6790611258565b5f825580601f10610b785750610b95565b601f0160209004905f5260205f2090810190610b949190610b98565b5b50565b5b80821115610baf575f815f905550600101610b99565b5090565b5f604051905090565b5f80fd5b5f80fd5b5f819050919050565b610bd681610bc4565b8114610be0575f80fd5b50565b5f81359050610bf181610bcd565b92915050565b5f60208284031215610c0c57610c0b610bbc565b5b5f610c1984828501610be3565b91505092915050565b5f73ffffffffffffffffffffffffffffffffffffffff82169050919050565b5f610c4b82610c22565b9050919050565b610c5b81610c41565b82525050565b5f602082019050610c745f830184610c52565b92915050565b5f80fd5b5f601f19601f8301169050919050565b7f4e487b71000000000000000000000000000000000000000000000000000000005f52604160045260245ffd5b610cc482610c7e565b810181811067ffffffffffffffff82111715610ce357610ce2610c8e565b5b80604052505050565b5f610cf5610bb3565b9050610d018282610cbb565b919050565b5f67ffffffffffffffff821115610d2057610d1f610c8e565b5b602082029050602081019050919050565b5f80fd5b5f80fd5b5f67ffffffffffffffff821115610d5357610d52610c8e565b5b610d5c82610c7e565b9050602081019050919050565b828183375f83830152505050565b5f610d89610d8484610d39565b610cec565b905082815260208101848484011115610da557610da4610d35565b5b610db0848285610d69565b509392505050565b5f82601f830112610dcc57610dcb610c7a565b5b8135610ddc848260208601610d77565b91505092915050565b5f610df7610df284610d06565b610cec565b90508083825260208201905060208402830185811115610e1a57610e19610d31565b5b835b81811015610e6157803567ffffffffffffffff811115610e3f57610e3e610c7a565b5b808601610e4c8982610db8565b85526020850194505050602081019050610e1c565b5050509392505050565b5f82601f830112610e7f57610e7e610c7a565b5b8135610e8f848260208601610de5565b91505092915050565b5f60208284031215610ead57610eac610bbc565b5b5f82013567ffffffffffffffff811115610eca57610ec9610bc0565b5b610ed684828501610e6b565b91505092915050565b5f8060408385031215610ef557610ef4610bbc565b5b5f83013567ffffffffffffffff811115610f1257610f11610bc0565b5b610f1e85828601610e6b565b925050602083013567ffffffffffffffff811115610f3f57610f3e610bc0565b5b610f4b85828601610e6b565b9150509250929050565b5f60208284031215610f6a57610f69610bbc565b5b5f82013567ffffffffffffffff811115610f8757610f86610bc0565b5b610f9384828501610db8565b91505092915050565b5f81519050919050565b5f82825260208201905092915050565b5f5b83811015610fd3578082015181840152602081019050610fb8565b5f8484015250505050565b5f610fe882610f9c565b610ff28185610fa6565b9350611002818560208601610fb6565b61100b81610c7e565b840191505092915050565b5f6020820190508181035f83015261102e8184610fde565b905092915050565b5f81519050919050565b5f82825260208201905092915050565b5f819050602082019050919050565b5f82825260208201905092915050565b5f61107982610f9c565b611083818561105f565b9350611093818560208601610fb6565b61109c81610c7e565b840191505092915050565b5f6110b2838361106f565b905092915050565b5f602082019050919050565b5f6110d082611036565b6110da8185611040565b9350836020820285016110ec85611050565b805f5b85811015611127578484038952815161110885826110a7565b9450611113836110ba565b925060208a019950506001810190506110ef565b50829750879550505050505092915050565b5f6020820190508181035f83015261115181846110c6565b905092915050565b61116281610c41565b811461116c575f80fd5b50565b5f8135905061117d81611159565b92915050565b5f6020828403121561119857611197610bbc565b5b5f6111a58482850161116f565b91505092915050565b7f4e487b71000000000000000000000000000000000000000000000000000000005f52603260045260245ffd5b5f81905092915050565b5f6111ef82610f9c565b6111f981856111db565b9350611209818560208601610fb6565b80840191505092915050565b5f61122082846111e5565b915081905092915050565b7f4e487b71000000000000000000000000000000000000000000000000000000005f52602260045260245ffd5b5f600282049050600182168061126f57607f821691505b6020821081036112825761128161122b565b5b50919050565b5f819050815f5260205f209050919050565b5f6020601f8301049050919050565b5f82821b905092915050565b5f600883026112e47fffffffffffffffffffffffffffffffffffffffffffffffffffffffffffffffff826112a9565b6112ee86836112a9565b95508019841693508086168417925050509392505050565b5f819050919050565b5f61132961132461131f84610bc4565b611306565b610bc4565b9050919050565b5f819050919050565b6113428361130f565b61135661134e82611330565b8484546112b5565b825550505050565b5f90565b61136a61135e565b611375818484611339565b505050565b5b818110156113985761138d5f82611362565b60018101905061137b565b5050565b601f8211156113dd576113ae81611288565b6113b78461129a565b810160208510156113c6578190505b6113da6113d28561129a565b83018261137a565b50505b505050565b5f82821c905092915050565b5f6113fd5f19846008026113e2565b1980831691505092915050565b5f61141583836113ee565b9150826002028217905092915050565b61142e82610f9c565b67ffffffffffffffff81111561144757611446610c8e565b5b6114518254611258565b61145c82828561139c565b5f60209050601f83116001811461148d575f841561147b578287015190505b611485858261140a565b8655506114ec565b601f19841661149b86611288565b5f5b828110156114c25784890151825560018201915060208501945060208101905061149d565b868310156114df57848901516114db601f8916826113ee565b8355505b6001600288020188555050505b505050505050565b7f55454e732072656d6f76656400000000000000000000000000000000000000005f82015250565b5f611528600c83610fa6565b9150611533826114f4565b602082019050919050565b5f6040820190508181035f83015261155681846110c6565b905081810360208301526115698161151c565b905092915050565b7f4d617070696e6773206d7573742068617665207468652073616d65206c656e675f8201527f7468000000000000000000000000000000000000000000000000000000000000602082015250565b5f6115cb602283610fa6565b91506115d682611571565b604082019050919050565b5f6020820190508181035f8301526115f8816115bf565b9050919050565b7f55454e20646f6573206e6f7420657869737400000000000000000000000000005f82015250565b5f611633601283610fa6565b915061163e826115ff565b602082019050919050565b5f6020820190508181035f83015261166081611627565b9050919050565b7f55454e20616c72656164792065786973747300000000000000000000000000005f82015250565b5f61169b601283610fa6565b91506116a682611667565b602082019050919050565b5f6020820190508181035f8301526116c88161168f565b9050919050565b7f4e487b71000000000000000000000000000000000000000000000000000000005f52601160045260245ffd5b5f61170682610bc4565b915061171183610bc4565b9250828203905081811115611729576117286116cf565b5b92915050565b7f55454e73206164646564000000000000000000000000000000000000000000005f82015250565b5f611763600a83610fa6565b915061176e8261172f565b602082019050919050565b5f6040820190508181035f83015261179181846110c6565b905081810360208301526117a481611757565b90509291505056fea26469706673582212208d7a780719f08d3cc3b0beda4f545678b7454b5355685d77029fe81dbbd0a95f64736f6c63430008160033",
					"opcodes": "PUSH1 0x80 PUSH1 0x40 MSTORE CALLVALUE DUP1 ISZERO PUSH3 0x10 JUMPI PUSH0 DUP1 REVERT JUMPDEST POP PUSH1 0x40 MLOAD PUSH3 0x1A35 CODESIZE SUB DUP1 PUSH3 0x1A35 DUP4 CODECOPY DUP2 DUP2 ADD PUSH1 0x40 MSTORE DUP2 ADD SWAP1 PUSH3 0x36 SWAP2 SWAP1 PUSH3 0x1E9 JUMP JUMPDEST DUP1 PUSH0 PUSH20 0xFFFFFFFFFFFFFFFFFFFFFFFFFFFFFFFFFFFFFFFF AND DUP2 PUSH20 0xFFFFFFFFFFFFFFFFFFFFFFFFFFFFFFFFFFFFFFFF AND SUB PUSH3 0xAA JUMPI PUSH0 PUSH1 0x40 MLOAD PUSH32 0x1E4FBDF700000000000000000000000000000000000000000000000000000000 DUP2 MSTORE PUSH1 0x4 ADD PUSH3 0xA1 SWAP2 SWAP1 PUSH3 0x22A JUMP JUMPDEST PUSH1 0x40 MLOAD DUP1 SWAP2 SUB SWAP1 REVERT JUMPDEST PUSH3 0xBB DUP2 PUSH3 0xC3 PUSH1 0x20 SHL PUSH1 0x20 SHR JUMP JUMPDEST POP POP PUSH3 0x245 JUMP JUMPDEST PUSH0 DUP1 PUSH0 SWAP1 SLOAD SWAP1 PUSH2 0x100 EXP SWAP1 DIV PUSH20 0xFFFFFFFFFFFFFFFFFFFFFFFFFFFFFFFFFFFFFFFF AND SWAP1 POP DUP2 PUSH0 DUP1 PUSH2 0x100 EXP DUP2 SLOAD DUP2 PUSH20 0xFFFFFFFFFFFFFFFFFFFFFFFFFFFFFFFFFFFFFFFF MUL NOT AND SWAP1 DUP4 PUSH20 0xFFFFFFFFFFFFFFFFFFFFFFFFFFFFFFFFFFFFFFFF AND MUL OR SWAP1 SSTORE POP DUP2 PUSH20 0xFFFFFFFFFFFFFFFFFFFFFFFFFFFFFFFFFFFFFFFF AND DUP2 PUSH20 0xFFFFFFFFFFFFFFFFFFFFFFFFFFFFFFFFFFFFFFFF AND PUSH32 0x8BE0079C531659141344CD1FD0A4F28419497F9722A3DAAFE3B4186F6B6457E0 PUSH1 0x40 MLOAD PUSH1 0x40 MLOAD DUP1 SWAP2 SUB SWAP1 LOG3 POP POP JUMP JUMPDEST PUSH0 DUP1 REVERT JUMPDEST PUSH0 PUSH20 0xFFFFFFFFFFFFFFFFFFFFFFFFFFFFFFFFFFFFFFFF DUP3 AND SWAP1 POP SWAP2 SWAP1 POP JUMP JUMPDEST PUSH0 PUSH3 0x1B3 DUP3 PUSH3 0x188 JUMP JUMPDEST SWAP1 POP SWAP2 SWAP1 POP JUMP JUMPDEST PUSH3 0x1C5 DUP2 PUSH3 0x1A7 JUMP JUMPDEST DUP2 EQ PUSH3 0x1D0 JUMPI PUSH0 DUP1 REVERT JUMPDEST POP JUMP JUMPDEST PUSH0 DUP2 MLOAD SWAP1 POP PUSH3 0x1E3 DUP2 PUSH3 0x1BA JUMP JUMPDEST SWAP3 SWAP2 POP POP JUMP JUMPDEST PUSH0 PUSH1 0x20 DUP3 DUP5 SUB SLT ISZERO PUSH3 0x201 JUMPI PUSH3 0x200 PUSH3 0x184 JUMP JUMPDEST JUMPDEST PUSH0 PUSH3 0x210 DUP5 DUP3 DUP6 ADD PUSH3 0x1D3 JUMP JUMPDEST SWAP2 POP POP SWAP3 SWAP2 POP POP JUMP JUMPDEST PUSH3 0x224 DUP2 PUSH3 0x1A7 JUMP JUMPDEST DUP3 MSTORE POP POP JUMP JUMPDEST PUSH0 PUSH1 0x20 DUP3 ADD SWAP1 POP PUSH3 0x23F PUSH0 DUP4 ADD DUP5 PUSH3 0x219 JUMP JUMPDEST SWAP3 SWAP2 POP POP JUMP JUMPDEST PUSH2 0x17E2 DUP1 PUSH3 0x253 PUSH0 CODECOPY PUSH0 RETURN INVALID PUSH1 0x80 PUSH1 0x40 MSTORE CALLVALUE DUP1 ISZERO PUSH2 0xF JUMPI PUSH0 DUP1 REVERT JUMPDEST POP PUSH1 0x4 CALLDATASIZE LT PUSH2 0xA7 JUMPI PUSH0 CALLDATALOAD PUSH1 0xE0 SHR DUP1 PUSH4 0x9926AA34 GT PUSH2 0x6F JUMPI DUP1 PUSH4 0x9926AA34 EQ PUSH2 0x13D JUMPI DUP1 PUSH4 0xA8F5D7A6 EQ PUSH2 0x159 JUMPI DUP1 PUSH4 0xB30282FA EQ PUSH2 0x189 JUMPI DUP1 PUSH4 0xB3D6DA6E EQ PUSH2 0x1B9 JUMPI DUP1 PUSH4 0xF2FDE38B EQ PUSH2 0x1D7 JUMPI DUP1 PUSH4 0xF9B378C2 EQ PUSH2 0x1F3 JUMPI PUSH2 0xA7 JUMP JUMPDEST DUP1 PUSH4 0x14BFD6D0 EQ PUSH2 0xAB JUMPI DUP1 PUSH4 0x35B13DB2 EQ PUSH2 0xDB JUMPI DUP1 PUSH4 0x46DC1FFC EQ PUSH2 0xF7 JUMPI DUP1 PUSH4 0x715018A6 EQ PUSH2 0x115 JUMPI DUP1 PUSH4 0x8DA5CB5B EQ PUSH2 0x11F JUMPI JUMPDEST PUSH0 DUP1 REVERT JUMPDEST PUSH2 0xC5 PUSH1 0x4 DUP1 CALLDATASIZE SUB DUP2 ADD SWAP1 PUSH2 0xC0 SWAP2 SWAP1 PUSH2 0xBF7 JUMP JUMPDEST PUSH2 0x20F JUMP JUMPDEST PUSH1 0x40 MLOAD PUSH2 0xD2 SWAP2 SWAP1 PUSH2 0xC61 JUMP JUMPDEST PUSH1 0x40 MLOAD DUP1 SWAP2 SUB SWAP1 RETURN JUMPDEST PUSH2 0xF5 PUSH1 0x4 DUP1 CALLDATASIZE SUB DUP2 ADD SWAP1 PUSH2 0xF0 SWAP2 SWAP1 PUSH2 0xE98 JUMP JUMPDEST PUSH2 0x24A JUMP JUMPDEST STOP JUMPDEST PUSH2 0xFF PUSH2 0x393 JUMP JUMPDEST PUSH1 0x40 MLOAD PUSH2 0x10C SWAP2 SWAP1 PUSH2 0xC61 JUMP JUMPDEST PUSH1 0x40 MLOAD DUP1 SWAP2 SUB SWAP1 RETURN JUMPDEST PUSH2 0x11D PUSH2 0x3B8 JUMP JUMPDEST STOP JUMPDEST PUSH2 0x127 PUSH2 0x3CB JUMP JUMPDEST PUSH1 0x40 MLOAD PUSH2 0x134 SWAP2 SWAP1 PUSH2 0xC61 JUMP JUMPDEST PUSH1 0x40 MLOAD DUP1 SWAP2 SUB SWAP1 RETURN JUMPDEST PUSH2 0x157 PUSH1 0x4 DUP1 CALLDATASIZE SUB DUP2 ADD SWAP1 PUSH2 0x152 SWAP2 SWAP1 PUSH2 0xEDF JUMP JUMPDEST PUSH2 0x3F2 JUMP JUMPDEST STOP JUMPDEST PUSH2 0x173 PUSH1 0x4 DUP1 CALLDATASIZE SUB DUP2 ADD SWAP1 PUSH2 0x16E SWAP2 SWAP1 PUSH2 0xF55 JUMP JUMPDEST PUSH2 0x541 JUMP JUMPDEST PUSH1 0x40 MLOAD PUSH2 0x180 SWAP2 SWAP1 PUSH2 0x1016 JUMP JUMPDEST PUSH1 0x40 MLOAD DUP1 SWAP2 SUB SWAP1 RETURN JUMPDEST PUSH2 0x1A3 PUSH1 0x4 DUP1 CALLDATASIZE SUB DUP2 ADD SWAP1 PUSH2 0x19E SWAP2 SWAP1 PUSH2 0xBF7 JUMP JUMPDEST PUSH2 0x5EF JUMP JUMPDEST PUSH1 0x40 MLOAD PUSH2 0x1B0 SWAP2 SWAP1 PUSH2 0x1016 JUMP JUMPDEST PUSH1 0x40 MLOAD DUP1 SWAP2 SUB SWAP1 RETURN JUMPDEST PUSH2 0x1C1 PUSH2 0x695 JUMP JUMPDEST PUSH1 0x40 MLOAD PUSH2 0x1CE SWAP2 SWAP1 PUSH2 0x1139 JUMP JUMPDEST PUSH1 0x40 MLOAD DUP1 SWAP2 SUB SWAP1 RETURN JUMPDEST PUSH2 0x1F1 PUSH1 0x4 DUP1 CALLDATASIZE SUB DUP2 ADD SWAP1 PUSH2 0x1EC SWAP2 SWAP1 PUSH2 0x1183 JUMP JUMPDEST PUSH2 0x769 JUMP JUMPDEST STOP JUMPDEST PUSH2 0x20D PUSH1 0x4 DUP1 CALLDATASIZE SUB DUP2 ADD SWAP1 PUSH2 0x208 SWAP2 SWAP1 PUSH2 0xEDF JUMP JUMPDEST PUSH2 0x7ED JUMP JUMPDEST STOP JUMPDEST PUSH1 0x5 DUP2 DUP2 SLOAD DUP2 LT PUSH2 0x21E JUMPI PUSH0 DUP1 REVERT JUMPDEST SWAP1 PUSH0 MSTORE PUSH1 0x20 PUSH0 KECCAK256 ADD PUSH0 SWAP2 POP SLOAD SWAP1 PUSH2 0x100 EXP SWAP1 DIV PUSH20 0xFFFFFFFFFFFFFFFFFFFFFFFFFFFFFFFFFFFFFFFF AND DUP2 JUMP JUMPDEST PUSH2 0x252 PUSH2 0xA0C JUMP JUMPDEST PUSH0 JUMPDEST DUP2 MLOAD DUP2 LT ISZERO PUSH2 0x358 JUMPI PUSH1 0x2 DUP3 DUP3 DUP2 MLOAD DUP2 LT PUSH2 0x272 JUMPI PUSH2 0x271 PUSH2 0x11AE JUMP JUMPDEST JUMPDEST PUSH1 0x20 MUL PUSH1 0x20 ADD ADD MLOAD PUSH1 0x40 MLOAD PUSH2 0x287 SWAP2 SWAP1 PUSH2 0x1215 JUMP JUMPDEST SWAP1 DUP2 MSTORE PUSH1 0x20 ADD PUSH1 0x40 MLOAD DUP1 SWAP2 SUB SWAP1 KECCAK256 PUSH0 PUSH2 0x2A0 SWAP2 SWAP1 PUSH2 0xB5B JUMP JUMPDEST PUSH1 0x40 MLOAD DUP1 PUSH1 0x20 ADD PUSH1 0x40 MSTORE DUP1 PUSH0 DUP2 MSTORE POP PUSH1 0x1 PUSH1 0x3 DUP5 DUP5 DUP2 MLOAD DUP2 LT PUSH2 0x2C6 JUMPI PUSH2 0x2C5 PUSH2 0x11AE JUMP JUMPDEST JUMPDEST PUSH1 0x20 MUL PUSH1 0x20 ADD ADD MLOAD PUSH1 0x40 MLOAD PUSH2 0x2DB SWAP2 SWAP1 PUSH2 0x1215 JUMP JUMPDEST SWAP1 DUP2 MSTORE PUSH1 0x20 ADD PUSH1 0x40 MLOAD DUP1 SWAP2 SUB SWAP1 KECCAK256 SLOAD DUP2 SLOAD DUP2 LT PUSH2 0x2FB JUMPI PUSH2 0x2FA PUSH2 0x11AE JUMP JUMPDEST JUMPDEST SWAP1 PUSH0 MSTORE PUSH1 0x20 PUSH0 KECCAK256 ADD SWAP1 DUP2 PUSH2 0x30F SWAP2 SWAP1 PUSH2 0x1425 JUMP JUMPDEST POP PUSH1 0x3 DUP3 DUP3 DUP2 MLOAD DUP2 LT PUSH2 0x325 JUMPI PUSH2 0x324 PUSH2 0x11AE JUMP JUMPDEST JUMPDEST PUSH1 0x20 MUL PUSH1 0x20 ADD ADD MLOAD PUSH1 0x40 MLOAD PUSH2 0x33A SWAP2 SWAP1 PUSH2 0x1215 JUMP JUMPDEST SWAP1 DUP2 MSTORE PUSH1 0x20 ADD PUSH1 0x40 MLOAD DUP1 SWAP2 SUB SWAP1 KECCAK256 PUSH0 SWAP1 SSTORE DUP1 DUP1 PUSH1 0x1 ADD SWAP2 POP POP PUSH2 0x254 JUMP JUMPDEST POP PUSH32 0x5462CCA44BD73F863D8A33C18EDDEA04A24E4AC8E252404333DD97AC7A732AC8 DUP2 PUSH1 0x40 MLOAD PUSH2 0x388 SWAP2 SWAP1 PUSH2 0x153E JUMP JUMPDEST PUSH1 0x40 MLOAD DUP1 SWAP2 SUB SWAP1 LOG1 POP JUMP JUMPDEST PUSH1 0x4 PUSH0 SWAP1 SLOAD SWAP1 PUSH2 0x100 EXP SWAP1 DIV PUSH20 0xFFFFFFFFFFFFFFFFFFFFFFFFFFFFFFFFFFFFFFFF AND DUP2 JUMP JUMPDEST PUSH2 0x3C0 PUSH2 0xA0C JUMP JUMPDEST PUSH2 0x3C9 PUSH0 PUSH2 0xA93 JUMP JUMPDEST JUMP JUMPDEST PUSH0 DUP1 PUSH0 SWAP1 SLOAD SWAP1 PUSH2 0x100 EXP SWAP1 DIV PUSH20 0xFFFFFFFFFFFFFFFFFFFFFFFFFFFFFFFFFFFFFFFF AND SWAP1 POP SWAP1 JUMP JUMPDEST PUSH2 0x3FA PUSH2 0xA0C JUMP JUMPDEST DUP1 MLOAD DUP3 MLOAD EQ PUSH2 0x43E JUMPI PUSH1 0x40 MLOAD PUSH32 0x8C379A000000000000000000000000000000000000000000000000000000000 DUP2 MSTORE PUSH1 0x4 ADD PUSH2 0x435 SWAP1 PUSH2 0x15E1 JUMP JUMPDEST PUSH1 0x40 MLOAD DUP1 SWAP2 SUB SWAP1 REVERT JUMPDEST PUSH0 JUMPDEST DUP3 MLOAD DUP2 LT ISZERO PUSH2 0x53C JUMPI PUSH0 PUSH1 0x2 DUP5 DUP4 DUP2 MLOAD DUP2 LT PUSH2 0x45F JUMPI PUSH2 0x45E PUSH2 0x11AE JUMP JUMPDEST JUMPDEST PUSH1 0x20 MUL PUSH1 0x20 ADD ADD MLOAD PUSH1 0x40 MLOAD PUSH2 0x474 SWAP2 SWAP1 PUSH2 0x1215 JUMP JUMPDEST SWAP1 DUP2 MSTORE PUSH1 0x20 ADD PUSH1 0x40 MLOAD DUP1 SWAP2 SUB SWAP1 KECCAK256 DUP1 SLOAD PUSH2 0x48D SWAP1 PUSH2 0x1258 JUMP JUMPDEST SWAP1 POP SUB PUSH2 0x4CF JUMPI PUSH1 0x40 MLOAD PUSH32 0x8C379A000000000000000000000000000000000000000000000000000000000 DUP2 MSTORE PUSH1 0x4 ADD PUSH2 0x4C6 SWAP1 PUSH2 0x1649 JUMP JUMPDEST PUSH1 0x40 MLOAD DUP1 SWAP2 SUB SWAP1 REVERT JUMPDEST DUP2 DUP2 DUP2 MLOAD DUP2 LT PUSH2 0x4E2 JUMPI PUSH2 0x4E1 PUSH2 0x11AE JUMP JUMPDEST JUMPDEST PUSH1 0x20 MUL PUSH1 0x20 ADD ADD MLOAD PUSH1 0x2 DUP5 DUP4 DUP2 MLOAD DUP2 LT PUSH2 0x4FF JUMPI PUSH2 0x4FE PUSH2 0x11AE JUMP JUMPDEST JUMPDEST PUSH1 0x20 MUL PUSH1 0x20 ADD ADD MLOAD PUSH1 0x40 MLOAD PUSH2 0x514 SWAP2 SWAP1 PUSH2 0x1215 JUMP JUMPDEST SWAP1 DUP2 MSTORE PUSH1 0x20 ADD PUSH1 0x40 MLOAD DUP1 SWAP2 SUB SWAP1 KECCAK256 SWAP1 DUP2 PUSH2 0x52E SWAP2 SWAP1 PUSH2 0x1425 JUMP JUMPDEST POP DUP1 DUP1 PUSH1 0x1 ADD SWAP2 POP POP PUSH2 0x440 JUMP JUMPDEST POP POP POP JUMP JUMPDEST PUSH1 0x60 PUSH1 0x2 DUP3 PUSH1 0x40 MLOAD PUSH2 0x553 SWAP2 SWAP1 PUSH2 0x1215 JUMP JUMPDEST SWAP1 DUP2 MSTORE PUSH1 0x20 ADD PUSH1 0x40 MLOAD DUP1 SWAP2 SUB SWAP1 KECCAK256 DUP1 SLOAD PUSH2 0x56C SWAP1 PUSH2 0x1258 JUMP JUMPDEST DUP1 PUSH1 0x1F ADD PUSH1 0x20 DUP1 SWAP2 DIV MUL PUSH1 0x20 ADD PUSH1 0x40 MLOAD SWAP1 DUP2 ADD PUSH1 0x40 MSTORE DUP1 SWAP3 SWAP2 SWAP1 DUP2 DUP2 MSTORE PUSH1 0x20 ADD DUP3 DUP1 SLOAD PUSH2 0x598 SWAP1 PUSH2 0x1258 JUMP JUMPDEST DUP1 ISZERO PUSH2 0x5E3 JUMPI DUP1 PUSH1 0x1F LT PUSH2 0x5BA JUMPI PUSH2 0x100 DUP1 DUP4 SLOAD DIV MUL DUP4 MSTORE SWAP2 PUSH1 0x20 ADD SWAP2 PUSH2 0x5E3 JUMP JUMPDEST DUP3 ADD SWAP2 SWAP1 PUSH0 MSTORE PUSH1 0x20 PUSH0 KECCAK256 SWAP1 JUMPDEST DUP2 SLOAD DUP2 MSTORE SWAP1 PUSH1 0x1 ADD SWAP1 PUSH1 0x20 ADD DUP1 DUP4 GT PUSH2 0x5C6 JUMPI DUP3 SWAP1 SUB PUSH1 0x1F AND DUP3 ADD SWAP2 JUMPDEST POP POP POP POP POP SWAP1 POP SWAP2 SWAP1 POP JUMP JUMPDEST PUSH1 0x1 DUP2 DUP2 SLOAD DUP2 LT PUSH2 0x5FE JUMPI PUSH0 DUP1 REVERT JUMPDEST SWAP1 PUSH0 MSTORE PUSH1 0x20 PUSH0 KECCAK256 ADD PUSH0 SWAP2 POP SWAP1 POP DUP1 SLOAD PUSH2 0x616 SWAP1 PUSH2 0x1258 JUMP JUMPDEST DUP1 PUSH1 0x1F ADD PUSH1 0x20 DUP1 SWAP2 DIV MUL PUSH1 0x20 ADD PUSH1 0x40 MLOAD SWAP1 DUP2 ADD PUSH1 0x40 MSTORE DUP1 SWAP3 SWAP2 SWAP1 DUP2 DUP2 MSTORE PUSH1 0x20 ADD DUP3 DUP1 SLOAD PUSH2 0x642 SWAP1 PUSH2 0x1258 JUMP JUMPDEST DUP1 ISZERO PUSH2 0x68D JUMPI DUP1 PUSH1 0x1F LT PUSH2 0x664 JUMPI PUSH2 0x100 DUP1 DUP4 SLOAD DIV MUL DUP4 MSTORE SWAP2 PUSH1 0x20 ADD SWAP2 PUSH2 0x68D JUMP JUMPDEST DUP3 ADD SWAP2 SWAP1 PUSH0 MSTORE PUSH1 0x20 PUSH0 KECCAK256 SWAP1 JUMPDEST DUP2 SLOAD DUP2 MSTORE SWAP1 PUSH1 0x1 ADD SWAP1 PUSH1 0x20 ADD DUP1 DUP4 GT PUSH2 0x670 JUMPI DUP3 SWAP1 SUB PUSH1 0x1F AND DUP3 ADD SWAP2 JUMPDEST POP POP POP POP POP DUP2 JUMP JUMPDEST PUSH1 0x60 PUSH1 0x1 DUP1 SLOAD DUP1 PUSH1 0x20 MUL PUSH1 0x20 ADD PUSH1 0x40 MLOAD SWAP1 DUP2 ADD PUSH1 0x40 MSTORE DUP1 SWAP3 SWAP2 SWAP1 DUP2 DUP2 MSTORE PUSH1 0x20 ADD PUSH0 SWAP1 JUMPDEST DUP3 DUP3 LT ISZERO PUSH2 0x760 JUMPI DUP4 DUP3 SWAP1 PUSH0 MSTORE PUSH1 0x20 PUSH0 KECCAK256 ADD DUP1 SLOAD PUSH2 0x6D5 SWAP1 PUSH2 0x1258 JUMP JUMPDEST DUP1 PUSH1 0x1F ADD PUSH1 0x20 DUP1 SWAP2 DIV MUL PUSH1 0x20 ADD PUSH1 0x40 MLOAD SWAP1 DUP2 ADD PUSH1 0x40 MSTORE DUP1 SWAP3 SWAP2 SWAP1 DUP2 DUP2 MSTORE PUSH1 0x20 ADD DUP3 DUP1 SLOAD PUSH2 0x701 SWAP1 PUSH2 0x1258 JUMP JUMPDEST DUP1 ISZERO PUSH2 0x74C JUMPI DUP1 PUSH1 0x1F LT PUSH2 0x723 JUMPI PUSH2 0x100 DUP1 DUP4 SLOAD DIV MUL DUP4 MSTORE SWAP2 PUSH1 0x20 ADD SWAP2 PUSH2 0x74C JUMP JUMPDEST DUP3 ADD SWAP2 SWAP1 PUSH0 MSTORE PUSH1 0x20 PUSH0 KECCAK256 SWAP1 JUMPDEST DUP2 SLOAD DUP2 MSTORE SWAP1 PUSH1 0x1 ADD SWAP1 PUSH1 0x20 ADD DUP1 DUP4 GT PUSH2 0x72F JUMPI DUP3 SWAP1 SUB PUSH1 0x1F AND DUP3 ADD SWAP2 JUMPDEST POP POP POP POP POP DUP2 MSTORE PUSH1 0x20 ADD SWAP1 PUSH1 0x1 ADD SWAP1 PUSH2 0x6B8 JUMP JUMPDEST POP POP POP POP SWAP1 POP SWAP1 JUMP JUMPDEST PUSH2 0x771 PUSH2 0xA0C JUMP JUMPDEST PUSH0 PUSH20 0xFFFFFFFFFFFFFFFFFFFFFFFFFFFFFFFFFFFFFFFF AND DUP2 PUSH20 0xFFFFFFFFFFFFFFFFFFFFFFFFFFFFFFFFFFFFFFFF AND SUB PUSH2 0x7E1 JUMPI PUSH0 PUSH1 0x40 MLOAD PUSH32 0x1E4FBDF700000000000000000000000000000000000000000000000000000000 DUP2 MSTORE PUSH1 0x4 ADD PUSH2 0x7D8 SWAP2 SWAP1 PUSH2 0xC61 JUMP JUMPDEST PUSH1 0x40 MLOAD DUP1 SWAP2 SUB SWAP1 REVERT JUMPDEST PUSH2 0x7EA DUP2 PUSH2 0xA93 JUMP JUMPDEST POP JUMP JUMPDEST PUSH2 0x7F5 PUSH2 0xA0C JUMP JUMPDEST DUP1 MLOAD DUP3 MLOAD EQ PUSH2 0x839 JUMPI PUSH1 0x40 MLOAD PUSH32 0x8C379A000000000000000000000000000000000000000000000000000000000 DUP2 MSTORE PUSH1 0x4 ADD PUSH2 0x830 SWAP1 PUSH2 0x15E1 JUMP JUMPDEST PUSH1 0x40 MLOAD DUP1 SWAP2 SUB SWAP1 REVERT JUMPDEST PUSH0 JUMPDEST DUP3 MLOAD DUP2 LT ISZERO PUSH2 0x9D0 JUMPI PUSH0 PUSH1 0x2 DUP5 DUP4 DUP2 MLOAD DUP2 LT PUSH2 0x85A JUMPI PUSH2 0x859 PUSH2 0x11AE JUMP JUMPDEST JUMPDEST PUSH1 0x20 MUL PUSH1 0x20 ADD ADD MLOAD PUSH1 0x40 MLOAD PUSH2 0x86F SWAP2 SWAP1 PUSH2 0x1215 JUMP JUMPDEST SWAP1 DUP2 MSTORE PUSH1 0x20 ADD PUSH1 0x40 MLOAD DUP1 SWAP2 SUB SWAP1 KECCAK256 DUP1 SLOAD PUSH2 0x888 SWAP1 PUSH2 0x1258 JUMP JUMPDEST SWAP1 POP EQ PUSH2 0x8CA JUMPI PUSH1 0x40 MLOAD PUSH32 0x8C379A000000000000000000000000000000000000000000000000000000000 DUP2 MSTORE PUSH1 0x4 ADD PUSH2 0x8C1 SWAP1 PUSH2 0x16B1 JUMP JUMPDEST PUSH1 0x40 MLOAD DUP1 SWAP2 SUB SWAP1 REVERT JUMPDEST DUP2 DUP2 DUP2 MLOAD DUP2 LT PUSH2 0x8DD JUMPI PUSH2 0x8DC PUSH2 0x11AE JUMP JUMPDEST JUMPDEST PUSH1 0x20 MUL PUSH1 0x20 ADD ADD MLOAD PUSH1 0x2 DUP5 DUP4 DUP2 MLOAD DUP2 LT PUSH2 0x8FA JUMPI PUSH2 0x8F9 PUSH2 0x11AE JUMP JUMPDEST JUMPDEST PUSH1 0x20 MUL PUSH1 0x20 ADD ADD MLOAD PUSH1 0x40 MLOAD PUSH2 0x90F SWAP2 SWAP1 PUSH2 0x1215 JUMP JUMPDEST SWAP1 DUP2 MSTORE PUSH1 0x20 ADD PUSH1 0x40 MLOAD DUP1 SWAP2 SUB SWAP1 KECCAK256 SWAP1 DUP2 PUSH2 0x929 SWAP2 SWAP1 PUSH2 0x1425 JUMP JUMPDEST POP PUSH1 0x1 DUP4 DUP3 DUP2 MLOAD DUP2 LT PUSH2 0x93F JUMPI PUSH2 0x93E PUSH2 0x11AE JUMP JUMPDEST JUMPDEST PUSH1 0x20 MUL PUSH1 0x20 ADD ADD MLOAD SWAP1 DUP1 PUSH1 0x1 DUP2 SLOAD ADD DUP1 DUP3 SSTORE DUP1 SWAP2 POP POP PUSH1 0x1 SWAP1 SUB SWAP1 PUSH0 MSTORE PUSH1 0x20 PUSH0 KECCAK256 ADD PUSH0 SWAP1 SWAP2 SWAP1 SWAP2 SWAP1 SWAP2 POP SWAP1 DUP2 PUSH2 0x975 SWAP2 SWAP1 PUSH2 0x1425 JUMP JUMPDEST POP PUSH1 0x1 DUP1 DUP1 SLOAD SWAP1 POP PUSH2 0x987 SWAP2 SWAP1 PUSH2 0x16FC JUMP JUMPDEST PUSH1 0x3 DUP5 DUP4 DUP2 MLOAD DUP2 LT PUSH2 0x99C JUMPI PUSH2 0x99B PUSH2 0x11AE JUMP JUMPDEST JUMPDEST PUSH1 0x20 MUL PUSH1 0x20 ADD ADD MLOAD PUSH1 0x40 MLOAD PUSH2 0x9B1 SWAP2 SWAP1 PUSH2 0x1215 JUMP JUMPDEST SWAP1 DUP2 MSTORE PUSH1 0x20 ADD PUSH1 0x40 MLOAD DUP1 SWAP2 SUB SWAP1 KECCAK256 DUP2 SWAP1 SSTORE POP DUP1 DUP1 PUSH1 0x1 ADD SWAP2 POP POP PUSH2 0x83B JUMP JUMPDEST POP PUSH32 0x5462CCA44BD73F863D8A33C18EDDEA04A24E4AC8E252404333DD97AC7A732AC8 DUP3 PUSH1 0x40 MLOAD PUSH2 0xA00 SWAP2 SWAP1 PUSH2 0x1779 JUMP JUMPDEST PUSH1 0x40 MLOAD DUP1 SWAP2 SUB SWAP1 LOG1 POP POP JUMP JUMPDEST PUSH2 0xA14 PUSH2 0xB54 JUMP JUMPDEST PUSH20 0xFFFFFFFFFFFFFFFFFFFFFFFFFFFFFFFFFFFFFFFF AND PUSH2 0xA32 PUSH2 0x3CB JUMP JUMPDEST PUSH20 0xFFFFFFFFFFFFFFFFFFFFFFFFFFFFFFFFFFFFFFFF AND EQ PUSH2 0xA91 JUMPI PUSH2 0xA55 PUSH2 0xB54 JUMP JUMPDEST PUSH1 0x40 MLOAD PUSH32 0x118CDAA700000000000000000000000000000000000000000000000000000000 DUP2 MSTORE PUSH1 0x4 ADD PUSH2 0xA88 SWAP2 SWAP1 PUSH2 0xC61 JUMP JUMPDEST PUSH1 0x40 MLOAD DUP1 SWAP2 SUB SWAP1 REVERT JUMPDEST JUMP JUMPDEST PUSH0 DUP1 PUSH0 SWAP1 SLOAD SWAP1 PUSH2 0x100 EXP SWAP1 DIV PUSH20 0xFFFFFFFFFFFFFFFFFFFFFFFFFFFFFFFFFFFFFFFF AND SWAP1 POP DUP2 PUSH0 DUP1 PUSH2 0x100 EXP DUP2 SLOAD DUP2 PUSH20 0xFFFFFFFFFFFFFFFFFFFFFFFFFFFFFFFFFFFFFFFF MUL NOT AND SWAP1 DUP4 PUSH20 0xFFFFFFFFFFFFFFFFFFFFFFFFFFFFFFFFFFFFFFFF AND MUL OR SWAP1 SSTORE POP DUP2 PUSH20 0xFFFFFFFFFFFFFFFFFFFFFFFFFFFFFFFFFFFFFFFF AND DUP2 PUSH20 0xFFFFFFFFFFFFFFFFFFFFFFFFFFFFFFFFFFFFFFFF AND PUSH32 0x8BE0079C531659141344CD1FD0A4F28419497F9722A3DAAFE3B4186F6B6457E0 PUSH1 0x40 MLOAD PUSH1 0x40 MLOAD DUP1 SWAP2 SUB SWAP1 LOG3 POP POP JUMP JUMPDEST PUSH0 CALLER SWAP1 POP SWAP1 JUMP JUMPDEST POP DUP1 SLOAD PUSH2 0xB67 SWAP1 PUSH2 0x1258 JUMP JUMPDEST PUSH0 DUP3 SSTORE DUP1 PUSH1 0x1F LT PUSH2 0xB78 JUMPI POP PUSH2 0xB95 JUMP JUMPDEST PUSH1 0x1F ADD PUSH1 0x20 SWAP1 DIV SWAP1 PUSH0 MSTORE PUSH1 0x20 PUSH0 KECCAK256 SWAP1 DUP2 ADD SWAP1 PUSH2 0xB94 SWAP2 SWAP1 PUSH2 0xB98 JUMP JUMPDEST JUMPDEST POP JUMP JUMPDEST JUMPDEST DUP1 DUP3 GT ISZERO PUSH2 0xBAF JUMPI PUSH0 DUP2 PUSH0 SWAP1 SSTORE POP PUSH1 0x1 ADD PUSH2 0xB99 JUMP JUMPDEST POP SWAP1 JUMP JUMPDEST PUSH0 PUSH1 0x40 MLOAD SWAP1 POP SWAP1 JUMP JUMPDEST PUSH0 DUP1 REVERT JUMPDEST PUSH0 DUP1 REVERT JUMPDEST PUSH0 DUP2 SWAP1 POP SWAP2 SWAP1 POP JUMP JUMPDEST PUSH2 0xBD6 DUP2 PUSH2 0xBC4 JUMP JUMPDEST DUP2 EQ PUSH2 0xBE0 JUMPI PUSH0 DUP1 REVERT JUMPDEST POP JUMP JUMPDEST PUSH0 DUP2 CALLDATALOAD SWAP1 POP PUSH2 0xBF1 DUP2 PUSH2 0xBCD JUMP JUMPDEST SWAP3 SWAP2 POP POP JUMP JUMPDEST PUSH0 PUSH1 0x20 DUP3 DUP5 SUB SLT ISZERO PUSH2 0xC0C JUMPI PUSH2 0xC0B PUSH2 0xBBC JUMP JUMPDEST JUMPDEST PUSH0 PUSH2 0xC19 DUP5 DUP3 DUP6 ADD PUSH2 0xBE3 JUMP JUMPDEST SWAP2 POP POP SWAP3 SWAP2 POP POP JUMP JUMPDEST PUSH0 PUSH20 0xFFFFFFFFFFFFFFFFFFFFFFFFFFFFFFFFFFFFFFFF DUP3 AND SWAP1 POP SWAP2 SWAP1 POP JUMP JUMPDEST PUSH0 PUSH2 0xC4B DUP3 PUSH2 0xC22 JUMP JUMPDEST SWAP1 POP SWAP2 SWAP1 POP JUMP JUMPDEST PUSH2 0xC5B DUP2 PUSH2 0xC41 JUMP JUMPDEST DUP3 MSTORE POP POP JUMP JUMPDEST PUSH0 PUSH1 0x20 DUP3 ADD SWAP1 POP PUSH2 0xC74 PUSH0 DUP4 ADD DUP5 PUSH2 0xC52 JUMP JUMPDEST SWAP3 SWAP2 POP POP JUMP JUMPDEST PUSH0 DUP1 REVERT JUMPDEST PUSH0 PUSH1 0x1F NOT PUSH1 0x1F DUP4 ADD AND SWAP1 POP SWAP2 SWAP1 POP JUMP JUMPDEST PUSH32 0x4E487B7100000000000000000000000000000000000000000000000000000000 PUSH0 MSTORE PUSH1 0x41 PUSH1 0x4 MSTORE PUSH1 0x24 PUSH0 REVERT JUMPDEST PUSH2 0xCC4 DUP3 PUSH2 0xC7E JUMP JUMPDEST DUP2 ADD DUP2 DUP2 LT PUSH8 0xFFFFFFFFFFFFFFFF DUP3 GT OR ISZERO PUSH2 0xCE3 JUMPI PUSH2 0xCE2 PUSH2 0xC8E JUMP JUMPDEST JUMPDEST DUP1 PUSH1 0x40 MSTORE POP POP POP JUMP JUMPDEST PUSH0 PUSH2 0xCF5 PUSH2 0xBB3 JUMP JUMPDEST SWAP1 POP PUSH2 0xD01 DUP3 DUP3 PUSH2 0xCBB JUMP JUMPDEST SWAP2 SWAP1 POP JUMP JUMPDEST PUSH0 PUSH8 0xFFFFFFFFFFFFFFFF DUP3 GT ISZERO PUSH2 0xD20 JUMPI PUSH2 0xD1F PUSH2 0xC8E JUMP JUMPDEST JUMPDEST PUSH1 0x20 DUP3 MUL SWAP1 POP PUSH1 0x20 DUP2 ADD SWAP1 POP SWAP2 SWAP1 POP JUMP JUMPDEST PUSH0 DUP1 REVERT JUMPDEST PUSH0 DUP1 REVERT JUMPDEST PUSH0 PUSH8 0xFFFFFFFFFFFFFFFF DUP3 GT ISZERO PUSH2 0xD53 JUMPI PUSH2 0xD52 PUSH2 0xC8E JUMP JUMPDEST JUMPDEST PUSH2 0xD5C DUP3 PUSH2 0xC7E JUMP JUMPDEST SWAP1 POP PUSH1 0x20 DUP2 ADD SWAP1 POP SWAP2 SWAP1 POP JUMP JUMPDEST DUP3 DUP2 DUP4 CALLDATACOPY PUSH0 DUP4 DUP4 ADD MSTORE POP POP POP JUMP JUMPDEST PUSH0 PUSH2 0xD89 PUSH2 0xD84 DUP5 PUSH2 0xD39 JUMP JUMPDEST PUSH2 0xCEC JUMP JUMPDEST SWAP1 POP DUP3 DUP2 MSTORE PUSH1 0x20 DUP2 ADD DUP5 DUP5 DUP5 ADD GT ISZERO PUSH2 0xDA5 JUMPI PUSH2 0xDA4 PUSH2 0xD35 JUMP JUMPDEST JUMPDEST PUSH2 0xDB0 DUP5 DUP3 DUP6 PUSH2 0xD69 JUMP JUMPDEST POP SWAP4 SWAP3 POP POP POP JUMP JUMPDEST PUSH0 DUP3 PUSH1 0x1F DUP4 ADD SLT PUSH2 0xDCC JUMPI PUSH2 0xDCB PUSH2 0xC7A JUMP JUMPDEST JUMPDEST DUP2 CALLDATALOAD PUSH2 0xDDC DUP5 DUP3 PUSH1 0x20 DUP7 ADD PUSH2 0xD77 JUMP JUMPDEST SWAP2 POP POP SWAP3 SWAP2 POP POP JUMP JUMPDEST PUSH0 PUSH2 0xDF7 PUSH2 0xDF2 DUP5 PUSH2 0xD06 JUMP JUMPDEST PUSH2 0xCEC JUMP JUMPDEST SWAP1 POP DUP1 DUP4 DUP3 MSTORE PUSH1 0x20 DUP3 ADD SWAP1 POP PUSH1 0x20 DUP5 MUL DUP4 ADD DUP6 DUP2 GT ISZERO PUSH2 0xE1A JUMPI PUSH2 0xE19 PUSH2 0xD31 JUMP JUMPDEST JUMPDEST DUP4 JUMPDEST DUP2 DUP2 LT ISZERO PUSH2 0xE61 JUMPI DUP1 CALLDATALOAD PUSH8 0xFFFFFFFFFFFFFFFF DUP2 GT ISZERO PUSH2 0xE3F JUMPI PUSH2 0xE3E PUSH2 0xC7A JUMP JUMPDEST JUMPDEST DUP1 DUP7 ADD PUSH2 0xE4C DUP10 DUP3 PUSH2 0xDB8 JUMP JUMPDEST DUP6 MSTORE PUSH1 0x20 DUP6 ADD SWAP5 POP POP POP PUSH1 0x20 DUP2 ADD SWAP1 POP PUSH2 0xE1C JUMP JUMPDEST POP POP POP SWAP4 SWAP3 POP POP POP JUMP JUMPDEST PUSH0 DUP3 PUSH1 0x1F DUP4 ADD SLT PUSH2 0xE7F JUMPI PUSH2 0xE7E PUSH2 0xC7A JUMP JUMPDEST JUMPDEST DUP2 CALLDATALOAD PUSH2 0xE8F DUP5 DUP3 PUSH1 0x20 DUP7 ADD PUSH2 0xDE5 JUMP JUMPDEST SWAP2 POP POP SWAP3 SWAP2 POP POP JUMP JUMPDEST PUSH0 PUSH1 0x20 DUP3 DUP5 SUB SLT ISZERO PUSH2 0xEAD JUMPI PUSH2 0xEAC PUSH2 0xBBC JUMP JUMPDEST JUMPDEST PUSH0 DUP3 ADD CALLDATALOAD PUSH8 0xFFFFFFFFFFFFFFFF DUP2 GT ISZERO PUSH2 0xECA JUMPI PUSH2 0xEC9 PUSH2 0xBC0 JUMP JUMPDEST JUMPDEST PUSH2 0xED6 DUP5 DUP3 DUP6 ADD PUSH2 0xE6B JUMP JUMPDEST SWAP2 POP POP SWAP3 SWAP2 POP POP JUMP JUMPDEST PUSH0 DUP1 PUSH1 0x40 DUP4 DUP6 SUB SLT ISZERO PUSH2 0xEF5 JUMPI PUSH2 0xEF4 PUSH2 0xBBC JUMP JUMPDEST JUMPDEST PUSH0 DUP4 ADD CALLDATALOAD PUSH8 0xFFFFFFFFFFFFFFFF DUP2 GT ISZERO PUSH2 0xF12 JUMPI PUSH2 0xF11 PUSH2 0xBC0 JUMP JUMPDEST JUMPDEST PUSH2 0xF1E DUP6 DUP3 DUP7 ADD PUSH2 0xE6B JUMP JUMPDEST SWAP3 POP POP PUSH1 0x20 DUP4 ADD CALLDATALOAD PUSH8 0xFFFFFFFFFFFFFFFF DUP2 GT ISZERO PUSH2 0xF3F JUMPI PUSH2 0xF3E PUSH2 0xBC0 JUMP JUMPDEST JUMPDEST PUSH2 0xF4B DUP6 DUP3 DUP7 ADD PUSH2 0xE6B JUMP JUMPDEST SWAP2 POP POP SWAP3 POP SWAP3 SWAP1 POP JUMP JUMPDEST PUSH0 PUSH1 0x20 DUP3 DUP5 SUB SLT ISZERO PUSH2 0xF6A JUMPI PUSH2 0xF69 PUSH2 0xBBC JUMP JUMPDEST JUMPDEST PUSH0 DUP3 ADD CALLDATALOAD PUSH8 0xFFFFFFFFFFFFFFFF DUP2 GT ISZERO PUSH2 0xF87 JUMPI PUSH2 0xF86 PUSH2 0xBC0 JUMP JUMPDEST JUMPDEST PUSH2 0xF93 DUP5 DUP3 DUP6 ADD PUSH2 0xDB8 JUMP JUMPDEST SWAP2 POP POP SWAP3 SWAP2 POP POP JUMP JUMPDEST PUSH0 DUP2 MLOAD SWAP1 POP SWAP2 SWAP1 POP JUMP JUMPDEST PUSH0 DUP3 DUP3 MSTORE PUSH1 0x20 DUP3 ADD SWAP1 POP SWAP3 SWAP2 POP POP JUMP JUMPDEST PUSH0 JUMPDEST DUP4 DUP2 LT ISZERO PUSH2 0xFD3 JUMPI DUP1 DUP3 ADD MLOAD DUP2 DUP5 ADD MSTORE PUSH1 0x20 DUP2 ADD SWAP1 POP PUSH2 0xFB8 JUMP JUMPDEST PUSH0 DUP5 DUP5 ADD MSTORE POP POP POP POP JUMP JUMPDEST PUSH0 PUSH2 0xFE8 DUP3 PUSH2 0xF9C JUMP JUMPDEST PUSH2 0xFF2 DUP2 DUP6 PUSH2 0xFA6 JUMP JUMPDEST SWAP4 POP PUSH2 0x1002 DUP2 DUP6 PUSH1 0x20 DUP7 ADD PUSH2 0xFB6 JUMP JUMPDEST PUSH2 0x100B DUP2 PUSH2 0xC7E JUMP JUMPDEST DUP5 ADD SWAP2 POP POP SWAP3 SWAP2 POP POP JUMP JUMPDEST PUSH0 PUSH1 0x20 DUP3 ADD SWAP1 POP DUP2 DUP2 SUB PUSH0 DUP4 ADD MSTORE PUSH2 0x102E DUP2 DUP5 PUSH2 0xFDE JUMP JUMPDEST SWAP1 POP SWAP3 SWAP2 POP POP JUMP JUMPDEST PUSH0 DUP2 MLOAD SWAP1 POP SWAP2 SWAP1 POP JUMP JUMPDEST PUSH0 DUP3 DUP3 MSTORE PUSH1 0x20 DUP3 ADD SWAP1 POP SWAP3 SWAP2 POP POP JUMP JUMPDEST PUSH0 DUP2 SWAP1 POP PUSH1 0x20 DUP3 ADD SWAP1 POP SWAP2 SWAP1 POP JUMP JUMPDEST PUSH0 DUP3 DUP3 MSTORE PUSH1 0x20 DUP3 ADD SWAP1 POP SWAP3 SWAP2 POP POP JUMP JUMPDEST PUSH0 PUSH2 0x1079 DUP3 PUSH2 0xF9C JUMP JUMPDEST PUSH2 0x1083 DUP2 DUP6 PUSH2 0x105F JUMP JUMPDEST SWAP4 POP PUSH2 0x1093 DUP2 DUP6 PUSH1 0x20 DUP7 ADD PUSH2 0xFB6 JUMP JUMPDEST PUSH2 0x109C DUP2 PUSH2 0xC7E JUMP JUMPDEST DUP5 ADD SWAP2 POP POP SWAP3 SWAP2 POP POP JUMP JUMPDEST PUSH0 PUSH2 0x10B2 DUP4 DUP4 PUSH2 0x106F JUMP JUMPDEST SWAP1 POP SWAP3 SWAP2 POP POP JUMP JUMPDEST PUSH0 PUSH1 0x20 DUP3 ADD SWAP1 POP SWAP2 SWAP1 POP JUMP JUMPDEST PUSH0 PUSH2 0x10D0 DUP3 PUSH2 0x1036 JUMP JUMPDEST PUSH2 0x10DA DUP2 DUP6 PUSH2 0x1040 JUMP JUMPDEST SWAP4 POP DUP4 PUSH1 0x20 DUP3 MUL DUP6 ADD PUSH2 0x10EC DUP6 PUSH2 0x1050 JUMP JUMPDEST DUP1 PUSH0 JUMPDEST DUP6 DUP2 LT ISZERO PUSH2 0x1127 JUMPI DUP5 DUP5 SUB DUP10 MSTORE DUP2 MLOAD PUSH2 0x1108 DUP6 DUP3 PUSH2 0x10A7 JUMP JUMPDEST SWAP5 POP PUSH2 0x1113 DUP4 PUSH2 0x10BA JUMP JUMPDEST SWAP3 POP PUSH1 0x20 DUP11 ADD SWAP10 POP POP PUSH1 0x1 DUP2 ADD SWAP1 POP PUSH2 0x10EF JUMP JUMPDEST POP DUP3 SWAP8 POP DUP8 SWAP6 POP POP POP POP POP POP SWAP3 SWAP2 POP POP JUMP JUMPDEST PUSH0 PUSH1 0x20 DUP3 ADD SWAP1 POP DUP2 DUP2 SUB PUSH0 DUP4 ADD MSTORE PUSH2 0x1151 DUP2 DUP5 PUSH2 0x10C6 JUMP JUMPDEST SWAP1 POP SWAP3 SWAP2 POP POP JUMP JUMPDEST PUSH2 0x1162 DUP2 PUSH2 0xC41 JUMP JUMPDEST DUP2 EQ PUSH2 0x116C JUMPI PUSH0 DUP1 REVERT JUMPDEST POP JUMP JUMPDEST PUSH0 DUP2 CALLDATALOAD SWAP1 POP PUSH2 0x117D DUP2 PUSH2 0x1159 JUMP JUMPDEST SWAP3 SWAP2 POP POP JUMP JUMPDEST PUSH0 PUSH1 0x20 DUP3 DUP5 SUB SLT ISZERO PUSH2 0x1198 JUMPI PUSH2 0x1197 PUSH2 0xBBC JUMP JUMPDEST JUMPDEST PUSH0 PUSH2 0x11A5 DUP5 DUP3 DUP6 ADD PUSH2 0x116F JUMP JUMPDEST SWAP2 POP POP SWAP3 SWAP2 POP POP JUMP JUMPDEST PUSH32 0x4E487B7100000000000000000000000000000000000000000000000000000000 PUSH0 MSTORE PUSH1 0x32 PUSH1 0x4 MSTORE PUSH1 0x24 PUSH0 REVERT JUMPDEST PUSH0 DUP2 SWAP1 POP SWAP3 SWAP2 POP POP JUMP JUMPDEST PUSH0 PUSH2 0x11EF DUP3 PUSH2 0xF9C JUMP JUMPDEST PUSH2 0x11F9 DUP2 DUP6 PUSH2 0x11DB JUMP JUMPDEST SWAP4 POP PUSH2 0x1209 DUP2 DUP6 PUSH1 0x20 DUP7 ADD PUSH2 0xFB6 JUMP JUMPDEST DUP1 DUP5 ADD SWAP2 POP POP SWAP3 SWAP2 POP POP JUMP JUMPDEST PUSH0 PUSH2 0x1220 DUP3 DUP5 PUSH2 0x11E5 JUMP JUMPDEST SWAP2 POP DUP2 SWAP1 POP SWAP3 SWAP2 POP POP JUMP JUMPDEST PUSH32 0x4E487B7100000000000000000000000000000000000000000000000000000000 PUSH0 MSTORE PUSH1 0x22 PUSH1 0x4 MSTORE PUSH1 0x24 PUSH0 REVERT JUMPDEST PUSH0 PUSH1 0x2 DUP3 DIV SWAP1 POP PUSH1 0x1 DUP3 AND DUP1 PUSH2 0x126F JUMPI PUSH1 0x7F DUP3 AND SWAP2 POP JUMPDEST PUSH1 0x20 DUP3 LT DUP2 SUB PUSH2 0x1282 JUMPI PUSH2 0x1281 PUSH2 0x122B JUMP JUMPDEST JUMPDEST POP SWAP2 SWAP1 POP JUMP JUMPDEST PUSH0 DUP2 SWAP1 POP DUP2 PUSH0 MSTORE PUSH1 0x20 PUSH0 KECCAK256 SWAP1 POP SWAP2 SWAP1 POP JUMP JUMPDEST PUSH0 PUSH1 0x20 PUSH1 0x1F DUP4 ADD DIV SWAP1 POP SWAP2 SWAP1 POP JUMP JUMPDEST PUSH0 DUP3 DUP3 SHL SWAP1 POP SWAP3 SWAP2 POP POP JUMP JUMPDEST PUSH0 PUSH1 0x8 DUP4 MUL PUSH2 0x12E4 PUSH32 0xFFFFFFFFFFFFFFFFFFFFFFFFFFFFFFFFFFFFFFFFFFFFFFFFFFFFFFFFFFFFFFFF DUP3 PUSH2 0x12A9 JUMP JUMPDEST PUSH2 0x12EE DUP7 DUP4 PUSH2 0x12A9 JUMP JUMPDEST SWAP6 POP DUP1 NOT DUP5 AND SWAP4 POP DUP1 DUP7 AND DUP5 OR SWAP3 POP POP POP SWAP4 SWAP3 POP POP POP JUMP JUMPDEST PUSH0 DUP2 SWAP1 POP SWAP2 SWAP1 POP JUMP JUMPDEST PUSH0 PUSH2 0x1329 PUSH2 0x1324 PUSH2 0x131F DUP5 PUSH2 0xBC4 JUMP JUMPDEST PUSH2 0x1306 JUMP JUMPDEST PUSH2 0xBC4 JUMP JUMPDEST SWAP1 POP SWAP2 SWAP1 POP JUMP JUMPDEST PUSH0 DUP2 SWAP1 POP SWAP2 SWAP1 POP JUMP JUMPDEST PUSH2 0x1342 DUP4 PUSH2 0x130F JUMP JUMPDEST PUSH2 0x1356 PUSH2 0x134E DUP3 PUSH2 0x1330 JUMP JUMPDEST DUP5 DUP5 SLOAD PUSH2 0x12B5 JUMP JUMPDEST DUP3 SSTORE POP POP POP POP JUMP JUMPDEST PUSH0 SWAP1 JUMP JUMPDEST PUSH2 0x136A PUSH2 0x135E JUMP JUMPDEST PUSH2 0x1375 DUP2 DUP5 DUP5 PUSH2 0x1339 JUMP JUMPDEST POP POP POP JUMP JUMPDEST JUMPDEST DUP2 DUP2 LT ISZERO PUSH2 0x1398 JUMPI PUSH2 0x138D PUSH0 DUP3 PUSH2 0x1362 JUMP JUMPDEST PUSH1 0x1 DUP2 ADD SWAP1 POP PUSH2 0x137B JUMP JUMPDEST POP POP JUMP JUMPDEST PUSH1 0x1F DUP3 GT ISZERO PUSH2 0x13DD JUMPI PUSH2 0x13AE DUP2 PUSH2 0x1288 JUMP JUMPDEST PUSH2 0x13B7 DUP5 PUSH2 0x129A JUMP JUMPDEST DUP2 ADD PUSH1 0x20 DUP6 LT ISZERO PUSH2 0x13C6 JUMPI DUP2 SWAP1 POP JUMPDEST PUSH2 0x13DA PUSH2 0x13D2 DUP6 PUSH2 0x129A JUMP JUMPDEST DUP4 ADD DUP3 PUSH2 0x137A JUMP JUMPDEST POP POP JUMPDEST POP POP POP JUMP JUMPDEST PUSH0 DUP3 DUP3 SHR SWAP1 POP SWAP3 SWAP2 POP POP JUMP JUMPDEST PUSH0 PUSH2 0x13FD PUSH0 NOT DUP5 PUSH1 0x8 MUL PUSH2 0x13E2 JUMP JUMPDEST NOT DUP1 DUP4 AND SWAP2 POP POP SWAP3 SWAP2 POP POP JUMP JUMPDEST PUSH0 PUSH2 0x1415 DUP4 DUP4 PUSH2 0x13EE JUMP JUMPDEST SWAP2 POP DUP3 PUSH1 0x2 MUL DUP3 OR SWAP1 POP SWAP3 SWAP2 POP POP JUMP JUMPDEST PUSH2 0x142E DUP3 PUSH2 0xF9C JUMP JUMPDEST PUSH8 0xFFFFFFFFFFFFFFFF DUP2 GT ISZERO PUSH2 0x1447 JUMPI PUSH2 0x1446 PUSH2 0xC8E JUMP JUMPDEST JUMPDEST PUSH2 0x1451 DUP3 SLOAD PUSH2 0x1258 JUMP JUMPDEST PUSH2 0x145C DUP3 DUP3 DUP6 PUSH2 0x139C JUMP JUMPDEST PUSH0 PUSH1 0x20 SWAP1 POP PUSH1 0x1F DUP4 GT PUSH1 0x1 DUP2 EQ PUSH2 0x148D JUMPI PUSH0 DUP5 ISZERO PUSH2 0x147B JUMPI DUP3 DUP8 ADD MLOAD SWAP1 POP JUMPDEST PUSH2 0x1485 DUP6 DUP3 PUSH2 0x140A JUMP JUMPDEST DUP7 SSTORE POP PUSH2 0x14EC JUMP JUMPDEST PUSH1 0x1F NOT DUP5 AND PUSH2 0x149B DUP7 PUSH2 0x1288 JUMP JUMPDEST PUSH0 JUMPDEST DUP3 DUP2 LT ISZERO PUSH2 0x14C2 JUMPI DUP5 DUP10 ADD MLOAD DUP3 SSTORE PUSH1 0x1 DUP3 ADD SWAP2 POP PUSH1 0x20 DUP6 ADD SWAP5 POP PUSH1 0x20 DUP2 ADD SWAP1 POP PUSH2 0x149D JUMP JUMPDEST DUP7 DUP4 LT ISZERO PUSH2 0x14DF JUMPI DUP5 DUP10 ADD MLOAD PUSH2 0x14DB PUSH1 0x1F DUP10 AND DUP3 PUSH2 0x13EE JUMP JUMPDEST DUP4 SSTORE POP JUMPDEST PUSH1 0x1 PUSH1 0x2 DUP9 MUL ADD DUP9 SSTORE POP POP POP JUMPDEST POP POP POP POP POP POP JUMP JUMPDEST PUSH32 0x55454E732072656D6F7665640000000000000000000000000000000000000000 PUSH0 DUP3 ADD MSTORE POP JUMP JUMPDEST PUSH0 PUSH2 0x1528 PUSH1 0xC DUP4 PUSH2 0xFA6 JUMP JUMPDEST SWAP2 POP PUSH2 0x1533 DUP3 PUSH2 0x14F4 JUMP JUMPDEST PUSH1 0x20 DUP3 ADD SWAP1 POP SWAP2 SWAP1 POP JUMP JUMPDEST PUSH0 PUSH1 0x40 DUP3 ADD SWAP1 POP DUP2 DUP2 SUB PUSH0 DUP4 ADD MSTORE PUSH2 0x1556 DUP2 DUP5 PUSH2 0x10C6 JUMP JUMPDEST SWAP1 POP DUP2 DUP2 SUB PUSH1 0x20 DUP4 ADD MSTORE PUSH2 0x1569 DUP2 PUSH2 0x151C JUMP JUMPDEST SWAP1 POP SWAP3 SWAP2 POP POP JUMP JUMPDEST PUSH32 0x4D617070696E6773206D7573742068617665207468652073616D65206C656E67 PUSH0 DUP3 ADD MSTORE PUSH32 0x7468000000000000000000000000000000000000000000000000000000000000 PUSH1 0x20 DUP3 ADD MSTORE POP JUMP JUMPDEST PUSH0 PUSH2 0x15CB PUSH1 0x22 DUP4 PUSH2 0xFA6 JUMP JUMPDEST SWAP2 POP PUSH2 0x15D6 DUP3 PUSH2 0x1571 JUMP JUMPDEST PUSH1 0x40 DUP3 ADD SWAP1 POP SWAP2 SWAP1 POP JUMP JUMPDEST PUSH0 PUSH1 0x20 DUP3 ADD SWAP1 POP DUP2 DUP2 SUB PUSH0 DUP4 ADD MSTORE PUSH2 0x15F8 DUP2 PUSH2 0x15BF JUMP JUMPDEST SWAP1 POP SWAP2 SWAP1 POP JUMP JUMPDEST PUSH32 0x55454E20646F6573206E6F742065786973740000000000000000000000000000 PUSH0 DUP3 ADD MSTORE POP JUMP JUMPDEST PUSH0 PUSH2 0x1633 PUSH1 0x12 DUP4 PUSH2 0xFA6 JUMP JUMPDEST SWAP2 POP PUSH2 0x163E DUP3 PUSH2 0x15FF JUMP JUMPDEST PUSH1 0x20 DUP3 ADD SWAP1 POP SWAP2 SWAP1 POP JUMP JUMPDEST PUSH0 PUSH1 0x20 DUP3 ADD SWAP1 POP DUP2 DUP2 SUB PUSH0 DUP4 ADD MSTORE PUSH2 0x1660 DUP2 PUSH2 0x1627 JUMP JUMPDEST SWAP1 POP SWAP2 SWAP1 POP JUMP JUMPDEST PUSH32 0x55454E20616C7265616479206578697374730000000000000000000000000000 PUSH0 DUP3 ADD MSTORE POP JUMP JUMPDEST PUSH0 PUSH2 0x169B PUSH1 0x12 DUP4 PUSH2 0xFA6 JUMP JUMPDEST SWAP2 POP PUSH2 0x16A6 DUP3 PUSH2 0x1667 JUMP JUMPDEST PUSH1 0x20 DUP3 ADD SWAP1 POP SWAP2 SWAP1 POP JUMP JUMPDEST PUSH0 PUSH1 0x20 DUP3 ADD SWAP1 POP DUP2 DUP2 SUB PUSH0 DUP4 ADD MSTORE PUSH2 0x16C8 DUP2 PUSH2 0x168F JUMP JUMPDEST SWAP1 POP SWAP2 SWAP1 POP JUMP JUMPDEST PUSH32 0x4E487B7100000000000000000000000000000000000000000000000000000000 PUSH0 MSTORE PUSH1 0x11 PUSH1 0x4 MSTORE PUSH1 0x24 PUSH0 REVERT JUMPDEST PUSH0 PUSH2 0x1706 DUP3 PUSH2 0xBC4 JUMP JUMPDEST SWAP2 POP PUSH2 0x1711 DUP4 PUSH2 0xBC4 JUMP JUMPDEST SWAP3 POP DUP3 DUP3 SUB SWAP1 POP DUP2 DUP2 GT ISZERO PUSH2 0x1729 JUMPI PUSH2 0x1728 PUSH2 0x16CF JUMP JUMPDEST JUMPDEST SWAP3 SWAP2 POP POP JUMP JUMPDEST PUSH32 0x55454E7320616464656400000000000000000000000000000000000000000000 PUSH0 DUP3 ADD MSTORE POP JUMP JUMPDEST PUSH0 PUSH2 0x1763 PUSH1 0xA DUP4 PUSH2 0xFA6 JUMP JUMPDEST SWAP2 POP PUSH2 0x176E DUP3 PUSH2 0x172F JUMP JUMPDEST PUSH1 0x20 DUP3 ADD SWAP1 POP SWAP2 SWAP1 POP JUMP JUMPDEST PUSH0 PUSH1 0x40 DUP3 ADD SWAP1 POP DUP2 DUP2 SUB PUSH0 DUP4 ADD MSTORE PUSH2 0x1791 DUP2 DUP5 PUSH2 0x10C6 JUMP JUMPDEST SWAP1 POP DUP2 DUP2 SUB PUSH1 0x20 DUP4 ADD MSTORE PUSH2 0x17A4 DUP2 PUSH2 0x1757 JUMP JUMPDEST SWAP1 POP SWAP3 SWAP2 POP POP JUMP INVALID LOG2 PUSH5 0x6970667358 0x22 SLT KECCAK256 DUP14 PUSH27 0x780719F08D3CC3B0BEDA4F545678B7454B5355685D77029FE81DBB 0xD0 0xA9 PUSH0 PUSH5 0x736F6C6343 STOP ADDMOD AND STOP CALLER "
				},
				"gasEstimates": {
					"creation": {
						"codeDepositCost": "1222800",
						"executionCost": "infinite",
						"totalCost": "infinite"
					},
					"external": {
						"add_uens(string[],string[])": "infinite",
						"admin_list_contract()": "2553",
						"admins(uint256)": "4945",
						"get_all_uens()": "infinite",
						"get_name(string)": "infinite",
						"modify_uens(string[],string[])": "infinite",
						"owner()": "2604",
						"remove_uens(string[])": "infinite",
						"renounceOwnership()": "infinite",
						"transferOwnership(address)": "infinite",
						"uen_list(uint256)": "infinite"
					}
				},
				"methodIdentifiers": {
					"add_uens(string[],string[])": "f9b378c2",
					"admin_list_contract()": "46dc1ffc",
					"admins(uint256)": "14bfd6d0",
					"get_all_uens()": "b3d6da6e",
					"get_name(string)": "a8f5d7a6",
					"modify_uens(string[],string[])": "9926aa34",
					"owner()": "8da5cb5b",
					"remove_uens(string[])": "35b13db2",
					"renounceOwnership()": "715018a6",
					"transferOwnership(address)": "f2fde38b",
					"uen_list(uint256)": "b30282fa"
				}
			},
			"storageLayout": {
				"storage": [
					{
						"astId": 8,
						"contract": "uen_management.sol:uen_management",
						"label": "_owner",
						"offset": 0,
						"slot": "0",
						"type": "t_address"
					},
					{
						"astId": 224,
						"contract": "uen_management.sol:uen_management",
						"label": "uen_list",
						"offset": 0,
						"slot": "1",
						"type": "t_array(t_string_storage)dyn_storage"
					},
					{
						"astId": 228,
						"contract": "uen_management.sol:uen_management",
						"label": "uen_to_name",
						"offset": 0,
						"slot": "2",
						"type": "t_mapping(t_string_memory_ptr,t_string_storage)"
					},
					{
						"astId": 232,
						"contract": "uen_management.sol:uen_management",
						"label": "uen_to_index",
						"offset": 0,
						"slot": "3",
						"type": "t_mapping(t_string_memory_ptr,t_uint256)"
					},
					{
						"astId": 234,
						"contract": "uen_management.sol:uen_management",
						"label": "admin_list_contract",
						"offset": 0,
						"slot": "4",
						"type": "t_address"
					},
					{
						"astId": 237,
						"contract": "uen_management.sol:uen_management",
						"label": "admins",
						"offset": 0,
						"slot": "5",
						"type": "t_array(t_address)dyn_storage"
					}
				],
				"types": {
					"t_address": {
						"encoding": "inplace",
						"label": "address",
						"numberOfBytes": "20"
					},
					"t_array(t_address)dyn_storage": {
						"base": "t_address",
						"encoding": "dynamic_array",
						"label": "address[]",
						"numberOfBytes": "32"
					},
					"t_array(t_string_storage)dyn_storage": {
						"base": "t_string_storage",
						"encoding": "dynamic_array",
						"label": "string[]",
						"numberOfBytes": "32"
					},
					"t_mapping(t_string_memory_ptr,t_string_storage)": {
						"encoding": "mapping",
						"key": "t_string_memory_ptr",
						"label": "mapping(string => string)",
						"numberOfBytes": "32",
						"value": "t_string_storage"
					},
					"t_mapping(t_string_memory_ptr,t_uint256)": {
						"encoding": "mapping",
						"key": "t_string_memory_ptr",
						"label": "mapping(string => uint256)",
						"numberOfBytes": "32",
						"value": "t_uint256"
					},
					"t_string_memory_ptr": {
						"encoding": "bytes",
						"label": "string",
						"numberOfBytes": "32"
					},
					"t_string_storage": {
						"encoding": "bytes",
						"label": "string",
						"numberOfBytes": "32"
					},
					"t_uint256": {
						"encoding": "inplace",
						"label": "uint256",
						"numberOfBytes": "32"
					}
				}
			},
			"userdoc": {
				"kind": "user",
				"methods": {},
				"version": 1
			}
		}
	}
}