{
	"uen_management.sol": {
		"uen_management": {
			"abi": [
				{
					"inputs": [
						{
							"internalType": "address",
							"name": "_initialOwner",
							"type": "address"
						}
					],
					"stateMutability": "nonpayable",
					"type": "constructor"
				},
				{
					"inputs": [
						{
							"internalType": "address",
							"name": "owner",
							"type": "address"
						}
					],
					"name": "OwnableInvalidOwner",
					"type": "error"
				},
				{
					"inputs": [
						{
							"internalType": "address",
							"name": "account",
							"type": "address"
						}
					],
					"name": "OwnableUnauthorizedAccount",
					"type": "error"
				},
				{
					"anonymous": false,
					"inputs": [
						{
							"indexed": true,
							"internalType": "address",
							"name": "previousOwner",
							"type": "address"
						},
						{
							"indexed": true,
							"internalType": "address",
							"name": "newOwner",
							"type": "address"
						}
					],
					"name": "OwnershipTransferred",
					"type": "event"
				},
				{
					"anonymous": false,
					"inputs": [
						{
							"indexed": false,
							"internalType": "string[]",
							"name": "_uens",
							"type": "string[]"
						},
						{
							"indexed": false,
							"internalType": "string",
							"name": "_message",
							"type": "string"
						}
					],
					"name": "uen_event",
					"type": "event"
				},
				{
					"inputs": [
						{
							"internalType": "string[]",
							"name": "_uens",
							"type": "string[]"
						},
						{
							"internalType": "string[]",
							"name": "_names",
							"type": "string[]"
						}
					],
					"name": "add_uens",
					"outputs": [],
					"stateMutability": "nonpayable",
					"type": "function"
				},
				{
					"inputs": [
						{
							"internalType": "uint256",
							"name": "startIndex",
							"type": "uint256"
						},
						{
							"internalType": "uint256",
							"name": "endIndex",
							"type": "uint256"
						}
					],
					"name": "get_all_uens",
					"outputs": [
						{
							"internalType": "string[]",
							"name": "",
							"type": "string[]"
						}
					],
					"stateMutability": "view",
					"type": "function"
				},
				{
					"inputs": [
						{
							"internalType": "string",
							"name": "_uen",
							"type": "string"
						}
					],
					"name": "get_name",
					"outputs": [
						{
							"internalType": "string",
							"name": "",
							"type": "string"
						}
					],
					"stateMutability": "view",
					"type": "function"
				},
				{
					"inputs": [],
					"name": "get_uen_list_length",
					"outputs": [
						{
							"internalType": "uint256",
							"name": "",
							"type": "uint256"
						}
					],
					"stateMutability": "view",
					"type": "function"
				},
				{
					"inputs": [
						{
							"internalType": "string[]",
							"name": "_uens",
							"type": "string[]"
						},
						{
							"internalType": "string[]",
							"name": "_names",
							"type": "string[]"
						}
					],
					"name": "modify_uens",
					"outputs": [],
					"stateMutability": "nonpayable",
					"type": "function"
				},
				{
					"inputs": [],
					"name": "owner",
					"outputs": [
						{
							"internalType": "address",
							"name": "",
							"type": "address"
						}
					],
					"stateMutability": "view",
					"type": "function"
				},
				{
					"inputs": [
						{
							"internalType": "string[]",
							"name": "_uens",
							"type": "string[]"
						}
					],
					"name": "remove_uens",
					"outputs": [],
					"stateMutability": "nonpayable",
					"type": "function"
				},
				{
					"inputs": [],
					"name": "renounceOwnership",
					"outputs": [],
					"stateMutability": "nonpayable",
					"type": "function"
				},
				{
					"inputs": [
						{
							"internalType": "address",
							"name": "newOwner",
							"type": "address"
						}
					],
					"name": "transferOwnership",
					"outputs": [],
					"stateMutability": "nonpayable",
					"type": "function"
				},
				{
					"inputs": [
						{
							"internalType": "uint256",
							"name": "",
							"type": "uint256"
						}
					],
					"name": "uen_list",
					"outputs": [
						{
							"internalType": "string",
							"name": "",
							"type": "string"
						}
					],
					"stateMutability": "view",
					"type": "function"
				}
			],
			"devdoc": {
				"errors": {
					"OwnableInvalidOwner(address)": [
						{
							"details": "The owner is not a valid owner account. (eg. `address(0)`)"
						}
					],
					"OwnableUnauthorizedAccount(address)": [
						{
							"details": "The caller account is not authorized to perform an operation."
						}
					]
				},
				"kind": "dev",
				"methods": {
					"owner()": {
						"details": "Returns the address of the current owner."
					},
					"renounceOwnership()": {
						"details": "Leaves the contract without owner. It will not be possible to call `onlyOwner` functions. Can only be called by the current owner. NOTE: Renouncing ownership will leave the contract without an owner, thereby disabling any functionality that is only available to the owner."
					},
					"transferOwnership(address)": {
						"details": "Transfers ownership of the contract to a new account (`newOwner`). Can only be called by the current owner."
					}
				},
				"version": 1
			},
			"evm": {
				"assembly": "    /* \"uen_management.sol\":598:4476  contract uen_management is Ownable {... */\n  mstore(0x40, 0x80)\n    /* \"uen_management.sol\":1175:1241  constructor(address _initialOwner) Ownable(_initialOwner) {... */\n  callvalue\n  dup1\n  iszero\n  tag_1\n  jumpi\n  0x00\n  dup1\n  revert\ntag_1:\n  pop\n  mload(0x40)\n  sub(codesize, bytecodeSize)\n  dup1\n  bytecodeSize\n  dup4\n  codecopy\n  dup2\n  dup2\n  add\n  0x40\n  mstore\n  dup2\n  add\n  swap1\n  tag_2\n  swap2\n  swap1\n  tag_3\n  jump\t// in\ntag_2:\n    /* \"uen_management.sol\":1218:1231  _initialOwner */\n  dup1\n    /* \"@openzeppelin/contracts/access/Ownable.sol\":1297:1298  0 */\n  0x00\n    /* \"@openzeppelin/contracts/access/Ownable.sol\":1273:1299  initialOwner == address(0) */\n  0xffffffffffffffffffffffffffffffffffffffff\n  and\n    /* \"@openzeppelin/contracts/access/Ownable.sol\":1273:1285  initialOwner */\n  dup2\n    /* \"@openzeppelin/contracts/access/Ownable.sol\":1273:1299  initialOwner == address(0) */\n  0xffffffffffffffffffffffffffffffffffffffff\n  and\n  sub\n    /* \"@openzeppelin/contracts/access/Ownable.sol\":1269:1364  if (initialOwner == address(0)) {... */\n  tag_7\n  jumpi\n    /* \"@openzeppelin/contracts/access/Ownable.sol\":1350:1351  0 */\n  0x00\n    /* \"@openzeppelin/contracts/access/Ownable.sol\":1322:1353  OwnableInvalidOwner(address(0)) */\n  mload(0x40)\n  0x1e4fbdf700000000000000000000000000000000000000000000000000000000\n  dup2\n  mstore\n  0x04\n  add\n  tag_8\n  swap2\n  swap1\n  tag_9\n  jump\t// in\ntag_8:\n  mload(0x40)\n  dup1\n  swap2\n  sub\n  swap1\n  revert\n    /* \"@openzeppelin/contracts/access/Ownable.sol\":1269:1364  if (initialOwner == address(0)) {... */\ntag_7:\n    /* \"@openzeppelin/contracts/access/Ownable.sol\":1373:1405  _transferOwnership(initialOwner) */\n  tag_10\n    /* \"@openzeppelin/contracts/access/Ownable.sol\":1392:1404  initialOwner */\n  dup2\n    /* \"@openzeppelin/contracts/access/Ownable.sol\":1373:1391  _transferOwnership */\n  shl(0x20, tag_11)\n    /* \"@openzeppelin/contracts/access/Ownable.sol\":1373:1405  _transferOwnership(initialOwner) */\n  0x20\n  shr\n  jump\t// in\ntag_10:\n    /* \"@openzeppelin/contracts/access/Ownable.sol\":1225:1412  constructor(address initialOwner) {... */\n  pop\n    /* \"uen_management.sol\":1175:1241  constructor(address _initialOwner) Ownable(_initialOwner) {... */\n  pop\n    /* \"uen_management.sol\":598:4476  contract uen_management is Ownable {... */\n  jump(tag_13)\n    /* \"@openzeppelin/contracts/access/Ownable.sol\":2912:3099  function _transferOwnership(address newOwner) internal virtual {... */\ntag_11:\n    /* \"@openzeppelin/contracts/access/Ownable.sol\":2985:3001  address oldOwner */\n  0x00\n    /* \"@openzeppelin/contracts/access/Ownable.sol\":3004:3010  _owner */\n  dup1\n  0x00\n  swap1\n  sload\n  swap1\n  0x0100\n  exp\n  swap1\n  div\n  0xffffffffffffffffffffffffffffffffffffffff\n  and\n    /* \"@openzeppelin/contracts/access/Ownable.sol\":2985:3010  address oldOwner = _owner */\n  swap1\n  pop\n    /* \"@openzeppelin/contracts/access/Ownable.sol\":3029:3037  newOwner */\n  dup2\n    /* \"@openzeppelin/contracts/access/Ownable.sol\":3020:3026  _owner */\n  0x00\n  dup1\n    /* \"@openzeppelin/contracts/access/Ownable.sol\":3020:3037  _owner = newOwner */\n  0x0100\n  exp\n  dup2\n  sload\n  dup2\n  0xffffffffffffffffffffffffffffffffffffffff\n  mul\n  not\n  and\n  swap1\n  dup4\n  0xffffffffffffffffffffffffffffffffffffffff\n  and\n  mul\n  or\n  swap1\n  sstore\n  pop\n    /* \"@openzeppelin/contracts/access/Ownable.sol\":3083:3091  newOwner */\n  dup2\n    /* \"@openzeppelin/contracts/access/Ownable.sol\":3052:3092  OwnershipTransferred(oldOwner, newOwner) */\n  0xffffffffffffffffffffffffffffffffffffffff\n  and\n    /* \"@openzeppelin/contracts/access/Ownable.sol\":3073:3081  oldOwner */\n  dup2\n    /* \"@openzeppelin/contracts/access/Ownable.sol\":3052:3092  OwnershipTransferred(oldOwner, newOwner) */\n  0xffffffffffffffffffffffffffffffffffffffff\n  and\n  0x8be0079c531659141344cd1fd0a4f28419497f9722a3daafe3b4186f6b6457e0\n  mload(0x40)\n  mload(0x40)\n  dup1\n  swap2\n  sub\n  swap1\n  log3\n    /* \"@openzeppelin/contracts/access/Ownable.sol\":2975:3099  {... */\n  pop\n    /* \"@openzeppelin/contracts/access/Ownable.sol\":2912:3099  function _transferOwnership(address newOwner) internal virtual {... */\n  pop\n  jump\t// out\n    /* \"#utility.yul\":88:205   */\ntag_16:\n    /* \"#utility.yul\":197:198   */\n  0x00\n    /* \"#utility.yul\":194:195   */\n  dup1\n    /* \"#utility.yul\":187:199   */\n  revert\n    /* \"#utility.yul\":334:460   */\ntag_18:\n    /* \"#utility.yul\":371:378   */\n  0x00\n    /* \"#utility.yul\":411:453   */\n  0xffffffffffffffffffffffffffffffffffffffff\n    /* \"#utility.yul\":404:409   */\n  dup3\n    /* \"#utility.yul\":400:454   */\n  and\n    /* \"#utility.yul\":389:454   */\n  swap1\n  pop\n    /* \"#utility.yul\":334:460   */\n  swap2\n  swap1\n  pop\n  jump\t// out\n    /* \"#utility.yul\":466:562   */\ntag_19:\n    /* \"#utility.yul\":503:510   */\n  0x00\n    /* \"#utility.yul\":532:556   */\n  tag_29\n    /* \"#utility.yul\":550:555   */\n  dup3\n    /* \"#utility.yul\":532:556   */\n  tag_18\n  jump\t// in\ntag_29:\n    /* \"#utility.yul\":521:556   */\n  swap1\n  pop\n    /* \"#utility.yul\":466:562   */\n  swap2\n  swap1\n  pop\n  jump\t// out\n    /* \"#utility.yul\":568:690   */\ntag_20:\n    /* \"#utility.yul\":641:665   */\n  tag_31\n    /* \"#utility.yul\":659:664   */\n  dup2\n    /* \"#utility.yul\":641:665   */\n  tag_19\n  jump\t// in\ntag_31:\n    /* \"#utility.yul\":634:639   */\n  dup2\n    /* \"#utility.yul\":631:666   */\n  eq\n    /* \"#utility.yul\":621:684   */\n  tag_32\n  jumpi\n    /* \"#utility.yul\":680:681   */\n  0x00\n    /* \"#utility.yul\":677:678   */\n  dup1\n    /* \"#utility.yul\":670:682   */\n  revert\n    /* \"#utility.yul\":621:684   */\ntag_32:\n    /* \"#utility.yul\":568:690   */\n  pop\n  jump\t// out\n    /* \"#utility.yul\":696:839   */\ntag_21:\n    /* \"#utility.yul\":753:758   */\n  0x00\n    /* \"#utility.yul\":784:790   */\n  dup2\n    /* \"#utility.yul\":778:791   */\n  mload\n    /* \"#utility.yul\":769:791   */\n  swap1\n  pop\n    /* \"#utility.yul\":800:833   */\n  tag_34\n    /* \"#utility.yul\":827:832   */\n  dup2\n    /* \"#utility.yul\":800:833   */\n  tag_20\n  jump\t// in\ntag_34:\n    /* \"#utility.yul\":696:839   */\n  swap3\n  swap2\n  pop\n  pop\n  jump\t// out\n    /* \"#utility.yul\":845:1196   */\ntag_3:\n    /* \"#utility.yul\":915:921   */\n  0x00\n    /* \"#utility.yul\":964:966   */\n  0x20\n    /* \"#utility.yul\":952:961   */\n  dup3\n    /* \"#utility.yul\":943:950   */\n  dup5\n    /* \"#utility.yul\":939:962   */\n  sub\n    /* \"#utility.yul\":935:967   */\n  slt\n    /* \"#utility.yul\":932:1051   */\n  iszero\n  tag_36\n  jumpi\n    /* \"#utility.yul\":970:1049   */\n  tag_37\n  tag_16\n  jump\t// in\ntag_37:\n    /* \"#utility.yul\":932:1051   */\ntag_36:\n    /* \"#utility.yul\":1090:1091   */\n  0x00\n    /* \"#utility.yul\":1115:1179   */\n  tag_38\n    /* \"#utility.yul\":1171:1178   */\n  dup5\n    /* \"#utility.yul\":1162:1168   */\n  dup3\n    /* \"#utility.yul\":1151:1160   */\n  dup6\n    /* \"#utility.yul\":1147:1169   */\n  add\n    /* \"#utility.yul\":1115:1179   */\n  tag_21\n  jump\t// in\ntag_38:\n    /* \"#utility.yul\":1105:1179   */\n  swap2\n  pop\n    /* \"#utility.yul\":1061:1189   */\n  pop\n    /* \"#utility.yul\":845:1196   */\n  swap3\n  swap2\n  pop\n  pop\n  jump\t// out\n    /* \"#utility.yul\":1202:1320   */\ntag_22:\n    /* \"#utility.yul\":1289:1313   */\n  tag_40\n    /* \"#utility.yul\":1307:1312   */\n  dup2\n    /* \"#utility.yul\":1289:1313   */\n  tag_19\n  jump\t// in\ntag_40:\n    /* \"#utility.yul\":1284:1287   */\n  dup3\n    /* \"#utility.yul\":1277:1314   */\n  mstore\n    /* \"#utility.yul\":1202:1320   */\n  pop\n  pop\n  jump\t// out\n    /* \"#utility.yul\":1326:1548   */\ntag_9:\n    /* \"#utility.yul\":1419:1423   */\n  0x00\n    /* \"#utility.yul\":1457:1459   */\n  0x20\n    /* \"#utility.yul\":1446:1455   */\n  dup3\n    /* \"#utility.yul\":1442:1460   */\n  add\n    /* \"#utility.yul\":1434:1460   */\n  swap1\n  pop\n    /* \"#utility.yul\":1470:1541   */\n  tag_42\n    /* \"#utility.yul\":1538:1539   */\n  0x00\n    /* \"#utility.yul\":1527:1536   */\n  dup4\n    /* \"#utility.yul\":1523:1540   */\n  add\n    /* \"#utility.yul\":1514:1520   */\n  dup5\n    /* \"#utility.yul\":1470:1541   */\n  tag_22\n  jump\t// in\ntag_42:\n    /* \"#utility.yul\":1326:1548   */\n  swap3\n  swap2\n  pop\n  pop\n  jump\t// out\n    /* \"uen_management.sol\":598:4476  contract uen_management is Ownable {... */\ntag_13:\n  dataSize(sub_0)\n  dup1\n  dataOffset(sub_0)\n  0x00\n  codecopy\n  0x00\n  return\nstop\n\nsub_0: assembly {\n        /* \"uen_management.sol\":598:4476  contract uen_management is Ownable {... */\n      mstore(0x40, 0x80)\n      callvalue\n      dup1\n      iszero\n      tag_1\n      jumpi\n      0x00\n      dup1\n      revert\n    tag_1:\n      pop\n      jumpi(tag_2, lt(calldatasize, 0x04))\n      shr(0xe0, calldataload(0x00))\n      dup1\n      0xa8f5d7a6\n      gt\n      tag_13\n      jumpi\n      dup1\n      0xa8f5d7a6\n      eq\n      tag_8\n      jumpi\n      dup1\n      0xb30282fa\n      eq\n      tag_9\n      jumpi\n      dup1\n      0xe2b378c2\n      eq\n      tag_10\n      jumpi\n      dup1\n      0xf2fde38b\n      eq\n      tag_11\n      jumpi\n      dup1\n      0xf9b378c2\n      eq\n      tag_12\n      jumpi\n      jump(tag_2)\n    tag_13:\n      dup1\n      0x35b13db2\n      eq\n      tag_3\n      jumpi\n      dup1\n      0x715018a6\n      eq\n      tag_4\n      jumpi\n      dup1\n      0x8da5cb5b\n      eq\n      tag_5\n      jumpi\n      dup1\n      0x9926aa34\n      eq\n      tag_6\n      jumpi\n      dup1\n      0x9f724ece\n      eq\n      tag_7\n      jumpi\n    tag_2:\n      0x00\n      dup1\n      revert\n        /* \"uen_management.sol\":3089:3601  function remove_uens(string[] memory _uens) external onlyOwner {... */\n    tag_3:\n      tag_14\n      0x04\n      dup1\n      calldatasize\n      sub\n      dup2\n      add\n      swap1\n      tag_15\n      swap2\n      swap1\n      tag_16\n      jump\t// in\n    tag_15:\n      tag_17\n      jump\t// in\n    tag_14:\n      stop\n        /* \"@openzeppelin/contracts/access/Ownable.sol\":2293:2394  function renounceOwnership() public virtual onlyOwner {... */\n    tag_4:\n      tag_18\n      tag_19\n      jump\t// in\n    tag_18:\n      stop\n        /* \"@openzeppelin/contracts/access/Ownable.sol\":1638:1723  function owner() public view virtual returns (address) {... */\n    tag_5:\n      tag_20\n      tag_21\n      jump\t// in\n    tag_20:\n      mload(0x40)\n      tag_22\n      swap2\n      swap1\n      tag_23\n      jump\t// in\n    tag_22:\n      mload(0x40)\n      dup1\n      swap2\n      sub\n      swap1\n      return\n        /* \"uen_management.sol\":4099:4474  function modify_uens(string[] memory _uens, string[] memory _names) external onlyOwner {... */\n    tag_6:\n      tag_24\n      0x04\n      dup1\n      calldatasize\n      sub\n      dup2\n      add\n      swap1\n      tag_25\n      swap2\n      swap1\n      tag_26\n      jump\t// in\n    tag_25:\n      tag_27\n      jump\t// in\n    tag_24:\n      stop\n        /* \"uen_management.sol\":2092:2183  function get_uen_list_length() public view returns (uint256) {... */\n    tag_7:\n      tag_28\n      tag_29\n      jump\t// in\n    tag_28:\n      mload(0x40)\n      tag_30\n      swap2\n      swap1\n      tag_31\n      jump\t// in\n    tag_30:\n      mload(0x40)\n      dup1\n      swap2\n      sub\n      swap1\n      return\n        /* \"uen_management.sol\":1304:1419  function get_name(string memory _uen) public view returns (string memory) {... */\n    tag_8:\n      tag_32\n      0x04\n      dup1\n      calldatasize\n      sub\n      dup2\n      add\n      swap1\n      tag_33\n      swap2\n      swap1\n      tag_34\n      jump\t// in\n    tag_33:\n      tag_35\n      jump\t// in\n    tag_32:\n      mload(0x40)\n      tag_36\n      swap2\n      swap1\n      tag_37\n      jump\t// in\n    tag_36:\n      mload(0x40)\n      dup1\n      swap2\n      sub\n      swap1\n      return\n        /* \"uen_management.sol\":842:866  string[] public uen_list */\n    tag_9:\n      tag_38\n      0x04\n      dup1\n      calldatasize\n      sub\n      dup2\n      add\n      swap1\n      tag_39\n      swap2\n      swap1\n      tag_40\n      jump\t// in\n    tag_39:\n      tag_41\n      jump\t// in\n    tag_38:\n      mload(0x40)\n      tag_42\n      swap2\n      swap1\n      tag_37\n      jump\t// in\n    tag_42:\n      mload(0x40)\n      dup1\n      swap2\n      sub\n      swap1\n      return\n        /* \"uen_management.sol\":1484:2026  function get_all_uens(uint startIndex, uint endIndex) public view returns (string[] memory) {... */\n    tag_10:\n      tag_43\n      0x04\n      dup1\n      calldatasize\n      sub\n      dup2\n      add\n      swap1\n      tag_44\n      swap2\n      swap1\n      tag_45\n      jump\t// in\n    tag_44:\n      tag_46\n      jump\t// in\n    tag_43:\n      mload(0x40)\n      tag_47\n      swap2\n      swap1\n      tag_48\n      jump\t// in\n    tag_47:\n      mload(0x40)\n      dup1\n      swap2\n      sub\n      swap1\n      return\n        /* \"@openzeppelin/contracts/access/Ownable.sol\":2543:2758  function transferOwnership(address newOwner) public virtual onlyOwner {... */\n    tag_11:\n      tag_49\n      0x04\n      dup1\n      calldatasize\n      sub\n      dup2\n      add\n      swap1\n      tag_50\n      swap2\n      swap1\n      tag_51\n      jump\t// in\n    tag_50:\n      tag_52\n      jump\t// in\n    tag_49:\n      stop\n        /* \"uen_management.sol\":2442:2954  function add_uens(string[] memory _uens, string[] memory _names) external onlyOwner {... */\n    tag_12:\n      tag_53\n      0x04\n      dup1\n      calldatasize\n      sub\n      dup2\n      add\n      swap1\n      tag_54\n      swap2\n      swap1\n      tag_26\n      jump\t// in\n    tag_54:\n      tag_55\n      jump\t// in\n    tag_53:\n      stop\n        /* \"uen_management.sol\":3089:3601  function remove_uens(string[] memory _uens) external onlyOwner {... */\n    tag_17:\n        /* \"@openzeppelin/contracts/access/Ownable.sol\":1531:1544  _checkOwner() */\n      tag_57\n        /* \"@openzeppelin/contracts/access/Ownable.sol\":1531:1542  _checkOwner */\n      tag_58\n        /* \"@openzeppelin/contracts/access/Ownable.sol\":1531:1544  _checkOwner() */\n      jump\t// in\n    tag_57:\n        /* \"uen_management.sol\":3167:3176  uint256 i */\n      0x00\n        /* \"uen_management.sol\":3162:3548  for (uint256 i = 0; i < _uens.length; i++) {... */\n    tag_60:\n        /* \"uen_management.sol\":3186:3191  _uens */\n      dup2\n        /* \"uen_management.sol\":3186:3198  _uens.length */\n      mload\n        /* \"uen_management.sol\":3182:3183  i */\n      dup2\n        /* \"uen_management.sol\":3182:3198  i < _uens.length */\n      lt\n        /* \"uen_management.sol\":3162:3548  for (uint256 i = 0; i < _uens.length; i++) {... */\n      iszero\n      tag_61\n      jumpi\n        /* \"uen_management.sol\":3226:3237  uen_to_name */\n      0x02\n        /* \"uen_management.sol\":3238:3243  _uens */\n      dup3\n        /* \"uen_management.sol\":3244:3245  i */\n      dup3\n        /* \"uen_management.sol\":3238:3246  _uens[i] */\n      dup2\n      mload\n      dup2\n      lt\n      tag_63\n      jumpi\n      tag_64\n      tag_65\n      jump\t// in\n    tag_64:\n    tag_63:\n      0x20\n      mul\n      0x20\n      add\n      add\n      mload\n        /* \"uen_management.sol\":3226:3247  uen_to_name[_uens[i]] */\n      mload(0x40)\n      tag_66\n      swap2\n      swap1\n      tag_67\n      jump\t// in\n    tag_66:\n      swap1\n      dup2\n      mstore\n      0x20\n      add\n      mload(0x40)\n      dup1\n      swap2\n      sub\n      swap1\n      keccak256\n      0x00\n        /* \"uen_management.sol\":3219:3247  delete uen_to_name[_uens[i]] */\n      tag_68\n      swap2\n      swap1\n      tag_69\n      jump\t// in\n    tag_68:\n        /* \"uen_management.sol\":3457:3494  uen_list[uen_to_index[_uens[i]]] = \"\" */\n      mload(0x40)\n      dup1\n      0x20\n      add\n      0x40\n      mstore\n      dup1\n      0x00\n      dup2\n      mstore\n      pop\n        /* \"uen_management.sol\":3457:3465  uen_list */\n      0x01\n        /* \"uen_management.sol\":3466:3478  uen_to_index */\n      0x03\n        /* \"uen_management.sol\":3479:3484  _uens */\n      dup5\n        /* \"uen_management.sol\":3485:3486  i */\n      dup5\n        /* \"uen_management.sol\":3479:3487  _uens[i] */\n      dup2\n      mload\n      dup2\n      lt\n      tag_70\n      jumpi\n      tag_71\n      tag_65\n      jump\t// in\n    tag_71:\n    tag_70:\n      0x20\n      mul\n      0x20\n      add\n      add\n      mload\n        /* \"uen_management.sol\":3466:3488  uen_to_index[_uens[i]] */\n      mload(0x40)\n      tag_72\n      swap2\n      swap1\n      tag_67\n      jump\t// in\n    tag_72:\n      swap1\n      dup2\n      mstore\n      0x20\n      add\n      mload(0x40)\n      dup1\n      swap2\n      sub\n      swap1\n      keccak256\n      sload\n        /* \"uen_management.sol\":3457:3489  uen_list[uen_to_index[_uens[i]]] */\n      dup2\n      sload\n      dup2\n      lt\n      tag_73\n      jumpi\n      tag_74\n      tag_65\n      jump\t// in\n    tag_74:\n    tag_73:\n      swap1\n      0x00\n      mstore\n      keccak256(0x00, 0x20)\n      add\n        /* \"uen_management.sol\":3457:3494  uen_list[uen_to_index[_uens[i]]] = \"\" */\n      swap1\n      dup2\n      tag_76\n      swap2\n      swap1\n      tag_77\n      jump\t// in\n    tag_76:\n      pop\n        /* \"uen_management.sol\":3515:3527  uen_to_index */\n      0x03\n        /* \"uen_management.sol\":3528:3533  _uens */\n      dup3\n        /* \"uen_management.sol\":3534:3535  i */\n      dup3\n        /* \"uen_management.sol\":3528:3536  _uens[i] */\n      dup2\n      mload\n      dup2\n      lt\n      tag_78\n      jumpi\n      tag_79\n      tag_65\n      jump\t// in\n    tag_79:\n    tag_78:\n      0x20\n      mul\n      0x20\n      add\n      add\n      mload\n        /* \"uen_management.sol\":3515:3537  uen_to_index[_uens[i]] */\n      mload(0x40)\n      tag_80\n      swap2\n      swap1\n      tag_67\n      jump\t// in\n    tag_80:\n      swap1\n      dup2\n      mstore\n      0x20\n      add\n      mload(0x40)\n      dup1\n      swap2\n      sub\n      swap1\n      keccak256\n        /* \"uen_management.sol\":3508:3537  delete uen_to_index[_uens[i]] */\n      0x00\n      swap1\n      sstore\n        /* \"uen_management.sol\":3200:3203  i++ */\n      dup1\n      dup1\n      0x01\n      add\n      swap2\n      pop\n      pop\n        /* \"uen_management.sol\":3162:3548  for (uint256 i = 0; i < _uens.length; i++) {... */\n      jump(tag_60)\n    tag_61:\n      pop\n        /* \"uen_management.sol\":3562:3594  uen_event(_uens, \"UENs removed\") */\n      0x5462cca44bd73f863d8a33c18eddea04a24e4ac8e252404333dd97ac7a732ac8\n        /* \"uen_management.sol\":3572:3577  _uens */\n      dup2\n        /* \"uen_management.sol\":3562:3594  uen_event(_uens, \"UENs removed\") */\n      mload(0x40)\n      tag_81\n      swap2\n      swap1\n      tag_82\n      jump\t// in\n    tag_81:\n      mload(0x40)\n      dup1\n      swap2\n      sub\n      swap1\n      log1\n        /* \"uen_management.sol\":3089:3601  function remove_uens(string[] memory _uens) external onlyOwner {... */\n      pop\n      jump\t// out\n        /* \"@openzeppelin/contracts/access/Ownable.sol\":2293:2394  function renounceOwnership() public virtual onlyOwner {... */\n    tag_19:\n        /* \"@openzeppelin/contracts/access/Ownable.sol\":1531:1544  _checkOwner() */\n      tag_84\n        /* \"@openzeppelin/contracts/access/Ownable.sol\":1531:1542  _checkOwner */\n      tag_58\n        /* \"@openzeppelin/contracts/access/Ownable.sol\":1531:1544  _checkOwner() */\n      jump\t// in\n    tag_84:\n        /* \"@openzeppelin/contracts/access/Ownable.sol\":2357:2387  _transferOwnership(address(0)) */\n      tag_86\n        /* \"@openzeppelin/contracts/access/Ownable.sol\":2384:2385  0 */\n      0x00\n        /* \"@openzeppelin/contracts/access/Ownable.sol\":2357:2375  _transferOwnership */\n      tag_87\n        /* \"@openzeppelin/contracts/access/Ownable.sol\":2357:2387  _transferOwnership(address(0)) */\n      jump\t// in\n    tag_86:\n        /* \"@openzeppelin/contracts/access/Ownable.sol\":2293:2394  function renounceOwnership() public virtual onlyOwner {... */\n      jump\t// out\n        /* \"@openzeppelin/contracts/access/Ownable.sol\":1638:1723  function owner() public view virtual returns (address) {... */\n    tag_21:\n        /* \"@openzeppelin/contracts/access/Ownable.sol\":1684:1691  address */\n      0x00\n        /* \"@openzeppelin/contracts/access/Ownable.sol\":1710:1716  _owner */\n      dup1\n      0x00\n      swap1\n      sload\n      swap1\n      0x0100\n      exp\n      swap1\n      div\n      0xffffffffffffffffffffffffffffffffffffffff\n      and\n        /* \"@openzeppelin/contracts/access/Ownable.sol\":1703:1716  return _owner */\n      swap1\n      pop\n        /* \"@openzeppelin/contracts/access/Ownable.sol\":1638:1723  function owner() public view virtual returns (address) {... */\n      swap1\n      jump\t// out\n        /* \"uen_management.sol\":4099:4474  function modify_uens(string[] memory _uens, string[] memory _names) external onlyOwner {... */\n    tag_27:\n        /* \"@openzeppelin/contracts/access/Ownable.sol\":1531:1544  _checkOwner() */\n      tag_90\n        /* \"@openzeppelin/contracts/access/Ownable.sol\":1531:1542  _checkOwner */\n      tag_58\n        /* \"@openzeppelin/contracts/access/Ownable.sol\":1531:1544  _checkOwner() */\n      jump\t// in\n    tag_90:\n        /* \"uen_management.sol\":4220:4226  _names */\n      dup1\n        /* \"uen_management.sol\":4220:4233  _names.length */\n      mload\n        /* \"uen_management.sol\":4204:4209  _uens */\n      dup3\n        /* \"uen_management.sol\":4204:4216  _uens.length */\n      mload\n        /* \"uen_management.sol\":4204:4233  _uens.length == _names.length */\n      eq\n        /* \"uen_management.sol\":4196:4272  require(_uens.length == _names.length, \"Mappings must have the same length\") */\n      tag_92\n      jumpi\n      mload(0x40)\n      0x08c379a000000000000000000000000000000000000000000000000000000000\n      dup2\n      mstore\n      0x04\n      add\n      tag_93\n      swap1\n      tag_94\n      jump\t// in\n    tag_93:\n      mload(0x40)\n      dup1\n      swap2\n      sub\n      swap1\n      revert\n    tag_92:\n        /* \"uen_management.sol\":4287:4296  uint256 i */\n      0x00\n        /* \"uen_management.sol\":4282:4468  for (uint256 i = 0; i < _uens.length; i++) {... */\n    tag_95:\n        /* \"uen_management.sol\":4306:4311  _uens */\n      dup3\n        /* \"uen_management.sol\":4306:4318  _uens.length */\n      mload\n        /* \"uen_management.sol\":4302:4303  i */\n      dup2\n        /* \"uen_management.sol\":4302:4318  i < _uens.length */\n      lt\n        /* \"uen_management.sol\":4282:4468  for (uint256 i = 0; i < _uens.length; i++) {... */\n      iszero\n      tag_96\n      jumpi\n        /* \"uen_management.sol\":4386:4387  0 */\n      0x00\n        /* \"uen_management.sol\":4353:4364  uen_to_name */\n      0x02\n        /* \"uen_management.sol\":4365:4370  _uens */\n      dup5\n        /* \"uen_management.sol\":4371:4372  i */\n      dup4\n        /* \"uen_management.sol\":4365:4373  _uens[i] */\n      dup2\n      mload\n      dup2\n      lt\n      tag_98\n      jumpi\n      tag_99\n      tag_65\n      jump\t// in\n    tag_99:\n    tag_98:\n      0x20\n      mul\n      0x20\n      add\n      add\n      mload\n        /* \"uen_management.sol\":4353:4374  uen_to_name[_uens[i]] */\n      mload(0x40)\n      tag_100\n      swap2\n      swap1\n      tag_67\n      jump\t// in\n    tag_100:\n      swap1\n      dup2\n      mstore\n      0x20\n      add\n      mload(0x40)\n      dup1\n      swap2\n      sub\n      swap1\n      keccak256\n        /* \"uen_management.sol\":4347:4382  bytes(uen_to_name[_uens[i]]).length */\n      dup1\n      sload\n      tag_101\n      swap1\n      tag_102\n      jump\t// in\n    tag_101:\n      swap1\n      pop\n        /* \"uen_management.sol\":4347:4387  bytes(uen_to_name[_uens[i]]).length != 0 */\n      sub\n        /* \"uen_management.sol\":4339:4410  require(bytes(uen_to_name[_uens[i]]).length != 0, \"UEN does not exist\") */\n      tag_103\n      jumpi\n      mload(0x40)\n      0x08c379a000000000000000000000000000000000000000000000000000000000\n      dup2\n      mstore\n      0x04\n      add\n      tag_104\n      swap1\n      tag_105\n      jump\t// in\n    tag_104:\n      mload(0x40)\n      dup1\n      swap2\n      sub\n      swap1\n      revert\n    tag_103:\n        /* \"uen_management.sol\":4448:4454  _names */\n      dup2\n        /* \"uen_management.sol\":4455:4456  i */\n      dup2\n        /* \"uen_management.sol\":4448:4457  _names[i] */\n      dup2\n      mload\n      dup2\n      lt\n      tag_106\n      jumpi\n      tag_107\n      tag_65\n      jump\t// in\n    tag_107:\n    tag_106:\n      0x20\n      mul\n      0x20\n      add\n      add\n      mload\n        /* \"uen_management.sol\":4424:4435  uen_to_name */\n      0x02\n        /* \"uen_management.sol\":4436:4441  _uens */\n      dup5\n        /* \"uen_management.sol\":4442:4443  i */\n      dup4\n        /* \"uen_management.sol\":4436:4444  _uens[i] */\n      dup2\n      mload\n      dup2\n      lt\n      tag_108\n      jumpi\n      tag_109\n      tag_65\n      jump\t// in\n    tag_109:\n    tag_108:\n      0x20\n      mul\n      0x20\n      add\n      add\n      mload\n        /* \"uen_management.sol\":4424:4445  uen_to_name[_uens[i]] */\n      mload(0x40)\n      tag_110\n      swap2\n      swap1\n      tag_67\n      jump\t// in\n    tag_110:\n      swap1\n      dup2\n      mstore\n      0x20\n      add\n      mload(0x40)\n      dup1\n      swap2\n      sub\n      swap1\n      keccak256\n        /* \"uen_management.sol\":4424:4457  uen_to_name[_uens[i]] = _names[i] */\n      swap1\n      dup2\n      tag_111\n      swap2\n      swap1\n      tag_77\n      jump\t// in\n    tag_111:\n      pop\n        /* \"uen_management.sol\":4320:4323  i++ */\n      dup1\n      dup1\n      0x01\n      add\n      swap2\n      pop\n      pop\n        /* \"uen_management.sol\":4282:4468  for (uint256 i = 0; i < _uens.length; i++) {... */\n      jump(tag_95)\n    tag_96:\n      pop\n        /* \"uen_management.sol\":4099:4474  function modify_uens(string[] memory _uens, string[] memory _names) external onlyOwner {... */\n      pop\n      pop\n      jump\t// out\n        /* \"uen_management.sol\":2092:2183  function get_uen_list_length() public view returns (uint256) {... */\n    tag_29:\n        /* \"uen_management.sol\":2144:2151  uint256 */\n      0x00\n        /* \"uen_management.sol\":2164:2172  uen_list */\n      0x01\n        /* \"uen_management.sol\":2164:2179  uen_list.length */\n      dup1\n      sload\n      swap1\n      pop\n        /* \"uen_management.sol\":2157:2179  return uen_list.length */\n      swap1\n      pop\n        /* \"uen_management.sol\":2092:2183  function get_uen_list_length() public view returns (uint256) {... */\n      swap1\n      jump\t// out\n        /* \"uen_management.sol\":1304:1419  function get_name(string memory _uen) public view returns (string memory) {... */\n    tag_35:\n        /* \"uen_management.sol\":1363:1376  string memory */\n      0x60\n        /* \"uen_management.sol\":1395:1406  uen_to_name */\n      0x02\n        /* \"uen_management.sol\":1407:1411  _uen */\n      dup3\n        /* \"uen_management.sol\":1395:1412  uen_to_name[_uen] */\n      mload(0x40)\n      tag_114\n      swap2\n      swap1\n      tag_67\n      jump\t// in\n    tag_114:\n      swap1\n      dup2\n      mstore\n      0x20\n      add\n      mload(0x40)\n      dup1\n      swap2\n      sub\n      swap1\n      keccak256\n        /* \"uen_management.sol\":1388:1412  return uen_to_name[_uen] */\n      dup1\n      sload\n      tag_115\n      swap1\n      tag_102\n      jump\t// in\n    tag_115:\n      dup1\n      0x1f\n      add\n      0x20\n      dup1\n      swap2\n      div\n      mul\n      0x20\n      add\n      mload(0x40)\n      swap1\n      dup2\n      add\n      0x40\n      mstore\n      dup1\n      swap3\n      swap2\n      swap1\n      dup2\n      dup2\n      mstore\n      0x20\n      add\n      dup3\n      dup1\n      sload\n      tag_116\n      swap1\n      tag_102\n      jump\t// in\n    tag_116:\n      dup1\n      iszero\n      tag_117\n      jumpi\n      dup1\n      0x1f\n      lt\n      tag_118\n      jumpi\n      0x0100\n      dup1\n      dup4\n      sload\n      div\n      mul\n      dup4\n      mstore\n      swap2\n      0x20\n      add\n      swap2\n      jump(tag_117)\n    tag_118:\n      dup3\n      add\n      swap2\n      swap1\n      0x00\n      mstore\n      keccak256(0x00, 0x20)\n      swap1\n    tag_119:\n      dup2\n      sload\n      dup2\n      mstore\n      swap1\n      0x01\n      add\n      swap1\n      0x20\n      add\n      dup1\n      dup4\n      gt\n      tag_119\n      jumpi\n      dup3\n      swap1\n      sub\n      0x1f\n      and\n      dup3\n      add\n      swap2\n    tag_117:\n      pop\n      pop\n      pop\n      pop\n      pop\n      swap1\n      pop\n        /* \"uen_management.sol\":1304:1419  function get_name(string memory _uen) public view returns (string memory) {... */\n      swap2\n      swap1\n      pop\n      jump\t// out\n        /* \"uen_management.sol\":842:866  string[] public uen_list */\n    tag_41:\n      0x01\n      dup2\n      dup2\n      sload\n      dup2\n      lt\n      tag_120\n      jumpi\n      0x00\n      dup1\n      revert\n    tag_120:\n      swap1\n      0x00\n      mstore\n      keccak256(0x00, 0x20)\n      add\n      0x00\n      swap2\n      pop\n      swap1\n      pop\n      dup1\n      sload\n      tag_122\n      swap1\n      tag_102\n      jump\t// in\n    tag_122:\n      dup1\n      0x1f\n      add\n      0x20\n      dup1\n      swap2\n      div\n      mul\n      0x20\n      add\n      mload(0x40)\n      swap1\n      dup2\n      add\n      0x40\n      mstore\n      dup1\n      swap3\n      swap2\n      swap1\n      dup2\n      dup2\n      mstore\n      0x20\n      add\n      dup3\n      dup1\n      sload\n      tag_123\n      swap1\n      tag_102\n      jump\t// in\n    tag_123:\n      dup1\n      iszero\n      tag_124\n      jumpi\n      dup1\n      0x1f\n      lt\n      tag_125\n      jumpi\n      0x0100\n      dup1\n      dup4\n      sload\n      div\n      mul\n      dup4\n      mstore\n      swap2\n      0x20\n      add\n      swap2\n      jump(tag_124)\n    tag_125:\n      dup3\n      add\n      swap2\n      swap1\n      0x00\n      mstore\n      keccak256(0x00, 0x20)\n      swap1\n    tag_126:\n      dup2\n      sload\n      dup2\n      mstore\n      swap1\n      0x01\n      add\n      swap1\n      0x20\n      add\n      dup1\n      dup4\n      gt\n      tag_126\n      jumpi\n      dup3\n      swap1\n      sub\n      0x1f\n      and\n      dup3\n      add\n      swap2\n    tag_124:\n      pop\n      pop\n      pop\n      pop\n      pop\n      dup2\n      jump\t// out\n        /* \"uen_management.sol\":1484:2026  function get_all_uens(uint startIndex, uint endIndex) public view returns (string[] memory) {... */\n    tag_46:\n        /* \"uen_management.sol\":1559:1574  string[] memory */\n      0x60\n        /* \"uen_management.sol\":1602:1610  endIndex */\n      dup2\n        /* \"uen_management.sol\":1588:1598  startIndex */\n      dup4\n        /* \"uen_management.sol\":1588:1610  startIndex <= endIndex */\n      gt\n      iszero\n        /* \"uen_management.sol\":1580:1666  require(startIndex <= endIndex, \"Start index must be less than or equal to end index\") */\n      tag_128\n      jumpi\n      mload(0x40)\n      0x08c379a000000000000000000000000000000000000000000000000000000000\n      dup2\n      mstore\n      0x04\n      add\n      tag_129\n      swap1\n      tag_130\n      jump\t// in\n    tag_129:\n      mload(0x40)\n      dup1\n      swap2\n      sub\n      swap1\n      revert\n    tag_128:\n        /* \"uen_management.sol\":1689:1697  uen_list */\n      0x01\n        /* \"uen_management.sol\":1689:1704  uen_list.length */\n      dup1\n      sload\n      swap1\n      pop\n        /* \"uen_management.sol\":1678:1686  endIndex */\n      dup3\n        /* \"uen_management.sol\":1678:1704  endIndex < uen_list.length */\n      lt\n        /* \"uen_management.sol\":1670:1759  require(endIndex < uen_list.length, \"End index must be less than the length of the list\") */\n      tag_131\n      jumpi\n      mload(0x40)\n      0x08c379a000000000000000000000000000000000000000000000000000000000\n      dup2\n      mstore\n      0x04\n      add\n      tag_132\n      swap1\n      tag_133\n      jump\t// in\n    tag_132:\n      mload(0x40)\n      dup1\n      swap2\n      sub\n      swap1\n      revert\n    tag_131:\n        /* \"uen_management.sol\":1782:1783  0 */\n      0x00\n        /* \"uen_management.sol\":1768:1778  startIndex */\n      dup4\n        /* \"uen_management.sol\":1768:1783  startIndex == 0 */\n      eq\n        /* \"uen_management.sol\":1768:1800  startIndex == 0 && endIndex == 0 */\n      dup1\n      iszero\n      tag_134\n      jumpi\n      pop\n        /* \"uen_management.sol\":1799:1800  0 */\n      0x00\n        /* \"uen_management.sol\":1787:1795  endIndex */\n      dup3\n        /* \"uen_management.sol\":1787:1800  endIndex == 0 */\n      eq\n        /* \"uen_management.sol\":1768:1800  startIndex == 0 && endIndex == 0 */\n    tag_134:\n        /* \"uen_management.sol\":1764:2023  if (startIndex == 0 && endIndex == 0) {... */\n      iszero\n      tag_135\n      jumpi\n        /* \"uen_management.sol\":1814:1822  uen_list */\n      0x01\n        /* \"uen_management.sol\":1807:1822  return uen_list */\n      dup1\n      sload\n      dup1\n      0x20\n      mul\n      0x20\n      add\n      mload(0x40)\n      swap1\n      dup2\n      add\n      0x40\n      mstore\n      dup1\n      swap3\n      swap2\n      swap1\n      dup2\n      dup2\n      mstore\n      0x20\n      add\n      0x00\n      swap1\n    tag_136:\n      dup3\n      dup3\n      lt\n      iszero\n      tag_137\n      jumpi\n      dup4\n      dup3\n      swap1\n      0x00\n      mstore\n      keccak256(0x00, 0x20)\n      add\n      dup1\n      sload\n      tag_139\n      swap1\n      tag_102\n      jump\t// in\n    tag_139:\n      dup1\n      0x1f\n      add\n      0x20\n      dup1\n      swap2\n      div\n      mul\n      0x20\n      add\n      mload(0x40)\n      swap1\n      dup2\n      add\n      0x40\n      mstore\n      dup1\n      swap3\n      swap2\n      swap1\n      dup2\n      dup2\n      mstore\n      0x20\n      add\n      dup3\n      dup1\n      sload\n      tag_140\n      swap1\n      tag_102\n      jump\t// in\n    tag_140:\n      dup1\n      iszero\n      tag_141\n      jumpi\n      dup1\n      0x1f\n      lt\n      tag_142\n      jumpi\n      0x0100\n      dup1\n      dup4\n      sload\n      div\n      mul\n      dup4\n      mstore\n      swap2\n      0x20\n      add\n      swap2\n      jump(tag_141)\n    tag_142:\n      dup3\n      add\n      swap2\n      swap1\n      0x00\n      mstore\n      keccak256(0x00, 0x20)\n      swap1\n    tag_143:\n      dup2\n      sload\n      dup2\n      mstore\n      swap1\n      0x01\n      add\n      swap1\n      0x20\n      add\n      dup1\n      dup4\n      gt\n      tag_143\n      jumpi\n      dup3\n      swap1\n      sub\n      0x1f\n      and\n      dup3\n      add\n      swap2\n    tag_141:\n      pop\n      pop\n      pop\n      pop\n      pop\n      dup2\n      mstore\n      0x20\n      add\n      swap1\n      0x01\n      add\n      swap1\n      jump(tag_136)\n    tag_137:\n      pop\n      pop\n      pop\n      pop\n      swap1\n      pop\n      jump(tag_127)\n        /* \"uen_management.sol\":1764:2023  if (startIndex == 0 && endIndex == 0) {... */\n    tag_135:\n        /* \"uen_management.sol\":1838:1860  string[] memory result */\n      0x00\n        /* \"uen_management.sol\":1900:1901  1 */\n      0x01\n        /* \"uen_management.sol\":1887:1897  startIndex */\n      dup5\n        /* \"uen_management.sol\":1876:1884  endIndex */\n      dup5\n        /* \"uen_management.sol\":1876:1897  endIndex - startIndex */\n      tag_145\n      swap2\n      swap1\n      tag_146\n      jump\t// in\n    tag_145:\n        /* \"uen_management.sol\":1876:1901  endIndex - startIndex + 1 */\n      tag_147\n      swap2\n      swap1\n      tag_148\n      jump\t// in\n    tag_147:\n        /* \"uen_management.sol\":1863:1902  new string[](endIndex - startIndex + 1) */\n      0xffffffffffffffff\n      dup2\n      gt\n      iszero\n      tag_149\n      jumpi\n      tag_150\n      tag_151\n      jump\t// in\n    tag_150:\n    tag_149:\n      mload(0x40)\n      swap1\n      dup1\n      dup3\n      mstore\n      dup1\n      0x20\n      mul\n      0x20\n      add\n      dup3\n      add\n      0x40\n      mstore\n      dup1\n      iszero\n      tag_152\n      jumpi\n      dup2\n      0x20\n      add\n    tag_153:\n      0x60\n      dup2\n      mstore\n      0x20\n      add\n      swap1\n      0x01\n      swap1\n      sub\n      swap1\n      dup2\n      tag_153\n      jumpi\n      swap1\n      pop\n    tag_152:\n      pop\n        /* \"uen_management.sol\":1838:1902  string[] memory result = new string[](endIndex - startIndex + 1) */\n      swap1\n      pop\n        /* \"uen_management.sol\":1912:1918  uint i */\n      0x00\n        /* \"uen_management.sol\":1921:1931  startIndex */\n      dup5\n        /* \"uen_management.sol\":1912:1931  uint i = startIndex */\n      swap1\n      pop\n        /* \"uen_management.sol\":1907:2001  for (uint i = startIndex; i <= endIndex; i++) {... */\n    tag_154:\n        /* \"uen_management.sol\":1938:1946  endIndex */\n      dup4\n        /* \"uen_management.sol\":1933:1934  i */\n      dup2\n        /* \"uen_management.sol\":1933:1946  i <= endIndex */\n      gt\n        /* \"uen_management.sol\":1907:2001  for (uint i = startIndex; i <= endIndex; i++) {... */\n      tag_155\n      jumpi\n        /* \"uen_management.sol\":1984:1992  uen_list */\n      0x01\n        /* \"uen_management.sol\":1993:1994  i */\n      dup2\n        /* \"uen_management.sol\":1984:1995  uen_list[i] */\n      dup2\n      sload\n      dup2\n      lt\n      tag_157\n      jumpi\n      tag_158\n      tag_65\n      jump\t// in\n    tag_158:\n    tag_157:\n      swap1\n      0x00\n      mstore\n      keccak256(0x00, 0x20)\n      add\n        /* \"uen_management.sol\":1959:1995  result[i - startIndex] = uen_list[i] */\n      dup1\n      sload\n      tag_160\n      swap1\n      tag_102\n      jump\t// in\n    tag_160:\n      dup1\n      0x1f\n      add\n      0x20\n      dup1\n      swap2\n      div\n      mul\n      0x20\n      add\n      mload(0x40)\n      swap1\n      dup2\n      add\n      0x40\n      mstore\n      dup1\n      swap3\n      swap2\n      swap1\n      dup2\n      dup2\n      mstore\n      0x20\n      add\n      dup3\n      dup1\n      sload\n      tag_161\n      swap1\n      tag_102\n      jump\t// in\n    tag_161:\n      dup1\n      iszero\n      tag_162\n      jumpi\n      dup1\n      0x1f\n      lt\n      tag_163\n      jumpi\n      0x0100\n      dup1\n      dup4\n      sload\n      div\n      mul\n      dup4\n      mstore\n      swap2\n      0x20\n      add\n      swap2\n      jump(tag_162)\n    tag_163:\n      dup3\n      add\n      swap2\n      swap1\n      0x00\n      mstore\n      keccak256(0x00, 0x20)\n      swap1\n    tag_164:\n      dup2\n      sload\n      dup2\n      mstore\n      swap1\n      0x01\n      add\n      swap1\n      0x20\n      add\n      dup1\n      dup4\n      gt\n      tag_164\n      jumpi\n      dup3\n      swap1\n      sub\n      0x1f\n      and\n      dup3\n      add\n      swap2\n    tag_162:\n      pop\n      pop\n      pop\n      pop\n      pop\n        /* \"uen_management.sol\":1959:1965  result */\n      dup3\n        /* \"uen_management.sol\":1970:1980  startIndex */\n      dup7\n        /* \"uen_management.sol\":1966:1967  i */\n      dup4\n        /* \"uen_management.sol\":1966:1980  i - startIndex */\n      tag_165\n      swap2\n      swap1\n      tag_146\n      jump\t// in\n    tag_165:\n        /* \"uen_management.sol\":1959:1981  result[i - startIndex] */\n      dup2\n      mload\n      dup2\n      lt\n      tag_166\n      jumpi\n      tag_167\n      tag_65\n      jump\t// in\n    tag_167:\n    tag_166:\n      0x20\n      mul\n      0x20\n      add\n      add\n        /* \"uen_management.sol\":1959:1995  result[i - startIndex] = uen_list[i] */\n      dup2\n      swap1\n      mstore\n      pop\n        /* \"uen_management.sol\":1948:1951  i++ */\n      dup1\n      dup1\n      tag_168\n      swap1\n      tag_169\n      jump\t// in\n    tag_168:\n      swap2\n      pop\n      pop\n        /* \"uen_management.sol\":1907:2001  for (uint i = startIndex; i <= endIndex; i++) {... */\n      jump(tag_154)\n    tag_155:\n      pop\n        /* \"uen_management.sol\":2012:2018  result */\n      dup1\n        /* \"uen_management.sol\":2005:2018  return result */\n      swap2\n      pop\n      pop\n        /* \"uen_management.sol\":1484:2026  function get_all_uens(uint startIndex, uint endIndex) public view returns (string[] memory) {... */\n    tag_127:\n      swap3\n      swap2\n      pop\n      pop\n      jump\t// out\n        /* \"@openzeppelin/contracts/access/Ownable.sol\":2543:2758  function transferOwnership(address newOwner) public virtual onlyOwner {... */\n    tag_52:\n        /* \"@openzeppelin/contracts/access/Ownable.sol\":1531:1544  _checkOwner() */\n      tag_171\n        /* \"@openzeppelin/contracts/access/Ownable.sol\":1531:1542  _checkOwner */\n      tag_58\n        /* \"@openzeppelin/contracts/access/Ownable.sol\":1531:1544  _checkOwner() */\n      jump\t// in\n    tag_171:\n        /* \"@openzeppelin/contracts/access/Ownable.sol\":2647:2648  0 */\n      0x00\n        /* \"@openzeppelin/contracts/access/Ownable.sol\":2627:2649  newOwner == address(0) */\n      0xffffffffffffffffffffffffffffffffffffffff\n      and\n        /* \"@openzeppelin/contracts/access/Ownable.sol\":2627:2635  newOwner */\n      dup2\n        /* \"@openzeppelin/contracts/access/Ownable.sol\":2627:2649  newOwner == address(0) */\n      0xffffffffffffffffffffffffffffffffffffffff\n      and\n      sub\n        /* \"@openzeppelin/contracts/access/Ownable.sol\":2623:2714  if (newOwner == address(0)) {... */\n      tag_173\n      jumpi\n        /* \"@openzeppelin/contracts/access/Ownable.sol\":2700:2701  0 */\n      0x00\n        /* \"@openzeppelin/contracts/access/Ownable.sol\":2672:2703  OwnableInvalidOwner(address(0)) */\n      mload(0x40)\n      0x1e4fbdf700000000000000000000000000000000000000000000000000000000\n      dup2\n      mstore\n      0x04\n      add\n      tag_174\n      swap2\n      swap1\n      tag_23\n      jump\t// in\n    tag_174:\n      mload(0x40)\n      dup1\n      swap2\n      sub\n      swap1\n      revert\n        /* \"@openzeppelin/contracts/access/Ownable.sol\":2623:2714  if (newOwner == address(0)) {... */\n    tag_173:\n        /* \"@openzeppelin/contracts/access/Ownable.sol\":2723:2751  _transferOwnership(newOwner) */\n      tag_175\n        /* \"@openzeppelin/contracts/access/Ownable.sol\":2742:2750  newOwner */\n      dup2\n        /* \"@openzeppelin/contracts/access/Ownable.sol\":2723:2741  _transferOwnership */\n      tag_87\n        /* \"@openzeppelin/contracts/access/Ownable.sol\":2723:2751  _transferOwnership(newOwner) */\n      jump\t// in\n    tag_175:\n        /* \"@openzeppelin/contracts/access/Ownable.sol\":2543:2758  function transferOwnership(address newOwner) public virtual onlyOwner {... */\n      pop\n      jump\t// out\n        /* \"uen_management.sol\":2442:2954  function add_uens(string[] memory _uens, string[] memory _names) external onlyOwner {... */\n    tag_55:\n        /* \"@openzeppelin/contracts/access/Ownable.sol\":1531:1544  _checkOwner() */\n      tag_177\n        /* \"@openzeppelin/contracts/access/Ownable.sol\":1531:1542  _checkOwner */\n      tag_58\n        /* \"@openzeppelin/contracts/access/Ownable.sol\":1531:1544  _checkOwner() */\n      jump\t// in\n    tag_177:\n        /* \"uen_management.sol\":2560:2566  _names */\n      dup1\n        /* \"uen_management.sol\":2560:2573  _names.length */\n      mload\n        /* \"uen_management.sol\":2544:2549  _uens */\n      dup3\n        /* \"uen_management.sol\":2544:2556  _uens.length */\n      mload\n        /* \"uen_management.sol\":2544:2573  _uens.length == _names.length */\n      eq\n        /* \"uen_management.sol\":2536:2612  require(_uens.length == _names.length, \"Mappings must have the same length\") */\n      tag_179\n      jumpi\n      mload(0x40)\n      0x08c379a000000000000000000000000000000000000000000000000000000000\n      dup2\n      mstore\n      0x04\n      add\n      tag_180\n      swap1\n      tag_94\n      jump\t// in\n    tag_180:\n      mload(0x40)\n      dup1\n      swap2\n      sub\n      swap1\n      revert\n    tag_179:\n        /* \"uen_management.sol\":2627:2636  uint256 i */\n      0x00\n        /* \"uen_management.sol\":2622:2903  for (uint256 i = 0; i < _uens.length; i++) {... */\n    tag_181:\n        /* \"uen_management.sol\":2646:2651  _uens */\n      dup3\n        /* \"uen_management.sol\":2646:2658  _uens.length */\n      mload\n        /* \"uen_management.sol\":2642:2643  i */\n      dup2\n        /* \"uen_management.sol\":2642:2658  i < _uens.length */\n      lt\n        /* \"uen_management.sol\":2622:2903  for (uint256 i = 0; i < _uens.length; i++) {... */\n      iszero\n      tag_182\n      jumpi\n        /* \"uen_management.sol\":2726:2727  0 */\n      0x00\n        /* \"uen_management.sol\":2693:2704  uen_to_name */\n      0x02\n        /* \"uen_management.sol\":2705:2710  _uens */\n      dup5\n        /* \"uen_management.sol\":2711:2712  i */\n      dup4\n        /* \"uen_management.sol\":2705:2713  _uens[i] */\n      dup2\n      mload\n      dup2\n      lt\n      tag_184\n      jumpi\n      tag_185\n      tag_65\n      jump\t// in\n    tag_185:\n    tag_184:\n      0x20\n      mul\n      0x20\n      add\n      add\n      mload\n        /* \"uen_management.sol\":2693:2714  uen_to_name[_uens[i]] */\n      mload(0x40)\n      tag_186\n      swap2\n      swap1\n      tag_67\n      jump\t// in\n    tag_186:\n      swap1\n      dup2\n      mstore\n      0x20\n      add\n      mload(0x40)\n      dup1\n      swap2\n      sub\n      swap1\n      keccak256\n        /* \"uen_management.sol\":2687:2722  bytes(uen_to_name[_uens[i]]).length */\n      dup1\n      sload\n      tag_187\n      swap1\n      tag_102\n      jump\t// in\n    tag_187:\n      swap1\n      pop\n        /* \"uen_management.sol\":2687:2727  bytes(uen_to_name[_uens[i]]).length == 0 */\n      eq\n        /* \"uen_management.sol\":2679:2750  require(bytes(uen_to_name[_uens[i]]).length == 0, \"UEN already exists\") */\n      tag_188\n      jumpi\n      mload(0x40)\n      0x08c379a000000000000000000000000000000000000000000000000000000000\n      dup2\n      mstore\n      0x04\n      add\n      tag_189\n      swap1\n      tag_190\n      jump\t// in\n    tag_189:\n      mload(0x40)\n      dup1\n      swap2\n      sub\n      swap1\n      revert\n    tag_188:\n        /* \"uen_management.sol\":2788:2794  _names */\n      dup2\n        /* \"uen_management.sol\":2795:2796  i */\n      dup2\n        /* \"uen_management.sol\":2788:2797  _names[i] */\n      dup2\n      mload\n      dup2\n      lt\n      tag_191\n      jumpi\n      tag_192\n      tag_65\n      jump\t// in\n    tag_192:\n    tag_191:\n      0x20\n      mul\n      0x20\n      add\n      add\n      mload\n        /* \"uen_management.sol\":2764:2775  uen_to_name */\n      0x02\n        /* \"uen_management.sol\":2776:2781  _uens */\n      dup5\n        /* \"uen_management.sol\":2782:2783  i */\n      dup4\n        /* \"uen_management.sol\":2776:2784  _uens[i] */\n      dup2\n      mload\n      dup2\n      lt\n      tag_193\n      jumpi\n      tag_194\n      tag_65\n      jump\t// in\n    tag_194:\n    tag_193:\n      0x20\n      mul\n      0x20\n      add\n      add\n      mload\n        /* \"uen_management.sol\":2764:2785  uen_to_name[_uens[i]] */\n      mload(0x40)\n      tag_195\n      swap2\n      swap1\n      tag_67\n      jump\t// in\n    tag_195:\n      swap1\n      dup2\n      mstore\n      0x20\n      add\n      mload(0x40)\n      dup1\n      swap2\n      sub\n      swap1\n      keccak256\n        /* \"uen_management.sol\":2764:2797  uen_to_name[_uens[i]] = _names[i] */\n      swap1\n      dup2\n      tag_196\n      swap2\n      swap1\n      tag_77\n      jump\t// in\n    tag_196:\n      pop\n        /* \"uen_management.sol\":2811:2819  uen_list */\n      0x01\n        /* \"uen_management.sol\":2825:2830  _uens */\n      dup4\n        /* \"uen_management.sol\":2831:2832  i */\n      dup3\n        /* \"uen_management.sol\":2825:2833  _uens[i] */\n      dup2\n      mload\n      dup2\n      lt\n      tag_197\n      jumpi\n      tag_198\n      tag_65\n      jump\t// in\n    tag_198:\n    tag_197:\n      0x20\n      mul\n      0x20\n      add\n      add\n      mload\n        /* \"uen_management.sol\":2811:2834  uen_list.push(_uens[i]) */\n      swap1\n      dup1\n      0x01\n      dup2\n      sload\n      add\n      dup1\n      dup3\n      sstore\n      dup1\n      swap2\n      pop\n      pop\n      0x01\n      swap1\n      sub\n      swap1\n      0x00\n      mstore\n      keccak256(0x00, 0x20)\n      add\n      0x00\n      swap1\n      swap2\n      swap1\n      swap2\n      swap1\n      swap2\n      pop\n      swap1\n      dup2\n      tag_200\n      swap2\n      swap1\n      tag_77\n      jump\t// in\n    tag_200:\n      pop\n        /* \"uen_management.sol\":2891:2892  1 */\n      0x01\n        /* \"uen_management.sol\":2873:2881  uen_list */\n      dup1\n        /* \"uen_management.sol\":2873:2888  uen_list.length */\n      dup1\n      sload\n      swap1\n      pop\n        /* \"uen_management.sol\":2873:2892  uen_list.length - 1 */\n      tag_201\n      swap2\n      swap1\n      tag_146\n      jump\t// in\n    tag_201:\n        /* \"uen_management.sol\":2848:2860  uen_to_index */\n      0x03\n        /* \"uen_management.sol\":2861:2866  _uens */\n      dup5\n        /* \"uen_management.sol\":2867:2868  i */\n      dup4\n        /* \"uen_management.sol\":2861:2869  _uens[i] */\n      dup2\n      mload\n      dup2\n      lt\n      tag_202\n      jumpi\n      tag_203\n      tag_65\n      jump\t// in\n    tag_203:\n    tag_202:\n      0x20\n      mul\n      0x20\n      add\n      add\n      mload\n        /* \"uen_management.sol\":2848:2870  uen_to_index[_uens[i]] */\n      mload(0x40)\n      tag_204\n      swap2\n      swap1\n      tag_67\n      jump\t// in\n    tag_204:\n      swap1\n      dup2\n      mstore\n      0x20\n      add\n      mload(0x40)\n      dup1\n      swap2\n      sub\n      swap1\n      keccak256\n        /* \"uen_management.sol\":2848:2892  uen_to_index[_uens[i]] = uen_list.length - 1 */\n      dup2\n      swap1\n      sstore\n      pop\n        /* \"uen_management.sol\":2660:2663  i++ */\n      dup1\n      dup1\n      0x01\n      add\n      swap2\n      pop\n      pop\n        /* \"uen_management.sol\":2622:2903  for (uint256 i = 0; i < _uens.length; i++) {... */\n      jump(tag_181)\n    tag_182:\n      pop\n        /* \"uen_management.sol\":2917:2947  uen_event(_uens, \"UENs added\") */\n      0x5462cca44bd73f863d8a33c18eddea04a24e4ac8e252404333dd97ac7a732ac8\n        /* \"uen_management.sol\":2927:2932  _uens */\n      dup3\n        /* \"uen_management.sol\":2917:2947  uen_event(_uens, \"UENs added\") */\n      mload(0x40)\n      tag_205\n      swap2\n      swap1\n      tag_206\n      jump\t// in\n    tag_205:\n      mload(0x40)\n      dup1\n      swap2\n      sub\n      swap1\n      log1\n        /* \"uen_management.sol\":2442:2954  function add_uens(string[] memory _uens, string[] memory _names) external onlyOwner {... */\n      pop\n      pop\n      jump\t// out\n        /* \"@openzeppelin/contracts/access/Ownable.sol\":1796:1958  function _checkOwner() internal view virtual {... */\n    tag_58:\n        /* \"@openzeppelin/contracts/access/Ownable.sol\":1866:1878  _msgSender() */\n      tag_208\n        /* \"@openzeppelin/contracts/access/Ownable.sol\":1866:1876  _msgSender */\n      tag_209\n        /* \"@openzeppelin/contracts/access/Ownable.sol\":1866:1878  _msgSender() */\n      jump\t// in\n    tag_208:\n        /* \"@openzeppelin/contracts/access/Ownable.sol\":1855:1878  owner() != _msgSender() */\n      0xffffffffffffffffffffffffffffffffffffffff\n      and\n        /* \"@openzeppelin/contracts/access/Ownable.sol\":1855:1862  owner() */\n      tag_210\n        /* \"@openzeppelin/contracts/access/Ownable.sol\":1855:1860  owner */\n      tag_21\n        /* \"@openzeppelin/contracts/access/Ownable.sol\":1855:1862  owner() */\n      jump\t// in\n    tag_210:\n        /* \"@openzeppelin/contracts/access/Ownable.sol\":1855:1878  owner() != _msgSender() */\n      0xffffffffffffffffffffffffffffffffffffffff\n      and\n      eq\n        /* \"@openzeppelin/contracts/access/Ownable.sol\":1851:1952  if (owner() != _msgSender()) {... */\n      tag_211\n      jumpi\n        /* \"@openzeppelin/contracts/access/Ownable.sol\":1928:1940  _msgSender() */\n      tag_212\n        /* \"@openzeppelin/contracts/access/Ownable.sol\":1928:1938  _msgSender */\n      tag_209\n        /* \"@openzeppelin/contracts/access/Ownable.sol\":1928:1940  _msgSender() */\n      jump\t// in\n    tag_212:\n        /* \"@openzeppelin/contracts/access/Ownable.sol\":1901:1941  OwnableUnauthorizedAccount(_msgSender()) */\n      mload(0x40)\n      0x118cdaa700000000000000000000000000000000000000000000000000000000\n      dup2\n      mstore\n      0x04\n      add\n      tag_213\n      swap2\n      swap1\n      tag_23\n      jump\t// in\n    tag_213:\n      mload(0x40)\n      dup1\n      swap2\n      sub\n      swap1\n      revert\n        /* \"@openzeppelin/contracts/access/Ownable.sol\":1851:1952  if (owner() != _msgSender()) {... */\n    tag_211:\n        /* \"@openzeppelin/contracts/access/Ownable.sol\":1796:1958  function _checkOwner() internal view virtual {... */\n      jump\t// out\n        /* \"@openzeppelin/contracts/access/Ownable.sol\":2912:3099  function _transferOwnership(address newOwner) internal virtual {... */\n    tag_87:\n        /* \"@openzeppelin/contracts/access/Ownable.sol\":2985:3001  address oldOwner */\n      0x00\n        /* \"@openzeppelin/contracts/access/Ownable.sol\":3004:3010  _owner */\n      dup1\n      0x00\n      swap1\n      sload\n      swap1\n      0x0100\n      exp\n      swap1\n      div\n      0xffffffffffffffffffffffffffffffffffffffff\n      and\n        /* \"@openzeppelin/contracts/access/Ownable.sol\":2985:3010  address oldOwner = _owner */\n      swap1\n      pop\n        /* \"@openzeppelin/contracts/access/Ownable.sol\":3029:3037  newOwner */\n      dup2\n        /* \"@openzeppelin/contracts/access/Ownable.sol\":3020:3026  _owner */\n      0x00\n      dup1\n        /* \"@openzeppelin/contracts/access/Ownable.sol\":3020:3037  _owner = newOwner */\n      0x0100\n      exp\n      dup2\n      sload\n      dup2\n      0xffffffffffffffffffffffffffffffffffffffff\n      mul\n      not\n      and\n      swap1\n      dup4\n      0xffffffffffffffffffffffffffffffffffffffff\n      and\n      mul\n      or\n      swap1\n      sstore\n      pop\n        /* \"@openzeppelin/contracts/access/Ownable.sol\":3083:3091  newOwner */\n      dup2\n        /* \"@openzeppelin/contracts/access/Ownable.sol\":3052:3092  OwnershipTransferred(oldOwner, newOwner) */\n      0xffffffffffffffffffffffffffffffffffffffff\n      and\n        /* \"@openzeppelin/contracts/access/Ownable.sol\":3073:3081  oldOwner */\n      dup2\n        /* \"@openzeppelin/contracts/access/Ownable.sol\":3052:3092  OwnershipTransferred(oldOwner, newOwner) */\n      0xffffffffffffffffffffffffffffffffffffffff\n      and\n      0x8be0079c531659141344cd1fd0a4f28419497f9722a3daafe3b4186f6b6457e0\n      mload(0x40)\n      mload(0x40)\n      dup1\n      swap2\n      sub\n      swap1\n      log3\n        /* \"@openzeppelin/contracts/access/Ownable.sol\":2975:3099  {... */\n      pop\n        /* \"@openzeppelin/contracts/access/Ownable.sol\":2912:3099  function _transferOwnership(address newOwner) internal virtual {... */\n      pop\n      jump\t// out\n        /* \"@openzeppelin/contracts/utils/Context.sol\":656:752  function _msgSender() internal view virtual returns (address) {... */\n    tag_209:\n        /* \"@openzeppelin/contracts/utils/Context.sol\":709:716  address */\n      0x00\n        /* \"@openzeppelin/contracts/utils/Context.sol\":735:745  msg.sender */\n      caller\n        /* \"@openzeppelin/contracts/utils/Context.sol\":728:745  return msg.sender */\n      swap1\n      pop\n        /* \"@openzeppelin/contracts/utils/Context.sol\":656:752  function _msgSender() internal view virtual returns (address) {... */\n      swap1\n      jump\t// out\n    tag_69:\n      pop\n      dup1\n      sload\n      tag_216\n      swap1\n      tag_102\n      jump\t// in\n    tag_216:\n      0x00\n      dup3\n      sstore\n      dup1\n      0x1f\n      lt\n      tag_218\n      jumpi\n      pop\n      jump(tag_217)\n    tag_218:\n      0x1f\n      add\n      0x20\n      swap1\n      div\n      swap1\n      0x00\n      mstore\n      keccak256(0x00, 0x20)\n      swap1\n      dup2\n      add\n      swap1\n      tag_219\n      swap2\n      swap1\n      tag_220\n      jump\t// in\n    tag_219:\n    tag_217:\n      pop\n      jump\t// out\n    tag_220:\n    tag_221:\n      dup1\n      dup3\n      gt\n      iszero\n      tag_222\n      jumpi\n      0x00\n      dup2\n      0x00\n      swap1\n      sstore\n      pop\n      0x01\n      add\n      jump(tag_221)\n    tag_222:\n      pop\n      swap1\n      jump\t// out\n        /* \"#utility.yul\":7:82   */\n    tag_223:\n        /* \"#utility.yul\":40:46   */\n      0x00\n        /* \"#utility.yul\":73:75   */\n      0x40\n        /* \"#utility.yul\":67:76   */\n      mload\n        /* \"#utility.yul\":57:76   */\n      swap1\n      pop\n        /* \"#utility.yul\":7:82   */\n      swap1\n      jump\t// out\n        /* \"#utility.yul\":88:205   */\n    tag_224:\n        /* \"#utility.yul\":197:198   */\n      0x00\n        /* \"#utility.yul\":194:195   */\n      dup1\n        /* \"#utility.yul\":187:199   */\n      revert\n        /* \"#utility.yul\":211:328   */\n    tag_225:\n        /* \"#utility.yul\":320:321   */\n      0x00\n        /* \"#utility.yul\":317:318   */\n      dup1\n        /* \"#utility.yul\":310:322   */\n      revert\n        /* \"#utility.yul\":334:451   */\n    tag_226:\n        /* \"#utility.yul\":443:444   */\n      0x00\n        /* \"#utility.yul\":440:441   */\n      dup1\n        /* \"#utility.yul\":433:445   */\n      revert\n        /* \"#utility.yul\":457:559   */\n    tag_227:\n        /* \"#utility.yul\":498:504   */\n      0x00\n        /* \"#utility.yul\":549:551   */\n      0x1f\n        /* \"#utility.yul\":545:552   */\n      not\n        /* \"#utility.yul\":540:542   */\n      0x1f\n        /* \"#utility.yul\":533:538   */\n      dup4\n        /* \"#utility.yul\":529:543   */\n      add\n        /* \"#utility.yul\":525:553   */\n      and\n        /* \"#utility.yul\":515:553   */\n      swap1\n      pop\n        /* \"#utility.yul\":457:559   */\n      swap2\n      swap1\n      pop\n      jump\t// out\n        /* \"#utility.yul\":565:745   */\n    tag_151:\n        /* \"#utility.yul\":613:690   */\n      0x4e487b7100000000000000000000000000000000000000000000000000000000\n        /* \"#utility.yul\":610:611   */\n      0x00\n        /* \"#utility.yul\":603:691   */\n      mstore\n        /* \"#utility.yul\":710:714   */\n      0x41\n        /* \"#utility.yul\":707:708   */\n      0x04\n        /* \"#utility.yul\":700:715   */\n      mstore\n        /* \"#utility.yul\":734:738   */\n      0x24\n        /* \"#utility.yul\":731:732   */\n      0x00\n        /* \"#utility.yul\":724:739   */\n      revert\n        /* \"#utility.yul\":751:1032   */\n    tag_228:\n        /* \"#utility.yul\":834:861   */\n      tag_301\n        /* \"#utility.yul\":856:860   */\n      dup3\n        /* \"#utility.yul\":834:861   */\n      tag_227\n      jump\t// in\n    tag_301:\n        /* \"#utility.yul\":826:832   */\n      dup2\n        /* \"#utility.yul\":822:862   */\n      add\n        /* \"#utility.yul\":964:970   */\n      dup2\n        /* \"#utility.yul\":952:962   */\n      dup2\n        /* \"#utility.yul\":949:971   */\n      lt\n        /* \"#utility.yul\":928:946   */\n      0xffffffffffffffff\n        /* \"#utility.yul\":916:926   */\n      dup3\n        /* \"#utility.yul\":913:947   */\n      gt\n        /* \"#utility.yul\":910:972   */\n      or\n        /* \"#utility.yul\":907:995   */\n      iszero\n      tag_302\n      jumpi\n        /* \"#utility.yul\":975:993   */\n      tag_303\n      tag_151\n      jump\t// in\n    tag_303:\n        /* \"#utility.yul\":907:995   */\n    tag_302:\n        /* \"#utility.yul\":1015:1025   */\n      dup1\n        /* \"#utility.yul\":1011:1013   */\n      0x40\n        /* \"#utility.yul\":1004:1026   */\n      mstore\n        /* \"#utility.yul\":794:1032   */\n      pop\n        /* \"#utility.yul\":751:1032   */\n      pop\n      pop\n      jump\t// out\n        /* \"#utility.yul\":1038:1167   */\n    tag_229:\n        /* \"#utility.yul\":1072:1078   */\n      0x00\n        /* \"#utility.yul\":1099:1119   */\n      tag_305\n      tag_223\n      jump\t// in\n    tag_305:\n        /* \"#utility.yul\":1089:1119   */\n      swap1\n      pop\n        /* \"#utility.yul\":1128:1161   */\n      tag_306\n        /* \"#utility.yul\":1156:1160   */\n      dup3\n        /* \"#utility.yul\":1148:1154   */\n      dup3\n        /* \"#utility.yul\":1128:1161   */\n      tag_228\n      jump\t// in\n    tag_306:\n        /* \"#utility.yul\":1038:1167   */\n      swap2\n      swap1\n      pop\n      jump\t// out\n        /* \"#utility.yul\":1173:1494   */\n    tag_230:\n        /* \"#utility.yul\":1260:1264   */\n      0x00\n        /* \"#utility.yul\":1350:1368   */\n      0xffffffffffffffff\n        /* \"#utility.yul\":1342:1348   */\n      dup3\n        /* \"#utility.yul\":1339:1369   */\n      gt\n        /* \"#utility.yul\":1336:1392   */\n      iszero\n      tag_308\n      jumpi\n        /* \"#utility.yul\":1372:1390   */\n      tag_309\n      tag_151\n      jump\t// in\n    tag_309:\n        /* \"#utility.yul\":1336:1392   */\n    tag_308:\n        /* \"#utility.yul\":1422:1426   */\n      0x20\n        /* \"#utility.yul\":1414:1420   */\n      dup3\n        /* \"#utility.yul\":1410:1427   */\n      mul\n        /* \"#utility.yul\":1402:1427   */\n      swap1\n      pop\n        /* \"#utility.yul\":1482:1486   */\n      0x20\n        /* \"#utility.yul\":1476:1480   */\n      dup2\n        /* \"#utility.yul\":1472:1487   */\n      add\n        /* \"#utility.yul\":1464:1487   */\n      swap1\n      pop\n        /* \"#utility.yul\":1173:1494   */\n      swap2\n      swap1\n      pop\n      jump\t// out\n        /* \"#utility.yul\":1500:1617   */\n    tag_231:\n        /* \"#utility.yul\":1609:1610   */\n      0x00\n        /* \"#utility.yul\":1606:1607   */\n      dup1\n        /* \"#utility.yul\":1599:1611   */\n      revert\n        /* \"#utility.yul\":1623:1740   */\n    tag_232:\n        /* \"#utility.yul\":1732:1733   */\n      0x00\n        /* \"#utility.yul\":1729:1730   */\n      dup1\n        /* \"#utility.yul\":1722:1734   */\n      revert\n        /* \"#utility.yul\":1746:2054   */\n    tag_233:\n        /* \"#utility.yul\":1808:1812   */\n      0x00\n        /* \"#utility.yul\":1898:1916   */\n      0xffffffffffffffff\n        /* \"#utility.yul\":1890:1896   */\n      dup3\n        /* \"#utility.yul\":1887:1917   */\n      gt\n        /* \"#utility.yul\":1884:1940   */\n      iszero\n      tag_313\n      jumpi\n        /* \"#utility.yul\":1920:1938   */\n      tag_314\n      tag_151\n      jump\t// in\n    tag_314:\n        /* \"#utility.yul\":1884:1940   */\n    tag_313:\n        /* \"#utility.yul\":1958:1987   */\n      tag_315\n        /* \"#utility.yul\":1980:1986   */\n      dup3\n        /* \"#utility.yul\":1958:1987   */\n      tag_227\n      jump\t// in\n    tag_315:\n        /* \"#utility.yul\":1950:1987   */\n      swap1\n      pop\n        /* \"#utility.yul\":2042:2046   */\n      0x20\n        /* \"#utility.yul\":2036:2040   */\n      dup2\n        /* \"#utility.yul\":2032:2047   */\n      add\n        /* \"#utility.yul\":2024:2047   */\n      swap1\n      pop\n        /* \"#utility.yul\":1746:2054   */\n      swap2\n      swap1\n      pop\n      jump\t// out\n        /* \"#utility.yul\":2060:2206   */\n    tag_234:\n        /* \"#utility.yul\":2157:2163   */\n      dup3\n        /* \"#utility.yul\":2152:2155   */\n      dup2\n        /* \"#utility.yul\":2147:2150   */\n      dup4\n        /* \"#utility.yul\":2134:2164   */\n      calldatacopy\n        /* \"#utility.yul\":2198:2199   */\n      0x00\n        /* \"#utility.yul\":2189:2195   */\n      dup4\n        /* \"#utility.yul\":2184:2187   */\n      dup4\n        /* \"#utility.yul\":2180:2196   */\n      add\n        /* \"#utility.yul\":2173:2200   */\n      mstore\n        /* \"#utility.yul\":2060:2206   */\n      pop\n      pop\n      pop\n      jump\t// out\n        /* \"#utility.yul\":2212:2637   */\n    tag_235:\n        /* \"#utility.yul\":2290:2295   */\n      0x00\n        /* \"#utility.yul\":2315:2381   */\n      tag_318\n        /* \"#utility.yul\":2331:2380   */\n      tag_319\n        /* \"#utility.yul\":2373:2379   */\n      dup5\n        /* \"#utility.yul\":2331:2380   */\n      tag_233\n      jump\t// in\n    tag_319:\n        /* \"#utility.yul\":2315:2381   */\n      tag_229\n      jump\t// in\n    tag_318:\n        /* \"#utility.yul\":2306:2381   */\n      swap1\n      pop\n        /* \"#utility.yul\":2404:2410   */\n      dup3\n        /* \"#utility.yul\":2397:2402   */\n      dup2\n        /* \"#utility.yul\":2390:2411   */\n      mstore\n        /* \"#utility.yul\":2442:2446   */\n      0x20\n        /* \"#utility.yul\":2435:2440   */\n      dup2\n        /* \"#utility.yul\":2431:2447   */\n      add\n        /* \"#utility.yul\":2480:2483   */\n      dup5\n        /* \"#utility.yul\":2471:2477   */\n      dup5\n        /* \"#utility.yul\":2466:2469   */\n      dup5\n        /* \"#utility.yul\":2462:2478   */\n      add\n        /* \"#utility.yul\":2459:2484   */\n      gt\n        /* \"#utility.yul\":2456:2568   */\n      iszero\n      tag_320\n      jumpi\n        /* \"#utility.yul\":2487:2566   */\n      tag_321\n      tag_232\n      jump\t// in\n    tag_321:\n        /* \"#utility.yul\":2456:2568   */\n    tag_320:\n        /* \"#utility.yul\":2577:2631   */\n      tag_322\n        /* \"#utility.yul\":2624:2630   */\n      dup5\n        /* \"#utility.yul\":2619:2622   */\n      dup3\n        /* \"#utility.yul\":2614:2617   */\n      dup6\n        /* \"#utility.yul\":2577:2631   */\n      tag_234\n      jump\t// in\n    tag_322:\n        /* \"#utility.yul\":2296:2637   */\n      pop\n        /* \"#utility.yul\":2212:2637   */\n      swap4\n      swap3\n      pop\n      pop\n      pop\n      jump\t// out\n        /* \"#utility.yul\":2657:2997   */\n    tag_236:\n        /* \"#utility.yul\":2713:2718   */\n      0x00\n        /* \"#utility.yul\":2762:2765   */\n      dup3\n        /* \"#utility.yul\":2755:2759   */\n      0x1f\n        /* \"#utility.yul\":2747:2753   */\n      dup4\n        /* \"#utility.yul\":2743:2760   */\n      add\n        /* \"#utility.yul\":2739:2766   */\n      slt\n        /* \"#utility.yul\":2729:2851   */\n      tag_324\n      jumpi\n        /* \"#utility.yul\":2770:2849   */\n      tag_325\n      tag_226\n      jump\t// in\n    tag_325:\n        /* \"#utility.yul\":2729:2851   */\n    tag_324:\n        /* \"#utility.yul\":2887:2893   */\n      dup2\n        /* \"#utility.yul\":2874:2894   */\n      calldataload\n        /* \"#utility.yul\":2912:2991   */\n      tag_326\n        /* \"#utility.yul\":2987:2990   */\n      dup5\n        /* \"#utility.yul\":2979:2985   */\n      dup3\n        /* \"#utility.yul\":2972:2976   */\n      0x20\n        /* \"#utility.yul\":2964:2970   */\n      dup7\n        /* \"#utility.yul\":2960:2977   */\n      add\n        /* \"#utility.yul\":2912:2991   */\n      tag_235\n      jump\t// in\n    tag_326:\n        /* \"#utility.yul\":2903:2991   */\n      swap2\n      pop\n        /* \"#utility.yul\":2719:2997   */\n      pop\n        /* \"#utility.yul\":2657:2997   */\n      swap3\n      swap2\n      pop\n      pop\n      jump\t// out\n        /* \"#utility.yul\":3019:3964   */\n    tag_237:\n        /* \"#utility.yul\":3125:3130   */\n      0x00\n        /* \"#utility.yul\":3150:3241   */\n      tag_328\n        /* \"#utility.yul\":3166:3240   */\n      tag_329\n        /* \"#utility.yul\":3233:3239   */\n      dup5\n        /* \"#utility.yul\":3166:3240   */\n      tag_230\n      jump\t// in\n    tag_329:\n        /* \"#utility.yul\":3150:3241   */\n      tag_229\n      jump\t// in\n    tag_328:\n        /* \"#utility.yul\":3141:3241   */\n      swap1\n      pop\n        /* \"#utility.yul\":3261:3266   */\n      dup1\n        /* \"#utility.yul\":3290:3296   */\n      dup4\n        /* \"#utility.yul\":3283:3288   */\n      dup3\n        /* \"#utility.yul\":3276:3297   */\n      mstore\n        /* \"#utility.yul\":3324:3328   */\n      0x20\n        /* \"#utility.yul\":3317:3322   */\n      dup3\n        /* \"#utility.yul\":3313:3329   */\n      add\n        /* \"#utility.yul\":3306:3329   */\n      swap1\n      pop\n        /* \"#utility.yul\":3377:3381   */\n      0x20\n        /* \"#utility.yul\":3369:3375   */\n      dup5\n        /* \"#utility.yul\":3365:3382   */\n      mul\n        /* \"#utility.yul\":3357:3363   */\n      dup4\n        /* \"#utility.yul\":3353:3383   */\n      add\n        /* \"#utility.yul\":3406:3409   */\n      dup6\n        /* \"#utility.yul\":3398:3404   */\n      dup2\n        /* \"#utility.yul\":3395:3410   */\n      gt\n        /* \"#utility.yul\":3392:3514   */\n      iszero\n      tag_330\n      jumpi\n        /* \"#utility.yul\":3425:3504   */\n      tag_331\n      tag_231\n      jump\t// in\n    tag_331:\n        /* \"#utility.yul\":3392:3514   */\n    tag_330:\n        /* \"#utility.yul\":3540:3546   */\n      dup4\n        /* \"#utility.yul\":3523:3958   */\n    tag_332:\n        /* \"#utility.yul\":3557:3563   */\n      dup2\n        /* \"#utility.yul\":3552:3555   */\n      dup2\n        /* \"#utility.yul\":3549:3564   */\n      lt\n        /* \"#utility.yul\":3523:3958   */\n      iszero\n      tag_334\n      jumpi\n        /* \"#utility.yul\":3646:3649   */\n      dup1\n        /* \"#utility.yul\":3633:3650   */\n      calldataload\n        /* \"#utility.yul\":3682:3700   */\n      0xffffffffffffffff\n        /* \"#utility.yul\":3669:3680   */\n      dup2\n        /* \"#utility.yul\":3666:3701   */\n      gt\n        /* \"#utility.yul\":3663:3785   */\n      iszero\n      tag_335\n      jumpi\n        /* \"#utility.yul\":3704:3783   */\n      tag_336\n      tag_226\n      jump\t// in\n    tag_336:\n        /* \"#utility.yul\":3663:3785   */\n    tag_335:\n        /* \"#utility.yul\":3828:3839   */\n      dup1\n        /* \"#utility.yul\":3820:3826   */\n      dup7\n        /* \"#utility.yul\":3816:3840   */\n      add\n        /* \"#utility.yul\":3866:3913   */\n      tag_337\n        /* \"#utility.yul\":3909:3912   */\n      dup10\n        /* \"#utility.yul\":3897:3907   */\n      dup3\n        /* \"#utility.yul\":3866:3913   */\n      tag_236\n      jump\t// in\n    tag_337:\n        /* \"#utility.yul\":3861:3864   */\n      dup6\n        /* \"#utility.yul\":3854:3914   */\n      mstore\n        /* \"#utility.yul\":3943:3947   */\n      0x20\n        /* \"#utility.yul\":3938:3941   */\n      dup6\n        /* \"#utility.yul\":3934:3948   */\n      add\n        /* \"#utility.yul\":3927:3948   */\n      swap5\n      pop\n        /* \"#utility.yul\":3599:3958   */\n      pop\n      pop\n        /* \"#utility.yul\":3583:3587   */\n      0x20\n        /* \"#utility.yul\":3578:3581   */\n      dup2\n        /* \"#utility.yul\":3574:3588   */\n      add\n        /* \"#utility.yul\":3567:3588   */\n      swap1\n      pop\n        /* \"#utility.yul\":3523:3958   */\n      jump(tag_332)\n    tag_334:\n        /* \"#utility.yul\":3527:3548   */\n      pop\n        /* \"#utility.yul\":3131:3964   */\n      pop\n      pop\n        /* \"#utility.yul\":3019:3964   */\n      swap4\n      swap3\n      pop\n      pop\n      pop\n      jump\t// out\n        /* \"#utility.yul\":3986:4376   */\n    tag_238:\n        /* \"#utility.yul\":4067:4072   */\n      0x00\n        /* \"#utility.yul\":4116:4119   */\n      dup3\n        /* \"#utility.yul\":4109:4113   */\n      0x1f\n        /* \"#utility.yul\":4101:4107   */\n      dup4\n        /* \"#utility.yul\":4097:4114   */\n      add\n        /* \"#utility.yul\":4093:4120   */\n      slt\n        /* \"#utility.yul\":4083:4205   */\n      tag_339\n      jumpi\n        /* \"#utility.yul\":4124:4203   */\n      tag_340\n      tag_226\n      jump\t// in\n    tag_340:\n        /* \"#utility.yul\":4083:4205   */\n    tag_339:\n        /* \"#utility.yul\":4241:4247   */\n      dup2\n        /* \"#utility.yul\":4228:4248   */\n      calldataload\n        /* \"#utility.yul\":4266:4370   */\n      tag_341\n        /* \"#utility.yul\":4366:4369   */\n      dup5\n        /* \"#utility.yul\":4358:4364   */\n      dup3\n        /* \"#utility.yul\":4351:4355   */\n      0x20\n        /* \"#utility.yul\":4343:4349   */\n      dup7\n        /* \"#utility.yul\":4339:4356   */\n      add\n        /* \"#utility.yul\":4266:4370   */\n      tag_237\n      jump\t// in\n    tag_341:\n        /* \"#utility.yul\":4257:4370   */\n      swap2\n      pop\n        /* \"#utility.yul\":4073:4376   */\n      pop\n        /* \"#utility.yul\":3986:4376   */\n      swap3\n      swap2\n      pop\n      pop\n      jump\t// out\n        /* \"#utility.yul\":4382:4941   */\n    tag_16:\n        /* \"#utility.yul\":4476:4482   */\n      0x00\n        /* \"#utility.yul\":4525:4527   */\n      0x20\n        /* \"#utility.yul\":4513:4522   */\n      dup3\n        /* \"#utility.yul\":4504:4511   */\n      dup5\n        /* \"#utility.yul\":4500:4523   */\n      sub\n        /* \"#utility.yul\":4496:4528   */\n      slt\n        /* \"#utility.yul\":4493:4612   */\n      iszero\n      tag_343\n      jumpi\n        /* \"#utility.yul\":4531:4610   */\n      tag_344\n      tag_224\n      jump\t// in\n    tag_344:\n        /* \"#utility.yul\":4493:4612   */\n    tag_343:\n        /* \"#utility.yul\":4679:4680   */\n      0x00\n        /* \"#utility.yul\":4668:4677   */\n      dup3\n        /* \"#utility.yul\":4664:4681   */\n      add\n        /* \"#utility.yul\":4651:4682   */\n      calldataload\n        /* \"#utility.yul\":4709:4727   */\n      0xffffffffffffffff\n        /* \"#utility.yul\":4701:4707   */\n      dup2\n        /* \"#utility.yul\":4698:4728   */\n      gt\n        /* \"#utility.yul\":4695:4812   */\n      iszero\n      tag_345\n      jumpi\n        /* \"#utility.yul\":4731:4810   */\n      tag_346\n      tag_225\n      jump\t// in\n    tag_346:\n        /* \"#utility.yul\":4695:4812   */\n    tag_345:\n        /* \"#utility.yul\":4836:4924   */\n      tag_347\n        /* \"#utility.yul\":4916:4923   */\n      dup5\n        /* \"#utility.yul\":4907:4913   */\n      dup3\n        /* \"#utility.yul\":4896:4905   */\n      dup6\n        /* \"#utility.yul\":4892:4914   */\n      add\n        /* \"#utility.yul\":4836:4924   */\n      tag_238\n      jump\t// in\n    tag_347:\n        /* \"#utility.yul\":4826:4924   */\n      swap2\n      pop\n        /* \"#utility.yul\":4622:4934   */\n      pop\n        /* \"#utility.yul\":4382:4941   */\n      swap3\n      swap2\n      pop\n      pop\n      jump\t// out\n        /* \"#utility.yul\":4947:5073   */\n    tag_239:\n        /* \"#utility.yul\":4984:4991   */\n      0x00\n        /* \"#utility.yul\":5024:5066   */\n      0xffffffffffffffffffffffffffffffffffffffff\n        /* \"#utility.yul\":5017:5022   */\n      dup3\n        /* \"#utility.yul\":5013:5067   */\n      and\n        /* \"#utility.yul\":5002:5067   */\n      swap1\n      pop\n        /* \"#utility.yul\":4947:5073   */\n      swap2\n      swap1\n      pop\n      jump\t// out\n        /* \"#utility.yul\":5079:5175   */\n    tag_240:\n        /* \"#utility.yul\":5116:5123   */\n      0x00\n        /* \"#utility.yul\":5145:5169   */\n      tag_350\n        /* \"#utility.yul\":5163:5168   */\n      dup3\n        /* \"#utility.yul\":5145:5169   */\n      tag_239\n      jump\t// in\n    tag_350:\n        /* \"#utility.yul\":5134:5169   */\n      swap1\n      pop\n        /* \"#utility.yul\":5079:5175   */\n      swap2\n      swap1\n      pop\n      jump\t// out\n        /* \"#utility.yul\":5181:5299   */\n    tag_241:\n        /* \"#utility.yul\":5268:5292   */\n      tag_352\n        /* \"#utility.yul\":5286:5291   */\n      dup2\n        /* \"#utility.yul\":5268:5292   */\n      tag_240\n      jump\t// in\n    tag_352:\n        /* \"#utility.yul\":5263:5266   */\n      dup3\n        /* \"#utility.yul\":5256:5293   */\n      mstore\n        /* \"#utility.yul\":5181:5299   */\n      pop\n      pop\n      jump\t// out\n        /* \"#utility.yul\":5305:5527   */\n    tag_23:\n        /* \"#utility.yul\":5398:5402   */\n      0x00\n        /* \"#utility.yul\":5436:5438   */\n      0x20\n        /* \"#utility.yul\":5425:5434   */\n      dup3\n        /* \"#utility.yul\":5421:5439   */\n      add\n        /* \"#utility.yul\":5413:5439   */\n      swap1\n      pop\n        /* \"#utility.yul\":5449:5520   */\n      tag_354\n        /* \"#utility.yul\":5517:5518   */\n      0x00\n        /* \"#utility.yul\":5506:5515   */\n      dup4\n        /* \"#utility.yul\":5502:5519   */\n      add\n        /* \"#utility.yul\":5493:5499   */\n      dup5\n        /* \"#utility.yul\":5449:5520   */\n      tag_241\n      jump\t// in\n    tag_354:\n        /* \"#utility.yul\":5305:5527   */\n      swap3\n      swap2\n      pop\n      pop\n      jump\t// out\n        /* \"#utility.yul\":5533:6467   */\n    tag_26:\n        /* \"#utility.yul\":5671:5677   */\n      0x00\n        /* \"#utility.yul\":5679:5685   */\n      dup1\n        /* \"#utility.yul\":5728:5730   */\n      0x40\n        /* \"#utility.yul\":5716:5725   */\n      dup4\n        /* \"#utility.yul\":5707:5714   */\n      dup6\n        /* \"#utility.yul\":5703:5726   */\n      sub\n        /* \"#utility.yul\":5699:5731   */\n      slt\n        /* \"#utility.yul\":5696:5815   */\n      iszero\n      tag_356\n      jumpi\n        /* \"#utility.yul\":5734:5813   */\n      tag_357\n      tag_224\n      jump\t// in\n    tag_357:\n        /* \"#utility.yul\":5696:5815   */\n    tag_356:\n        /* \"#utility.yul\":5882:5883   */\n      0x00\n        /* \"#utility.yul\":5871:5880   */\n      dup4\n        /* \"#utility.yul\":5867:5884   */\n      add\n        /* \"#utility.yul\":5854:5885   */\n      calldataload\n        /* \"#utility.yul\":5912:5930   */\n      0xffffffffffffffff\n        /* \"#utility.yul\":5904:5910   */\n      dup2\n        /* \"#utility.yul\":5901:5931   */\n      gt\n        /* \"#utility.yul\":5898:6015   */\n      iszero\n      tag_358\n      jumpi\n        /* \"#utility.yul\":5934:6013   */\n      tag_359\n      tag_225\n      jump\t// in\n    tag_359:\n        /* \"#utility.yul\":5898:6015   */\n    tag_358:\n        /* \"#utility.yul\":6039:6127   */\n      tag_360\n        /* \"#utility.yul\":6119:6126   */\n      dup6\n        /* \"#utility.yul\":6110:6116   */\n      dup3\n        /* \"#utility.yul\":6099:6108   */\n      dup7\n        /* \"#utility.yul\":6095:6117   */\n      add\n        /* \"#utility.yul\":6039:6127   */\n      tag_238\n      jump\t// in\n    tag_360:\n        /* \"#utility.yul\":6029:6127   */\n      swap3\n      pop\n        /* \"#utility.yul\":5825:6137   */\n      pop\n        /* \"#utility.yul\":6204:6206   */\n      0x20\n        /* \"#utility.yul\":6193:6202   */\n      dup4\n        /* \"#utility.yul\":6189:6207   */\n      add\n        /* \"#utility.yul\":6176:6208   */\n      calldataload\n        /* \"#utility.yul\":6235:6253   */\n      0xffffffffffffffff\n        /* \"#utility.yul\":6227:6233   */\n      dup2\n        /* \"#utility.yul\":6224:6254   */\n      gt\n        /* \"#utility.yul\":6221:6338   */\n      iszero\n      tag_361\n      jumpi\n        /* \"#utility.yul\":6257:6336   */\n      tag_362\n      tag_225\n      jump\t// in\n    tag_362:\n        /* \"#utility.yul\":6221:6338   */\n    tag_361:\n        /* \"#utility.yul\":6362:6450   */\n      tag_363\n        /* \"#utility.yul\":6442:6449   */\n      dup6\n        /* \"#utility.yul\":6433:6439   */\n      dup3\n        /* \"#utility.yul\":6422:6431   */\n      dup7\n        /* \"#utility.yul\":6418:6440   */\n      add\n        /* \"#utility.yul\":6362:6450   */\n      tag_238\n      jump\t// in\n    tag_363:\n        /* \"#utility.yul\":6352:6450   */\n      swap2\n      pop\n        /* \"#utility.yul\":6147:6460   */\n      pop\n        /* \"#utility.yul\":5533:6467   */\n      swap3\n      pop\n      swap3\n      swap1\n      pop\n      jump\t// out\n        /* \"#utility.yul\":6473:6550   */\n    tag_242:\n        /* \"#utility.yul\":6510:6517   */\n      0x00\n        /* \"#utility.yul\":6539:6544   */\n      dup2\n        /* \"#utility.yul\":6528:6544   */\n      swap1\n      pop\n        /* \"#utility.yul\":6473:6550   */\n      swap2\n      swap1\n      pop\n      jump\t// out\n        /* \"#utility.yul\":6556:6674   */\n    tag_243:\n        /* \"#utility.yul\":6643:6667   */\n      tag_366\n        /* \"#utility.yul\":6661:6666   */\n      dup2\n        /* \"#utility.yul\":6643:6667   */\n      tag_242\n      jump\t// in\n    tag_366:\n        /* \"#utility.yul\":6638:6641   */\n      dup3\n        /* \"#utility.yul\":6631:6668   */\n      mstore\n        /* \"#utility.yul\":6556:6674   */\n      pop\n      pop\n      jump\t// out\n        /* \"#utility.yul\":6680:6902   */\n    tag_31:\n        /* \"#utility.yul\":6773:6777   */\n      0x00\n        /* \"#utility.yul\":6811:6813   */\n      0x20\n        /* \"#utility.yul\":6800:6809   */\n      dup3\n        /* \"#utility.yul\":6796:6814   */\n      add\n        /* \"#utility.yul\":6788:6814   */\n      swap1\n      pop\n        /* \"#utility.yul\":6824:6895   */\n      tag_368\n        /* \"#utility.yul\":6892:6893   */\n      0x00\n        /* \"#utility.yul\":6881:6890   */\n      dup4\n        /* \"#utility.yul\":6877:6894   */\n      add\n        /* \"#utility.yul\":6868:6874   */\n      dup5\n        /* \"#utility.yul\":6824:6895   */\n      tag_243\n      jump\t// in\n    tag_368:\n        /* \"#utility.yul\":6680:6902   */\n      swap3\n      swap2\n      pop\n      pop\n      jump\t// out\n        /* \"#utility.yul\":6908:7417   */\n    tag_34:\n        /* \"#utility.yul\":6977:6983   */\n      0x00\n        /* \"#utility.yul\":7026:7028   */\n      0x20\n        /* \"#utility.yul\":7014:7023   */\n      dup3\n        /* \"#utility.yul\":7005:7012   */\n      dup5\n        /* \"#utility.yul\":7001:7024   */\n      sub\n        /* \"#utility.yul\":6997:7029   */\n      slt\n        /* \"#utility.yul\":6994:7113   */\n      iszero\n      tag_370\n      jumpi\n        /* \"#utility.yul\":7032:7111   */\n      tag_371\n      tag_224\n      jump\t// in\n    tag_371:\n        /* \"#utility.yul\":6994:7113   */\n    tag_370:\n        /* \"#utility.yul\":7180:7181   */\n      0x00\n        /* \"#utility.yul\":7169:7178   */\n      dup3\n        /* \"#utility.yul\":7165:7182   */\n      add\n        /* \"#utility.yul\":7152:7183   */\n      calldataload\n        /* \"#utility.yul\":7210:7228   */\n      0xffffffffffffffff\n        /* \"#utility.yul\":7202:7208   */\n      dup2\n        /* \"#utility.yul\":7199:7229   */\n      gt\n        /* \"#utility.yul\":7196:7313   */\n      iszero\n      tag_372\n      jumpi\n        /* \"#utility.yul\":7232:7311   */\n      tag_373\n      tag_225\n      jump\t// in\n    tag_373:\n        /* \"#utility.yul\":7196:7313   */\n    tag_372:\n        /* \"#utility.yul\":7337:7400   */\n      tag_374\n        /* \"#utility.yul\":7392:7399   */\n      dup5\n        /* \"#utility.yul\":7383:7389   */\n      dup3\n        /* \"#utility.yul\":7372:7381   */\n      dup6\n        /* \"#utility.yul\":7368:7390   */\n      add\n        /* \"#utility.yul\":7337:7400   */\n      tag_236\n      jump\t// in\n    tag_374:\n        /* \"#utility.yul\":7327:7400   */\n      swap2\n      pop\n        /* \"#utility.yul\":7123:7410   */\n      pop\n        /* \"#utility.yul\":6908:7417   */\n      swap3\n      swap2\n      pop\n      pop\n      jump\t// out\n        /* \"#utility.yul\":7423:7522   */\n    tag_244:\n        /* \"#utility.yul\":7475:7481   */\n      0x00\n        /* \"#utility.yul\":7509:7514   */\n      dup2\n        /* \"#utility.yul\":7503:7515   */\n      mload\n        /* \"#utility.yul\":7493:7515   */\n      swap1\n      pop\n        /* \"#utility.yul\":7423:7522   */\n      swap2\n      swap1\n      pop\n      jump\t// out\n        /* \"#utility.yul\":7528:7697   */\n    tag_245:\n        /* \"#utility.yul\":7612:7623   */\n      0x00\n        /* \"#utility.yul\":7646:7652   */\n      dup3\n        /* \"#utility.yul\":7641:7644   */\n      dup3\n        /* \"#utility.yul\":7634:7653   */\n      mstore\n        /* \"#utility.yul\":7686:7690   */\n      0x20\n        /* \"#utility.yul\":7681:7684   */\n      dup3\n        /* \"#utility.yul\":7677:7691   */\n      add\n        /* \"#utility.yul\":7662:7691   */\n      swap1\n      pop\n        /* \"#utility.yul\":7528:7697   */\n      swap3\n      swap2\n      pop\n      pop\n      jump\t// out\n        /* \"#utility.yul\":7703:7949   */\n    tag_246:\n        /* \"#utility.yul\":7784:7785   */\n      0x00\n        /* \"#utility.yul\":7794:7907   */\n    tag_378:\n        /* \"#utility.yul\":7808:7814   */\n      dup4\n        /* \"#utility.yul\":7805:7806   */\n      dup2\n        /* \"#utility.yul\":7802:7815   */\n      lt\n        /* \"#utility.yul\":7794:7907   */\n      iszero\n      tag_380\n      jumpi\n        /* \"#utility.yul\":7893:7894   */\n      dup1\n        /* \"#utility.yul\":7888:7891   */\n      dup3\n        /* \"#utility.yul\":7884:7895   */\n      add\n        /* \"#utility.yul\":7878:7896   */\n      mload\n        /* \"#utility.yul\":7874:7875   */\n      dup2\n        /* \"#utility.yul\":7869:7872   */\n      dup5\n        /* \"#utility.yul\":7865:7876   */\n      add\n        /* \"#utility.yul\":7858:7897   */\n      mstore\n        /* \"#utility.yul\":7830:7832   */\n      0x20\n        /* \"#utility.yul\":7827:7828   */\n      dup2\n        /* \"#utility.yul\":7823:7833   */\n      add\n        /* \"#utility.yul\":7818:7833   */\n      swap1\n      pop\n        /* \"#utility.yul\":7794:7907   */\n      jump(tag_378)\n    tag_380:\n        /* \"#utility.yul\":7941:7942   */\n      0x00\n        /* \"#utility.yul\":7932:7938   */\n      dup5\n        /* \"#utility.yul\":7927:7930   */\n      dup5\n        /* \"#utility.yul\":7923:7939   */\n      add\n        /* \"#utility.yul\":7916:7943   */\n      mstore\n        /* \"#utility.yul\":7765:7949   */\n      pop\n        /* \"#utility.yul\":7703:7949   */\n      pop\n      pop\n      pop\n      jump\t// out\n        /* \"#utility.yul\":7955:8332   */\n    tag_247:\n        /* \"#utility.yul\":8043:8046   */\n      0x00\n        /* \"#utility.yul\":8071:8110   */\n      tag_382\n        /* \"#utility.yul\":8104:8109   */\n      dup3\n        /* \"#utility.yul\":8071:8110   */\n      tag_244\n      jump\t// in\n    tag_382:\n        /* \"#utility.yul\":8126:8197   */\n      tag_383\n        /* \"#utility.yul\":8190:8196   */\n      dup2\n        /* \"#utility.yul\":8185:8188   */\n      dup6\n        /* \"#utility.yul\":8126:8197   */\n      tag_245\n      jump\t// in\n    tag_383:\n        /* \"#utility.yul\":8119:8197   */\n      swap4\n      pop\n        /* \"#utility.yul\":8206:8271   */\n      tag_384\n        /* \"#utility.yul\":8264:8270   */\n      dup2\n        /* \"#utility.yul\":8259:8262   */\n      dup6\n        /* \"#utility.yul\":8252:8256   */\n      0x20\n        /* \"#utility.yul\":8245:8250   */\n      dup7\n        /* \"#utility.yul\":8241:8257   */\n      add\n        /* \"#utility.yul\":8206:8271   */\n      tag_246\n      jump\t// in\n    tag_384:\n        /* \"#utility.yul\":8296:8325   */\n      tag_385\n        /* \"#utility.yul\":8318:8324   */\n      dup2\n        /* \"#utility.yul\":8296:8325   */\n      tag_227\n      jump\t// in\n    tag_385:\n        /* \"#utility.yul\":8291:8294   */\n      dup5\n        /* \"#utility.yul\":8287:8326   */\n      add\n        /* \"#utility.yul\":8280:8326   */\n      swap2\n      pop\n        /* \"#utility.yul\":8047:8332   */\n      pop\n        /* \"#utility.yul\":7955:8332   */\n      swap3\n      swap2\n      pop\n      pop\n      jump\t// out\n        /* \"#utility.yul\":8338:8651   */\n    tag_37:\n        /* \"#utility.yul\":8451:8455   */\n      0x00\n        /* \"#utility.yul\":8489:8491   */\n      0x20\n        /* \"#utility.yul\":8478:8487   */\n      dup3\n        /* \"#utility.yul\":8474:8492   */\n      add\n        /* \"#utility.yul\":8466:8492   */\n      swap1\n      pop\n        /* \"#utility.yul\":8538:8547   */\n      dup2\n        /* \"#utility.yul\":8532:8536   */\n      dup2\n        /* \"#utility.yul\":8528:8548   */\n      sub\n        /* \"#utility.yul\":8524:8525   */\n      0x00\n        /* \"#utility.yul\":8513:8522   */\n      dup4\n        /* \"#utility.yul\":8509:8526   */\n      add\n        /* \"#utility.yul\":8502:8549   */\n      mstore\n        /* \"#utility.yul\":8566:8644   */\n      tag_387\n        /* \"#utility.yul\":8639:8643   */\n      dup2\n        /* \"#utility.yul\":8630:8636   */\n      dup5\n        /* \"#utility.yul\":8566:8644   */\n      tag_247\n      jump\t// in\n    tag_387:\n        /* \"#utility.yul\":8558:8644   */\n      swap1\n      pop\n        /* \"#utility.yul\":8338:8651   */\n      swap3\n      swap2\n      pop\n      pop\n      jump\t// out\n        /* \"#utility.yul\":8657:8779   */\n    tag_248:\n        /* \"#utility.yul\":8730:8754   */\n      tag_389\n        /* \"#utility.yul\":8748:8753   */\n      dup2\n        /* \"#utility.yul\":8730:8754   */\n      tag_242\n      jump\t// in\n    tag_389:\n        /* \"#utility.yul\":8723:8728   */\n      dup2\n        /* \"#utility.yul\":8720:8755   */\n      eq\n        /* \"#utility.yul\":8710:8773   */\n      tag_390\n      jumpi\n        /* \"#utility.yul\":8769:8770   */\n      0x00\n        /* \"#utility.yul\":8766:8767   */\n      dup1\n        /* \"#utility.yul\":8759:8771   */\n      revert\n        /* \"#utility.yul\":8710:8773   */\n    tag_390:\n        /* \"#utility.yul\":8657:8779   */\n      pop\n      jump\t// out\n        /* \"#utility.yul\":8785:8924   */\n    tag_249:\n        /* \"#utility.yul\":8831:8836   */\n      0x00\n        /* \"#utility.yul\":8869:8875   */\n      dup2\n        /* \"#utility.yul\":8856:8876   */\n      calldataload\n        /* \"#utility.yul\":8847:8876   */\n      swap1\n      pop\n        /* \"#utility.yul\":8885:8918   */\n      tag_392\n        /* \"#utility.yul\":8912:8917   */\n      dup2\n        /* \"#utility.yul\":8885:8918   */\n      tag_248\n      jump\t// in\n    tag_392:\n        /* \"#utility.yul\":8785:8924   */\n      swap3\n      swap2\n      pop\n      pop\n      jump\t// out\n        /* \"#utility.yul\":8930:9259   */\n    tag_40:\n        /* \"#utility.yul\":8989:8995   */\n      0x00\n        /* \"#utility.yul\":9038:9040   */\n      0x20\n        /* \"#utility.yul\":9026:9035   */\n      dup3\n        /* \"#utility.yul\":9017:9024   */\n      dup5\n        /* \"#utility.yul\":9013:9036   */\n      sub\n        /* \"#utility.yul\":9009:9041   */\n      slt\n        /* \"#utility.yul\":9006:9125   */\n      iszero\n      tag_394\n      jumpi\n        /* \"#utility.yul\":9044:9123   */\n      tag_395\n      tag_224\n      jump\t// in\n    tag_395:\n        /* \"#utility.yul\":9006:9125   */\n    tag_394:\n        /* \"#utility.yul\":9164:9165   */\n      0x00\n        /* \"#utility.yul\":9189:9242   */\n      tag_396\n        /* \"#utility.yul\":9234:9241   */\n      dup5\n        /* \"#utility.yul\":9225:9231   */\n      dup3\n        /* \"#utility.yul\":9214:9223   */\n      dup6\n        /* \"#utility.yul\":9210:9232   */\n      add\n        /* \"#utility.yul\":9189:9242   */\n      tag_249\n      jump\t// in\n    tag_396:\n        /* \"#utility.yul\":9179:9242   */\n      swap2\n      pop\n        /* \"#utility.yul\":9135:9252   */\n      pop\n        /* \"#utility.yul\":8930:9259   */\n      swap3\n      swap2\n      pop\n      pop\n      jump\t// out\n        /* \"#utility.yul\":9265:9739   */\n    tag_45:\n        /* \"#utility.yul\":9333:9339   */\n      0x00\n        /* \"#utility.yul\":9341:9347   */\n      dup1\n        /* \"#utility.yul\":9390:9392   */\n      0x40\n        /* \"#utility.yul\":9378:9387   */\n      dup4\n        /* \"#utility.yul\":9369:9376   */\n      dup6\n        /* \"#utility.yul\":9365:9388   */\n      sub\n        /* \"#utility.yul\":9361:9393   */\n      slt\n        /* \"#utility.yul\":9358:9477   */\n      iszero\n      tag_398\n      jumpi\n        /* \"#utility.yul\":9396:9475   */\n      tag_399\n      tag_224\n      jump\t// in\n    tag_399:\n        /* \"#utility.yul\":9358:9477   */\n    tag_398:\n        /* \"#utility.yul\":9516:9517   */\n      0x00\n        /* \"#utility.yul\":9541:9594   */\n      tag_400\n        /* \"#utility.yul\":9586:9593   */\n      dup6\n        /* \"#utility.yul\":9577:9583   */\n      dup3\n        /* \"#utility.yul\":9566:9575   */\n      dup7\n        /* \"#utility.yul\":9562:9584   */\n      add\n        /* \"#utility.yul\":9541:9594   */\n      tag_249\n      jump\t// in\n    tag_400:\n        /* \"#utility.yul\":9531:9594   */\n      swap3\n      pop\n        /* \"#utility.yul\":9487:9604   */\n      pop\n        /* \"#utility.yul\":9643:9645   */\n      0x20\n        /* \"#utility.yul\":9669:9722   */\n      tag_401\n        /* \"#utility.yul\":9714:9721   */\n      dup6\n        /* \"#utility.yul\":9705:9711   */\n      dup3\n        /* \"#utility.yul\":9694:9703   */\n      dup7\n        /* \"#utility.yul\":9690:9712   */\n      add\n        /* \"#utility.yul\":9669:9722   */\n      tag_249\n      jump\t// in\n    tag_401:\n        /* \"#utility.yul\":9659:9722   */\n      swap2\n      pop\n        /* \"#utility.yul\":9614:9732   */\n      pop\n        /* \"#utility.yul\":9265:9739   */\n      swap3\n      pop\n      swap3\n      swap1\n      pop\n      jump\t// out\n        /* \"#utility.yul\":9745:9869   */\n    tag_250:\n        /* \"#utility.yul\":9822:9828   */\n      0x00\n        /* \"#utility.yul\":9856:9861   */\n      dup2\n        /* \"#utility.yul\":9850:9862   */\n      mload\n        /* \"#utility.yul\":9840:9862   */\n      swap1\n      pop\n        /* \"#utility.yul\":9745:9869   */\n      swap2\n      swap1\n      pop\n      jump\t// out\n        /* \"#utility.yul\":9875:10069   */\n    tag_251:\n        /* \"#utility.yul\":9984:9995   */\n      0x00\n        /* \"#utility.yul\":10018:10024   */\n      dup3\n        /* \"#utility.yul\":10013:10016   */\n      dup3\n        /* \"#utility.yul\":10006:10025   */\n      mstore\n        /* \"#utility.yul\":10058:10062   */\n      0x20\n        /* \"#utility.yul\":10053:10056   */\n      dup3\n        /* \"#utility.yul\":10049:10063   */\n      add\n        /* \"#utility.yul\":10034:10063   */\n      swap1\n      pop\n        /* \"#utility.yul\":9875:10069   */\n      swap3\n      swap2\n      pop\n      pop\n      jump\t// out\n        /* \"#utility.yul\":10075:10217   */\n    tag_252:\n        /* \"#utility.yul\":10152:10156   */\n      0x00\n        /* \"#utility.yul\":10175:10178   */\n      dup2\n        /* \"#utility.yul\":10167:10178   */\n      swap1\n      pop\n        /* \"#utility.yul\":10205:10209   */\n      0x20\n        /* \"#utility.yul\":10200:10203   */\n      dup3\n        /* \"#utility.yul\":10196:10210   */\n      add\n        /* \"#utility.yul\":10188:10210   */\n      swap1\n      pop\n        /* \"#utility.yul\":10075:10217   */\n      swap2\n      swap1\n      pop\n      jump\t// out\n        /* \"#utility.yul\":10223:10382   */\n    tag_253:\n        /* \"#utility.yul\":10297:10308   */\n      0x00\n        /* \"#utility.yul\":10331:10337   */\n      dup3\n        /* \"#utility.yul\":10326:10329   */\n      dup3\n        /* \"#utility.yul\":10319:10338   */\n      mstore\n        /* \"#utility.yul\":10371:10375   */\n      0x20\n        /* \"#utility.yul\":10366:10369   */\n      dup3\n        /* \"#utility.yul\":10362:10376   */\n      add\n        /* \"#utility.yul\":10347:10376   */\n      swap1\n      pop\n        /* \"#utility.yul\":10223:10382   */\n      swap3\n      swap2\n      pop\n      pop\n      jump\t// out\n        /* \"#utility.yul\":10388:10745   */\n    tag_254:\n        /* \"#utility.yul\":10466:10469   */\n      0x00\n        /* \"#utility.yul\":10494:10533   */\n      tag_407\n        /* \"#utility.yul\":10527:10532   */\n      dup3\n        /* \"#utility.yul\":10494:10533   */\n      tag_244\n      jump\t// in\n    tag_407:\n        /* \"#utility.yul\":10549:10610   */\n      tag_408\n        /* \"#utility.yul\":10603:10609   */\n      dup2\n        /* \"#utility.yul\":10598:10601   */\n      dup6\n        /* \"#utility.yul\":10549:10610   */\n      tag_253\n      jump\t// in\n    tag_408:\n        /* \"#utility.yul\":10542:10610   */\n      swap4\n      pop\n        /* \"#utility.yul\":10619:10684   */\n      tag_409\n        /* \"#utility.yul\":10677:10683   */\n      dup2\n        /* \"#utility.yul\":10672:10675   */\n      dup6\n        /* \"#utility.yul\":10665:10669   */\n      0x20\n        /* \"#utility.yul\":10658:10663   */\n      dup7\n        /* \"#utility.yul\":10654:10670   */\n      add\n        /* \"#utility.yul\":10619:10684   */\n      tag_246\n      jump\t// in\n    tag_409:\n        /* \"#utility.yul\":10709:10738   */\n      tag_410\n        /* \"#utility.yul\":10731:10737   */\n      dup2\n        /* \"#utility.yul\":10709:10738   */\n      tag_227\n      jump\t// in\n    tag_410:\n        /* \"#utility.yul\":10704:10707   */\n      dup5\n        /* \"#utility.yul\":10700:10739   */\n      add\n        /* \"#utility.yul\":10693:10739   */\n      swap2\n      pop\n        /* \"#utility.yul\":10470:10745   */\n      pop\n        /* \"#utility.yul\":10388:10745   */\n      swap3\n      swap2\n      pop\n      pop\n      jump\t// out\n        /* \"#utility.yul\":10751:10947   */\n    tag_255:\n        /* \"#utility.yul\":10840:10850   */\n      0x00\n        /* \"#utility.yul\":10875:10941   */\n      tag_412\n        /* \"#utility.yul\":10937:10940   */\n      dup4\n        /* \"#utility.yul\":10929:10935   */\n      dup4\n        /* \"#utility.yul\":10875:10941   */\n      tag_254\n      jump\t// in\n    tag_412:\n        /* \"#utility.yul\":10861:10941   */\n      swap1\n      pop\n        /* \"#utility.yul\":10751:10947   */\n      swap3\n      swap2\n      pop\n      pop\n      jump\t// out\n        /* \"#utility.yul\":10953:11076   */\n    tag_256:\n        /* \"#utility.yul\":11033:11037   */\n      0x00\n        /* \"#utility.yul\":11065:11069   */\n      0x20\n        /* \"#utility.yul\":11060:11063   */\n      dup3\n        /* \"#utility.yul\":11056:11070   */\n      add\n        /* \"#utility.yul\":11048:11070   */\n      swap1\n      pop\n        /* \"#utility.yul\":10953:11076   */\n      swap2\n      swap1\n      pop\n      jump\t// out\n        /* \"#utility.yul\":11110:12101   */\n    tag_257:\n        /* \"#utility.yul\":11249:11252   */\n      0x00\n        /* \"#utility.yul\":11278:11342   */\n      tag_415\n        /* \"#utility.yul\":11336:11341   */\n      dup3\n        /* \"#utility.yul\":11278:11342   */\n      tag_250\n      jump\t// in\n    tag_415:\n        /* \"#utility.yul\":11358:11454   */\n      tag_416\n        /* \"#utility.yul\":11447:11453   */\n      dup2\n        /* \"#utility.yul\":11442:11445   */\n      dup6\n        /* \"#utility.yul\":11358:11454   */\n      tag_251\n      jump\t// in\n    tag_416:\n        /* \"#utility.yul\":11351:11454   */\n      swap4\n      pop\n        /* \"#utility.yul\":11480:11483   */\n      dup4\n        /* \"#utility.yul\":11525:11529   */\n      0x20\n        /* \"#utility.yul\":11517:11523   */\n      dup3\n        /* \"#utility.yul\":11513:11530   */\n      mul\n        /* \"#utility.yul\":11508:11511   */\n      dup6\n        /* \"#utility.yul\":11504:11531   */\n      add\n        /* \"#utility.yul\":11555:11621   */\n      tag_417\n        /* \"#utility.yul\":11615:11620   */\n      dup6\n        /* \"#utility.yul\":11555:11621   */\n      tag_252\n      jump\t// in\n    tag_417:\n        /* \"#utility.yul\":11644:11651   */\n      dup1\n        /* \"#utility.yul\":11675:11676   */\n      0x00\n        /* \"#utility.yul\":11660:12056   */\n    tag_418:\n        /* \"#utility.yul\":11685:11691   */\n      dup6\n        /* \"#utility.yul\":11682:11683   */\n      dup2\n        /* \"#utility.yul\":11679:11692   */\n      lt\n        /* \"#utility.yul\":11660:12056   */\n      iszero\n      tag_420\n      jumpi\n        /* \"#utility.yul\":11756:11765   */\n      dup5\n        /* \"#utility.yul\":11750:11754   */\n      dup5\n        /* \"#utility.yul\":11746:11766   */\n      sub\n        /* \"#utility.yul\":11741:11744   */\n      dup10\n        /* \"#utility.yul\":11734:11767   */\n      mstore\n        /* \"#utility.yul\":11807:11813   */\n      dup2\n        /* \"#utility.yul\":11801:11814   */\n      mload\n        /* \"#utility.yul\":11835:11919   */\n      tag_421\n        /* \"#utility.yul\":11914:11918   */\n      dup6\n        /* \"#utility.yul\":11899:11912   */\n      dup3\n        /* \"#utility.yul\":11835:11919   */\n      tag_255\n      jump\t// in\n    tag_421:\n        /* \"#utility.yul\":11827:11919   */\n      swap5\n      pop\n        /* \"#utility.yul\":11942:12012   */\n      tag_422\n        /* \"#utility.yul\":12005:12011   */\n      dup4\n        /* \"#utility.yul\":11942:12012   */\n      tag_256\n      jump\t// in\n    tag_422:\n        /* \"#utility.yul\":11932:12012   */\n      swap3\n      pop\n        /* \"#utility.yul\":12041:12045   */\n      0x20\n        /* \"#utility.yul\":12036:12039   */\n      dup11\n        /* \"#utility.yul\":12032:12046   */\n      add\n        /* \"#utility.yul\":12025:12046   */\n      swap10\n      pop\n        /* \"#utility.yul\":11720:12056   */\n      pop\n        /* \"#utility.yul\":11707:11708   */\n      0x01\n        /* \"#utility.yul\":11704:11705   */\n      dup2\n        /* \"#utility.yul\":11700:11709   */\n      add\n        /* \"#utility.yul\":11695:11709   */\n      swap1\n      pop\n        /* \"#utility.yul\":11660:12056   */\n      jump(tag_418)\n    tag_420:\n        /* \"#utility.yul\":11664:11678   */\n      pop\n        /* \"#utility.yul\":12072:12076   */\n      dup3\n        /* \"#utility.yul\":12065:12076   */\n      swap8\n      pop\n        /* \"#utility.yul\":12092:12095   */\n      dup8\n        /* \"#utility.yul\":12085:12095   */\n      swap6\n      pop\n        /* \"#utility.yul\":11254:12101   */\n      pop\n      pop\n      pop\n      pop\n      pop\n        /* \"#utility.yul\":11110:12101   */\n      swap3\n      swap2\n      pop\n      pop\n      jump\t// out\n        /* \"#utility.yul\":12107:12520   */\n    tag_48:\n        /* \"#utility.yul\":12270:12274   */\n      0x00\n        /* \"#utility.yul\":12308:12310   */\n      0x20\n        /* \"#utility.yul\":12297:12306   */\n      dup3\n        /* \"#utility.yul\":12293:12311   */\n      add\n        /* \"#utility.yul\":12285:12311   */\n      swap1\n      pop\n        /* \"#utility.yul\":12357:12366   */\n      dup2\n        /* \"#utility.yul\":12351:12355   */\n      dup2\n        /* \"#utility.yul\":12347:12367   */\n      sub\n        /* \"#utility.yul\":12343:12344   */\n      0x00\n        /* \"#utility.yul\":12332:12341   */\n      dup4\n        /* \"#utility.yul\":12328:12345   */\n      add\n        /* \"#utility.yul\":12321:12368   */\n      mstore\n        /* \"#utility.yul\":12385:12513   */\n      tag_424\n        /* \"#utility.yul\":12508:12512   */\n      dup2\n        /* \"#utility.yul\":12499:12505   */\n      dup5\n        /* \"#utility.yul\":12385:12513   */\n      tag_257\n      jump\t// in\n    tag_424:\n        /* \"#utility.yul\":12377:12513   */\n      swap1\n      pop\n        /* \"#utility.yul\":12107:12520   */\n      swap3\n      swap2\n      pop\n      pop\n      jump\t// out\n        /* \"#utility.yul\":12526:12648   */\n    tag_258:\n        /* \"#utility.yul\":12599:12623   */\n      tag_426\n        /* \"#utility.yul\":12617:12622   */\n      dup2\n        /* \"#utility.yul\":12599:12623   */\n      tag_240\n      jump\t// in\n    tag_426:\n        /* \"#utility.yul\":12592:12597   */\n      dup2\n        /* \"#utility.yul\":12589:12624   */\n      eq\n        /* \"#utility.yul\":12579:12642   */\n      tag_427\n      jumpi\n        /* \"#utility.yul\":12638:12639   */\n      0x00\n        /* \"#utility.yul\":12635:12636   */\n      dup1\n        /* \"#utility.yul\":12628:12640   */\n      revert\n        /* \"#utility.yul\":12579:12642   */\n    tag_427:\n        /* \"#utility.yul\":12526:12648   */\n      pop\n      jump\t// out\n        /* \"#utility.yul\":12654:12793   */\n    tag_259:\n        /* \"#utility.yul\":12700:12705   */\n      0x00\n        /* \"#utility.yul\":12738:12744   */\n      dup2\n        /* \"#utility.yul\":12725:12745   */\n      calldataload\n        /* \"#utility.yul\":12716:12745   */\n      swap1\n      pop\n        /* \"#utility.yul\":12754:12787   */\n      tag_429\n        /* \"#utility.yul\":12781:12786   */\n      dup2\n        /* \"#utility.yul\":12754:12787   */\n      tag_258\n      jump\t// in\n    tag_429:\n        /* \"#utility.yul\":12654:12793   */\n      swap3\n      swap2\n      pop\n      pop\n      jump\t// out\n        /* \"#utility.yul\":12799:13128   */\n    tag_51:\n        /* \"#utility.yul\":12858:12864   */\n      0x00\n        /* \"#utility.yul\":12907:12909   */\n      0x20\n        /* \"#utility.yul\":12895:12904   */\n      dup3\n        /* \"#utility.yul\":12886:12893   */\n      dup5\n        /* \"#utility.yul\":12882:12905   */\n      sub\n        /* \"#utility.yul\":12878:12910   */\n      slt\n        /* \"#utility.yul\":12875:12994   */\n      iszero\n      tag_431\n      jumpi\n        /* \"#utility.yul\":12913:12992   */\n      tag_432\n      tag_224\n      jump\t// in\n    tag_432:\n        /* \"#utility.yul\":12875:12994   */\n    tag_431:\n        /* \"#utility.yul\":13033:13034   */\n      0x00\n        /* \"#utility.yul\":13058:13111   */\n      tag_433\n        /* \"#utility.yul\":13103:13110   */\n      dup5\n        /* \"#utility.yul\":13094:13100   */\n      dup3\n        /* \"#utility.yul\":13083:13092   */\n      dup6\n        /* \"#utility.yul\":13079:13101   */\n      add\n        /* \"#utility.yul\":13058:13111   */\n      tag_259\n      jump\t// in\n    tag_433:\n        /* \"#utility.yul\":13048:13111   */\n      swap2\n      pop\n        /* \"#utility.yul\":13004:13121   */\n      pop\n        /* \"#utility.yul\":12799:13128   */\n      swap3\n      swap2\n      pop\n      pop\n      jump\t// out\n        /* \"#utility.yul\":13134:13314   */\n    tag_65:\n        /* \"#utility.yul\":13182:13259   */\n      0x4e487b7100000000000000000000000000000000000000000000000000000000\n        /* \"#utility.yul\":13179:13180   */\n      0x00\n        /* \"#utility.yul\":13172:13260   */\n      mstore\n        /* \"#utility.yul\":13279:13283   */\n      0x32\n        /* \"#utility.yul\":13276:13277   */\n      0x04\n        /* \"#utility.yul\":13269:13284   */\n      mstore\n        /* \"#utility.yul\":13303:13307   */\n      0x24\n        /* \"#utility.yul\":13300:13301   */\n      0x00\n        /* \"#utility.yul\":13293:13308   */\n      revert\n        /* \"#utility.yul\":13320:13468   */\n    tag_260:\n        /* \"#utility.yul\":13422:13433   */\n      0x00\n        /* \"#utility.yul\":13459:13462   */\n      dup2\n        /* \"#utility.yul\":13444:13462   */\n      swap1\n      pop\n        /* \"#utility.yul\":13320:13468   */\n      swap3\n      swap2\n      pop\n      pop\n      jump\t// out\n        /* \"#utility.yul\":13474:13864   */\n    tag_261:\n        /* \"#utility.yul\":13580:13583   */\n      0x00\n        /* \"#utility.yul\":13608:13647   */\n      tag_437\n        /* \"#utility.yul\":13641:13646   */\n      dup3\n        /* \"#utility.yul\":13608:13647   */\n      tag_244\n      jump\t// in\n    tag_437:\n        /* \"#utility.yul\":13663:13752   */\n      tag_438\n        /* \"#utility.yul\":13745:13751   */\n      dup2\n        /* \"#utility.yul\":13740:13743   */\n      dup6\n        /* \"#utility.yul\":13663:13752   */\n      tag_260\n      jump\t// in\n    tag_438:\n        /* \"#utility.yul\":13656:13752   */\n      swap4\n      pop\n        /* \"#utility.yul\":13761:13826   */\n      tag_439\n        /* \"#utility.yul\":13819:13825   */\n      dup2\n        /* \"#utility.yul\":13814:13817   */\n      dup6\n        /* \"#utility.yul\":13807:13811   */\n      0x20\n        /* \"#utility.yul\":13800:13805   */\n      dup7\n        /* \"#utility.yul\":13796:13812   */\n      add\n        /* \"#utility.yul\":13761:13826   */\n      tag_246\n      jump\t// in\n    tag_439:\n        /* \"#utility.yul\":13851:13857   */\n      dup1\n        /* \"#utility.yul\":13846:13849   */\n      dup5\n        /* \"#utility.yul\":13842:13858   */\n      add\n        /* \"#utility.yul\":13835:13858   */\n      swap2\n      pop\n        /* \"#utility.yul\":13584:13864   */\n      pop\n        /* \"#utility.yul\":13474:13864   */\n      swap3\n      swap2\n      pop\n      pop\n      jump\t// out\n        /* \"#utility.yul\":13870:14145   */\n    tag_67:\n        /* \"#utility.yul\":14002:14005   */\n      0x00\n        /* \"#utility.yul\":14024:14119   */\n      tag_441\n        /* \"#utility.yul\":14115:14118   */\n      dup3\n        /* \"#utility.yul\":14106:14112   */\n      dup5\n        /* \"#utility.yul\":14024:14119   */\n      tag_261\n      jump\t// in\n    tag_441:\n        /* \"#utility.yul\":14017:14119   */\n      swap2\n      pop\n        /* \"#utility.yul\":14136:14139   */\n      dup2\n        /* \"#utility.yul\":14129:14139   */\n      swap1\n      pop\n        /* \"#utility.yul\":13870:14145   */\n      swap3\n      swap2\n      pop\n      pop\n      jump\t// out\n        /* \"#utility.yul\":14151:14331   */\n    tag_262:\n        /* \"#utility.yul\":14199:14276   */\n      0x4e487b7100000000000000000000000000000000000000000000000000000000\n        /* \"#utility.yul\":14196:14197   */\n      0x00\n        /* \"#utility.yul\":14189:14277   */\n      mstore\n        /* \"#utility.yul\":14296:14300   */\n      0x22\n        /* \"#utility.yul\":14293:14294   */\n      0x04\n        /* \"#utility.yul\":14286:14301   */\n      mstore\n        /* \"#utility.yul\":14320:14324   */\n      0x24\n        /* \"#utility.yul\":14317:14318   */\n      0x00\n        /* \"#utility.yul\":14310:14325   */\n      revert\n        /* \"#utility.yul\":14337:14657   */\n    tag_102:\n        /* \"#utility.yul\":14381:14387   */\n      0x00\n        /* \"#utility.yul\":14418:14419   */\n      0x02\n        /* \"#utility.yul\":14412:14416   */\n      dup3\n        /* \"#utility.yul\":14408:14420   */\n      div\n        /* \"#utility.yul\":14398:14420   */\n      swap1\n      pop\n        /* \"#utility.yul\":14465:14466   */\n      0x01\n        /* \"#utility.yul\":14459:14463   */\n      dup3\n        /* \"#utility.yul\":14455:14467   */\n      and\n        /* \"#utility.yul\":14486:14504   */\n      dup1\n        /* \"#utility.yul\":14476:14557   */\n      tag_444\n      jumpi\n        /* \"#utility.yul\":14542:14546   */\n      0x7f\n        /* \"#utility.yul\":14534:14540   */\n      dup3\n        /* \"#utility.yul\":14530:14547   */\n      and\n        /* \"#utility.yul\":14520:14547   */\n      swap2\n      pop\n        /* \"#utility.yul\":14476:14557   */\n    tag_444:\n        /* \"#utility.yul\":14604:14606   */\n      0x20\n        /* \"#utility.yul\":14596:14602   */\n      dup3\n        /* \"#utility.yul\":14593:14607   */\n      lt\n        /* \"#utility.yul\":14573:14591   */\n      dup2\n        /* \"#utility.yul\":14570:14608   */\n      sub\n        /* \"#utility.yul\":14567:14651   */\n      tag_445\n      jumpi\n        /* \"#utility.yul\":14623:14641   */\n      tag_446\n      tag_262\n      jump\t// in\n    tag_446:\n        /* \"#utility.yul\":14567:14651   */\n    tag_445:\n        /* \"#utility.yul\":14388:14657   */\n      pop\n        /* \"#utility.yul\":14337:14657   */\n      swap2\n      swap1\n      pop\n      jump\t// out\n        /* \"#utility.yul\":14663:14804   */\n    tag_263:\n        /* \"#utility.yul\":14712:14716   */\n      0x00\n        /* \"#utility.yul\":14735:14738   */\n      dup2\n        /* \"#utility.yul\":14727:14738   */\n      swap1\n      pop\n        /* \"#utility.yul\":14758:14761   */\n      dup2\n        /* \"#utility.yul\":14755:14756   */\n      0x00\n        /* \"#utility.yul\":14748:14762   */\n      mstore\n        /* \"#utility.yul\":14792:14796   */\n      0x20\n        /* \"#utility.yul\":14789:14790   */\n      0x00\n        /* \"#utility.yul\":14779:14797   */\n      keccak256\n        /* \"#utility.yul\":14771:14797   */\n      swap1\n      pop\n        /* \"#utility.yul\":14663:14804   */\n      swap2\n      swap1\n      pop\n      jump\t// out\n        /* \"#utility.yul\":14810:14903   */\n    tag_264:\n        /* \"#utility.yul\":14847:14853   */\n      0x00\n        /* \"#utility.yul\":14894:14896   */\n      0x20\n        /* \"#utility.yul\":14889:14891   */\n      0x1f\n        /* \"#utility.yul\":14882:14887   */\n      dup4\n        /* \"#utility.yul\":14878:14892   */\n      add\n        /* \"#utility.yul\":14874:14897   */\n      div\n        /* \"#utility.yul\":14864:14897   */\n      swap1\n      pop\n        /* \"#utility.yul\":14810:14903   */\n      swap2\n      swap1\n      pop\n      jump\t// out\n        /* \"#utility.yul\":14909:15016   */\n    tag_265:\n        /* \"#utility.yul\":14953:14961   */\n      0x00\n        /* \"#utility.yul\":15003:15008   */\n      dup3\n        /* \"#utility.yul\":14997:15001   */\n      dup3\n        /* \"#utility.yul\":14993:15009   */\n      shl\n        /* \"#utility.yul\":14972:15009   */\n      swap1\n      pop\n        /* \"#utility.yul\":14909:15016   */\n      swap3\n      swap2\n      pop\n      pop\n      jump\t// out\n        /* \"#utility.yul\":15022:15415   */\n    tag_266:\n        /* \"#utility.yul\":15091:15097   */\n      0x00\n        /* \"#utility.yul\":15141:15142   */\n      0x08\n        /* \"#utility.yul\":15129:15139   */\n      dup4\n        /* \"#utility.yul\":15125:15143   */\n      mul\n        /* \"#utility.yul\":15164:15261   */\n      tag_451\n        /* \"#utility.yul\":15194:15260   */\n      0xffffffffffffffffffffffffffffffffffffffffffffffffffffffffffffffff\n        /* \"#utility.yul\":15183:15192   */\n      dup3\n        /* \"#utility.yul\":15164:15261   */\n      tag_265\n      jump\t// in\n    tag_451:\n        /* \"#utility.yul\":15282:15321   */\n      tag_452\n        /* \"#utility.yul\":15312:15320   */\n      dup7\n        /* \"#utility.yul\":15301:15310   */\n      dup4\n        /* \"#utility.yul\":15282:15321   */\n      tag_265\n      jump\t// in\n    tag_452:\n        /* \"#utility.yul\":15270:15321   */\n      swap6\n      pop\n        /* \"#utility.yul\":15354:15358   */\n      dup1\n        /* \"#utility.yul\":15350:15359   */\n      not\n        /* \"#utility.yul\":15343:15348   */\n      dup5\n        /* \"#utility.yul\":15339:15360   */\n      and\n        /* \"#utility.yul\":15330:15360   */\n      swap4\n      pop\n        /* \"#utility.yul\":15403:15407   */\n      dup1\n        /* \"#utility.yul\":15393:15401   */\n      dup7\n        /* \"#utility.yul\":15389:15408   */\n      and\n        /* \"#utility.yul\":15382:15387   */\n      dup5\n        /* \"#utility.yul\":15379:15409   */\n      or\n        /* \"#utility.yul\":15369:15409   */\n      swap3\n      pop\n        /* \"#utility.yul\":15098:15415   */\n      pop\n      pop\n        /* \"#utility.yul\":15022:15415   */\n      swap4\n      swap3\n      pop\n      pop\n      pop\n      jump\t// out\n        /* \"#utility.yul\":15421:15481   */\n    tag_267:\n        /* \"#utility.yul\":15449:15452   */\n      0x00\n        /* \"#utility.yul\":15470:15475   */\n      dup2\n        /* \"#utility.yul\":15463:15475   */\n      swap1\n      pop\n        /* \"#utility.yul\":15421:15481   */\n      swap2\n      swap1\n      pop\n      jump\t// out\n        /* \"#utility.yul\":15487:15629   */\n    tag_268:\n        /* \"#utility.yul\":15537:15546   */\n      0x00\n        /* \"#utility.yul\":15570:15623   */\n      tag_455\n        /* \"#utility.yul\":15588:15622   */\n      tag_456\n        /* \"#utility.yul\":15597:15621   */\n      tag_457\n        /* \"#utility.yul\":15615:15620   */\n      dup5\n        /* \"#utility.yul\":15597:15621   */\n      tag_242\n      jump\t// in\n    tag_457:\n        /* \"#utility.yul\":15588:15622   */\n      tag_267\n      jump\t// in\n    tag_456:\n        /* \"#utility.yul\":15570:15623   */\n      tag_242\n      jump\t// in\n    tag_455:\n        /* \"#utility.yul\":15557:15623   */\n      swap1\n      pop\n        /* \"#utility.yul\":15487:15629   */\n      swap2\n      swap1\n      pop\n      jump\t// out\n        /* \"#utility.yul\":15635:15710   */\n    tag_269:\n        /* \"#utility.yul\":15678:15681   */\n      0x00\n        /* \"#utility.yul\":15699:15704   */\n      dup2\n        /* \"#utility.yul\":15692:15704   */\n      swap1\n      pop\n        /* \"#utility.yul\":15635:15710   */\n      swap2\n      swap1\n      pop\n      jump\t// out\n        /* \"#utility.yul\":15716:15985   */\n    tag_270:\n        /* \"#utility.yul\":15826:15865   */\n      tag_460\n        /* \"#utility.yul\":15857:15864   */\n      dup4\n        /* \"#utility.yul\":15826:15865   */\n      tag_268\n      jump\t// in\n    tag_460:\n        /* \"#utility.yul\":15887:15978   */\n      tag_461\n        /* \"#utility.yul\":15936:15977   */\n      tag_462\n        /* \"#utility.yul\":15960:15976   */\n      dup3\n        /* \"#utility.yul\":15936:15977   */\n      tag_269\n      jump\t// in\n    tag_462:\n        /* \"#utility.yul\":15928:15934   */\n      dup5\n        /* \"#utility.yul\":15921:15925   */\n      dup5\n        /* \"#utility.yul\":15915:15926   */\n      sload\n        /* \"#utility.yul\":15887:15978   */\n      tag_266\n      jump\t// in\n    tag_461:\n        /* \"#utility.yul\":15881:15885   */\n      dup3\n        /* \"#utility.yul\":15874:15979   */\n      sstore\n        /* \"#utility.yul\":15792:15985   */\n      pop\n        /* \"#utility.yul\":15716:15985   */\n      pop\n      pop\n      pop\n      jump\t// out\n        /* \"#utility.yul\":15991:16064   */\n    tag_271:\n        /* \"#utility.yul\":16036:16039   */\n      0x00\n        /* \"#utility.yul\":15991:16064   */\n      swap1\n      jump\t// out\n        /* \"#utility.yul\":16070:16259   */\n    tag_272:\n        /* \"#utility.yul\":16147:16179   */\n      tag_465\n      tag_271\n      jump\t// in\n    tag_465:\n        /* \"#utility.yul\":16188:16253   */\n      tag_466\n        /* \"#utility.yul\":16246:16252   */\n      dup2\n        /* \"#utility.yul\":16238:16244   */\n      dup5\n        /* \"#utility.yul\":16232:16236   */\n      dup5\n        /* \"#utility.yul\":16188:16253   */\n      tag_270\n      jump\t// in\n    tag_466:\n        /* \"#utility.yul\":16123:16259   */\n      pop\n        /* \"#utility.yul\":16070:16259   */\n      pop\n      pop\n      jump\t// out\n        /* \"#utility.yul\":16265:16451   */\n    tag_273:\n        /* \"#utility.yul\":16325:16445   */\n    tag_468:\n        /* \"#utility.yul\":16342:16345   */\n      dup2\n        /* \"#utility.yul\":16335:16340   */\n      dup2\n        /* \"#utility.yul\":16332:16346   */\n      lt\n        /* \"#utility.yul\":16325:16445   */\n      iszero\n      tag_470\n      jumpi\n        /* \"#utility.yul\":16396:16435   */\n      tag_471\n        /* \"#utility.yul\":16433:16434   */\n      0x00\n        /* \"#utility.yul\":16426:16431   */\n      dup3\n        /* \"#utility.yul\":16396:16435   */\n      tag_272\n      jump\t// in\n    tag_471:\n        /* \"#utility.yul\":16369:16370   */\n      0x01\n        /* \"#utility.yul\":16362:16367   */\n      dup2\n        /* \"#utility.yul\":16358:16371   */\n      add\n        /* \"#utility.yul\":16349:16371   */\n      swap1\n      pop\n        /* \"#utility.yul\":16325:16445   */\n      jump(tag_468)\n    tag_470:\n        /* \"#utility.yul\":16265:16451   */\n      pop\n      pop\n      jump\t// out\n        /* \"#utility.yul\":16457:17000   */\n    tag_274:\n        /* \"#utility.yul\":16558:16560   */\n      0x1f\n        /* \"#utility.yul\":16553:16556   */\n      dup3\n        /* \"#utility.yul\":16550:16561   */\n      gt\n        /* \"#utility.yul\":16547:16993   */\n      iszero\n      tag_473\n      jumpi\n        /* \"#utility.yul\":16592:16630   */\n      tag_474\n        /* \"#utility.yul\":16624:16629   */\n      dup2\n        /* \"#utility.yul\":16592:16630   */\n      tag_263\n      jump\t// in\n    tag_474:\n        /* \"#utility.yul\":16676:16705   */\n      tag_475\n        /* \"#utility.yul\":16694:16704   */\n      dup5\n        /* \"#utility.yul\":16676:16705   */\n      tag_264\n      jump\t// in\n    tag_475:\n        /* \"#utility.yul\":16666:16674   */\n      dup2\n        /* \"#utility.yul\":16662:16706   */\n      add\n        /* \"#utility.yul\":16859:16861   */\n      0x20\n        /* \"#utility.yul\":16847:16857   */\n      dup6\n        /* \"#utility.yul\":16844:16862   */\n      lt\n        /* \"#utility.yul\":16841:16890   */\n      iszero\n      tag_476\n      jumpi\n        /* \"#utility.yul\":16880:16888   */\n      dup2\n        /* \"#utility.yul\":16865:16888   */\n      swap1\n      pop\n        /* \"#utility.yul\":16841:16890   */\n    tag_476:\n        /* \"#utility.yul\":16903:16983   */\n      tag_477\n        /* \"#utility.yul\":16959:16981   */\n      tag_478\n        /* \"#utility.yul\":16977:16980   */\n      dup6\n        /* \"#utility.yul\":16959:16981   */\n      tag_264\n      jump\t// in\n    tag_478:\n        /* \"#utility.yul\":16949:16957   */\n      dup4\n        /* \"#utility.yul\":16945:16982   */\n      add\n        /* \"#utility.yul\":16932:16943   */\n      dup3\n        /* \"#utility.yul\":16903:16983   */\n      tag_273\n      jump\t// in\n    tag_477:\n        /* \"#utility.yul\":16562:16993   */\n      pop\n      pop\n        /* \"#utility.yul\":16547:16993   */\n    tag_473:\n        /* \"#utility.yul\":16457:17000   */\n      pop\n      pop\n      pop\n      jump\t// out\n        /* \"#utility.yul\":17006:17123   */\n    tag_275:\n        /* \"#utility.yul\":17060:17068   */\n      0x00\n        /* \"#utility.yul\":17110:17115   */\n      dup3\n        /* \"#utility.yul\":17104:17108   */\n      dup3\n        /* \"#utility.yul\":17100:17116   */\n      shr\n        /* \"#utility.yul\":17079:17116   */\n      swap1\n      pop\n        /* \"#utility.yul\":17006:17123   */\n      swap3\n      swap2\n      pop\n      pop\n      jump\t// out\n        /* \"#utility.yul\":17129:17298   */\n    tag_276:\n        /* \"#utility.yul\":17173:17179   */\n      0x00\n        /* \"#utility.yul\":17206:17257   */\n      tag_481\n        /* \"#utility.yul\":17254:17255   */\n      0x00\n        /* \"#utility.yul\":17250:17256   */\n      not\n        /* \"#utility.yul\":17242:17247   */\n      dup5\n        /* \"#utility.yul\":17239:17240   */\n      0x08\n        /* \"#utility.yul\":17235:17248   */\n      mul\n        /* \"#utility.yul\":17206:17257   */\n      tag_275\n      jump\t// in\n    tag_481:\n        /* \"#utility.yul\":17202:17258   */\n      not\n        /* \"#utility.yul\":17287:17291   */\n      dup1\n        /* \"#utility.yul\":17281:17285   */\n      dup4\n        /* \"#utility.yul\":17277:17292   */\n      and\n        /* \"#utility.yul\":17267:17292   */\n      swap2\n      pop\n        /* \"#utility.yul\":17180:17298   */\n      pop\n        /* \"#utility.yul\":17129:17298   */\n      swap3\n      swap2\n      pop\n      pop\n      jump\t// out\n        /* \"#utility.yul\":17303:17598   */\n    tag_277:\n        /* \"#utility.yul\":17379:17383   */\n      0x00\n        /* \"#utility.yul\":17525:17554   */\n      tag_483\n        /* \"#utility.yul\":17550:17553   */\n      dup4\n        /* \"#utility.yul\":17544:17548   */\n      dup4\n        /* \"#utility.yul\":17525:17554   */\n      tag_276\n      jump\t// in\n    tag_483:\n        /* \"#utility.yul\":17517:17554   */\n      swap2\n      pop\n        /* \"#utility.yul\":17587:17590   */\n      dup3\n        /* \"#utility.yul\":17584:17585   */\n      0x02\n        /* \"#utility.yul\":17580:17591   */\n      mul\n        /* \"#utility.yul\":17574:17578   */\n      dup3\n        /* \"#utility.yul\":17571:17592   */\n      or\n        /* \"#utility.yul\":17563:17592   */\n      swap1\n      pop\n        /* \"#utility.yul\":17303:17598   */\n      swap3\n      swap2\n      pop\n      pop\n      jump\t// out\n        /* \"#utility.yul\":17603:18998   */\n    tag_77:\n        /* \"#utility.yul\":17720:17757   */\n      tag_485\n        /* \"#utility.yul\":17753:17756   */\n      dup3\n        /* \"#utility.yul\":17720:17757   */\n      tag_244\n      jump\t// in\n    tag_485:\n        /* \"#utility.yul\":17822:17840   */\n      0xffffffffffffffff\n        /* \"#utility.yul\":17814:17820   */\n      dup2\n        /* \"#utility.yul\":17811:17841   */\n      gt\n        /* \"#utility.yul\":17808:17864   */\n      iszero\n      tag_486\n      jumpi\n        /* \"#utility.yul\":17844:17862   */\n      tag_487\n      tag_151\n      jump\t// in\n    tag_487:\n        /* \"#utility.yul\":17808:17864   */\n    tag_486:\n        /* \"#utility.yul\":17888:17926   */\n      tag_488\n        /* \"#utility.yul\":17920:17924   */\n      dup3\n        /* \"#utility.yul\":17914:17925   */\n      sload\n        /* \"#utility.yul\":17888:17926   */\n      tag_102\n      jump\t// in\n    tag_488:\n        /* \"#utility.yul\":17973:18040   */\n      tag_489\n        /* \"#utility.yul\":18033:18039   */\n      dup3\n        /* \"#utility.yul\":18025:18031   */\n      dup3\n        /* \"#utility.yul\":18019:18023   */\n      dup6\n        /* \"#utility.yul\":17973:18040   */\n      tag_274\n      jump\t// in\n    tag_489:\n        /* \"#utility.yul\":18067:18068   */\n      0x00\n        /* \"#utility.yul\":18091:18095   */\n      0x20\n        /* \"#utility.yul\":18078:18095   */\n      swap1\n      pop\n        /* \"#utility.yul\":18123:18125   */\n      0x1f\n        /* \"#utility.yul\":18115:18121   */\n      dup4\n        /* \"#utility.yul\":18112:18126   */\n      gt\n        /* \"#utility.yul\":18140:18141   */\n      0x01\n        /* \"#utility.yul\":18135:18753   */\n      dup2\n      eq\n      tag_491\n      jumpi\n        /* \"#utility.yul\":18797:18798   */\n      0x00\n        /* \"#utility.yul\":18814:18820   */\n      dup5\n        /* \"#utility.yul\":18811:18888   */\n      iszero\n      tag_492\n      jumpi\n        /* \"#utility.yul\":18863:18872   */\n      dup3\n        /* \"#utility.yul\":18858:18861   */\n      dup8\n        /* \"#utility.yul\":18854:18873   */\n      add\n        /* \"#utility.yul\":18848:18874   */\n      mload\n        /* \"#utility.yul\":18839:18874   */\n      swap1\n      pop\n        /* \"#utility.yul\":18811:18888   */\n    tag_492:\n        /* \"#utility.yul\":18914:18981   */\n      tag_493\n        /* \"#utility.yul\":18974:18980   */\n      dup6\n        /* \"#utility.yul\":18967:18972   */\n      dup3\n        /* \"#utility.yul\":18914:18981   */\n      tag_277\n      jump\t// in\n    tag_493:\n        /* \"#utility.yul\":18908:18912   */\n      dup7\n        /* \"#utility.yul\":18901:18982   */\n      sstore\n        /* \"#utility.yul\":18770:18992   */\n      pop\n        /* \"#utility.yul\":18105:18992   */\n      jump(tag_490)\n        /* \"#utility.yul\":18135:18753   */\n    tag_491:\n        /* \"#utility.yul\":18187:18191   */\n      0x1f\n        /* \"#utility.yul\":18183:18192   */\n      not\n        /* \"#utility.yul\":18175:18181   */\n      dup5\n        /* \"#utility.yul\":18171:18193   */\n      and\n        /* \"#utility.yul\":18221:18258   */\n      tag_494\n        /* \"#utility.yul\":18253:18257   */\n      dup7\n        /* \"#utility.yul\":18221:18258   */\n      tag_263\n      jump\t// in\n    tag_494:\n        /* \"#utility.yul\":18280:18281   */\n      0x00\n        /* \"#utility.yul\":18294:18502   */\n    tag_495:\n        /* \"#utility.yul\":18308:18315   */\n      dup3\n        /* \"#utility.yul\":18305:18306   */\n      dup2\n        /* \"#utility.yul\":18302:18316   */\n      lt\n        /* \"#utility.yul\":18294:18502   */\n      iszero\n      tag_497\n      jumpi\n        /* \"#utility.yul\":18387:18396   */\n      dup5\n        /* \"#utility.yul\":18382:18385   */\n      dup10\n        /* \"#utility.yul\":18378:18397   */\n      add\n        /* \"#utility.yul\":18372:18398   */\n      mload\n        /* \"#utility.yul\":18364:18370   */\n      dup3\n        /* \"#utility.yul\":18357:18399   */\n      sstore\n        /* \"#utility.yul\":18438:18439   */\n      0x01\n        /* \"#utility.yul\":18430:18436   */\n      dup3\n        /* \"#utility.yul\":18426:18440   */\n      add\n        /* \"#utility.yul\":18416:18440   */\n      swap2\n      pop\n        /* \"#utility.yul\":18485:18487   */\n      0x20\n        /* \"#utility.yul\":18474:18483   */\n      dup6\n        /* \"#utility.yul\":18470:18488   */\n      add\n        /* \"#utility.yul\":18457:18488   */\n      swap5\n      pop\n        /* \"#utility.yul\":18331:18335   */\n      0x20\n        /* \"#utility.yul\":18328:18329   */\n      dup2\n        /* \"#utility.yul\":18324:18336   */\n      add\n        /* \"#utility.yul\":18319:18336   */\n      swap1\n      pop\n        /* \"#utility.yul\":18294:18502   */\n      jump(tag_495)\n    tag_497:\n        /* \"#utility.yul\":18530:18536   */\n      dup7\n        /* \"#utility.yul\":18521:18528   */\n      dup4\n        /* \"#utility.yul\":18518:18537   */\n      lt\n        /* \"#utility.yul\":18515:18694   */\n      iszero\n      tag_498\n      jumpi\n        /* \"#utility.yul\":18588:18597   */\n      dup5\n        /* \"#utility.yul\":18583:18586   */\n      dup10\n        /* \"#utility.yul\":18579:18598   */\n      add\n        /* \"#utility.yul\":18573:18599   */\n      mload\n        /* \"#utility.yul\":18631:18679   */\n      tag_499\n        /* \"#utility.yul\":18673:18677   */\n      0x1f\n        /* \"#utility.yul\":18665:18671   */\n      dup10\n        /* \"#utility.yul\":18661:18678   */\n      and\n        /* \"#utility.yul\":18650:18659   */\n      dup3\n        /* \"#utility.yul\":18631:18679   */\n      tag_276\n      jump\t// in\n    tag_499:\n        /* \"#utility.yul\":18623:18629   */\n      dup4\n        /* \"#utility.yul\":18616:18680   */\n      sstore\n        /* \"#utility.yul\":18538:18694   */\n      pop\n        /* \"#utility.yul\":18515:18694   */\n    tag_498:\n        /* \"#utility.yul\":18740:18741   */\n      0x01\n        /* \"#utility.yul\":18736:18737   */\n      0x02\n        /* \"#utility.yul\":18728:18734   */\n      dup9\n        /* \"#utility.yul\":18724:18738   */\n      mul\n        /* \"#utility.yul\":18720:18742   */\n      add\n        /* \"#utility.yul\":18714:18718   */\n      dup9\n        /* \"#utility.yul\":18707:18743   */\n      sstore\n        /* \"#utility.yul\":18142:18753   */\n      pop\n      pop\n      pop\n        /* \"#utility.yul\":18105:18992   */\n    tag_490:\n      pop\n        /* \"#utility.yul\":17695:18998   */\n      pop\n      pop\n      pop\n        /* \"#utility.yul\":17603:18998   */\n      pop\n      pop\n      jump\t// out\n        /* \"#utility.yul\":19004:19166   */\n    tag_278:\n        /* \"#utility.yul\":19144:19158   */\n      0x55454e732072656d6f7665640000000000000000000000000000000000000000\n        /* \"#utility.yul\":19140:19141   */\n      0x00\n        /* \"#utility.yul\":19132:19138   */\n      dup3\n        /* \"#utility.yul\":19128:19142   */\n      add\n        /* \"#utility.yul\":19121:19159   */\n      mstore\n        /* \"#utility.yul\":19004:19166   */\n      pop\n      jump\t// out\n        /* \"#utility.yul\":19172:19538   */\n    tag_279:\n        /* \"#utility.yul\":19314:19317   */\n      0x00\n        /* \"#utility.yul\":19335:19402   */\n      tag_502\n        /* \"#utility.yul\":19399:19401   */\n      0x0c\n        /* \"#utility.yul\":19394:19397   */\n      dup4\n        /* \"#utility.yul\":19335:19402   */\n      tag_245\n      jump\t// in\n    tag_502:\n        /* \"#utility.yul\":19328:19402   */\n      swap2\n      pop\n        /* \"#utility.yul\":19411:19504   */\n      tag_503\n        /* \"#utility.yul\":19500:19503   */\n      dup3\n        /* \"#utility.yul\":19411:19504   */\n      tag_278\n      jump\t// in\n    tag_503:\n        /* \"#utility.yul\":19529:19531   */\n      0x20\n        /* \"#utility.yul\":19524:19527   */\n      dup3\n        /* \"#utility.yul\":19520:19532   */\n      add\n        /* \"#utility.yul\":19513:19532   */\n      swap1\n      pop\n        /* \"#utility.yul\":19172:19538   */\n      swap2\n      swap1\n      pop\n      jump\t// out\n        /* \"#utility.yul\":19544:20264   */\n    tag_82:\n        /* \"#utility.yul\":19808:19812   */\n      0x00\n        /* \"#utility.yul\":19846:19848   */\n      0x40\n        /* \"#utility.yul\":19835:19844   */\n      dup3\n        /* \"#utility.yul\":19831:19849   */\n      add\n        /* \"#utility.yul\":19823:19849   */\n      swap1\n      pop\n        /* \"#utility.yul\":19895:19904   */\n      dup2\n        /* \"#utility.yul\":19889:19893   */\n      dup2\n        /* \"#utility.yul\":19885:19905   */\n      sub\n        /* \"#utility.yul\":19881:19882   */\n      0x00\n        /* \"#utility.yul\":19870:19879   */\n      dup4\n        /* \"#utility.yul\":19866:19883   */\n      add\n        /* \"#utility.yul\":19859:19906   */\n      mstore\n        /* \"#utility.yul\":19923:20051   */\n      tag_505\n        /* \"#utility.yul\":20046:20050   */\n      dup2\n        /* \"#utility.yul\":20037:20043   */\n      dup5\n        /* \"#utility.yul\":19923:20051   */\n      tag_257\n      jump\t// in\n    tag_505:\n        /* \"#utility.yul\":19915:20051   */\n      swap1\n      pop\n        /* \"#utility.yul\":20098:20107   */\n      dup2\n        /* \"#utility.yul\":20092:20096   */\n      dup2\n        /* \"#utility.yul\":20088:20108   */\n      sub\n        /* \"#utility.yul\":20083:20085   */\n      0x20\n        /* \"#utility.yul\":20072:20081   */\n      dup4\n        /* \"#utility.yul\":20068:20086   */\n      add\n        /* \"#utility.yul\":20061:20109   */\n      mstore\n        /* \"#utility.yul\":20126:20257   */\n      tag_506\n        /* \"#utility.yul\":20252:20256   */\n      dup2\n        /* \"#utility.yul\":20126:20257   */\n      tag_279\n      jump\t// in\n    tag_506:\n        /* \"#utility.yul\":20118:20257   */\n      swap1\n      pop\n        /* \"#utility.yul\":19544:20264   */\n      swap3\n      swap2\n      pop\n      pop\n      jump\t// out\n        /* \"#utility.yul\":20270:20491   */\n    tag_280:\n        /* \"#utility.yul\":20410:20444   */\n      0x4d617070696e6773206d7573742068617665207468652073616d65206c656e67\n        /* \"#utility.yul\":20406:20407   */\n      0x00\n        /* \"#utility.yul\":20398:20404   */\n      dup3\n        /* \"#utility.yul\":20394:20408   */\n      add\n        /* \"#utility.yul\":20387:20445   */\n      mstore\n        /* \"#utility.yul\":20479:20483   */\n      0x7468000000000000000000000000000000000000000000000000000000000000\n        /* \"#utility.yul\":20474:20476   */\n      0x20\n        /* \"#utility.yul\":20466:20472   */\n      dup3\n        /* \"#utility.yul\":20462:20477   */\n      add\n        /* \"#utility.yul\":20455:20484   */\n      mstore\n        /* \"#utility.yul\":20270:20491   */\n      pop\n      jump\t// out\n        /* \"#utility.yul\":20497:20863   */\n    tag_281:\n        /* \"#utility.yul\":20639:20642   */\n      0x00\n        /* \"#utility.yul\":20660:20727   */\n      tag_509\n        /* \"#utility.yul\":20724:20726   */\n      0x22\n        /* \"#utility.yul\":20719:20722   */\n      dup4\n        /* \"#utility.yul\":20660:20727   */\n      tag_245\n      jump\t// in\n    tag_509:\n        /* \"#utility.yul\":20653:20727   */\n      swap2\n      pop\n        /* \"#utility.yul\":20736:20829   */\n      tag_510\n        /* \"#utility.yul\":20825:20828   */\n      dup3\n        /* \"#utility.yul\":20736:20829   */\n      tag_280\n      jump\t// in\n    tag_510:\n        /* \"#utility.yul\":20854:20856   */\n      0x40\n        /* \"#utility.yul\":20849:20852   */\n      dup3\n        /* \"#utility.yul\":20845:20857   */\n      add\n        /* \"#utility.yul\":20838:20857   */\n      swap1\n      pop\n        /* \"#utility.yul\":20497:20863   */\n      swap2\n      swap1\n      pop\n      jump\t// out\n        /* \"#utility.yul\":20869:21288   */\n    tag_94:\n        /* \"#utility.yul\":21035:21039   */\n      0x00\n        /* \"#utility.yul\":21073:21075   */\n      0x20\n        /* \"#utility.yul\":21062:21071   */\n      dup3\n        /* \"#utility.yul\":21058:21076   */\n      add\n        /* \"#utility.yul\":21050:21076   */\n      swap1\n      pop\n        /* \"#utility.yul\":21122:21131   */\n      dup2\n        /* \"#utility.yul\":21116:21120   */\n      dup2\n        /* \"#utility.yul\":21112:21132   */\n      sub\n        /* \"#utility.yul\":21108:21109   */\n      0x00\n        /* \"#utility.yul\":21097:21106   */\n      dup4\n        /* \"#utility.yul\":21093:21110   */\n      add\n        /* \"#utility.yul\":21086:21133   */\n      mstore\n        /* \"#utility.yul\":21150:21281   */\n      tag_512\n        /* \"#utility.yul\":21276:21280   */\n      dup2\n        /* \"#utility.yul\":21150:21281   */\n      tag_281\n      jump\t// in\n    tag_512:\n        /* \"#utility.yul\":21142:21281   */\n      swap1\n      pop\n        /* \"#utility.yul\":20869:21288   */\n      swap2\n      swap1\n      pop\n      jump\t// out\n        /* \"#utility.yul\":21294:21462   */\n    tag_282:\n        /* \"#utility.yul\":21434:21454   */\n      0x55454e20646f6573206e6f742065786973740000000000000000000000000000\n        /* \"#utility.yul\":21430:21431   */\n      0x00\n        /* \"#utility.yul\":21422:21428   */\n      dup3\n        /* \"#utility.yul\":21418:21432   */\n      add\n        /* \"#utility.yul\":21411:21455   */\n      mstore\n        /* \"#utility.yul\":21294:21462   */\n      pop\n      jump\t// out\n        /* \"#utility.yul\":21468:21834   */\n    tag_283:\n        /* \"#utility.yul\":21610:21613   */\n      0x00\n        /* \"#utility.yul\":21631:21698   */\n      tag_515\n        /* \"#utility.yul\":21695:21697   */\n      0x12\n        /* \"#utility.yul\":21690:21693   */\n      dup4\n        /* \"#utility.yul\":21631:21698   */\n      tag_245\n      jump\t// in\n    tag_515:\n        /* \"#utility.yul\":21624:21698   */\n      swap2\n      pop\n        /* \"#utility.yul\":21707:21800   */\n      tag_516\n        /* \"#utility.yul\":21796:21799   */\n      dup3\n        /* \"#utility.yul\":21707:21800   */\n      tag_282\n      jump\t// in\n    tag_516:\n        /* \"#utility.yul\":21825:21827   */\n      0x20\n        /* \"#utility.yul\":21820:21823   */\n      dup3\n        /* \"#utility.yul\":21816:21828   */\n      add\n        /* \"#utility.yul\":21809:21828   */\n      swap1\n      pop\n        /* \"#utility.yul\":21468:21834   */\n      swap2\n      swap1\n      pop\n      jump\t// out\n        /* \"#utility.yul\":21840:22259   */\n    tag_105:\n        /* \"#utility.yul\":22006:22010   */\n      0x00\n        /* \"#utility.yul\":22044:22046   */\n      0x20\n        /* \"#utility.yul\":22033:22042   */\n      dup3\n        /* \"#utility.yul\":22029:22047   */\n      add\n        /* \"#utility.yul\":22021:22047   */\n      swap1\n      pop\n        /* \"#utility.yul\":22093:22102   */\n      dup2\n        /* \"#utility.yul\":22087:22091   */\n      dup2\n        /* \"#utility.yul\":22083:22103   */\n      sub\n        /* \"#utility.yul\":22079:22080   */\n      0x00\n        /* \"#utility.yul\":22068:22077   */\n      dup4\n        /* \"#utility.yul\":22064:22081   */\n      add\n        /* \"#utility.yul\":22057:22104   */\n      mstore\n        /* \"#utility.yul\":22121:22252   */\n      tag_518\n        /* \"#utility.yul\":22247:22251   */\n      dup2\n        /* \"#utility.yul\":22121:22252   */\n      tag_283\n      jump\t// in\n    tag_518:\n        /* \"#utility.yul\":22113:22252   */\n      swap1\n      pop\n        /* \"#utility.yul\":21840:22259   */\n      swap2\n      swap1\n      pop\n      jump\t// out\n        /* \"#utility.yul\":22265:22503   */\n    tag_284:\n        /* \"#utility.yul\":22405:22439   */\n      0x537461727420696e646578206d757374206265206c657373207468616e206f72\n        /* \"#utility.yul\":22401:22402   */\n      0x00\n        /* \"#utility.yul\":22393:22399   */\n      dup3\n        /* \"#utility.yul\":22389:22403   */\n      add\n        /* \"#utility.yul\":22382:22440   */\n      mstore\n        /* \"#utility.yul\":22474:22495   */\n      0x20657175616c20746f20656e6420696e64657800000000000000000000000000\n        /* \"#utility.yul\":22469:22471   */\n      0x20\n        /* \"#utility.yul\":22461:22467   */\n      dup3\n        /* \"#utility.yul\":22457:22472   */\n      add\n        /* \"#utility.yul\":22450:22496   */\n      mstore\n        /* \"#utility.yul\":22265:22503   */\n      pop\n      jump\t// out\n        /* \"#utility.yul\":22509:22875   */\n    tag_285:\n        /* \"#utility.yul\":22651:22654   */\n      0x00\n        /* \"#utility.yul\":22672:22739   */\n      tag_521\n        /* \"#utility.yul\":22736:22738   */\n      0x33\n        /* \"#utility.yul\":22731:22734   */\n      dup4\n        /* \"#utility.yul\":22672:22739   */\n      tag_245\n      jump\t// in\n    tag_521:\n        /* \"#utility.yul\":22665:22739   */\n      swap2\n      pop\n        /* \"#utility.yul\":22748:22841   */\n      tag_522\n        /* \"#utility.yul\":22837:22840   */\n      dup3\n        /* \"#utility.yul\":22748:22841   */\n      tag_284\n      jump\t// in\n    tag_522:\n        /* \"#utility.yul\":22866:22868   */\n      0x40\n        /* \"#utility.yul\":22861:22864   */\n      dup3\n        /* \"#utility.yul\":22857:22869   */\n      add\n        /* \"#utility.yul\":22850:22869   */\n      swap1\n      pop\n        /* \"#utility.yul\":22509:22875   */\n      swap2\n      swap1\n      pop\n      jump\t// out\n        /* \"#utility.yul\":22881:23300   */\n    tag_130:\n        /* \"#utility.yul\":23047:23051   */\n      0x00\n        /* \"#utility.yul\":23085:23087   */\n      0x20\n        /* \"#utility.yul\":23074:23083   */\n      dup3\n        /* \"#utility.yul\":23070:23088   */\n      add\n        /* \"#utility.yul\":23062:23088   */\n      swap1\n      pop\n        /* \"#utility.yul\":23134:23143   */\n      dup2\n        /* \"#utility.yul\":23128:23132   */\n      dup2\n        /* \"#utility.yul\":23124:23144   */\n      sub\n        /* \"#utility.yul\":23120:23121   */\n      0x00\n        /* \"#utility.yul\":23109:23118   */\n      dup4\n        /* \"#utility.yul\":23105:23122   */\n      add\n        /* \"#utility.yul\":23098:23145   */\n      mstore\n        /* \"#utility.yul\":23162:23293   */\n      tag_524\n        /* \"#utility.yul\":23288:23292   */\n      dup2\n        /* \"#utility.yul\":23162:23293   */\n      tag_285\n      jump\t// in\n    tag_524:\n        /* \"#utility.yul\":23154:23293   */\n      swap1\n      pop\n        /* \"#utility.yul\":22881:23300   */\n      swap2\n      swap1\n      pop\n      jump\t// out\n        /* \"#utility.yul\":23306:23543   */\n    tag_286:\n        /* \"#utility.yul\":23446:23480   */\n      0x456e6420696e646578206d757374206265206c657373207468616e2074686520\n        /* \"#utility.yul\":23442:23443   */\n      0x00\n        /* \"#utility.yul\":23434:23440   */\n      dup3\n        /* \"#utility.yul\":23430:23444   */\n      add\n        /* \"#utility.yul\":23423:23481   */\n      mstore\n        /* \"#utility.yul\":23515:23535   */\n      0x6c656e677468206f6620746865206c6973740000000000000000000000000000\n        /* \"#utility.yul\":23510:23512   */\n      0x20\n        /* \"#utility.yul\":23502:23508   */\n      dup3\n        /* \"#utility.yul\":23498:23513   */\n      add\n        /* \"#utility.yul\":23491:23536   */\n      mstore\n        /* \"#utility.yul\":23306:23543   */\n      pop\n      jump\t// out\n        /* \"#utility.yul\":23549:23915   */\n    tag_287:\n        /* \"#utility.yul\":23691:23694   */\n      0x00\n        /* \"#utility.yul\":23712:23779   */\n      tag_527\n        /* \"#utility.yul\":23776:23778   */\n      0x32\n        /* \"#utility.yul\":23771:23774   */\n      dup4\n        /* \"#utility.yul\":23712:23779   */\n      tag_245\n      jump\t// in\n    tag_527:\n        /* \"#utility.yul\":23705:23779   */\n      swap2\n      pop\n        /* \"#utility.yul\":23788:23881   */\n      tag_528\n        /* \"#utility.yul\":23877:23880   */\n      dup3\n        /* \"#utility.yul\":23788:23881   */\n      tag_286\n      jump\t// in\n    tag_528:\n        /* \"#utility.yul\":23906:23908   */\n      0x40\n        /* \"#utility.yul\":23901:23904   */\n      dup3\n        /* \"#utility.yul\":23897:23909   */\n      add\n        /* \"#utility.yul\":23890:23909   */\n      swap1\n      pop\n        /* \"#utility.yul\":23549:23915   */\n      swap2\n      swap1\n      pop\n      jump\t// out\n        /* \"#utility.yul\":23921:24340   */\n    tag_133:\n        /* \"#utility.yul\":24087:24091   */\n      0x00\n        /* \"#utility.yul\":24125:24127   */\n      0x20\n        /* \"#utility.yul\":24114:24123   */\n      dup3\n        /* \"#utility.yul\":24110:24128   */\n      add\n        /* \"#utility.yul\":24102:24128   */\n      swap1\n      pop\n        /* \"#utility.yul\":24174:24183   */\n      dup2\n        /* \"#utility.yul\":24168:24172   */\n      dup2\n        /* \"#utility.yul\":24164:24184   */\n      sub\n        /* \"#utility.yul\":24160:24161   */\n      0x00\n        /* \"#utility.yul\":24149:24158   */\n      dup4\n        /* \"#utility.yul\":24145:24162   */\n      add\n        /* \"#utility.yul\":24138:24185   */\n      mstore\n        /* \"#utility.yul\":24202:24333   */\n      tag_530\n        /* \"#utility.yul\":24328:24332   */\n      dup2\n        /* \"#utility.yul\":24202:24333   */\n      tag_287\n      jump\t// in\n    tag_530:\n        /* \"#utility.yul\":24194:24333   */\n      swap1\n      pop\n        /* \"#utility.yul\":23921:24340   */\n      swap2\n      swap1\n      pop\n      jump\t// out\n        /* \"#utility.yul\":24346:24526   */\n    tag_288:\n        /* \"#utility.yul\":24394:24471   */\n      0x4e487b7100000000000000000000000000000000000000000000000000000000\n        /* \"#utility.yul\":24391:24392   */\n      0x00\n        /* \"#utility.yul\":24384:24472   */\n      mstore\n        /* \"#utility.yul\":24491:24495   */\n      0x11\n        /* \"#utility.yul\":24488:24489   */\n      0x04\n        /* \"#utility.yul\":24481:24496   */\n      mstore\n        /* \"#utility.yul\":24515:24519   */\n      0x24\n        /* \"#utility.yul\":24512:24513   */\n      0x00\n        /* \"#utility.yul\":24505:24520   */\n      revert\n        /* \"#utility.yul\":24532:24726   */\n    tag_146:\n        /* \"#utility.yul\":24572:24576   */\n      0x00\n        /* \"#utility.yul\":24592:24612   */\n      tag_533\n        /* \"#utility.yul\":24610:24611   */\n      dup3\n        /* \"#utility.yul\":24592:24612   */\n      tag_242\n      jump\t// in\n    tag_533:\n        /* \"#utility.yul\":24587:24612   */\n      swap2\n      pop\n        /* \"#utility.yul\":24626:24646   */\n      tag_534\n        /* \"#utility.yul\":24644:24645   */\n      dup4\n        /* \"#utility.yul\":24626:24646   */\n      tag_242\n      jump\t// in\n    tag_534:\n        /* \"#utility.yul\":24621:24646   */\n      swap3\n      pop\n        /* \"#utility.yul\":24670:24671   */\n      dup3\n        /* \"#utility.yul\":24667:24668   */\n      dup3\n        /* \"#utility.yul\":24663:24672   */\n      sub\n        /* \"#utility.yul\":24655:24672   */\n      swap1\n      pop\n        /* \"#utility.yul\":24694:24695   */\n      dup2\n        /* \"#utility.yul\":24688:24692   */\n      dup2\n        /* \"#utility.yul\":24685:24696   */\n      gt\n        /* \"#utility.yul\":24682:24719   */\n      iszero\n      tag_535\n      jumpi\n        /* \"#utility.yul\":24699:24717   */\n      tag_536\n      tag_288\n      jump\t// in\n    tag_536:\n        /* \"#utility.yul\":24682:24719   */\n    tag_535:\n        /* \"#utility.yul\":24532:24726   */\n      swap3\n      swap2\n      pop\n      pop\n      jump\t// out\n        /* \"#utility.yul\":24732:24923   */\n    tag_148:\n        /* \"#utility.yul\":24772:24775   */\n      0x00\n        /* \"#utility.yul\":24791:24811   */\n      tag_538\n        /* \"#utility.yul\":24809:24810   */\n      dup3\n        /* \"#utility.yul\":24791:24811   */\n      tag_242\n      jump\t// in\n    tag_538:\n        /* \"#utility.yul\":24786:24811   */\n      swap2\n      pop\n        /* \"#utility.yul\":24825:24845   */\n      tag_539\n        /* \"#utility.yul\":24843:24844   */\n      dup4\n        /* \"#utility.yul\":24825:24845   */\n      tag_242\n      jump\t// in\n    tag_539:\n        /* \"#utility.yul\":24820:24845   */\n      swap3\n      pop\n        /* \"#utility.yul\":24868:24869   */\n      dup3\n        /* \"#utility.yul\":24865:24866   */\n      dup3\n        /* \"#utility.yul\":24861:24870   */\n      add\n        /* \"#utility.yul\":24854:24870   */\n      swap1\n      pop\n        /* \"#utility.yul\":24889:24892   */\n      dup1\n        /* \"#utility.yul\":24886:24887   */\n      dup3\n        /* \"#utility.yul\":24883:24893   */\n      gt\n        /* \"#utility.yul\":24880:24916   */\n      iszero\n      tag_540\n      jumpi\n        /* \"#utility.yul\":24896:24914   */\n      tag_541\n      tag_288\n      jump\t// in\n    tag_541:\n        /* \"#utility.yul\":24880:24916   */\n    tag_540:\n        /* \"#utility.yul\":24732:24923   */\n      swap3\n      swap2\n      pop\n      pop\n      jump\t// out\n        /* \"#utility.yul\":24929:25162   */\n    tag_169:\n        /* \"#utility.yul\":24968:24971   */\n      0x00\n        /* \"#utility.yul\":24991:25015   */\n      tag_543\n        /* \"#utility.yul\":25009:25014   */\n      dup3\n        /* \"#utility.yul\":24991:25015   */\n      tag_242\n      jump\t// in\n    tag_543:\n        /* \"#utility.yul\":24982:25015   */\n      swap2\n      pop\n        /* \"#utility.yul\":25037:25103   */\n      0xffffffffffffffffffffffffffffffffffffffffffffffffffffffffffffffff\n        /* \"#utility.yul\":25030:25035   */\n      dup3\n        /* \"#utility.yul\":25027:25104   */\n      sub\n        /* \"#utility.yul\":25024:25127   */\n      tag_544\n      jumpi\n        /* \"#utility.yul\":25107:25125   */\n      tag_545\n      tag_288\n      jump\t// in\n    tag_545:\n        /* \"#utility.yul\":25024:25127   */\n    tag_544:\n        /* \"#utility.yul\":25154:25155   */\n      0x01\n        /* \"#utility.yul\":25147:25152   */\n      dup3\n        /* \"#utility.yul\":25143:25156   */\n      add\n        /* \"#utility.yul\":25136:25156   */\n      swap1\n      pop\n        /* \"#utility.yul\":24929:25162   */\n      swap2\n      swap1\n      pop\n      jump\t// out\n        /* \"#utility.yul\":25168:25336   */\n    tag_289:\n        /* \"#utility.yul\":25308:25328   */\n      0x55454e20616c7265616479206578697374730000000000000000000000000000\n        /* \"#utility.yul\":25304:25305   */\n      0x00\n        /* \"#utility.yul\":25296:25302   */\n      dup3\n        /* \"#utility.yul\":25292:25306   */\n      add\n        /* \"#utility.yul\":25285:25329   */\n      mstore\n        /* \"#utility.yul\":25168:25336   */\n      pop\n      jump\t// out\n        /* \"#utility.yul\":25342:25708   */\n    tag_290:\n        /* \"#utility.yul\":25484:25487   */\n      0x00\n        /* \"#utility.yul\":25505:25572   */\n      tag_548\n        /* \"#utility.yul\":25569:25571   */\n      0x12\n        /* \"#utility.yul\":25564:25567   */\n      dup4\n        /* \"#utility.yul\":25505:25572   */\n      tag_245\n      jump\t// in\n    tag_548:\n        /* \"#utility.yul\":25498:25572   */\n      swap2\n      pop\n        /* \"#utility.yul\":25581:25674   */\n      tag_549\n        /* \"#utility.yul\":25670:25673   */\n      dup3\n        /* \"#utility.yul\":25581:25674   */\n      tag_289\n      jump\t// in\n    tag_549:\n        /* \"#utility.yul\":25699:25701   */\n      0x20\n        /* \"#utility.yul\":25694:25697   */\n      dup3\n        /* \"#utility.yul\":25690:25702   */\n      add\n        /* \"#utility.yul\":25683:25702   */\n      swap1\n      pop\n        /* \"#utility.yul\":25342:25708   */\n      swap2\n      swap1\n      pop\n      jump\t// out\n        /* \"#utility.yul\":25714:26133   */\n    tag_190:\n        /* \"#utility.yul\":25880:25884   */\n      0x00\n        /* \"#utility.yul\":25918:25920   */\n      0x20\n        /* \"#utility.yul\":25907:25916   */\n      dup3\n        /* \"#utility.yul\":25903:25921   */\n      add\n        /* \"#utility.yul\":25895:25921   */\n      swap1\n      pop\n        /* \"#utility.yul\":25967:25976   */\n      dup2\n        /* \"#utility.yul\":25961:25965   */\n      dup2\n        /* \"#utility.yul\":25957:25977   */\n      sub\n        /* \"#utility.yul\":25953:25954   */\n      0x00\n        /* \"#utility.yul\":25942:25951   */\n      dup4\n        /* \"#utility.yul\":25938:25955   */\n      add\n        /* \"#utility.yul\":25931:25978   */\n      mstore\n        /* \"#utility.yul\":25995:26126   */\n      tag_551\n        /* \"#utility.yul\":26121:26125   */\n      dup2\n        /* \"#utility.yul\":25995:26126   */\n      tag_290\n      jump\t// in\n    tag_551:\n        /* \"#utility.yul\":25987:26126   */\n      swap1\n      pop\n        /* \"#utility.yul\":25714:26133   */\n      swap2\n      swap1\n      pop\n      jump\t// out\n        /* \"#utility.yul\":26139:26299   */\n    tag_291:\n        /* \"#utility.yul\":26279:26291   */\n      0x55454e7320616464656400000000000000000000000000000000000000000000\n        /* \"#utility.yul\":26275:26276   */\n      0x00\n        /* \"#utility.yul\":26267:26273   */\n      dup3\n        /* \"#utility.yul\":26263:26277   */\n      add\n        /* \"#utility.yul\":26256:26292   */\n      mstore\n        /* \"#utility.yul\":26139:26299   */\n      pop\n      jump\t// out\n        /* \"#utility.yul\":26305:26671   */\n    tag_292:\n        /* \"#utility.yul\":26447:26450   */\n      0x00\n        /* \"#utility.yul\":26468:26535   */\n      tag_554\n        /* \"#utility.yul\":26532:26534   */\n      0x0a\n        /* \"#utility.yul\":26527:26530   */\n      dup4\n        /* \"#utility.yul\":26468:26535   */\n      tag_245\n      jump\t// in\n    tag_554:\n        /* \"#utility.yul\":26461:26535   */\n      swap2\n      pop\n        /* \"#utility.yul\":26544:26637   */\n      tag_555\n        /* \"#utility.yul\":26633:26636   */\n      dup3\n        /* \"#utility.yul\":26544:26637   */\n      tag_291\n      jump\t// in\n    tag_555:\n        /* \"#utility.yul\":26662:26664   */\n      0x20\n        /* \"#utility.yul\":26657:26660   */\n      dup3\n        /* \"#utility.yul\":26653:26665   */\n      add\n        /* \"#utility.yul\":26646:26665   */\n      swap1\n      pop\n        /* \"#utility.yul\":26305:26671   */\n      swap2\n      swap1\n      pop\n      jump\t// out\n        /* \"#utility.yul\":26677:27397   */\n    tag_206:\n        /* \"#utility.yul\":26941:26945   */\n      0x00\n        /* \"#utility.yul\":26979:26981   */\n      0x40\n        /* \"#utility.yul\":26968:26977   */\n      dup3\n        /* \"#utility.yul\":26964:26982   */\n      add\n        /* \"#utility.yul\":26956:26982   */\n      swap1\n      pop\n        /* \"#utility.yul\":27028:27037   */\n      dup2\n        /* \"#utility.yul\":27022:27026   */\n      dup2\n        /* \"#utility.yul\":27018:27038   */\n      sub\n        /* \"#utility.yul\":27014:27015   */\n      0x00\n        /* \"#utility.yul\":27003:27012   */\n      dup4\n        /* \"#utility.yul\":26999:27016   */\n      add\n        /* \"#utility.yul\":26992:27039   */\n      mstore\n        /* \"#utility.yul\":27056:27184   */\n      tag_557\n        /* \"#utility.yul\":27179:27183   */\n      dup2\n        /* \"#utility.yul\":27170:27176   */\n      dup5\n        /* \"#utility.yul\":27056:27184   */\n      tag_257\n      jump\t// in\n    tag_557:\n        /* \"#utility.yul\":27048:27184   */\n      swap1\n      pop\n        /* \"#utility.yul\":27231:27240   */\n      dup2\n        /* \"#utility.yul\":27225:27229   */\n      dup2\n        /* \"#utility.yul\":27221:27241   */\n      sub\n        /* \"#utility.yul\":27216:27218   */\n      0x20\n        /* \"#utility.yul\":27205:27214   */\n      dup4\n        /* \"#utility.yul\":27201:27219   */\n      add\n        /* \"#utility.yul\":27194:27242   */\n      mstore\n        /* \"#utility.yul\":27259:27390   */\n      tag_558\n        /* \"#utility.yul\":27385:27389   */\n      dup2\n        /* \"#utility.yul\":27259:27390   */\n      tag_292\n      jump\t// in\n    tag_558:\n        /* \"#utility.yul\":27251:27390   */\n      swap1\n      pop\n        /* \"#utility.yul\":26677:27397   */\n      swap3\n      swap2\n      pop\n      pop\n      jump\t// out\n\n    auxdata: 0xa26469706673582212202415bbdc70520c00656e521648819344324ce02f2c661526638444ac32aed3ab64736f6c63430008160033\n}\n",
				"bytecode": {
					"linkReferences": {},
					"object": "608060405234801562000010575f80fd5b5060405162001db238038062001db28339818101604052810190620000369190620001e9565b805f73ffffffffffffffffffffffffffffffffffffffff168173ffffffffffffffffffffffffffffffffffffffff1603620000aa575f6040517f1e4fbdf7000000000000000000000000000000000000000000000000000000008152600401620000a191906200022a565b60405180910390fd5b620000bb81620000c360201b60201c565b505062000245565b5f805f9054906101000a900473ffffffffffffffffffffffffffffffffffffffff169050815f806101000a81548173ffffffffffffffffffffffffffffffffffffffff021916908373ffffffffffffffffffffffffffffffffffffffff1602179055508173ffffffffffffffffffffffffffffffffffffffff168173ffffffffffffffffffffffffffffffffffffffff167f8be0079c531659141344cd1fd0a4f28419497f9722a3daafe3b4186f6b6457e060405160405180910390a35050565b5f80fd5b5f73ffffffffffffffffffffffffffffffffffffffff82169050919050565b5f620001b38262000188565b9050919050565b620001c581620001a7565b8114620001d0575f80fd5b50565b5f81519050620001e381620001ba565b92915050565b5f6020828403121562000201576200020062000184565b5b5f6200021084828501620001d3565b91505092915050565b6200022481620001a7565b82525050565b5f6020820190506200023f5f83018462000219565b92915050565b611b5f80620002535f395ff3fe608060405234801561000f575f80fd5b506004361061009c575f3560e01c8063a8f5d7a611610064578063a8f5d7a61461011e578063b30282fa1461014e578063e2b378c21461017e578063f2fde38b146101ae578063f9b378c2146101ca5761009c565b806335b13db2146100a0578063715018a6146100bc5780638da5cb5b146100c65780639926aa34146100e45780639f724ece14610100575b5f80fd5b6100ba60048036038101906100b59190610f63565b6101e6565b005b6100c461032f565b005b6100ce610342565b6040516100db9190610fe9565b60405180910390f35b6100fe60048036038101906100f99190611002565b610369565b005b6101086104b8565b6040516101159190611090565b60405180910390f35b610138600480360381019061013391906110a9565b6104c4565b604051610145919061116a565b60405180910390f35b610168600480360381019061016391906111b4565b610572565b604051610175919061116a565b60405180910390f35b610198600480360381019061019391906111df565b610618565b6040516101a59190611320565b60405180910390f35b6101c860048036038101906101c3919061136a565b6108ea565b005b6101e460048036038101906101df9190611002565b61096e565b005b6101ee610b8d565b5f5b81518110156102f457600282828151811061020e5761020d611395565b5b602002602001015160405161022391906113fc565b90815260200160405180910390205f61023c9190610cdc565b60405180602001604052805f8152506001600384848151811061026257610261611395565b5b602002602001015160405161027791906113fc565b9081526020016040518091039020548154811061029757610296611395565b5b905f5260205f200190816102ab919061160c565b5060038282815181106102c1576102c0611395565b5b60200260200101516040516102d691906113fc565b90815260200160405180910390205f905580806001019150506101f0565b507f5462cca44bd73f863d8a33c18eddea04a24e4ac8e252404333dd97ac7a732ac8816040516103249190611725565b60405180910390a150565b610337610b8d565b6103405f610c14565b565b5f805f9054906101000a900473ffffffffffffffffffffffffffffffffffffffff16905090565b610371610b8d565b80518251146103b5576040517f08c379a00000000000000000000000000000000000000000000000000000000081526004016103ac906117c8565b60405180910390fd5b5f5b82518110156104b3575f60028483815181106103d6576103d5611395565b5b60200260200101516040516103eb91906113fc565b908152602001604051809103902080546104049061143f565b905003610446576040517f08c379a000000000000000000000000000000000000000000000000000000000815260040161043d90611830565b60405180910390fd5b81818151811061045957610458611395565b5b6020026020010151600284838151811061047657610475611395565b5b602002602001015160405161048b91906113fc565b908152602001604051809103902090816104a5919061160c565b5080806001019150506103b7565b505050565b5f600180549050905090565b60606002826040516104d691906113fc565b908152602001604051809103902080546104ef9061143f565b80601f016020809104026020016040519081016040528092919081815260200182805461051b9061143f565b80156105665780601f1061053d57610100808354040283529160200191610566565b820191905f5260205f20905b81548152906001019060200180831161054957829003601f168201915b50505050509050919050565b60018181548110610581575f80fd5b905f5260205f20015f9150905080546105999061143f565b80601f01602080910402602001604051908101604052809291908181526020018280546105c59061143f565b80156106105780601f106105e757610100808354040283529160200191610610565b820191905f5260205f20905b8154815290600101906020018083116105f357829003601f168201915b505050505081565b60608183111561065d576040517f08c379a0000000000000000000000000000000000000000000000000000000008152600401610654906118be565b60405180910390fd5b60018054905082106106a4576040517f08c379a000000000000000000000000000000000000000000000000000000000815260040161069b9061194c565b60405180910390fd5b5f831480156106b257505f82145b1561078b576001805480602002602001604051908101604052809291908181526020015f905b82821015610780578382905f5260205f200180546106f59061143f565b80601f01602080910402602001604051908101604052809291908181526020018280546107219061143f565b801561076c5780601f106107435761010080835404028352916020019161076c565b820191905f5260205f20905b81548152906001019060200180831161074f57829003601f168201915b5050505050815260200190600101906106d8565b5050505090506108e4565b5f6001848461079a9190611997565b6107a491906119ca565b67ffffffffffffffff8111156107bd576107bc610d59565b5b6040519080825280602002602001820160405280156107f057816020015b60608152602001906001900390816107db5790505b5090505f8490505b8381116108de576001818154811061081357610812611395565b5b905f5260205f200180546108269061143f565b80601f01602080910402602001604051908101604052809291908181526020018280546108529061143f565b801561089d5780601f106108745761010080835404028352916020019161089d565b820191905f5260205f20905b81548152906001019060200180831161088057829003601f168201915b50505050508286836108af9190611997565b815181106108c0576108bf611395565b5b602002602001018190525080806108d6906119fd565b9150506107f8565b50809150505b92915050565b6108f2610b8d565b5f73ffffffffffffffffffffffffffffffffffffffff168173ffffffffffffffffffffffffffffffffffffffff1603610962575f6040517f1e4fbdf70000000000000000000000000000000000000000000000000000000081526004016109599190610fe9565b60405180910390fd5b61096b81610c14565b50565b610976610b8d565b80518251146109ba576040517f08c379a00000000000000000000000000000000000000000000000000000000081526004016109b1906117c8565b60405180910390fd5b5f5b8251811015610b51575f60028483815181106109db576109da611395565b5b60200260200101516040516109f091906113fc565b90815260200160405180910390208054610a099061143f565b905014610a4b576040517f08c379a0000000000000000000000000000000000000000000000000000000008152600401610a4290611a8e565b60405180910390fd5b818181518110610a5e57610a5d611395565b5b60200260200101516002848381518110610a7b57610a7a611395565b5b6020026020010151604051610a9091906113fc565b90815260200160405180910390209081610aaa919061160c565b506001838281518110610ac057610abf611395565b5b6020026020010151908060018154018082558091505060019003905f5260205f20015f909190919091509081610af6919061160c565b5060018080549050610b089190611997565b6003848381518110610b1d57610b1c611395565b5b6020026020010151604051610b3291906113fc565b90815260200160405180910390208190555080806001019150506109bc565b507f5462cca44bd73f863d8a33c18eddea04a24e4ac8e252404333dd97ac7a732ac882604051610b819190611af6565b60405180910390a15050565b610b95610cd5565b73ffffffffffffffffffffffffffffffffffffffff16610bb3610342565b73ffffffffffffffffffffffffffffffffffffffff1614610c1257610bd6610cd5565b6040517f118cdaa7000000000000000000000000000000000000000000000000000000008152600401610c099190610fe9565b60405180910390fd5b565b5f805f9054906101000a900473ffffffffffffffffffffffffffffffffffffffff169050815f806101000a81548173ffffffffffffffffffffffffffffffffffffffff021916908373ffffffffffffffffffffffffffffffffffffffff1602179055508173ffffffffffffffffffffffffffffffffffffffff168173ffffffffffffffffffffffffffffffffffffffff167f8be0079c531659141344cd1fd0a4f28419497f9722a3daafe3b4186f6b6457e060405160405180910390a35050565b5f33905090565b508054610ce89061143f565b5f825580601f10610cf95750610d16565b601f0160209004905f5260205f2090810190610d159190610d19565b5b50565b5b80821115610d30575f815f905550600101610d1a565b5090565b5f604051905090565b5f80fd5b5f80fd5b5f80fd5b5f601f19601f8301169050919050565b7f4e487b71000000000000000000000000000000000000000000000000000000005f52604160045260245ffd5b610d8f82610d49565b810181811067ffffffffffffffff82111715610dae57610dad610d59565b5b80604052505050565b5f610dc0610d34565b9050610dcc8282610d86565b919050565b5f67ffffffffffffffff821115610deb57610dea610d59565b5b602082029050602081019050919050565b5f80fd5b5f80fd5b5f67ffffffffffffffff821115610e1e57610e1d610d59565b5b610e2782610d49565b9050602081019050919050565b828183375f83830152505050565b5f610e54610e4f84610e04565b610db7565b905082815260208101848484011115610e7057610e6f610e00565b5b610e7b848285610e34565b509392505050565b5f82601f830112610e9757610e96610d45565b5b8135610ea7848260208601610e42565b91505092915050565b5f610ec2610ebd84610dd1565b610db7565b90508083825260208201905060208402830185811115610ee557610ee4610dfc565b5b835b81811015610f2c57803567ffffffffffffffff811115610f0a57610f09610d45565b5b808601610f178982610e83565b85526020850194505050602081019050610ee7565b5050509392505050565b5f82601f830112610f4a57610f49610d45565b5b8135610f5a848260208601610eb0565b91505092915050565b5f60208284031215610f7857610f77610d3d565b5b5f82013567ffffffffffffffff811115610f9557610f94610d41565b5b610fa184828501610f36565b91505092915050565b5f73ffffffffffffffffffffffffffffffffffffffff82169050919050565b5f610fd382610faa565b9050919050565b610fe381610fc9565b82525050565b5f602082019050610ffc5f830184610fda565b92915050565b5f806040838503121561101857611017610d3d565b5b5f83013567ffffffffffffffff81111561103557611034610d41565b5b61104185828601610f36565b925050602083013567ffffffffffffffff81111561106257611061610d41565b5b61106e85828601610f36565b9150509250929050565b5f819050919050565b61108a81611078565b82525050565b5f6020820190506110a35f830184611081565b92915050565b5f602082840312156110be576110bd610d3d565b5b5f82013567ffffffffffffffff8111156110db576110da610d41565b5b6110e784828501610e83565b91505092915050565b5f81519050919050565b5f82825260208201905092915050565b5f5b8381101561112757808201518184015260208101905061110c565b5f8484015250505050565b5f61113c826110f0565b61114681856110fa565b935061115681856020860161110a565b61115f81610d49565b840191505092915050565b5f6020820190508181035f8301526111828184611132565b905092915050565b61119381611078565b811461119d575f80fd5b50565b5f813590506111ae8161118a565b92915050565b5f602082840312156111c9576111c8610d3d565b5b5f6111d6848285016111a0565b91505092915050565b5f80604083850312156111f5576111f4610d3d565b5b5f611202858286016111a0565b9250506020611213858286016111a0565b9150509250929050565b5f81519050919050565b5f82825260208201905092915050565b5f819050602082019050919050565b5f82825260208201905092915050565b5f611260826110f0565b61126a8185611246565b935061127a81856020860161110a565b61128381610d49565b840191505092915050565b5f6112998383611256565b905092915050565b5f602082019050919050565b5f6112b78261121d565b6112c18185611227565b9350836020820285016112d385611237565b805f5b8581101561130e57848403895281516112ef858261128e565b94506112fa836112a1565b925060208a019950506001810190506112d6565b50829750879550505050505092915050565b5f6020820190508181035f83015261133881846112ad565b905092915050565b61134981610fc9565b8114611353575f80fd5b50565b5f8135905061136481611340565b92915050565b5f6020828403121561137f5761137e610d3d565b5b5f61138c84828501611356565b91505092915050565b7f4e487b71000000000000000000000000000000000000000000000000000000005f52603260045260245ffd5b5f81905092915050565b5f6113d6826110f0565b6113e081856113c2565b93506113f081856020860161110a565b80840191505092915050565b5f61140782846113cc565b915081905092915050565b7f4e487b71000000000000000000000000000000000000000000000000000000005f52602260045260245ffd5b5f600282049050600182168061145657607f821691505b60208210810361146957611468611412565b5b50919050565b5f819050815f5260205f209050919050565b5f6020601f8301049050919050565b5f82821b905092915050565b5f600883026114cb7fffffffffffffffffffffffffffffffffffffffffffffffffffffffffffffffff82611490565b6114d58683611490565b95508019841693508086168417925050509392505050565b5f819050919050565b5f61151061150b61150684611078565b6114ed565b611078565b9050919050565b5f819050919050565b611529836114f6565b61153d61153582611517565b84845461149c565b825550505050565b5f90565b611551611545565b61155c818484611520565b505050565b5b8181101561157f576115745f82611549565b600181019050611562565b5050565b601f8211156115c4576115958161146f565b61159e84611481565b810160208510156115ad578190505b6115c16115b985611481565b830182611561565b50505b505050565b5f82821c905092915050565b5f6115e45f19846008026115c9565b1980831691505092915050565b5f6115fc83836115d5565b9150826002028217905092915050565b611615826110f0565b67ffffffffffffffff81111561162e5761162d610d59565b5b611638825461143f565b611643828285611583565b5f60209050601f831160018114611674575f8415611662578287015190505b61166c85826115f1565b8655506116d3565b601f1984166116828661146f565b5f5b828110156116a957848901518255600182019150602085019450602081019050611684565b868310156116c657848901516116c2601f8916826115d5565b8355505b6001600288020188555050505b505050505050565b7f55454e732072656d6f76656400000000000000000000000000000000000000005f82015250565b5f61170f600c836110fa565b915061171a826116db565b602082019050919050565b5f6040820190508181035f83015261173d81846112ad565b9050818103602083015261175081611703565b905092915050565b7f4d617070696e6773206d7573742068617665207468652073616d65206c656e675f8201527f7468000000000000000000000000000000000000000000000000000000000000602082015250565b5f6117b26022836110fa565b91506117bd82611758565b604082019050919050565b5f6020820190508181035f8301526117df816117a6565b9050919050565b7f55454e20646f6573206e6f7420657869737400000000000000000000000000005f82015250565b5f61181a6012836110fa565b9150611825826117e6565b602082019050919050565b5f6020820190508181035f8301526118478161180e565b9050919050565b7f537461727420696e646578206d757374206265206c657373207468616e206f725f8201527f20657175616c20746f20656e6420696e64657800000000000000000000000000602082015250565b5f6118a86033836110fa565b91506118b38261184e565b604082019050919050565b5f6020820190508181035f8301526118d58161189c565b9050919050565b7f456e6420696e646578206d757374206265206c657373207468616e20746865205f8201527f6c656e677468206f6620746865206c6973740000000000000000000000000000602082015250565b5f6119366032836110fa565b9150611941826118dc565b604082019050919050565b5f6020820190508181035f8301526119638161192a565b9050919050565b7f4e487b71000000000000000000000000000000000000000000000000000000005f52601160045260245ffd5b5f6119a182611078565b91506119ac83611078565b92508282039050818111156119c4576119c361196a565b5b92915050565b5f6119d482611078565b91506119df83611078565b92508282019050808211156119f7576119f661196a565b5b92915050565b5f611a0782611078565b91507fffffffffffffffffffffffffffffffffffffffffffffffffffffffffffffffff8203611a3957611a3861196a565b5b600182019050919050565b7f55454e20616c72656164792065786973747300000000000000000000000000005f82015250565b5f611a786012836110fa565b9150611a8382611a44565b602082019050919050565b5f6020820190508181035f830152611aa581611a6c565b9050919050565b7f55454e73206164646564000000000000000000000000000000000000000000005f82015250565b5f611ae0600a836110fa565b9150611aeb82611aac565b602082019050919050565b5f6040820190508181035f830152611b0e81846112ad565b90508181036020830152611b2181611ad4565b90509291505056fea26469706673582212202415bbdc70520c00656e521648819344324ce02f2c661526638444ac32aed3ab64736f6c63430008160033",
					"opcodes": "PUSH1 0x80 PUSH1 0x40 MSTORE CALLVALUE DUP1 ISZERO PUSH3 0x10 JUMPI PUSH0 DUP1 REVERT JUMPDEST POP PUSH1 0x40 MLOAD PUSH3 0x1DB2 CODESIZE SUB DUP1 PUSH3 0x1DB2 DUP4 CODECOPY DUP2 DUP2 ADD PUSH1 0x40 MSTORE DUP2 ADD SWAP1 PUSH3 0x36 SWAP2 SWAP1 PUSH3 0x1E9 JUMP JUMPDEST DUP1 PUSH0 PUSH20 0xFFFFFFFFFFFFFFFFFFFFFFFFFFFFFFFFFFFFFFFF AND DUP2 PUSH20 0xFFFFFFFFFFFFFFFFFFFFFFFFFFFFFFFFFFFFFFFF AND SUB PUSH3 0xAA JUMPI PUSH0 PUSH1 0x40 MLOAD PUSH32 0x1E4FBDF700000000000000000000000000000000000000000000000000000000 DUP2 MSTORE PUSH1 0x4 ADD PUSH3 0xA1 SWAP2 SWAP1 PUSH3 0x22A JUMP JUMPDEST PUSH1 0x40 MLOAD DUP1 SWAP2 SUB SWAP1 REVERT JUMPDEST PUSH3 0xBB DUP2 PUSH3 0xC3 PUSH1 0x20 SHL PUSH1 0x20 SHR JUMP JUMPDEST POP POP PUSH3 0x245 JUMP JUMPDEST PUSH0 DUP1 PUSH0 SWAP1 SLOAD SWAP1 PUSH2 0x100 EXP SWAP1 DIV PUSH20 0xFFFFFFFFFFFFFFFFFFFFFFFFFFFFFFFFFFFFFFFF AND SWAP1 POP DUP2 PUSH0 DUP1 PUSH2 0x100 EXP DUP2 SLOAD DUP2 PUSH20 0xFFFFFFFFFFFFFFFFFFFFFFFFFFFFFFFFFFFFFFFF MUL NOT AND SWAP1 DUP4 PUSH20 0xFFFFFFFFFFFFFFFFFFFFFFFFFFFFFFFFFFFFFFFF AND MUL OR SWAP1 SSTORE POP DUP2 PUSH20 0xFFFFFFFFFFFFFFFFFFFFFFFFFFFFFFFFFFFFFFFF AND DUP2 PUSH20 0xFFFFFFFFFFFFFFFFFFFFFFFFFFFFFFFFFFFFFFFF AND PUSH32 0x8BE0079C531659141344CD1FD0A4F28419497F9722A3DAAFE3B4186F6B6457E0 PUSH1 0x40 MLOAD PUSH1 0x40 MLOAD DUP1 SWAP2 SUB SWAP1 LOG3 POP POP JUMP JUMPDEST PUSH0 DUP1 REVERT JUMPDEST PUSH0 PUSH20 0xFFFFFFFFFFFFFFFFFFFFFFFFFFFFFFFFFFFFFFFF DUP3 AND SWAP1 POP SWAP2 SWAP1 POP JUMP JUMPDEST PUSH0 PUSH3 0x1B3 DUP3 PUSH3 0x188 JUMP JUMPDEST SWAP1 POP SWAP2 SWAP1 POP JUMP JUMPDEST PUSH3 0x1C5 DUP2 PUSH3 0x1A7 JUMP JUMPDEST DUP2 EQ PUSH3 0x1D0 JUMPI PUSH0 DUP1 REVERT JUMPDEST POP JUMP JUMPDEST PUSH0 DUP2 MLOAD SWAP1 POP PUSH3 0x1E3 DUP2 PUSH3 0x1BA JUMP JUMPDEST SWAP3 SWAP2 POP POP JUMP JUMPDEST PUSH0 PUSH1 0x20 DUP3 DUP5 SUB SLT ISZERO PUSH3 0x201 JUMPI PUSH3 0x200 PUSH3 0x184 JUMP JUMPDEST JUMPDEST PUSH0 PUSH3 0x210 DUP5 DUP3 DUP6 ADD PUSH3 0x1D3 JUMP JUMPDEST SWAP2 POP POP SWAP3 SWAP2 POP POP JUMP JUMPDEST PUSH3 0x224 DUP2 PUSH3 0x1A7 JUMP JUMPDEST DUP3 MSTORE POP POP JUMP JUMPDEST PUSH0 PUSH1 0x20 DUP3 ADD SWAP1 POP PUSH3 0x23F PUSH0 DUP4 ADD DUP5 PUSH3 0x219 JUMP JUMPDEST SWAP3 SWAP2 POP POP JUMP JUMPDEST PUSH2 0x1B5F DUP1 PUSH3 0x253 PUSH0 CODECOPY PUSH0 RETURN INVALID PUSH1 0x80 PUSH1 0x40 MSTORE CALLVALUE DUP1 ISZERO PUSH2 0xF JUMPI PUSH0 DUP1 REVERT JUMPDEST POP PUSH1 0x4 CALLDATASIZE LT PUSH2 0x9C JUMPI PUSH0 CALLDATALOAD PUSH1 0xE0 SHR DUP1 PUSH4 0xA8F5D7A6 GT PUSH2 0x64 JUMPI DUP1 PUSH4 0xA8F5D7A6 EQ PUSH2 0x11E JUMPI DUP1 PUSH4 0xB30282FA EQ PUSH2 0x14E JUMPI DUP1 PUSH4 0xE2B378C2 EQ PUSH2 0x17E JUMPI DUP1 PUSH4 0xF2FDE38B EQ PUSH2 0x1AE JUMPI DUP1 PUSH4 0xF9B378C2 EQ PUSH2 0x1CA JUMPI PUSH2 0x9C JUMP JUMPDEST DUP1 PUSH4 0x35B13DB2 EQ PUSH2 0xA0 JUMPI DUP1 PUSH4 0x715018A6 EQ PUSH2 0xBC JUMPI DUP1 PUSH4 0x8DA5CB5B EQ PUSH2 0xC6 JUMPI DUP1 PUSH4 0x9926AA34 EQ PUSH2 0xE4 JUMPI DUP1 PUSH4 0x9F724ECE EQ PUSH2 0x100 JUMPI JUMPDEST PUSH0 DUP1 REVERT JUMPDEST PUSH2 0xBA PUSH1 0x4 DUP1 CALLDATASIZE SUB DUP2 ADD SWAP1 PUSH2 0xB5 SWAP2 SWAP1 PUSH2 0xF63 JUMP JUMPDEST PUSH2 0x1E6 JUMP JUMPDEST STOP JUMPDEST PUSH2 0xC4 PUSH2 0x32F JUMP JUMPDEST STOP JUMPDEST PUSH2 0xCE PUSH2 0x342 JUMP JUMPDEST PUSH1 0x40 MLOAD PUSH2 0xDB SWAP2 SWAP1 PUSH2 0xFE9 JUMP JUMPDEST PUSH1 0x40 MLOAD DUP1 SWAP2 SUB SWAP1 RETURN JUMPDEST PUSH2 0xFE PUSH1 0x4 DUP1 CALLDATASIZE SUB DUP2 ADD SWAP1 PUSH2 0xF9 SWAP2 SWAP1 PUSH2 0x1002 JUMP JUMPDEST PUSH2 0x369 JUMP JUMPDEST STOP JUMPDEST PUSH2 0x108 PUSH2 0x4B8 JUMP JUMPDEST PUSH1 0x40 MLOAD PUSH2 0x115 SWAP2 SWAP1 PUSH2 0x1090 JUMP JUMPDEST PUSH1 0x40 MLOAD DUP1 SWAP2 SUB SWAP1 RETURN JUMPDEST PUSH2 0x138 PUSH1 0x4 DUP1 CALLDATASIZE SUB DUP2 ADD SWAP1 PUSH2 0x133 SWAP2 SWAP1 PUSH2 0x10A9 JUMP JUMPDEST PUSH2 0x4C4 JUMP JUMPDEST PUSH1 0x40 MLOAD PUSH2 0x145 SWAP2 SWAP1 PUSH2 0x116A JUMP JUMPDEST PUSH1 0x40 MLOAD DUP1 SWAP2 SUB SWAP1 RETURN JUMPDEST PUSH2 0x168 PUSH1 0x4 DUP1 CALLDATASIZE SUB DUP2 ADD SWAP1 PUSH2 0x163 SWAP2 SWAP1 PUSH2 0x11B4 JUMP JUMPDEST PUSH2 0x572 JUMP JUMPDEST PUSH1 0x40 MLOAD PUSH2 0x175 SWAP2 SWAP1 PUSH2 0x116A JUMP JUMPDEST PUSH1 0x40 MLOAD DUP1 SWAP2 SUB SWAP1 RETURN JUMPDEST PUSH2 0x198 PUSH1 0x4 DUP1 CALLDATASIZE SUB DUP2 ADD SWAP1 PUSH2 0x193 SWAP2 SWAP1 PUSH2 0x11DF JUMP JUMPDEST PUSH2 0x618 JUMP JUMPDEST PUSH1 0x40 MLOAD PUSH2 0x1A5 SWAP2 SWAP1 PUSH2 0x1320 JUMP JUMPDEST PUSH1 0x40 MLOAD DUP1 SWAP2 SUB SWAP1 RETURN JUMPDEST PUSH2 0x1C8 PUSH1 0x4 DUP1 CALLDATASIZE SUB DUP2 ADD SWAP1 PUSH2 0x1C3 SWAP2 SWAP1 PUSH2 0x136A JUMP JUMPDEST PUSH2 0x8EA JUMP JUMPDEST STOP JUMPDEST PUSH2 0x1E4 PUSH1 0x4 DUP1 CALLDATASIZE SUB DUP2 ADD SWAP1 PUSH2 0x1DF SWAP2 SWAP1 PUSH2 0x1002 JUMP JUMPDEST PUSH2 0x96E JUMP JUMPDEST STOP JUMPDEST PUSH2 0x1EE PUSH2 0xB8D JUMP JUMPDEST PUSH0 JUMPDEST DUP2 MLOAD DUP2 LT ISZERO PUSH2 0x2F4 JUMPI PUSH1 0x2 DUP3 DUP3 DUP2 MLOAD DUP2 LT PUSH2 0x20E JUMPI PUSH2 0x20D PUSH2 0x1395 JUMP JUMPDEST JUMPDEST PUSH1 0x20 MUL PUSH1 0x20 ADD ADD MLOAD PUSH1 0x40 MLOAD PUSH2 0x223 SWAP2 SWAP1 PUSH2 0x13FC JUMP JUMPDEST SWAP1 DUP2 MSTORE PUSH1 0x20 ADD PUSH1 0x40 MLOAD DUP1 SWAP2 SUB SWAP1 KECCAK256 PUSH0 PUSH2 0x23C SWAP2 SWAP1 PUSH2 0xCDC JUMP JUMPDEST PUSH1 0x40 MLOAD DUP1 PUSH1 0x20 ADD PUSH1 0x40 MSTORE DUP1 PUSH0 DUP2 MSTORE POP PUSH1 0x1 PUSH1 0x3 DUP5 DUP5 DUP2 MLOAD DUP2 LT PUSH2 0x262 JUMPI PUSH2 0x261 PUSH2 0x1395 JUMP JUMPDEST JUMPDEST PUSH1 0x20 MUL PUSH1 0x20 ADD ADD MLOAD PUSH1 0x40 MLOAD PUSH2 0x277 SWAP2 SWAP1 PUSH2 0x13FC JUMP JUMPDEST SWAP1 DUP2 MSTORE PUSH1 0x20 ADD PUSH1 0x40 MLOAD DUP1 SWAP2 SUB SWAP1 KECCAK256 SLOAD DUP2 SLOAD DUP2 LT PUSH2 0x297 JUMPI PUSH2 0x296 PUSH2 0x1395 JUMP JUMPDEST JUMPDEST SWAP1 PUSH0 MSTORE PUSH1 0x20 PUSH0 KECCAK256 ADD SWAP1 DUP2 PUSH2 0x2AB SWAP2 SWAP1 PUSH2 0x160C JUMP JUMPDEST POP PUSH1 0x3 DUP3 DUP3 DUP2 MLOAD DUP2 LT PUSH2 0x2C1 JUMPI PUSH2 0x2C0 PUSH2 0x1395 JUMP JUMPDEST JUMPDEST PUSH1 0x20 MUL PUSH1 0x20 ADD ADD MLOAD PUSH1 0x40 MLOAD PUSH2 0x2D6 SWAP2 SWAP1 PUSH2 0x13FC JUMP JUMPDEST SWAP1 DUP2 MSTORE PUSH1 0x20 ADD PUSH1 0x40 MLOAD DUP1 SWAP2 SUB SWAP1 KECCAK256 PUSH0 SWAP1 SSTORE DUP1 DUP1 PUSH1 0x1 ADD SWAP2 POP POP PUSH2 0x1F0 JUMP JUMPDEST POP PUSH32 0x5462CCA44BD73F863D8A33C18EDDEA04A24E4AC8E252404333DD97AC7A732AC8 DUP2 PUSH1 0x40 MLOAD PUSH2 0x324 SWAP2 SWAP1 PUSH2 0x1725 JUMP JUMPDEST PUSH1 0x40 MLOAD DUP1 SWAP2 SUB SWAP1 LOG1 POP JUMP JUMPDEST PUSH2 0x337 PUSH2 0xB8D JUMP JUMPDEST PUSH2 0x340 PUSH0 PUSH2 0xC14 JUMP JUMPDEST JUMP JUMPDEST PUSH0 DUP1 PUSH0 SWAP1 SLOAD SWAP1 PUSH2 0x100 EXP SWAP1 DIV PUSH20 0xFFFFFFFFFFFFFFFFFFFFFFFFFFFFFFFFFFFFFFFF AND SWAP1 POP SWAP1 JUMP JUMPDEST PUSH2 0x371 PUSH2 0xB8D JUMP JUMPDEST DUP1 MLOAD DUP3 MLOAD EQ PUSH2 0x3B5 JUMPI PUSH1 0x40 MLOAD PUSH32 0x8C379A000000000000000000000000000000000000000000000000000000000 DUP2 MSTORE PUSH1 0x4 ADD PUSH2 0x3AC SWAP1 PUSH2 0x17C8 JUMP JUMPDEST PUSH1 0x40 MLOAD DUP1 SWAP2 SUB SWAP1 REVERT JUMPDEST PUSH0 JUMPDEST DUP3 MLOAD DUP2 LT ISZERO PUSH2 0x4B3 JUMPI PUSH0 PUSH1 0x2 DUP5 DUP4 DUP2 MLOAD DUP2 LT PUSH2 0x3D6 JUMPI PUSH2 0x3D5 PUSH2 0x1395 JUMP JUMPDEST JUMPDEST PUSH1 0x20 MUL PUSH1 0x20 ADD ADD MLOAD PUSH1 0x40 MLOAD PUSH2 0x3EB SWAP2 SWAP1 PUSH2 0x13FC JUMP JUMPDEST SWAP1 DUP2 MSTORE PUSH1 0x20 ADD PUSH1 0x40 MLOAD DUP1 SWAP2 SUB SWAP1 KECCAK256 DUP1 SLOAD PUSH2 0x404 SWAP1 PUSH2 0x143F JUMP JUMPDEST SWAP1 POP SUB PUSH2 0x446 JUMPI PUSH1 0x40 MLOAD PUSH32 0x8C379A000000000000000000000000000000000000000000000000000000000 DUP2 MSTORE PUSH1 0x4 ADD PUSH2 0x43D SWAP1 PUSH2 0x1830 JUMP JUMPDEST PUSH1 0x40 MLOAD DUP1 SWAP2 SUB SWAP1 REVERT JUMPDEST DUP2 DUP2 DUP2 MLOAD DUP2 LT PUSH2 0x459 JUMPI PUSH2 0x458 PUSH2 0x1395 JUMP JUMPDEST JUMPDEST PUSH1 0x20 MUL PUSH1 0x20 ADD ADD MLOAD PUSH1 0x2 DUP5 DUP4 DUP2 MLOAD DUP2 LT PUSH2 0x476 JUMPI PUSH2 0x475 PUSH2 0x1395 JUMP JUMPDEST JUMPDEST PUSH1 0x20 MUL PUSH1 0x20 ADD ADD MLOAD PUSH1 0x40 MLOAD PUSH2 0x48B SWAP2 SWAP1 PUSH2 0x13FC JUMP JUMPDEST SWAP1 DUP2 MSTORE PUSH1 0x20 ADD PUSH1 0x40 MLOAD DUP1 SWAP2 SUB SWAP1 KECCAK256 SWAP1 DUP2 PUSH2 0x4A5 SWAP2 SWAP1 PUSH2 0x160C JUMP JUMPDEST POP DUP1 DUP1 PUSH1 0x1 ADD SWAP2 POP POP PUSH2 0x3B7 JUMP JUMPDEST POP POP POP JUMP JUMPDEST PUSH0 PUSH1 0x1 DUP1 SLOAD SWAP1 POP SWAP1 POP SWAP1 JUMP JUMPDEST PUSH1 0x60 PUSH1 0x2 DUP3 PUSH1 0x40 MLOAD PUSH2 0x4D6 SWAP2 SWAP1 PUSH2 0x13FC JUMP JUMPDEST SWAP1 DUP2 MSTORE PUSH1 0x20 ADD PUSH1 0x40 MLOAD DUP1 SWAP2 SUB SWAP1 KECCAK256 DUP1 SLOAD PUSH2 0x4EF SWAP1 PUSH2 0x143F JUMP JUMPDEST DUP1 PUSH1 0x1F ADD PUSH1 0x20 DUP1 SWAP2 DIV MUL PUSH1 0x20 ADD PUSH1 0x40 MLOAD SWAP1 DUP2 ADD PUSH1 0x40 MSTORE DUP1 SWAP3 SWAP2 SWAP1 DUP2 DUP2 MSTORE PUSH1 0x20 ADD DUP3 DUP1 SLOAD PUSH2 0x51B SWAP1 PUSH2 0x143F JUMP JUMPDEST DUP1 ISZERO PUSH2 0x566 JUMPI DUP1 PUSH1 0x1F LT PUSH2 0x53D JUMPI PUSH2 0x100 DUP1 DUP4 SLOAD DIV MUL DUP4 MSTORE SWAP2 PUSH1 0x20 ADD SWAP2 PUSH2 0x566 JUMP JUMPDEST DUP3 ADD SWAP2 SWAP1 PUSH0 MSTORE PUSH1 0x20 PUSH0 KECCAK256 SWAP1 JUMPDEST DUP2 SLOAD DUP2 MSTORE SWAP1 PUSH1 0x1 ADD SWAP1 PUSH1 0x20 ADD DUP1 DUP4 GT PUSH2 0x549 JUMPI DUP3 SWAP1 SUB PUSH1 0x1F AND DUP3 ADD SWAP2 JUMPDEST POP POP POP POP POP SWAP1 POP SWAP2 SWAP1 POP JUMP JUMPDEST PUSH1 0x1 DUP2 DUP2 SLOAD DUP2 LT PUSH2 0x581 JUMPI PUSH0 DUP1 REVERT JUMPDEST SWAP1 PUSH0 MSTORE PUSH1 0x20 PUSH0 KECCAK256 ADD PUSH0 SWAP2 POP SWAP1 POP DUP1 SLOAD PUSH2 0x599 SWAP1 PUSH2 0x143F JUMP JUMPDEST DUP1 PUSH1 0x1F ADD PUSH1 0x20 DUP1 SWAP2 DIV MUL PUSH1 0x20 ADD PUSH1 0x40 MLOAD SWAP1 DUP2 ADD PUSH1 0x40 MSTORE DUP1 SWAP3 SWAP2 SWAP1 DUP2 DUP2 MSTORE PUSH1 0x20 ADD DUP3 DUP1 SLOAD PUSH2 0x5C5 SWAP1 PUSH2 0x143F JUMP JUMPDEST DUP1 ISZERO PUSH2 0x610 JUMPI DUP1 PUSH1 0x1F LT PUSH2 0x5E7 JUMPI PUSH2 0x100 DUP1 DUP4 SLOAD DIV MUL DUP4 MSTORE SWAP2 PUSH1 0x20 ADD SWAP2 PUSH2 0x610 JUMP JUMPDEST DUP3 ADD SWAP2 SWAP1 PUSH0 MSTORE PUSH1 0x20 PUSH0 KECCAK256 SWAP1 JUMPDEST DUP2 SLOAD DUP2 MSTORE SWAP1 PUSH1 0x1 ADD SWAP1 PUSH1 0x20 ADD DUP1 DUP4 GT PUSH2 0x5F3 JUMPI DUP3 SWAP1 SUB PUSH1 0x1F AND DUP3 ADD SWAP2 JUMPDEST POP POP POP POP POP DUP2 JUMP JUMPDEST PUSH1 0x60 DUP2 DUP4 GT ISZERO PUSH2 0x65D JUMPI PUSH1 0x40 MLOAD PUSH32 0x8C379A000000000000000000000000000000000000000000000000000000000 DUP2 MSTORE PUSH1 0x4 ADD PUSH2 0x654 SWAP1 PUSH2 0x18BE JUMP JUMPDEST PUSH1 0x40 MLOAD DUP1 SWAP2 SUB SWAP1 REVERT JUMPDEST PUSH1 0x1 DUP1 SLOAD SWAP1 POP DUP3 LT PUSH2 0x6A4 JUMPI PUSH1 0x40 MLOAD PUSH32 0x8C379A000000000000000000000000000000000000000000000000000000000 DUP2 MSTORE PUSH1 0x4 ADD PUSH2 0x69B SWAP1 PUSH2 0x194C JUMP JUMPDEST PUSH1 0x40 MLOAD DUP1 SWAP2 SUB SWAP1 REVERT JUMPDEST PUSH0 DUP4 EQ DUP1 ISZERO PUSH2 0x6B2 JUMPI POP PUSH0 DUP3 EQ JUMPDEST ISZERO PUSH2 0x78B JUMPI PUSH1 0x1 DUP1 SLOAD DUP1 PUSH1 0x20 MUL PUSH1 0x20 ADD PUSH1 0x40 MLOAD SWAP1 DUP2 ADD PUSH1 0x40 MSTORE DUP1 SWAP3 SWAP2 SWAP1 DUP2 DUP2 MSTORE PUSH1 0x20 ADD PUSH0 SWAP1 JUMPDEST DUP3 DUP3 LT ISZERO PUSH2 0x780 JUMPI DUP4 DUP3 SWAP1 PUSH0 MSTORE PUSH1 0x20 PUSH0 KECCAK256 ADD DUP1 SLOAD PUSH2 0x6F5 SWAP1 PUSH2 0x143F JUMP JUMPDEST DUP1 PUSH1 0x1F ADD PUSH1 0x20 DUP1 SWAP2 DIV MUL PUSH1 0x20 ADD PUSH1 0x40 MLOAD SWAP1 DUP2 ADD PUSH1 0x40 MSTORE DUP1 SWAP3 SWAP2 SWAP1 DUP2 DUP2 MSTORE PUSH1 0x20 ADD DUP3 DUP1 SLOAD PUSH2 0x721 SWAP1 PUSH2 0x143F JUMP JUMPDEST DUP1 ISZERO PUSH2 0x76C JUMPI DUP1 PUSH1 0x1F LT PUSH2 0x743 JUMPI PUSH2 0x100 DUP1 DUP4 SLOAD DIV MUL DUP4 MSTORE SWAP2 PUSH1 0x20 ADD SWAP2 PUSH2 0x76C JUMP JUMPDEST DUP3 ADD SWAP2 SWAP1 PUSH0 MSTORE PUSH1 0x20 PUSH0 KECCAK256 SWAP1 JUMPDEST DUP2 SLOAD DUP2 MSTORE SWAP1 PUSH1 0x1 ADD SWAP1 PUSH1 0x20 ADD DUP1 DUP4 GT PUSH2 0x74F JUMPI DUP3 SWAP1 SUB PUSH1 0x1F AND DUP3 ADD SWAP2 JUMPDEST POP POP POP POP POP DUP2 MSTORE PUSH1 0x20 ADD SWAP1 PUSH1 0x1 ADD SWAP1 PUSH2 0x6D8 JUMP JUMPDEST POP POP POP POP SWAP1 POP PUSH2 0x8E4 JUMP JUMPDEST PUSH0 PUSH1 0x1 DUP5 DUP5 PUSH2 0x79A SWAP2 SWAP1 PUSH2 0x1997 JUMP JUMPDEST PUSH2 0x7A4 SWAP2 SWAP1 PUSH2 0x19CA JUMP JUMPDEST PUSH8 0xFFFFFFFFFFFFFFFF DUP2 GT ISZERO PUSH2 0x7BD JUMPI PUSH2 0x7BC PUSH2 0xD59 JUMP JUMPDEST JUMPDEST PUSH1 0x40 MLOAD SWAP1 DUP1 DUP3 MSTORE DUP1 PUSH1 0x20 MUL PUSH1 0x20 ADD DUP3 ADD PUSH1 0x40 MSTORE DUP1 ISZERO PUSH2 0x7F0 JUMPI DUP2 PUSH1 0x20 ADD JUMPDEST PUSH1 0x60 DUP2 MSTORE PUSH1 0x20 ADD SWAP1 PUSH1 0x1 SWAP1 SUB SWAP1 DUP2 PUSH2 0x7DB JUMPI SWAP1 POP JUMPDEST POP SWAP1 POP PUSH0 DUP5 SWAP1 POP JUMPDEST DUP4 DUP2 GT PUSH2 0x8DE JUMPI PUSH1 0x1 DUP2 DUP2 SLOAD DUP2 LT PUSH2 0x813 JUMPI PUSH2 0x812 PUSH2 0x1395 JUMP JUMPDEST JUMPDEST SWAP1 PUSH0 MSTORE PUSH1 0x20 PUSH0 KECCAK256 ADD DUP1 SLOAD PUSH2 0x826 SWAP1 PUSH2 0x143F JUMP JUMPDEST DUP1 PUSH1 0x1F ADD PUSH1 0x20 DUP1 SWAP2 DIV MUL PUSH1 0x20 ADD PUSH1 0x40 MLOAD SWAP1 DUP2 ADD PUSH1 0x40 MSTORE DUP1 SWAP3 SWAP2 SWAP1 DUP2 DUP2 MSTORE PUSH1 0x20 ADD DUP3 DUP1 SLOAD PUSH2 0x852 SWAP1 PUSH2 0x143F JUMP JUMPDEST DUP1 ISZERO PUSH2 0x89D JUMPI DUP1 PUSH1 0x1F LT PUSH2 0x874 JUMPI PUSH2 0x100 DUP1 DUP4 SLOAD DIV MUL DUP4 MSTORE SWAP2 PUSH1 0x20 ADD SWAP2 PUSH2 0x89D JUMP JUMPDEST DUP3 ADD SWAP2 SWAP1 PUSH0 MSTORE PUSH1 0x20 PUSH0 KECCAK256 SWAP1 JUMPDEST DUP2 SLOAD DUP2 MSTORE SWAP1 PUSH1 0x1 ADD SWAP1 PUSH1 0x20 ADD DUP1 DUP4 GT PUSH2 0x880 JUMPI DUP3 SWAP1 SUB PUSH1 0x1F AND DUP3 ADD SWAP2 JUMPDEST POP POP POP POP POP DUP3 DUP7 DUP4 PUSH2 0x8AF SWAP2 SWAP1 PUSH2 0x1997 JUMP JUMPDEST DUP2 MLOAD DUP2 LT PUSH2 0x8C0 JUMPI PUSH2 0x8BF PUSH2 0x1395 JUMP JUMPDEST JUMPDEST PUSH1 0x20 MUL PUSH1 0x20 ADD ADD DUP2 SWAP1 MSTORE POP DUP1 DUP1 PUSH2 0x8D6 SWAP1 PUSH2 0x19FD JUMP JUMPDEST SWAP2 POP POP PUSH2 0x7F8 JUMP JUMPDEST POP DUP1 SWAP2 POP POP JUMPDEST SWAP3 SWAP2 POP POP JUMP JUMPDEST PUSH2 0x8F2 PUSH2 0xB8D JUMP JUMPDEST PUSH0 PUSH20 0xFFFFFFFFFFFFFFFFFFFFFFFFFFFFFFFFFFFFFFFF AND DUP2 PUSH20 0xFFFFFFFFFFFFFFFFFFFFFFFFFFFFFFFFFFFFFFFF AND SUB PUSH2 0x962 JUMPI PUSH0 PUSH1 0x40 MLOAD PUSH32 0x1E4FBDF700000000000000000000000000000000000000000000000000000000 DUP2 MSTORE PUSH1 0x4 ADD PUSH2 0x959 SWAP2 SWAP1 PUSH2 0xFE9 JUMP JUMPDEST PUSH1 0x40 MLOAD DUP1 SWAP2 SUB SWAP1 REVERT JUMPDEST PUSH2 0x96B DUP2 PUSH2 0xC14 JUMP JUMPDEST POP JUMP JUMPDEST PUSH2 0x976 PUSH2 0xB8D JUMP JUMPDEST DUP1 MLOAD DUP3 MLOAD EQ PUSH2 0x9BA JUMPI PUSH1 0x40 MLOAD PUSH32 0x8C379A000000000000000000000000000000000000000000000000000000000 DUP2 MSTORE PUSH1 0x4 ADD PUSH2 0x9B1 SWAP1 PUSH2 0x17C8 JUMP JUMPDEST PUSH1 0x40 MLOAD DUP1 SWAP2 SUB SWAP1 REVERT JUMPDEST PUSH0 JUMPDEST DUP3 MLOAD DUP2 LT ISZERO PUSH2 0xB51 JUMPI PUSH0 PUSH1 0x2 DUP5 DUP4 DUP2 MLOAD DUP2 LT PUSH2 0x9DB JUMPI PUSH2 0x9DA PUSH2 0x1395 JUMP JUMPDEST JUMPDEST PUSH1 0x20 MUL PUSH1 0x20 ADD ADD MLOAD PUSH1 0x40 MLOAD PUSH2 0x9F0 SWAP2 SWAP1 PUSH2 0x13FC JUMP JUMPDEST SWAP1 DUP2 MSTORE PUSH1 0x20 ADD PUSH1 0x40 MLOAD DUP1 SWAP2 SUB SWAP1 KECCAK256 DUP1 SLOAD PUSH2 0xA09 SWAP1 PUSH2 0x143F JUMP JUMPDEST SWAP1 POP EQ PUSH2 0xA4B JUMPI PUSH1 0x40 MLOAD PUSH32 0x8C379A000000000000000000000000000000000000000000000000000000000 DUP2 MSTORE PUSH1 0x4 ADD PUSH2 0xA42 SWAP1 PUSH2 0x1A8E JUMP JUMPDEST PUSH1 0x40 MLOAD DUP1 SWAP2 SUB SWAP1 REVERT JUMPDEST DUP2 DUP2 DUP2 MLOAD DUP2 LT PUSH2 0xA5E JUMPI PUSH2 0xA5D PUSH2 0x1395 JUMP JUMPDEST JUMPDEST PUSH1 0x20 MUL PUSH1 0x20 ADD ADD MLOAD PUSH1 0x2 DUP5 DUP4 DUP2 MLOAD DUP2 LT PUSH2 0xA7B JUMPI PUSH2 0xA7A PUSH2 0x1395 JUMP JUMPDEST JUMPDEST PUSH1 0x20 MUL PUSH1 0x20 ADD ADD MLOAD PUSH1 0x40 MLOAD PUSH2 0xA90 SWAP2 SWAP1 PUSH2 0x13FC JUMP JUMPDEST SWAP1 DUP2 MSTORE PUSH1 0x20 ADD PUSH1 0x40 MLOAD DUP1 SWAP2 SUB SWAP1 KECCAK256 SWAP1 DUP2 PUSH2 0xAAA SWAP2 SWAP1 PUSH2 0x160C JUMP JUMPDEST POP PUSH1 0x1 DUP4 DUP3 DUP2 MLOAD DUP2 LT PUSH2 0xAC0 JUMPI PUSH2 0xABF PUSH2 0x1395 JUMP JUMPDEST JUMPDEST PUSH1 0x20 MUL PUSH1 0x20 ADD ADD MLOAD SWAP1 DUP1 PUSH1 0x1 DUP2 SLOAD ADD DUP1 DUP3 SSTORE DUP1 SWAP2 POP POP PUSH1 0x1 SWAP1 SUB SWAP1 PUSH0 MSTORE PUSH1 0x20 PUSH0 KECCAK256 ADD PUSH0 SWAP1 SWAP2 SWAP1 SWAP2 SWAP1 SWAP2 POP SWAP1 DUP2 PUSH2 0xAF6 SWAP2 SWAP1 PUSH2 0x160C JUMP JUMPDEST POP PUSH1 0x1 DUP1 DUP1 SLOAD SWAP1 POP PUSH2 0xB08 SWAP2 SWAP1 PUSH2 0x1997 JUMP JUMPDEST PUSH1 0x3 DUP5 DUP4 DUP2 MLOAD DUP2 LT PUSH2 0xB1D JUMPI PUSH2 0xB1C PUSH2 0x1395 JUMP JUMPDEST JUMPDEST PUSH1 0x20 MUL PUSH1 0x20 ADD ADD MLOAD PUSH1 0x40 MLOAD PUSH2 0xB32 SWAP2 SWAP1 PUSH2 0x13FC JUMP JUMPDEST SWAP1 DUP2 MSTORE PUSH1 0x20 ADD PUSH1 0x40 MLOAD DUP1 SWAP2 SUB SWAP1 KECCAK256 DUP2 SWAP1 SSTORE POP DUP1 DUP1 PUSH1 0x1 ADD SWAP2 POP POP PUSH2 0x9BC JUMP JUMPDEST POP PUSH32 0x5462CCA44BD73F863D8A33C18EDDEA04A24E4AC8E252404333DD97AC7A732AC8 DUP3 PUSH1 0x40 MLOAD PUSH2 0xB81 SWAP2 SWAP1 PUSH2 0x1AF6 JUMP JUMPDEST PUSH1 0x40 MLOAD DUP1 SWAP2 SUB SWAP1 LOG1 POP POP JUMP JUMPDEST PUSH2 0xB95 PUSH2 0xCD5 JUMP JUMPDEST PUSH20 0xFFFFFFFFFFFFFFFFFFFFFFFFFFFFFFFFFFFFFFFF AND PUSH2 0xBB3 PUSH2 0x342 JUMP JUMPDEST PUSH20 0xFFFFFFFFFFFFFFFFFFFFFFFFFFFFFFFFFFFFFFFF AND EQ PUSH2 0xC12 JUMPI PUSH2 0xBD6 PUSH2 0xCD5 JUMP JUMPDEST PUSH1 0x40 MLOAD PUSH32 0x118CDAA700000000000000000000000000000000000000000000000000000000 DUP2 MSTORE PUSH1 0x4 ADD PUSH2 0xC09 SWAP2 SWAP1 PUSH2 0xFE9 JUMP JUMPDEST PUSH1 0x40 MLOAD DUP1 SWAP2 SUB SWAP1 REVERT JUMPDEST JUMP JUMPDEST PUSH0 DUP1 PUSH0 SWAP1 SLOAD SWAP1 PUSH2 0x100 EXP SWAP1 DIV PUSH20 0xFFFFFFFFFFFFFFFFFFFFFFFFFFFFFFFFFFFFFFFF AND SWAP1 POP DUP2 PUSH0 DUP1 PUSH2 0x100 EXP DUP2 SLOAD DUP2 PUSH20 0xFFFFFFFFFFFFFFFFFFFFFFFFFFFFFFFFFFFFFFFF MUL NOT AND SWAP1 DUP4 PUSH20 0xFFFFFFFFFFFFFFFFFFFFFFFFFFFFFFFFFFFFFFFF AND MUL OR SWAP1 SSTORE POP DUP2 PUSH20 0xFFFFFFFFFFFFFFFFFFFFFFFFFFFFFFFFFFFFFFFF AND DUP2 PUSH20 0xFFFFFFFFFFFFFFFFFFFFFFFFFFFFFFFFFFFFFFFF AND PUSH32 0x8BE0079C531659141344CD1FD0A4F28419497F9722A3DAAFE3B4186F6B6457E0 PUSH1 0x40 MLOAD PUSH1 0x40 MLOAD DUP1 SWAP2 SUB SWAP1 LOG3 POP POP JUMP JUMPDEST PUSH0 CALLER SWAP1 POP SWAP1 JUMP JUMPDEST POP DUP1 SLOAD PUSH2 0xCE8 SWAP1 PUSH2 0x143F JUMP JUMPDEST PUSH0 DUP3 SSTORE DUP1 PUSH1 0x1F LT PUSH2 0xCF9 JUMPI POP PUSH2 0xD16 JUMP JUMPDEST PUSH1 0x1F ADD PUSH1 0x20 SWAP1 DIV SWAP1 PUSH0 MSTORE PUSH1 0x20 PUSH0 KECCAK256 SWAP1 DUP2 ADD SWAP1 PUSH2 0xD15 SWAP2 SWAP1 PUSH2 0xD19 JUMP JUMPDEST JUMPDEST POP JUMP JUMPDEST JUMPDEST DUP1 DUP3 GT ISZERO PUSH2 0xD30 JUMPI PUSH0 DUP2 PUSH0 SWAP1 SSTORE POP PUSH1 0x1 ADD PUSH2 0xD1A JUMP JUMPDEST POP SWAP1 JUMP JUMPDEST PUSH0 PUSH1 0x40 MLOAD SWAP1 POP SWAP1 JUMP JUMPDEST PUSH0 DUP1 REVERT JUMPDEST PUSH0 DUP1 REVERT JUMPDEST PUSH0 DUP1 REVERT JUMPDEST PUSH0 PUSH1 0x1F NOT PUSH1 0x1F DUP4 ADD AND SWAP1 POP SWAP2 SWAP1 POP JUMP JUMPDEST PUSH32 0x4E487B7100000000000000000000000000000000000000000000000000000000 PUSH0 MSTORE PUSH1 0x41 PUSH1 0x4 MSTORE PUSH1 0x24 PUSH0 REVERT JUMPDEST PUSH2 0xD8F DUP3 PUSH2 0xD49 JUMP JUMPDEST DUP2 ADD DUP2 DUP2 LT PUSH8 0xFFFFFFFFFFFFFFFF DUP3 GT OR ISZERO PUSH2 0xDAE JUMPI PUSH2 0xDAD PUSH2 0xD59 JUMP JUMPDEST JUMPDEST DUP1 PUSH1 0x40 MSTORE POP POP POP JUMP JUMPDEST PUSH0 PUSH2 0xDC0 PUSH2 0xD34 JUMP JUMPDEST SWAP1 POP PUSH2 0xDCC DUP3 DUP3 PUSH2 0xD86 JUMP JUMPDEST SWAP2 SWAP1 POP JUMP JUMPDEST PUSH0 PUSH8 0xFFFFFFFFFFFFFFFF DUP3 GT ISZERO PUSH2 0xDEB JUMPI PUSH2 0xDEA PUSH2 0xD59 JUMP JUMPDEST JUMPDEST PUSH1 0x20 DUP3 MUL SWAP1 POP PUSH1 0x20 DUP2 ADD SWAP1 POP SWAP2 SWAP1 POP JUMP JUMPDEST PUSH0 DUP1 REVERT JUMPDEST PUSH0 DUP1 REVERT JUMPDEST PUSH0 PUSH8 0xFFFFFFFFFFFFFFFF DUP3 GT ISZERO PUSH2 0xE1E JUMPI PUSH2 0xE1D PUSH2 0xD59 JUMP JUMPDEST JUMPDEST PUSH2 0xE27 DUP3 PUSH2 0xD49 JUMP JUMPDEST SWAP1 POP PUSH1 0x20 DUP2 ADD SWAP1 POP SWAP2 SWAP1 POP JUMP JUMPDEST DUP3 DUP2 DUP4 CALLDATACOPY PUSH0 DUP4 DUP4 ADD MSTORE POP POP POP JUMP JUMPDEST PUSH0 PUSH2 0xE54 PUSH2 0xE4F DUP5 PUSH2 0xE04 JUMP JUMPDEST PUSH2 0xDB7 JUMP JUMPDEST SWAP1 POP DUP3 DUP2 MSTORE PUSH1 0x20 DUP2 ADD DUP5 DUP5 DUP5 ADD GT ISZERO PUSH2 0xE70 JUMPI PUSH2 0xE6F PUSH2 0xE00 JUMP JUMPDEST JUMPDEST PUSH2 0xE7B DUP5 DUP3 DUP6 PUSH2 0xE34 JUMP JUMPDEST POP SWAP4 SWAP3 POP POP POP JUMP JUMPDEST PUSH0 DUP3 PUSH1 0x1F DUP4 ADD SLT PUSH2 0xE97 JUMPI PUSH2 0xE96 PUSH2 0xD45 JUMP JUMPDEST JUMPDEST DUP2 CALLDATALOAD PUSH2 0xEA7 DUP5 DUP3 PUSH1 0x20 DUP7 ADD PUSH2 0xE42 JUMP JUMPDEST SWAP2 POP POP SWAP3 SWAP2 POP POP JUMP JUMPDEST PUSH0 PUSH2 0xEC2 PUSH2 0xEBD DUP5 PUSH2 0xDD1 JUMP JUMPDEST PUSH2 0xDB7 JUMP JUMPDEST SWAP1 POP DUP1 DUP4 DUP3 MSTORE PUSH1 0x20 DUP3 ADD SWAP1 POP PUSH1 0x20 DUP5 MUL DUP4 ADD DUP6 DUP2 GT ISZERO PUSH2 0xEE5 JUMPI PUSH2 0xEE4 PUSH2 0xDFC JUMP JUMPDEST JUMPDEST DUP4 JUMPDEST DUP2 DUP2 LT ISZERO PUSH2 0xF2C JUMPI DUP1 CALLDATALOAD PUSH8 0xFFFFFFFFFFFFFFFF DUP2 GT ISZERO PUSH2 0xF0A JUMPI PUSH2 0xF09 PUSH2 0xD45 JUMP JUMPDEST JUMPDEST DUP1 DUP7 ADD PUSH2 0xF17 DUP10 DUP3 PUSH2 0xE83 JUMP JUMPDEST DUP6 MSTORE PUSH1 0x20 DUP6 ADD SWAP5 POP POP POP PUSH1 0x20 DUP2 ADD SWAP1 POP PUSH2 0xEE7 JUMP JUMPDEST POP POP POP SWAP4 SWAP3 POP POP POP JUMP JUMPDEST PUSH0 DUP3 PUSH1 0x1F DUP4 ADD SLT PUSH2 0xF4A JUMPI PUSH2 0xF49 PUSH2 0xD45 JUMP JUMPDEST JUMPDEST DUP2 CALLDATALOAD PUSH2 0xF5A DUP5 DUP3 PUSH1 0x20 DUP7 ADD PUSH2 0xEB0 JUMP JUMPDEST SWAP2 POP POP SWAP3 SWAP2 POP POP JUMP JUMPDEST PUSH0 PUSH1 0x20 DUP3 DUP5 SUB SLT ISZERO PUSH2 0xF78 JUMPI PUSH2 0xF77 PUSH2 0xD3D JUMP JUMPDEST JUMPDEST PUSH0 DUP3 ADD CALLDATALOAD PUSH8 0xFFFFFFFFFFFFFFFF DUP2 GT ISZERO PUSH2 0xF95 JUMPI PUSH2 0xF94 PUSH2 0xD41 JUMP JUMPDEST JUMPDEST PUSH2 0xFA1 DUP5 DUP3 DUP6 ADD PUSH2 0xF36 JUMP JUMPDEST SWAP2 POP POP SWAP3 SWAP2 POP POP JUMP JUMPDEST PUSH0 PUSH20 0xFFFFFFFFFFFFFFFFFFFFFFFFFFFFFFFFFFFFFFFF DUP3 AND SWAP1 POP SWAP2 SWAP1 POP JUMP JUMPDEST PUSH0 PUSH2 0xFD3 DUP3 PUSH2 0xFAA JUMP JUMPDEST SWAP1 POP SWAP2 SWAP1 POP JUMP JUMPDEST PUSH2 0xFE3 DUP2 PUSH2 0xFC9 JUMP JUMPDEST DUP3 MSTORE POP POP JUMP JUMPDEST PUSH0 PUSH1 0x20 DUP3 ADD SWAP1 POP PUSH2 0xFFC PUSH0 DUP4 ADD DUP5 PUSH2 0xFDA JUMP JUMPDEST SWAP3 SWAP2 POP POP JUMP JUMPDEST PUSH0 DUP1 PUSH1 0x40 DUP4 DUP6 SUB SLT ISZERO PUSH2 0x1018 JUMPI PUSH2 0x1017 PUSH2 0xD3D JUMP JUMPDEST JUMPDEST PUSH0 DUP4 ADD CALLDATALOAD PUSH8 0xFFFFFFFFFFFFFFFF DUP2 GT ISZERO PUSH2 0x1035 JUMPI PUSH2 0x1034 PUSH2 0xD41 JUMP JUMPDEST JUMPDEST PUSH2 0x1041 DUP6 DUP3 DUP7 ADD PUSH2 0xF36 JUMP JUMPDEST SWAP3 POP POP PUSH1 0x20 DUP4 ADD CALLDATALOAD PUSH8 0xFFFFFFFFFFFFFFFF DUP2 GT ISZERO PUSH2 0x1062 JUMPI PUSH2 0x1061 PUSH2 0xD41 JUMP JUMPDEST JUMPDEST PUSH2 0x106E DUP6 DUP3 DUP7 ADD PUSH2 0xF36 JUMP JUMPDEST SWAP2 POP POP SWAP3 POP SWAP3 SWAP1 POP JUMP JUMPDEST PUSH0 DUP2 SWAP1 POP SWAP2 SWAP1 POP JUMP JUMPDEST PUSH2 0x108A DUP2 PUSH2 0x1078 JUMP JUMPDEST DUP3 MSTORE POP POP JUMP JUMPDEST PUSH0 PUSH1 0x20 DUP3 ADD SWAP1 POP PUSH2 0x10A3 PUSH0 DUP4 ADD DUP5 PUSH2 0x1081 JUMP JUMPDEST SWAP3 SWAP2 POP POP JUMP JUMPDEST PUSH0 PUSH1 0x20 DUP3 DUP5 SUB SLT ISZERO PUSH2 0x10BE JUMPI PUSH2 0x10BD PUSH2 0xD3D JUMP JUMPDEST JUMPDEST PUSH0 DUP3 ADD CALLDATALOAD PUSH8 0xFFFFFFFFFFFFFFFF DUP2 GT ISZERO PUSH2 0x10DB JUMPI PUSH2 0x10DA PUSH2 0xD41 JUMP JUMPDEST JUMPDEST PUSH2 0x10E7 DUP5 DUP3 DUP6 ADD PUSH2 0xE83 JUMP JUMPDEST SWAP2 POP POP SWAP3 SWAP2 POP POP JUMP JUMPDEST PUSH0 DUP2 MLOAD SWAP1 POP SWAP2 SWAP1 POP JUMP JUMPDEST PUSH0 DUP3 DUP3 MSTORE PUSH1 0x20 DUP3 ADD SWAP1 POP SWAP3 SWAP2 POP POP JUMP JUMPDEST PUSH0 JUMPDEST DUP4 DUP2 LT ISZERO PUSH2 0x1127 JUMPI DUP1 DUP3 ADD MLOAD DUP2 DUP5 ADD MSTORE PUSH1 0x20 DUP2 ADD SWAP1 POP PUSH2 0x110C JUMP JUMPDEST PUSH0 DUP5 DUP5 ADD MSTORE POP POP POP POP JUMP JUMPDEST PUSH0 PUSH2 0x113C DUP3 PUSH2 0x10F0 JUMP JUMPDEST PUSH2 0x1146 DUP2 DUP6 PUSH2 0x10FA JUMP JUMPDEST SWAP4 POP PUSH2 0x1156 DUP2 DUP6 PUSH1 0x20 DUP7 ADD PUSH2 0x110A JUMP JUMPDEST PUSH2 0x115F DUP2 PUSH2 0xD49 JUMP JUMPDEST DUP5 ADD SWAP2 POP POP SWAP3 SWAP2 POP POP JUMP JUMPDEST PUSH0 PUSH1 0x20 DUP3 ADD SWAP1 POP DUP2 DUP2 SUB PUSH0 DUP4 ADD MSTORE PUSH2 0x1182 DUP2 DUP5 PUSH2 0x1132 JUMP JUMPDEST SWAP1 POP SWAP3 SWAP2 POP POP JUMP JUMPDEST PUSH2 0x1193 DUP2 PUSH2 0x1078 JUMP JUMPDEST DUP2 EQ PUSH2 0x119D JUMPI PUSH0 DUP1 REVERT JUMPDEST POP JUMP JUMPDEST PUSH0 DUP2 CALLDATALOAD SWAP1 POP PUSH2 0x11AE DUP2 PUSH2 0x118A JUMP JUMPDEST SWAP3 SWAP2 POP POP JUMP JUMPDEST PUSH0 PUSH1 0x20 DUP3 DUP5 SUB SLT ISZERO PUSH2 0x11C9 JUMPI PUSH2 0x11C8 PUSH2 0xD3D JUMP JUMPDEST JUMPDEST PUSH0 PUSH2 0x11D6 DUP5 DUP3 DUP6 ADD PUSH2 0x11A0 JUMP JUMPDEST SWAP2 POP POP SWAP3 SWAP2 POP POP JUMP JUMPDEST PUSH0 DUP1 PUSH1 0x40 DUP4 DUP6 SUB SLT ISZERO PUSH2 0x11F5 JUMPI PUSH2 0x11F4 PUSH2 0xD3D JUMP JUMPDEST JUMPDEST PUSH0 PUSH2 0x1202 DUP6 DUP3 DUP7 ADD PUSH2 0x11A0 JUMP JUMPDEST SWAP3 POP POP PUSH1 0x20 PUSH2 0x1213 DUP6 DUP3 DUP7 ADD PUSH2 0x11A0 JUMP JUMPDEST SWAP2 POP POP SWAP3 POP SWAP3 SWAP1 POP JUMP JUMPDEST PUSH0 DUP2 MLOAD SWAP1 POP SWAP2 SWAP1 POP JUMP JUMPDEST PUSH0 DUP3 DUP3 MSTORE PUSH1 0x20 DUP3 ADD SWAP1 POP SWAP3 SWAP2 POP POP JUMP JUMPDEST PUSH0 DUP2 SWAP1 POP PUSH1 0x20 DUP3 ADD SWAP1 POP SWAP2 SWAP1 POP JUMP JUMPDEST PUSH0 DUP3 DUP3 MSTORE PUSH1 0x20 DUP3 ADD SWAP1 POP SWAP3 SWAP2 POP POP JUMP JUMPDEST PUSH0 PUSH2 0x1260 DUP3 PUSH2 0x10F0 JUMP JUMPDEST PUSH2 0x126A DUP2 DUP6 PUSH2 0x1246 JUMP JUMPDEST SWAP4 POP PUSH2 0x127A DUP2 DUP6 PUSH1 0x20 DUP7 ADD PUSH2 0x110A JUMP JUMPDEST PUSH2 0x1283 DUP2 PUSH2 0xD49 JUMP JUMPDEST DUP5 ADD SWAP2 POP POP SWAP3 SWAP2 POP POP JUMP JUMPDEST PUSH0 PUSH2 0x1299 DUP4 DUP4 PUSH2 0x1256 JUMP JUMPDEST SWAP1 POP SWAP3 SWAP2 POP POP JUMP JUMPDEST PUSH0 PUSH1 0x20 DUP3 ADD SWAP1 POP SWAP2 SWAP1 POP JUMP JUMPDEST PUSH0 PUSH2 0x12B7 DUP3 PUSH2 0x121D JUMP JUMPDEST PUSH2 0x12C1 DUP2 DUP6 PUSH2 0x1227 JUMP JUMPDEST SWAP4 POP DUP4 PUSH1 0x20 DUP3 MUL DUP6 ADD PUSH2 0x12D3 DUP6 PUSH2 0x1237 JUMP JUMPDEST DUP1 PUSH0 JUMPDEST DUP6 DUP2 LT ISZERO PUSH2 0x130E JUMPI DUP5 DUP5 SUB DUP10 MSTORE DUP2 MLOAD PUSH2 0x12EF DUP6 DUP3 PUSH2 0x128E JUMP JUMPDEST SWAP5 POP PUSH2 0x12FA DUP4 PUSH2 0x12A1 JUMP JUMPDEST SWAP3 POP PUSH1 0x20 DUP11 ADD SWAP10 POP POP PUSH1 0x1 DUP2 ADD SWAP1 POP PUSH2 0x12D6 JUMP JUMPDEST POP DUP3 SWAP8 POP DUP8 SWAP6 POP POP POP POP POP POP SWAP3 SWAP2 POP POP JUMP JUMPDEST PUSH0 PUSH1 0x20 DUP3 ADD SWAP1 POP DUP2 DUP2 SUB PUSH0 DUP4 ADD MSTORE PUSH2 0x1338 DUP2 DUP5 PUSH2 0x12AD JUMP JUMPDEST SWAP1 POP SWAP3 SWAP2 POP POP JUMP JUMPDEST PUSH2 0x1349 DUP2 PUSH2 0xFC9 JUMP JUMPDEST DUP2 EQ PUSH2 0x1353 JUMPI PUSH0 DUP1 REVERT JUMPDEST POP JUMP JUMPDEST PUSH0 DUP2 CALLDATALOAD SWAP1 POP PUSH2 0x1364 DUP2 PUSH2 0x1340 JUMP JUMPDEST SWAP3 SWAP2 POP POP JUMP JUMPDEST PUSH0 PUSH1 0x20 DUP3 DUP5 SUB SLT ISZERO PUSH2 0x137F JUMPI PUSH2 0x137E PUSH2 0xD3D JUMP JUMPDEST JUMPDEST PUSH0 PUSH2 0x138C DUP5 DUP3 DUP6 ADD PUSH2 0x1356 JUMP JUMPDEST SWAP2 POP POP SWAP3 SWAP2 POP POP JUMP JUMPDEST PUSH32 0x4E487B7100000000000000000000000000000000000000000000000000000000 PUSH0 MSTORE PUSH1 0x32 PUSH1 0x4 MSTORE PUSH1 0x24 PUSH0 REVERT JUMPDEST PUSH0 DUP2 SWAP1 POP SWAP3 SWAP2 POP POP JUMP JUMPDEST PUSH0 PUSH2 0x13D6 DUP3 PUSH2 0x10F0 JUMP JUMPDEST PUSH2 0x13E0 DUP2 DUP6 PUSH2 0x13C2 JUMP JUMPDEST SWAP4 POP PUSH2 0x13F0 DUP2 DUP6 PUSH1 0x20 DUP7 ADD PUSH2 0x110A JUMP JUMPDEST DUP1 DUP5 ADD SWAP2 POP POP SWAP3 SWAP2 POP POP JUMP JUMPDEST PUSH0 PUSH2 0x1407 DUP3 DUP5 PUSH2 0x13CC JUMP JUMPDEST SWAP2 POP DUP2 SWAP1 POP SWAP3 SWAP2 POP POP JUMP JUMPDEST PUSH32 0x4E487B7100000000000000000000000000000000000000000000000000000000 PUSH0 MSTORE PUSH1 0x22 PUSH1 0x4 MSTORE PUSH1 0x24 PUSH0 REVERT JUMPDEST PUSH0 PUSH1 0x2 DUP3 DIV SWAP1 POP PUSH1 0x1 DUP3 AND DUP1 PUSH2 0x1456 JUMPI PUSH1 0x7F DUP3 AND SWAP2 POP JUMPDEST PUSH1 0x20 DUP3 LT DUP2 SUB PUSH2 0x1469 JUMPI PUSH2 0x1468 PUSH2 0x1412 JUMP JUMPDEST JUMPDEST POP SWAP2 SWAP1 POP JUMP JUMPDEST PUSH0 DUP2 SWAP1 POP DUP2 PUSH0 MSTORE PUSH1 0x20 PUSH0 KECCAK256 SWAP1 POP SWAP2 SWAP1 POP JUMP JUMPDEST PUSH0 PUSH1 0x20 PUSH1 0x1F DUP4 ADD DIV SWAP1 POP SWAP2 SWAP1 POP JUMP JUMPDEST PUSH0 DUP3 DUP3 SHL SWAP1 POP SWAP3 SWAP2 POP POP JUMP JUMPDEST PUSH0 PUSH1 0x8 DUP4 MUL PUSH2 0x14CB PUSH32 0xFFFFFFFFFFFFFFFFFFFFFFFFFFFFFFFFFFFFFFFFFFFFFFFFFFFFFFFFFFFFFFFF DUP3 PUSH2 0x1490 JUMP JUMPDEST PUSH2 0x14D5 DUP7 DUP4 PUSH2 0x1490 JUMP JUMPDEST SWAP6 POP DUP1 NOT DUP5 AND SWAP4 POP DUP1 DUP7 AND DUP5 OR SWAP3 POP POP POP SWAP4 SWAP3 POP POP POP JUMP JUMPDEST PUSH0 DUP2 SWAP1 POP SWAP2 SWAP1 POP JUMP JUMPDEST PUSH0 PUSH2 0x1510 PUSH2 0x150B PUSH2 0x1506 DUP5 PUSH2 0x1078 JUMP JUMPDEST PUSH2 0x14ED JUMP JUMPDEST PUSH2 0x1078 JUMP JUMPDEST SWAP1 POP SWAP2 SWAP1 POP JUMP JUMPDEST PUSH0 DUP2 SWAP1 POP SWAP2 SWAP1 POP JUMP JUMPDEST PUSH2 0x1529 DUP4 PUSH2 0x14F6 JUMP JUMPDEST PUSH2 0x153D PUSH2 0x1535 DUP3 PUSH2 0x1517 JUMP JUMPDEST DUP5 DUP5 SLOAD PUSH2 0x149C JUMP JUMPDEST DUP3 SSTORE POP POP POP POP JUMP JUMPDEST PUSH0 SWAP1 JUMP JUMPDEST PUSH2 0x1551 PUSH2 0x1545 JUMP JUMPDEST PUSH2 0x155C DUP2 DUP5 DUP5 PUSH2 0x1520 JUMP JUMPDEST POP POP POP JUMP JUMPDEST JUMPDEST DUP2 DUP2 LT ISZERO PUSH2 0x157F JUMPI PUSH2 0x1574 PUSH0 DUP3 PUSH2 0x1549 JUMP JUMPDEST PUSH1 0x1 DUP2 ADD SWAP1 POP PUSH2 0x1562 JUMP JUMPDEST POP POP JUMP JUMPDEST PUSH1 0x1F DUP3 GT ISZERO PUSH2 0x15C4 JUMPI PUSH2 0x1595 DUP2 PUSH2 0x146F JUMP JUMPDEST PUSH2 0x159E DUP5 PUSH2 0x1481 JUMP JUMPDEST DUP2 ADD PUSH1 0x20 DUP6 LT ISZERO PUSH2 0x15AD JUMPI DUP2 SWAP1 POP JUMPDEST PUSH2 0x15C1 PUSH2 0x15B9 DUP6 PUSH2 0x1481 JUMP JUMPDEST DUP4 ADD DUP3 PUSH2 0x1561 JUMP JUMPDEST POP POP JUMPDEST POP POP POP JUMP JUMPDEST PUSH0 DUP3 DUP3 SHR SWAP1 POP SWAP3 SWAP2 POP POP JUMP JUMPDEST PUSH0 PUSH2 0x15E4 PUSH0 NOT DUP5 PUSH1 0x8 MUL PUSH2 0x15C9 JUMP JUMPDEST NOT DUP1 DUP4 AND SWAP2 POP POP SWAP3 SWAP2 POP POP JUMP JUMPDEST PUSH0 PUSH2 0x15FC DUP4 DUP4 PUSH2 0x15D5 JUMP JUMPDEST SWAP2 POP DUP3 PUSH1 0x2 MUL DUP3 OR SWAP1 POP SWAP3 SWAP2 POP POP JUMP JUMPDEST PUSH2 0x1615 DUP3 PUSH2 0x10F0 JUMP JUMPDEST PUSH8 0xFFFFFFFFFFFFFFFF DUP2 GT ISZERO PUSH2 0x162E JUMPI PUSH2 0x162D PUSH2 0xD59 JUMP JUMPDEST JUMPDEST PUSH2 0x1638 DUP3 SLOAD PUSH2 0x143F JUMP JUMPDEST PUSH2 0x1643 DUP3 DUP3 DUP6 PUSH2 0x1583 JUMP JUMPDEST PUSH0 PUSH1 0x20 SWAP1 POP PUSH1 0x1F DUP4 GT PUSH1 0x1 DUP2 EQ PUSH2 0x1674 JUMPI PUSH0 DUP5 ISZERO PUSH2 0x1662 JUMPI DUP3 DUP8 ADD MLOAD SWAP1 POP JUMPDEST PUSH2 0x166C DUP6 DUP3 PUSH2 0x15F1 JUMP JUMPDEST DUP7 SSTORE POP PUSH2 0x16D3 JUMP JUMPDEST PUSH1 0x1F NOT DUP5 AND PUSH2 0x1682 DUP7 PUSH2 0x146F JUMP JUMPDEST PUSH0 JUMPDEST DUP3 DUP2 LT ISZERO PUSH2 0x16A9 JUMPI DUP5 DUP10 ADD MLOAD DUP3 SSTORE PUSH1 0x1 DUP3 ADD SWAP2 POP PUSH1 0x20 DUP6 ADD SWAP5 POP PUSH1 0x20 DUP2 ADD SWAP1 POP PUSH2 0x1684 JUMP JUMPDEST DUP7 DUP4 LT ISZERO PUSH2 0x16C6 JUMPI DUP5 DUP10 ADD MLOAD PUSH2 0x16C2 PUSH1 0x1F DUP10 AND DUP3 PUSH2 0x15D5 JUMP JUMPDEST DUP4 SSTORE POP JUMPDEST PUSH1 0x1 PUSH1 0x2 DUP9 MUL ADD DUP9 SSTORE POP POP POP JUMPDEST POP POP POP POP POP POP JUMP JUMPDEST PUSH32 0x55454E732072656D6F7665640000000000000000000000000000000000000000 PUSH0 DUP3 ADD MSTORE POP JUMP JUMPDEST PUSH0 PUSH2 0x170F PUSH1 0xC DUP4 PUSH2 0x10FA JUMP JUMPDEST SWAP2 POP PUSH2 0x171A DUP3 PUSH2 0x16DB JUMP JUMPDEST PUSH1 0x20 DUP3 ADD SWAP1 POP SWAP2 SWAP1 POP JUMP JUMPDEST PUSH0 PUSH1 0x40 DUP3 ADD SWAP1 POP DUP2 DUP2 SUB PUSH0 DUP4 ADD MSTORE PUSH2 0x173D DUP2 DUP5 PUSH2 0x12AD JUMP JUMPDEST SWAP1 POP DUP2 DUP2 SUB PUSH1 0x20 DUP4 ADD MSTORE PUSH2 0x1750 DUP2 PUSH2 0x1703 JUMP JUMPDEST SWAP1 POP SWAP3 SWAP2 POP POP JUMP JUMPDEST PUSH32 0x4D617070696E6773206D7573742068617665207468652073616D65206C656E67 PUSH0 DUP3 ADD MSTORE PUSH32 0x7468000000000000000000000000000000000000000000000000000000000000 PUSH1 0x20 DUP3 ADD MSTORE POP JUMP JUMPDEST PUSH0 PUSH2 0x17B2 PUSH1 0x22 DUP4 PUSH2 0x10FA JUMP JUMPDEST SWAP2 POP PUSH2 0x17BD DUP3 PUSH2 0x1758 JUMP JUMPDEST PUSH1 0x40 DUP3 ADD SWAP1 POP SWAP2 SWAP1 POP JUMP JUMPDEST PUSH0 PUSH1 0x20 DUP3 ADD SWAP1 POP DUP2 DUP2 SUB PUSH0 DUP4 ADD MSTORE PUSH2 0x17DF DUP2 PUSH2 0x17A6 JUMP JUMPDEST SWAP1 POP SWAP2 SWAP1 POP JUMP JUMPDEST PUSH32 0x55454E20646F6573206E6F742065786973740000000000000000000000000000 PUSH0 DUP3 ADD MSTORE POP JUMP JUMPDEST PUSH0 PUSH2 0x181A PUSH1 0x12 DUP4 PUSH2 0x10FA JUMP JUMPDEST SWAP2 POP PUSH2 0x1825 DUP3 PUSH2 0x17E6 JUMP JUMPDEST PUSH1 0x20 DUP3 ADD SWAP1 POP SWAP2 SWAP1 POP JUMP JUMPDEST PUSH0 PUSH1 0x20 DUP3 ADD SWAP1 POP DUP2 DUP2 SUB PUSH0 DUP4 ADD MSTORE PUSH2 0x1847 DUP2 PUSH2 0x180E JUMP JUMPDEST SWAP1 POP SWAP2 SWAP1 POP JUMP JUMPDEST PUSH32 0x537461727420696E646578206D757374206265206C657373207468616E206F72 PUSH0 DUP3 ADD MSTORE PUSH32 0x20657175616C20746F20656E6420696E64657800000000000000000000000000 PUSH1 0x20 DUP3 ADD MSTORE POP JUMP JUMPDEST PUSH0 PUSH2 0x18A8 PUSH1 0x33 DUP4 PUSH2 0x10FA JUMP JUMPDEST SWAP2 POP PUSH2 0x18B3 DUP3 PUSH2 0x184E JUMP JUMPDEST PUSH1 0x40 DUP3 ADD SWAP1 POP SWAP2 SWAP1 POP JUMP JUMPDEST PUSH0 PUSH1 0x20 DUP3 ADD SWAP1 POP DUP2 DUP2 SUB PUSH0 DUP4 ADD MSTORE PUSH2 0x18D5 DUP2 PUSH2 0x189C JUMP JUMPDEST SWAP1 POP SWAP2 SWAP1 POP JUMP JUMPDEST PUSH32 0x456E6420696E646578206D757374206265206C657373207468616E2074686520 PUSH0 DUP3 ADD MSTORE PUSH32 0x6C656E677468206F6620746865206C6973740000000000000000000000000000 PUSH1 0x20 DUP3 ADD MSTORE POP JUMP JUMPDEST PUSH0 PUSH2 0x1936 PUSH1 0x32 DUP4 PUSH2 0x10FA JUMP JUMPDEST SWAP2 POP PUSH2 0x1941 DUP3 PUSH2 0x18DC JUMP JUMPDEST PUSH1 0x40 DUP3 ADD SWAP1 POP SWAP2 SWAP1 POP JUMP JUMPDEST PUSH0 PUSH1 0x20 DUP3 ADD SWAP1 POP DUP2 DUP2 SUB PUSH0 DUP4 ADD MSTORE PUSH2 0x1963 DUP2 PUSH2 0x192A JUMP JUMPDEST SWAP1 POP SWAP2 SWAP1 POP JUMP JUMPDEST PUSH32 0x4E487B7100000000000000000000000000000000000000000000000000000000 PUSH0 MSTORE PUSH1 0x11 PUSH1 0x4 MSTORE PUSH1 0x24 PUSH0 REVERT JUMPDEST PUSH0 PUSH2 0x19A1 DUP3 PUSH2 0x1078 JUMP JUMPDEST SWAP2 POP PUSH2 0x19AC DUP4 PUSH2 0x1078 JUMP JUMPDEST SWAP3 POP DUP3 DUP3 SUB SWAP1 POP DUP2 DUP2 GT ISZERO PUSH2 0x19C4 JUMPI PUSH2 0x19C3 PUSH2 0x196A JUMP JUMPDEST JUMPDEST SWAP3 SWAP2 POP POP JUMP JUMPDEST PUSH0 PUSH2 0x19D4 DUP3 PUSH2 0x1078 JUMP JUMPDEST SWAP2 POP PUSH2 0x19DF DUP4 PUSH2 0x1078 JUMP JUMPDEST SWAP3 POP DUP3 DUP3 ADD SWAP1 POP DUP1 DUP3 GT ISZERO PUSH2 0x19F7 JUMPI PUSH2 0x19F6 PUSH2 0x196A JUMP JUMPDEST JUMPDEST SWAP3 SWAP2 POP POP JUMP JUMPDEST PUSH0 PUSH2 0x1A07 DUP3 PUSH2 0x1078 JUMP JUMPDEST SWAP2 POP PUSH32 0xFFFFFFFFFFFFFFFFFFFFFFFFFFFFFFFFFFFFFFFFFFFFFFFFFFFFFFFFFFFFFFFF DUP3 SUB PUSH2 0x1A39 JUMPI PUSH2 0x1A38 PUSH2 0x196A JUMP JUMPDEST JUMPDEST PUSH1 0x1 DUP3 ADD SWAP1 POP SWAP2 SWAP1 POP JUMP JUMPDEST PUSH32 0x55454E20616C7265616479206578697374730000000000000000000000000000 PUSH0 DUP3 ADD MSTORE POP JUMP JUMPDEST PUSH0 PUSH2 0x1A78 PUSH1 0x12 DUP4 PUSH2 0x10FA JUMP JUMPDEST SWAP2 POP PUSH2 0x1A83 DUP3 PUSH2 0x1A44 JUMP JUMPDEST PUSH1 0x20 DUP3 ADD SWAP1 POP SWAP2 SWAP1 POP JUMP JUMPDEST PUSH0 PUSH1 0x20 DUP3 ADD SWAP1 POP DUP2 DUP2 SUB PUSH0 DUP4 ADD MSTORE PUSH2 0x1AA5 DUP2 PUSH2 0x1A6C JUMP JUMPDEST SWAP1 POP SWAP2 SWAP1 POP JUMP JUMPDEST PUSH32 0x55454E7320616464656400000000000000000000000000000000000000000000 PUSH0 DUP3 ADD MSTORE POP JUMP JUMPDEST PUSH0 PUSH2 0x1AE0 PUSH1 0xA DUP4 PUSH2 0x10FA JUMP JUMPDEST SWAP2 POP PUSH2 0x1AEB DUP3 PUSH2 0x1AAC JUMP JUMPDEST PUSH1 0x20 DUP3 ADD SWAP1 POP SWAP2 SWAP1 POP JUMP JUMPDEST PUSH0 PUSH1 0x40 DUP3 ADD SWAP1 POP DUP2 DUP2 SUB PUSH0 DUP4 ADD MSTORE PUSH2 0x1B0E DUP2 DUP5 PUSH2 0x12AD JUMP JUMPDEST SWAP1 POP DUP2 DUP2 SUB PUSH1 0x20 DUP4 ADD MSTORE PUSH2 0x1B21 DUP2 PUSH2 0x1AD4 JUMP JUMPDEST SWAP1 POP SWAP3 SWAP2 POP POP JUMP INVALID LOG2 PUSH5 0x6970667358 0x22 SLT KECCAK256 0x24 ISZERO 0xBB 0xDC PUSH17 0x520C00656E521648819344324CE02F2C66 ISZERO 0x26 PUSH4 0x8444AC32 0xAE 0xD3 0xAB PUSH5 0x736F6C6343 STOP ADDMOD AND STOP CALLER "
				},
				"gasEstimates": {
					"creation": {
						"codeDepositCost": "1401400",
						"executionCost": "infinite",
						"totalCost": "infinite"
					},
					"external": {
						"add_uens(string[],string[])": "infinite",
						"get_all_uens(uint256,uint256)": "infinite",
						"get_name(string)": "infinite",
						"get_uen_list_length()": "2529",
						"modify_uens(string[],string[])": "infinite",
						"owner()": "2560",
						"remove_uens(string[])": "infinite",
						"renounceOwnership()": "infinite",
						"transferOwnership(address)": "infinite",
						"uen_list(uint256)": "infinite"
					}
				},
				"methodIdentifiers": {
					"add_uens(string[],string[])": "f9b378c2",
					"get_all_uens(uint256,uint256)": "e2b378c2",
					"get_name(string)": "a8f5d7a6",
					"get_uen_list_length()": "9f724ece",
					"modify_uens(string[],string[])": "9926aa34",
					"owner()": "8da5cb5b",
					"remove_uens(string[])": "35b13db2",
					"renounceOwnership()": "715018a6",
					"transferOwnership(address)": "f2fde38b",
					"uen_list(uint256)": "b30282fa"
				}
			},
			"storageLayout": {
				"storage": [
					{
						"astId": 8,
						"contract": "uen_management.sol:uen_management",
						"label": "_owner",
						"offset": 0,
						"slot": "0",
						"type": "t_address"
					},
					{
						"astId": 224,
						"contract": "uen_management.sol:uen_management",
						"label": "uen_list",
						"offset": 0,
						"slot": "1",
						"type": "t_array(t_string_storage)dyn_storage"
					},
					{
						"astId": 228,
						"contract": "uen_management.sol:uen_management",
						"label": "uen_to_name",
						"offset": 0,
						"slot": "2",
						"type": "t_mapping(t_string_memory_ptr,t_string_storage)"
					},
					{
						"astId": 232,
						"contract": "uen_management.sol:uen_management",
						"label": "uen_to_index",
						"offset": 0,
						"slot": "3",
						"type": "t_mapping(t_string_memory_ptr,t_uint256)"
					}
				],
				"types": {
					"t_address": {
						"encoding": "inplace",
						"label": "address",
						"numberOfBytes": "20"
					},
					"t_array(t_string_storage)dyn_storage": {
						"base": "t_string_storage",
						"encoding": "dynamic_array",
						"label": "string[]",
						"numberOfBytes": "32"
					},
					"t_mapping(t_string_memory_ptr,t_string_storage)": {
						"encoding": "mapping",
						"key": "t_string_memory_ptr",
						"label": "mapping(string => string)",
						"numberOfBytes": "32",
						"value": "t_string_storage"
					},
					"t_mapping(t_string_memory_ptr,t_uint256)": {
						"encoding": "mapping",
						"key": "t_string_memory_ptr",
						"label": "mapping(string => uint256)",
						"numberOfBytes": "32",
						"value": "t_uint256"
					},
					"t_string_memory_ptr": {
						"encoding": "bytes",
						"label": "string",
						"numberOfBytes": "32"
					},
					"t_string_storage": {
						"encoding": "bytes",
						"label": "string",
						"numberOfBytes": "32"
					},
					"t_uint256": {
						"encoding": "inplace",
						"label": "uint256",
						"numberOfBytes": "32"
					}
				}
			},
			"userdoc": {
				"kind": "user",
				"methods": {},
				"version": 1
			}
		}
	}
}