{
	"sgdm.sol": {
		"sgdm": {
			"abi": [
				{
					"inputs": [
						{
							"internalType": "address",
							"name": "_targetToken",
							"type": "address"
						},
						{
							"internalType": "address",
							"name": "_uen_management_contract_address",
							"type": "address"
						},
						{
							"internalType": "address",
							"name": "_initialOwner",
							"type": "address"
						},
						{
							"internalType": "address",
							"name": "_whitelist_management_contract_address",
							"type": "address"
						}
					],
					"stateMutability": "nonpayable",
					"type": "constructor"
				},
				{
					"inputs": [
						{
							"internalType": "address",
							"name": "spender",
							"type": "address"
						},
						{
							"internalType": "uint256",
							"name": "allowance",
							"type": "uint256"
						},
						{
							"internalType": "uint256",
							"name": "needed",
							"type": "uint256"
						}
					],
					"name": "ERC20InsufficientAllowance",
					"type": "error"
				},
				{
					"inputs": [
						{
							"internalType": "address",
							"name": "sender",
							"type": "address"
						},
						{
							"internalType": "uint256",
							"name": "balance",
							"type": "uint256"
						},
						{
							"internalType": "uint256",
							"name": "needed",
							"type": "uint256"
						}
					],
					"name": "ERC20InsufficientBalance",
					"type": "error"
				},
				{
					"inputs": [
						{
							"internalType": "address",
							"name": "approver",
							"type": "address"
						}
					],
					"name": "ERC20InvalidApprover",
					"type": "error"
				},
				{
					"inputs": [
						{
							"internalType": "address",
							"name": "receiver",
							"type": "address"
						}
					],
					"name": "ERC20InvalidReceiver",
					"type": "error"
				},
				{
					"inputs": [
						{
							"internalType": "address",
							"name": "sender",
							"type": "address"
						}
					],
					"name": "ERC20InvalidSender",
					"type": "error"
				},
				{
					"inputs": [
						{
							"internalType": "address",
							"name": "spender",
							"type": "address"
						}
					],
					"name": "ERC20InvalidSpender",
					"type": "error"
				},
				{
					"inputs": [
						{
							"internalType": "address",
							"name": "owner",
							"type": "address"
						}
					],
					"name": "OwnableInvalidOwner",
					"type": "error"
				},
				{
					"inputs": [
						{
							"internalType": "address",
							"name": "account",
							"type": "address"
						}
					],
					"name": "OwnableUnauthorizedAccount",
					"type": "error"
				},
				{
					"anonymous": false,
					"inputs": [
						{
							"indexed": true,
							"internalType": "address",
							"name": "owner",
							"type": "address"
						},
						{
							"indexed": true,
							"internalType": "address",
							"name": "spender",
							"type": "address"
						},
						{
							"indexed": false,
							"internalType": "uint256",
							"name": "value",
							"type": "uint256"
						}
					],
					"name": "Approval",
					"type": "event"
				},
				{
					"anonymous": false,
					"inputs": [
						{
							"indexed": true,
							"internalType": "address",
							"name": "previousOwner",
							"type": "address"
						},
						{
							"indexed": true,
							"internalType": "address",
							"name": "newOwner",
							"type": "address"
						}
					],
					"name": "OwnershipTransferred",
					"type": "event"
				},
				{
					"anonymous": false,
					"inputs": [
						{
							"indexed": true,
							"internalType": "address",
							"name": "from",
							"type": "address"
						},
						{
							"indexed": true,
							"internalType": "address",
							"name": "to",
							"type": "address"
						},
						{
							"indexed": false,
							"internalType": "uint256",
							"name": "value",
							"type": "uint256"
						}
					],
					"name": "Transfer",
					"type": "event"
				},
				{
					"inputs": [
						{
							"internalType": "address",
							"name": "_to",
							"type": "address"
						},
						{
							"internalType": "uint256",
							"name": "_amount",
							"type": "uint256"
						}
					],
					"name": "admin_withdraw",
					"outputs": [
						{
							"internalType": "bool",
							"name": "",
							"type": "bool"
						}
					],
					"stateMutability": "nonpayable",
					"type": "function"
				},
				{
					"inputs": [
						{
							"internalType": "address",
							"name": "_owner",
							"type": "address"
						},
						{
							"internalType": "address",
							"name": "_spender",
							"type": "address"
						}
					],
					"name": "allowance",
					"outputs": [
						{
							"internalType": "uint256",
							"name": "",
							"type": "uint256"
						}
					],
					"stateMutability": "view",
					"type": "function"
				},
				{
					"inputs": [
						{
							"internalType": "address",
							"name": "",
							"type": "address"
						},
						{
							"internalType": "uint256",
							"name": "",
							"type": "uint256"
						}
					],
					"name": "approve",
					"outputs": [
						{
							"internalType": "bool",
							"name": "",
							"type": "bool"
						}
					],
					"stateMutability": "pure",
					"type": "function"
				},
				{
					"inputs": [
						{
							"internalType": "address",
							"name": "_owner",
							"type": "address"
						}
					],
					"name": "balanceOf",
					"outputs": [
						{
							"internalType": "uint256",
							"name": "balance",
							"type": "uint256"
						}
					],
					"stateMutability": "view",
					"type": "function"
				},
				{
					"inputs": [
						{
							"internalType": "string",
							"name": "_uen",
							"type": "string"
						}
					],
					"name": "balance_of_uen",
					"outputs": [
						{
							"internalType": "uint256",
							"name": "",
							"type": "uint256"
						}
					],
					"stateMutability": "view",
					"type": "function"
				},
				{
					"inputs": [],
					"name": "check_whitelist",
					"outputs": [
						{
							"internalType": "string",
							"name": "",
							"type": "string"
						}
					],
					"stateMutability": "view",
					"type": "function"
				},
				{
					"inputs": [],
					"name": "decimals",
					"outputs": [
						{
							"internalType": "uint8",
							"name": "",
							"type": "uint8"
						}
					],
					"stateMutability": "pure",
					"type": "function"
				},
				{
					"inputs": [
						{
							"internalType": "string",
							"name": "_uen",
							"type": "string"
						}
					],
					"name": "get_name",
					"outputs": [
						{
							"internalType": "string",
							"name": "",
							"type": "string"
						}
					],
					"stateMutability": "view",
					"type": "function"
				},
				{
					"inputs": [],
					"name": "name",
					"outputs": [
						{
							"internalType": "string",
							"name": "",
							"type": "string"
						}
					],
					"stateMutability": "view",
					"type": "function"
				},
				{
					"inputs": [],
					"name": "owner",
					"outputs": [
						{
							"internalType": "address",
							"name": "",
							"type": "address"
						}
					],
					"stateMutability": "view",
					"type": "function"
				},
				{
					"inputs": [],
					"name": "renounceOwnership",
					"outputs": [],
					"stateMutability": "nonpayable",
					"type": "function"
				},
				{
					"inputs": [
						{
							"internalType": "string",
							"name": "_uen",
							"type": "string"
						},
						{
							"internalType": "uint256",
							"name": "_amount",
							"type": "uint256"
						}
					],
					"name": "send_token_to_uen",
					"outputs": [
						{
							"internalType": "bool",
							"name": "",
							"type": "bool"
						}
					],
					"stateMutability": "nonpayable",
					"type": "function"
				},
				{
					"inputs": [],
					"name": "symbol",
					"outputs": [
						{
							"internalType": "string",
							"name": "",
							"type": "string"
						}
					],
					"stateMutability": "view",
					"type": "function"
				},
				{
					"inputs": [],
					"name": "targetToken",
					"outputs": [
						{
							"internalType": "contract IERC20",
							"name": "",
							"type": "address"
						}
					],
					"stateMutability": "view",
					"type": "function"
				},
				{
					"inputs": [],
					"name": "token_address",
					"outputs": [
						{
							"internalType": "address",
							"name": "",
							"type": "address"
						}
					],
					"stateMutability": "view",
					"type": "function"
				},
				{
					"inputs": [],
					"name": "totalSupply",
					"outputs": [
						{
							"internalType": "uint256",
							"name": "",
							"type": "uint256"
						}
					],
					"stateMutability": "view",
					"type": "function"
				},
				{
					"inputs": [
						{
							"internalType": "address",
							"name": "_to",
							"type": "address"
						},
						{
							"internalType": "uint256",
							"name": "_amount",
							"type": "uint256"
						}
					],
					"name": "transfer",
					"outputs": [
						{
							"internalType": "bool",
							"name": "",
							"type": "bool"
						}
					],
					"stateMutability": "nonpayable",
					"type": "function"
				},
				{
					"inputs": [
						{
							"internalType": "address",
							"name": "_from",
							"type": "address"
						},
						{
							"internalType": "address",
							"name": "_to",
							"type": "address"
						},
						{
							"internalType": "uint256",
							"name": "_amount",
							"type": "uint256"
						}
					],
					"name": "transferFrom",
					"outputs": [
						{
							"internalType": "bool",
							"name": "",
							"type": "bool"
						}
					],
					"stateMutability": "nonpayable",
					"type": "function"
				},
				{
					"inputs": [
						{
							"internalType": "address",
							"name": "newOwner",
							"type": "address"
						}
					],
					"name": "transferOwnership",
					"outputs": [],
					"stateMutability": "nonpayable",
					"type": "function"
				},
				{
					"inputs": [
						{
							"internalType": "string",
							"name": "_uen_target",
							"type": "string"
						},
						{
							"internalType": "uint256",
							"name": "_amount",
							"type": "uint256"
						}
					],
					"name": "uen_send",
					"outputs": [
						{
							"internalType": "bool",
							"name": "",
							"type": "bool"
						}
					],
					"stateMutability": "nonpayable",
					"type": "function"
				},
				{
					"inputs": [
						{
							"internalType": "string",
							"name": "",
							"type": "string"
						}
					],
					"name": "uen_to_balance",
					"outputs": [
						{
							"internalType": "uint256",
							"name": "",
							"type": "uint256"
						}
					],
					"stateMutability": "view",
					"type": "function"
				}
			],
			"devdoc": {
				"errors": {
					"ERC20InsufficientAllowance(address,uint256,uint256)": [
						{
							"details": "Indicates a failure with the `spender`’s `allowance`. Used in transfers.",
							"params": {
								"allowance": "Amount of tokens a `spender` is allowed to operate with.",
								"needed": "Minimum amount required to perform a transfer.",
								"spender": "Address that may be allowed to operate on tokens without being their owner."
							}
						}
					],
					"ERC20InsufficientBalance(address,uint256,uint256)": [
						{
							"details": "Indicates an error related to the current `balance` of a `sender`. Used in transfers.",
							"params": {
								"balance": "Current balance for the interacting account.",
								"needed": "Minimum amount required to perform a transfer.",
								"sender": "Address whose tokens are being transferred."
							}
						}
					],
					"ERC20InvalidApprover(address)": [
						{
							"details": "Indicates a failure with the `approver` of a token to be approved. Used in approvals.",
							"params": {
								"approver": "Address initiating an approval operation."
							}
						}
					],
					"ERC20InvalidReceiver(address)": [
						{
							"details": "Indicates a failure with the token `receiver`. Used in transfers.",
							"params": {
								"receiver": "Address to which tokens are being transferred."
							}
						}
					],
					"ERC20InvalidSender(address)": [
						{
							"details": "Indicates a failure with the token `sender`. Used in transfers.",
							"params": {
								"sender": "Address whose tokens are being transferred."
							}
						}
					],
					"ERC20InvalidSpender(address)": [
						{
							"details": "Indicates a failure with the `spender` to be approved. Used in approvals.",
							"params": {
								"spender": "Address that may be allowed to operate on tokens without being their owner."
							}
						}
					],
					"OwnableInvalidOwner(address)": [
						{
							"details": "The owner is not a valid owner account. (eg. `address(0)`)"
						}
					],
					"OwnableUnauthorizedAccount(address)": [
						{
							"details": "The caller account is not authorized to perform an operation."
						}
					]
				},
				"events": {
					"Approval(address,address,uint256)": {
						"details": "Emitted when the allowance of a `spender` for an `owner` is set by a call to {approve}. `value` is the new allowance."
					},
					"Transfer(address,address,uint256)": {
						"details": "Emitted when `value` tokens are moved from one account (`from`) to another (`to`). Note that `value` may be zero."
					}
				},
				"kind": "dev",
				"methods": {
					"decimals()": {
						"details": "Returns the number of decimals used to get its user representation. For example, if `decimals` equals `2`, a balance of `505` tokens should be displayed to a user as `5.05` (`505 / 10 ** 2`). Tokens usually opt for a value of 18, imitating the relationship between Ether and Wei. This is the default value returned by this function, unless it's overridden. NOTE: This information is only used for _display_ purposes: it in no way affects any of the arithmetic of the contract, including {IERC20-balanceOf} and {IERC20-transfer}."
					},
					"name()": {
						"details": "Returns the name of the token."
					},
					"owner()": {
						"details": "Returns the address of the current owner."
					},
					"renounceOwnership()": {
						"details": "Leaves the contract without owner. It will not be possible to call `onlyOwner` functions. Can only be called by the current owner. NOTE: Renouncing ownership will leave the contract without an owner, thereby disabling any functionality that is only available to the owner."
					},
					"symbol()": {
						"details": "Returns the symbol of the token, usually a shorter version of the name."
					},
					"totalSupply()": {
						"details": "See {IERC20-totalSupply}."
					},
					"transferOwnership(address)": {
						"details": "Transfers ownership of the contract to a new account (`newOwner`). Can only be called by the current owner."
					}
				},
				"version": 1
			},
			"evm": {
				"assembly": "    /* \"sgdm.sol\":1300:7972  contract sgdm is ERC20, Ownable {... */\n  mstore(0x40, 0x80)\n    /* \"sgdm.sol\":1775:2264  constructor (address _targetToken, address _uen_management_contract_address, address _initialOwner, address _whitelist_management_contract_address) ERC20 (\"SGDm\", \"SGDm\") Ownable(_initialOwner) {... */\n  callvalue\n  dup1\n  iszero\n  tag_1\n  jumpi\n  0x00\n  dup1\n  revert\ntag_1:\n  pop\n  mload(0x40)\n  sub(codesize, bytecodeSize)\n  dup1\n  bytecodeSize\n  dup4\n  codecopy\n  dup2\n  dup2\n  add\n  0x40\n  mstore\n  dup2\n  add\n  swap1\n  tag_2\n  swap2\n  swap1\n  tag_3\n  jump\t// in\ntag_2:\n    /* \"sgdm.sol\":1954:1967  _initialOwner */\n  dup2\n    /* \"@openzeppelin/contracts/token/ERC20/ERC20.sol\":1896:2009  constructor(string memory name_, string memory symbol_) {... */\n  mload(0x40)\n  dup1\n  0x40\n  add\n  0x40\n  mstore\n  dup1\n  0x04\n  dup2\n  mstore\n  0x20\n  add\n  0x5347446d00000000000000000000000000000000000000000000000000000000\n  dup2\n  mstore\n  pop\n  mload(0x40)\n  dup1\n  0x40\n  add\n  0x40\n  mstore\n  dup1\n  0x04\n  dup2\n  mstore\n  0x20\n  add\n  0x5347446d00000000000000000000000000000000000000000000000000000000\n  dup2\n  mstore\n  pop\n    /* \"@openzeppelin/contracts/token/ERC20/ERC20.sol\":1970:1975  name_ */\n  dup2\n    /* \"@openzeppelin/contracts/token/ERC20/ERC20.sol\":1962:1967  _name */\n  0x03\n    /* \"@openzeppelin/contracts/token/ERC20/ERC20.sol\":1962:1975  _name = name_ */\n  swap1\n  dup2\n  tag_8\n  swap2\n  swap1\n  tag_9\n  jump\t// in\ntag_8:\n  pop\n    /* \"@openzeppelin/contracts/token/ERC20/ERC20.sol\":1995:2002  symbol_ */\n  dup1\n    /* \"@openzeppelin/contracts/token/ERC20/ERC20.sol\":1985:1992  _symbol */\n  0x04\n    /* \"@openzeppelin/contracts/token/ERC20/ERC20.sol\":1985:2002  _symbol = symbol_ */\n  swap1\n  dup2\n  tag_10\n  swap2\n  swap1\n  tag_9\n  jump\t// in\ntag_10:\n  pop\n    /* \"@openzeppelin/contracts/token/ERC20/ERC20.sol\":1896:2009  constructor(string memory name_, string memory symbol_) {... */\n  pop\n  pop\n    /* \"@openzeppelin/contracts/access/Ownable.sol\":1297:1298  0 */\n  0x00\n    /* \"@openzeppelin/contracts/access/Ownable.sol\":1273:1299  initialOwner == address(0) */\n  0xffffffffffffffffffffffffffffffffffffffff\n  and\n    /* \"@openzeppelin/contracts/access/Ownable.sol\":1273:1285  initialOwner */\n  dup2\n    /* \"@openzeppelin/contracts/access/Ownable.sol\":1273:1299  initialOwner == address(0) */\n  0xffffffffffffffffffffffffffffffffffffffff\n  and\n  sub\n    /* \"@openzeppelin/contracts/access/Ownable.sol\":1269:1364  if (initialOwner == address(0)) {... */\n  tag_12\n  jumpi\n    /* \"@openzeppelin/contracts/access/Ownable.sol\":1350:1351  0 */\n  0x00\n    /* \"@openzeppelin/contracts/access/Ownable.sol\":1322:1353  OwnableInvalidOwner(address(0)) */\n  mload(0x40)\n  0x1e4fbdf700000000000000000000000000000000000000000000000000000000\n  dup2\n  mstore\n  0x04\n  add\n  tag_13\n  swap2\n  swap1\n  tag_14\n  jump\t// in\ntag_13:\n  mload(0x40)\n  dup1\n  swap2\n  sub\n  swap1\n  revert\n    /* \"@openzeppelin/contracts/access/Ownable.sol\":1269:1364  if (initialOwner == address(0)) {... */\ntag_12:\n    /* \"@openzeppelin/contracts/access/Ownable.sol\":1373:1405  _transferOwnership(initialOwner) */\n  tag_15\n    /* \"@openzeppelin/contracts/access/Ownable.sol\":1392:1404  initialOwner */\n  dup2\n    /* \"@openzeppelin/contracts/access/Ownable.sol\":1373:1391  _transferOwnership */\n  shl(0x20, tag_16)\n    /* \"@openzeppelin/contracts/access/Ownable.sol\":1373:1405  _transferOwnership(initialOwner) */\n  0x20\n  shr\n  jump\t// in\ntag_15:\n    /* \"@openzeppelin/contracts/access/Ownable.sol\":1225:1412  constructor(address initialOwner) {... */\n  pop\n    /* \"sgdm.sol\":2027:2039  _targetToken */\n  dup4\n    /* \"sgdm.sol\":2006:2017  targetToken */\n  0x06\n  0x00\n    /* \"sgdm.sol\":2006:2040  targetToken = IERC20(_targetToken) */\n  0x0100\n  exp\n  dup2\n  sload\n  dup2\n  0xffffffffffffffffffffffffffffffffffffffff\n  mul\n  not\n  and\n  swap1\n  dup4\n  0xffffffffffffffffffffffffffffffffffffffff\n  and\n  mul\n  or\n  swap1\n  sstore\n  pop\n    /* \"sgdm.sol\":2116:2148  _uen_management_contract_address */\n  dup3\n    /* \"sgdm.sol\":2074:2097  uen_management_contract */\n  0x08\n  0x00\n    /* \"sgdm.sol\":2074:2149  uen_management_contract = Iuen_management(_uen_management_contract_address) */\n  0x0100\n  exp\n  dup2\n  sload\n  dup2\n  0xffffffffffffffffffffffffffffffffffffffff\n  mul\n  not\n  and\n  swap1\n  dup4\n  0xffffffffffffffffffffffffffffffffffffffff\n  and\n  mul\n  or\n  swap1\n  sstore\n  pop\n    /* \"sgdm.sol\":2221:2259  _whitelist_management_contract_address */\n  dup1\n    /* \"sgdm.sol\":2189:2207  whitelist_contract */\n  0x09\n  0x00\n    /* \"sgdm.sol\":2189:2260  whitelist_contract = Iwhitelist(_whitelist_management_contract_address) */\n  0x0100\n  exp\n  dup2\n  sload\n  dup2\n  0xffffffffffffffffffffffffffffffffffffffff\n  mul\n  not\n  and\n  swap1\n  dup4\n  0xffffffffffffffffffffffffffffffffffffffff\n  and\n  mul\n  or\n  swap1\n  sstore\n  pop\n    /* \"sgdm.sol\":1775:2264  constructor (address _targetToken, address _uen_management_contract_address, address _initialOwner, address _whitelist_management_contract_address) ERC20 (\"SGDm\", \"SGDm\") Ownable(_initialOwner) {... */\n  pop\n  pop\n  pop\n  pop\n    /* \"sgdm.sol\":1300:7972  contract sgdm is ERC20, Ownable {... */\n  jump(tag_18)\n    /* \"@openzeppelin/contracts/access/Ownable.sol\":2912:3099  function _transferOwnership(address newOwner) internal virtual {... */\ntag_16:\n    /* \"@openzeppelin/contracts/access/Ownable.sol\":2985:3001  address oldOwner */\n  0x00\n    /* \"@openzeppelin/contracts/access/Ownable.sol\":3004:3010  _owner */\n  0x05\n  0x00\n  swap1\n  sload\n  swap1\n  0x0100\n  exp\n  swap1\n  div\n  0xffffffffffffffffffffffffffffffffffffffff\n  and\n    /* \"@openzeppelin/contracts/access/Ownable.sol\":2985:3010  address oldOwner = _owner */\n  swap1\n  pop\n    /* \"@openzeppelin/contracts/access/Ownable.sol\":3029:3037  newOwner */\n  dup2\n    /* \"@openzeppelin/contracts/access/Ownable.sol\":3020:3026  _owner */\n  0x05\n  0x00\n    /* \"@openzeppelin/contracts/access/Ownable.sol\":3020:3037  _owner = newOwner */\n  0x0100\n  exp\n  dup2\n  sload\n  dup2\n  0xffffffffffffffffffffffffffffffffffffffff\n  mul\n  not\n  and\n  swap1\n  dup4\n  0xffffffffffffffffffffffffffffffffffffffff\n  and\n  mul\n  or\n  swap1\n  sstore\n  pop\n    /* \"@openzeppelin/contracts/access/Ownable.sol\":3083:3091  newOwner */\n  dup2\n    /* \"@openzeppelin/contracts/access/Ownable.sol\":3052:3092  OwnershipTransferred(oldOwner, newOwner) */\n  0xffffffffffffffffffffffffffffffffffffffff\n  and\n    /* \"@openzeppelin/contracts/access/Ownable.sol\":3073:3081  oldOwner */\n  dup2\n    /* \"@openzeppelin/contracts/access/Ownable.sol\":3052:3092  OwnershipTransferred(oldOwner, newOwner) */\n  0xffffffffffffffffffffffffffffffffffffffff\n  and\n  0x8be0079c531659141344cd1fd0a4f28419497f9722a3daafe3b4186f6b6457e0\n  mload(0x40)\n  mload(0x40)\n  dup1\n  swap2\n  sub\n  swap1\n  log3\n    /* \"@openzeppelin/contracts/access/Ownable.sol\":2975:3099  {... */\n  pop\n    /* \"@openzeppelin/contracts/access/Ownable.sol\":2912:3099  function _transferOwnership(address newOwner) internal virtual {... */\n  pop\n  jump\t// out\n    /* \"#utility.yul\":88:205   */\ntag_21:\n    /* \"#utility.yul\":197:198   */\n  0x00\n    /* \"#utility.yul\":194:195   */\n  dup1\n    /* \"#utility.yul\":187:199   */\n  revert\n    /* \"#utility.yul\":334:460   */\ntag_23:\n    /* \"#utility.yul\":371:378   */\n  0x00\n    /* \"#utility.yul\":411:453   */\n  0xffffffffffffffffffffffffffffffffffffffff\n    /* \"#utility.yul\":404:409   */\n  dup3\n    /* \"#utility.yul\":400:454   */\n  and\n    /* \"#utility.yul\":389:454   */\n  swap1\n  pop\n    /* \"#utility.yul\":334:460   */\n  swap2\n  swap1\n  pop\n  jump\t// out\n    /* \"#utility.yul\":466:562   */\ntag_24:\n    /* \"#utility.yul\":503:510   */\n  0x00\n    /* \"#utility.yul\":532:556   */\n  tag_54\n    /* \"#utility.yul\":550:555   */\n  dup3\n    /* \"#utility.yul\":532:556   */\n  tag_23\n  jump\t// in\ntag_54:\n    /* \"#utility.yul\":521:556   */\n  swap1\n  pop\n    /* \"#utility.yul\":466:562   */\n  swap2\n  swap1\n  pop\n  jump\t// out\n    /* \"#utility.yul\":568:690   */\ntag_25:\n    /* \"#utility.yul\":641:665   */\n  tag_56\n    /* \"#utility.yul\":659:664   */\n  dup2\n    /* \"#utility.yul\":641:665   */\n  tag_24\n  jump\t// in\ntag_56:\n    /* \"#utility.yul\":634:639   */\n  dup2\n    /* \"#utility.yul\":631:666   */\n  eq\n    /* \"#utility.yul\":621:684   */\n  tag_57\n  jumpi\n    /* \"#utility.yul\":680:681   */\n  0x00\n    /* \"#utility.yul\":677:678   */\n  dup1\n    /* \"#utility.yul\":670:682   */\n  revert\n    /* \"#utility.yul\":621:684   */\ntag_57:\n    /* \"#utility.yul\":568:690   */\n  pop\n  jump\t// out\n    /* \"#utility.yul\":696:839   */\ntag_26:\n    /* \"#utility.yul\":753:758   */\n  0x00\n    /* \"#utility.yul\":784:790   */\n  dup2\n    /* \"#utility.yul\":778:791   */\n  mload\n    /* \"#utility.yul\":769:791   */\n  swap1\n  pop\n    /* \"#utility.yul\":800:833   */\n  tag_59\n    /* \"#utility.yul\":827:832   */\n  dup2\n    /* \"#utility.yul\":800:833   */\n  tag_25\n  jump\t// in\ntag_59:\n    /* \"#utility.yul\":696:839   */\n  swap3\n  swap2\n  pop\n  pop\n  jump\t// out\n    /* \"#utility.yul\":845:1665   */\ntag_3:\n    /* \"#utility.yul\":942:948   */\n  0x00\n    /* \"#utility.yul\":950:956   */\n  dup1\n    /* \"#utility.yul\":958:964   */\n  0x00\n    /* \"#utility.yul\":966:972   */\n  dup1\n    /* \"#utility.yul\":1015:1018   */\n  0x80\n    /* \"#utility.yul\":1003:1012   */\n  dup6\n    /* \"#utility.yul\":994:1001   */\n  dup8\n    /* \"#utility.yul\":990:1013   */\n  sub\n    /* \"#utility.yul\":986:1019   */\n  slt\n    /* \"#utility.yul\":983:1103   */\n  iszero\n  tag_61\n  jumpi\n    /* \"#utility.yul\":1022:1101   */\n  tag_62\n  tag_21\n  jump\t// in\ntag_62:\n    /* \"#utility.yul\":983:1103   */\ntag_61:\n    /* \"#utility.yul\":1142:1143   */\n  0x00\n    /* \"#utility.yul\":1167:1231   */\n  tag_63\n    /* \"#utility.yul\":1223:1230   */\n  dup8\n    /* \"#utility.yul\":1214:1220   */\n  dup3\n    /* \"#utility.yul\":1203:1212   */\n  dup9\n    /* \"#utility.yul\":1199:1221   */\n  add\n    /* \"#utility.yul\":1167:1231   */\n  tag_26\n  jump\t// in\ntag_63:\n    /* \"#utility.yul\":1157:1231   */\n  swap5\n  pop\n    /* \"#utility.yul\":1113:1241   */\n  pop\n    /* \"#utility.yul\":1280:1282   */\n  0x20\n    /* \"#utility.yul\":1306:1370   */\n  tag_64\n    /* \"#utility.yul\":1362:1369   */\n  dup8\n    /* \"#utility.yul\":1353:1359   */\n  dup3\n    /* \"#utility.yul\":1342:1351   */\n  dup9\n    /* \"#utility.yul\":1338:1360   */\n  add\n    /* \"#utility.yul\":1306:1370   */\n  tag_26\n  jump\t// in\ntag_64:\n    /* \"#utility.yul\":1296:1370   */\n  swap4\n  pop\n    /* \"#utility.yul\":1251:1380   */\n  pop\n    /* \"#utility.yul\":1419:1421   */\n  0x40\n    /* \"#utility.yul\":1445:1509   */\n  tag_65\n    /* \"#utility.yul\":1501:1508   */\n  dup8\n    /* \"#utility.yul\":1492:1498   */\n  dup3\n    /* \"#utility.yul\":1481:1490   */\n  dup9\n    /* \"#utility.yul\":1477:1499   */\n  add\n    /* \"#utility.yul\":1445:1509   */\n  tag_26\n  jump\t// in\ntag_65:\n    /* \"#utility.yul\":1435:1509   */\n  swap3\n  pop\n    /* \"#utility.yul\":1390:1519   */\n  pop\n    /* \"#utility.yul\":1558:1560   */\n  0x60\n    /* \"#utility.yul\":1584:1648   */\n  tag_66\n    /* \"#utility.yul\":1640:1647   */\n  dup8\n    /* \"#utility.yul\":1631:1637   */\n  dup3\n    /* \"#utility.yul\":1620:1629   */\n  dup9\n    /* \"#utility.yul\":1616:1638   */\n  add\n    /* \"#utility.yul\":1584:1648   */\n  tag_26\n  jump\t// in\ntag_66:\n    /* \"#utility.yul\":1574:1648   */\n  swap2\n  pop\n    /* \"#utility.yul\":1529:1658   */\n  pop\n    /* \"#utility.yul\":845:1665   */\n  swap3\n  swap6\n  swap2\n  swap5\n  pop\n  swap3\n  pop\n  jump\t// out\n    /* \"#utility.yul\":1671:1770   */\ntag_27:\n    /* \"#utility.yul\":1723:1729   */\n  0x00\n    /* \"#utility.yul\":1757:1762   */\n  dup2\n    /* \"#utility.yul\":1751:1763   */\n  mload\n    /* \"#utility.yul\":1741:1763   */\n  swap1\n  pop\n    /* \"#utility.yul\":1671:1770   */\n  swap2\n  swap1\n  pop\n  jump\t// out\n    /* \"#utility.yul\":1776:1956   */\ntag_28:\n    /* \"#utility.yul\":1824:1901   */\n  0x4e487b7100000000000000000000000000000000000000000000000000000000\n    /* \"#utility.yul\":1821:1822   */\n  0x00\n    /* \"#utility.yul\":1814:1902   */\n  mstore\n    /* \"#utility.yul\":1921:1925   */\n  0x41\n    /* \"#utility.yul\":1918:1919   */\n  0x04\n    /* \"#utility.yul\":1911:1926   */\n  mstore\n    /* \"#utility.yul\":1945:1949   */\n  0x24\n    /* \"#utility.yul\":1942:1943   */\n  0x00\n    /* \"#utility.yul\":1935:1950   */\n  revert\n    /* \"#utility.yul\":1962:2142   */\ntag_29:\n    /* \"#utility.yul\":2010:2087   */\n  0x4e487b7100000000000000000000000000000000000000000000000000000000\n    /* \"#utility.yul\":2007:2008   */\n  0x00\n    /* \"#utility.yul\":2000:2088   */\n  mstore\n    /* \"#utility.yul\":2107:2111   */\n  0x22\n    /* \"#utility.yul\":2104:2105   */\n  0x04\n    /* \"#utility.yul\":2097:2112   */\n  mstore\n    /* \"#utility.yul\":2131:2135   */\n  0x24\n    /* \"#utility.yul\":2128:2129   */\n  0x00\n    /* \"#utility.yul\":2121:2136   */\n  revert\n    /* \"#utility.yul\":2148:2468   */\ntag_30:\n    /* \"#utility.yul\":2192:2198   */\n  0x00\n    /* \"#utility.yul\":2229:2230   */\n  0x02\n    /* \"#utility.yul\":2223:2227   */\n  dup3\n    /* \"#utility.yul\":2219:2231   */\n  div\n    /* \"#utility.yul\":2209:2231   */\n  swap1\n  pop\n    /* \"#utility.yul\":2276:2277   */\n  0x01\n    /* \"#utility.yul\":2270:2274   */\n  dup3\n    /* \"#utility.yul\":2266:2278   */\n  and\n    /* \"#utility.yul\":2297:2315   */\n  dup1\n    /* \"#utility.yul\":2287:2368   */\n  tag_71\n  jumpi\n    /* \"#utility.yul\":2353:2357   */\n  0x7f\n    /* \"#utility.yul\":2345:2351   */\n  dup3\n    /* \"#utility.yul\":2341:2358   */\n  and\n    /* \"#utility.yul\":2331:2358   */\n  swap2\n  pop\n    /* \"#utility.yul\":2287:2368   */\ntag_71:\n    /* \"#utility.yul\":2415:2417   */\n  0x20\n    /* \"#utility.yul\":2407:2413   */\n  dup3\n    /* \"#utility.yul\":2404:2418   */\n  lt\n    /* \"#utility.yul\":2384:2402   */\n  dup2\n    /* \"#utility.yul\":2381:2419   */\n  sub\n    /* \"#utility.yul\":2378:2462   */\n  tag_72\n  jumpi\n    /* \"#utility.yul\":2434:2452   */\n  tag_73\n  tag_29\n  jump\t// in\ntag_73:\n    /* \"#utility.yul\":2378:2462   */\ntag_72:\n    /* \"#utility.yul\":2199:2468   */\n  pop\n    /* \"#utility.yul\":2148:2468   */\n  swap2\n  swap1\n  pop\n  jump\t// out\n    /* \"#utility.yul\":2474:2615   */\ntag_31:\n    /* \"#utility.yul\":2523:2527   */\n  0x00\n    /* \"#utility.yul\":2546:2549   */\n  dup2\n    /* \"#utility.yul\":2538:2549   */\n  swap1\n  pop\n    /* \"#utility.yul\":2569:2572   */\n  dup2\n    /* \"#utility.yul\":2566:2567   */\n  0x00\n    /* \"#utility.yul\":2559:2573   */\n  mstore\n    /* \"#utility.yul\":2603:2607   */\n  0x20\n    /* \"#utility.yul\":2600:2601   */\n  0x00\n    /* \"#utility.yul\":2590:2608   */\n  keccak256\n    /* \"#utility.yul\":2582:2608   */\n  swap1\n  pop\n    /* \"#utility.yul\":2474:2615   */\n  swap2\n  swap1\n  pop\n  jump\t// out\n    /* \"#utility.yul\":2621:2714   */\ntag_32:\n    /* \"#utility.yul\":2658:2664   */\n  0x00\n    /* \"#utility.yul\":2705:2707   */\n  0x20\n    /* \"#utility.yul\":2700:2702   */\n  0x1f\n    /* \"#utility.yul\":2693:2698   */\n  dup4\n    /* \"#utility.yul\":2689:2703   */\n  add\n    /* \"#utility.yul\":2685:2708   */\n  div\n    /* \"#utility.yul\":2675:2708   */\n  swap1\n  pop\n    /* \"#utility.yul\":2621:2714   */\n  swap2\n  swap1\n  pop\n  jump\t// out\n    /* \"#utility.yul\":2720:2827   */\ntag_33:\n    /* \"#utility.yul\":2764:2772   */\n  0x00\n    /* \"#utility.yul\":2814:2819   */\n  dup3\n    /* \"#utility.yul\":2808:2812   */\n  dup3\n    /* \"#utility.yul\":2804:2820   */\n  shl\n    /* \"#utility.yul\":2783:2820   */\n  swap1\n  pop\n    /* \"#utility.yul\":2720:2827   */\n  swap3\n  swap2\n  pop\n  pop\n  jump\t// out\n    /* \"#utility.yul\":2833:3226   */\ntag_34:\n    /* \"#utility.yul\":2902:2908   */\n  0x00\n    /* \"#utility.yul\":2952:2953   */\n  0x08\n    /* \"#utility.yul\":2940:2950   */\n  dup4\n    /* \"#utility.yul\":2936:2954   */\n  mul\n    /* \"#utility.yul\":2975:3072   */\n  tag_78\n    /* \"#utility.yul\":3005:3071   */\n  0xffffffffffffffffffffffffffffffffffffffffffffffffffffffffffffffff\n    /* \"#utility.yul\":2994:3003   */\n  dup3\n    /* \"#utility.yul\":2975:3072   */\n  tag_33\n  jump\t// in\ntag_78:\n    /* \"#utility.yul\":3093:3132   */\n  tag_79\n    /* \"#utility.yul\":3123:3131   */\n  dup7\n    /* \"#utility.yul\":3112:3121   */\n  dup4\n    /* \"#utility.yul\":3093:3132   */\n  tag_33\n  jump\t// in\ntag_79:\n    /* \"#utility.yul\":3081:3132   */\n  swap6\n  pop\n    /* \"#utility.yul\":3165:3169   */\n  dup1\n    /* \"#utility.yul\":3161:3170   */\n  not\n    /* \"#utility.yul\":3154:3159   */\n  dup5\n    /* \"#utility.yul\":3150:3171   */\n  and\n    /* \"#utility.yul\":3141:3171   */\n  swap4\n  pop\n    /* \"#utility.yul\":3214:3218   */\n  dup1\n    /* \"#utility.yul\":3204:3212   */\n  dup7\n    /* \"#utility.yul\":3200:3219   */\n  and\n    /* \"#utility.yul\":3193:3198   */\n  dup5\n    /* \"#utility.yul\":3190:3220   */\n  or\n    /* \"#utility.yul\":3180:3220   */\n  swap3\n  pop\n    /* \"#utility.yul\":2909:3226   */\n  pop\n  pop\n    /* \"#utility.yul\":2833:3226   */\n  swap4\n  swap3\n  pop\n  pop\n  pop\n  jump\t// out\n    /* \"#utility.yul\":3232:3309   */\ntag_35:\n    /* \"#utility.yul\":3269:3276   */\n  0x00\n    /* \"#utility.yul\":3298:3303   */\n  dup2\n    /* \"#utility.yul\":3287:3303   */\n  swap1\n  pop\n    /* \"#utility.yul\":3232:3309   */\n  swap2\n  swap1\n  pop\n  jump\t// out\n    /* \"#utility.yul\":3315:3375   */\ntag_36:\n    /* \"#utility.yul\":3343:3346   */\n  0x00\n    /* \"#utility.yul\":3364:3369   */\n  dup2\n    /* \"#utility.yul\":3357:3369   */\n  swap1\n  pop\n    /* \"#utility.yul\":3315:3375   */\n  swap2\n  swap1\n  pop\n  jump\t// out\n    /* \"#utility.yul\":3381:3523   */\ntag_37:\n    /* \"#utility.yul\":3431:3440   */\n  0x00\n    /* \"#utility.yul\":3464:3517   */\n  tag_83\n    /* \"#utility.yul\":3482:3516   */\n  tag_84\n    /* \"#utility.yul\":3491:3515   */\n  tag_85\n    /* \"#utility.yul\":3509:3514   */\n  dup5\n    /* \"#utility.yul\":3491:3515   */\n  tag_35\n  jump\t// in\ntag_85:\n    /* \"#utility.yul\":3482:3516   */\n  tag_36\n  jump\t// in\ntag_84:\n    /* \"#utility.yul\":3464:3517   */\n  tag_35\n  jump\t// in\ntag_83:\n    /* \"#utility.yul\":3451:3517   */\n  swap1\n  pop\n    /* \"#utility.yul\":3381:3523   */\n  swap2\n  swap1\n  pop\n  jump\t// out\n    /* \"#utility.yul\":3529:3604   */\ntag_38:\n    /* \"#utility.yul\":3572:3575   */\n  0x00\n    /* \"#utility.yul\":3593:3598   */\n  dup2\n    /* \"#utility.yul\":3586:3598   */\n  swap1\n  pop\n    /* \"#utility.yul\":3529:3604   */\n  swap2\n  swap1\n  pop\n  jump\t// out\n    /* \"#utility.yul\":3610:3879   */\ntag_39:\n    /* \"#utility.yul\":3720:3759   */\n  tag_88\n    /* \"#utility.yul\":3751:3758   */\n  dup4\n    /* \"#utility.yul\":3720:3759   */\n  tag_37\n  jump\t// in\ntag_88:\n    /* \"#utility.yul\":3781:3872   */\n  tag_89\n    /* \"#utility.yul\":3830:3871   */\n  tag_90\n    /* \"#utility.yul\":3854:3870   */\n  dup3\n    /* \"#utility.yul\":3830:3871   */\n  tag_38\n  jump\t// in\ntag_90:\n    /* \"#utility.yul\":3822:3828   */\n  dup5\n    /* \"#utility.yul\":3815:3819   */\n  dup5\n    /* \"#utility.yul\":3809:3820   */\n  sload\n    /* \"#utility.yul\":3781:3872   */\n  tag_34\n  jump\t// in\ntag_89:\n    /* \"#utility.yul\":3775:3779   */\n  dup3\n    /* \"#utility.yul\":3768:3873   */\n  sstore\n    /* \"#utility.yul\":3686:3879   */\n  pop\n    /* \"#utility.yul\":3610:3879   */\n  pop\n  pop\n  pop\n  jump\t// out\n    /* \"#utility.yul\":3885:3958   */\ntag_40:\n    /* \"#utility.yul\":3930:3933   */\n  0x00\n    /* \"#utility.yul\":3885:3958   */\n  swap1\n  jump\t// out\n    /* \"#utility.yul\":3964:4153   */\ntag_41:\n    /* \"#utility.yul\":4041:4073   */\n  tag_93\n  tag_40\n  jump\t// in\ntag_93:\n    /* \"#utility.yul\":4082:4147   */\n  tag_94\n    /* \"#utility.yul\":4140:4146   */\n  dup2\n    /* \"#utility.yul\":4132:4138   */\n  dup5\n    /* \"#utility.yul\":4126:4130   */\n  dup5\n    /* \"#utility.yul\":4082:4147   */\n  tag_39\n  jump\t// in\ntag_94:\n    /* \"#utility.yul\":4017:4153   */\n  pop\n    /* \"#utility.yul\":3964:4153   */\n  pop\n  pop\n  jump\t// out\n    /* \"#utility.yul\":4159:4345   */\ntag_42:\n    /* \"#utility.yul\":4219:4339   */\ntag_96:\n    /* \"#utility.yul\":4236:4239   */\n  dup2\n    /* \"#utility.yul\":4229:4234   */\n  dup2\n    /* \"#utility.yul\":4226:4240   */\n  lt\n    /* \"#utility.yul\":4219:4339   */\n  iszero\n  tag_98\n  jumpi\n    /* \"#utility.yul\":4290:4329   */\n  tag_99\n    /* \"#utility.yul\":4327:4328   */\n  0x00\n    /* \"#utility.yul\":4320:4325   */\n  dup3\n    /* \"#utility.yul\":4290:4329   */\n  tag_41\n  jump\t// in\ntag_99:\n    /* \"#utility.yul\":4263:4264   */\n  0x01\n    /* \"#utility.yul\":4256:4261   */\n  dup2\n    /* \"#utility.yul\":4252:4265   */\n  add\n    /* \"#utility.yul\":4243:4265   */\n  swap1\n  pop\n    /* \"#utility.yul\":4219:4339   */\n  jump(tag_96)\ntag_98:\n    /* \"#utility.yul\":4159:4345   */\n  pop\n  pop\n  jump\t// out\n    /* \"#utility.yul\":4351:4894   */\ntag_43:\n    /* \"#utility.yul\":4452:4454   */\n  0x1f\n    /* \"#utility.yul\":4447:4450   */\n  dup3\n    /* \"#utility.yul\":4444:4455   */\n  gt\n    /* \"#utility.yul\":4441:4887   */\n  iszero\n  tag_101\n  jumpi\n    /* \"#utility.yul\":4486:4524   */\n  tag_102\n    /* \"#utility.yul\":4518:4523   */\n  dup2\n    /* \"#utility.yul\":4486:4524   */\n  tag_31\n  jump\t// in\ntag_102:\n    /* \"#utility.yul\":4570:4599   */\n  tag_103\n    /* \"#utility.yul\":4588:4598   */\n  dup5\n    /* \"#utility.yul\":4570:4599   */\n  tag_32\n  jump\t// in\ntag_103:\n    /* \"#utility.yul\":4560:4568   */\n  dup2\n    /* \"#utility.yul\":4556:4600   */\n  add\n    /* \"#utility.yul\":4753:4755   */\n  0x20\n    /* \"#utility.yul\":4741:4751   */\n  dup6\n    /* \"#utility.yul\":4738:4756   */\n  lt\n    /* \"#utility.yul\":4735:4784   */\n  iszero\n  tag_104\n  jumpi\n    /* \"#utility.yul\":4774:4782   */\n  dup2\n    /* \"#utility.yul\":4759:4782   */\n  swap1\n  pop\n    /* \"#utility.yul\":4735:4784   */\ntag_104:\n    /* \"#utility.yul\":4797:4877   */\n  tag_105\n    /* \"#utility.yul\":4853:4875   */\n  tag_106\n    /* \"#utility.yul\":4871:4874   */\n  dup6\n    /* \"#utility.yul\":4853:4875   */\n  tag_32\n  jump\t// in\ntag_106:\n    /* \"#utility.yul\":4843:4851   */\n  dup4\n    /* \"#utility.yul\":4839:4876   */\n  add\n    /* \"#utility.yul\":4826:4837   */\n  dup3\n    /* \"#utility.yul\":4797:4877   */\n  tag_42\n  jump\t// in\ntag_105:\n    /* \"#utility.yul\":4456:4887   */\n  pop\n  pop\n    /* \"#utility.yul\":4441:4887   */\ntag_101:\n    /* \"#utility.yul\":4351:4894   */\n  pop\n  pop\n  pop\n  jump\t// out\n    /* \"#utility.yul\":4900:5017   */\ntag_44:\n    /* \"#utility.yul\":4954:4962   */\n  0x00\n    /* \"#utility.yul\":5004:5009   */\n  dup3\n    /* \"#utility.yul\":4998:5002   */\n  dup3\n    /* \"#utility.yul\":4994:5010   */\n  shr\n    /* \"#utility.yul\":4973:5010   */\n  swap1\n  pop\n    /* \"#utility.yul\":4900:5017   */\n  swap3\n  swap2\n  pop\n  pop\n  jump\t// out\n    /* \"#utility.yul\":5023:5192   */\ntag_45:\n    /* \"#utility.yul\":5067:5073   */\n  0x00\n    /* \"#utility.yul\":5100:5151   */\n  tag_109\n    /* \"#utility.yul\":5148:5149   */\n  0x00\n    /* \"#utility.yul\":5144:5150   */\n  not\n    /* \"#utility.yul\":5136:5141   */\n  dup5\n    /* \"#utility.yul\":5133:5134   */\n  0x08\n    /* \"#utility.yul\":5129:5142   */\n  mul\n    /* \"#utility.yul\":5100:5151   */\n  tag_44\n  jump\t// in\ntag_109:\n    /* \"#utility.yul\":5096:5152   */\n  not\n    /* \"#utility.yul\":5181:5185   */\n  dup1\n    /* \"#utility.yul\":5175:5179   */\n  dup4\n    /* \"#utility.yul\":5171:5186   */\n  and\n    /* \"#utility.yul\":5161:5186   */\n  swap2\n  pop\n    /* \"#utility.yul\":5074:5192   */\n  pop\n    /* \"#utility.yul\":5023:5192   */\n  swap3\n  swap2\n  pop\n  pop\n  jump\t// out\n    /* \"#utility.yul\":5197:5492   */\ntag_46:\n    /* \"#utility.yul\":5273:5277   */\n  0x00\n    /* \"#utility.yul\":5419:5448   */\n  tag_111\n    /* \"#utility.yul\":5444:5447   */\n  dup4\n    /* \"#utility.yul\":5438:5442   */\n  dup4\n    /* \"#utility.yul\":5419:5448   */\n  tag_45\n  jump\t// in\ntag_111:\n    /* \"#utility.yul\":5411:5448   */\n  swap2\n  pop\n    /* \"#utility.yul\":5481:5484   */\n  dup3\n    /* \"#utility.yul\":5478:5479   */\n  0x02\n    /* \"#utility.yul\":5474:5485   */\n  mul\n    /* \"#utility.yul\":5468:5472   */\n  dup3\n    /* \"#utility.yul\":5465:5486   */\n  or\n    /* \"#utility.yul\":5457:5486   */\n  swap1\n  pop\n    /* \"#utility.yul\":5197:5492   */\n  swap3\n  swap2\n  pop\n  pop\n  jump\t// out\n    /* \"#utility.yul\":5497:6892   */\ntag_9:\n    /* \"#utility.yul\":5614:5651   */\n  tag_113\n    /* \"#utility.yul\":5647:5650   */\n  dup3\n    /* \"#utility.yul\":5614:5651   */\n  tag_27\n  jump\t// in\ntag_113:\n    /* \"#utility.yul\":5716:5734   */\n  0xffffffffffffffff\n    /* \"#utility.yul\":5708:5714   */\n  dup2\n    /* \"#utility.yul\":5705:5735   */\n  gt\n    /* \"#utility.yul\":5702:5758   */\n  iszero\n  tag_114\n  jumpi\n    /* \"#utility.yul\":5738:5756   */\n  tag_115\n  tag_28\n  jump\t// in\ntag_115:\n    /* \"#utility.yul\":5702:5758   */\ntag_114:\n    /* \"#utility.yul\":5782:5820   */\n  tag_116\n    /* \"#utility.yul\":5814:5818   */\n  dup3\n    /* \"#utility.yul\":5808:5819   */\n  sload\n    /* \"#utility.yul\":5782:5820   */\n  tag_30\n  jump\t// in\ntag_116:\n    /* \"#utility.yul\":5867:5934   */\n  tag_117\n    /* \"#utility.yul\":5927:5933   */\n  dup3\n    /* \"#utility.yul\":5919:5925   */\n  dup3\n    /* \"#utility.yul\":5913:5917   */\n  dup6\n    /* \"#utility.yul\":5867:5934   */\n  tag_43\n  jump\t// in\ntag_117:\n    /* \"#utility.yul\":5961:5962   */\n  0x00\n    /* \"#utility.yul\":5985:5989   */\n  0x20\n    /* \"#utility.yul\":5972:5989   */\n  swap1\n  pop\n    /* \"#utility.yul\":6017:6019   */\n  0x1f\n    /* \"#utility.yul\":6009:6015   */\n  dup4\n    /* \"#utility.yul\":6006:6020   */\n  gt\n    /* \"#utility.yul\":6034:6035   */\n  0x01\n    /* \"#utility.yul\":6029:6647   */\n  dup2\n  eq\n  tag_119\n  jumpi\n    /* \"#utility.yul\":6691:6692   */\n  0x00\n    /* \"#utility.yul\":6708:6714   */\n  dup5\n    /* \"#utility.yul\":6705:6782   */\n  iszero\n  tag_120\n  jumpi\n    /* \"#utility.yul\":6757:6766   */\n  dup3\n    /* \"#utility.yul\":6752:6755   */\n  dup8\n    /* \"#utility.yul\":6748:6767   */\n  add\n    /* \"#utility.yul\":6742:6768   */\n  mload\n    /* \"#utility.yul\":6733:6768   */\n  swap1\n  pop\n    /* \"#utility.yul\":6705:6782   */\ntag_120:\n    /* \"#utility.yul\":6808:6875   */\n  tag_121\n    /* \"#utility.yul\":6868:6874   */\n  dup6\n    /* \"#utility.yul\":6861:6866   */\n  dup3\n    /* \"#utility.yul\":6808:6875   */\n  tag_46\n  jump\t// in\ntag_121:\n    /* \"#utility.yul\":6802:6806   */\n  dup7\n    /* \"#utility.yul\":6795:6876   */\n  sstore\n    /* \"#utility.yul\":6664:6886   */\n  pop\n    /* \"#utility.yul\":5999:6886   */\n  jump(tag_118)\n    /* \"#utility.yul\":6029:6647   */\ntag_119:\n    /* \"#utility.yul\":6081:6085   */\n  0x1f\n    /* \"#utility.yul\":6077:6086   */\n  not\n    /* \"#utility.yul\":6069:6075   */\n  dup5\n    /* \"#utility.yul\":6065:6087   */\n  and\n    /* \"#utility.yul\":6115:6152   */\n  tag_122\n    /* \"#utility.yul\":6147:6151   */\n  dup7\n    /* \"#utility.yul\":6115:6152   */\n  tag_31\n  jump\t// in\ntag_122:\n    /* \"#utility.yul\":6174:6175   */\n  0x00\n    /* \"#utility.yul\":6188:6396   */\ntag_123:\n    /* \"#utility.yul\":6202:6209   */\n  dup3\n    /* \"#utility.yul\":6199:6200   */\n  dup2\n    /* \"#utility.yul\":6196:6210   */\n  lt\n    /* \"#utility.yul\":6188:6396   */\n  iszero\n  tag_125\n  jumpi\n    /* \"#utility.yul\":6281:6290   */\n  dup5\n    /* \"#utility.yul\":6276:6279   */\n  dup10\n    /* \"#utility.yul\":6272:6291   */\n  add\n    /* \"#utility.yul\":6266:6292   */\n  mload\n    /* \"#utility.yul\":6258:6264   */\n  dup3\n    /* \"#utility.yul\":6251:6293   */\n  sstore\n    /* \"#utility.yul\":6332:6333   */\n  0x01\n    /* \"#utility.yul\":6324:6330   */\n  dup3\n    /* \"#utility.yul\":6320:6334   */\n  add\n    /* \"#utility.yul\":6310:6334   */\n  swap2\n  pop\n    /* \"#utility.yul\":6379:6381   */\n  0x20\n    /* \"#utility.yul\":6368:6377   */\n  dup6\n    /* \"#utility.yul\":6364:6382   */\n  add\n    /* \"#utility.yul\":6351:6382   */\n  swap5\n  pop\n    /* \"#utility.yul\":6225:6229   */\n  0x20\n    /* \"#utility.yul\":6222:6223   */\n  dup2\n    /* \"#utility.yul\":6218:6230   */\n  add\n    /* \"#utility.yul\":6213:6230   */\n  swap1\n  pop\n    /* \"#utility.yul\":6188:6396   */\n  jump(tag_123)\ntag_125:\n    /* \"#utility.yul\":6424:6430   */\n  dup7\n    /* \"#utility.yul\":6415:6422   */\n  dup4\n    /* \"#utility.yul\":6412:6431   */\n  lt\n    /* \"#utility.yul\":6409:6588   */\n  iszero\n  tag_126\n  jumpi\n    /* \"#utility.yul\":6482:6491   */\n  dup5\n    /* \"#utility.yul\":6477:6480   */\n  dup10\n    /* \"#utility.yul\":6473:6492   */\n  add\n    /* \"#utility.yul\":6467:6493   */\n  mload\n    /* \"#utility.yul\":6525:6573   */\n  tag_127\n    /* \"#utility.yul\":6567:6571   */\n  0x1f\n    /* \"#utility.yul\":6559:6565   */\n  dup10\n    /* \"#utility.yul\":6555:6572   */\n  and\n    /* \"#utility.yul\":6544:6553   */\n  dup3\n    /* \"#utility.yul\":6525:6573   */\n  tag_45\n  jump\t// in\ntag_127:\n    /* \"#utility.yul\":6517:6523   */\n  dup4\n    /* \"#utility.yul\":6510:6574   */\n  sstore\n    /* \"#utility.yul\":6432:6588   */\n  pop\n    /* \"#utility.yul\":6409:6588   */\ntag_126:\n    /* \"#utility.yul\":6634:6635   */\n  0x01\n    /* \"#utility.yul\":6630:6631   */\n  0x02\n    /* \"#utility.yul\":6622:6628   */\n  dup9\n    /* \"#utility.yul\":6618:6632   */\n  mul\n    /* \"#utility.yul\":6614:6636   */\n  add\n    /* \"#utility.yul\":6608:6612   */\n  dup9\n    /* \"#utility.yul\":6601:6637   */\n  sstore\n    /* \"#utility.yul\":6036:6647   */\n  pop\n  pop\n  pop\n    /* \"#utility.yul\":5999:6886   */\ntag_118:\n  pop\n    /* \"#utility.yul\":5589:6892   */\n  pop\n  pop\n  pop\n    /* \"#utility.yul\":5497:6892   */\n  pop\n  pop\n  jump\t// out\n    /* \"#utility.yul\":6898:7016   */\ntag_47:\n    /* \"#utility.yul\":6985:7009   */\n  tag_129\n    /* \"#utility.yul\":7003:7008   */\n  dup2\n    /* \"#utility.yul\":6985:7009   */\n  tag_24\n  jump\t// in\ntag_129:\n    /* \"#utility.yul\":6980:6983   */\n  dup3\n    /* \"#utility.yul\":6973:7010   */\n  mstore\n    /* \"#utility.yul\":6898:7016   */\n  pop\n  pop\n  jump\t// out\n    /* \"#utility.yul\":7022:7244   */\ntag_14:\n    /* \"#utility.yul\":7115:7119   */\n  0x00\n    /* \"#utility.yul\":7153:7155   */\n  0x20\n    /* \"#utility.yul\":7142:7151   */\n  dup3\n    /* \"#utility.yul\":7138:7156   */\n  add\n    /* \"#utility.yul\":7130:7156   */\n  swap1\n  pop\n    /* \"#utility.yul\":7166:7237   */\n  tag_131\n    /* \"#utility.yul\":7234:7235   */\n  0x00\n    /* \"#utility.yul\":7223:7232   */\n  dup4\n    /* \"#utility.yul\":7219:7236   */\n  add\n    /* \"#utility.yul\":7210:7216   */\n  dup5\n    /* \"#utility.yul\":7166:7237   */\n  tag_47\n  jump\t// in\ntag_131:\n    /* \"#utility.yul\":7022:7244   */\n  swap3\n  swap2\n  pop\n  pop\n  jump\t// out\n    /* \"sgdm.sol\":1300:7972  contract sgdm is ERC20, Ownable {... */\ntag_18:\n  dataSize(sub_0)\n  dup1\n  dataOffset(sub_0)\n  0x00\n  codecopy\n  0x00\n  return\nstop\n\nsub_0: assembly {\n        /* \"sgdm.sol\":1300:7972  contract sgdm is ERC20, Ownable {... */\n      mstore(0x40, 0x80)\n      callvalue\n      dup1\n      iszero\n      tag_1\n      jumpi\n      0x00\n      dup1\n      revert\n    tag_1:\n      pop\n      jumpi(tag_2, lt(calldatasize, 0x04))\n      shr(0xe0, calldataload(0x00))\n      dup1\n      0x8c8e8fee\n      gt\n      tag_24\n      jumpi\n      dup1\n      0xa8f5d7a6\n      gt\n      tag_25\n      jumpi\n      dup1\n      0xa8f5d7a6\n      eq\n      tag_18\n      jumpi\n      dup1\n      0xa9059cbb\n      eq\n      tag_19\n      jumpi\n      dup1\n      0xdd62ed3e\n      eq\n      tag_20\n      jumpi\n      dup1\n      0xf22fbdd7\n      eq\n      tag_21\n      jumpi\n      dup1\n      0xf2fde38b\n      eq\n      tag_22\n      jumpi\n      dup1\n      0xfa863d30\n      eq\n      tag_23\n      jumpi\n      jump(tag_2)\n    tag_25:\n      dup1\n      0x8c8e8fee\n      eq\n      tag_13\n      jumpi\n      dup1\n      0x8da5cb5b\n      eq\n      tag_14\n      jumpi\n      dup1\n      0x90f31f3b\n      eq\n      tag_15\n      jumpi\n      dup1\n      0x95d89b41\n      eq\n      tag_16\n      jumpi\n      dup1\n      0xa3e5b0b2\n      eq\n      tag_17\n      jumpi\n      jump(tag_2)\n    tag_24:\n      dup1\n      0x327107f7\n      gt\n      tag_26\n      jumpi\n      dup1\n      0x327107f7\n      eq\n      tag_8\n      jumpi\n      dup1\n      0x332656fd\n      eq\n      tag_9\n      jumpi\n      dup1\n      0x5ab16b26\n      eq\n      tag_10\n      jumpi\n      dup1\n      0x70a08231\n      eq\n      tag_11\n      jumpi\n      dup1\n      0x715018a6\n      eq\n      tag_12\n      jumpi\n      jump(tag_2)\n    tag_26:\n      dup1\n      0x06fdde03\n      eq\n      tag_3\n      jumpi\n      dup1\n      0x095ea7b3\n      eq\n      tag_4\n      jumpi\n      dup1\n      0x18160ddd\n      eq\n      tag_5\n      jumpi\n      dup1\n      0x23b872dd\n      eq\n      tag_6\n      jumpi\n      dup1\n      0x313ce567\n      eq\n      tag_7\n      jumpi\n    tag_2:\n      0x00\n      dup1\n      revert\n        /* \"@openzeppelin/contracts/token/ERC20/ERC20.sol\":2074:2163  function name() public view virtual returns (string memory) {... */\n    tag_3:\n      tag_27\n      tag_28\n      jump\t// in\n    tag_27:\n      mload(0x40)\n      tag_29\n      swap2\n      swap1\n      tag_30\n      jump\t// in\n    tag_29:\n      mload(0x40)\n      dup1\n      swap2\n      sub\n      swap1\n      return\n        /* \"sgdm.sol\":7850:7970  function approve(address, uint256) public pure override returns (bool) {... */\n    tag_4:\n      tag_31\n      0x04\n      dup1\n      calldatasize\n      sub\n      dup2\n      add\n      swap1\n      tag_32\n      swap2\n      swap1\n      tag_33\n      jump\t// in\n    tag_32:\n      tag_34\n      jump\t// in\n    tag_31:\n      mload(0x40)\n      tag_35\n      swap2\n      swap1\n      tag_36\n      jump\t// in\n    tag_35:\n      mload(0x40)\n      dup1\n      swap2\n      sub\n      swap1\n      return\n        /* \"sgdm.sol\":7113:7224  function totalSupply() public view override returns (uint256) {... */\n    tag_5:\n      tag_37\n      tag_38\n      jump\t// in\n    tag_37:\n      mload(0x40)\n      tag_39\n      swap2\n      swap1\n      tag_40\n      jump\t// in\n    tag_39:\n      mload(0x40)\n      dup1\n      swap2\n      sub\n      swap1\n      return\n        /* \"sgdm.sol\":6370:6852  function transferFrom(address _from, address _to, uint256 _amount) public override returns (bool) {... */\n    tag_6:\n      tag_41\n      0x04\n      dup1\n      calldatasize\n      sub\n      dup2\n      add\n      swap1\n      tag_42\n      swap2\n      swap1\n      tag_43\n      jump\t// in\n    tag_42:\n      tag_44\n      jump\t// in\n    tag_41:\n      mload(0x40)\n      tag_45\n      swap2\n      swap1\n      tag_36\n      jump\t// in\n    tag_45:\n      mload(0x40)\n      dup1\n      swap2\n      sub\n      swap1\n      return\n        /* \"sgdm.sol\":6988:7061  function decimals() public pure override returns (uint8) {... */\n    tag_7:\n      tag_46\n      tag_47\n      jump\t// in\n    tag_46:\n      mload(0x40)\n      tag_48\n      swap2\n      swap1\n      tag_49\n      jump\t// in\n    tag_48:\n      mload(0x40)\n      dup1\n      swap2\n      sub\n      swap1\n      return\n        /* \"sgdm.sol\":1407:1432  IERC20 public targetToken */\n    tag_8:\n      tag_50\n      tag_51\n      jump\t// in\n    tag_50:\n      mload(0x40)\n      tag_52\n      swap2\n      swap1\n      tag_53\n      jump\t// in\n    tag_52:\n      mload(0x40)\n      dup1\n      swap2\n      sub\n      swap1\n      return\n        /* \"sgdm.sol\":4944:5566  function uen_send(string memory _uen_target, uint256 _amount) external check_name(_uen_target) returns (bool) {... */\n    tag_9:\n      tag_54\n      0x04\n      dup1\n      calldatasize\n      sub\n      dup2\n      add\n      swap1\n      tag_55\n      swap2\n      swap1\n      tag_56\n      jump\t// in\n    tag_55:\n      tag_57\n      jump\t// in\n    tag_54:\n      mload(0x40)\n      tag_58\n      swap2\n      swap1\n      tag_36\n      jump\t// in\n    tag_58:\n      mload(0x40)\n      dup1\n      swap2\n      sub\n      swap1\n      return\n        /* \"sgdm.sol\":3904:4498  function send_token_to_uen(string memory _uen, uint256 _amount) external check_name(_uen) returns (bool) {... */\n    tag_10:\n      tag_59\n      0x04\n      dup1\n      calldatasize\n      sub\n      dup2\n      add\n      swap1\n      tag_60\n      swap2\n      swap1\n      tag_56\n      jump\t// in\n    tag_60:\n      tag_61\n      jump\t// in\n    tag_59:\n      mload(0x40)\n      tag_62\n      swap2\n      swap1\n      tag_36\n      jump\t// in\n    tag_62:\n      mload(0x40)\n      dup1\n      swap2\n      sub\n      swap1\n      return\n        /* \"sgdm.sol\":7350:7539  function balanceOf(address _owner) public view override returns (uint256 balance) {... */\n    tag_11:\n      tag_63\n      0x04\n      dup1\n      calldatasize\n      sub\n      dup2\n      add\n      swap1\n      tag_64\n      swap2\n      swap1\n      tag_65\n      jump\t// in\n    tag_64:\n      tag_66\n      jump\t// in\n    tag_63:\n      mload(0x40)\n      tag_67\n      swap2\n      swap1\n      tag_40\n      jump\t// in\n    tag_67:\n      mload(0x40)\n      dup1\n      swap2\n      sub\n      swap1\n      return\n        /* \"@openzeppelin/contracts/access/Ownable.sol\":2293:2394  function renounceOwnership() public virtual onlyOwner {... */\n    tag_12:\n      tag_68\n      tag_69\n      jump\t// in\n    tag_68:\n      stop\n        /* \"sgdm.sol\":6880:6972  function token_address() external view returns (address) {... */\n    tag_13:\n      tag_70\n      tag_71\n      jump\t// in\n    tag_70:\n      mload(0x40)\n      tag_72\n      swap2\n      swap1\n      tag_73\n      jump\t// in\n    tag_72:\n      mload(0x40)\n      dup1\n      swap2\n      sub\n      swap1\n      return\n        /* \"@openzeppelin/contracts/access/Ownable.sol\":1638:1723  function owner() public view virtual returns (address) {... */\n    tag_14:\n      tag_74\n      tag_75\n      jump\t// in\n    tag_74:\n      mload(0x40)\n      tag_76\n      swap2\n      swap1\n      tag_73\n      jump\t// in\n    tag_76:\n      mload(0x40)\n      dup1\n      swap2\n      sub\n      swap1\n      return\n        /* \"sgdm.sol\":3320:3431  function balance_of_uen(string memory _uen) external view returns (uint256) {... */\n    tag_15:\n      tag_77\n      0x04\n      dup1\n      calldatasize\n      sub\n      dup2\n      add\n      swap1\n      tag_78\n      swap2\n      swap1\n      tag_79\n      jump\t// in\n    tag_78:\n      tag_80\n      jump\t// in\n    tag_77:\n      mload(0x40)\n      tag_81\n      swap2\n      swap1\n      tag_40\n      jump\t// in\n    tag_81:\n      mload(0x40)\n      dup1\n      swap2\n      sub\n      swap1\n      return\n        /* \"@openzeppelin/contracts/token/ERC20/ERC20.sol\":2276:2369  function symbol() public view virtual returns (string memory) {... */\n    tag_16:\n      tag_82\n      tag_83\n      jump\t// in\n    tag_82:\n      mload(0x40)\n      tag_84\n      swap2\n      swap1\n      tag_30\n      jump\t// in\n    tag_84:\n      mload(0x40)\n      dup1\n      swap2\n      sub\n      swap1\n      return\n        /* \"sgdm.sol\":3169:3298  function check_whitelist() public view returns (string memory) {... */\n    tag_17:\n      tag_85\n      tag_86\n      jump\t// in\n    tag_85:\n      mload(0x40)\n      tag_87\n      swap2\n      swap1\n      tag_30\n      jump\t// in\n    tag_87:\n      mload(0x40)\n      dup1\n      swap2\n      sub\n      swap1\n      return\n        /* \"sgdm.sol\":2969:3098  function get_name(string memory _uen) external view returns (string memory) {... */\n    tag_18:\n      tag_88\n      0x04\n      dup1\n      calldatasize\n      sub\n      dup2\n      add\n      swap1\n      tag_89\n      swap2\n      swap1\n      tag_79\n      jump\t// in\n    tag_89:\n      tag_90\n      jump\t// in\n    tag_88:\n      mload(0x40)\n      tag_91\n      swap2\n      swap1\n      tag_30\n      jump\t// in\n    tag_91:\n      mload(0x40)\n      dup1\n      swap2\n      sub\n      swap1\n      return\n        /* \"sgdm.sol\":5836:6309  function transfer(address _to, uint256 _amount) public override returns (bool) {... */\n    tag_19:\n      tag_92\n      0x04\n      dup1\n      calldatasize\n      sub\n      dup2\n      add\n      swap1\n      tag_93\n      swap2\n      swap1\n      tag_33\n      jump\t// in\n    tag_93:\n      tag_94\n      jump\t// in\n    tag_92:\n      mload(0x40)\n      tag_95\n      swap2\n      swap1\n      tag_36\n      jump\t// in\n    tag_95:\n      mload(0x40)\n      dup1\n      swap2\n      sub\n      swap1\n      return\n        /* \"sgdm.sol\":7614:7760  function allowance(address _owner, address _spender) public view override returns (uint256) {... */\n    tag_20:\n      tag_96\n      0x04\n      dup1\n      calldatasize\n      sub\n      dup2\n      add\n      swap1\n      tag_97\n      swap2\n      swap1\n      tag_98\n      jump\t// in\n    tag_97:\n      tag_99\n      jump\t// in\n    tag_96:\n      mload(0x40)\n      tag_100\n      swap2\n      swap1\n      tag_40\n      jump\t// in\n    tag_100:\n      mload(0x40)\n      dup1\n      swap2\n      sub\n      swap1\n      return\n        /* \"sgdm.sol\":1490:1538  mapping(string => uint256) public uen_to_balance */\n    tag_21:\n      tag_101\n      0x04\n      dup1\n      calldatasize\n      sub\n      dup2\n      add\n      swap1\n      tag_102\n      swap2\n      swap1\n      tag_79\n      jump\t// in\n    tag_102:\n      tag_103\n      jump\t// in\n    tag_101:\n      mload(0x40)\n      tag_104\n      swap2\n      swap1\n      tag_40\n      jump\t// in\n    tag_104:\n      mload(0x40)\n      dup1\n      swap2\n      sub\n      swap1\n      return\n        /* \"@openzeppelin/contracts/access/Ownable.sol\":2543:2758  function transferOwnership(address newOwner) public virtual onlyOwner {... */\n    tag_22:\n      tag_105\n      0x04\n      dup1\n      calldatasize\n      sub\n      dup2\n      add\n      swap1\n      tag_106\n      swap2\n      swap1\n      tag_65\n      jump\t// in\n    tag_106:\n      tag_107\n      jump\t// in\n    tag_105:\n      stop\n        /* \"sgdm.sol\":2592:2917  function admin_withdraw(address _to, uint256 _amount) external onlyOwner returns (bool) {... */\n    tag_23:\n      tag_108\n      0x04\n      dup1\n      calldatasize\n      sub\n      dup2\n      add\n      swap1\n      tag_109\n      swap2\n      swap1\n      tag_33\n      jump\t// in\n    tag_109:\n      tag_110\n      jump\t// in\n    tag_108:\n      mload(0x40)\n      tag_111\n      swap2\n      swap1\n      tag_36\n      jump\t// in\n    tag_111:\n      mload(0x40)\n      dup1\n      swap2\n      sub\n      swap1\n      return\n        /* \"@openzeppelin/contracts/token/ERC20/ERC20.sol\":2074:2163  function name() public view virtual returns (string memory) {... */\n    tag_28:\n        /* \"@openzeppelin/contracts/token/ERC20/ERC20.sol\":2119:2132  string memory */\n      0x60\n        /* \"@openzeppelin/contracts/token/ERC20/ERC20.sol\":2151:2156  _name */\n      0x03\n        /* \"@openzeppelin/contracts/token/ERC20/ERC20.sol\":2144:2156  return _name */\n      dup1\n      sload\n      tag_113\n      swap1\n      tag_114\n      jump\t// in\n    tag_113:\n      dup1\n      0x1f\n      add\n      0x20\n      dup1\n      swap2\n      div\n      mul\n      0x20\n      add\n      mload(0x40)\n      swap1\n      dup2\n      add\n      0x40\n      mstore\n      dup1\n      swap3\n      swap2\n      swap1\n      dup2\n      dup2\n      mstore\n      0x20\n      add\n      dup3\n      dup1\n      sload\n      tag_115\n      swap1\n      tag_114\n      jump\t// in\n    tag_115:\n      dup1\n      iszero\n      tag_116\n      jumpi\n      dup1\n      0x1f\n      lt\n      tag_117\n      jumpi\n      0x0100\n      dup1\n      dup4\n      sload\n      div\n      mul\n      dup4\n      mstore\n      swap2\n      0x20\n      add\n      swap2\n      jump(tag_116)\n    tag_117:\n      dup3\n      add\n      swap2\n      swap1\n      0x00\n      mstore\n      keccak256(0x00, 0x20)\n      swap1\n    tag_118:\n      dup2\n      sload\n      dup2\n      mstore\n      swap1\n      0x01\n      add\n      swap1\n      0x20\n      add\n      dup1\n      dup4\n      gt\n      tag_118\n      jumpi\n      dup3\n      swap1\n      sub\n      0x1f\n      and\n      dup3\n      add\n      swap2\n    tag_116:\n      pop\n      pop\n      pop\n      pop\n      pop\n      swap1\n      pop\n        /* \"@openzeppelin/contracts/token/ERC20/ERC20.sol\":2074:2163  function name() public view virtual returns (string memory) {... */\n      swap1\n      jump\t// out\n        /* \"sgdm.sol\":7850:7970  function approve(address, uint256) public pure override returns (bool) {... */\n    tag_34:\n        /* \"sgdm.sol\":7915:7919  bool */\n      0x00\n        /* \"sgdm.sol\":7928:7966  revert(\"Approve function is disabled\") */\n      mload(0x40)\n      0x08c379a000000000000000000000000000000000000000000000000000000000\n      dup2\n      mstore\n      0x04\n      add\n      tag_120\n      swap1\n      tag_121\n      jump\t// in\n    tag_120:\n      mload(0x40)\n      dup1\n      swap2\n      sub\n      swap1\n      revert\n        /* \"sgdm.sol\":7113:7224  function totalSupply() public view override returns (uint256) {... */\n    tag_38:\n        /* \"sgdm.sol\":7166:7173  uint256 */\n      0x00\n        /* \"sgdm.sol\":7194:7205  targetToken */\n      0x06\n      0x00\n      swap1\n      sload\n      swap1\n      0x0100\n      exp\n      swap1\n      div\n      0xffffffffffffffffffffffffffffffffffffffff\n      and\n        /* \"sgdm.sol\":7194:7217  targetToken.totalSupply */\n      0xffffffffffffffffffffffffffffffffffffffff\n      and\n      0x18160ddd\n        /* \"sgdm.sol\":7194:7219  targetToken.totalSupply() */\n      mload(0x40)\n      dup2\n      0xffffffff\n      and\n      0xe0\n      shl\n      dup2\n      mstore\n      0x04\n      add\n      0x20\n      mload(0x40)\n      dup1\n      dup4\n      sub\n      dup2\n      dup7\n      gas\n      staticcall\n      iszero\n      dup1\n      iszero\n      tag_124\n      jumpi\n      returndatasize\n      0x00\n      dup1\n      returndatacopy\n      revert(0x00, returndatasize)\n    tag_124:\n      pop\n      pop\n      pop\n      pop\n      mload(0x40)\n      returndatasize\n      not(0x1f)\n      0x1f\n      dup3\n      add\n      and\n      dup3\n      add\n      dup1\n      0x40\n      mstore\n      pop\n      dup2\n      add\n      swap1\n      tag_125\n      swap2\n      swap1\n      tag_126\n      jump\t// in\n    tag_125:\n        /* \"sgdm.sol\":7179:7220  return uint256(targetToken.totalSupply()) */\n      swap1\n      pop\n        /* \"sgdm.sol\":7113:7224  function totalSupply() public view override returns (uint256) {... */\n      swap1\n      jump\t// out\n        /* \"sgdm.sol\":6370:6852  function transferFrom(address _from, address _to, uint256 _amount) public override returns (bool) {... */\n    tag_44:\n        /* \"sgdm.sol\":6462:6466  bool */\n      0x00\n        /* \"sgdm.sol\":6495:6496  0 */\n      dup1\n        /* \"sgdm.sol\":6480:6497  _to != address(0) */\n      0xffffffffffffffffffffffffffffffffffffffff\n      and\n        /* \"sgdm.sol\":6480:6483  _to */\n      dup4\n        /* \"sgdm.sol\":6480:6497  _to != address(0) */\n      0xffffffffffffffffffffffffffffffffffffffff\n      and\n      sub\n        /* \"sgdm.sol\":6472:6526  require(_to != address(0), \"Transfer to zero address\") */\n      tag_128\n      jumpi\n      mload(0x40)\n      0x08c379a000000000000000000000000000000000000000000000000000000000\n      dup2\n      mstore\n      0x04\n      add\n      tag_129\n      swap1\n      tag_130\n      jump\t// in\n    tag_129:\n      mload(0x40)\n      dup1\n      swap2\n      sub\n      swap1\n      revert\n    tag_128:\n        /* \"sgdm.sol\":6530:6555  string memory _uen_sender */\n      0x00\n        /* \"sgdm.sol\":6558:6576  whitelist_contract */\n      0x09\n      0x00\n      swap1\n      sload\n      swap1\n      0x0100\n      exp\n      swap1\n      div\n      0xffffffffffffffffffffffffffffffffffffffff\n      and\n        /* \"sgdm.sol\":6558:6597  whitelist_contract.get_whitelist_to_uen */\n      0xffffffffffffffffffffffffffffffffffffffff\n      and\n      0x58581383\n        /* \"sgdm.sol\":6598:6603  _from */\n      dup7\n        /* \"sgdm.sol\":6558:6604  whitelist_contract.get_whitelist_to_uen(_from) */\n      mload(0x40)\n      dup3\n      0xffffffff\n      and\n      0xe0\n      shl\n      dup2\n      mstore\n      0x04\n      add\n      tag_131\n      swap2\n      swap1\n      tag_73\n      jump\t// in\n    tag_131:\n      0x00\n      mload(0x40)\n      dup1\n      dup4\n      sub\n      dup2\n      dup7\n      gas\n      staticcall\n      iszero\n      dup1\n      iszero\n      tag_133\n      jumpi\n      returndatasize\n      0x00\n      dup1\n      returndatacopy\n      revert(0x00, returndatasize)\n    tag_133:\n      pop\n      pop\n      pop\n      pop\n      mload(0x40)\n      returndatasize\n      0x00\n      dup3\n      returndatacopy\n      returndatasize\n      not(0x1f)\n      0x1f\n      dup3\n      add\n      and\n      dup3\n      add\n      dup1\n      0x40\n      mstore\n      pop\n      dup2\n      add\n      swap1\n      tag_134\n      swap2\n      swap1\n      tag_135\n      jump\t// in\n    tag_134:\n        /* \"sgdm.sol\":6530:6604  string memory _uen_sender = whitelist_contract.get_whitelist_to_uen(_from) */\n      swap1\n      pop\n        /* \"sgdm.sol\":6611:6627  uint256 _balance */\n      0x00\n        /* \"sgdm.sol\":6630:6644  uen_to_balance */\n      0x07\n        /* \"sgdm.sol\":6645:6656  _uen_sender */\n      dup3\n        /* \"sgdm.sol\":6630:6657  uen_to_balance[_uen_sender] */\n      mload(0x40)\n      tag_136\n      swap2\n      swap1\n      tag_137\n      jump\t// in\n    tag_136:\n      swap1\n      dup2\n      mstore\n      0x20\n      add\n      mload(0x40)\n      dup1\n      swap2\n      sub\n      swap1\n      keccak256\n      sload\n        /* \"sgdm.sol\":6611:6657  uint256 _balance = uen_to_balance[_uen_sender] */\n      swap1\n      pop\n        /* \"sgdm.sol\":6682:6689  _amount */\n      dup4\n        /* \"sgdm.sol\":6670:6678  _balance */\n      dup2\n        /* \"sgdm.sol\":6670:6689  _balance >= _amount */\n      lt\n      iszero\n        /* \"sgdm.sol\":6661:6712  require (_balance >= _amount, \"Not enough balance\") */\n      tag_138\n      jumpi\n      mload(0x40)\n      0x08c379a000000000000000000000000000000000000000000000000000000000\n      dup2\n      mstore\n      0x04\n      add\n      tag_139\n      swap1\n      tag_140\n      jump\t// in\n    tag_139:\n      mload(0x40)\n      dup1\n      swap2\n      sub\n      swap1\n      revert\n    tag_138:\n        /* \"sgdm.sol\":6750:6757  _amount */\n      dup4\n        /* \"sgdm.sol\":6719:6733  uen_to_balance */\n      0x07\n        /* \"sgdm.sol\":6734:6745  _uen_sender */\n      dup4\n        /* \"sgdm.sol\":6719:6746  uen_to_balance[_uen_sender] */\n      mload(0x40)\n      tag_141\n      swap2\n      swap1\n      tag_137\n      jump\t// in\n    tag_141:\n      swap1\n      dup2\n      mstore\n      0x20\n      add\n      mload(0x40)\n      dup1\n      swap2\n      sub\n      swap1\n      keccak256\n      0x00\n        /* \"sgdm.sol\":6719:6757  uen_to_balance[_uen_sender] -= _amount */\n      dup3\n      dup3\n      sload\n      tag_142\n      swap2\n      swap1\n      tag_143\n      jump\t// in\n    tag_142:\n      swap3\n      pop\n      pop\n      dup2\n      swap1\n      sstore\n      pop\n        /* \"sgdm.sol\":6782:6785  _to */\n      dup5\n        /* \"sgdm.sol\":6766:6795  Transfer(_from, _to, _amount) */\n      0xffffffffffffffffffffffffffffffffffffffff\n      and\n        /* \"sgdm.sol\":6775:6780  _from */\n      dup7\n        /* \"sgdm.sol\":6766:6795  Transfer(_from, _to, _amount) */\n      0xffffffffffffffffffffffffffffffffffffffff\n      and\n      0xddf252ad1be2c89b69c2b068fc378daa952ba7f163c4a11628f55a4df523b3ef\n        /* \"sgdm.sol\":6787:6794  _amount */\n      dup7\n        /* \"sgdm.sol\":6766:6795  Transfer(_from, _to, _amount) */\n      mload(0x40)\n      tag_144\n      swap2\n      swap1\n      tag_40\n      jump\t// in\n    tag_144:\n      mload(0x40)\n      dup1\n      swap2\n      sub\n      swap1\n      log3\n        /* \"sgdm.sol\":6799:6810  targetToken */\n      0x06\n      0x00\n      swap1\n      sload\n      swap1\n      0x0100\n      exp\n      swap1\n      div\n      0xffffffffffffffffffffffffffffffffffffffff\n      and\n        /* \"sgdm.sol\":6799:6819  targetToken.transfer */\n      0xffffffffffffffffffffffffffffffffffffffff\n      and\n      0xa9059cbb\n        /* \"sgdm.sol\":6820:6823  _to */\n      dup7\n        /* \"sgdm.sol\":6825:6832  _amount */\n      dup7\n        /* \"sgdm.sol\":6799:6833  targetToken.transfer(_to, _amount) */\n      mload(0x40)\n      dup4\n      0xffffffff\n      and\n      0xe0\n      shl\n      dup2\n      mstore\n      0x04\n      add\n      tag_145\n      swap3\n      swap2\n      swap1\n      tag_146\n      jump\t// in\n    tag_145:\n      0x20\n      mload(0x40)\n      dup1\n      dup4\n      sub\n      dup2\n      0x00\n      dup8\n      gas\n      call\n      iszero\n      dup1\n      iszero\n      tag_148\n      jumpi\n      returndatasize\n      0x00\n      dup1\n      returndatacopy\n      revert(0x00, returndatasize)\n    tag_148:\n      pop\n      pop\n      pop\n      pop\n      mload(0x40)\n      returndatasize\n      not(0x1f)\n      0x1f\n      dup3\n      add\n      and\n      dup3\n      add\n      dup1\n      0x40\n      mstore\n      pop\n      dup2\n      add\n      swap1\n      tag_149\n      swap2\n      swap1\n      tag_150\n      jump\t// in\n    tag_149:\n      pop\n        /* \"sgdm.sol\":6844:6848  true */\n      0x01\n        /* \"sgdm.sol\":6837:6848  return true */\n      swap3\n      pop\n      pop\n      pop\n        /* \"sgdm.sol\":6370:6852  function transferFrom(address _from, address _to, uint256 _amount) public override returns (bool) {... */\n      swap4\n      swap3\n      pop\n      pop\n      pop\n      jump\t// out\n        /* \"sgdm.sol\":6988:7061  function decimals() public pure override returns (uint8) {... */\n    tag_47:\n        /* \"sgdm.sol\":7038:7043  uint8 */\n      0x00\n        /* \"sgdm.sol\":7056:7057  6 */\n      0x06\n        /* \"sgdm.sol\":7049:7057  return 6 */\n      swap1\n      pop\n        /* \"sgdm.sol\":6988:7061  function decimals() public pure override returns (uint8) {... */\n      swap1\n      jump\t// out\n        /* \"sgdm.sol\":1407:1432  IERC20 public targetToken */\n    tag_51:\n      0x06\n      0x00\n      swap1\n      sload\n      swap1\n      0x0100\n      exp\n      swap1\n      div\n      0xffffffffffffffffffffffffffffffffffffffff\n      and\n      dup2\n      jump\t// out\n        /* \"sgdm.sol\":4944:5566  function uen_send(string memory _uen_target, uint256 _amount) external check_name(_uen_target) returns (bool) {... */\n    tag_57:\n        /* \"sgdm.sol\":5048:5052  bool */\n      0x00\n        /* \"sgdm.sol\":5026:5037  _uen_target */\n      dup3\n        /* \"sgdm.sol\":2453:2454  0 */\n      0x00\n        /* \"sgdm.sol\":2404:2427  uen_management_contract */\n      0x08\n      0x00\n      swap1\n      sload\n      swap1\n      0x0100\n      exp\n      swap1\n      div\n      0xffffffffffffffffffffffffffffffffffffffff\n      and\n        /* \"sgdm.sol\":2404:2436  uen_management_contract.get_name */\n      0xffffffffffffffffffffffffffffffffffffffff\n      and\n      0xa8f5d7a6\n        /* \"sgdm.sol\":2437:2441  _uen */\n      dup4\n        /* \"sgdm.sol\":2404:2442  uen_management_contract.get_name(_uen) */\n      mload(0x40)\n      dup3\n      0xffffffff\n      and\n      0xe0\n      shl\n      dup2\n      mstore\n      0x04\n      add\n      tag_153\n      swap2\n      swap1\n      tag_30\n      jump\t// in\n    tag_153:\n      0x00\n      mload(0x40)\n      dup1\n      dup4\n      sub\n      dup2\n      dup7\n      gas\n      staticcall\n      iszero\n      dup1\n      iszero\n      tag_155\n      jumpi\n      returndatasize\n      0x00\n      dup1\n      returndatacopy\n      revert(0x00, returndatasize)\n    tag_155:\n      pop\n      pop\n      pop\n      pop\n      mload(0x40)\n      returndatasize\n      0x00\n      dup3\n      returndatacopy\n      returndatasize\n      not(0x1f)\n      0x1f\n      dup3\n      add\n      and\n      dup3\n      add\n      dup1\n      0x40\n      mstore\n      pop\n      dup2\n      add\n      swap1\n      tag_156\n      swap2\n      swap1\n      tag_135\n      jump\t// in\n    tag_156:\n        /* \"sgdm.sol\":2398:2450  bytes(uen_management_contract.get_name(_uen)).length */\n      mload\n        /* \"sgdm.sol\":2398:2454  bytes(uen_management_contract.get_name(_uen)).length > 0 */\n      gt\n        /* \"sgdm.sol\":2390:2477  require(bytes(uen_management_contract.get_name(_uen)).length > 0, \"UEN does not exist\") */\n      tag_157\n      jumpi\n      mload(0x40)\n      0x08c379a000000000000000000000000000000000000000000000000000000000\n      dup2\n      mstore\n      0x04\n      add\n      tag_158\n      swap1\n      tag_159\n      jump\t// in\n    tag_158:\n      mload(0x40)\n      dup1\n      swap2\n      sub\n      swap1\n      revert\n    tag_157:\n        /* \"sgdm.sol\":5094:5095  0 */\n      0x00\n        /* \"sgdm.sol\":5072:5083  _uen_target */\n      dup5\n        /* \"sgdm.sol\":5066:5091  bytes(_uen_target).length */\n      mload\n        /* \"sgdm.sol\":5066:5095  bytes(_uen_target).length > 0 */\n      gt\n        /* \"sgdm.sol\":5058:5119  require(bytes(_uen_target).length > 0, \"UEN target is empty\") */\n      tag_161\n      jumpi\n      mload(0x40)\n      0x08c379a000000000000000000000000000000000000000000000000000000000\n      dup2\n      mstore\n      0x04\n      add\n      tag_162\n      swap1\n      tag_163\n      jump\t// in\n    tag_162:\n      mload(0x40)\n      dup1\n      swap2\n      sub\n      swap1\n      revert\n    tag_161:\n        /* \"sgdm.sol\":5123:5147  string memory _uen_payer */\n      0x00\n        /* \"sgdm.sol\":5150:5168  whitelist_contract */\n      0x09\n      0x00\n      swap1\n      sload\n      swap1\n      0x0100\n      exp\n      swap1\n      div\n      0xffffffffffffffffffffffffffffffffffffffff\n      and\n        /* \"sgdm.sol\":5150:5189  whitelist_contract.get_whitelist_to_uen */\n      0xffffffffffffffffffffffffffffffffffffffff\n      and\n      0x58581383\n        /* \"sgdm.sol\":5190:5200  msg.sender */\n      caller\n        /* \"sgdm.sol\":5150:5201  whitelist_contract.get_whitelist_to_uen(msg.sender) */\n      mload(0x40)\n      dup3\n      0xffffffff\n      and\n      0xe0\n      shl\n      dup2\n      mstore\n      0x04\n      add\n      tag_164\n      swap2\n      swap1\n      tag_73\n      jump\t// in\n    tag_164:\n      0x00\n      mload(0x40)\n      dup1\n      dup4\n      sub\n      dup2\n      dup7\n      gas\n      staticcall\n      iszero\n      dup1\n      iszero\n      tag_166\n      jumpi\n      returndatasize\n      0x00\n      dup1\n      returndatacopy\n      revert(0x00, returndatasize)\n    tag_166:\n      pop\n      pop\n      pop\n      pop\n      mload(0x40)\n      returndatasize\n      0x00\n      dup3\n      returndatacopy\n      returndatasize\n      not(0x1f)\n      0x1f\n      dup3\n      add\n      and\n      dup3\n      add\n      dup1\n      0x40\n      mstore\n      pop\n      dup2\n      add\n      swap1\n      tag_167\n      swap2\n      swap1\n      tag_135\n      jump\t// in\n    tag_167:\n        /* \"sgdm.sol\":5123:5201  string memory _uen_payer = whitelist_contract.get_whitelist_to_uen(msg.sender) */\n      swap1\n      pop\n        /* \"sgdm.sol\":5238:5245  _amount */\n      dup4\n        /* \"sgdm.sol\":5209:5223  uen_to_balance */\n      0x07\n        /* \"sgdm.sol\":5224:5234  _uen_payer */\n      dup3\n        /* \"sgdm.sol\":5209:5235  uen_to_balance[_uen_payer] */\n      mload(0x40)\n      tag_168\n      swap2\n      swap1\n      tag_137\n      jump\t// in\n    tag_168:\n      swap1\n      dup2\n      mstore\n      0x20\n      add\n      mload(0x40)\n      dup1\n      swap2\n      sub\n      swap1\n      keccak256\n      sload\n        /* \"sgdm.sol\":5209:5245  uen_to_balance[_uen_payer] < _amount */\n      lt\n        /* \"sgdm.sol\":5205:5269  if (uen_to_balance[_uen_payer] < _amount) {... */\n      iszero\n      tag_169\n      jumpi\n        /* \"sgdm.sol\":5259:5264  false */\n      0x00\n        /* \"sgdm.sol\":5252:5264  return false */\n      swap3\n      pop\n      pop\n      jump(tag_160)\n        /* \"sgdm.sol\":5205:5269  if (uen_to_balance[_uen_payer] < _amount) {... */\n    tag_169:\n        /* \"sgdm.sol\":5302:5309  _amount */\n      dup4\n        /* \"sgdm.sol\":5272:5286  uen_to_balance */\n      0x07\n        /* \"sgdm.sol\":5287:5297  _uen_payer */\n      dup3\n        /* \"sgdm.sol\":5272:5298  uen_to_balance[_uen_payer] */\n      mload(0x40)\n      tag_170\n      swap2\n      swap1\n      tag_137\n      jump\t// in\n    tag_170:\n      swap1\n      dup2\n      mstore\n      0x20\n      add\n      mload(0x40)\n      dup1\n      swap2\n      sub\n      swap1\n      keccak256\n      0x00\n        /* \"sgdm.sol\":5272:5309  uen_to_balance[_uen_payer] -= _amount */\n      dup3\n      dup3\n      sload\n      tag_171\n      swap2\n      swap1\n      tag_143\n      jump\t// in\n    tag_171:\n      swap3\n      pop\n      pop\n      dup2\n      swap1\n      sstore\n      pop\n        /* \"sgdm.sol\":5344:5351  _amount */\n      dup4\n        /* \"sgdm.sol\":5313:5327  uen_to_balance */\n      0x07\n        /* \"sgdm.sol\":5328:5339  _uen_target */\n      dup7\n        /* \"sgdm.sol\":5313:5340  uen_to_balance[_uen_target] */\n      mload(0x40)\n      tag_172\n      swap2\n      swap1\n      tag_137\n      jump\t// in\n    tag_172:\n      swap1\n      dup2\n      mstore\n      0x20\n      add\n      mload(0x40)\n      dup1\n      swap2\n      sub\n      swap1\n      keccak256\n      0x00\n        /* \"sgdm.sol\":5313:5351  uen_to_balance[_uen_target] += _amount */\n      dup3\n      dup3\n      sload\n      tag_173\n      swap2\n      swap1\n      tag_174\n      jump\t// in\n    tag_173:\n      swap3\n      pop\n      pop\n      dup2\n      swap1\n      sstore\n      pop\n        /* \"sgdm.sol\":5358:5385  address _uen_target_address */\n      0x00\n        /* \"sgdm.sol\":5388:5406  whitelist_contract */\n      0x09\n      0x00\n      swap1\n      sload\n      swap1\n      0x0100\n      exp\n      swap1\n      div\n      0xffffffffffffffffffffffffffffffffffffffff\n      and\n        /* \"sgdm.sol\":5388:5427  whitelist_contract.get_uen_to_whitelist */\n      0xffffffffffffffffffffffffffffffffffffffff\n      and\n      0xa9b295e3\n        /* \"sgdm.sol\":5428:5439  _uen_target */\n      dup8\n        /* \"sgdm.sol\":5388:5440  whitelist_contract.get_uen_to_whitelist(_uen_target) */\n      mload(0x40)\n      dup3\n      0xffffffff\n      and\n      0xe0\n      shl\n      dup2\n      mstore\n      0x04\n      add\n      tag_175\n      swap2\n      swap1\n      tag_30\n      jump\t// in\n    tag_175:\n      0x20\n      mload(0x40)\n      dup1\n      dup4\n      sub\n      dup2\n      dup7\n      gas\n      staticcall\n      iszero\n      dup1\n      iszero\n      tag_177\n      jumpi\n      returndatasize\n      0x00\n      dup1\n      returndatacopy\n      revert(0x00, returndatasize)\n    tag_177:\n      pop\n      pop\n      pop\n      pop\n      mload(0x40)\n      returndatasize\n      not(0x1f)\n      0x1f\n      dup3\n      add\n      and\n      dup3\n      add\n      dup1\n      0x40\n      mstore\n      pop\n      dup2\n      add\n      swap1\n      tag_178\n      swap2\n      swap1\n      tag_179\n      jump\t// in\n    tag_178:\n        /* \"sgdm.sol\":5358:5440  address _uen_target_address = whitelist_contract.get_uen_to_whitelist(_uen_target) */\n      swap1\n      pop\n        /* \"sgdm.sol\":5479:5480  0 */\n      0x00\n        /* \"sgdm.sol\":5448:5481  _uen_target_address != address(0) */\n      0xffffffffffffffffffffffffffffffffffffffff\n      and\n        /* \"sgdm.sol\":5448:5467  _uen_target_address */\n      dup2\n        /* \"sgdm.sol\":5448:5481  _uen_target_address != address(0) */\n      0xffffffffffffffffffffffffffffffffffffffff\n      and\n      eq\n        /* \"sgdm.sol\":5444:5548  if (_uen_target_address != address(0)) {... */\n      tag_180\n      jumpi\n        /* \"sgdm.sol\":5514:5533  _uen_target_address */\n      dup1\n        /* \"sgdm.sol\":5493:5543  Transfer(msg.sender, _uen_target_address, _amount) */\n      0xffffffffffffffffffffffffffffffffffffffff\n      and\n        /* \"sgdm.sol\":5502:5512  msg.sender */\n      caller\n        /* \"sgdm.sol\":5493:5543  Transfer(msg.sender, _uen_target_address, _amount) */\n      0xffffffffffffffffffffffffffffffffffffffff\n      and\n      0xddf252ad1be2c89b69c2b068fc378daa952ba7f163c4a11628f55a4df523b3ef\n        /* \"sgdm.sol\":5535:5542  _amount */\n      dup8\n        /* \"sgdm.sol\":5493:5543  Transfer(msg.sender, _uen_target_address, _amount) */\n      mload(0x40)\n      tag_181\n      swap2\n      swap1\n      tag_40\n      jump\t// in\n    tag_181:\n      mload(0x40)\n      dup1\n      swap2\n      sub\n      swap1\n      log3\n        /* \"sgdm.sol\":5444:5548  if (_uen_target_address != address(0)) {... */\n    tag_180:\n        /* \"sgdm.sol\":5558:5562  true */\n      0x01\n        /* \"sgdm.sol\":5551:5562  return true */\n      swap4\n      pop\n      pop\n      pop\n        /* \"sgdm.sol\":2481:2482  _ */\n    tag_160:\n        /* \"sgdm.sol\":4944:5566  function uen_send(string memory _uen_target, uint256 _amount) external check_name(_uen_target) returns (bool) {... */\n      pop\n      swap3\n      swap2\n      pop\n      pop\n      jump\t// out\n        /* \"sgdm.sol\":3904:4498  function send_token_to_uen(string memory _uen, uint256 _amount) external check_name(_uen) returns (bool) {... */\n    tag_61:\n        /* \"sgdm.sol\":4003:4007  bool */\n      0x00\n        /* \"sgdm.sol\":3988:3992  _uen */\n      dup3\n        /* \"sgdm.sol\":2453:2454  0 */\n      0x00\n        /* \"sgdm.sol\":2404:2427  uen_management_contract */\n      0x08\n      0x00\n      swap1\n      sload\n      swap1\n      0x0100\n      exp\n      swap1\n      div\n      0xffffffffffffffffffffffffffffffffffffffff\n      and\n        /* \"sgdm.sol\":2404:2436  uen_management_contract.get_name */\n      0xffffffffffffffffffffffffffffffffffffffff\n      and\n      0xa8f5d7a6\n        /* \"sgdm.sol\":2437:2441  _uen */\n      dup4\n        /* \"sgdm.sol\":2404:2442  uen_management_contract.get_name(_uen) */\n      mload(0x40)\n      dup3\n      0xffffffff\n      and\n      0xe0\n      shl\n      dup2\n      mstore\n      0x04\n      add\n      tag_183\n      swap2\n      swap1\n      tag_30\n      jump\t// in\n    tag_183:\n      0x00\n      mload(0x40)\n      dup1\n      dup4\n      sub\n      dup2\n      dup7\n      gas\n      staticcall\n      iszero\n      dup1\n      iszero\n      tag_185\n      jumpi\n      returndatasize\n      0x00\n      dup1\n      returndatacopy\n      revert(0x00, returndatasize)\n    tag_185:\n      pop\n      pop\n      pop\n      pop\n      mload(0x40)\n      returndatasize\n      0x00\n      dup3\n      returndatacopy\n      returndatasize\n      not(0x1f)\n      0x1f\n      dup3\n      add\n      and\n      dup3\n      add\n      dup1\n      0x40\n      mstore\n      pop\n      dup2\n      add\n      swap1\n      tag_186\n      swap2\n      swap1\n      tag_135\n      jump\t// in\n    tag_186:\n        /* \"sgdm.sol\":2398:2450  bytes(uen_management_contract.get_name(_uen)).length */\n      mload\n        /* \"sgdm.sol\":2398:2454  bytes(uen_management_contract.get_name(_uen)).length > 0 */\n      gt\n        /* \"sgdm.sol\":2390:2477  require(bytes(uen_management_contract.get_name(_uen)).length > 0, \"UEN does not exist\") */\n      tag_187\n      jumpi\n      mload(0x40)\n      0x08c379a000000000000000000000000000000000000000000000000000000000\n      dup2\n      mstore\n      0x04\n      add\n      tag_188\n      swap1\n      tag_159\n      jump\t// in\n    tag_188:\n      mload(0x40)\n      dup1\n      swap2\n      sub\n      swap1\n      revert\n    tag_187:\n        /* \"sgdm.sol\":4042:4043  0 */\n      0x00\n        /* \"sgdm.sol\":4027:4031  _uen */\n      dup5\n        /* \"sgdm.sol\":4021:4039  bytes(_uen).length */\n      mload\n        /* \"sgdm.sol\":4021:4043  bytes(_uen).length > 0 */\n      gt\n        /* \"sgdm.sol\":4013:4060  require(bytes(_uen).length > 0, \"UEN is empty\") */\n      tag_190\n      jumpi\n      mload(0x40)\n      0x08c379a000000000000000000000000000000000000000000000000000000000\n      dup2\n      mstore\n      0x04\n      add\n      tag_191\n      swap1\n      tag_192\n      jump\t// in\n    tag_191:\n      mload(0x40)\n      dup1\n      swap2\n      sub\n      swap1\n      revert\n    tag_190:\n        /* \"sgdm.sol\":4067:4090  uint256 token_allowance */\n      0x00\n        /* \"sgdm.sol\":4093:4104  targetToken */\n      0x06\n      0x00\n      swap1\n      sload\n      swap1\n      0x0100\n      exp\n      swap1\n      div\n      0xffffffffffffffffffffffffffffffffffffffff\n      and\n        /* \"sgdm.sol\":4093:4114  targetToken.allowance */\n      0xffffffffffffffffffffffffffffffffffffffff\n      and\n      0xdd62ed3e\n        /* \"sgdm.sol\":4115:4125  msg.sender */\n      caller\n        /* \"sgdm.sol\":4135:4139  this */\n      address\n        /* \"sgdm.sol\":4093:4141  targetToken.allowance(msg.sender, address(this)) */\n      mload(0x40)\n      dup4\n      0xffffffff\n      and\n      0xe0\n      shl\n      dup2\n      mstore\n      0x04\n      add\n      tag_193\n      swap3\n      swap2\n      swap1\n      tag_194\n      jump\t// in\n    tag_193:\n      0x20\n      mload(0x40)\n      dup1\n      dup4\n      sub\n      dup2\n      dup7\n      gas\n      staticcall\n      iszero\n      dup1\n      iszero\n      tag_196\n      jumpi\n      returndatasize\n      0x00\n      dup1\n      returndatacopy\n      revert(0x00, returndatasize)\n    tag_196:\n      pop\n      pop\n      pop\n      pop\n      mload(0x40)\n      returndatasize\n      not(0x1f)\n      0x1f\n      dup3\n      add\n      and\n      dup3\n      add\n      dup1\n      0x40\n      mstore\n      pop\n      dup2\n      add\n      swap1\n      tag_197\n      swap2\n      swap1\n      tag_126\n      jump\t// in\n    tag_197:\n        /* \"sgdm.sol\":4067:4141  uint256 token_allowance = targetToken.allowance(msg.sender, address(this)) */\n      swap1\n      pop\n        /* \"sgdm.sol\":4175:4182  _amount */\n      dup4\n        /* \"sgdm.sol\":4156:4171  token_allowance */\n      dup2\n        /* \"sgdm.sol\":4156:4182  token_allowance >= _amount */\n      lt\n      iszero\n        /* \"sgdm.sol\":4148:4209  require(token_allowance >= _amount, \"Increase the allowance\") */\n      tag_198\n      jumpi\n      mload(0x40)\n      0x08c379a000000000000000000000000000000000000000000000000000000000\n      dup2\n      mstore\n      0x04\n      add\n      tag_199\n      swap1\n      tag_200\n      jump\t// in\n    tag_199:\n      mload(0x40)\n      dup1\n      swap2\n      sub\n      swap1\n      revert\n    tag_198:\n        /* \"sgdm.sol\":4216:4227  targetToken */\n      0x06\n      0x00\n      swap1\n      sload\n      swap1\n      0x0100\n      exp\n      swap1\n      div\n      0xffffffffffffffffffffffffffffffffffffffff\n      and\n        /* \"sgdm.sol\":4216:4240  targetToken.transferFrom */\n      0xffffffffffffffffffffffffffffffffffffffff\n      and\n      0x23b872dd\n        /* \"sgdm.sol\":4241:4251  msg.sender */\n      caller\n        /* \"sgdm.sol\":4261:4265  this */\n      address\n        /* \"sgdm.sol\":4268:4275  _amount */\n      dup8\n        /* \"sgdm.sol\":4216:4276  targetToken.transferFrom(msg.sender, address(this), _amount) */\n      mload(0x40)\n      dup5\n      0xffffffff\n      and\n      0xe0\n      shl\n      dup2\n      mstore\n      0x04\n      add\n      tag_201\n      swap4\n      swap3\n      swap2\n      swap1\n      tag_202\n      jump\t// in\n    tag_201:\n      0x20\n      mload(0x40)\n      dup1\n      dup4\n      sub\n      dup2\n      0x00\n      dup8\n      gas\n      call\n      iszero\n      dup1\n      iszero\n      tag_204\n      jumpi\n      returndatasize\n      0x00\n      dup1\n      returndatacopy\n      revert(0x00, returndatasize)\n    tag_204:\n      pop\n      pop\n      pop\n      pop\n      mload(0x40)\n      returndatasize\n      not(0x1f)\n      0x1f\n      dup3\n      add\n      and\n      dup3\n      add\n      dup1\n      0x40\n      mstore\n      pop\n      dup2\n      add\n      swap1\n      tag_205\n      swap2\n      swap1\n      tag_150\n      jump\t// in\n    tag_205:\n      pop\n        /* \"sgdm.sol\":4304:4311  _amount */\n      dup4\n        /* \"sgdm.sol\":4280:4294  uen_to_balance */\n      0x07\n        /* \"sgdm.sol\":4295:4299  _uen */\n      dup7\n        /* \"sgdm.sol\":4280:4300  uen_to_balance[_uen] */\n      mload(0x40)\n      tag_206\n      swap2\n      swap1\n      tag_137\n      jump\t// in\n    tag_206:\n      swap1\n      dup2\n      mstore\n      0x20\n      add\n      mload(0x40)\n      dup1\n      swap2\n      sub\n      swap1\n      keccak256\n      0x00\n        /* \"sgdm.sol\":4280:4311  uen_to_balance[_uen] += _amount */\n      dup3\n      dup3\n      sload\n      tag_207\n      swap2\n      swap1\n      tag_174\n      jump\t// in\n    tag_207:\n      swap3\n      pop\n      pop\n      dup2\n      swap1\n      sstore\n      pop\n        /* \"sgdm.sol\":4318:4338  address _uen_address */\n      0x00\n        /* \"sgdm.sol\":4341:4359  whitelist_contract */\n      0x09\n      0x00\n      swap1\n      sload\n      swap1\n      0x0100\n      exp\n      swap1\n      div\n      0xffffffffffffffffffffffffffffffffffffffff\n      and\n        /* \"sgdm.sol\":4341:4380  whitelist_contract.get_uen_to_whitelist */\n      0xffffffffffffffffffffffffffffffffffffffff\n      and\n      0xa9b295e3\n        /* \"sgdm.sol\":4381:4385  _uen */\n      dup8\n        /* \"sgdm.sol\":4341:4386  whitelist_contract.get_uen_to_whitelist(_uen) */\n      mload(0x40)\n      dup3\n      0xffffffff\n      and\n      0xe0\n      shl\n      dup2\n      mstore\n      0x04\n      add\n      tag_208\n      swap2\n      swap1\n      tag_30\n      jump\t// in\n    tag_208:\n      0x20\n      mload(0x40)\n      dup1\n      dup4\n      sub\n      dup2\n      dup7\n      gas\n      staticcall\n      iszero\n      dup1\n      iszero\n      tag_210\n      jumpi\n      returndatasize\n      0x00\n      dup1\n      returndatacopy\n      revert(0x00, returndatasize)\n    tag_210:\n      pop\n      pop\n      pop\n      pop\n      mload(0x40)\n      returndatasize\n      not(0x1f)\n      0x1f\n      dup3\n      add\n      and\n      dup3\n      add\n      dup1\n      0x40\n      mstore\n      pop\n      dup2\n      add\n      swap1\n      tag_211\n      swap2\n      swap1\n      tag_179\n      jump\t// in\n    tag_211:\n        /* \"sgdm.sol\":4318:4386  address _uen_address = whitelist_contract.get_uen_to_whitelist(_uen) */\n      swap1\n      pop\n        /* \"sgdm.sol\":4418:4419  0 */\n      0x00\n        /* \"sgdm.sol\":4394:4420  _uen_address != address(0) */\n      0xffffffffffffffffffffffffffffffffffffffff\n      and\n        /* \"sgdm.sol\":4394:4406  _uen_address */\n      dup2\n        /* \"sgdm.sol\":4394:4420  _uen_address != address(0) */\n      0xffffffffffffffffffffffffffffffffffffffff\n      and\n      eq\n        /* \"sgdm.sol\":4390:4480  if (_uen_address != address(0)) {... */\n      tag_212\n      jumpi\n        /* \"sgdm.sol\":4453:4465  _uen_address */\n      dup1\n        /* \"sgdm.sol\":4432:4475  Transfer(msg.sender, _uen_address, _amount) */\n      0xffffffffffffffffffffffffffffffffffffffff\n      and\n        /* \"sgdm.sol\":4441:4451  msg.sender */\n      caller\n        /* \"sgdm.sol\":4432:4475  Transfer(msg.sender, _uen_address, _amount) */\n      0xffffffffffffffffffffffffffffffffffffffff\n      and\n      0xddf252ad1be2c89b69c2b068fc378daa952ba7f163c4a11628f55a4df523b3ef\n        /* \"sgdm.sol\":4467:4474  _amount */\n      dup8\n        /* \"sgdm.sol\":4432:4475  Transfer(msg.sender, _uen_address, _amount) */\n      mload(0x40)\n      tag_213\n      swap2\n      swap1\n      tag_40\n      jump\t// in\n    tag_213:\n      mload(0x40)\n      dup1\n      swap2\n      sub\n      swap1\n      log3\n        /* \"sgdm.sol\":4390:4480  if (_uen_address != address(0)) {... */\n    tag_212:\n        /* \"sgdm.sol\":4490:4494  true */\n      0x01\n        /* \"sgdm.sol\":4483:4494  return true */\n      swap4\n      pop\n      pop\n      pop\n        /* \"sgdm.sol\":3904:4498  function send_token_to_uen(string memory _uen, uint256 _amount) external check_name(_uen) returns (bool) {... */\n      pop\n      swap3\n      swap2\n      pop\n      pop\n      jump\t// out\n        /* \"sgdm.sol\":7350:7539  function balanceOf(address _owner) public view override returns (uint256 balance) {... */\n    tag_66:\n        /* \"sgdm.sol\":7415:7430  uint256 balance */\n      0x00\n        /* \"sgdm.sol\":7436:7454  string memory _uen */\n      dup1\n        /* \"sgdm.sol\":7457:7475  whitelist_contract */\n      0x09\n      0x00\n      swap1\n      sload\n      swap1\n      0x0100\n      exp\n      swap1\n      div\n      0xffffffffffffffffffffffffffffffffffffffff\n      and\n        /* \"sgdm.sol\":7457:7496  whitelist_contract.get_whitelist_to_uen */\n      0xffffffffffffffffffffffffffffffffffffffff\n      and\n      0x58581383\n        /* \"sgdm.sol\":7497:7503  _owner */\n      dup5\n        /* \"sgdm.sol\":7457:7504  whitelist_contract.get_whitelist_to_uen(_owner) */\n      mload(0x40)\n      dup3\n      0xffffffff\n      and\n      0xe0\n      shl\n      dup2\n      mstore\n      0x04\n      add\n      tag_215\n      swap2\n      swap1\n      tag_73\n      jump\t// in\n    tag_215:\n      0x00\n      mload(0x40)\n      dup1\n      dup4\n      sub\n      dup2\n      dup7\n      gas\n      staticcall\n      iszero\n      dup1\n      iszero\n      tag_217\n      jumpi\n      returndatasize\n      0x00\n      dup1\n      returndatacopy\n      revert(0x00, returndatasize)\n    tag_217:\n      pop\n      pop\n      pop\n      pop\n      mload(0x40)\n      returndatasize\n      0x00\n      dup3\n      returndatacopy\n      returndatasize\n      not(0x1f)\n      0x1f\n      dup3\n      add\n      and\n      dup3\n      add\n      dup1\n      0x40\n      mstore\n      pop\n      dup2\n      add\n      swap1\n      tag_218\n      swap2\n      swap1\n      tag_135\n      jump\t// in\n    tag_218:\n        /* \"sgdm.sol\":7436:7504  string memory _uen = whitelist_contract.get_whitelist_to_uen(_owner) */\n      swap1\n      pop\n        /* \"sgdm.sol\":7515:7529  uen_to_balance */\n      0x07\n        /* \"sgdm.sol\":7530:7534  _uen */\n      dup2\n        /* \"sgdm.sol\":7515:7535  uen_to_balance[_uen] */\n      mload(0x40)\n      tag_219\n      swap2\n      swap1\n      tag_137\n      jump\t// in\n    tag_219:\n      swap1\n      dup2\n      mstore\n      0x20\n      add\n      mload(0x40)\n      dup1\n      swap2\n      sub\n      swap1\n      keccak256\n      sload\n        /* \"sgdm.sol\":7508:7535  return uen_to_balance[_uen] */\n      swap2\n      pop\n      pop\n        /* \"sgdm.sol\":7350:7539  function balanceOf(address _owner) public view override returns (uint256 balance) {... */\n      swap2\n      swap1\n      pop\n      jump\t// out\n        /* \"@openzeppelin/contracts/access/Ownable.sol\":2293:2394  function renounceOwnership() public virtual onlyOwner {... */\n    tag_69:\n        /* \"@openzeppelin/contracts/access/Ownable.sol\":1531:1544  _checkOwner() */\n      tag_221\n        /* \"@openzeppelin/contracts/access/Ownable.sol\":1531:1542  _checkOwner */\n      tag_222\n        /* \"@openzeppelin/contracts/access/Ownable.sol\":1531:1544  _checkOwner() */\n      jump\t// in\n    tag_221:\n        /* \"@openzeppelin/contracts/access/Ownable.sol\":2357:2387  _transferOwnership(address(0)) */\n      tag_224\n        /* \"@openzeppelin/contracts/access/Ownable.sol\":2384:2385  0 */\n      0x00\n        /* \"@openzeppelin/contracts/access/Ownable.sol\":2357:2375  _transferOwnership */\n      tag_225\n        /* \"@openzeppelin/contracts/access/Ownable.sol\":2357:2387  _transferOwnership(address(0)) */\n      jump\t// in\n    tag_224:\n        /* \"@openzeppelin/contracts/access/Ownable.sol\":2293:2394  function renounceOwnership() public virtual onlyOwner {... */\n      jump\t// out\n        /* \"sgdm.sol\":6880:6972  function token_address() external view returns (address) {... */\n    tag_71:\n        /* \"sgdm.sol\":6928:6935  address */\n      0x00\n        /* \"sgdm.sol\":6956:6967  targetToken */\n      0x06\n      0x00\n      swap1\n      sload\n      swap1\n      0x0100\n      exp\n      swap1\n      div\n      0xffffffffffffffffffffffffffffffffffffffff\n      and\n        /* \"sgdm.sol\":6941:6968  return address(targetToken) */\n      swap1\n      pop\n        /* \"sgdm.sol\":6880:6972  function token_address() external view returns (address) {... */\n      swap1\n      jump\t// out\n        /* \"@openzeppelin/contracts/access/Ownable.sol\":1638:1723  function owner() public view virtual returns (address) {... */\n    tag_75:\n        /* \"@openzeppelin/contracts/access/Ownable.sol\":1684:1691  address */\n      0x00\n        /* \"@openzeppelin/contracts/access/Ownable.sol\":1710:1716  _owner */\n      0x05\n      0x00\n      swap1\n      sload\n      swap1\n      0x0100\n      exp\n      swap1\n      div\n      0xffffffffffffffffffffffffffffffffffffffff\n      and\n        /* \"@openzeppelin/contracts/access/Ownable.sol\":1703:1716  return _owner */\n      swap1\n      pop\n        /* \"@openzeppelin/contracts/access/Ownable.sol\":1638:1723  function owner() public view virtual returns (address) {... */\n      swap1\n      jump\t// out\n        /* \"sgdm.sol\":3320:3431  function balance_of_uen(string memory _uen) external view returns (uint256) {... */\n    tag_80:\n        /* \"sgdm.sol\":3387:3394  uint256 */\n      0x00\n        /* \"sgdm.sol\":3407:3421  uen_to_balance */\n      0x07\n        /* \"sgdm.sol\":3422:3426  _uen */\n      dup3\n        /* \"sgdm.sol\":3407:3427  uen_to_balance[_uen] */\n      mload(0x40)\n      tag_229\n      swap2\n      swap1\n      tag_137\n      jump\t// in\n    tag_229:\n      swap1\n      dup2\n      mstore\n      0x20\n      add\n      mload(0x40)\n      dup1\n      swap2\n      sub\n      swap1\n      keccak256\n      sload\n        /* \"sgdm.sol\":3400:3427  return uen_to_balance[_uen] */\n      swap1\n      pop\n        /* \"sgdm.sol\":3320:3431  function balance_of_uen(string memory _uen) external view returns (uint256) {... */\n      swap2\n      swap1\n      pop\n      jump\t// out\n        /* \"@openzeppelin/contracts/token/ERC20/ERC20.sol\":2276:2369  function symbol() public view virtual returns (string memory) {... */\n    tag_83:\n        /* \"@openzeppelin/contracts/token/ERC20/ERC20.sol\":2323:2336  string memory */\n      0x60\n        /* \"@openzeppelin/contracts/token/ERC20/ERC20.sol\":2355:2362  _symbol */\n      0x04\n        /* \"@openzeppelin/contracts/token/ERC20/ERC20.sol\":2348:2362  return _symbol */\n      dup1\n      sload\n      tag_231\n      swap1\n      tag_114\n      jump\t// in\n    tag_231:\n      dup1\n      0x1f\n      add\n      0x20\n      dup1\n      swap2\n      div\n      mul\n      0x20\n      add\n      mload(0x40)\n      swap1\n      dup2\n      add\n      0x40\n      mstore\n      dup1\n      swap3\n      swap2\n      swap1\n      dup2\n      dup2\n      mstore\n      0x20\n      add\n      dup3\n      dup1\n      sload\n      tag_232\n      swap1\n      tag_114\n      jump\t// in\n    tag_232:\n      dup1\n      iszero\n      tag_233\n      jumpi\n      dup1\n      0x1f\n      lt\n      tag_234\n      jumpi\n      0x0100\n      dup1\n      dup4\n      sload\n      div\n      mul\n      dup4\n      mstore\n      swap2\n      0x20\n      add\n      swap2\n      jump(tag_233)\n    tag_234:\n      dup3\n      add\n      swap2\n      swap1\n      0x00\n      mstore\n      keccak256(0x00, 0x20)\n      swap1\n    tag_235:\n      dup2\n      sload\n      dup2\n      mstore\n      swap1\n      0x01\n      add\n      swap1\n      0x20\n      add\n      dup1\n      dup4\n      gt\n      tag_235\n      jumpi\n      dup3\n      swap1\n      sub\n      0x1f\n      and\n      dup3\n      add\n      swap2\n    tag_233:\n      pop\n      pop\n      pop\n      pop\n      pop\n      swap1\n      pop\n        /* \"@openzeppelin/contracts/token/ERC20/ERC20.sol\":2276:2369  function symbol() public view virtual returns (string memory) {... */\n      swap1\n      jump\t// out\n        /* \"sgdm.sol\":3169:3298  function check_whitelist() public view returns (string memory) {... */\n    tag_86:\n        /* \"sgdm.sol\":3217:3230  string memory */\n      0x60\n        /* \"sgdm.sol\":3243:3261  whitelist_contract */\n      0x09\n      0x00\n      swap1\n      sload\n      swap1\n      0x0100\n      exp\n      swap1\n      div\n      0xffffffffffffffffffffffffffffffffffffffff\n      and\n        /* \"sgdm.sol\":3243:3282  whitelist_contract.get_whitelist_to_uen */\n      0xffffffffffffffffffffffffffffffffffffffff\n      and\n      0x58581383\n        /* \"sgdm.sol\":3283:3293  msg.sender */\n      caller\n        /* \"sgdm.sol\":3243:3294  whitelist_contract.get_whitelist_to_uen(msg.sender) */\n      mload(0x40)\n      dup3\n      0xffffffff\n      and\n      0xe0\n      shl\n      dup2\n      mstore\n      0x04\n      add\n      tag_237\n      swap2\n      swap1\n      tag_73\n      jump\t// in\n    tag_237:\n      0x00\n      mload(0x40)\n      dup1\n      dup4\n      sub\n      dup2\n      dup7\n      gas\n      staticcall\n      iszero\n      dup1\n      iszero\n      tag_239\n      jumpi\n      returndatasize\n      0x00\n      dup1\n      returndatacopy\n      revert(0x00, returndatasize)\n    tag_239:\n      pop\n      pop\n      pop\n      pop\n      mload(0x40)\n      returndatasize\n      0x00\n      dup3\n      returndatacopy\n      returndatasize\n      not(0x1f)\n      0x1f\n      dup3\n      add\n      and\n      dup3\n      add\n      dup1\n      0x40\n      mstore\n      pop\n      dup2\n      add\n      swap1\n      tag_240\n      swap2\n      swap1\n      tag_135\n      jump\t// in\n    tag_240:\n        /* \"sgdm.sol\":3236:3294  return whitelist_contract.get_whitelist_to_uen(msg.sender) */\n      swap1\n      pop\n        /* \"sgdm.sol\":3169:3298  function check_whitelist() public view returns (string memory) {... */\n      swap1\n      jump\t// out\n        /* \"sgdm.sol\":2969:3098  function get_name(string memory _uen) external view returns (string memory) {... */\n    tag_90:\n        /* \"sgdm.sol\":3030:3043  string memory */\n      0x60\n        /* \"sgdm.sol\":3056:3079  uen_management_contract */\n      0x08\n      0x00\n      swap1\n      sload\n      swap1\n      0x0100\n      exp\n      swap1\n      div\n      0xffffffffffffffffffffffffffffffffffffffff\n      and\n        /* \"sgdm.sol\":3056:3088  uen_management_contract.get_name */\n      0xffffffffffffffffffffffffffffffffffffffff\n      and\n      0xa8f5d7a6\n        /* \"sgdm.sol\":3089:3093  _uen */\n      dup4\n        /* \"sgdm.sol\":3056:3094  uen_management_contract.get_name(_uen) */\n      mload(0x40)\n      dup3\n      0xffffffff\n      and\n      0xe0\n      shl\n      dup2\n      mstore\n      0x04\n      add\n      tag_242\n      swap2\n      swap1\n      tag_30\n      jump\t// in\n    tag_242:\n      0x00\n      mload(0x40)\n      dup1\n      dup4\n      sub\n      dup2\n      dup7\n      gas\n      staticcall\n      iszero\n      dup1\n      iszero\n      tag_244\n      jumpi\n      returndatasize\n      0x00\n      dup1\n      returndatacopy\n      revert(0x00, returndatasize)\n    tag_244:\n      pop\n      pop\n      pop\n      pop\n      mload(0x40)\n      returndatasize\n      0x00\n      dup3\n      returndatacopy\n      returndatasize\n      not(0x1f)\n      0x1f\n      dup3\n      add\n      and\n      dup3\n      add\n      dup1\n      0x40\n      mstore\n      pop\n      dup2\n      add\n      swap1\n      tag_245\n      swap2\n      swap1\n      tag_135\n      jump\t// in\n    tag_245:\n        /* \"sgdm.sol\":3049:3094  return uen_management_contract.get_name(_uen) */\n      swap1\n      pop\n        /* \"sgdm.sol\":2969:3098  function get_name(string memory _uen) external view returns (string memory) {... */\n      swap2\n      swap1\n      pop\n      jump\t// out\n        /* \"sgdm.sol\":5836:6309  function transfer(address _to, uint256 _amount) public override returns (bool) {... */\n    tag_94:\n        /* \"sgdm.sol\":5909:5913  bool */\n      0x00\n        /* \"sgdm.sol\":5942:5943  0 */\n      dup1\n        /* \"sgdm.sol\":5927:5944  _to != address(0) */\n      0xffffffffffffffffffffffffffffffffffffffff\n      and\n        /* \"sgdm.sol\":5927:5930  _to */\n      dup4\n        /* \"sgdm.sol\":5927:5944  _to != address(0) */\n      0xffffffffffffffffffffffffffffffffffffffff\n      and\n      sub\n        /* \"sgdm.sol\":5919:5973  require(_to != address(0), \"Transfer to zero address\") */\n      tag_247\n      jumpi\n      mload(0x40)\n      0x08c379a000000000000000000000000000000000000000000000000000000000\n      dup2\n      mstore\n      0x04\n      add\n      tag_248\n      swap1\n      tag_130\n      jump\t// in\n    tag_248:\n      mload(0x40)\n      dup1\n      swap2\n      sub\n      swap1\n      revert\n    tag_247:\n        /* \"sgdm.sol\":5977:6002  string memory _uen_sender */\n      0x00\n        /* \"sgdm.sol\":6005:6023  whitelist_contract */\n      0x09\n      0x00\n      swap1\n      sload\n      swap1\n      0x0100\n      exp\n      swap1\n      div\n      0xffffffffffffffffffffffffffffffffffffffff\n      and\n        /* \"sgdm.sol\":6005:6044  whitelist_contract.get_whitelist_to_uen */\n      0xffffffffffffffffffffffffffffffffffffffff\n      and\n      0x58581383\n        /* \"sgdm.sol\":6045:6055  msg.sender */\n      caller\n        /* \"sgdm.sol\":6005:6056  whitelist_contract.get_whitelist_to_uen(msg.sender) */\n      mload(0x40)\n      dup3\n      0xffffffff\n      and\n      0xe0\n      shl\n      dup2\n      mstore\n      0x04\n      add\n      tag_249\n      swap2\n      swap1\n      tag_73\n      jump\t// in\n    tag_249:\n      0x00\n      mload(0x40)\n      dup1\n      dup4\n      sub\n      dup2\n      dup7\n      gas\n      staticcall\n      iszero\n      dup1\n      iszero\n      tag_251\n      jumpi\n      returndatasize\n      0x00\n      dup1\n      returndatacopy\n      revert(0x00, returndatasize)\n    tag_251:\n      pop\n      pop\n      pop\n      pop\n      mload(0x40)\n      returndatasize\n      0x00\n      dup3\n      returndatacopy\n      returndatasize\n      not(0x1f)\n      0x1f\n      dup3\n      add\n      and\n      dup3\n      add\n      dup1\n      0x40\n      mstore\n      pop\n      dup2\n      add\n      swap1\n      tag_252\n      swap2\n      swap1\n      tag_135\n      jump\t// in\n    tag_252:\n        /* \"sgdm.sol\":5977:6056  string memory _uen_sender = whitelist_contract.get_whitelist_to_uen(msg.sender) */\n      swap1\n      pop\n        /* \"sgdm.sol\":6063:6079  uint256 _balance */\n      0x00\n        /* \"sgdm.sol\":6082:6096  uen_to_balance */\n      0x07\n        /* \"sgdm.sol\":6097:6108  _uen_sender */\n      dup3\n        /* \"sgdm.sol\":6082:6109  uen_to_balance[_uen_sender] */\n      mload(0x40)\n      tag_253\n      swap2\n      swap1\n      tag_137\n      jump\t// in\n    tag_253:\n      swap1\n      dup2\n      mstore\n      0x20\n      add\n      mload(0x40)\n      dup1\n      swap2\n      sub\n      swap1\n      keccak256\n      sload\n        /* \"sgdm.sol\":6063:6109  uint256 _balance = uen_to_balance[_uen_sender] */\n      swap1\n      pop\n        /* \"sgdm.sol\":6134:6141  _amount */\n      dup4\n        /* \"sgdm.sol\":6122:6130  _balance */\n      dup2\n        /* \"sgdm.sol\":6122:6141  _balance >= _amount */\n      lt\n      iszero\n        /* \"sgdm.sol\":6113:6164  require (_balance >= _amount, \"Not enough balance\") */\n      tag_254\n      jumpi\n      mload(0x40)\n      0x08c379a000000000000000000000000000000000000000000000000000000000\n      dup2\n      mstore\n      0x04\n      add\n      tag_255\n      swap1\n      tag_140\n      jump\t// in\n    tag_255:\n      mload(0x40)\n      dup1\n      swap2\n      sub\n      swap1\n      revert\n    tag_254:\n        /* \"sgdm.sol\":6202:6209  _amount */\n      dup4\n        /* \"sgdm.sol\":6171:6185  uen_to_balance */\n      0x07\n        /* \"sgdm.sol\":6186:6197  _uen_sender */\n      dup4\n        /* \"sgdm.sol\":6171:6198  uen_to_balance[_uen_sender] */\n      mload(0x40)\n      tag_256\n      swap2\n      swap1\n      tag_137\n      jump\t// in\n    tag_256:\n      swap1\n      dup2\n      mstore\n      0x20\n      add\n      mload(0x40)\n      dup1\n      swap2\n      sub\n      swap1\n      keccak256\n      0x00\n        /* \"sgdm.sol\":6171:6209  uen_to_balance[_uen_sender] -= _amount */\n      dup3\n      dup3\n      sload\n      tag_257\n      swap2\n      swap1\n      tag_143\n      jump\t// in\n    tag_257:\n      swap3\n      pop\n      pop\n      dup2\n      swap1\n      sstore\n      pop\n        /* \"sgdm.sol\":6239:6242  _to */\n      dup5\n        /* \"sgdm.sol\":6218:6252  Transfer(msg.sender, _to, _amount) */\n      0xffffffffffffffffffffffffffffffffffffffff\n      and\n        /* \"sgdm.sol\":6227:6237  msg.sender */\n      caller\n        /* \"sgdm.sol\":6218:6252  Transfer(msg.sender, _to, _amount) */\n      0xffffffffffffffffffffffffffffffffffffffff\n      and\n      0xddf252ad1be2c89b69c2b068fc378daa952ba7f163c4a11628f55a4df523b3ef\n        /* \"sgdm.sol\":6244:6251  _amount */\n      dup7\n        /* \"sgdm.sol\":6218:6252  Transfer(msg.sender, _to, _amount) */\n      mload(0x40)\n      tag_258\n      swap2\n      swap1\n      tag_40\n      jump\t// in\n    tag_258:\n      mload(0x40)\n      dup1\n      swap2\n      sub\n      swap1\n      log3\n        /* \"sgdm.sol\":6256:6267  targetToken */\n      0x06\n      0x00\n      swap1\n      sload\n      swap1\n      0x0100\n      exp\n      swap1\n      div\n      0xffffffffffffffffffffffffffffffffffffffff\n      and\n        /* \"sgdm.sol\":6256:6276  targetToken.transfer */\n      0xffffffffffffffffffffffffffffffffffffffff\n      and\n      0xa9059cbb\n        /* \"sgdm.sol\":6277:6280  _to */\n      dup7\n        /* \"sgdm.sol\":6282:6289  _amount */\n      dup7\n        /* \"sgdm.sol\":6256:6290  targetToken.transfer(_to, _amount) */\n      mload(0x40)\n      dup4\n      0xffffffff\n      and\n      0xe0\n      shl\n      dup2\n      mstore\n      0x04\n      add\n      tag_259\n      swap3\n      swap2\n      swap1\n      tag_146\n      jump\t// in\n    tag_259:\n      0x20\n      mload(0x40)\n      dup1\n      dup4\n      sub\n      dup2\n      0x00\n      dup8\n      gas\n      call\n      iszero\n      dup1\n      iszero\n      tag_261\n      jumpi\n      returndatasize\n      0x00\n      dup1\n      returndatacopy\n      revert(0x00, returndatasize)\n    tag_261:\n      pop\n      pop\n      pop\n      pop\n      mload(0x40)\n      returndatasize\n      not(0x1f)\n      0x1f\n      dup3\n      add\n      and\n      dup3\n      add\n      dup1\n      0x40\n      mstore\n      pop\n      dup2\n      add\n      swap1\n      tag_262\n      swap2\n      swap1\n      tag_150\n      jump\t// in\n    tag_262:\n      pop\n        /* \"sgdm.sol\":6301:6305  true */\n      0x01\n        /* \"sgdm.sol\":6294:6305  return true */\n      swap3\n      pop\n      pop\n      pop\n        /* \"sgdm.sol\":5836:6309  function transfer(address _to, uint256 _amount) public override returns (bool) {... */\n      swap3\n      swap2\n      pop\n      pop\n      jump\t// out\n        /* \"sgdm.sol\":7614:7760  function allowance(address _owner, address _spender) public view override returns (uint256) {... */\n    tag_99:\n        /* \"sgdm.sol\":7697:7704  uint256 */\n      0x00\n        /* \"sgdm.sol\":7717:7728  targetToken */\n      0x06\n      0x00\n      swap1\n      sload\n      swap1\n      0x0100\n      exp\n      swap1\n      div\n      0xffffffffffffffffffffffffffffffffffffffff\n      and\n        /* \"sgdm.sol\":7717:7738  targetToken.allowance */\n      0xffffffffffffffffffffffffffffffffffffffff\n      and\n      0xdd62ed3e\n        /* \"sgdm.sol\":7739:7745  _owner */\n      dup5\n        /* \"sgdm.sol\":7747:7755  _spender */\n      dup5\n        /* \"sgdm.sol\":7717:7756  targetToken.allowance(_owner, _spender) */\n      mload(0x40)\n      dup4\n      0xffffffff\n      and\n      0xe0\n      shl\n      dup2\n      mstore\n      0x04\n      add\n      tag_264\n      swap3\n      swap2\n      swap1\n      tag_194\n      jump\t// in\n    tag_264:\n      0x20\n      mload(0x40)\n      dup1\n      dup4\n      sub\n      dup2\n      dup7\n      gas\n      staticcall\n      iszero\n      dup1\n      iszero\n      tag_266\n      jumpi\n      returndatasize\n      0x00\n      dup1\n      returndatacopy\n      revert(0x00, returndatasize)\n    tag_266:\n      pop\n      pop\n      pop\n      pop\n      mload(0x40)\n      returndatasize\n      not(0x1f)\n      0x1f\n      dup3\n      add\n      and\n      dup3\n      add\n      dup1\n      0x40\n      mstore\n      pop\n      dup2\n      add\n      swap1\n      tag_267\n      swap2\n      swap1\n      tag_126\n      jump\t// in\n    tag_267:\n        /* \"sgdm.sol\":7710:7756  return targetToken.allowance(_owner, _spender) */\n      swap1\n      pop\n        /* \"sgdm.sol\":7614:7760  function allowance(address _owner, address _spender) public view override returns (uint256) {... */\n      swap3\n      swap2\n      pop\n      pop\n      jump\t// out\n        /* \"sgdm.sol\":1490:1538  mapping(string => uint256) public uen_to_balance */\n    tag_103:\n      0x07\n      dup2\n      dup1\n      mload\n      0x20\n      dup2\n      add\n      dup3\n      add\n      dup1\n      mload\n      dup5\n      dup3\n      mstore\n      0x20\n      dup4\n      add\n      0x20\n      dup6\n      add\n      keccak256\n      dup2\n      dup4\n      mstore\n      dup1\n      swap6\n      pop\n      pop\n      pop\n      pop\n      pop\n      pop\n      0x00\n      swap2\n      pop\n      swap1\n      pop\n      sload\n      dup2\n      jump\t// out\n        /* \"@openzeppelin/contracts/access/Ownable.sol\":2543:2758  function transferOwnership(address newOwner) public virtual onlyOwner {... */\n    tag_107:\n        /* \"@openzeppelin/contracts/access/Ownable.sol\":1531:1544  _checkOwner() */\n      tag_269\n        /* \"@openzeppelin/contracts/access/Ownable.sol\":1531:1542  _checkOwner */\n      tag_222\n        /* \"@openzeppelin/contracts/access/Ownable.sol\":1531:1544  _checkOwner() */\n      jump\t// in\n    tag_269:\n        /* \"@openzeppelin/contracts/access/Ownable.sol\":2647:2648  0 */\n      0x00\n        /* \"@openzeppelin/contracts/access/Ownable.sol\":2627:2649  newOwner == address(0) */\n      0xffffffffffffffffffffffffffffffffffffffff\n      and\n        /* \"@openzeppelin/contracts/access/Ownable.sol\":2627:2635  newOwner */\n      dup2\n        /* \"@openzeppelin/contracts/access/Ownable.sol\":2627:2649  newOwner == address(0) */\n      0xffffffffffffffffffffffffffffffffffffffff\n      and\n      sub\n        /* \"@openzeppelin/contracts/access/Ownable.sol\":2623:2714  if (newOwner == address(0)) {... */\n      tag_271\n      jumpi\n        /* \"@openzeppelin/contracts/access/Ownable.sol\":2700:2701  0 */\n      0x00\n        /* \"@openzeppelin/contracts/access/Ownable.sol\":2672:2703  OwnableInvalidOwner(address(0)) */\n      mload(0x40)\n      0x1e4fbdf700000000000000000000000000000000000000000000000000000000\n      dup2\n      mstore\n      0x04\n      add\n      tag_272\n      swap2\n      swap1\n      tag_73\n      jump\t// in\n    tag_272:\n      mload(0x40)\n      dup1\n      swap2\n      sub\n      swap1\n      revert\n        /* \"@openzeppelin/contracts/access/Ownable.sol\":2623:2714  if (newOwner == address(0)) {... */\n    tag_271:\n        /* \"@openzeppelin/contracts/access/Ownable.sol\":2723:2751  _transferOwnership(newOwner) */\n      tag_273\n        /* \"@openzeppelin/contracts/access/Ownable.sol\":2742:2750  newOwner */\n      dup2\n        /* \"@openzeppelin/contracts/access/Ownable.sol\":2723:2741  _transferOwnership */\n      tag_225\n        /* \"@openzeppelin/contracts/access/Ownable.sol\":2723:2751  _transferOwnership(newOwner) */\n      jump\t// in\n    tag_273:\n        /* \"@openzeppelin/contracts/access/Ownable.sol\":2543:2758  function transferOwnership(address newOwner) public virtual onlyOwner {... */\n      pop\n      jump\t// out\n        /* \"sgdm.sol\":2592:2917  function admin_withdraw(address _to, uint256 _amount) external onlyOwner returns (bool) {... */\n    tag_110:\n        /* \"sgdm.sol\":2674:2678  bool */\n      0x00\n        /* \"@openzeppelin/contracts/access/Ownable.sol\":1531:1544  _checkOwner() */\n      tag_275\n        /* \"@openzeppelin/contracts/access/Ownable.sol\":1531:1542  _checkOwner */\n      tag_222\n        /* \"@openzeppelin/contracts/access/Ownable.sol\":1531:1544  _checkOwner() */\n      jump\t// in\n    tag_275:\n        /* \"sgdm.sol\":2707:2708  0 */\n      0x00\n        /* \"sgdm.sol\":2692:2709  _to != address(0) */\n      0xffffffffffffffffffffffffffffffffffffffff\n      and\n        /* \"sgdm.sol\":2692:2695  _to */\n      dup4\n        /* \"sgdm.sol\":2692:2709  _to != address(0) */\n      0xffffffffffffffffffffffffffffffffffffffff\n      and\n      sub\n        /* \"sgdm.sol\":2684:2742  require(_to != address(0), \"Withdraw to the zero address\") */\n      tag_277\n      jumpi\n      mload(0x40)\n      0x08c379a000000000000000000000000000000000000000000000000000000000\n      dup2\n      mstore\n      0x04\n      add\n      tag_278\n      swap1\n      tag_279\n      jump\t// in\n    tag_278:\n      mload(0x40)\n      dup1\n      swap2\n      sub\n      swap1\n      revert\n    tag_277:\n        /* \"sgdm.sol\":2749:2765  uint256 _balance */\n      0x00\n        /* \"sgdm.sol\":2768:2779  targetToken */\n      0x06\n      0x00\n      swap1\n      sload\n      swap1\n      0x0100\n      exp\n      swap1\n      div\n      0xffffffffffffffffffffffffffffffffffffffff\n      and\n        /* \"sgdm.sol\":2768:2789  targetToken.balanceOf */\n      0xffffffffffffffffffffffffffffffffffffffff\n      and\n      0x70a08231\n        /* \"sgdm.sol\":2798:2802  this */\n      address\n        /* \"sgdm.sol\":2768:2804  targetToken.balanceOf(address(this)) */\n      mload(0x40)\n      dup3\n      0xffffffff\n      and\n      0xe0\n      shl\n      dup2\n      mstore\n      0x04\n      add\n      tag_280\n      swap2\n      swap1\n      tag_73\n      jump\t// in\n    tag_280:\n      0x20\n      mload(0x40)\n      dup1\n      dup4\n      sub\n      dup2\n      dup7\n      gas\n      staticcall\n      iszero\n      dup1\n      iszero\n      tag_282\n      jumpi\n      returndatasize\n      0x00\n      dup1\n      returndatacopy\n      revert(0x00, returndatasize)\n    tag_282:\n      pop\n      pop\n      pop\n      pop\n      mload(0x40)\n      returndatasize\n      not(0x1f)\n      0x1f\n      dup3\n      add\n      and\n      dup3\n      add\n      dup1\n      0x40\n      mstore\n      pop\n      dup2\n      add\n      swap1\n      tag_283\n      swap2\n      swap1\n      tag_126\n      jump\t// in\n    tag_283:\n        /* \"sgdm.sol\":2749:2804  uint256 _balance = targetToken.balanceOf(address(this)) */\n      swap1\n      pop\n        /* \"sgdm.sol\":2829:2836  _amount */\n      dup3\n        /* \"sgdm.sol\":2817:2825  _balance */\n      dup2\n        /* \"sgdm.sol\":2817:2836  _balance >= _amount */\n      lt\n      iszero\n        /* \"sgdm.sol\":2808:2859  require (_balance >= _amount, \"Not enough balance\") */\n      tag_284\n      jumpi\n      mload(0x40)\n      0x08c379a000000000000000000000000000000000000000000000000000000000\n      dup2\n      mstore\n      0x04\n      add\n      tag_285\n      swap1\n      tag_140\n      jump\t// in\n    tag_285:\n      mload(0x40)\n      dup1\n      swap2\n      sub\n      swap1\n      revert\n    tag_284:\n        /* \"sgdm.sol\":2864:2875  targetToken */\n      0x06\n      0x00\n      swap1\n      sload\n      swap1\n      0x0100\n      exp\n      swap1\n      div\n      0xffffffffffffffffffffffffffffffffffffffff\n      and\n        /* \"sgdm.sol\":2864:2884  targetToken.transfer */\n      0xffffffffffffffffffffffffffffffffffffffff\n      and\n      0xa9059cbb\n        /* \"sgdm.sol\":2885:2888  _to */\n      dup6\n        /* \"sgdm.sol\":2890:2897  _amount */\n      dup6\n        /* \"sgdm.sol\":2864:2898  targetToken.transfer(_to, _amount) */\n      mload(0x40)\n      dup4\n      0xffffffff\n      and\n      0xe0\n      shl\n      dup2\n      mstore\n      0x04\n      add\n      tag_286\n      swap3\n      swap2\n      swap1\n      tag_146\n      jump\t// in\n    tag_286:\n      0x20\n      mload(0x40)\n      dup1\n      dup4\n      sub\n      dup2\n      0x00\n      dup8\n      gas\n      call\n      iszero\n      dup1\n      iszero\n      tag_288\n      jumpi\n      returndatasize\n      0x00\n      dup1\n      returndatacopy\n      revert(0x00, returndatasize)\n    tag_288:\n      pop\n      pop\n      pop\n      pop\n      mload(0x40)\n      returndatasize\n      not(0x1f)\n      0x1f\n      dup3\n      add\n      and\n      dup3\n      add\n      dup1\n      0x40\n      mstore\n      pop\n      dup2\n      add\n      swap1\n      tag_289\n      swap2\n      swap1\n      tag_150\n      jump\t// in\n    tag_289:\n      pop\n        /* \"sgdm.sol\":2909:2913  true */\n      0x01\n        /* \"sgdm.sol\":2902:2913  return true */\n      swap2\n      pop\n      pop\n        /* \"sgdm.sol\":2592:2917  function admin_withdraw(address _to, uint256 _amount) external onlyOwner returns (bool) {... */\n      swap3\n      swap2\n      pop\n      pop\n      jump\t// out\n        /* \"@openzeppelin/contracts/access/Ownable.sol\":1796:1958  function _checkOwner() internal view virtual {... */\n    tag_222:\n        /* \"@openzeppelin/contracts/access/Ownable.sol\":1866:1878  _msgSender() */\n      tag_291\n        /* \"@openzeppelin/contracts/access/Ownable.sol\":1866:1876  _msgSender */\n      tag_292\n        /* \"@openzeppelin/contracts/access/Ownable.sol\":1866:1878  _msgSender() */\n      jump\t// in\n    tag_291:\n        /* \"@openzeppelin/contracts/access/Ownable.sol\":1855:1878  owner() != _msgSender() */\n      0xffffffffffffffffffffffffffffffffffffffff\n      and\n        /* \"@openzeppelin/contracts/access/Ownable.sol\":1855:1862  owner() */\n      tag_293\n        /* \"@openzeppelin/contracts/access/Ownable.sol\":1855:1860  owner */\n      tag_75\n        /* \"@openzeppelin/contracts/access/Ownable.sol\":1855:1862  owner() */\n      jump\t// in\n    tag_293:\n        /* \"@openzeppelin/contracts/access/Ownable.sol\":1855:1878  owner() != _msgSender() */\n      0xffffffffffffffffffffffffffffffffffffffff\n      and\n      eq\n        /* \"@openzeppelin/contracts/access/Ownable.sol\":1851:1952  if (owner() != _msgSender()) {... */\n      tag_294\n      jumpi\n        /* \"@openzeppelin/contracts/access/Ownable.sol\":1928:1940  _msgSender() */\n      tag_295\n        /* \"@openzeppelin/contracts/access/Ownable.sol\":1928:1938  _msgSender */\n      tag_292\n        /* \"@openzeppelin/contracts/access/Ownable.sol\":1928:1940  _msgSender() */\n      jump\t// in\n    tag_295:\n        /* \"@openzeppelin/contracts/access/Ownable.sol\":1901:1941  OwnableUnauthorizedAccount(_msgSender()) */\n      mload(0x40)\n      0x118cdaa700000000000000000000000000000000000000000000000000000000\n      dup2\n      mstore\n      0x04\n      add\n      tag_296\n      swap2\n      swap1\n      tag_73\n      jump\t// in\n    tag_296:\n      mload(0x40)\n      dup1\n      swap2\n      sub\n      swap1\n      revert\n        /* \"@openzeppelin/contracts/access/Ownable.sol\":1851:1952  if (owner() != _msgSender()) {... */\n    tag_294:\n        /* \"@openzeppelin/contracts/access/Ownable.sol\":1796:1958  function _checkOwner() internal view virtual {... */\n      jump\t// out\n        /* \"@openzeppelin/contracts/access/Ownable.sol\":2912:3099  function _transferOwnership(address newOwner) internal virtual {... */\n    tag_225:\n        /* \"@openzeppelin/contracts/access/Ownable.sol\":2985:3001  address oldOwner */\n      0x00\n        /* \"@openzeppelin/contracts/access/Ownable.sol\":3004:3010  _owner */\n      0x05\n      0x00\n      swap1\n      sload\n      swap1\n      0x0100\n      exp\n      swap1\n      div\n      0xffffffffffffffffffffffffffffffffffffffff\n      and\n        /* \"@openzeppelin/contracts/access/Ownable.sol\":2985:3010  address oldOwner = _owner */\n      swap1\n      pop\n        /* \"@openzeppelin/contracts/access/Ownable.sol\":3029:3037  newOwner */\n      dup2\n        /* \"@openzeppelin/contracts/access/Ownable.sol\":3020:3026  _owner */\n      0x05\n      0x00\n        /* \"@openzeppelin/contracts/access/Ownable.sol\":3020:3037  _owner = newOwner */\n      0x0100\n      exp\n      dup2\n      sload\n      dup2\n      0xffffffffffffffffffffffffffffffffffffffff\n      mul\n      not\n      and\n      swap1\n      dup4\n      0xffffffffffffffffffffffffffffffffffffffff\n      and\n      mul\n      or\n      swap1\n      sstore\n      pop\n        /* \"@openzeppelin/contracts/access/Ownable.sol\":3083:3091  newOwner */\n      dup2\n        /* \"@openzeppelin/contracts/access/Ownable.sol\":3052:3092  OwnershipTransferred(oldOwner, newOwner) */\n      0xffffffffffffffffffffffffffffffffffffffff\n      and\n        /* \"@openzeppelin/contracts/access/Ownable.sol\":3073:3081  oldOwner */\n      dup2\n        /* \"@openzeppelin/contracts/access/Ownable.sol\":3052:3092  OwnershipTransferred(oldOwner, newOwner) */\n      0xffffffffffffffffffffffffffffffffffffffff\n      and\n      0x8be0079c531659141344cd1fd0a4f28419497f9722a3daafe3b4186f6b6457e0\n      mload(0x40)\n      mload(0x40)\n      dup1\n      swap2\n      sub\n      swap1\n      log3\n        /* \"@openzeppelin/contracts/access/Ownable.sol\":2975:3099  {... */\n      pop\n        /* \"@openzeppelin/contracts/access/Ownable.sol\":2912:3099  function _transferOwnership(address newOwner) internal virtual {... */\n      pop\n      jump\t// out\n        /* \"@openzeppelin/contracts/utils/Context.sol\":656:752  function _msgSender() internal view virtual returns (address) {... */\n    tag_292:\n        /* \"@openzeppelin/contracts/utils/Context.sol\":709:716  address */\n      0x00\n        /* \"@openzeppelin/contracts/utils/Context.sol\":735:745  msg.sender */\n      caller\n        /* \"@openzeppelin/contracts/utils/Context.sol\":728:745  return msg.sender */\n      swap1\n      pop\n        /* \"@openzeppelin/contracts/utils/Context.sol\":656:752  function _msgSender() internal view virtual returns (address) {... */\n      swap1\n      jump\t// out\n        /* \"#utility.yul\":7:106   */\n    tag_299:\n        /* \"#utility.yul\":59:65   */\n      0x00\n        /* \"#utility.yul\":93:98   */\n      dup2\n        /* \"#utility.yul\":87:99   */\n      mload\n        /* \"#utility.yul\":77:99   */\n      swap1\n      pop\n        /* \"#utility.yul\":7:106   */\n      swap2\n      swap1\n      pop\n      jump\t// out\n        /* \"#utility.yul\":112:281   */\n    tag_300:\n        /* \"#utility.yul\":196:207   */\n      0x00\n        /* \"#utility.yul\":230:236   */\n      dup3\n        /* \"#utility.yul\":225:228   */\n      dup3\n        /* \"#utility.yul\":218:237   */\n      mstore\n        /* \"#utility.yul\":270:274   */\n      0x20\n        /* \"#utility.yul\":265:268   */\n      dup3\n        /* \"#utility.yul\":261:275   */\n      add\n        /* \"#utility.yul\":246:275   */\n      swap1\n      pop\n        /* \"#utility.yul\":112:281   */\n      swap3\n      swap2\n      pop\n      pop\n      jump\t// out\n        /* \"#utility.yul\":287:533   */\n    tag_301:\n        /* \"#utility.yul\":368:369   */\n      0x00\n        /* \"#utility.yul\":378:491   */\n    tag_364:\n        /* \"#utility.yul\":392:398   */\n      dup4\n        /* \"#utility.yul\":389:390   */\n      dup2\n        /* \"#utility.yul\":386:399   */\n      lt\n        /* \"#utility.yul\":378:491   */\n      iszero\n      tag_366\n      jumpi\n        /* \"#utility.yul\":477:478   */\n      dup1\n        /* \"#utility.yul\":472:475   */\n      dup3\n        /* \"#utility.yul\":468:479   */\n      add\n        /* \"#utility.yul\":462:480   */\n      mload\n        /* \"#utility.yul\":458:459   */\n      dup2\n        /* \"#utility.yul\":453:456   */\n      dup5\n        /* \"#utility.yul\":449:460   */\n      add\n        /* \"#utility.yul\":442:481   */\n      mstore\n        /* \"#utility.yul\":414:416   */\n      0x20\n        /* \"#utility.yul\":411:412   */\n      dup2\n        /* \"#utility.yul\":407:417   */\n      add\n        /* \"#utility.yul\":402:417   */\n      swap1\n      pop\n        /* \"#utility.yul\":378:491   */\n      jump(tag_364)\n    tag_366:\n        /* \"#utility.yul\":525:526   */\n      0x00\n        /* \"#utility.yul\":516:522   */\n      dup5\n        /* \"#utility.yul\":511:514   */\n      dup5\n        /* \"#utility.yul\":507:523   */\n      add\n        /* \"#utility.yul\":500:527   */\n      mstore\n        /* \"#utility.yul\":349:533   */\n      pop\n        /* \"#utility.yul\":287:533   */\n      pop\n      pop\n      pop\n      jump\t// out\n        /* \"#utility.yul\":539:641   */\n    tag_302:\n        /* \"#utility.yul\":580:586   */\n      0x00\n        /* \"#utility.yul\":631:633   */\n      0x1f\n        /* \"#utility.yul\":627:634   */\n      not\n        /* \"#utility.yul\":622:624   */\n      0x1f\n        /* \"#utility.yul\":615:620   */\n      dup4\n        /* \"#utility.yul\":611:625   */\n      add\n        /* \"#utility.yul\":607:635   */\n      and\n        /* \"#utility.yul\":597:635   */\n      swap1\n      pop\n        /* \"#utility.yul\":539:641   */\n      swap2\n      swap1\n      pop\n      jump\t// out\n        /* \"#utility.yul\":647:1024   */\n    tag_303:\n        /* \"#utility.yul\":735:738   */\n      0x00\n        /* \"#utility.yul\":763:802   */\n      tag_369\n        /* \"#utility.yul\":796:801   */\n      dup3\n        /* \"#utility.yul\":763:802   */\n      tag_299\n      jump\t// in\n    tag_369:\n        /* \"#utility.yul\":818:889   */\n      tag_370\n        /* \"#utility.yul\":882:888   */\n      dup2\n        /* \"#utility.yul\":877:880   */\n      dup6\n        /* \"#utility.yul\":818:889   */\n      tag_300\n      jump\t// in\n    tag_370:\n        /* \"#utility.yul\":811:889   */\n      swap4\n      pop\n        /* \"#utility.yul\":898:963   */\n      tag_371\n        /* \"#utility.yul\":956:962   */\n      dup2\n        /* \"#utility.yul\":951:954   */\n      dup6\n        /* \"#utility.yul\":944:948   */\n      0x20\n        /* \"#utility.yul\":937:942   */\n      dup7\n        /* \"#utility.yul\":933:949   */\n      add\n        /* \"#utility.yul\":898:963   */\n      tag_301\n      jump\t// in\n    tag_371:\n        /* \"#utility.yul\":988:1017   */\n      tag_372\n        /* \"#utility.yul\":1010:1016   */\n      dup2\n        /* \"#utility.yul\":988:1017   */\n      tag_302\n      jump\t// in\n    tag_372:\n        /* \"#utility.yul\":983:986   */\n      dup5\n        /* \"#utility.yul\":979:1018   */\n      add\n        /* \"#utility.yul\":972:1018   */\n      swap2\n      pop\n        /* \"#utility.yul\":739:1024   */\n      pop\n        /* \"#utility.yul\":647:1024   */\n      swap3\n      swap2\n      pop\n      pop\n      jump\t// out\n        /* \"#utility.yul\":1030:1343   */\n    tag_30:\n        /* \"#utility.yul\":1143:1147   */\n      0x00\n        /* \"#utility.yul\":1181:1183   */\n      0x20\n        /* \"#utility.yul\":1170:1179   */\n      dup3\n        /* \"#utility.yul\":1166:1184   */\n      add\n        /* \"#utility.yul\":1158:1184   */\n      swap1\n      pop\n        /* \"#utility.yul\":1230:1239   */\n      dup2\n        /* \"#utility.yul\":1224:1228   */\n      dup2\n        /* \"#utility.yul\":1220:1240   */\n      sub\n        /* \"#utility.yul\":1216:1217   */\n      0x00\n        /* \"#utility.yul\":1205:1214   */\n      dup4\n        /* \"#utility.yul\":1201:1218   */\n      add\n        /* \"#utility.yul\":1194:1241   */\n      mstore\n        /* \"#utility.yul\":1258:1336   */\n      tag_374\n        /* \"#utility.yul\":1331:1335   */\n      dup2\n        /* \"#utility.yul\":1322:1328   */\n      dup5\n        /* \"#utility.yul\":1258:1336   */\n      tag_303\n      jump\t// in\n    tag_374:\n        /* \"#utility.yul\":1250:1336   */\n      swap1\n      pop\n        /* \"#utility.yul\":1030:1343   */\n      swap3\n      swap2\n      pop\n      pop\n      jump\t// out\n        /* \"#utility.yul\":1349:1424   */\n    tag_304:\n        /* \"#utility.yul\":1382:1388   */\n      0x00\n        /* \"#utility.yul\":1415:1417   */\n      0x40\n        /* \"#utility.yul\":1409:1418   */\n      mload\n        /* \"#utility.yul\":1399:1418   */\n      swap1\n      pop\n        /* \"#utility.yul\":1349:1424   */\n      swap1\n      jump\t// out\n        /* \"#utility.yul\":1430:1547   */\n    tag_305:\n        /* \"#utility.yul\":1539:1540   */\n      0x00\n        /* \"#utility.yul\":1536:1537   */\n      dup1\n        /* \"#utility.yul\":1529:1541   */\n      revert\n        /* \"#utility.yul\":1553:1670   */\n    tag_306:\n        /* \"#utility.yul\":1662:1663   */\n      0x00\n        /* \"#utility.yul\":1659:1660   */\n      dup1\n        /* \"#utility.yul\":1652:1664   */\n      revert\n        /* \"#utility.yul\":1676:1802   */\n    tag_307:\n        /* \"#utility.yul\":1713:1720   */\n      0x00\n        /* \"#utility.yul\":1753:1795   */\n      0xffffffffffffffffffffffffffffffffffffffff\n        /* \"#utility.yul\":1746:1751   */\n      dup3\n        /* \"#utility.yul\":1742:1796   */\n      and\n        /* \"#utility.yul\":1731:1796   */\n      swap1\n      pop\n        /* \"#utility.yul\":1676:1802   */\n      swap2\n      swap1\n      pop\n      jump\t// out\n        /* \"#utility.yul\":1808:1904   */\n    tag_308:\n        /* \"#utility.yul\":1845:1852   */\n      0x00\n        /* \"#utility.yul\":1874:1898   */\n      tag_380\n        /* \"#utility.yul\":1892:1897   */\n      dup3\n        /* \"#utility.yul\":1874:1898   */\n      tag_307\n      jump\t// in\n    tag_380:\n        /* \"#utility.yul\":1863:1898   */\n      swap1\n      pop\n        /* \"#utility.yul\":1808:1904   */\n      swap2\n      swap1\n      pop\n      jump\t// out\n        /* \"#utility.yul\":1910:2032   */\n    tag_309:\n        /* \"#utility.yul\":1983:2007   */\n      tag_382\n        /* \"#utility.yul\":2001:2006   */\n      dup2\n        /* \"#utility.yul\":1983:2007   */\n      tag_308\n      jump\t// in\n    tag_382:\n        /* \"#utility.yul\":1976:1981   */\n      dup2\n        /* \"#utility.yul\":1973:2008   */\n      eq\n        /* \"#utility.yul\":1963:2026   */\n      tag_383\n      jumpi\n        /* \"#utility.yul\":2022:2023   */\n      0x00\n        /* \"#utility.yul\":2019:2020   */\n      dup1\n        /* \"#utility.yul\":2012:2024   */\n      revert\n        /* \"#utility.yul\":1963:2026   */\n    tag_383:\n        /* \"#utility.yul\":1910:2032   */\n      pop\n      jump\t// out\n        /* \"#utility.yul\":2038:2177   */\n    tag_310:\n        /* \"#utility.yul\":2084:2089   */\n      0x00\n        /* \"#utility.yul\":2122:2128   */\n      dup2\n        /* \"#utility.yul\":2109:2129   */\n      calldataload\n        /* \"#utility.yul\":2100:2129   */\n      swap1\n      pop\n        /* \"#utility.yul\":2138:2171   */\n      tag_385\n        /* \"#utility.yul\":2165:2170   */\n      dup2\n        /* \"#utility.yul\":2138:2171   */\n      tag_309\n      jump\t// in\n    tag_385:\n        /* \"#utility.yul\":2038:2177   */\n      swap3\n      swap2\n      pop\n      pop\n      jump\t// out\n        /* \"#utility.yul\":2183:2260   */\n    tag_311:\n        /* \"#utility.yul\":2220:2227   */\n      0x00\n        /* \"#utility.yul\":2249:2254   */\n      dup2\n        /* \"#utility.yul\":2238:2254   */\n      swap1\n      pop\n        /* \"#utility.yul\":2183:2260   */\n      swap2\n      swap1\n      pop\n      jump\t// out\n        /* \"#utility.yul\":2266:2388   */\n    tag_312:\n        /* \"#utility.yul\":2339:2363   */\n      tag_388\n        /* \"#utility.yul\":2357:2362   */\n      dup2\n        /* \"#utility.yul\":2339:2363   */\n      tag_311\n      jump\t// in\n    tag_388:\n        /* \"#utility.yul\":2332:2337   */\n      dup2\n        /* \"#utility.yul\":2329:2364   */\n      eq\n        /* \"#utility.yul\":2319:2382   */\n      tag_389\n      jumpi\n        /* \"#utility.yul\":2378:2379   */\n      0x00\n        /* \"#utility.yul\":2375:2376   */\n      dup1\n        /* \"#utility.yul\":2368:2380   */\n      revert\n        /* \"#utility.yul\":2319:2382   */\n    tag_389:\n        /* \"#utility.yul\":2266:2388   */\n      pop\n      jump\t// out\n        /* \"#utility.yul\":2394:2533   */\n    tag_313:\n        /* \"#utility.yul\":2440:2445   */\n      0x00\n        /* \"#utility.yul\":2478:2484   */\n      dup2\n        /* \"#utility.yul\":2465:2485   */\n      calldataload\n        /* \"#utility.yul\":2456:2485   */\n      swap1\n      pop\n        /* \"#utility.yul\":2494:2527   */\n      tag_391\n        /* \"#utility.yul\":2521:2526   */\n      dup2\n        /* \"#utility.yul\":2494:2527   */\n      tag_312\n      jump\t// in\n    tag_391:\n        /* \"#utility.yul\":2394:2533   */\n      swap3\n      swap2\n      pop\n      pop\n      jump\t// out\n        /* \"#utility.yul\":2539:3013   */\n    tag_33:\n        /* \"#utility.yul\":2607:2613   */\n      0x00\n        /* \"#utility.yul\":2615:2621   */\n      dup1\n        /* \"#utility.yul\":2664:2666   */\n      0x40\n        /* \"#utility.yul\":2652:2661   */\n      dup4\n        /* \"#utility.yul\":2643:2650   */\n      dup6\n        /* \"#utility.yul\":2639:2662   */\n      sub\n        /* \"#utility.yul\":2635:2667   */\n      slt\n        /* \"#utility.yul\":2632:2751   */\n      iszero\n      tag_393\n      jumpi\n        /* \"#utility.yul\":2670:2749   */\n      tag_394\n      tag_305\n      jump\t// in\n    tag_394:\n        /* \"#utility.yul\":2632:2751   */\n    tag_393:\n        /* \"#utility.yul\":2790:2791   */\n      0x00\n        /* \"#utility.yul\":2815:2868   */\n      tag_395\n        /* \"#utility.yul\":2860:2867   */\n      dup6\n        /* \"#utility.yul\":2851:2857   */\n      dup3\n        /* \"#utility.yul\":2840:2849   */\n      dup7\n        /* \"#utility.yul\":2836:2858   */\n      add\n        /* \"#utility.yul\":2815:2868   */\n      tag_310\n      jump\t// in\n    tag_395:\n        /* \"#utility.yul\":2805:2868   */\n      swap3\n      pop\n        /* \"#utility.yul\":2761:2878   */\n      pop\n        /* \"#utility.yul\":2917:2919   */\n      0x20\n        /* \"#utility.yul\":2943:2996   */\n      tag_396\n        /* \"#utility.yul\":2988:2995   */\n      dup6\n        /* \"#utility.yul\":2979:2985   */\n      dup3\n        /* \"#utility.yul\":2968:2977   */\n      dup7\n        /* \"#utility.yul\":2964:2986   */\n      add\n        /* \"#utility.yul\":2943:2996   */\n      tag_313\n      jump\t// in\n    tag_396:\n        /* \"#utility.yul\":2933:2996   */\n      swap2\n      pop\n        /* \"#utility.yul\":2888:3006   */\n      pop\n        /* \"#utility.yul\":2539:3013   */\n      swap3\n      pop\n      swap3\n      swap1\n      pop\n      jump\t// out\n        /* \"#utility.yul\":3019:3109   */\n    tag_314:\n        /* \"#utility.yul\":3053:3060   */\n      0x00\n        /* \"#utility.yul\":3096:3101   */\n      dup2\n        /* \"#utility.yul\":3089:3102   */\n      iszero\n        /* \"#utility.yul\":3082:3103   */\n      iszero\n        /* \"#utility.yul\":3071:3103   */\n      swap1\n      pop\n        /* \"#utility.yul\":3019:3109   */\n      swap2\n      swap1\n      pop\n      jump\t// out\n        /* \"#utility.yul\":3115:3224   */\n    tag_315:\n        /* \"#utility.yul\":3196:3217   */\n      tag_399\n        /* \"#utility.yul\":3211:3216   */\n      dup2\n        /* \"#utility.yul\":3196:3217   */\n      tag_314\n      jump\t// in\n    tag_399:\n        /* \"#utility.yul\":3191:3194   */\n      dup3\n        /* \"#utility.yul\":3184:3218   */\n      mstore\n        /* \"#utility.yul\":3115:3224   */\n      pop\n      pop\n      jump\t// out\n        /* \"#utility.yul\":3230:3440   */\n    tag_36:\n        /* \"#utility.yul\":3317:3321   */\n      0x00\n        /* \"#utility.yul\":3355:3357   */\n      0x20\n        /* \"#utility.yul\":3344:3353   */\n      dup3\n        /* \"#utility.yul\":3340:3358   */\n      add\n        /* \"#utility.yul\":3332:3358   */\n      swap1\n      pop\n        /* \"#utility.yul\":3368:3433   */\n      tag_401\n        /* \"#utility.yul\":3430:3431   */\n      0x00\n        /* \"#utility.yul\":3419:3428   */\n      dup4\n        /* \"#utility.yul\":3415:3432   */\n      add\n        /* \"#utility.yul\":3406:3412   */\n      dup5\n        /* \"#utility.yul\":3368:3433   */\n      tag_315\n      jump\t// in\n    tag_401:\n        /* \"#utility.yul\":3230:3440   */\n      swap3\n      swap2\n      pop\n      pop\n      jump\t// out\n        /* \"#utility.yul\":3446:3564   */\n    tag_316:\n        /* \"#utility.yul\":3533:3557   */\n      tag_403\n        /* \"#utility.yul\":3551:3556   */\n      dup2\n        /* \"#utility.yul\":3533:3557   */\n      tag_311\n      jump\t// in\n    tag_403:\n        /* \"#utility.yul\":3528:3531   */\n      dup3\n        /* \"#utility.yul\":3521:3558   */\n      mstore\n        /* \"#utility.yul\":3446:3564   */\n      pop\n      pop\n      jump\t// out\n        /* \"#utility.yul\":3570:3792   */\n    tag_40:\n        /* \"#utility.yul\":3663:3667   */\n      0x00\n        /* \"#utility.yul\":3701:3703   */\n      0x20\n        /* \"#utility.yul\":3690:3699   */\n      dup3\n        /* \"#utility.yul\":3686:3704   */\n      add\n        /* \"#utility.yul\":3678:3704   */\n      swap1\n      pop\n        /* \"#utility.yul\":3714:3785   */\n      tag_405\n        /* \"#utility.yul\":3782:3783   */\n      0x00\n        /* \"#utility.yul\":3771:3780   */\n      dup4\n        /* \"#utility.yul\":3767:3784   */\n      add\n        /* \"#utility.yul\":3758:3764   */\n      dup5\n        /* \"#utility.yul\":3714:3785   */\n      tag_316\n      jump\t// in\n    tag_405:\n        /* \"#utility.yul\":3570:3792   */\n      swap3\n      swap2\n      pop\n      pop\n      jump\t// out\n        /* \"#utility.yul\":3798:4417   */\n    tag_43:\n        /* \"#utility.yul\":3875:3881   */\n      0x00\n        /* \"#utility.yul\":3883:3889   */\n      dup1\n        /* \"#utility.yul\":3891:3897   */\n      0x00\n        /* \"#utility.yul\":3940:3942   */\n      0x60\n        /* \"#utility.yul\":3928:3937   */\n      dup5\n        /* \"#utility.yul\":3919:3926   */\n      dup7\n        /* \"#utility.yul\":3915:3938   */\n      sub\n        /* \"#utility.yul\":3911:3943   */\n      slt\n        /* \"#utility.yul\":3908:4027   */\n      iszero\n      tag_407\n      jumpi\n        /* \"#utility.yul\":3946:4025   */\n      tag_408\n      tag_305\n      jump\t// in\n    tag_408:\n        /* \"#utility.yul\":3908:4027   */\n    tag_407:\n        /* \"#utility.yul\":4066:4067   */\n      0x00\n        /* \"#utility.yul\":4091:4144   */\n      tag_409\n        /* \"#utility.yul\":4136:4143   */\n      dup7\n        /* \"#utility.yul\":4127:4133   */\n      dup3\n        /* \"#utility.yul\":4116:4125   */\n      dup8\n        /* \"#utility.yul\":4112:4134   */\n      add\n        /* \"#utility.yul\":4091:4144   */\n      tag_310\n      jump\t// in\n    tag_409:\n        /* \"#utility.yul\":4081:4144   */\n      swap4\n      pop\n        /* \"#utility.yul\":4037:4154   */\n      pop\n        /* \"#utility.yul\":4193:4195   */\n      0x20\n        /* \"#utility.yul\":4219:4272   */\n      tag_410\n        /* \"#utility.yul\":4264:4271   */\n      dup7\n        /* \"#utility.yul\":4255:4261   */\n      dup3\n        /* \"#utility.yul\":4244:4253   */\n      dup8\n        /* \"#utility.yul\":4240:4262   */\n      add\n        /* \"#utility.yul\":4219:4272   */\n      tag_310\n      jump\t// in\n    tag_410:\n        /* \"#utility.yul\":4209:4272   */\n      swap3\n      pop\n        /* \"#utility.yul\":4164:4282   */\n      pop\n        /* \"#utility.yul\":4321:4323   */\n      0x40\n        /* \"#utility.yul\":4347:4400   */\n      tag_411\n        /* \"#utility.yul\":4392:4399   */\n      dup7\n        /* \"#utility.yul\":4383:4389   */\n      dup3\n        /* \"#utility.yul\":4372:4381   */\n      dup8\n        /* \"#utility.yul\":4368:4390   */\n      add\n        /* \"#utility.yul\":4347:4400   */\n      tag_313\n      jump\t// in\n    tag_411:\n        /* \"#utility.yul\":4337:4400   */\n      swap2\n      pop\n        /* \"#utility.yul\":4292:4410   */\n      pop\n        /* \"#utility.yul\":3798:4417   */\n      swap3\n      pop\n      swap3\n      pop\n      swap3\n      jump\t// out\n        /* \"#utility.yul\":4423:4509   */\n    tag_317:\n        /* \"#utility.yul\":4458:4465   */\n      0x00\n        /* \"#utility.yul\":4498:4502   */\n      0xff\n        /* \"#utility.yul\":4491:4496   */\n      dup3\n        /* \"#utility.yul\":4487:4503   */\n      and\n        /* \"#utility.yul\":4476:4503   */\n      swap1\n      pop\n        /* \"#utility.yul\":4423:4509   */\n      swap2\n      swap1\n      pop\n      jump\t// out\n        /* \"#utility.yul\":4515:4627   */\n    tag_318:\n        /* \"#utility.yul\":4598:4620   */\n      tag_414\n        /* \"#utility.yul\":4614:4619   */\n      dup2\n        /* \"#utility.yul\":4598:4620   */\n      tag_317\n      jump\t// in\n    tag_414:\n        /* \"#utility.yul\":4593:4596   */\n      dup3\n        /* \"#utility.yul\":4586:4621   */\n      mstore\n        /* \"#utility.yul\":4515:4627   */\n      pop\n      pop\n      jump\t// out\n        /* \"#utility.yul\":4633:4847   */\n    tag_49:\n        /* \"#utility.yul\":4722:4726   */\n      0x00\n        /* \"#utility.yul\":4760:4762   */\n      0x20\n        /* \"#utility.yul\":4749:4758   */\n      dup3\n        /* \"#utility.yul\":4745:4763   */\n      add\n        /* \"#utility.yul\":4737:4763   */\n      swap1\n      pop\n        /* \"#utility.yul\":4773:4840   */\n      tag_416\n        /* \"#utility.yul\":4837:4838   */\n      0x00\n        /* \"#utility.yul\":4826:4835   */\n      dup4\n        /* \"#utility.yul\":4822:4839   */\n      add\n        /* \"#utility.yul\":4813:4819   */\n      dup5\n        /* \"#utility.yul\":4773:4840   */\n      tag_318\n      jump\t// in\n    tag_416:\n        /* \"#utility.yul\":4633:4847   */\n      swap3\n      swap2\n      pop\n      pop\n      jump\t// out\n        /* \"#utility.yul\":4853:4913   */\n    tag_319:\n        /* \"#utility.yul\":4881:4884   */\n      0x00\n        /* \"#utility.yul\":4902:4907   */\n      dup2\n        /* \"#utility.yul\":4895:4907   */\n      swap1\n      pop\n        /* \"#utility.yul\":4853:4913   */\n      swap2\n      swap1\n      pop\n      jump\t// out\n        /* \"#utility.yul\":4919:5061   */\n    tag_320:\n        /* \"#utility.yul\":4969:4978   */\n      0x00\n        /* \"#utility.yul\":5002:5055   */\n      tag_419\n        /* \"#utility.yul\":5020:5054   */\n      tag_420\n        /* \"#utility.yul\":5029:5053   */\n      tag_421\n        /* \"#utility.yul\":5047:5052   */\n      dup5\n        /* \"#utility.yul\":5029:5053   */\n      tag_307\n      jump\t// in\n    tag_421:\n        /* \"#utility.yul\":5020:5054   */\n      tag_319\n      jump\t// in\n    tag_420:\n        /* \"#utility.yul\":5002:5055   */\n      tag_307\n      jump\t// in\n    tag_419:\n        /* \"#utility.yul\":4989:5055   */\n      swap1\n      pop\n        /* \"#utility.yul\":4919:5061   */\n      swap2\n      swap1\n      pop\n      jump\t// out\n        /* \"#utility.yul\":5067:5193   */\n    tag_321:\n        /* \"#utility.yul\":5117:5126   */\n      0x00\n        /* \"#utility.yul\":5150:5187   */\n      tag_423\n        /* \"#utility.yul\":5181:5186   */\n      dup3\n        /* \"#utility.yul\":5150:5187   */\n      tag_320\n      jump\t// in\n    tag_423:\n        /* \"#utility.yul\":5137:5187   */\n      swap1\n      pop\n        /* \"#utility.yul\":5067:5193   */\n      swap2\n      swap1\n      pop\n      jump\t// out\n        /* \"#utility.yul\":5199:5339   */\n    tag_322:\n        /* \"#utility.yul\":5263:5272   */\n      0x00\n        /* \"#utility.yul\":5296:5333   */\n      tag_425\n        /* \"#utility.yul\":5327:5332   */\n      dup3\n        /* \"#utility.yul\":5296:5333   */\n      tag_321\n      jump\t// in\n    tag_425:\n        /* \"#utility.yul\":5283:5333   */\n      swap1\n      pop\n        /* \"#utility.yul\":5199:5339   */\n      swap2\n      swap1\n      pop\n      jump\t// out\n        /* \"#utility.yul\":5345:5504   */\n    tag_323:\n        /* \"#utility.yul\":5446:5497   */\n      tag_427\n        /* \"#utility.yul\":5491:5496   */\n      dup2\n        /* \"#utility.yul\":5446:5497   */\n      tag_322\n      jump\t// in\n    tag_427:\n        /* \"#utility.yul\":5441:5444   */\n      dup3\n        /* \"#utility.yul\":5434:5498   */\n      mstore\n        /* \"#utility.yul\":5345:5504   */\n      pop\n      pop\n      jump\t// out\n        /* \"#utility.yul\":5510:5760   */\n    tag_53:\n        /* \"#utility.yul\":5617:5621   */\n      0x00\n        /* \"#utility.yul\":5655:5657   */\n      0x20\n        /* \"#utility.yul\":5644:5653   */\n      dup3\n        /* \"#utility.yul\":5640:5658   */\n      add\n        /* \"#utility.yul\":5632:5658   */\n      swap1\n      pop\n        /* \"#utility.yul\":5668:5753   */\n      tag_429\n        /* \"#utility.yul\":5750:5751   */\n      0x00\n        /* \"#utility.yul\":5739:5748   */\n      dup4\n        /* \"#utility.yul\":5735:5752   */\n      add\n        /* \"#utility.yul\":5726:5732   */\n      dup5\n        /* \"#utility.yul\":5668:5753   */\n      tag_323\n      jump\t// in\n    tag_429:\n        /* \"#utility.yul\":5510:5760   */\n      swap3\n      swap2\n      pop\n      pop\n      jump\t// out\n        /* \"#utility.yul\":5766:5883   */\n    tag_324:\n        /* \"#utility.yul\":5875:5876   */\n      0x00\n        /* \"#utility.yul\":5872:5873   */\n      dup1\n        /* \"#utility.yul\":5865:5877   */\n      revert\n        /* \"#utility.yul\":5889:6006   */\n    tag_325:\n        /* \"#utility.yul\":5998:5999   */\n      0x00\n        /* \"#utility.yul\":5995:5996   */\n      dup1\n        /* \"#utility.yul\":5988:6000   */\n      revert\n        /* \"#utility.yul\":6012:6192   */\n    tag_326:\n        /* \"#utility.yul\":6060:6137   */\n      0x4e487b7100000000000000000000000000000000000000000000000000000000\n        /* \"#utility.yul\":6057:6058   */\n      0x00\n        /* \"#utility.yul\":6050:6138   */\n      mstore\n        /* \"#utility.yul\":6157:6161   */\n      0x41\n        /* \"#utility.yul\":6154:6155   */\n      0x04\n        /* \"#utility.yul\":6147:6162   */\n      mstore\n        /* \"#utility.yul\":6181:6185   */\n      0x24\n        /* \"#utility.yul\":6178:6179   */\n      0x00\n        /* \"#utility.yul\":6171:6186   */\n      revert\n        /* \"#utility.yul\":6198:6479   */\n    tag_327:\n        /* \"#utility.yul\":6281:6308   */\n      tag_434\n        /* \"#utility.yul\":6303:6307   */\n      dup3\n        /* \"#utility.yul\":6281:6308   */\n      tag_302\n      jump\t// in\n    tag_434:\n        /* \"#utility.yul\":6273:6279   */\n      dup2\n        /* \"#utility.yul\":6269:6309   */\n      add\n        /* \"#utility.yul\":6411:6417   */\n      dup2\n        /* \"#utility.yul\":6399:6409   */\n      dup2\n        /* \"#utility.yul\":6396:6418   */\n      lt\n        /* \"#utility.yul\":6375:6393   */\n      0xffffffffffffffff\n        /* \"#utility.yul\":6363:6373   */\n      dup3\n        /* \"#utility.yul\":6360:6394   */\n      gt\n        /* \"#utility.yul\":6357:6419   */\n      or\n        /* \"#utility.yul\":6354:6442   */\n      iszero\n      tag_435\n      jumpi\n        /* \"#utility.yul\":6422:6440   */\n      tag_436\n      tag_326\n      jump\t// in\n    tag_436:\n        /* \"#utility.yul\":6354:6442   */\n    tag_435:\n        /* \"#utility.yul\":6462:6472   */\n      dup1\n        /* \"#utility.yul\":6458:6460   */\n      0x40\n        /* \"#utility.yul\":6451:6473   */\n      mstore\n        /* \"#utility.yul\":6241:6479   */\n      pop\n        /* \"#utility.yul\":6198:6479   */\n      pop\n      pop\n      jump\t// out\n        /* \"#utility.yul\":6485:6614   */\n    tag_328:\n        /* \"#utility.yul\":6519:6525   */\n      0x00\n        /* \"#utility.yul\":6546:6566   */\n      tag_438\n      tag_304\n      jump\t// in\n    tag_438:\n        /* \"#utility.yul\":6536:6566   */\n      swap1\n      pop\n        /* \"#utility.yul\":6575:6608   */\n      tag_439\n        /* \"#utility.yul\":6603:6607   */\n      dup3\n        /* \"#utility.yul\":6595:6601   */\n      dup3\n        /* \"#utility.yul\":6575:6608   */\n      tag_327\n      jump\t// in\n    tag_439:\n        /* \"#utility.yul\":6485:6614   */\n      swap2\n      swap1\n      pop\n      jump\t// out\n        /* \"#utility.yul\":6620:6928   */\n    tag_329:\n        /* \"#utility.yul\":6682:6686   */\n      0x00\n        /* \"#utility.yul\":6772:6790   */\n      0xffffffffffffffff\n        /* \"#utility.yul\":6764:6770   */\n      dup3\n        /* \"#utility.yul\":6761:6791   */\n      gt\n        /* \"#utility.yul\":6758:6814   */\n      iszero\n      tag_441\n      jumpi\n        /* \"#utility.yul\":6794:6812   */\n      tag_442\n      tag_326\n      jump\t// in\n    tag_442:\n        /* \"#utility.yul\":6758:6814   */\n    tag_441:\n        /* \"#utility.yul\":6832:6861   */\n      tag_443\n        /* \"#utility.yul\":6854:6860   */\n      dup3\n        /* \"#utility.yul\":6832:6861   */\n      tag_302\n      jump\t// in\n    tag_443:\n        /* \"#utility.yul\":6824:6861   */\n      swap1\n      pop\n        /* \"#utility.yul\":6916:6920   */\n      0x20\n        /* \"#utility.yul\":6910:6914   */\n      dup2\n        /* \"#utility.yul\":6906:6921   */\n      add\n        /* \"#utility.yul\":6898:6921   */\n      swap1\n      pop\n        /* \"#utility.yul\":6620:6928   */\n      swap2\n      swap1\n      pop\n      jump\t// out\n        /* \"#utility.yul\":6934:7080   */\n    tag_330:\n        /* \"#utility.yul\":7031:7037   */\n      dup3\n        /* \"#utility.yul\":7026:7029   */\n      dup2\n        /* \"#utility.yul\":7021:7024   */\n      dup4\n        /* \"#utility.yul\":7008:7038   */\n      calldatacopy\n        /* \"#utility.yul\":7072:7073   */\n      0x00\n        /* \"#utility.yul\":7063:7069   */\n      dup4\n        /* \"#utility.yul\":7058:7061   */\n      dup4\n        /* \"#utility.yul\":7054:7070   */\n      add\n        /* \"#utility.yul\":7047:7074   */\n      mstore\n        /* \"#utility.yul\":6934:7080   */\n      pop\n      pop\n      pop\n      jump\t// out\n        /* \"#utility.yul\":7086:7511   */\n    tag_331:\n        /* \"#utility.yul\":7164:7169   */\n      0x00\n        /* \"#utility.yul\":7189:7255   */\n      tag_446\n        /* \"#utility.yul\":7205:7254   */\n      tag_447\n        /* \"#utility.yul\":7247:7253   */\n      dup5\n        /* \"#utility.yul\":7205:7254   */\n      tag_329\n      jump\t// in\n    tag_447:\n        /* \"#utility.yul\":7189:7255   */\n      tag_328\n      jump\t// in\n    tag_446:\n        /* \"#utility.yul\":7180:7255   */\n      swap1\n      pop\n        /* \"#utility.yul\":7278:7284   */\n      dup3\n        /* \"#utility.yul\":7271:7276   */\n      dup2\n        /* \"#utility.yul\":7264:7285   */\n      mstore\n        /* \"#utility.yul\":7316:7320   */\n      0x20\n        /* \"#utility.yul\":7309:7314   */\n      dup2\n        /* \"#utility.yul\":7305:7321   */\n      add\n        /* \"#utility.yul\":7354:7357   */\n      dup5\n        /* \"#utility.yul\":7345:7351   */\n      dup5\n        /* \"#utility.yul\":7340:7343   */\n      dup5\n        /* \"#utility.yul\":7336:7352   */\n      add\n        /* \"#utility.yul\":7333:7358   */\n      gt\n        /* \"#utility.yul\":7330:7442   */\n      iszero\n      tag_448\n      jumpi\n        /* \"#utility.yul\":7361:7440   */\n      tag_449\n      tag_325\n      jump\t// in\n    tag_449:\n        /* \"#utility.yul\":7330:7442   */\n    tag_448:\n        /* \"#utility.yul\":7451:7505   */\n      tag_450\n        /* \"#utility.yul\":7498:7504   */\n      dup5\n        /* \"#utility.yul\":7493:7496   */\n      dup3\n        /* \"#utility.yul\":7488:7491   */\n      dup6\n        /* \"#utility.yul\":7451:7505   */\n      tag_330\n      jump\t// in\n    tag_450:\n        /* \"#utility.yul\":7170:7511   */\n      pop\n        /* \"#utility.yul\":7086:7511   */\n      swap4\n      swap3\n      pop\n      pop\n      pop\n      jump\t// out\n        /* \"#utility.yul\":7531:7871   */\n    tag_332:\n        /* \"#utility.yul\":7587:7592   */\n      0x00\n        /* \"#utility.yul\":7636:7639   */\n      dup3\n        /* \"#utility.yul\":7629:7633   */\n      0x1f\n        /* \"#utility.yul\":7621:7627   */\n      dup4\n        /* \"#utility.yul\":7617:7634   */\n      add\n        /* \"#utility.yul\":7613:7640   */\n      slt\n        /* \"#utility.yul\":7603:7725   */\n      tag_452\n      jumpi\n        /* \"#utility.yul\":7644:7723   */\n      tag_453\n      tag_324\n      jump\t// in\n    tag_453:\n        /* \"#utility.yul\":7603:7725   */\n    tag_452:\n        /* \"#utility.yul\":7761:7767   */\n      dup2\n        /* \"#utility.yul\":7748:7768   */\n      calldataload\n        /* \"#utility.yul\":7786:7865   */\n      tag_454\n        /* \"#utility.yul\":7861:7864   */\n      dup5\n        /* \"#utility.yul\":7853:7859   */\n      dup3\n        /* \"#utility.yul\":7846:7850   */\n      0x20\n        /* \"#utility.yul\":7838:7844   */\n      dup7\n        /* \"#utility.yul\":7834:7851   */\n      add\n        /* \"#utility.yul\":7786:7865   */\n      tag_331\n      jump\t// in\n    tag_454:\n        /* \"#utility.yul\":7777:7865   */\n      swap2\n      pop\n        /* \"#utility.yul\":7593:7871   */\n      pop\n        /* \"#utility.yul\":7531:7871   */\n      swap3\n      swap2\n      pop\n      pop\n      jump\t// out\n        /* \"#utility.yul\":7877:8531   */\n    tag_56:\n        /* \"#utility.yul\":7955:7961   */\n      0x00\n        /* \"#utility.yul\":7963:7969   */\n      dup1\n        /* \"#utility.yul\":8012:8014   */\n      0x40\n        /* \"#utility.yul\":8000:8009   */\n      dup4\n        /* \"#utility.yul\":7991:7998   */\n      dup6\n        /* \"#utility.yul\":7987:8010   */\n      sub\n        /* \"#utility.yul\":7983:8015   */\n      slt\n        /* \"#utility.yul\":7980:8099   */\n      iszero\n      tag_456\n      jumpi\n        /* \"#utility.yul\":8018:8097   */\n      tag_457\n      tag_305\n      jump\t// in\n    tag_457:\n        /* \"#utility.yul\":7980:8099   */\n    tag_456:\n        /* \"#utility.yul\":8166:8167   */\n      0x00\n        /* \"#utility.yul\":8155:8164   */\n      dup4\n        /* \"#utility.yul\":8151:8168   */\n      add\n        /* \"#utility.yul\":8138:8169   */\n      calldataload\n        /* \"#utility.yul\":8196:8214   */\n      0xffffffffffffffff\n        /* \"#utility.yul\":8188:8194   */\n      dup2\n        /* \"#utility.yul\":8185:8215   */\n      gt\n        /* \"#utility.yul\":8182:8299   */\n      iszero\n      tag_458\n      jumpi\n        /* \"#utility.yul\":8218:8297   */\n      tag_459\n      tag_306\n      jump\t// in\n    tag_459:\n        /* \"#utility.yul\":8182:8299   */\n    tag_458:\n        /* \"#utility.yul\":8323:8386   */\n      tag_460\n        /* \"#utility.yul\":8378:8385   */\n      dup6\n        /* \"#utility.yul\":8369:8375   */\n      dup3\n        /* \"#utility.yul\":8358:8367   */\n      dup7\n        /* \"#utility.yul\":8354:8376   */\n      add\n        /* \"#utility.yul\":8323:8386   */\n      tag_332\n      jump\t// in\n    tag_460:\n        /* \"#utility.yul\":8313:8386   */\n      swap3\n      pop\n        /* \"#utility.yul\":8109:8396   */\n      pop\n        /* \"#utility.yul\":8435:8437   */\n      0x20\n        /* \"#utility.yul\":8461:8514   */\n      tag_461\n        /* \"#utility.yul\":8506:8513   */\n      dup6\n        /* \"#utility.yul\":8497:8503   */\n      dup3\n        /* \"#utility.yul\":8486:8495   */\n      dup7\n        /* \"#utility.yul\":8482:8504   */\n      add\n        /* \"#utility.yul\":8461:8514   */\n      tag_313\n      jump\t// in\n    tag_461:\n        /* \"#utility.yul\":8451:8514   */\n      swap2\n      pop\n        /* \"#utility.yul\":8406:8524   */\n      pop\n        /* \"#utility.yul\":7877:8531   */\n      swap3\n      pop\n      swap3\n      swap1\n      pop\n      jump\t// out\n        /* \"#utility.yul\":8537:8866   */\n    tag_65:\n        /* \"#utility.yul\":8596:8602   */\n      0x00\n        /* \"#utility.yul\":8645:8647   */\n      0x20\n        /* \"#utility.yul\":8633:8642   */\n      dup3\n        /* \"#utility.yul\":8624:8631   */\n      dup5\n        /* \"#utility.yul\":8620:8643   */\n      sub\n        /* \"#utility.yul\":8616:8648   */\n      slt\n        /* \"#utility.yul\":8613:8732   */\n      iszero\n      tag_463\n      jumpi\n        /* \"#utility.yul\":8651:8730   */\n      tag_464\n      tag_305\n      jump\t// in\n    tag_464:\n        /* \"#utility.yul\":8613:8732   */\n    tag_463:\n        /* \"#utility.yul\":8771:8772   */\n      0x00\n        /* \"#utility.yul\":8796:8849   */\n      tag_465\n        /* \"#utility.yul\":8841:8848   */\n      dup5\n        /* \"#utility.yul\":8832:8838   */\n      dup3\n        /* \"#utility.yul\":8821:8830   */\n      dup6\n        /* \"#utility.yul\":8817:8839   */\n      add\n        /* \"#utility.yul\":8796:8849   */\n      tag_310\n      jump\t// in\n    tag_465:\n        /* \"#utility.yul\":8786:8849   */\n      swap2\n      pop\n        /* \"#utility.yul\":8742:8859   */\n      pop\n        /* \"#utility.yul\":8537:8866   */\n      swap3\n      swap2\n      pop\n      pop\n      jump\t// out\n        /* \"#utility.yul\":8872:8990   */\n    tag_333:\n        /* \"#utility.yul\":8959:8983   */\n      tag_467\n        /* \"#utility.yul\":8977:8982   */\n      dup2\n        /* \"#utility.yul\":8959:8983   */\n      tag_308\n      jump\t// in\n    tag_467:\n        /* \"#utility.yul\":8954:8957   */\n      dup3\n        /* \"#utility.yul\":8947:8984   */\n      mstore\n        /* \"#utility.yul\":8872:8990   */\n      pop\n      pop\n      jump\t// out\n        /* \"#utility.yul\":8996:9218   */\n    tag_73:\n        /* \"#utility.yul\":9089:9093   */\n      0x00\n        /* \"#utility.yul\":9127:9129   */\n      0x20\n        /* \"#utility.yul\":9116:9125   */\n      dup3\n        /* \"#utility.yul\":9112:9130   */\n      add\n        /* \"#utility.yul\":9104:9130   */\n      swap1\n      pop\n        /* \"#utility.yul\":9140:9211   */\n      tag_469\n        /* \"#utility.yul\":9208:9209   */\n      0x00\n        /* \"#utility.yul\":9197:9206   */\n      dup4\n        /* \"#utility.yul\":9193:9210   */\n      add\n        /* \"#utility.yul\":9184:9190   */\n      dup5\n        /* \"#utility.yul\":9140:9211   */\n      tag_333\n      jump\t// in\n    tag_469:\n        /* \"#utility.yul\":8996:9218   */\n      swap3\n      swap2\n      pop\n      pop\n      jump\t// out\n        /* \"#utility.yul\":9224:9733   */\n    tag_79:\n        /* \"#utility.yul\":9293:9299   */\n      0x00\n        /* \"#utility.yul\":9342:9344   */\n      0x20\n        /* \"#utility.yul\":9330:9339   */\n      dup3\n        /* \"#utility.yul\":9321:9328   */\n      dup5\n        /* \"#utility.yul\":9317:9340   */\n      sub\n        /* \"#utility.yul\":9313:9345   */\n      slt\n        /* \"#utility.yul\":9310:9429   */\n      iszero\n      tag_471\n      jumpi\n        /* \"#utility.yul\":9348:9427   */\n      tag_472\n      tag_305\n      jump\t// in\n    tag_472:\n        /* \"#utility.yul\":9310:9429   */\n    tag_471:\n        /* \"#utility.yul\":9496:9497   */\n      0x00\n        /* \"#utility.yul\":9485:9494   */\n      dup3\n        /* \"#utility.yul\":9481:9498   */\n      add\n        /* \"#utility.yul\":9468:9499   */\n      calldataload\n        /* \"#utility.yul\":9526:9544   */\n      0xffffffffffffffff\n        /* \"#utility.yul\":9518:9524   */\n      dup2\n        /* \"#utility.yul\":9515:9545   */\n      gt\n        /* \"#utility.yul\":9512:9629   */\n      iszero\n      tag_473\n      jumpi\n        /* \"#utility.yul\":9548:9627   */\n      tag_474\n      tag_306\n      jump\t// in\n    tag_474:\n        /* \"#utility.yul\":9512:9629   */\n    tag_473:\n        /* \"#utility.yul\":9653:9716   */\n      tag_475\n        /* \"#utility.yul\":9708:9715   */\n      dup5\n        /* \"#utility.yul\":9699:9705   */\n      dup3\n        /* \"#utility.yul\":9688:9697   */\n      dup6\n        /* \"#utility.yul\":9684:9706   */\n      add\n        /* \"#utility.yul\":9653:9716   */\n      tag_332\n      jump\t// in\n    tag_475:\n        /* \"#utility.yul\":9643:9716   */\n      swap2\n      pop\n        /* \"#utility.yul\":9439:9726   */\n      pop\n        /* \"#utility.yul\":9224:9733   */\n      swap3\n      swap2\n      pop\n      pop\n      jump\t// out\n        /* \"#utility.yul\":9739:10213   */\n    tag_98:\n        /* \"#utility.yul\":9807:9813   */\n      0x00\n        /* \"#utility.yul\":9815:9821   */\n      dup1\n        /* \"#utility.yul\":9864:9866   */\n      0x40\n        /* \"#utility.yul\":9852:9861   */\n      dup4\n        /* \"#utility.yul\":9843:9850   */\n      dup6\n        /* \"#utility.yul\":9839:9862   */\n      sub\n        /* \"#utility.yul\":9835:9867   */\n      slt\n        /* \"#utility.yul\":9832:9951   */\n      iszero\n      tag_477\n      jumpi\n        /* \"#utility.yul\":9870:9949   */\n      tag_478\n      tag_305\n      jump\t// in\n    tag_478:\n        /* \"#utility.yul\":9832:9951   */\n    tag_477:\n        /* \"#utility.yul\":9990:9991   */\n      0x00\n        /* \"#utility.yul\":10015:10068   */\n      tag_479\n        /* \"#utility.yul\":10060:10067   */\n      dup6\n        /* \"#utility.yul\":10051:10057   */\n      dup3\n        /* \"#utility.yul\":10040:10049   */\n      dup7\n        /* \"#utility.yul\":10036:10058   */\n      add\n        /* \"#utility.yul\":10015:10068   */\n      tag_310\n      jump\t// in\n    tag_479:\n        /* \"#utility.yul\":10005:10068   */\n      swap3\n      pop\n        /* \"#utility.yul\":9961:10078   */\n      pop\n        /* \"#utility.yul\":10117:10119   */\n      0x20\n        /* \"#utility.yul\":10143:10196   */\n      tag_480\n        /* \"#utility.yul\":10188:10195   */\n      dup6\n        /* \"#utility.yul\":10179:10185   */\n      dup3\n        /* \"#utility.yul\":10168:10177   */\n      dup7\n        /* \"#utility.yul\":10164:10186   */\n      add\n        /* \"#utility.yul\":10143:10196   */\n      tag_310\n      jump\t// in\n    tag_480:\n        /* \"#utility.yul\":10133:10196   */\n      swap2\n      pop\n        /* \"#utility.yul\":10088:10206   */\n      pop\n        /* \"#utility.yul\":9739:10213   */\n      swap3\n      pop\n      swap3\n      swap1\n      pop\n      jump\t// out\n        /* \"#utility.yul\":10219:10399   */\n    tag_334:\n        /* \"#utility.yul\":10267:10344   */\n      0x4e487b7100000000000000000000000000000000000000000000000000000000\n        /* \"#utility.yul\":10264:10265   */\n      0x00\n        /* \"#utility.yul\":10257:10345   */\n      mstore\n        /* \"#utility.yul\":10364:10368   */\n      0x22\n        /* \"#utility.yul\":10361:10362   */\n      0x04\n        /* \"#utility.yul\":10354:10369   */\n      mstore\n        /* \"#utility.yul\":10388:10392   */\n      0x24\n        /* \"#utility.yul\":10385:10386   */\n      0x00\n        /* \"#utility.yul\":10378:10393   */\n      revert\n        /* \"#utility.yul\":10405:10725   */\n    tag_114:\n        /* \"#utility.yul\":10449:10455   */\n      0x00\n        /* \"#utility.yul\":10486:10487   */\n      0x02\n        /* \"#utility.yul\":10480:10484   */\n      dup3\n        /* \"#utility.yul\":10476:10488   */\n      div\n        /* \"#utility.yul\":10466:10488   */\n      swap1\n      pop\n        /* \"#utility.yul\":10533:10534   */\n      0x01\n        /* \"#utility.yul\":10527:10531   */\n      dup3\n        /* \"#utility.yul\":10523:10535   */\n      and\n        /* \"#utility.yul\":10554:10572   */\n      dup1\n        /* \"#utility.yul\":10544:10625   */\n      tag_483\n      jumpi\n        /* \"#utility.yul\":10610:10614   */\n      0x7f\n        /* \"#utility.yul\":10602:10608   */\n      dup3\n        /* \"#utility.yul\":10598:10615   */\n      and\n        /* \"#utility.yul\":10588:10615   */\n      swap2\n      pop\n        /* \"#utility.yul\":10544:10625   */\n    tag_483:\n        /* \"#utility.yul\":10672:10674   */\n      0x20\n        /* \"#utility.yul\":10664:10670   */\n      dup3\n        /* \"#utility.yul\":10661:10675   */\n      lt\n        /* \"#utility.yul\":10641:10659   */\n      dup2\n        /* \"#utility.yul\":10638:10676   */\n      sub\n        /* \"#utility.yul\":10635:10719   */\n      tag_484\n      jumpi\n        /* \"#utility.yul\":10691:10709   */\n      tag_485\n      tag_334\n      jump\t// in\n    tag_485:\n        /* \"#utility.yul\":10635:10719   */\n    tag_484:\n        /* \"#utility.yul\":10456:10725   */\n      pop\n        /* \"#utility.yul\":10405:10725   */\n      swap2\n      swap1\n      pop\n      jump\t// out\n        /* \"#utility.yul\":10731:10909   */\n    tag_335:\n        /* \"#utility.yul\":10871:10901   */\n      0x417070726f76652066756e6374696f6e2069732064697361626c656400000000\n        /* \"#utility.yul\":10867:10868   */\n      0x00\n        /* \"#utility.yul\":10859:10865   */\n      dup3\n        /* \"#utility.yul\":10855:10869   */\n      add\n        /* \"#utility.yul\":10848:10902   */\n      mstore\n        /* \"#utility.yul\":10731:10909   */\n      pop\n      jump\t// out\n        /* \"#utility.yul\":10915:11281   */\n    tag_336:\n        /* \"#utility.yul\":11057:11060   */\n      0x00\n        /* \"#utility.yul\":11078:11145   */\n      tag_488\n        /* \"#utility.yul\":11142:11144   */\n      0x1c\n        /* \"#utility.yul\":11137:11140   */\n      dup4\n        /* \"#utility.yul\":11078:11145   */\n      tag_300\n      jump\t// in\n    tag_488:\n        /* \"#utility.yul\":11071:11145   */\n      swap2\n      pop\n        /* \"#utility.yul\":11154:11247   */\n      tag_489\n        /* \"#utility.yul\":11243:11246   */\n      dup3\n        /* \"#utility.yul\":11154:11247   */\n      tag_335\n      jump\t// in\n    tag_489:\n        /* \"#utility.yul\":11272:11274   */\n      0x20\n        /* \"#utility.yul\":11267:11270   */\n      dup3\n        /* \"#utility.yul\":11263:11275   */\n      add\n        /* \"#utility.yul\":11256:11275   */\n      swap1\n      pop\n        /* \"#utility.yul\":10915:11281   */\n      swap2\n      swap1\n      pop\n      jump\t// out\n        /* \"#utility.yul\":11287:11706   */\n    tag_121:\n        /* \"#utility.yul\":11453:11457   */\n      0x00\n        /* \"#utility.yul\":11491:11493   */\n      0x20\n        /* \"#utility.yul\":11480:11489   */\n      dup3\n        /* \"#utility.yul\":11476:11494   */\n      add\n        /* \"#utility.yul\":11468:11494   */\n      swap1\n      pop\n        /* \"#utility.yul\":11540:11549   */\n      dup2\n        /* \"#utility.yul\":11534:11538   */\n      dup2\n        /* \"#utility.yul\":11530:11550   */\n      sub\n        /* \"#utility.yul\":11526:11527   */\n      0x00\n        /* \"#utility.yul\":11515:11524   */\n      dup4\n        /* \"#utility.yul\":11511:11528   */\n      add\n        /* \"#utility.yul\":11504:11551   */\n      mstore\n        /* \"#utility.yul\":11568:11699   */\n      tag_491\n        /* \"#utility.yul\":11694:11698   */\n      dup2\n        /* \"#utility.yul\":11568:11699   */\n      tag_336\n      jump\t// in\n    tag_491:\n        /* \"#utility.yul\":11560:11699   */\n      swap1\n      pop\n        /* \"#utility.yul\":11287:11706   */\n      swap2\n      swap1\n      pop\n      jump\t// out\n        /* \"#utility.yul\":11712:11855   */\n    tag_337:\n        /* \"#utility.yul\":11769:11774   */\n      0x00\n        /* \"#utility.yul\":11800:11806   */\n      dup2\n        /* \"#utility.yul\":11794:11807   */\n      mload\n        /* \"#utility.yul\":11785:11807   */\n      swap1\n      pop\n        /* \"#utility.yul\":11816:11849   */\n      tag_493\n        /* \"#utility.yul\":11843:11848   */\n      dup2\n        /* \"#utility.yul\":11816:11849   */\n      tag_312\n      jump\t// in\n    tag_493:\n        /* \"#utility.yul\":11712:11855   */\n      swap3\n      swap2\n      pop\n      pop\n      jump\t// out\n        /* \"#utility.yul\":11861:12212   */\n    tag_126:\n        /* \"#utility.yul\":11931:11937   */\n      0x00\n        /* \"#utility.yul\":11980:11982   */\n      0x20\n        /* \"#utility.yul\":11968:11977   */\n      dup3\n        /* \"#utility.yul\":11959:11966   */\n      dup5\n        /* \"#utility.yul\":11955:11978   */\n      sub\n        /* \"#utility.yul\":11951:11983   */\n      slt\n        /* \"#utility.yul\":11948:12067   */\n      iszero\n      tag_495\n      jumpi\n        /* \"#utility.yul\":11986:12065   */\n      tag_496\n      tag_305\n      jump\t// in\n    tag_496:\n        /* \"#utility.yul\":11948:12067   */\n    tag_495:\n        /* \"#utility.yul\":12106:12107   */\n      0x00\n        /* \"#utility.yul\":12131:12195   */\n      tag_497\n        /* \"#utility.yul\":12187:12194   */\n      dup5\n        /* \"#utility.yul\":12178:12184   */\n      dup3\n        /* \"#utility.yul\":12167:12176   */\n      dup6\n        /* \"#utility.yul\":12163:12185   */\n      add\n        /* \"#utility.yul\":12131:12195   */\n      tag_337\n      jump\t// in\n    tag_497:\n        /* \"#utility.yul\":12121:12195   */\n      swap2\n      pop\n        /* \"#utility.yul\":12077:12205   */\n      pop\n        /* \"#utility.yul\":11861:12212   */\n      swap3\n      swap2\n      pop\n      pop\n      jump\t// out\n        /* \"#utility.yul\":12218:12392   */\n    tag_338:\n        /* \"#utility.yul\":12358:12384   */\n      0x5472616e7366657220746f207a65726f20616464726573730000000000000000\n        /* \"#utility.yul\":12354:12355   */\n      0x00\n        /* \"#utility.yul\":12346:12352   */\n      dup3\n        /* \"#utility.yul\":12342:12356   */\n      add\n        /* \"#utility.yul\":12335:12385   */\n      mstore\n        /* \"#utility.yul\":12218:12392   */\n      pop\n      jump\t// out\n        /* \"#utility.yul\":12398:12764   */\n    tag_339:\n        /* \"#utility.yul\":12540:12543   */\n      0x00\n        /* \"#utility.yul\":12561:12628   */\n      tag_500\n        /* \"#utility.yul\":12625:12627   */\n      0x18\n        /* \"#utility.yul\":12620:12623   */\n      dup4\n        /* \"#utility.yul\":12561:12628   */\n      tag_300\n      jump\t// in\n    tag_500:\n        /* \"#utility.yul\":12554:12628   */\n      swap2\n      pop\n        /* \"#utility.yul\":12637:12730   */\n      tag_501\n        /* \"#utility.yul\":12726:12729   */\n      dup3\n        /* \"#utility.yul\":12637:12730   */\n      tag_338\n      jump\t// in\n    tag_501:\n        /* \"#utility.yul\":12755:12757   */\n      0x20\n        /* \"#utility.yul\":12750:12753   */\n      dup3\n        /* \"#utility.yul\":12746:12758   */\n      add\n        /* \"#utility.yul\":12739:12758   */\n      swap1\n      pop\n        /* \"#utility.yul\":12398:12764   */\n      swap2\n      swap1\n      pop\n      jump\t// out\n        /* \"#utility.yul\":12770:13189   */\n    tag_130:\n        /* \"#utility.yul\":12936:12940   */\n      0x00\n        /* \"#utility.yul\":12974:12976   */\n      0x20\n        /* \"#utility.yul\":12963:12972   */\n      dup3\n        /* \"#utility.yul\":12959:12977   */\n      add\n        /* \"#utility.yul\":12951:12977   */\n      swap1\n      pop\n        /* \"#utility.yul\":13023:13032   */\n      dup2\n        /* \"#utility.yul\":13017:13021   */\n      dup2\n        /* \"#utility.yul\":13013:13033   */\n      sub\n        /* \"#utility.yul\":13009:13010   */\n      0x00\n        /* \"#utility.yul\":12998:13007   */\n      dup4\n        /* \"#utility.yul\":12994:13011   */\n      add\n        /* \"#utility.yul\":12987:13034   */\n      mstore\n        /* \"#utility.yul\":13051:13182   */\n      tag_503\n        /* \"#utility.yul\":13177:13181   */\n      dup2\n        /* \"#utility.yul\":13051:13182   */\n      tag_339\n      jump\t// in\n    tag_503:\n        /* \"#utility.yul\":13043:13182   */\n      swap1\n      pop\n        /* \"#utility.yul\":12770:13189   */\n      swap2\n      swap1\n      pop\n      jump\t// out\n        /* \"#utility.yul\":13195:13629   */\n    tag_340:\n        /* \"#utility.yul\":13284:13289   */\n      0x00\n        /* \"#utility.yul\":13309:13375   */\n      tag_505\n        /* \"#utility.yul\":13325:13374   */\n      tag_506\n        /* \"#utility.yul\":13367:13373   */\n      dup5\n        /* \"#utility.yul\":13325:13374   */\n      tag_329\n      jump\t// in\n    tag_506:\n        /* \"#utility.yul\":13309:13375   */\n      tag_328\n      jump\t// in\n    tag_505:\n        /* \"#utility.yul\":13300:13375   */\n      swap1\n      pop\n        /* \"#utility.yul\":13398:13404   */\n      dup3\n        /* \"#utility.yul\":13391:13396   */\n      dup2\n        /* \"#utility.yul\":13384:13405   */\n      mstore\n        /* \"#utility.yul\":13436:13440   */\n      0x20\n        /* \"#utility.yul\":13429:13434   */\n      dup2\n        /* \"#utility.yul\":13425:13441   */\n      add\n        /* \"#utility.yul\":13474:13477   */\n      dup5\n        /* \"#utility.yul\":13465:13471   */\n      dup5\n        /* \"#utility.yul\":13460:13463   */\n      dup5\n        /* \"#utility.yul\":13456:13472   */\n      add\n        /* \"#utility.yul\":13453:13478   */\n      gt\n        /* \"#utility.yul\":13450:13562   */\n      iszero\n      tag_507\n      jumpi\n        /* \"#utility.yul\":13481:13560   */\n      tag_508\n      tag_325\n      jump\t// in\n    tag_508:\n        /* \"#utility.yul\":13450:13562   */\n    tag_507:\n        /* \"#utility.yul\":13571:13623   */\n      tag_509\n        /* \"#utility.yul\":13616:13622   */\n      dup5\n        /* \"#utility.yul\":13611:13614   */\n      dup3\n        /* \"#utility.yul\":13606:13609   */\n      dup6\n        /* \"#utility.yul\":13571:13623   */\n      tag_301\n      jump\t// in\n    tag_509:\n        /* \"#utility.yul\":13290:13629   */\n      pop\n        /* \"#utility.yul\":13195:13629   */\n      swap4\n      swap3\n      pop\n      pop\n      pop\n      jump\t// out\n        /* \"#utility.yul\":13649:14004   */\n    tag_341:\n        /* \"#utility.yul\":13716:13721   */\n      0x00\n        /* \"#utility.yul\":13765:13768   */\n      dup3\n        /* \"#utility.yul\":13758:13762   */\n      0x1f\n        /* \"#utility.yul\":13750:13756   */\n      dup4\n        /* \"#utility.yul\":13746:13763   */\n      add\n        /* \"#utility.yul\":13742:13769   */\n      slt\n        /* \"#utility.yul\":13732:13854   */\n      tag_511\n      jumpi\n        /* \"#utility.yul\":13773:13852   */\n      tag_512\n      tag_324\n      jump\t// in\n    tag_512:\n        /* \"#utility.yul\":13732:13854   */\n    tag_511:\n        /* \"#utility.yul\":13883:13889   */\n      dup2\n        /* \"#utility.yul\":13877:13890   */\n      mload\n        /* \"#utility.yul\":13908:13998   */\n      tag_513\n        /* \"#utility.yul\":13994:13997   */\n      dup5\n        /* \"#utility.yul\":13986:13992   */\n      dup3\n        /* \"#utility.yul\":13979:13983   */\n      0x20\n        /* \"#utility.yul\":13971:13977   */\n      dup7\n        /* \"#utility.yul\":13967:13984   */\n      add\n        /* \"#utility.yul\":13908:13998   */\n      tag_340\n      jump\t// in\n    tag_513:\n        /* \"#utility.yul\":13899:13998   */\n      swap2\n      pop\n        /* \"#utility.yul\":13722:14004   */\n      pop\n        /* \"#utility.yul\":13649:14004   */\n      swap3\n      swap2\n      pop\n      pop\n      jump\t// out\n        /* \"#utility.yul\":14010:14534   */\n    tag_135:\n        /* \"#utility.yul\":14090:14096   */\n      0x00\n        /* \"#utility.yul\":14139:14141   */\n      0x20\n        /* \"#utility.yul\":14127:14136   */\n      dup3\n        /* \"#utility.yul\":14118:14125   */\n      dup5\n        /* \"#utility.yul\":14114:14137   */\n      sub\n        /* \"#utility.yul\":14110:14142   */\n      slt\n        /* \"#utility.yul\":14107:14226   */\n      iszero\n      tag_515\n      jumpi\n        /* \"#utility.yul\":14145:14224   */\n      tag_516\n      tag_305\n      jump\t// in\n    tag_516:\n        /* \"#utility.yul\":14107:14226   */\n    tag_515:\n        /* \"#utility.yul\":14286:14287   */\n      0x00\n        /* \"#utility.yul\":14275:14284   */\n      dup3\n        /* \"#utility.yul\":14271:14288   */\n      add\n        /* \"#utility.yul\":14265:14289   */\n      mload\n        /* \"#utility.yul\":14316:14334   */\n      0xffffffffffffffff\n        /* \"#utility.yul\":14308:14314   */\n      dup2\n        /* \"#utility.yul\":14305:14335   */\n      gt\n        /* \"#utility.yul\":14302:14419   */\n      iszero\n      tag_517\n      jumpi\n        /* \"#utility.yul\":14338:14417   */\n      tag_518\n      tag_306\n      jump\t// in\n    tag_518:\n        /* \"#utility.yul\":14302:14419   */\n    tag_517:\n        /* \"#utility.yul\":14443:14517   */\n      tag_519\n        /* \"#utility.yul\":14509:14516   */\n      dup5\n        /* \"#utility.yul\":14500:14506   */\n      dup3\n        /* \"#utility.yul\":14489:14498   */\n      dup6\n        /* \"#utility.yul\":14485:14507   */\n      add\n        /* \"#utility.yul\":14443:14517   */\n      tag_341\n      jump\t// in\n    tag_519:\n        /* \"#utility.yul\":14433:14517   */\n      swap2\n      pop\n        /* \"#utility.yul\":14236:14527   */\n      pop\n        /* \"#utility.yul\":14010:14534   */\n      swap3\n      swap2\n      pop\n      pop\n      jump\t// out\n        /* \"#utility.yul\":14540:14688   */\n    tag_342:\n        /* \"#utility.yul\":14642:14653   */\n      0x00\n        /* \"#utility.yul\":14679:14682   */\n      dup2\n        /* \"#utility.yul\":14664:14682   */\n      swap1\n      pop\n        /* \"#utility.yul\":14540:14688   */\n      swap3\n      swap2\n      pop\n      pop\n      jump\t// out\n        /* \"#utility.yul\":14694:15084   */\n    tag_343:\n        /* \"#utility.yul\":14800:14803   */\n      0x00\n        /* \"#utility.yul\":14828:14867   */\n      tag_522\n        /* \"#utility.yul\":14861:14866   */\n      dup3\n        /* \"#utility.yul\":14828:14867   */\n      tag_299\n      jump\t// in\n    tag_522:\n        /* \"#utility.yul\":14883:14972   */\n      tag_523\n        /* \"#utility.yul\":14965:14971   */\n      dup2\n        /* \"#utility.yul\":14960:14963   */\n      dup6\n        /* \"#utility.yul\":14883:14972   */\n      tag_342\n      jump\t// in\n    tag_523:\n        /* \"#utility.yul\":14876:14972   */\n      swap4\n      pop\n        /* \"#utility.yul\":14981:15046   */\n      tag_524\n        /* \"#utility.yul\":15039:15045   */\n      dup2\n        /* \"#utility.yul\":15034:15037   */\n      dup6\n        /* \"#utility.yul\":15027:15031   */\n      0x20\n        /* \"#utility.yul\":15020:15025   */\n      dup7\n        /* \"#utility.yul\":15016:15032   */\n      add\n        /* \"#utility.yul\":14981:15046   */\n      tag_301\n      jump\t// in\n    tag_524:\n        /* \"#utility.yul\":15071:15077   */\n      dup1\n        /* \"#utility.yul\":15066:15069   */\n      dup5\n        /* \"#utility.yul\":15062:15078   */\n      add\n        /* \"#utility.yul\":15055:15078   */\n      swap2\n      pop\n        /* \"#utility.yul\":14804:15084   */\n      pop\n        /* \"#utility.yul\":14694:15084   */\n      swap3\n      swap2\n      pop\n      pop\n      jump\t// out\n        /* \"#utility.yul\":15090:15365   */\n    tag_137:\n        /* \"#utility.yul\":15222:15225   */\n      0x00\n        /* \"#utility.yul\":15244:15339   */\n      tag_526\n        /* \"#utility.yul\":15335:15338   */\n      dup3\n        /* \"#utility.yul\":15326:15332   */\n      dup5\n        /* \"#utility.yul\":15244:15339   */\n      tag_343\n      jump\t// in\n    tag_526:\n        /* \"#utility.yul\":15237:15339   */\n      swap2\n      pop\n        /* \"#utility.yul\":15356:15359   */\n      dup2\n        /* \"#utility.yul\":15349:15359   */\n      swap1\n      pop\n        /* \"#utility.yul\":15090:15365   */\n      swap3\n      swap2\n      pop\n      pop\n      jump\t// out\n        /* \"#utility.yul\":15371:15539   */\n    tag_344:\n        /* \"#utility.yul\":15511:15531   */\n      0x4e6f7420656e6f7567682062616c616e63650000000000000000000000000000\n        /* \"#utility.yul\":15507:15508   */\n      0x00\n        /* \"#utility.yul\":15499:15505   */\n      dup3\n        /* \"#utility.yul\":15495:15509   */\n      add\n        /* \"#utility.yul\":15488:15532   */\n      mstore\n        /* \"#utility.yul\":15371:15539   */\n      pop\n      jump\t// out\n        /* \"#utility.yul\":15545:15911   */\n    tag_345:\n        /* \"#utility.yul\":15687:15690   */\n      0x00\n        /* \"#utility.yul\":15708:15775   */\n      tag_529\n        /* \"#utility.yul\":15772:15774   */\n      0x12\n        /* \"#utility.yul\":15767:15770   */\n      dup4\n        /* \"#utility.yul\":15708:15775   */\n      tag_300\n      jump\t// in\n    tag_529:\n        /* \"#utility.yul\":15701:15775   */\n      swap2\n      pop\n        /* \"#utility.yul\":15784:15877   */\n      tag_530\n        /* \"#utility.yul\":15873:15876   */\n      dup3\n        /* \"#utility.yul\":15784:15877   */\n      tag_344\n      jump\t// in\n    tag_530:\n        /* \"#utility.yul\":15902:15904   */\n      0x20\n        /* \"#utility.yul\":15897:15900   */\n      dup3\n        /* \"#utility.yul\":15893:15905   */\n      add\n        /* \"#utility.yul\":15886:15905   */\n      swap1\n      pop\n        /* \"#utility.yul\":15545:15911   */\n      swap2\n      swap1\n      pop\n      jump\t// out\n        /* \"#utility.yul\":15917:16336   */\n    tag_140:\n        /* \"#utility.yul\":16083:16087   */\n      0x00\n        /* \"#utility.yul\":16121:16123   */\n      0x20\n        /* \"#utility.yul\":16110:16119   */\n      dup3\n        /* \"#utility.yul\":16106:16124   */\n      add\n        /* \"#utility.yul\":16098:16124   */\n      swap1\n      pop\n        /* \"#utility.yul\":16170:16179   */\n      dup2\n        /* \"#utility.yul\":16164:16168   */\n      dup2\n        /* \"#utility.yul\":16160:16180   */\n      sub\n        /* \"#utility.yul\":16156:16157   */\n      0x00\n        /* \"#utility.yul\":16145:16154   */\n      dup4\n        /* \"#utility.yul\":16141:16158   */\n      add\n        /* \"#utility.yul\":16134:16181   */\n      mstore\n        /* \"#utility.yul\":16198:16329   */\n      tag_532\n        /* \"#utility.yul\":16324:16328   */\n      dup2\n        /* \"#utility.yul\":16198:16329   */\n      tag_345\n      jump\t// in\n    tag_532:\n        /* \"#utility.yul\":16190:16329   */\n      swap1\n      pop\n        /* \"#utility.yul\":15917:16336   */\n      swap2\n      swap1\n      pop\n      jump\t// out\n        /* \"#utility.yul\":16342:16522   */\n    tag_346:\n        /* \"#utility.yul\":16390:16467   */\n      0x4e487b7100000000000000000000000000000000000000000000000000000000\n        /* \"#utility.yul\":16387:16388   */\n      0x00\n        /* \"#utility.yul\":16380:16468   */\n      mstore\n        /* \"#utility.yul\":16487:16491   */\n      0x11\n        /* \"#utility.yul\":16484:16485   */\n      0x04\n        /* \"#utility.yul\":16477:16492   */\n      mstore\n        /* \"#utility.yul\":16511:16515   */\n      0x24\n        /* \"#utility.yul\":16508:16509   */\n      0x00\n        /* \"#utility.yul\":16501:16516   */\n      revert\n        /* \"#utility.yul\":16528:16722   */\n    tag_143:\n        /* \"#utility.yul\":16568:16572   */\n      0x00\n        /* \"#utility.yul\":16588:16608   */\n      tag_535\n        /* \"#utility.yul\":16606:16607   */\n      dup3\n        /* \"#utility.yul\":16588:16608   */\n      tag_311\n      jump\t// in\n    tag_535:\n        /* \"#utility.yul\":16583:16608   */\n      swap2\n      pop\n        /* \"#utility.yul\":16622:16642   */\n      tag_536\n        /* \"#utility.yul\":16640:16641   */\n      dup4\n        /* \"#utility.yul\":16622:16642   */\n      tag_311\n      jump\t// in\n    tag_536:\n        /* \"#utility.yul\":16617:16642   */\n      swap3\n      pop\n        /* \"#utility.yul\":16666:16667   */\n      dup3\n        /* \"#utility.yul\":16663:16664   */\n      dup3\n        /* \"#utility.yul\":16659:16668   */\n      sub\n        /* \"#utility.yul\":16651:16668   */\n      swap1\n      pop\n        /* \"#utility.yul\":16690:16691   */\n      dup2\n        /* \"#utility.yul\":16684:16688   */\n      dup2\n        /* \"#utility.yul\":16681:16692   */\n      gt\n        /* \"#utility.yul\":16678:16715   */\n      iszero\n      tag_537\n      jumpi\n        /* \"#utility.yul\":16695:16713   */\n      tag_538\n      tag_346\n      jump\t// in\n    tag_538:\n        /* \"#utility.yul\":16678:16715   */\n    tag_537:\n        /* \"#utility.yul\":16528:16722   */\n      swap3\n      swap2\n      pop\n      pop\n      jump\t// out\n        /* \"#utility.yul\":16728:17060   */\n    tag_146:\n        /* \"#utility.yul\":16849:16853   */\n      0x00\n        /* \"#utility.yul\":16887:16889   */\n      0x40\n        /* \"#utility.yul\":16876:16885   */\n      dup3\n        /* \"#utility.yul\":16872:16890   */\n      add\n        /* \"#utility.yul\":16864:16890   */\n      swap1\n      pop\n        /* \"#utility.yul\":16900:16971   */\n      tag_540\n        /* \"#utility.yul\":16968:16969   */\n      0x00\n        /* \"#utility.yul\":16957:16966   */\n      dup4\n        /* \"#utility.yul\":16953:16970   */\n      add\n        /* \"#utility.yul\":16944:16950   */\n      dup6\n        /* \"#utility.yul\":16900:16971   */\n      tag_333\n      jump\t// in\n    tag_540:\n        /* \"#utility.yul\":16981:17053   */\n      tag_541\n        /* \"#utility.yul\":17049:17051   */\n      0x20\n        /* \"#utility.yul\":17038:17047   */\n      dup4\n        /* \"#utility.yul\":17034:17052   */\n      add\n        /* \"#utility.yul\":17025:17031   */\n      dup5\n        /* \"#utility.yul\":16981:17053   */\n      tag_316\n      jump\t// in\n    tag_541:\n        /* \"#utility.yul\":16728:17060   */\n      swap4\n      swap3\n      pop\n      pop\n      pop\n      jump\t// out\n        /* \"#utility.yul\":17066:17182   */\n    tag_347:\n        /* \"#utility.yul\":17136:17157   */\n      tag_543\n        /* \"#utility.yul\":17151:17156   */\n      dup2\n        /* \"#utility.yul\":17136:17157   */\n      tag_314\n      jump\t// in\n    tag_543:\n        /* \"#utility.yul\":17129:17134   */\n      dup2\n        /* \"#utility.yul\":17126:17158   */\n      eq\n        /* \"#utility.yul\":17116:17176   */\n      tag_544\n      jumpi\n        /* \"#utility.yul\":17172:17173   */\n      0x00\n        /* \"#utility.yul\":17169:17170   */\n      dup1\n        /* \"#utility.yul\":17162:17174   */\n      revert\n        /* \"#utility.yul\":17116:17176   */\n    tag_544:\n        /* \"#utility.yul\":17066:17182   */\n      pop\n      jump\t// out\n        /* \"#utility.yul\":17188:17325   */\n    tag_348:\n        /* \"#utility.yul\":17242:17247   */\n      0x00\n        /* \"#utility.yul\":17273:17279   */\n      dup2\n        /* \"#utility.yul\":17267:17280   */\n      mload\n        /* \"#utility.yul\":17258:17280   */\n      swap1\n      pop\n        /* \"#utility.yul\":17289:17319   */\n      tag_546\n        /* \"#utility.yul\":17313:17318   */\n      dup2\n        /* \"#utility.yul\":17289:17319   */\n      tag_347\n      jump\t// in\n    tag_546:\n        /* \"#utility.yul\":17188:17325   */\n      swap3\n      swap2\n      pop\n      pop\n      jump\t// out\n        /* \"#utility.yul\":17331:17676   */\n    tag_150:\n        /* \"#utility.yul\":17398:17404   */\n      0x00\n        /* \"#utility.yul\":17447:17449   */\n      0x20\n        /* \"#utility.yul\":17435:17444   */\n      dup3\n        /* \"#utility.yul\":17426:17433   */\n      dup5\n        /* \"#utility.yul\":17422:17445   */\n      sub\n        /* \"#utility.yul\":17418:17450   */\n      slt\n        /* \"#utility.yul\":17415:17534   */\n      iszero\n      tag_548\n      jumpi\n        /* \"#utility.yul\":17453:17532   */\n      tag_549\n      tag_305\n      jump\t// in\n    tag_549:\n        /* \"#utility.yul\":17415:17534   */\n    tag_548:\n        /* \"#utility.yul\":17573:17574   */\n      0x00\n        /* \"#utility.yul\":17598:17659   */\n      tag_550\n        /* \"#utility.yul\":17651:17658   */\n      dup5\n        /* \"#utility.yul\":17642:17648   */\n      dup3\n        /* \"#utility.yul\":17631:17640   */\n      dup6\n        /* \"#utility.yul\":17627:17649   */\n      add\n        /* \"#utility.yul\":17598:17659   */\n      tag_348\n      jump\t// in\n    tag_550:\n        /* \"#utility.yul\":17588:17659   */\n      swap2\n      pop\n        /* \"#utility.yul\":17544:17669   */\n      pop\n        /* \"#utility.yul\":17331:17676   */\n      swap3\n      swap2\n      pop\n      pop\n      jump\t// out\n        /* \"#utility.yul\":17682:17850   */\n    tag_349:\n        /* \"#utility.yul\":17822:17842   */\n      0x55454e20646f6573206e6f742065786973740000000000000000000000000000\n        /* \"#utility.yul\":17818:17819   */\n      0x00\n        /* \"#utility.yul\":17810:17816   */\n      dup3\n        /* \"#utility.yul\":17806:17820   */\n      add\n        /* \"#utility.yul\":17799:17843   */\n      mstore\n        /* \"#utility.yul\":17682:17850   */\n      pop\n      jump\t// out\n        /* \"#utility.yul\":17856:18222   */\n    tag_350:\n        /* \"#utility.yul\":17998:18001   */\n      0x00\n        /* \"#utility.yul\":18019:18086   */\n      tag_553\n        /* \"#utility.yul\":18083:18085   */\n      0x12\n        /* \"#utility.yul\":18078:18081   */\n      dup4\n        /* \"#utility.yul\":18019:18086   */\n      tag_300\n      jump\t// in\n    tag_553:\n        /* \"#utility.yul\":18012:18086   */\n      swap2\n      pop\n        /* \"#utility.yul\":18095:18188   */\n      tag_554\n        /* \"#utility.yul\":18184:18187   */\n      dup3\n        /* \"#utility.yul\":18095:18188   */\n      tag_349\n      jump\t// in\n    tag_554:\n        /* \"#utility.yul\":18213:18215   */\n      0x20\n        /* \"#utility.yul\":18208:18211   */\n      dup3\n        /* \"#utility.yul\":18204:18216   */\n      add\n        /* \"#utility.yul\":18197:18216   */\n      swap1\n      pop\n        /* \"#utility.yul\":17856:18222   */\n      swap2\n      swap1\n      pop\n      jump\t// out\n        /* \"#utility.yul\":18228:18647   */\n    tag_159:\n        /* \"#utility.yul\":18394:18398   */\n      0x00\n        /* \"#utility.yul\":18432:18434   */\n      0x20\n        /* \"#utility.yul\":18421:18430   */\n      dup3\n        /* \"#utility.yul\":18417:18435   */\n      add\n        /* \"#utility.yul\":18409:18435   */\n      swap1\n      pop\n        /* \"#utility.yul\":18481:18490   */\n      dup2\n        /* \"#utility.yul\":18475:18479   */\n      dup2\n        /* \"#utility.yul\":18471:18491   */\n      sub\n        /* \"#utility.yul\":18467:18468   */\n      0x00\n        /* \"#utility.yul\":18456:18465   */\n      dup4\n        /* \"#utility.yul\":18452:18469   */\n      add\n        /* \"#utility.yul\":18445:18492   */\n      mstore\n        /* \"#utility.yul\":18509:18640   */\n      tag_556\n        /* \"#utility.yul\":18635:18639   */\n      dup2\n        /* \"#utility.yul\":18509:18640   */\n      tag_350\n      jump\t// in\n    tag_556:\n        /* \"#utility.yul\":18501:18640   */\n      swap1\n      pop\n        /* \"#utility.yul\":18228:18647   */\n      swap2\n      swap1\n      pop\n      jump\t// out\n        /* \"#utility.yul\":18653:18822   */\n    tag_351:\n        /* \"#utility.yul\":18793:18814   */\n      0x55454e2074617267657420697320656d70747900000000000000000000000000\n        /* \"#utility.yul\":18789:18790   */\n      0x00\n        /* \"#utility.yul\":18781:18787   */\n      dup3\n        /* \"#utility.yul\":18777:18791   */\n      add\n        /* \"#utility.yul\":18770:18815   */\n      mstore\n        /* \"#utility.yul\":18653:18822   */\n      pop\n      jump\t// out\n        /* \"#utility.yul\":18828:19194   */\n    tag_352:\n        /* \"#utility.yul\":18970:18973   */\n      0x00\n        /* \"#utility.yul\":18991:19058   */\n      tag_559\n        /* \"#utility.yul\":19055:19057   */\n      0x13\n        /* \"#utility.yul\":19050:19053   */\n      dup4\n        /* \"#utility.yul\":18991:19058   */\n      tag_300\n      jump\t// in\n    tag_559:\n        /* \"#utility.yul\":18984:19058   */\n      swap2\n      pop\n        /* \"#utility.yul\":19067:19160   */\n      tag_560\n        /* \"#utility.yul\":19156:19159   */\n      dup3\n        /* \"#utility.yul\":19067:19160   */\n      tag_351\n      jump\t// in\n    tag_560:\n        /* \"#utility.yul\":19185:19187   */\n      0x20\n        /* \"#utility.yul\":19180:19183   */\n      dup3\n        /* \"#utility.yul\":19176:19188   */\n      add\n        /* \"#utility.yul\":19169:19188   */\n      swap1\n      pop\n        /* \"#utility.yul\":18828:19194   */\n      swap2\n      swap1\n      pop\n      jump\t// out\n        /* \"#utility.yul\":19200:19619   */\n    tag_163:\n        /* \"#utility.yul\":19366:19370   */\n      0x00\n        /* \"#utility.yul\":19404:19406   */\n      0x20\n        /* \"#utility.yul\":19393:19402   */\n      dup3\n        /* \"#utility.yul\":19389:19407   */\n      add\n        /* \"#utility.yul\":19381:19407   */\n      swap1\n      pop\n        /* \"#utility.yul\":19453:19462   */\n      dup2\n        /* \"#utility.yul\":19447:19451   */\n      dup2\n        /* \"#utility.yul\":19443:19463   */\n      sub\n        /* \"#utility.yul\":19439:19440   */\n      0x00\n        /* \"#utility.yul\":19428:19437   */\n      dup4\n        /* \"#utility.yul\":19424:19441   */\n      add\n        /* \"#utility.yul\":19417:19464   */\n      mstore\n        /* \"#utility.yul\":19481:19612   */\n      tag_562\n        /* \"#utility.yul\":19607:19611   */\n      dup2\n        /* \"#utility.yul\":19481:19612   */\n      tag_352\n      jump\t// in\n    tag_562:\n        /* \"#utility.yul\":19473:19612   */\n      swap1\n      pop\n        /* \"#utility.yul\":19200:19619   */\n      swap2\n      swap1\n      pop\n      jump\t// out\n        /* \"#utility.yul\":19625:19816   */\n    tag_174:\n        /* \"#utility.yul\":19665:19668   */\n      0x00\n        /* \"#utility.yul\":19684:19704   */\n      tag_564\n        /* \"#utility.yul\":19702:19703   */\n      dup3\n        /* \"#utility.yul\":19684:19704   */\n      tag_311\n      jump\t// in\n    tag_564:\n        /* \"#utility.yul\":19679:19704   */\n      swap2\n      pop\n        /* \"#utility.yul\":19718:19738   */\n      tag_565\n        /* \"#utility.yul\":19736:19737   */\n      dup4\n        /* \"#utility.yul\":19718:19738   */\n      tag_311\n      jump\t// in\n    tag_565:\n        /* \"#utility.yul\":19713:19738   */\n      swap3\n      pop\n        /* \"#utility.yul\":19761:19762   */\n      dup3\n        /* \"#utility.yul\":19758:19759   */\n      dup3\n        /* \"#utility.yul\":19754:19763   */\n      add\n        /* \"#utility.yul\":19747:19763   */\n      swap1\n      pop\n        /* \"#utility.yul\":19782:19785   */\n      dup1\n        /* \"#utility.yul\":19779:19780   */\n      dup3\n        /* \"#utility.yul\":19776:19786   */\n      gt\n        /* \"#utility.yul\":19773:19809   */\n      iszero\n      tag_566\n      jumpi\n        /* \"#utility.yul\":19789:19807   */\n      tag_567\n      tag_346\n      jump\t// in\n    tag_567:\n        /* \"#utility.yul\":19773:19809   */\n    tag_566:\n        /* \"#utility.yul\":19625:19816   */\n      swap3\n      swap2\n      pop\n      pop\n      jump\t// out\n        /* \"#utility.yul\":19822:19965   */\n    tag_353:\n        /* \"#utility.yul\":19879:19884   */\n      0x00\n        /* \"#utility.yul\":19910:19916   */\n      dup2\n        /* \"#utility.yul\":19904:19917   */\n      mload\n        /* \"#utility.yul\":19895:19917   */\n      swap1\n      pop\n        /* \"#utility.yul\":19926:19959   */\n      tag_569\n        /* \"#utility.yul\":19953:19958   */\n      dup2\n        /* \"#utility.yul\":19926:19959   */\n      tag_309\n      jump\t// in\n    tag_569:\n        /* \"#utility.yul\":19822:19965   */\n      swap3\n      swap2\n      pop\n      pop\n      jump\t// out\n        /* \"#utility.yul\":19971:20322   */\n    tag_179:\n        /* \"#utility.yul\":20041:20047   */\n      0x00\n        /* \"#utility.yul\":20090:20092   */\n      0x20\n        /* \"#utility.yul\":20078:20087   */\n      dup3\n        /* \"#utility.yul\":20069:20076   */\n      dup5\n        /* \"#utility.yul\":20065:20088   */\n      sub\n        /* \"#utility.yul\":20061:20093   */\n      slt\n        /* \"#utility.yul\":20058:20177   */\n      iszero\n      tag_571\n      jumpi\n        /* \"#utility.yul\":20096:20175   */\n      tag_572\n      tag_305\n      jump\t// in\n    tag_572:\n        /* \"#utility.yul\":20058:20177   */\n    tag_571:\n        /* \"#utility.yul\":20216:20217   */\n      0x00\n        /* \"#utility.yul\":20241:20305   */\n      tag_573\n        /* \"#utility.yul\":20297:20304   */\n      dup5\n        /* \"#utility.yul\":20288:20294   */\n      dup3\n        /* \"#utility.yul\":20277:20286   */\n      dup6\n        /* \"#utility.yul\":20273:20295   */\n      add\n        /* \"#utility.yul\":20241:20305   */\n      tag_353\n      jump\t// in\n    tag_573:\n        /* \"#utility.yul\":20231:20305   */\n      swap2\n      pop\n        /* \"#utility.yul\":20187:20315   */\n      pop\n        /* \"#utility.yul\":19971:20322   */\n      swap3\n      swap2\n      pop\n      pop\n      jump\t// out\n        /* \"#utility.yul\":20328:20490   */\n    tag_354:\n        /* \"#utility.yul\":20468:20482   */\n      0x55454e20697320656d7074790000000000000000000000000000000000000000\n        /* \"#utility.yul\":20464:20465   */\n      0x00\n        /* \"#utility.yul\":20456:20462   */\n      dup3\n        /* \"#utility.yul\":20452:20466   */\n      add\n        /* \"#utility.yul\":20445:20483   */\n      mstore\n        /* \"#utility.yul\":20328:20490   */\n      pop\n      jump\t// out\n        /* \"#utility.yul\":20496:20862   */\n    tag_355:\n        /* \"#utility.yul\":20638:20641   */\n      0x00\n        /* \"#utility.yul\":20659:20726   */\n      tag_576\n        /* \"#utility.yul\":20723:20725   */\n      0x0c\n        /* \"#utility.yul\":20718:20721   */\n      dup4\n        /* \"#utility.yul\":20659:20726   */\n      tag_300\n      jump\t// in\n    tag_576:\n        /* \"#utility.yul\":20652:20726   */\n      swap2\n      pop\n        /* \"#utility.yul\":20735:20828   */\n      tag_577\n        /* \"#utility.yul\":20824:20827   */\n      dup3\n        /* \"#utility.yul\":20735:20828   */\n      tag_354\n      jump\t// in\n    tag_577:\n        /* \"#utility.yul\":20853:20855   */\n      0x20\n        /* \"#utility.yul\":20848:20851   */\n      dup3\n        /* \"#utility.yul\":20844:20856   */\n      add\n        /* \"#utility.yul\":20837:20856   */\n      swap1\n      pop\n        /* \"#utility.yul\":20496:20862   */\n      swap2\n      swap1\n      pop\n      jump\t// out\n        /* \"#utility.yul\":20868:21287   */\n    tag_192:\n        /* \"#utility.yul\":21034:21038   */\n      0x00\n        /* \"#utility.yul\":21072:21074   */\n      0x20\n        /* \"#utility.yul\":21061:21070   */\n      dup3\n        /* \"#utility.yul\":21057:21075   */\n      add\n        /* \"#utility.yul\":21049:21075   */\n      swap1\n      pop\n        /* \"#utility.yul\":21121:21130   */\n      dup2\n        /* \"#utility.yul\":21115:21119   */\n      dup2\n        /* \"#utility.yul\":21111:21131   */\n      sub\n        /* \"#utility.yul\":21107:21108   */\n      0x00\n        /* \"#utility.yul\":21096:21105   */\n      dup4\n        /* \"#utility.yul\":21092:21109   */\n      add\n        /* \"#utility.yul\":21085:21132   */\n      mstore\n        /* \"#utility.yul\":21149:21280   */\n      tag_579\n        /* \"#utility.yul\":21275:21279   */\n      dup2\n        /* \"#utility.yul\":21149:21280   */\n      tag_355\n      jump\t// in\n    tag_579:\n        /* \"#utility.yul\":21141:21280   */\n      swap1\n      pop\n        /* \"#utility.yul\":20868:21287   */\n      swap2\n      swap1\n      pop\n      jump\t// out\n        /* \"#utility.yul\":21293:21625   */\n    tag_194:\n        /* \"#utility.yul\":21414:21418   */\n      0x00\n        /* \"#utility.yul\":21452:21454   */\n      0x40\n        /* \"#utility.yul\":21441:21450   */\n      dup3\n        /* \"#utility.yul\":21437:21455   */\n      add\n        /* \"#utility.yul\":21429:21455   */\n      swap1\n      pop\n        /* \"#utility.yul\":21465:21536   */\n      tag_581\n        /* \"#utility.yul\":21533:21534   */\n      0x00\n        /* \"#utility.yul\":21522:21531   */\n      dup4\n        /* \"#utility.yul\":21518:21535   */\n      add\n        /* \"#utility.yul\":21509:21515   */\n      dup6\n        /* \"#utility.yul\":21465:21536   */\n      tag_333\n      jump\t// in\n    tag_581:\n        /* \"#utility.yul\":21546:21618   */\n      tag_582\n        /* \"#utility.yul\":21614:21616   */\n      0x20\n        /* \"#utility.yul\":21603:21612   */\n      dup4\n        /* \"#utility.yul\":21599:21617   */\n      add\n        /* \"#utility.yul\":21590:21596   */\n      dup5\n        /* \"#utility.yul\":21546:21618   */\n      tag_333\n      jump\t// in\n    tag_582:\n        /* \"#utility.yul\":21293:21625   */\n      swap4\n      swap3\n      pop\n      pop\n      pop\n      jump\t// out\n        /* \"#utility.yul\":21631:21803   */\n    tag_356:\n        /* \"#utility.yul\":21771:21795   */\n      0x496e6372656173652074686520616c6c6f77616e636500000000000000000000\n        /* \"#utility.yul\":21767:21768   */\n      0x00\n        /* \"#utility.yul\":21759:21765   */\n      dup3\n        /* \"#utility.yul\":21755:21769   */\n      add\n        /* \"#utility.yul\":21748:21796   */\n      mstore\n        /* \"#utility.yul\":21631:21803   */\n      pop\n      jump\t// out\n        /* \"#utility.yul\":21809:22175   */\n    tag_357:\n        /* \"#utility.yul\":21951:21954   */\n      0x00\n        /* \"#utility.yul\":21972:22039   */\n      tag_585\n        /* \"#utility.yul\":22036:22038   */\n      0x16\n        /* \"#utility.yul\":22031:22034   */\n      dup4\n        /* \"#utility.yul\":21972:22039   */\n      tag_300\n      jump\t// in\n    tag_585:\n        /* \"#utility.yul\":21965:22039   */\n      swap2\n      pop\n        /* \"#utility.yul\":22048:22141   */\n      tag_586\n        /* \"#utility.yul\":22137:22140   */\n      dup3\n        /* \"#utility.yul\":22048:22141   */\n      tag_356\n      jump\t// in\n    tag_586:\n        /* \"#utility.yul\":22166:22168   */\n      0x20\n        /* \"#utility.yul\":22161:22164   */\n      dup3\n        /* \"#utility.yul\":22157:22169   */\n      add\n        /* \"#utility.yul\":22150:22169   */\n      swap1\n      pop\n        /* \"#utility.yul\":21809:22175   */\n      swap2\n      swap1\n      pop\n      jump\t// out\n        /* \"#utility.yul\":22181:22600   */\n    tag_200:\n        /* \"#utility.yul\":22347:22351   */\n      0x00\n        /* \"#utility.yul\":22385:22387   */\n      0x20\n        /* \"#utility.yul\":22374:22383   */\n      dup3\n        /* \"#utility.yul\":22370:22388   */\n      add\n        /* \"#utility.yul\":22362:22388   */\n      swap1\n      pop\n        /* \"#utility.yul\":22434:22443   */\n      dup2\n        /* \"#utility.yul\":22428:22432   */\n      dup2\n        /* \"#utility.yul\":22424:22444   */\n      sub\n        /* \"#utility.yul\":22420:22421   */\n      0x00\n        /* \"#utility.yul\":22409:22418   */\n      dup4\n        /* \"#utility.yul\":22405:22422   */\n      add\n        /* \"#utility.yul\":22398:22445   */\n      mstore\n        /* \"#utility.yul\":22462:22593   */\n      tag_588\n        /* \"#utility.yul\":22588:22592   */\n      dup2\n        /* \"#utility.yul\":22462:22593   */\n      tag_357\n      jump\t// in\n    tag_588:\n        /* \"#utility.yul\":22454:22593   */\n      swap1\n      pop\n        /* \"#utility.yul\":22181:22600   */\n      swap2\n      swap1\n      pop\n      jump\t// out\n        /* \"#utility.yul\":22606:23048   */\n    tag_202:\n        /* \"#utility.yul\":22755:22759   */\n      0x00\n        /* \"#utility.yul\":22793:22795   */\n      0x60\n        /* \"#utility.yul\":22782:22791   */\n      dup3\n        /* \"#utility.yul\":22778:22796   */\n      add\n        /* \"#utility.yul\":22770:22796   */\n      swap1\n      pop\n        /* \"#utility.yul\":22806:22877   */\n      tag_590\n        /* \"#utility.yul\":22874:22875   */\n      0x00\n        /* \"#utility.yul\":22863:22872   */\n      dup4\n        /* \"#utility.yul\":22859:22876   */\n      add\n        /* \"#utility.yul\":22850:22856   */\n      dup7\n        /* \"#utility.yul\":22806:22877   */\n      tag_333\n      jump\t// in\n    tag_590:\n        /* \"#utility.yul\":22887:22959   */\n      tag_591\n        /* \"#utility.yul\":22955:22957   */\n      0x20\n        /* \"#utility.yul\":22944:22953   */\n      dup4\n        /* \"#utility.yul\":22940:22958   */\n      add\n        /* \"#utility.yul\":22931:22937   */\n      dup6\n        /* \"#utility.yul\":22887:22959   */\n      tag_333\n      jump\t// in\n    tag_591:\n        /* \"#utility.yul\":22969:23041   */\n      tag_592\n        /* \"#utility.yul\":23037:23039   */\n      0x40\n        /* \"#utility.yul\":23026:23035   */\n      dup4\n        /* \"#utility.yul\":23022:23040   */\n      add\n        /* \"#utility.yul\":23013:23019   */\n      dup5\n        /* \"#utility.yul\":22969:23041   */\n      tag_316\n      jump\t// in\n    tag_592:\n        /* \"#utility.yul\":22606:23048   */\n      swap5\n      swap4\n      pop\n      pop\n      pop\n      pop\n      jump\t// out\n        /* \"#utility.yul\":23054:23232   */\n    tag_358:\n        /* \"#utility.yul\":23194:23224   */\n      0x576974686472617720746f20746865207a65726f206164647265737300000000\n        /* \"#utility.yul\":23190:23191   */\n      0x00\n        /* \"#utility.yul\":23182:23188   */\n      dup3\n        /* \"#utility.yul\":23178:23192   */\n      add\n        /* \"#utility.yul\":23171:23225   */\n      mstore\n        /* \"#utility.yul\":23054:23232   */\n      pop\n      jump\t// out\n        /* \"#utility.yul\":23238:23604   */\n    tag_359:\n        /* \"#utility.yul\":23380:23383   */\n      0x00\n        /* \"#utility.yul\":23401:23468   */\n      tag_595\n        /* \"#utility.yul\":23465:23467   */\n      0x1c\n        /* \"#utility.yul\":23460:23463   */\n      dup4\n        /* \"#utility.yul\":23401:23468   */\n      tag_300\n      jump\t// in\n    tag_595:\n        /* \"#utility.yul\":23394:23468   */\n      swap2\n      pop\n        /* \"#utility.yul\":23477:23570   */\n      tag_596\n        /* \"#utility.yul\":23566:23569   */\n      dup3\n        /* \"#utility.yul\":23477:23570   */\n      tag_358\n      jump\t// in\n    tag_596:\n        /* \"#utility.yul\":23595:23597   */\n      0x20\n        /* \"#utility.yul\":23590:23593   */\n      dup3\n        /* \"#utility.yul\":23586:23598   */\n      add\n        /* \"#utility.yul\":23579:23598   */\n      swap1\n      pop\n        /* \"#utility.yul\":23238:23604   */\n      swap2\n      swap1\n      pop\n      jump\t// out\n        /* \"#utility.yul\":23610:24029   */\n    tag_279:\n        /* \"#utility.yul\":23776:23780   */\n      0x00\n        /* \"#utility.yul\":23814:23816   */\n      0x20\n        /* \"#utility.yul\":23803:23812   */\n      dup3\n        /* \"#utility.yul\":23799:23817   */\n      add\n        /* \"#utility.yul\":23791:23817   */\n      swap1\n      pop\n        /* \"#utility.yul\":23863:23872   */\n      dup2\n        /* \"#utility.yul\":23857:23861   */\n      dup2\n        /* \"#utility.yul\":23853:23873   */\n      sub\n        /* \"#utility.yul\":23849:23850   */\n      0x00\n        /* \"#utility.yul\":23838:23847   */\n      dup4\n        /* \"#utility.yul\":23834:23851   */\n      add\n        /* \"#utility.yul\":23827:23874   */\n      mstore\n        /* \"#utility.yul\":23891:24022   */\n      tag_598\n        /* \"#utility.yul\":24017:24021   */\n      dup2\n        /* \"#utility.yul\":23891:24022   */\n      tag_359\n      jump\t// in\n    tag_598:\n        /* \"#utility.yul\":23883:24022   */\n      swap1\n      pop\n        /* \"#utility.yul\":23610:24029   */\n      swap2\n      swap1\n      pop\n      jump\t// out\n\n    auxdata: 0xa2646970667358221220c7837f34154efbc498ff29b1ddb97b2ff9c73ebaffa7c47d1857eda7822541a164736f6c63430008160033\n}\n",
				"bytecode": {
					"linkReferences": {},
					"object": "608060405234801562000010575f80fd5b5060405162002e0238038062002e02833981810160405281019062000036919062000340565b816040518060400160405280600481526020017f5347446d000000000000000000000000000000000000000000000000000000008152506040518060400160405280600481526020017f5347446d000000000000000000000000000000000000000000000000000000008152508160039081620000b4919062000613565b508060049081620000c6919062000613565b5050505f73ffffffffffffffffffffffffffffffffffffffff168173ffffffffffffffffffffffffffffffffffffffff16036200013c575f6040517f1e4fbdf700000000000000000000000000000000000000000000000000000000815260040162000133919062000708565b60405180910390fd5b6200014d816200021860201b60201c565b508360065f6101000a81548173ffffffffffffffffffffffffffffffffffffffff021916908373ffffffffffffffffffffffffffffffffffffffff1602179055508260085f6101000a81548173ffffffffffffffffffffffffffffffffffffffff021916908373ffffffffffffffffffffffffffffffffffffffff1602179055508060095f6101000a81548173ffffffffffffffffffffffffffffffffffffffff021916908373ffffffffffffffffffffffffffffffffffffffff1602179055505050505062000723565b5f60055f9054906101000a900473ffffffffffffffffffffffffffffffffffffffff1690508160055f6101000a81548173ffffffffffffffffffffffffffffffffffffffff021916908373ffffffffffffffffffffffffffffffffffffffff1602179055508173ffffffffffffffffffffffffffffffffffffffff168173ffffffffffffffffffffffffffffffffffffffff167f8be0079c531659141344cd1fd0a4f28419497f9722a3daafe3b4186f6b6457e060405160405180910390a35050565b5f80fd5b5f73ffffffffffffffffffffffffffffffffffffffff82169050919050565b5f6200030a82620002df565b9050919050565b6200031c81620002fe565b811462000327575f80fd5b50565b5f815190506200033a8162000311565b92915050565b5f805f80608085870312156200035b576200035a620002db565b5b5f6200036a878288016200032a565b94505060206200037d878288016200032a565b935050604062000390878288016200032a565b9250506060620003a3878288016200032a565b91505092959194509250565b5f81519050919050565b7f4e487b71000000000000000000000000000000000000000000000000000000005f52604160045260245ffd5b7f4e487b71000000000000000000000000000000000000000000000000000000005f52602260045260245ffd5b5f60028204905060018216806200042b57607f821691505b602082108103620004415762000440620003e6565b5b50919050565b5f819050815f5260205f209050919050565b5f6020601f8301049050919050565b5f82821b905092915050565b5f60088302620004a57fffffffffffffffffffffffffffffffffffffffffffffffffffffffffffffffff8262000468565b620004b1868362000468565b95508019841693508086168417925050509392505050565b5f819050919050565b5f819050919050565b5f620004fb620004f5620004ef84620004c9565b620004d2565b620004c9565b9050919050565b5f819050919050565b6200051683620004db565b6200052e620005258262000502565b84845462000474565b825550505050565b5f90565b6200054462000536565b620005518184846200050b565b505050565b5b8181101562000578576200056c5f826200053a565b60018101905062000557565b5050565b601f821115620005c757620005918162000447565b6200059c8462000459565b81016020851015620005ac578190505b620005c4620005bb8562000459565b83018262000556565b50505b505050565b5f82821c905092915050565b5f620005e95f1984600802620005cc565b1980831691505092915050565b5f620006038383620005d8565b9150826002028217905092915050565b6200061e82620003af565b67ffffffffffffffff8111156200063a5762000639620003b9565b5b62000646825462000413565b620006538282856200057c565b5f60209050601f83116001811462000689575f841562000674578287015190505b620006808582620005f6565b865550620006ef565b601f198416620006998662000447565b5f5b82811015620006c2578489015182556001820191506020850194506020810190506200069b565b86831015620006e25784890151620006de601f891682620005d8565b8355505b6001600288020188555050505b505050505050565b6200070281620002fe565b82525050565b5f6020820190506200071d5f830184620006f7565b92915050565b6126d180620007315f395ff3fe608060405234801561000f575f80fd5b5060043610610135575f3560e01c80638c8e8fee116100b6578063a8f5d7a61161007a578063a8f5d7a614610353578063a9059cbb14610383578063dd62ed3e146103b3578063f22fbdd7146103e3578063f2fde38b14610413578063fa863d301461042f57610135565b80638c8e8fee146102ab5780638da5cb5b146102c957806390f31f3b146102e757806395d89b4114610317578063a3e5b0b21461033557610135565b8063327107f7116100fd578063327107f7146101f3578063332656fd146102115780635ab16b261461024157806370a0823114610271578063715018a6146102a157610135565b806306fdde0314610139578063095ea7b31461015757806318160ddd1461018757806323b872dd146101a5578063313ce567146101d5575b5f80fd5b61014161045f565b60405161014e9190611b63565b60405180910390f35b610171600480360381019061016c9190611c21565b6104ef565b60405161017e9190611c79565b60405180910390f35b61018f61052b565b60405161019c9190611ca1565b60405180910390f35b6101bf60048036038101906101ba9190611cba565b6105bf565b6040516101cc9190611c79565b60405180910390f35b6101dd610875565b6040516101ea9190611d25565b60405180910390f35b6101fb61087d565b6040516102089190611d99565b60405180910390f35b61022b60048036038101906102269190611ede565b6108a2565b6040516102389190611c79565b60405180910390f35b61025b60048036038101906102569190611ede565b610c3e565b6040516102689190611c79565b60405180910390f35b61028b60048036038101906102869190611f38565b611057565b6040516102989190611ca1565b60405180910390f35b6102a961111e565b005b6102b3611131565b6040516102c09190611f72565b60405180910390f35b6102d1611159565b6040516102de9190611f72565b60405180910390f35b61030160048036038101906102fc9190611f8b565b611181565b60405161030e9190611ca1565b60405180910390f35b61031f6111a8565b60405161032c9190611b63565b60405180910390f35b61033d611238565b60405161034a9190611b63565b60405180910390f35b61036d60048036038101906103689190611f8b565b6112db565b60405161037a9190611b63565b60405180910390f35b61039d60048036038101906103989190611c21565b611380565b6040516103aa9190611c79565b60405180910390f35b6103cd60048036038101906103c89190611fd2565b611635565b6040516103da9190611ca1565b60405180910390f35b6103fd60048036038101906103f89190611f8b565b6116d9565b60405161040a9190611ca1565b60405180910390f35b61042d60048036038101906104289190611f38565b611706565b005b61044960048036038101906104449190611c21565b61178a565b6040516104569190611c79565b60405180910390f35b60606003805461046e9061203d565b80601f016020809104026020016040519081016040528092919081815260200182805461049a9061203d565b80156104e55780601f106104bc576101008083540402835291602001916104e5565b820191905f5260205f20905b8154815290600101906020018083116104c857829003601f168201915b5050505050905090565b5f6040517f08c379a0000000000000000000000000000000000000000000000000000000008152600401610522906120b7565b60405180910390fd5b5f60065f9054906101000a900473ffffffffffffffffffffffffffffffffffffffff1673ffffffffffffffffffffffffffffffffffffffff166318160ddd6040518163ffffffff1660e01b8152600401602060405180830381865afa158015610596573d5f803e3d5ffd5b505050506040513d601f19601f820116820180604052508101906105ba91906120e9565b905090565b5f8073ffffffffffffffffffffffffffffffffffffffff168373ffffffffffffffffffffffffffffffffffffffff160361062e576040517f08c379a00000000000000000000000000000000000000000000000000000000081526004016106259061215e565b60405180910390fd5b5f60095f9054906101000a900473ffffffffffffffffffffffffffffffffffffffff1673ffffffffffffffffffffffffffffffffffffffff166358581383866040518263ffffffff1660e01b81526004016106899190611f72565b5f60405180830381865afa1580156106a3573d5f803e3d5ffd5b505050506040513d5f823e3d601f19601f820116820180604052508101906106cb91906121ea565b90505f6007826040516106de919061226b565b908152602001604051809103902054905083811015610732576040517f08c379a0000000000000000000000000000000000000000000000000000000008152600401610729906122cb565b60405180910390fd5b83600783604051610743919061226b565b90815260200160405180910390205f82825461075f9190612316565b925050819055508473ffffffffffffffffffffffffffffffffffffffff168673ffffffffffffffffffffffffffffffffffffffff167fddf252ad1be2c89b69c2b068fc378daa952ba7f163c4a11628f55a4df523b3ef866040516107c39190611ca1565b60405180910390a360065f9054906101000a900473ffffffffffffffffffffffffffffffffffffffff1673ffffffffffffffffffffffffffffffffffffffff1663a9059cbb86866040518363ffffffff1660e01b8152600401610827929190612349565b6020604051808303815f875af1158015610843573d5f803e3d5ffd5b505050506040513d601f19601f82011682018060405250810190610867919061239a565b506001925050509392505050565b5f6006905090565b60065f9054906101000a900473ffffffffffffffffffffffffffffffffffffffff1681565b5f825f60085f9054906101000a900473ffffffffffffffffffffffffffffffffffffffff1673ffffffffffffffffffffffffffffffffffffffff1663a8f5d7a6836040518263ffffffff1660e01b81526004016108ff9190611b63565b5f60405180830381865afa158015610919573d5f803e3d5ffd5b505050506040513d5f823e3d601f19601f8201168201806040525081019061094191906121ea565b5111610982576040517f08c379a00000000000000000000000000000000000000000000000000000000081526004016109799061240f565b60405180910390fd5b5f8451116109c5576040517f08c379a00000000000000000000000000000000000000000000000000000000081526004016109bc90612477565b60405180910390fd5b5f60095f9054906101000a900473ffffffffffffffffffffffffffffffffffffffff1673ffffffffffffffffffffffffffffffffffffffff166358581383336040518263ffffffff1660e01b8152600401610a209190611f72565b5f60405180830381865afa158015610a3a573d5f803e3d5ffd5b505050506040513d5f823e3d601f19601f82011682018060405250810190610a6291906121ea565b905083600782604051610a75919061226b565b9081526020016040518091039020541015610a93575f925050610c37565b83600782604051610aa4919061226b565b90815260200160405180910390205f828254610ac09190612316565b9250508190555083600786604051610ad8919061226b565b90815260200160405180910390205f828254610af49190612495565b925050819055505f60095f9054906101000a900473ffffffffffffffffffffffffffffffffffffffff1673ffffffffffffffffffffffffffffffffffffffff1663a9b295e3876040518263ffffffff1660e01b8152600401610b569190611b63565b602060405180830381865afa158015610b71573d5f803e3d5ffd5b505050506040513d601f19601f82011682018060405250810190610b9591906124dc565b90505f73ffffffffffffffffffffffffffffffffffffffff168173ffffffffffffffffffffffffffffffffffffffff1614610c30578073ffffffffffffffffffffffffffffffffffffffff163373ffffffffffffffffffffffffffffffffffffffff167fddf252ad1be2c89b69c2b068fc378daa952ba7f163c4a11628f55a4df523b3ef87604051610c279190611ca1565b60405180910390a35b6001935050505b5092915050565b5f825f60085f9054906101000a900473ffffffffffffffffffffffffffffffffffffffff1673ffffffffffffffffffffffffffffffffffffffff1663a8f5d7a6836040518263ffffffff1660e01b8152600401610c9b9190611b63565b5f60405180830381865afa158015610cb5573d5f803e3d5ffd5b505050506040513d5f823e3d601f19601f82011682018060405250810190610cdd91906121ea565b5111610d1e576040517f08c379a0000000000000000000000000000000000000000000000000000000008152600401610d159061240f565b60405180910390fd5b5f845111610d61576040517f08c379a0000000000000000000000000000000000000000000000000000000008152600401610d5890612551565b60405180910390fd5b5f60065f9054906101000a900473ffffffffffffffffffffffffffffffffffffffff1673ffffffffffffffffffffffffffffffffffffffff1663dd62ed3e33306040518363ffffffff1660e01b8152600401610dbe92919061256f565b602060405180830381865afa158015610dd9573d5f803e3d5ffd5b505050506040513d601f19601f82011682018060405250810190610dfd91906120e9565b905083811015610e42576040517f08c379a0000000000000000000000000000000000000000000000000000000008152600401610e39906125e0565b60405180910390fd5b60065f9054906101000a900473ffffffffffffffffffffffffffffffffffffffff1673ffffffffffffffffffffffffffffffffffffffff166323b872dd3330876040518463ffffffff1660e01b8152600401610ea0939291906125fe565b6020604051808303815f875af1158015610ebc573d5f803e3d5ffd5b505050506040513d601f19601f82011682018060405250810190610ee0919061239a565b5083600786604051610ef2919061226b565b90815260200160405180910390205f828254610f0e9190612495565b925050819055505f60095f9054906101000a900473ffffffffffffffffffffffffffffffffffffffff1673ffffffffffffffffffffffffffffffffffffffff1663a9b295e3876040518263ffffffff1660e01b8152600401610f709190611b63565b602060405180830381865afa158015610f8b573d5f803e3d5ffd5b505050506040513d601f19601f82011682018060405250810190610faf91906124dc565b90505f73ffffffffffffffffffffffffffffffffffffffff168173ffffffffffffffffffffffffffffffffffffffff161461104a578073ffffffffffffffffffffffffffffffffffffffff163373ffffffffffffffffffffffffffffffffffffffff167fddf252ad1be2c89b69c2b068fc378daa952ba7f163c4a11628f55a4df523b3ef876040516110419190611ca1565b60405180910390a35b6001935050505092915050565b5f8060095f9054906101000a900473ffffffffffffffffffffffffffffffffffffffff1673ffffffffffffffffffffffffffffffffffffffff166358581383846040518263ffffffff1660e01b81526004016110b39190611f72565b5f60405180830381865afa1580156110cd573d5f803e3d5ffd5b505050506040513d5f823e3d601f19601f820116820180604052508101906110f591906121ea565b9050600781604051611107919061226b565b908152602001604051809103902054915050919050565b611126611988565b61112f5f611a0f565b565b5f60065f9054906101000a900473ffffffffffffffffffffffffffffffffffffffff16905090565b5f60055f9054906101000a900473ffffffffffffffffffffffffffffffffffffffff16905090565b5f600782604051611192919061226b565b9081526020016040518091039020549050919050565b6060600480546111b79061203d565b80601f01602080910402602001604051908101604052809291908181526020018280546111e39061203d565b801561122e5780601f106112055761010080835404028352916020019161122e565b820191905f5260205f20905b81548152906001019060200180831161121157829003601f168201915b5050505050905090565b606060095f9054906101000a900473ffffffffffffffffffffffffffffffffffffffff1673ffffffffffffffffffffffffffffffffffffffff166358581383336040518263ffffffff1660e01b81526004016112949190611f72565b5f60405180830381865afa1580156112ae573d5f803e3d5ffd5b505050506040513d5f823e3d601f19601f820116820180604052508101906112d691906121ea565b905090565b606060085f9054906101000a900473ffffffffffffffffffffffffffffffffffffffff1673ffffffffffffffffffffffffffffffffffffffff1663a8f5d7a6836040518263ffffffff1660e01b81526004016113379190611b63565b5f60405180830381865afa158015611351573d5f803e3d5ffd5b505050506040513d5f823e3d601f19601f8201168201806040525081019061137991906121ea565b9050919050565b5f8073ffffffffffffffffffffffffffffffffffffffff168373ffffffffffffffffffffffffffffffffffffffff16036113ef576040517f08c379a00000000000000000000000000000000000000000000000000000000081526004016113e69061215e565b60405180910390fd5b5f60095f9054906101000a900473ffffffffffffffffffffffffffffffffffffffff1673ffffffffffffffffffffffffffffffffffffffff166358581383336040518263ffffffff1660e01b815260040161144a9190611f72565b5f60405180830381865afa158015611464573d5f803e3d5ffd5b505050506040513d5f823e3d601f19601f8201168201806040525081019061148c91906121ea565b90505f60078260405161149f919061226b565b9081526020016040518091039020549050838110156114f3576040517f08c379a00000000000000000000000000000000000000000000000000000000081526004016114ea906122cb565b60405180910390fd5b83600783604051611504919061226b565b90815260200160405180910390205f8282546115209190612316565b925050819055508473ffffffffffffffffffffffffffffffffffffffff163373ffffffffffffffffffffffffffffffffffffffff167fddf252ad1be2c89b69c2b068fc378daa952ba7f163c4a11628f55a4df523b3ef866040516115849190611ca1565b60405180910390a360065f9054906101000a900473ffffffffffffffffffffffffffffffffffffffff1673ffffffffffffffffffffffffffffffffffffffff1663a9059cbb86866040518363ffffffff1660e01b81526004016115e8929190612349565b6020604051808303815f875af1158015611604573d5f803e3d5ffd5b505050506040513d601f19601f82011682018060405250810190611628919061239a565b5060019250505092915050565b5f60065f9054906101000a900473ffffffffffffffffffffffffffffffffffffffff1673ffffffffffffffffffffffffffffffffffffffff1663dd62ed3e84846040518363ffffffff1660e01b815260040161169292919061256f565b602060405180830381865afa1580156116ad573d5f803e3d5ffd5b505050506040513d601f19601f820116820180604052508101906116d191906120e9565b905092915050565b6007818051602081018201805184825260208301602085012081835280955050505050505f915090505481565b61170e611988565b5f73ffffffffffffffffffffffffffffffffffffffff168173ffffffffffffffffffffffffffffffffffffffff160361177e575f6040517f1e4fbdf70000000000000000000000000000000000000000000000000000000081526004016117759190611f72565b60405180910390fd5b61178781611a0f565b50565b5f611793611988565b5f73ffffffffffffffffffffffffffffffffffffffff168373ffffffffffffffffffffffffffffffffffffffff1603611801576040517f08c379a00000000000000000000000000000000000000000000000000000000081526004016117f89061267d565b60405180910390fd5b5f60065f9054906101000a900473ffffffffffffffffffffffffffffffffffffffff1673ffffffffffffffffffffffffffffffffffffffff166370a08231306040518263ffffffff1660e01b815260040161185c9190611f72565b602060405180830381865afa158015611877573d5f803e3d5ffd5b505050506040513d601f19601f8201168201806040525081019061189b91906120e9565b9050828110156118e0576040517f08c379a00000000000000000000000000000000000000000000000000000000081526004016118d7906122cb565b60405180910390fd5b60065f9054906101000a900473ffffffffffffffffffffffffffffffffffffffff1673ffffffffffffffffffffffffffffffffffffffff1663a9059cbb85856040518363ffffffff1660e01b815260040161193c929190612349565b6020604051808303815f875af1158015611958573d5f803e3d5ffd5b505050506040513d601f19601f8201168201806040525081019061197c919061239a565b50600191505092915050565b611990611ad2565b73ffffffffffffffffffffffffffffffffffffffff166119ae611159565b73ffffffffffffffffffffffffffffffffffffffff1614611a0d576119d1611ad2565b6040517f118cdaa7000000000000000000000000000000000000000000000000000000008152600401611a049190611f72565b60405180910390fd5b565b5f60055f9054906101000a900473ffffffffffffffffffffffffffffffffffffffff1690508160055f6101000a81548173ffffffffffffffffffffffffffffffffffffffff021916908373ffffffffffffffffffffffffffffffffffffffff1602179055508173ffffffffffffffffffffffffffffffffffffffff168173ffffffffffffffffffffffffffffffffffffffff167f8be0079c531659141344cd1fd0a4f28419497f9722a3daafe3b4186f6b6457e060405160405180910390a35050565b5f33905090565b5f81519050919050565b5f82825260208201905092915050565b5f5b83811015611b10578082015181840152602081019050611af5565b5f8484015250505050565b5f601f19601f8301169050919050565b5f611b3582611ad9565b611b3f8185611ae3565b9350611b4f818560208601611af3565b611b5881611b1b565b840191505092915050565b5f6020820190508181035f830152611b7b8184611b2b565b905092915050565b5f604051905090565b5f80fd5b5f80fd5b5f73ffffffffffffffffffffffffffffffffffffffff82169050919050565b5f611bbd82611b94565b9050919050565b611bcd81611bb3565b8114611bd7575f80fd5b50565b5f81359050611be881611bc4565b92915050565b5f819050919050565b611c0081611bee565b8114611c0a575f80fd5b50565b5f81359050611c1b81611bf7565b92915050565b5f8060408385031215611c3757611c36611b8c565b5b5f611c4485828601611bda565b9250506020611c5585828601611c0d565b9150509250929050565b5f8115159050919050565b611c7381611c5f565b82525050565b5f602082019050611c8c5f830184611c6a565b92915050565b611c9b81611bee565b82525050565b5f602082019050611cb45f830184611c92565b92915050565b5f805f60608486031215611cd157611cd0611b8c565b5b5f611cde86828701611bda565b9350506020611cef86828701611bda565b9250506040611d0086828701611c0d565b9150509250925092565b5f60ff82169050919050565b611d1f81611d0a565b82525050565b5f602082019050611d385f830184611d16565b92915050565b5f819050919050565b5f611d61611d5c611d5784611b94565b611d3e565b611b94565b9050919050565b5f611d7282611d47565b9050919050565b5f611d8382611d68565b9050919050565b611d9381611d79565b82525050565b5f602082019050611dac5f830184611d8a565b92915050565b5f80fd5b5f80fd5b7f4e487b71000000000000000000000000000000000000000000000000000000005f52604160045260245ffd5b611df082611b1b565b810181811067ffffffffffffffff82111715611e0f57611e0e611dba565b5b80604052505050565b5f611e21611b83565b9050611e2d8282611de7565b919050565b5f67ffffffffffffffff821115611e4c57611e4b611dba565b5b611e5582611b1b565b9050602081019050919050565b828183375f83830152505050565b5f611e82611e7d84611e32565b611e18565b905082815260208101848484011115611e9e57611e9d611db6565b5b611ea9848285611e62565b509392505050565b5f82601f830112611ec557611ec4611db2565b5b8135611ed5848260208601611e70565b91505092915050565b5f8060408385031215611ef457611ef3611b8c565b5b5f83013567ffffffffffffffff811115611f1157611f10611b90565b5b611f1d85828601611eb1565b9250506020611f2e85828601611c0d565b9150509250929050565b5f60208284031215611f4d57611f4c611b8c565b5b5f611f5a84828501611bda565b91505092915050565b611f6c81611bb3565b82525050565b5f602082019050611f855f830184611f63565b92915050565b5f60208284031215611fa057611f9f611b8c565b5b5f82013567ffffffffffffffff811115611fbd57611fbc611b90565b5b611fc984828501611eb1565b91505092915050565b5f8060408385031215611fe857611fe7611b8c565b5b5f611ff585828601611bda565b925050602061200685828601611bda565b9150509250929050565b7f4e487b71000000000000000000000000000000000000000000000000000000005f52602260045260245ffd5b5f600282049050600182168061205457607f821691505b60208210810361206757612066612010565b5b50919050565b7f417070726f76652066756e6374696f6e2069732064697361626c6564000000005f82015250565b5f6120a1601c83611ae3565b91506120ac8261206d565b602082019050919050565b5f6020820190508181035f8301526120ce81612095565b9050919050565b5f815190506120e381611bf7565b92915050565b5f602082840312156120fe576120fd611b8c565b5b5f61210b848285016120d5565b91505092915050565b7f5472616e7366657220746f207a65726f206164647265737300000000000000005f82015250565b5f612148601883611ae3565b915061215382612114565b602082019050919050565b5f6020820190508181035f8301526121758161213c565b9050919050565b5f61218e61218984611e32565b611e18565b9050828152602081018484840111156121aa576121a9611db6565b5b6121b5848285611af3565b509392505050565b5f82601f8301126121d1576121d0611db2565b5b81516121e184826020860161217c565b91505092915050565b5f602082840312156121ff576121fe611b8c565b5b5f82015167ffffffffffffffff81111561221c5761221b611b90565b5b612228848285016121bd565b91505092915050565b5f81905092915050565b5f61224582611ad9565b61224f8185612231565b935061225f818560208601611af3565b80840191505092915050565b5f612276828461223b565b915081905092915050565b7f4e6f7420656e6f7567682062616c616e636500000000000000000000000000005f82015250565b5f6122b5601283611ae3565b91506122c082612281565b602082019050919050565b5f6020820190508181035f8301526122e2816122a9565b9050919050565b7f4e487b71000000000000000000000000000000000000000000000000000000005f52601160045260245ffd5b5f61232082611bee565b915061232b83611bee565b9250828203905081811115612343576123426122e9565b5b92915050565b5f60408201905061235c5f830185611f63565b6123696020830184611c92565b9392505050565b61237981611c5f565b8114612383575f80fd5b50565b5f8151905061239481612370565b92915050565b5f602082840312156123af576123ae611b8c565b5b5f6123bc84828501612386565b91505092915050565b7f55454e20646f6573206e6f7420657869737400000000000000000000000000005f82015250565b5f6123f9601283611ae3565b9150612404826123c5565b602082019050919050565b5f6020820190508181035f830152612426816123ed565b9050919050565b7f55454e2074617267657420697320656d707479000000000000000000000000005f82015250565b5f612461601383611ae3565b915061246c8261242d565b602082019050919050565b5f6020820190508181035f83015261248e81612455565b9050919050565b5f61249f82611bee565b91506124aa83611bee565b92508282019050808211156124c2576124c16122e9565b5b92915050565b5f815190506124d681611bc4565b92915050565b5f602082840312156124f1576124f0611b8c565b5b5f6124fe848285016124c8565b91505092915050565b7f55454e20697320656d70747900000000000000000000000000000000000000005f82015250565b5f61253b600c83611ae3565b915061254682612507565b602082019050919050565b5f6020820190508181035f8301526125688161252f565b9050919050565b5f6040820190506125825f830185611f63565b61258f6020830184611f63565b9392505050565b7f496e6372656173652074686520616c6c6f77616e6365000000000000000000005f82015250565b5f6125ca601683611ae3565b91506125d582612596565b602082019050919050565b5f6020820190508181035f8301526125f7816125be565b9050919050565b5f6060820190506126115f830186611f63565b61261e6020830185611f63565b61262b6040830184611c92565b949350505050565b7f576974686472617720746f20746865207a65726f2061646472657373000000005f82015250565b5f612667601c83611ae3565b915061267282612633565b602082019050919050565b5f6020820190508181035f8301526126948161265b565b905091905056fea2646970667358221220c7837f34154efbc498ff29b1ddb97b2ff9c73ebaffa7c47d1857eda7822541a164736f6c63430008160033",
					"opcodes": "PUSH1 0x80 PUSH1 0x40 MSTORE CALLVALUE DUP1 ISZERO PUSH3 0x10 JUMPI PUSH0 DUP1 REVERT JUMPDEST POP PUSH1 0x40 MLOAD PUSH3 0x2E02 CODESIZE SUB DUP1 PUSH3 0x2E02 DUP4 CODECOPY DUP2 DUP2 ADD PUSH1 0x40 MSTORE DUP2 ADD SWAP1 PUSH3 0x36 SWAP2 SWAP1 PUSH3 0x340 JUMP JUMPDEST DUP2 PUSH1 0x40 MLOAD DUP1 PUSH1 0x40 ADD PUSH1 0x40 MSTORE DUP1 PUSH1 0x4 DUP2 MSTORE PUSH1 0x20 ADD PUSH32 0x5347446D00000000000000000000000000000000000000000000000000000000 DUP2 MSTORE POP PUSH1 0x40 MLOAD DUP1 PUSH1 0x40 ADD PUSH1 0x40 MSTORE DUP1 PUSH1 0x4 DUP2 MSTORE PUSH1 0x20 ADD PUSH32 0x5347446D00000000000000000000000000000000000000000000000000000000 DUP2 MSTORE POP DUP2 PUSH1 0x3 SWAP1 DUP2 PUSH3 0xB4 SWAP2 SWAP1 PUSH3 0x613 JUMP JUMPDEST POP DUP1 PUSH1 0x4 SWAP1 DUP2 PUSH3 0xC6 SWAP2 SWAP1 PUSH3 0x613 JUMP JUMPDEST POP POP POP PUSH0 PUSH20 0xFFFFFFFFFFFFFFFFFFFFFFFFFFFFFFFFFFFFFFFF AND DUP2 PUSH20 0xFFFFFFFFFFFFFFFFFFFFFFFFFFFFFFFFFFFFFFFF AND SUB PUSH3 0x13C JUMPI PUSH0 PUSH1 0x40 MLOAD PUSH32 0x1E4FBDF700000000000000000000000000000000000000000000000000000000 DUP2 MSTORE PUSH1 0x4 ADD PUSH3 0x133 SWAP2 SWAP1 PUSH3 0x708 JUMP JUMPDEST PUSH1 0x40 MLOAD DUP1 SWAP2 SUB SWAP1 REVERT JUMPDEST PUSH3 0x14D DUP2 PUSH3 0x218 PUSH1 0x20 SHL PUSH1 0x20 SHR JUMP JUMPDEST POP DUP4 PUSH1 0x6 PUSH0 PUSH2 0x100 EXP DUP2 SLOAD DUP2 PUSH20 0xFFFFFFFFFFFFFFFFFFFFFFFFFFFFFFFFFFFFFFFF MUL NOT AND SWAP1 DUP4 PUSH20 0xFFFFFFFFFFFFFFFFFFFFFFFFFFFFFFFFFFFFFFFF AND MUL OR SWAP1 SSTORE POP DUP3 PUSH1 0x8 PUSH0 PUSH2 0x100 EXP DUP2 SLOAD DUP2 PUSH20 0xFFFFFFFFFFFFFFFFFFFFFFFFFFFFFFFFFFFFFFFF MUL NOT AND SWAP1 DUP4 PUSH20 0xFFFFFFFFFFFFFFFFFFFFFFFFFFFFFFFFFFFFFFFF AND MUL OR SWAP1 SSTORE POP DUP1 PUSH1 0x9 PUSH0 PUSH2 0x100 EXP DUP2 SLOAD DUP2 PUSH20 0xFFFFFFFFFFFFFFFFFFFFFFFFFFFFFFFFFFFFFFFF MUL NOT AND SWAP1 DUP4 PUSH20 0xFFFFFFFFFFFFFFFFFFFFFFFFFFFFFFFFFFFFFFFF AND MUL OR SWAP1 SSTORE POP POP POP POP POP PUSH3 0x723 JUMP JUMPDEST PUSH0 PUSH1 0x5 PUSH0 SWAP1 SLOAD SWAP1 PUSH2 0x100 EXP SWAP1 DIV PUSH20 0xFFFFFFFFFFFFFFFFFFFFFFFFFFFFFFFFFFFFFFFF AND SWAP1 POP DUP2 PUSH1 0x5 PUSH0 PUSH2 0x100 EXP DUP2 SLOAD DUP2 PUSH20 0xFFFFFFFFFFFFFFFFFFFFFFFFFFFFFFFFFFFFFFFF MUL NOT AND SWAP1 DUP4 PUSH20 0xFFFFFFFFFFFFFFFFFFFFFFFFFFFFFFFFFFFFFFFF AND MUL OR SWAP1 SSTORE POP DUP2 PUSH20 0xFFFFFFFFFFFFFFFFFFFFFFFFFFFFFFFFFFFFFFFF AND DUP2 PUSH20 0xFFFFFFFFFFFFFFFFFFFFFFFFFFFFFFFFFFFFFFFF AND PUSH32 0x8BE0079C531659141344CD1FD0A4F28419497F9722A3DAAFE3B4186F6B6457E0 PUSH1 0x40 MLOAD PUSH1 0x40 MLOAD DUP1 SWAP2 SUB SWAP1 LOG3 POP POP JUMP JUMPDEST PUSH0 DUP1 REVERT JUMPDEST PUSH0 PUSH20 0xFFFFFFFFFFFFFFFFFFFFFFFFFFFFFFFFFFFFFFFF DUP3 AND SWAP1 POP SWAP2 SWAP1 POP JUMP JUMPDEST PUSH0 PUSH3 0x30A DUP3 PUSH3 0x2DF JUMP JUMPDEST SWAP1 POP SWAP2 SWAP1 POP JUMP JUMPDEST PUSH3 0x31C DUP2 PUSH3 0x2FE JUMP JUMPDEST DUP2 EQ PUSH3 0x327 JUMPI PUSH0 DUP1 REVERT JUMPDEST POP JUMP JUMPDEST PUSH0 DUP2 MLOAD SWAP1 POP PUSH3 0x33A DUP2 PUSH3 0x311 JUMP JUMPDEST SWAP3 SWAP2 POP POP JUMP JUMPDEST PUSH0 DUP1 PUSH0 DUP1 PUSH1 0x80 DUP6 DUP8 SUB SLT ISZERO PUSH3 0x35B JUMPI PUSH3 0x35A PUSH3 0x2DB JUMP JUMPDEST JUMPDEST PUSH0 PUSH3 0x36A DUP8 DUP3 DUP9 ADD PUSH3 0x32A JUMP JUMPDEST SWAP5 POP POP PUSH1 0x20 PUSH3 0x37D DUP8 DUP3 DUP9 ADD PUSH3 0x32A JUMP JUMPDEST SWAP4 POP POP PUSH1 0x40 PUSH3 0x390 DUP8 DUP3 DUP9 ADD PUSH3 0x32A JUMP JUMPDEST SWAP3 POP POP PUSH1 0x60 PUSH3 0x3A3 DUP8 DUP3 DUP9 ADD PUSH3 0x32A JUMP JUMPDEST SWAP2 POP POP SWAP3 SWAP6 SWAP2 SWAP5 POP SWAP3 POP JUMP JUMPDEST PUSH0 DUP2 MLOAD SWAP1 POP SWAP2 SWAP1 POP JUMP JUMPDEST PUSH32 0x4E487B7100000000000000000000000000000000000000000000000000000000 PUSH0 MSTORE PUSH1 0x41 PUSH1 0x4 MSTORE PUSH1 0x24 PUSH0 REVERT JUMPDEST PUSH32 0x4E487B7100000000000000000000000000000000000000000000000000000000 PUSH0 MSTORE PUSH1 0x22 PUSH1 0x4 MSTORE PUSH1 0x24 PUSH0 REVERT JUMPDEST PUSH0 PUSH1 0x2 DUP3 DIV SWAP1 POP PUSH1 0x1 DUP3 AND DUP1 PUSH3 0x42B JUMPI PUSH1 0x7F DUP3 AND SWAP2 POP JUMPDEST PUSH1 0x20 DUP3 LT DUP2 SUB PUSH3 0x441 JUMPI PUSH3 0x440 PUSH3 0x3E6 JUMP JUMPDEST JUMPDEST POP SWAP2 SWAP1 POP JUMP JUMPDEST PUSH0 DUP2 SWAP1 POP DUP2 PUSH0 MSTORE PUSH1 0x20 PUSH0 KECCAK256 SWAP1 POP SWAP2 SWAP1 POP JUMP JUMPDEST PUSH0 PUSH1 0x20 PUSH1 0x1F DUP4 ADD DIV SWAP1 POP SWAP2 SWAP1 POP JUMP JUMPDEST PUSH0 DUP3 DUP3 SHL SWAP1 POP SWAP3 SWAP2 POP POP JUMP JUMPDEST PUSH0 PUSH1 0x8 DUP4 MUL PUSH3 0x4A5 PUSH32 0xFFFFFFFFFFFFFFFFFFFFFFFFFFFFFFFFFFFFFFFFFFFFFFFFFFFFFFFFFFFFFFFF DUP3 PUSH3 0x468 JUMP JUMPDEST PUSH3 0x4B1 DUP7 DUP4 PUSH3 0x468 JUMP JUMPDEST SWAP6 POP DUP1 NOT DUP5 AND SWAP4 POP DUP1 DUP7 AND DUP5 OR SWAP3 POP POP POP SWAP4 SWAP3 POP POP POP JUMP JUMPDEST PUSH0 DUP2 SWAP1 POP SWAP2 SWAP1 POP JUMP JUMPDEST PUSH0 DUP2 SWAP1 POP SWAP2 SWAP1 POP JUMP JUMPDEST PUSH0 PUSH3 0x4FB PUSH3 0x4F5 PUSH3 0x4EF DUP5 PUSH3 0x4C9 JUMP JUMPDEST PUSH3 0x4D2 JUMP JUMPDEST PUSH3 0x4C9 JUMP JUMPDEST SWAP1 POP SWAP2 SWAP1 POP JUMP JUMPDEST PUSH0 DUP2 SWAP1 POP SWAP2 SWAP1 POP JUMP JUMPDEST PUSH3 0x516 DUP4 PUSH3 0x4DB JUMP JUMPDEST PUSH3 0x52E PUSH3 0x525 DUP3 PUSH3 0x502 JUMP JUMPDEST DUP5 DUP5 SLOAD PUSH3 0x474 JUMP JUMPDEST DUP3 SSTORE POP POP POP POP JUMP JUMPDEST PUSH0 SWAP1 JUMP JUMPDEST PUSH3 0x544 PUSH3 0x536 JUMP JUMPDEST PUSH3 0x551 DUP2 DUP5 DUP5 PUSH3 0x50B JUMP JUMPDEST POP POP POP JUMP JUMPDEST JUMPDEST DUP2 DUP2 LT ISZERO PUSH3 0x578 JUMPI PUSH3 0x56C PUSH0 DUP3 PUSH3 0x53A JUMP JUMPDEST PUSH1 0x1 DUP2 ADD SWAP1 POP PUSH3 0x557 JUMP JUMPDEST POP POP JUMP JUMPDEST PUSH1 0x1F DUP3 GT ISZERO PUSH3 0x5C7 JUMPI PUSH3 0x591 DUP2 PUSH3 0x447 JUMP JUMPDEST PUSH3 0x59C DUP5 PUSH3 0x459 JUMP JUMPDEST DUP2 ADD PUSH1 0x20 DUP6 LT ISZERO PUSH3 0x5AC JUMPI DUP2 SWAP1 POP JUMPDEST PUSH3 0x5C4 PUSH3 0x5BB DUP6 PUSH3 0x459 JUMP JUMPDEST DUP4 ADD DUP3 PUSH3 0x556 JUMP JUMPDEST POP POP JUMPDEST POP POP POP JUMP JUMPDEST PUSH0 DUP3 DUP3 SHR SWAP1 POP SWAP3 SWAP2 POP POP JUMP JUMPDEST PUSH0 PUSH3 0x5E9 PUSH0 NOT DUP5 PUSH1 0x8 MUL PUSH3 0x5CC JUMP JUMPDEST NOT DUP1 DUP4 AND SWAP2 POP POP SWAP3 SWAP2 POP POP JUMP JUMPDEST PUSH0 PUSH3 0x603 DUP4 DUP4 PUSH3 0x5D8 JUMP JUMPDEST SWAP2 POP DUP3 PUSH1 0x2 MUL DUP3 OR SWAP1 POP SWAP3 SWAP2 POP POP JUMP JUMPDEST PUSH3 0x61E DUP3 PUSH3 0x3AF JUMP JUMPDEST PUSH8 0xFFFFFFFFFFFFFFFF DUP2 GT ISZERO PUSH3 0x63A JUMPI PUSH3 0x639 PUSH3 0x3B9 JUMP JUMPDEST JUMPDEST PUSH3 0x646 DUP3 SLOAD PUSH3 0x413 JUMP JUMPDEST PUSH3 0x653 DUP3 DUP3 DUP6 PUSH3 0x57C JUMP JUMPDEST PUSH0 PUSH1 0x20 SWAP1 POP PUSH1 0x1F DUP4 GT PUSH1 0x1 DUP2 EQ PUSH3 0x689 JUMPI PUSH0 DUP5 ISZERO PUSH3 0x674 JUMPI DUP3 DUP8 ADD MLOAD SWAP1 POP JUMPDEST PUSH3 0x680 DUP6 DUP3 PUSH3 0x5F6 JUMP JUMPDEST DUP7 SSTORE POP PUSH3 0x6EF JUMP JUMPDEST PUSH1 0x1F NOT DUP5 AND PUSH3 0x699 DUP7 PUSH3 0x447 JUMP JUMPDEST PUSH0 JUMPDEST DUP3 DUP2 LT ISZERO PUSH3 0x6C2 JUMPI DUP5 DUP10 ADD MLOAD DUP3 SSTORE PUSH1 0x1 DUP3 ADD SWAP2 POP PUSH1 0x20 DUP6 ADD SWAP5 POP PUSH1 0x20 DUP2 ADD SWAP1 POP PUSH3 0x69B JUMP JUMPDEST DUP7 DUP4 LT ISZERO PUSH3 0x6E2 JUMPI DUP5 DUP10 ADD MLOAD PUSH3 0x6DE PUSH1 0x1F DUP10 AND DUP3 PUSH3 0x5D8 JUMP JUMPDEST DUP4 SSTORE POP JUMPDEST PUSH1 0x1 PUSH1 0x2 DUP9 MUL ADD DUP9 SSTORE POP POP POP JUMPDEST POP POP POP POP POP POP JUMP JUMPDEST PUSH3 0x702 DUP2 PUSH3 0x2FE JUMP JUMPDEST DUP3 MSTORE POP POP JUMP JUMPDEST PUSH0 PUSH1 0x20 DUP3 ADD SWAP1 POP PUSH3 0x71D PUSH0 DUP4 ADD DUP5 PUSH3 0x6F7 JUMP JUMPDEST SWAP3 SWAP2 POP POP JUMP JUMPDEST PUSH2 0x26D1 DUP1 PUSH3 0x731 PUSH0 CODECOPY PUSH0 RETURN INVALID PUSH1 0x80 PUSH1 0x40 MSTORE CALLVALUE DUP1 ISZERO PUSH2 0xF JUMPI PUSH0 DUP1 REVERT JUMPDEST POP PUSH1 0x4 CALLDATASIZE LT PUSH2 0x135 JUMPI PUSH0 CALLDATALOAD PUSH1 0xE0 SHR DUP1 PUSH4 0x8C8E8FEE GT PUSH2 0xB6 JUMPI DUP1 PUSH4 0xA8F5D7A6 GT PUSH2 0x7A JUMPI DUP1 PUSH4 0xA8F5D7A6 EQ PUSH2 0x353 JUMPI DUP1 PUSH4 0xA9059CBB EQ PUSH2 0x383 JUMPI DUP1 PUSH4 0xDD62ED3E EQ PUSH2 0x3B3 JUMPI DUP1 PUSH4 0xF22FBDD7 EQ PUSH2 0x3E3 JUMPI DUP1 PUSH4 0xF2FDE38B EQ PUSH2 0x413 JUMPI DUP1 PUSH4 0xFA863D30 EQ PUSH2 0x42F JUMPI PUSH2 0x135 JUMP JUMPDEST DUP1 PUSH4 0x8C8E8FEE EQ PUSH2 0x2AB JUMPI DUP1 PUSH4 0x8DA5CB5B EQ PUSH2 0x2C9 JUMPI DUP1 PUSH4 0x90F31F3B EQ PUSH2 0x2E7 JUMPI DUP1 PUSH4 0x95D89B41 EQ PUSH2 0x317 JUMPI DUP1 PUSH4 0xA3E5B0B2 EQ PUSH2 0x335 JUMPI PUSH2 0x135 JUMP JUMPDEST DUP1 PUSH4 0x327107F7 GT PUSH2 0xFD JUMPI DUP1 PUSH4 0x327107F7 EQ PUSH2 0x1F3 JUMPI DUP1 PUSH4 0x332656FD EQ PUSH2 0x211 JUMPI DUP1 PUSH4 0x5AB16B26 EQ PUSH2 0x241 JUMPI DUP1 PUSH4 0x70A08231 EQ PUSH2 0x271 JUMPI DUP1 PUSH4 0x715018A6 EQ PUSH2 0x2A1 JUMPI PUSH2 0x135 JUMP JUMPDEST DUP1 PUSH4 0x6FDDE03 EQ PUSH2 0x139 JUMPI DUP1 PUSH4 0x95EA7B3 EQ PUSH2 0x157 JUMPI DUP1 PUSH4 0x18160DDD EQ PUSH2 0x187 JUMPI DUP1 PUSH4 0x23B872DD EQ PUSH2 0x1A5 JUMPI DUP1 PUSH4 0x313CE567 EQ PUSH2 0x1D5 JUMPI JUMPDEST PUSH0 DUP1 REVERT JUMPDEST PUSH2 0x141 PUSH2 0x45F JUMP JUMPDEST PUSH1 0x40 MLOAD PUSH2 0x14E SWAP2 SWAP1 PUSH2 0x1B63 JUMP JUMPDEST PUSH1 0x40 MLOAD DUP1 SWAP2 SUB SWAP1 RETURN JUMPDEST PUSH2 0x171 PUSH1 0x4 DUP1 CALLDATASIZE SUB DUP2 ADD SWAP1 PUSH2 0x16C SWAP2 SWAP1 PUSH2 0x1C21 JUMP JUMPDEST PUSH2 0x4EF JUMP JUMPDEST PUSH1 0x40 MLOAD PUSH2 0x17E SWAP2 SWAP1 PUSH2 0x1C79 JUMP JUMPDEST PUSH1 0x40 MLOAD DUP1 SWAP2 SUB SWAP1 RETURN JUMPDEST PUSH2 0x18F PUSH2 0x52B JUMP JUMPDEST PUSH1 0x40 MLOAD PUSH2 0x19C SWAP2 SWAP1 PUSH2 0x1CA1 JUMP JUMPDEST PUSH1 0x40 MLOAD DUP1 SWAP2 SUB SWAP1 RETURN JUMPDEST PUSH2 0x1BF PUSH1 0x4 DUP1 CALLDATASIZE SUB DUP2 ADD SWAP1 PUSH2 0x1BA SWAP2 SWAP1 PUSH2 0x1CBA JUMP JUMPDEST PUSH2 0x5BF JUMP JUMPDEST PUSH1 0x40 MLOAD PUSH2 0x1CC SWAP2 SWAP1 PUSH2 0x1C79 JUMP JUMPDEST PUSH1 0x40 MLOAD DUP1 SWAP2 SUB SWAP1 RETURN JUMPDEST PUSH2 0x1DD PUSH2 0x875 JUMP JUMPDEST PUSH1 0x40 MLOAD PUSH2 0x1EA SWAP2 SWAP1 PUSH2 0x1D25 JUMP JUMPDEST PUSH1 0x40 MLOAD DUP1 SWAP2 SUB SWAP1 RETURN JUMPDEST PUSH2 0x1FB PUSH2 0x87D JUMP JUMPDEST PUSH1 0x40 MLOAD PUSH2 0x208 SWAP2 SWAP1 PUSH2 0x1D99 JUMP JUMPDEST PUSH1 0x40 MLOAD DUP1 SWAP2 SUB SWAP1 RETURN JUMPDEST PUSH2 0x22B PUSH1 0x4 DUP1 CALLDATASIZE SUB DUP2 ADD SWAP1 PUSH2 0x226 SWAP2 SWAP1 PUSH2 0x1EDE JUMP JUMPDEST PUSH2 0x8A2 JUMP JUMPDEST PUSH1 0x40 MLOAD PUSH2 0x238 SWAP2 SWAP1 PUSH2 0x1C79 JUMP JUMPDEST PUSH1 0x40 MLOAD DUP1 SWAP2 SUB SWAP1 RETURN JUMPDEST PUSH2 0x25B PUSH1 0x4 DUP1 CALLDATASIZE SUB DUP2 ADD SWAP1 PUSH2 0x256 SWAP2 SWAP1 PUSH2 0x1EDE JUMP JUMPDEST PUSH2 0xC3E JUMP JUMPDEST PUSH1 0x40 MLOAD PUSH2 0x268 SWAP2 SWAP1 PUSH2 0x1C79 JUMP JUMPDEST PUSH1 0x40 MLOAD DUP1 SWAP2 SUB SWAP1 RETURN JUMPDEST PUSH2 0x28B PUSH1 0x4 DUP1 CALLDATASIZE SUB DUP2 ADD SWAP1 PUSH2 0x286 SWAP2 SWAP1 PUSH2 0x1F38 JUMP JUMPDEST PUSH2 0x1057 JUMP JUMPDEST PUSH1 0x40 MLOAD PUSH2 0x298 SWAP2 SWAP1 PUSH2 0x1CA1 JUMP JUMPDEST PUSH1 0x40 MLOAD DUP1 SWAP2 SUB SWAP1 RETURN JUMPDEST PUSH2 0x2A9 PUSH2 0x111E JUMP JUMPDEST STOP JUMPDEST PUSH2 0x2B3 PUSH2 0x1131 JUMP JUMPDEST PUSH1 0x40 MLOAD PUSH2 0x2C0 SWAP2 SWAP1 PUSH2 0x1F72 JUMP JUMPDEST PUSH1 0x40 MLOAD DUP1 SWAP2 SUB SWAP1 RETURN JUMPDEST PUSH2 0x2D1 PUSH2 0x1159 JUMP JUMPDEST PUSH1 0x40 MLOAD PUSH2 0x2DE SWAP2 SWAP1 PUSH2 0x1F72 JUMP JUMPDEST PUSH1 0x40 MLOAD DUP1 SWAP2 SUB SWAP1 RETURN JUMPDEST PUSH2 0x301 PUSH1 0x4 DUP1 CALLDATASIZE SUB DUP2 ADD SWAP1 PUSH2 0x2FC SWAP2 SWAP1 PUSH2 0x1F8B JUMP JUMPDEST PUSH2 0x1181 JUMP JUMPDEST PUSH1 0x40 MLOAD PUSH2 0x30E SWAP2 SWAP1 PUSH2 0x1CA1 JUMP JUMPDEST PUSH1 0x40 MLOAD DUP1 SWAP2 SUB SWAP1 RETURN JUMPDEST PUSH2 0x31F PUSH2 0x11A8 JUMP JUMPDEST PUSH1 0x40 MLOAD PUSH2 0x32C SWAP2 SWAP1 PUSH2 0x1B63 JUMP JUMPDEST PUSH1 0x40 MLOAD DUP1 SWAP2 SUB SWAP1 RETURN JUMPDEST PUSH2 0x33D PUSH2 0x1238 JUMP JUMPDEST PUSH1 0x40 MLOAD PUSH2 0x34A SWAP2 SWAP1 PUSH2 0x1B63 JUMP JUMPDEST PUSH1 0x40 MLOAD DUP1 SWAP2 SUB SWAP1 RETURN JUMPDEST PUSH2 0x36D PUSH1 0x4 DUP1 CALLDATASIZE SUB DUP2 ADD SWAP1 PUSH2 0x368 SWAP2 SWAP1 PUSH2 0x1F8B JUMP JUMPDEST PUSH2 0x12DB JUMP JUMPDEST PUSH1 0x40 MLOAD PUSH2 0x37A SWAP2 SWAP1 PUSH2 0x1B63 JUMP JUMPDEST PUSH1 0x40 MLOAD DUP1 SWAP2 SUB SWAP1 RETURN JUMPDEST PUSH2 0x39D PUSH1 0x4 DUP1 CALLDATASIZE SUB DUP2 ADD SWAP1 PUSH2 0x398 SWAP2 SWAP1 PUSH2 0x1C21 JUMP JUMPDEST PUSH2 0x1380 JUMP JUMPDEST PUSH1 0x40 MLOAD PUSH2 0x3AA SWAP2 SWAP1 PUSH2 0x1C79 JUMP JUMPDEST PUSH1 0x40 MLOAD DUP1 SWAP2 SUB SWAP1 RETURN JUMPDEST PUSH2 0x3CD PUSH1 0x4 DUP1 CALLDATASIZE SUB DUP2 ADD SWAP1 PUSH2 0x3C8 SWAP2 SWAP1 PUSH2 0x1FD2 JUMP JUMPDEST PUSH2 0x1635 JUMP JUMPDEST PUSH1 0x40 MLOAD PUSH2 0x3DA SWAP2 SWAP1 PUSH2 0x1CA1 JUMP JUMPDEST PUSH1 0x40 MLOAD DUP1 SWAP2 SUB SWAP1 RETURN JUMPDEST PUSH2 0x3FD PUSH1 0x4 DUP1 CALLDATASIZE SUB DUP2 ADD SWAP1 PUSH2 0x3F8 SWAP2 SWAP1 PUSH2 0x1F8B JUMP JUMPDEST PUSH2 0x16D9 JUMP JUMPDEST PUSH1 0x40 MLOAD PUSH2 0x40A SWAP2 SWAP1 PUSH2 0x1CA1 JUMP JUMPDEST PUSH1 0x40 MLOAD DUP1 SWAP2 SUB SWAP1 RETURN JUMPDEST PUSH2 0x42D PUSH1 0x4 DUP1 CALLDATASIZE SUB DUP2 ADD SWAP1 PUSH2 0x428 SWAP2 SWAP1 PUSH2 0x1F38 JUMP JUMPDEST PUSH2 0x1706 JUMP JUMPDEST STOP JUMPDEST PUSH2 0x449 PUSH1 0x4 DUP1 CALLDATASIZE SUB DUP2 ADD SWAP1 PUSH2 0x444 SWAP2 SWAP1 PUSH2 0x1C21 JUMP JUMPDEST PUSH2 0x178A JUMP JUMPDEST PUSH1 0x40 MLOAD PUSH2 0x456 SWAP2 SWAP1 PUSH2 0x1C79 JUMP JUMPDEST PUSH1 0x40 MLOAD DUP1 SWAP2 SUB SWAP1 RETURN JUMPDEST PUSH1 0x60 PUSH1 0x3 DUP1 SLOAD PUSH2 0x46E SWAP1 PUSH2 0x203D JUMP JUMPDEST DUP1 PUSH1 0x1F ADD PUSH1 0x20 DUP1 SWAP2 DIV MUL PUSH1 0x20 ADD PUSH1 0x40 MLOAD SWAP1 DUP2 ADD PUSH1 0x40 MSTORE DUP1 SWAP3 SWAP2 SWAP1 DUP2 DUP2 MSTORE PUSH1 0x20 ADD DUP3 DUP1 SLOAD PUSH2 0x49A SWAP1 PUSH2 0x203D JUMP JUMPDEST DUP1 ISZERO PUSH2 0x4E5 JUMPI DUP1 PUSH1 0x1F LT PUSH2 0x4BC JUMPI PUSH2 0x100 DUP1 DUP4 SLOAD DIV MUL DUP4 MSTORE SWAP2 PUSH1 0x20 ADD SWAP2 PUSH2 0x4E5 JUMP JUMPDEST DUP3 ADD SWAP2 SWAP1 PUSH0 MSTORE PUSH1 0x20 PUSH0 KECCAK256 SWAP1 JUMPDEST DUP2 SLOAD DUP2 MSTORE SWAP1 PUSH1 0x1 ADD SWAP1 PUSH1 0x20 ADD DUP1 DUP4 GT PUSH2 0x4C8 JUMPI DUP3 SWAP1 SUB PUSH1 0x1F AND DUP3 ADD SWAP2 JUMPDEST POP POP POP POP POP SWAP1 POP SWAP1 JUMP JUMPDEST PUSH0 PUSH1 0x40 MLOAD PUSH32 0x8C379A000000000000000000000000000000000000000000000000000000000 DUP2 MSTORE PUSH1 0x4 ADD PUSH2 0x522 SWAP1 PUSH2 0x20B7 JUMP JUMPDEST PUSH1 0x40 MLOAD DUP1 SWAP2 SUB SWAP1 REVERT JUMPDEST PUSH0 PUSH1 0x6 PUSH0 SWAP1 SLOAD SWAP1 PUSH2 0x100 EXP SWAP1 DIV PUSH20 0xFFFFFFFFFFFFFFFFFFFFFFFFFFFFFFFFFFFFFFFF AND PUSH20 0xFFFFFFFFFFFFFFFFFFFFFFFFFFFFFFFFFFFFFFFF AND PUSH4 0x18160DDD PUSH1 0x40 MLOAD DUP2 PUSH4 0xFFFFFFFF AND PUSH1 0xE0 SHL DUP2 MSTORE PUSH1 0x4 ADD PUSH1 0x20 PUSH1 0x40 MLOAD DUP1 DUP4 SUB DUP2 DUP7 GAS STATICCALL ISZERO DUP1 ISZERO PUSH2 0x596 JUMPI RETURNDATASIZE PUSH0 DUP1 RETURNDATACOPY RETURNDATASIZE PUSH0 REVERT JUMPDEST POP POP POP POP PUSH1 0x40 MLOAD RETURNDATASIZE PUSH1 0x1F NOT PUSH1 0x1F DUP3 ADD AND DUP3 ADD DUP1 PUSH1 0x40 MSTORE POP DUP2 ADD SWAP1 PUSH2 0x5BA SWAP2 SWAP1 PUSH2 0x20E9 JUMP JUMPDEST SWAP1 POP SWAP1 JUMP JUMPDEST PUSH0 DUP1 PUSH20 0xFFFFFFFFFFFFFFFFFFFFFFFFFFFFFFFFFFFFFFFF AND DUP4 PUSH20 0xFFFFFFFFFFFFFFFFFFFFFFFFFFFFFFFFFFFFFFFF AND SUB PUSH2 0x62E JUMPI PUSH1 0x40 MLOAD PUSH32 0x8C379A000000000000000000000000000000000000000000000000000000000 DUP2 MSTORE PUSH1 0x4 ADD PUSH2 0x625 SWAP1 PUSH2 0x215E JUMP JUMPDEST PUSH1 0x40 MLOAD DUP1 SWAP2 SUB SWAP1 REVERT JUMPDEST PUSH0 PUSH1 0x9 PUSH0 SWAP1 SLOAD SWAP1 PUSH2 0x100 EXP SWAP1 DIV PUSH20 0xFFFFFFFFFFFFFFFFFFFFFFFFFFFFFFFFFFFFFFFF AND PUSH20 0xFFFFFFFFFFFFFFFFFFFFFFFFFFFFFFFFFFFFFFFF AND PUSH4 0x58581383 DUP7 PUSH1 0x40 MLOAD DUP3 PUSH4 0xFFFFFFFF AND PUSH1 0xE0 SHL DUP2 MSTORE PUSH1 0x4 ADD PUSH2 0x689 SWAP2 SWAP1 PUSH2 0x1F72 JUMP JUMPDEST PUSH0 PUSH1 0x40 MLOAD DUP1 DUP4 SUB DUP2 DUP7 GAS STATICCALL ISZERO DUP1 ISZERO PUSH2 0x6A3 JUMPI RETURNDATASIZE PUSH0 DUP1 RETURNDATACOPY RETURNDATASIZE PUSH0 REVERT JUMPDEST POP POP POP POP PUSH1 0x40 MLOAD RETURNDATASIZE PUSH0 DUP3 RETURNDATACOPY RETURNDATASIZE PUSH1 0x1F NOT PUSH1 0x1F DUP3 ADD AND DUP3 ADD DUP1 PUSH1 0x40 MSTORE POP DUP2 ADD SWAP1 PUSH2 0x6CB SWAP2 SWAP1 PUSH2 0x21EA JUMP JUMPDEST SWAP1 POP PUSH0 PUSH1 0x7 DUP3 PUSH1 0x40 MLOAD PUSH2 0x6DE SWAP2 SWAP1 PUSH2 0x226B JUMP JUMPDEST SWAP1 DUP2 MSTORE PUSH1 0x20 ADD PUSH1 0x40 MLOAD DUP1 SWAP2 SUB SWAP1 KECCAK256 SLOAD SWAP1 POP DUP4 DUP2 LT ISZERO PUSH2 0x732 JUMPI PUSH1 0x40 MLOAD PUSH32 0x8C379A000000000000000000000000000000000000000000000000000000000 DUP2 MSTORE PUSH1 0x4 ADD PUSH2 0x729 SWAP1 PUSH2 0x22CB JUMP JUMPDEST PUSH1 0x40 MLOAD DUP1 SWAP2 SUB SWAP1 REVERT JUMPDEST DUP4 PUSH1 0x7 DUP4 PUSH1 0x40 MLOAD PUSH2 0x743 SWAP2 SWAP1 PUSH2 0x226B JUMP JUMPDEST SWAP1 DUP2 MSTORE PUSH1 0x20 ADD PUSH1 0x40 MLOAD DUP1 SWAP2 SUB SWAP1 KECCAK256 PUSH0 DUP3 DUP3 SLOAD PUSH2 0x75F SWAP2 SWAP1 PUSH2 0x2316 JUMP JUMPDEST SWAP3 POP POP DUP2 SWAP1 SSTORE POP DUP5 PUSH20 0xFFFFFFFFFFFFFFFFFFFFFFFFFFFFFFFFFFFFFFFF AND DUP7 PUSH20 0xFFFFFFFFFFFFFFFFFFFFFFFFFFFFFFFFFFFFFFFF AND PUSH32 0xDDF252AD1BE2C89B69C2B068FC378DAA952BA7F163C4A11628F55A4DF523B3EF DUP7 PUSH1 0x40 MLOAD PUSH2 0x7C3 SWAP2 SWAP1 PUSH2 0x1CA1 JUMP JUMPDEST PUSH1 0x40 MLOAD DUP1 SWAP2 SUB SWAP1 LOG3 PUSH1 0x6 PUSH0 SWAP1 SLOAD SWAP1 PUSH2 0x100 EXP SWAP1 DIV PUSH20 0xFFFFFFFFFFFFFFFFFFFFFFFFFFFFFFFFFFFFFFFF AND PUSH20 0xFFFFFFFFFFFFFFFFFFFFFFFFFFFFFFFFFFFFFFFF AND PUSH4 0xA9059CBB DUP7 DUP7 PUSH1 0x40 MLOAD DUP4 PUSH4 0xFFFFFFFF AND PUSH1 0xE0 SHL DUP2 MSTORE PUSH1 0x4 ADD PUSH2 0x827 SWAP3 SWAP2 SWAP1 PUSH2 0x2349 JUMP JUMPDEST PUSH1 0x20 PUSH1 0x40 MLOAD DUP1 DUP4 SUB DUP2 PUSH0 DUP8 GAS CALL ISZERO DUP1 ISZERO PUSH2 0x843 JUMPI RETURNDATASIZE PUSH0 DUP1 RETURNDATACOPY RETURNDATASIZE PUSH0 REVERT JUMPDEST POP POP POP POP PUSH1 0x40 MLOAD RETURNDATASIZE PUSH1 0x1F NOT PUSH1 0x1F DUP3 ADD AND DUP3 ADD DUP1 PUSH1 0x40 MSTORE POP DUP2 ADD SWAP1 PUSH2 0x867 SWAP2 SWAP1 PUSH2 0x239A JUMP JUMPDEST POP PUSH1 0x1 SWAP3 POP POP POP SWAP4 SWAP3 POP POP POP JUMP JUMPDEST PUSH0 PUSH1 0x6 SWAP1 POP SWAP1 JUMP JUMPDEST PUSH1 0x6 PUSH0 SWAP1 SLOAD SWAP1 PUSH2 0x100 EXP SWAP1 DIV PUSH20 0xFFFFFFFFFFFFFFFFFFFFFFFFFFFFFFFFFFFFFFFF AND DUP2 JUMP JUMPDEST PUSH0 DUP3 PUSH0 PUSH1 0x8 PUSH0 SWAP1 SLOAD SWAP1 PUSH2 0x100 EXP SWAP1 DIV PUSH20 0xFFFFFFFFFFFFFFFFFFFFFFFFFFFFFFFFFFFFFFFF AND PUSH20 0xFFFFFFFFFFFFFFFFFFFFFFFFFFFFFFFFFFFFFFFF AND PUSH4 0xA8F5D7A6 DUP4 PUSH1 0x40 MLOAD DUP3 PUSH4 0xFFFFFFFF AND PUSH1 0xE0 SHL DUP2 MSTORE PUSH1 0x4 ADD PUSH2 0x8FF SWAP2 SWAP1 PUSH2 0x1B63 JUMP JUMPDEST PUSH0 PUSH1 0x40 MLOAD DUP1 DUP4 SUB DUP2 DUP7 GAS STATICCALL ISZERO DUP1 ISZERO PUSH2 0x919 JUMPI RETURNDATASIZE PUSH0 DUP1 RETURNDATACOPY RETURNDATASIZE PUSH0 REVERT JUMPDEST POP POP POP POP PUSH1 0x40 MLOAD RETURNDATASIZE PUSH0 DUP3 RETURNDATACOPY RETURNDATASIZE PUSH1 0x1F NOT PUSH1 0x1F DUP3 ADD AND DUP3 ADD DUP1 PUSH1 0x40 MSTORE POP DUP2 ADD SWAP1 PUSH2 0x941 SWAP2 SWAP1 PUSH2 0x21EA JUMP JUMPDEST MLOAD GT PUSH2 0x982 JUMPI PUSH1 0x40 MLOAD PUSH32 0x8C379A000000000000000000000000000000000000000000000000000000000 DUP2 MSTORE PUSH1 0x4 ADD PUSH2 0x979 SWAP1 PUSH2 0x240F JUMP JUMPDEST PUSH1 0x40 MLOAD DUP1 SWAP2 SUB SWAP1 REVERT JUMPDEST PUSH0 DUP5 MLOAD GT PUSH2 0x9C5 JUMPI PUSH1 0x40 MLOAD PUSH32 0x8C379A000000000000000000000000000000000000000000000000000000000 DUP2 MSTORE PUSH1 0x4 ADD PUSH2 0x9BC SWAP1 PUSH2 0x2477 JUMP JUMPDEST PUSH1 0x40 MLOAD DUP1 SWAP2 SUB SWAP1 REVERT JUMPDEST PUSH0 PUSH1 0x9 PUSH0 SWAP1 SLOAD SWAP1 PUSH2 0x100 EXP SWAP1 DIV PUSH20 0xFFFFFFFFFFFFFFFFFFFFFFFFFFFFFFFFFFFFFFFF AND PUSH20 0xFFFFFFFFFFFFFFFFFFFFFFFFFFFFFFFFFFFFFFFF AND PUSH4 0x58581383 CALLER PUSH1 0x40 MLOAD DUP3 PUSH4 0xFFFFFFFF AND PUSH1 0xE0 SHL DUP2 MSTORE PUSH1 0x4 ADD PUSH2 0xA20 SWAP2 SWAP1 PUSH2 0x1F72 JUMP JUMPDEST PUSH0 PUSH1 0x40 MLOAD DUP1 DUP4 SUB DUP2 DUP7 GAS STATICCALL ISZERO DUP1 ISZERO PUSH2 0xA3A JUMPI RETURNDATASIZE PUSH0 DUP1 RETURNDATACOPY RETURNDATASIZE PUSH0 REVERT JUMPDEST POP POP POP POP PUSH1 0x40 MLOAD RETURNDATASIZE PUSH0 DUP3 RETURNDATACOPY RETURNDATASIZE PUSH1 0x1F NOT PUSH1 0x1F DUP3 ADD AND DUP3 ADD DUP1 PUSH1 0x40 MSTORE POP DUP2 ADD SWAP1 PUSH2 0xA62 SWAP2 SWAP1 PUSH2 0x21EA JUMP JUMPDEST SWAP1 POP DUP4 PUSH1 0x7 DUP3 PUSH1 0x40 MLOAD PUSH2 0xA75 SWAP2 SWAP1 PUSH2 0x226B JUMP JUMPDEST SWAP1 DUP2 MSTORE PUSH1 0x20 ADD PUSH1 0x40 MLOAD DUP1 SWAP2 SUB SWAP1 KECCAK256 SLOAD LT ISZERO PUSH2 0xA93 JUMPI PUSH0 SWAP3 POP POP PUSH2 0xC37 JUMP JUMPDEST DUP4 PUSH1 0x7 DUP3 PUSH1 0x40 MLOAD PUSH2 0xAA4 SWAP2 SWAP1 PUSH2 0x226B JUMP JUMPDEST SWAP1 DUP2 MSTORE PUSH1 0x20 ADD PUSH1 0x40 MLOAD DUP1 SWAP2 SUB SWAP1 KECCAK256 PUSH0 DUP3 DUP3 SLOAD PUSH2 0xAC0 SWAP2 SWAP1 PUSH2 0x2316 JUMP JUMPDEST SWAP3 POP POP DUP2 SWAP1 SSTORE POP DUP4 PUSH1 0x7 DUP7 PUSH1 0x40 MLOAD PUSH2 0xAD8 SWAP2 SWAP1 PUSH2 0x226B JUMP JUMPDEST SWAP1 DUP2 MSTORE PUSH1 0x20 ADD PUSH1 0x40 MLOAD DUP1 SWAP2 SUB SWAP1 KECCAK256 PUSH0 DUP3 DUP3 SLOAD PUSH2 0xAF4 SWAP2 SWAP1 PUSH2 0x2495 JUMP JUMPDEST SWAP3 POP POP DUP2 SWAP1 SSTORE POP PUSH0 PUSH1 0x9 PUSH0 SWAP1 SLOAD SWAP1 PUSH2 0x100 EXP SWAP1 DIV PUSH20 0xFFFFFFFFFFFFFFFFFFFFFFFFFFFFFFFFFFFFFFFF AND PUSH20 0xFFFFFFFFFFFFFFFFFFFFFFFFFFFFFFFFFFFFFFFF AND PUSH4 0xA9B295E3 DUP8 PUSH1 0x40 MLOAD DUP3 PUSH4 0xFFFFFFFF AND PUSH1 0xE0 SHL DUP2 MSTORE PUSH1 0x4 ADD PUSH2 0xB56 SWAP2 SWAP1 PUSH2 0x1B63 JUMP JUMPDEST PUSH1 0x20 PUSH1 0x40 MLOAD DUP1 DUP4 SUB DUP2 DUP7 GAS STATICCALL ISZERO DUP1 ISZERO PUSH2 0xB71 JUMPI RETURNDATASIZE PUSH0 DUP1 RETURNDATACOPY RETURNDATASIZE PUSH0 REVERT JUMPDEST POP POP POP POP PUSH1 0x40 MLOAD RETURNDATASIZE PUSH1 0x1F NOT PUSH1 0x1F DUP3 ADD AND DUP3 ADD DUP1 PUSH1 0x40 MSTORE POP DUP2 ADD SWAP1 PUSH2 0xB95 SWAP2 SWAP1 PUSH2 0x24DC JUMP JUMPDEST SWAP1 POP PUSH0 PUSH20 0xFFFFFFFFFFFFFFFFFFFFFFFFFFFFFFFFFFFFFFFF AND DUP2 PUSH20 0xFFFFFFFFFFFFFFFFFFFFFFFFFFFFFFFFFFFFFFFF AND EQ PUSH2 0xC30 JUMPI DUP1 PUSH20 0xFFFFFFFFFFFFFFFFFFFFFFFFFFFFFFFFFFFFFFFF AND CALLER PUSH20 0xFFFFFFFFFFFFFFFFFFFFFFFFFFFFFFFFFFFFFFFF AND PUSH32 0xDDF252AD1BE2C89B69C2B068FC378DAA952BA7F163C4A11628F55A4DF523B3EF DUP8 PUSH1 0x40 MLOAD PUSH2 0xC27 SWAP2 SWAP1 PUSH2 0x1CA1 JUMP JUMPDEST PUSH1 0x40 MLOAD DUP1 SWAP2 SUB SWAP1 LOG3 JUMPDEST PUSH1 0x1 SWAP4 POP POP POP JUMPDEST POP SWAP3 SWAP2 POP POP JUMP JUMPDEST PUSH0 DUP3 PUSH0 PUSH1 0x8 PUSH0 SWAP1 SLOAD SWAP1 PUSH2 0x100 EXP SWAP1 DIV PUSH20 0xFFFFFFFFFFFFFFFFFFFFFFFFFFFFFFFFFFFFFFFF AND PUSH20 0xFFFFFFFFFFFFFFFFFFFFFFFFFFFFFFFFFFFFFFFF AND PUSH4 0xA8F5D7A6 DUP4 PUSH1 0x40 MLOAD DUP3 PUSH4 0xFFFFFFFF AND PUSH1 0xE0 SHL DUP2 MSTORE PUSH1 0x4 ADD PUSH2 0xC9B SWAP2 SWAP1 PUSH2 0x1B63 JUMP JUMPDEST PUSH0 PUSH1 0x40 MLOAD DUP1 DUP4 SUB DUP2 DUP7 GAS STATICCALL ISZERO DUP1 ISZERO PUSH2 0xCB5 JUMPI RETURNDATASIZE PUSH0 DUP1 RETURNDATACOPY RETURNDATASIZE PUSH0 REVERT JUMPDEST POP POP POP POP PUSH1 0x40 MLOAD RETURNDATASIZE PUSH0 DUP3 RETURNDATACOPY RETURNDATASIZE PUSH1 0x1F NOT PUSH1 0x1F DUP3 ADD AND DUP3 ADD DUP1 PUSH1 0x40 MSTORE POP DUP2 ADD SWAP1 PUSH2 0xCDD SWAP2 SWAP1 PUSH2 0x21EA JUMP JUMPDEST MLOAD GT PUSH2 0xD1E JUMPI PUSH1 0x40 MLOAD PUSH32 0x8C379A000000000000000000000000000000000000000000000000000000000 DUP2 MSTORE PUSH1 0x4 ADD PUSH2 0xD15 SWAP1 PUSH2 0x240F JUMP JUMPDEST PUSH1 0x40 MLOAD DUP1 SWAP2 SUB SWAP1 REVERT JUMPDEST PUSH0 DUP5 MLOAD GT PUSH2 0xD61 JUMPI PUSH1 0x40 MLOAD PUSH32 0x8C379A000000000000000000000000000000000000000000000000000000000 DUP2 MSTORE PUSH1 0x4 ADD PUSH2 0xD58 SWAP1 PUSH2 0x2551 JUMP JUMPDEST PUSH1 0x40 MLOAD DUP1 SWAP2 SUB SWAP1 REVERT JUMPDEST PUSH0 PUSH1 0x6 PUSH0 SWAP1 SLOAD SWAP1 PUSH2 0x100 EXP SWAP1 DIV PUSH20 0xFFFFFFFFFFFFFFFFFFFFFFFFFFFFFFFFFFFFFFFF AND PUSH20 0xFFFFFFFFFFFFFFFFFFFFFFFFFFFFFFFFFFFFFFFF AND PUSH4 0xDD62ED3E CALLER ADDRESS PUSH1 0x40 MLOAD DUP4 PUSH4 0xFFFFFFFF AND PUSH1 0xE0 SHL DUP2 MSTORE PUSH1 0x4 ADD PUSH2 0xDBE SWAP3 SWAP2 SWAP1 PUSH2 0x256F JUMP JUMPDEST PUSH1 0x20 PUSH1 0x40 MLOAD DUP1 DUP4 SUB DUP2 DUP7 GAS STATICCALL ISZERO DUP1 ISZERO PUSH2 0xDD9 JUMPI RETURNDATASIZE PUSH0 DUP1 RETURNDATACOPY RETURNDATASIZE PUSH0 REVERT JUMPDEST POP POP POP POP PUSH1 0x40 MLOAD RETURNDATASIZE PUSH1 0x1F NOT PUSH1 0x1F DUP3 ADD AND DUP3 ADD DUP1 PUSH1 0x40 MSTORE POP DUP2 ADD SWAP1 PUSH2 0xDFD SWAP2 SWAP1 PUSH2 0x20E9 JUMP JUMPDEST SWAP1 POP DUP4 DUP2 LT ISZERO PUSH2 0xE42 JUMPI PUSH1 0x40 MLOAD PUSH32 0x8C379A000000000000000000000000000000000000000000000000000000000 DUP2 MSTORE PUSH1 0x4 ADD PUSH2 0xE39 SWAP1 PUSH2 0x25E0 JUMP JUMPDEST PUSH1 0x40 MLOAD DUP1 SWAP2 SUB SWAP1 REVERT JUMPDEST PUSH1 0x6 PUSH0 SWAP1 SLOAD SWAP1 PUSH2 0x100 EXP SWAP1 DIV PUSH20 0xFFFFFFFFFFFFFFFFFFFFFFFFFFFFFFFFFFFFFFFF AND PUSH20 0xFFFFFFFFFFFFFFFFFFFFFFFFFFFFFFFFFFFFFFFF AND PUSH4 0x23B872DD CALLER ADDRESS DUP8 PUSH1 0x40 MLOAD DUP5 PUSH4 0xFFFFFFFF AND PUSH1 0xE0 SHL DUP2 MSTORE PUSH1 0x4 ADD PUSH2 0xEA0 SWAP4 SWAP3 SWAP2 SWAP1 PUSH2 0x25FE JUMP JUMPDEST PUSH1 0x20 PUSH1 0x40 MLOAD DUP1 DUP4 SUB DUP2 PUSH0 DUP8 GAS CALL ISZERO DUP1 ISZERO PUSH2 0xEBC JUMPI RETURNDATASIZE PUSH0 DUP1 RETURNDATACOPY RETURNDATASIZE PUSH0 REVERT JUMPDEST POP POP POP POP PUSH1 0x40 MLOAD RETURNDATASIZE PUSH1 0x1F NOT PUSH1 0x1F DUP3 ADD AND DUP3 ADD DUP1 PUSH1 0x40 MSTORE POP DUP2 ADD SWAP1 PUSH2 0xEE0 SWAP2 SWAP1 PUSH2 0x239A JUMP JUMPDEST POP DUP4 PUSH1 0x7 DUP7 PUSH1 0x40 MLOAD PUSH2 0xEF2 SWAP2 SWAP1 PUSH2 0x226B JUMP JUMPDEST SWAP1 DUP2 MSTORE PUSH1 0x20 ADD PUSH1 0x40 MLOAD DUP1 SWAP2 SUB SWAP1 KECCAK256 PUSH0 DUP3 DUP3 SLOAD PUSH2 0xF0E SWAP2 SWAP1 PUSH2 0x2495 JUMP JUMPDEST SWAP3 POP POP DUP2 SWAP1 SSTORE POP PUSH0 PUSH1 0x9 PUSH0 SWAP1 SLOAD SWAP1 PUSH2 0x100 EXP SWAP1 DIV PUSH20 0xFFFFFFFFFFFFFFFFFFFFFFFFFFFFFFFFFFFFFFFF AND PUSH20 0xFFFFFFFFFFFFFFFFFFFFFFFFFFFFFFFFFFFFFFFF AND PUSH4 0xA9B295E3 DUP8 PUSH1 0x40 MLOAD DUP3 PUSH4 0xFFFFFFFF AND PUSH1 0xE0 SHL DUP2 MSTORE PUSH1 0x4 ADD PUSH2 0xF70 SWAP2 SWAP1 PUSH2 0x1B63 JUMP JUMPDEST PUSH1 0x20 PUSH1 0x40 MLOAD DUP1 DUP4 SUB DUP2 DUP7 GAS STATICCALL ISZERO DUP1 ISZERO PUSH2 0xF8B JUMPI RETURNDATASIZE PUSH0 DUP1 RETURNDATACOPY RETURNDATASIZE PUSH0 REVERT JUMPDEST POP POP POP POP PUSH1 0x40 MLOAD RETURNDATASIZE PUSH1 0x1F NOT PUSH1 0x1F DUP3 ADD AND DUP3 ADD DUP1 PUSH1 0x40 MSTORE POP DUP2 ADD SWAP1 PUSH2 0xFAF SWAP2 SWAP1 PUSH2 0x24DC JUMP JUMPDEST SWAP1 POP PUSH0 PUSH20 0xFFFFFFFFFFFFFFFFFFFFFFFFFFFFFFFFFFFFFFFF AND DUP2 PUSH20 0xFFFFFFFFFFFFFFFFFFFFFFFFFFFFFFFFFFFFFFFF AND EQ PUSH2 0x104A JUMPI DUP1 PUSH20 0xFFFFFFFFFFFFFFFFFFFFFFFFFFFFFFFFFFFFFFFF AND CALLER PUSH20 0xFFFFFFFFFFFFFFFFFFFFFFFFFFFFFFFFFFFFFFFF AND PUSH32 0xDDF252AD1BE2C89B69C2B068FC378DAA952BA7F163C4A11628F55A4DF523B3EF DUP8 PUSH1 0x40 MLOAD PUSH2 0x1041 SWAP2 SWAP1 PUSH2 0x1CA1 JUMP JUMPDEST PUSH1 0x40 MLOAD DUP1 SWAP2 SUB SWAP1 LOG3 JUMPDEST PUSH1 0x1 SWAP4 POP POP POP POP SWAP3 SWAP2 POP POP JUMP JUMPDEST PUSH0 DUP1 PUSH1 0x9 PUSH0 SWAP1 SLOAD SWAP1 PUSH2 0x100 EXP SWAP1 DIV PUSH20 0xFFFFFFFFFFFFFFFFFFFFFFFFFFFFFFFFFFFFFFFF AND PUSH20 0xFFFFFFFFFFFFFFFFFFFFFFFFFFFFFFFFFFFFFFFF AND PUSH4 0x58581383 DUP5 PUSH1 0x40 MLOAD DUP3 PUSH4 0xFFFFFFFF AND PUSH1 0xE0 SHL DUP2 MSTORE PUSH1 0x4 ADD PUSH2 0x10B3 SWAP2 SWAP1 PUSH2 0x1F72 JUMP JUMPDEST PUSH0 PUSH1 0x40 MLOAD DUP1 DUP4 SUB DUP2 DUP7 GAS STATICCALL ISZERO DUP1 ISZERO PUSH2 0x10CD JUMPI RETURNDATASIZE PUSH0 DUP1 RETURNDATACOPY RETURNDATASIZE PUSH0 REVERT JUMPDEST POP POP POP POP PUSH1 0x40 MLOAD RETURNDATASIZE PUSH0 DUP3 RETURNDATACOPY RETURNDATASIZE PUSH1 0x1F NOT PUSH1 0x1F DUP3 ADD AND DUP3 ADD DUP1 PUSH1 0x40 MSTORE POP DUP2 ADD SWAP1 PUSH2 0x10F5 SWAP2 SWAP1 PUSH2 0x21EA JUMP JUMPDEST SWAP1 POP PUSH1 0x7 DUP2 PUSH1 0x40 MLOAD PUSH2 0x1107 SWAP2 SWAP1 PUSH2 0x226B JUMP JUMPDEST SWAP1 DUP2 MSTORE PUSH1 0x20 ADD PUSH1 0x40 MLOAD DUP1 SWAP2 SUB SWAP1 KECCAK256 SLOAD SWAP2 POP POP SWAP2 SWAP1 POP JUMP JUMPDEST PUSH2 0x1126 PUSH2 0x1988 JUMP JUMPDEST PUSH2 0x112F PUSH0 PUSH2 0x1A0F JUMP JUMPDEST JUMP JUMPDEST PUSH0 PUSH1 0x6 PUSH0 SWAP1 SLOAD SWAP1 PUSH2 0x100 EXP SWAP1 DIV PUSH20 0xFFFFFFFFFFFFFFFFFFFFFFFFFFFFFFFFFFFFFFFF AND SWAP1 POP SWAP1 JUMP JUMPDEST PUSH0 PUSH1 0x5 PUSH0 SWAP1 SLOAD SWAP1 PUSH2 0x100 EXP SWAP1 DIV PUSH20 0xFFFFFFFFFFFFFFFFFFFFFFFFFFFFFFFFFFFFFFFF AND SWAP1 POP SWAP1 JUMP JUMPDEST PUSH0 PUSH1 0x7 DUP3 PUSH1 0x40 MLOAD PUSH2 0x1192 SWAP2 SWAP1 PUSH2 0x226B JUMP JUMPDEST SWAP1 DUP2 MSTORE PUSH1 0x20 ADD PUSH1 0x40 MLOAD DUP1 SWAP2 SUB SWAP1 KECCAK256 SLOAD SWAP1 POP SWAP2 SWAP1 POP JUMP JUMPDEST PUSH1 0x60 PUSH1 0x4 DUP1 SLOAD PUSH2 0x11B7 SWAP1 PUSH2 0x203D JUMP JUMPDEST DUP1 PUSH1 0x1F ADD PUSH1 0x20 DUP1 SWAP2 DIV MUL PUSH1 0x20 ADD PUSH1 0x40 MLOAD SWAP1 DUP2 ADD PUSH1 0x40 MSTORE DUP1 SWAP3 SWAP2 SWAP1 DUP2 DUP2 MSTORE PUSH1 0x20 ADD DUP3 DUP1 SLOAD PUSH2 0x11E3 SWAP1 PUSH2 0x203D JUMP JUMPDEST DUP1 ISZERO PUSH2 0x122E JUMPI DUP1 PUSH1 0x1F LT PUSH2 0x1205 JUMPI PUSH2 0x100 DUP1 DUP4 SLOAD DIV MUL DUP4 MSTORE SWAP2 PUSH1 0x20 ADD SWAP2 PUSH2 0x122E JUMP JUMPDEST DUP3 ADD SWAP2 SWAP1 PUSH0 MSTORE PUSH1 0x20 PUSH0 KECCAK256 SWAP1 JUMPDEST DUP2 SLOAD DUP2 MSTORE SWAP1 PUSH1 0x1 ADD SWAP1 PUSH1 0x20 ADD DUP1 DUP4 GT PUSH2 0x1211 JUMPI DUP3 SWAP1 SUB PUSH1 0x1F AND DUP3 ADD SWAP2 JUMPDEST POP POP POP POP POP SWAP1 POP SWAP1 JUMP JUMPDEST PUSH1 0x60 PUSH1 0x9 PUSH0 SWAP1 SLOAD SWAP1 PUSH2 0x100 EXP SWAP1 DIV PUSH20 0xFFFFFFFFFFFFFFFFFFFFFFFFFFFFFFFFFFFFFFFF AND PUSH20 0xFFFFFFFFFFFFFFFFFFFFFFFFFFFFFFFFFFFFFFFF AND PUSH4 0x58581383 CALLER PUSH1 0x40 MLOAD DUP3 PUSH4 0xFFFFFFFF AND PUSH1 0xE0 SHL DUP2 MSTORE PUSH1 0x4 ADD PUSH2 0x1294 SWAP2 SWAP1 PUSH2 0x1F72 JUMP JUMPDEST PUSH0 PUSH1 0x40 MLOAD DUP1 DUP4 SUB DUP2 DUP7 GAS STATICCALL ISZERO DUP1 ISZERO PUSH2 0x12AE JUMPI RETURNDATASIZE PUSH0 DUP1 RETURNDATACOPY RETURNDATASIZE PUSH0 REVERT JUMPDEST POP POP POP POP PUSH1 0x40 MLOAD RETURNDATASIZE PUSH0 DUP3 RETURNDATACOPY RETURNDATASIZE PUSH1 0x1F NOT PUSH1 0x1F DUP3 ADD AND DUP3 ADD DUP1 PUSH1 0x40 MSTORE POP DUP2 ADD SWAP1 PUSH2 0x12D6 SWAP2 SWAP1 PUSH2 0x21EA JUMP JUMPDEST SWAP1 POP SWAP1 JUMP JUMPDEST PUSH1 0x60 PUSH1 0x8 PUSH0 SWAP1 SLOAD SWAP1 PUSH2 0x100 EXP SWAP1 DIV PUSH20 0xFFFFFFFFFFFFFFFFFFFFFFFFFFFFFFFFFFFFFFFF AND PUSH20 0xFFFFFFFFFFFFFFFFFFFFFFFFFFFFFFFFFFFFFFFF AND PUSH4 0xA8F5D7A6 DUP4 PUSH1 0x40 MLOAD DUP3 PUSH4 0xFFFFFFFF AND PUSH1 0xE0 SHL DUP2 MSTORE PUSH1 0x4 ADD PUSH2 0x1337 SWAP2 SWAP1 PUSH2 0x1B63 JUMP JUMPDEST PUSH0 PUSH1 0x40 MLOAD DUP1 DUP4 SUB DUP2 DUP7 GAS STATICCALL ISZERO DUP1 ISZERO PUSH2 0x1351 JUMPI RETURNDATASIZE PUSH0 DUP1 RETURNDATACOPY RETURNDATASIZE PUSH0 REVERT JUMPDEST POP POP POP POP PUSH1 0x40 MLOAD RETURNDATASIZE PUSH0 DUP3 RETURNDATACOPY RETURNDATASIZE PUSH1 0x1F NOT PUSH1 0x1F DUP3 ADD AND DUP3 ADD DUP1 PUSH1 0x40 MSTORE POP DUP2 ADD SWAP1 PUSH2 0x1379 SWAP2 SWAP1 PUSH2 0x21EA JUMP JUMPDEST SWAP1 POP SWAP2 SWAP1 POP JUMP JUMPDEST PUSH0 DUP1 PUSH20 0xFFFFFFFFFFFFFFFFFFFFFFFFFFFFFFFFFFFFFFFF AND DUP4 PUSH20 0xFFFFFFFFFFFFFFFFFFFFFFFFFFFFFFFFFFFFFFFF AND SUB PUSH2 0x13EF JUMPI PUSH1 0x40 MLOAD PUSH32 0x8C379A000000000000000000000000000000000000000000000000000000000 DUP2 MSTORE PUSH1 0x4 ADD PUSH2 0x13E6 SWAP1 PUSH2 0x215E JUMP JUMPDEST PUSH1 0x40 MLOAD DUP1 SWAP2 SUB SWAP1 REVERT JUMPDEST PUSH0 PUSH1 0x9 PUSH0 SWAP1 SLOAD SWAP1 PUSH2 0x100 EXP SWAP1 DIV PUSH20 0xFFFFFFFFFFFFFFFFFFFFFFFFFFFFFFFFFFFFFFFF AND PUSH20 0xFFFFFFFFFFFFFFFFFFFFFFFFFFFFFFFFFFFFFFFF AND PUSH4 0x58581383 CALLER PUSH1 0x40 MLOAD DUP3 PUSH4 0xFFFFFFFF AND PUSH1 0xE0 SHL DUP2 MSTORE PUSH1 0x4 ADD PUSH2 0x144A SWAP2 SWAP1 PUSH2 0x1F72 JUMP JUMPDEST PUSH0 PUSH1 0x40 MLOAD DUP1 DUP4 SUB DUP2 DUP7 GAS STATICCALL ISZERO DUP1 ISZERO PUSH2 0x1464 JUMPI RETURNDATASIZE PUSH0 DUP1 RETURNDATACOPY RETURNDATASIZE PUSH0 REVERT JUMPDEST POP POP POP POP PUSH1 0x40 MLOAD RETURNDATASIZE PUSH0 DUP3 RETURNDATACOPY RETURNDATASIZE PUSH1 0x1F NOT PUSH1 0x1F DUP3 ADD AND DUP3 ADD DUP1 PUSH1 0x40 MSTORE POP DUP2 ADD SWAP1 PUSH2 0x148C SWAP2 SWAP1 PUSH2 0x21EA JUMP JUMPDEST SWAP1 POP PUSH0 PUSH1 0x7 DUP3 PUSH1 0x40 MLOAD PUSH2 0x149F SWAP2 SWAP1 PUSH2 0x226B JUMP JUMPDEST SWAP1 DUP2 MSTORE PUSH1 0x20 ADD PUSH1 0x40 MLOAD DUP1 SWAP2 SUB SWAP1 KECCAK256 SLOAD SWAP1 POP DUP4 DUP2 LT ISZERO PUSH2 0x14F3 JUMPI PUSH1 0x40 MLOAD PUSH32 0x8C379A000000000000000000000000000000000000000000000000000000000 DUP2 MSTORE PUSH1 0x4 ADD PUSH2 0x14EA SWAP1 PUSH2 0x22CB JUMP JUMPDEST PUSH1 0x40 MLOAD DUP1 SWAP2 SUB SWAP1 REVERT JUMPDEST DUP4 PUSH1 0x7 DUP4 PUSH1 0x40 MLOAD PUSH2 0x1504 SWAP2 SWAP1 PUSH2 0x226B JUMP JUMPDEST SWAP1 DUP2 MSTORE PUSH1 0x20 ADD PUSH1 0x40 MLOAD DUP1 SWAP2 SUB SWAP1 KECCAK256 PUSH0 DUP3 DUP3 SLOAD PUSH2 0x1520 SWAP2 SWAP1 PUSH2 0x2316 JUMP JUMPDEST SWAP3 POP POP DUP2 SWAP1 SSTORE POP DUP5 PUSH20 0xFFFFFFFFFFFFFFFFFFFFFFFFFFFFFFFFFFFFFFFF AND CALLER PUSH20 0xFFFFFFFFFFFFFFFFFFFFFFFFFFFFFFFFFFFFFFFF AND PUSH32 0xDDF252AD1BE2C89B69C2B068FC378DAA952BA7F163C4A11628F55A4DF523B3EF DUP7 PUSH1 0x40 MLOAD PUSH2 0x1584 SWAP2 SWAP1 PUSH2 0x1CA1 JUMP JUMPDEST PUSH1 0x40 MLOAD DUP1 SWAP2 SUB SWAP1 LOG3 PUSH1 0x6 PUSH0 SWAP1 SLOAD SWAP1 PUSH2 0x100 EXP SWAP1 DIV PUSH20 0xFFFFFFFFFFFFFFFFFFFFFFFFFFFFFFFFFFFFFFFF AND PUSH20 0xFFFFFFFFFFFFFFFFFFFFFFFFFFFFFFFFFFFFFFFF AND PUSH4 0xA9059CBB DUP7 DUP7 PUSH1 0x40 MLOAD DUP4 PUSH4 0xFFFFFFFF AND PUSH1 0xE0 SHL DUP2 MSTORE PUSH1 0x4 ADD PUSH2 0x15E8 SWAP3 SWAP2 SWAP1 PUSH2 0x2349 JUMP JUMPDEST PUSH1 0x20 PUSH1 0x40 MLOAD DUP1 DUP4 SUB DUP2 PUSH0 DUP8 GAS CALL ISZERO DUP1 ISZERO PUSH2 0x1604 JUMPI RETURNDATASIZE PUSH0 DUP1 RETURNDATACOPY RETURNDATASIZE PUSH0 REVERT JUMPDEST POP POP POP POP PUSH1 0x40 MLOAD RETURNDATASIZE PUSH1 0x1F NOT PUSH1 0x1F DUP3 ADD AND DUP3 ADD DUP1 PUSH1 0x40 MSTORE POP DUP2 ADD SWAP1 PUSH2 0x1628 SWAP2 SWAP1 PUSH2 0x239A JUMP JUMPDEST POP PUSH1 0x1 SWAP3 POP POP POP SWAP3 SWAP2 POP POP JUMP JUMPDEST PUSH0 PUSH1 0x6 PUSH0 SWAP1 SLOAD SWAP1 PUSH2 0x100 EXP SWAP1 DIV PUSH20 0xFFFFFFFFFFFFFFFFFFFFFFFFFFFFFFFFFFFFFFFF AND PUSH20 0xFFFFFFFFFFFFFFFFFFFFFFFFFFFFFFFFFFFFFFFF AND PUSH4 0xDD62ED3E DUP5 DUP5 PUSH1 0x40 MLOAD DUP4 PUSH4 0xFFFFFFFF AND PUSH1 0xE0 SHL DUP2 MSTORE PUSH1 0x4 ADD PUSH2 0x1692 SWAP3 SWAP2 SWAP1 PUSH2 0x256F JUMP JUMPDEST PUSH1 0x20 PUSH1 0x40 MLOAD DUP1 DUP4 SUB DUP2 DUP7 GAS STATICCALL ISZERO DUP1 ISZERO PUSH2 0x16AD JUMPI RETURNDATASIZE PUSH0 DUP1 RETURNDATACOPY RETURNDATASIZE PUSH0 REVERT JUMPDEST POP POP POP POP PUSH1 0x40 MLOAD RETURNDATASIZE PUSH1 0x1F NOT PUSH1 0x1F DUP3 ADD AND DUP3 ADD DUP1 PUSH1 0x40 MSTORE POP DUP2 ADD SWAP1 PUSH2 0x16D1 SWAP2 SWAP1 PUSH2 0x20E9 JUMP JUMPDEST SWAP1 POP SWAP3 SWAP2 POP POP JUMP JUMPDEST PUSH1 0x7 DUP2 DUP1 MLOAD PUSH1 0x20 DUP2 ADD DUP3 ADD DUP1 MLOAD DUP5 DUP3 MSTORE PUSH1 0x20 DUP4 ADD PUSH1 0x20 DUP6 ADD KECCAK256 DUP2 DUP4 MSTORE DUP1 SWAP6 POP POP POP POP POP POP PUSH0 SWAP2 POP SWAP1 POP SLOAD DUP2 JUMP JUMPDEST PUSH2 0x170E PUSH2 0x1988 JUMP JUMPDEST PUSH0 PUSH20 0xFFFFFFFFFFFFFFFFFFFFFFFFFFFFFFFFFFFFFFFF AND DUP2 PUSH20 0xFFFFFFFFFFFFFFFFFFFFFFFFFFFFFFFFFFFFFFFF AND SUB PUSH2 0x177E JUMPI PUSH0 PUSH1 0x40 MLOAD PUSH32 0x1E4FBDF700000000000000000000000000000000000000000000000000000000 DUP2 MSTORE PUSH1 0x4 ADD PUSH2 0x1775 SWAP2 SWAP1 PUSH2 0x1F72 JUMP JUMPDEST PUSH1 0x40 MLOAD DUP1 SWAP2 SUB SWAP1 REVERT JUMPDEST PUSH2 0x1787 DUP2 PUSH2 0x1A0F JUMP JUMPDEST POP JUMP JUMPDEST PUSH0 PUSH2 0x1793 PUSH2 0x1988 JUMP JUMPDEST PUSH0 PUSH20 0xFFFFFFFFFFFFFFFFFFFFFFFFFFFFFFFFFFFFFFFF AND DUP4 PUSH20 0xFFFFFFFFFFFFFFFFFFFFFFFFFFFFFFFFFFFFFFFF AND SUB PUSH2 0x1801 JUMPI PUSH1 0x40 MLOAD PUSH32 0x8C379A000000000000000000000000000000000000000000000000000000000 DUP2 MSTORE PUSH1 0x4 ADD PUSH2 0x17F8 SWAP1 PUSH2 0x267D JUMP JUMPDEST PUSH1 0x40 MLOAD DUP1 SWAP2 SUB SWAP1 REVERT JUMPDEST PUSH0 PUSH1 0x6 PUSH0 SWAP1 SLOAD SWAP1 PUSH2 0x100 EXP SWAP1 DIV PUSH20 0xFFFFFFFFFFFFFFFFFFFFFFFFFFFFFFFFFFFFFFFF AND PUSH20 0xFFFFFFFFFFFFFFFFFFFFFFFFFFFFFFFFFFFFFFFF AND PUSH4 0x70A08231 ADDRESS PUSH1 0x40 MLOAD DUP3 PUSH4 0xFFFFFFFF AND PUSH1 0xE0 SHL DUP2 MSTORE PUSH1 0x4 ADD PUSH2 0x185C SWAP2 SWAP1 PUSH2 0x1F72 JUMP JUMPDEST PUSH1 0x20 PUSH1 0x40 MLOAD DUP1 DUP4 SUB DUP2 DUP7 GAS STATICCALL ISZERO DUP1 ISZERO PUSH2 0x1877 JUMPI RETURNDATASIZE PUSH0 DUP1 RETURNDATACOPY RETURNDATASIZE PUSH0 REVERT JUMPDEST POP POP POP POP PUSH1 0x40 MLOAD RETURNDATASIZE PUSH1 0x1F NOT PUSH1 0x1F DUP3 ADD AND DUP3 ADD DUP1 PUSH1 0x40 MSTORE POP DUP2 ADD SWAP1 PUSH2 0x189B SWAP2 SWAP1 PUSH2 0x20E9 JUMP JUMPDEST SWAP1 POP DUP3 DUP2 LT ISZERO PUSH2 0x18E0 JUMPI PUSH1 0x40 MLOAD PUSH32 0x8C379A000000000000000000000000000000000000000000000000000000000 DUP2 MSTORE PUSH1 0x4 ADD PUSH2 0x18D7 SWAP1 PUSH2 0x22CB JUMP JUMPDEST PUSH1 0x40 MLOAD DUP1 SWAP2 SUB SWAP1 REVERT JUMPDEST PUSH1 0x6 PUSH0 SWAP1 SLOAD SWAP1 PUSH2 0x100 EXP SWAP1 DIV PUSH20 0xFFFFFFFFFFFFFFFFFFFFFFFFFFFFFFFFFFFFFFFF AND PUSH20 0xFFFFFFFFFFFFFFFFFFFFFFFFFFFFFFFFFFFFFFFF AND PUSH4 0xA9059CBB DUP6 DUP6 PUSH1 0x40 MLOAD DUP4 PUSH4 0xFFFFFFFF AND PUSH1 0xE0 SHL DUP2 MSTORE PUSH1 0x4 ADD PUSH2 0x193C SWAP3 SWAP2 SWAP1 PUSH2 0x2349 JUMP JUMPDEST PUSH1 0x20 PUSH1 0x40 MLOAD DUP1 DUP4 SUB DUP2 PUSH0 DUP8 GAS CALL ISZERO DUP1 ISZERO PUSH2 0x1958 JUMPI RETURNDATASIZE PUSH0 DUP1 RETURNDATACOPY RETURNDATASIZE PUSH0 REVERT JUMPDEST POP POP POP POP PUSH1 0x40 MLOAD RETURNDATASIZE PUSH1 0x1F NOT PUSH1 0x1F DUP3 ADD AND DUP3 ADD DUP1 PUSH1 0x40 MSTORE POP DUP2 ADD SWAP1 PUSH2 0x197C SWAP2 SWAP1 PUSH2 0x239A JUMP JUMPDEST POP PUSH1 0x1 SWAP2 POP POP SWAP3 SWAP2 POP POP JUMP JUMPDEST PUSH2 0x1990 PUSH2 0x1AD2 JUMP JUMPDEST PUSH20 0xFFFFFFFFFFFFFFFFFFFFFFFFFFFFFFFFFFFFFFFF AND PUSH2 0x19AE PUSH2 0x1159 JUMP JUMPDEST PUSH20 0xFFFFFFFFFFFFFFFFFFFFFFFFFFFFFFFFFFFFFFFF AND EQ PUSH2 0x1A0D JUMPI PUSH2 0x19D1 PUSH2 0x1AD2 JUMP JUMPDEST PUSH1 0x40 MLOAD PUSH32 0x118CDAA700000000000000000000000000000000000000000000000000000000 DUP2 MSTORE PUSH1 0x4 ADD PUSH2 0x1A04 SWAP2 SWAP1 PUSH2 0x1F72 JUMP JUMPDEST PUSH1 0x40 MLOAD DUP1 SWAP2 SUB SWAP1 REVERT JUMPDEST JUMP JUMPDEST PUSH0 PUSH1 0x5 PUSH0 SWAP1 SLOAD SWAP1 PUSH2 0x100 EXP SWAP1 DIV PUSH20 0xFFFFFFFFFFFFFFFFFFFFFFFFFFFFFFFFFFFFFFFF AND SWAP1 POP DUP2 PUSH1 0x5 PUSH0 PUSH2 0x100 EXP DUP2 SLOAD DUP2 PUSH20 0xFFFFFFFFFFFFFFFFFFFFFFFFFFFFFFFFFFFFFFFF MUL NOT AND SWAP1 DUP4 PUSH20 0xFFFFFFFFFFFFFFFFFFFFFFFFFFFFFFFFFFFFFFFF AND MUL OR SWAP1 SSTORE POP DUP2 PUSH20 0xFFFFFFFFFFFFFFFFFFFFFFFFFFFFFFFFFFFFFFFF AND DUP2 PUSH20 0xFFFFFFFFFFFFFFFFFFFFFFFFFFFFFFFFFFFFFFFF AND PUSH32 0x8BE0079C531659141344CD1FD0A4F28419497F9722A3DAAFE3B4186F6B6457E0 PUSH1 0x40 MLOAD PUSH1 0x40 MLOAD DUP1 SWAP2 SUB SWAP1 LOG3 POP POP JUMP JUMPDEST PUSH0 CALLER SWAP1 POP SWAP1 JUMP JUMPDEST PUSH0 DUP2 MLOAD SWAP1 POP SWAP2 SWAP1 POP JUMP JUMPDEST PUSH0 DUP3 DUP3 MSTORE PUSH1 0x20 DUP3 ADD SWAP1 POP SWAP3 SWAP2 POP POP JUMP JUMPDEST PUSH0 JUMPDEST DUP4 DUP2 LT ISZERO PUSH2 0x1B10 JUMPI DUP1 DUP3 ADD MLOAD DUP2 DUP5 ADD MSTORE PUSH1 0x20 DUP2 ADD SWAP1 POP PUSH2 0x1AF5 JUMP JUMPDEST PUSH0 DUP5 DUP5 ADD MSTORE POP POP POP POP JUMP JUMPDEST PUSH0 PUSH1 0x1F NOT PUSH1 0x1F DUP4 ADD AND SWAP1 POP SWAP2 SWAP1 POP JUMP JUMPDEST PUSH0 PUSH2 0x1B35 DUP3 PUSH2 0x1AD9 JUMP JUMPDEST PUSH2 0x1B3F DUP2 DUP6 PUSH2 0x1AE3 JUMP JUMPDEST SWAP4 POP PUSH2 0x1B4F DUP2 DUP6 PUSH1 0x20 DUP7 ADD PUSH2 0x1AF3 JUMP JUMPDEST PUSH2 0x1B58 DUP2 PUSH2 0x1B1B JUMP JUMPDEST DUP5 ADD SWAP2 POP POP SWAP3 SWAP2 POP POP JUMP JUMPDEST PUSH0 PUSH1 0x20 DUP3 ADD SWAP1 POP DUP2 DUP2 SUB PUSH0 DUP4 ADD MSTORE PUSH2 0x1B7B DUP2 DUP5 PUSH2 0x1B2B JUMP JUMPDEST SWAP1 POP SWAP3 SWAP2 POP POP JUMP JUMPDEST PUSH0 PUSH1 0x40 MLOAD SWAP1 POP SWAP1 JUMP JUMPDEST PUSH0 DUP1 REVERT JUMPDEST PUSH0 DUP1 REVERT JUMPDEST PUSH0 PUSH20 0xFFFFFFFFFFFFFFFFFFFFFFFFFFFFFFFFFFFFFFFF DUP3 AND SWAP1 POP SWAP2 SWAP1 POP JUMP JUMPDEST PUSH0 PUSH2 0x1BBD DUP3 PUSH2 0x1B94 JUMP JUMPDEST SWAP1 POP SWAP2 SWAP1 POP JUMP JUMPDEST PUSH2 0x1BCD DUP2 PUSH2 0x1BB3 JUMP JUMPDEST DUP2 EQ PUSH2 0x1BD7 JUMPI PUSH0 DUP1 REVERT JUMPDEST POP JUMP JUMPDEST PUSH0 DUP2 CALLDATALOAD SWAP1 POP PUSH2 0x1BE8 DUP2 PUSH2 0x1BC4 JUMP JUMPDEST SWAP3 SWAP2 POP POP JUMP JUMPDEST PUSH0 DUP2 SWAP1 POP SWAP2 SWAP1 POP JUMP JUMPDEST PUSH2 0x1C00 DUP2 PUSH2 0x1BEE JUMP JUMPDEST DUP2 EQ PUSH2 0x1C0A JUMPI PUSH0 DUP1 REVERT JUMPDEST POP JUMP JUMPDEST PUSH0 DUP2 CALLDATALOAD SWAP1 POP PUSH2 0x1C1B DUP2 PUSH2 0x1BF7 JUMP JUMPDEST SWAP3 SWAP2 POP POP JUMP JUMPDEST PUSH0 DUP1 PUSH1 0x40 DUP4 DUP6 SUB SLT ISZERO PUSH2 0x1C37 JUMPI PUSH2 0x1C36 PUSH2 0x1B8C JUMP JUMPDEST JUMPDEST PUSH0 PUSH2 0x1C44 DUP6 DUP3 DUP7 ADD PUSH2 0x1BDA JUMP JUMPDEST SWAP3 POP POP PUSH1 0x20 PUSH2 0x1C55 DUP6 DUP3 DUP7 ADD PUSH2 0x1C0D JUMP JUMPDEST SWAP2 POP POP SWAP3 POP SWAP3 SWAP1 POP JUMP JUMPDEST PUSH0 DUP2 ISZERO ISZERO SWAP1 POP SWAP2 SWAP1 POP JUMP JUMPDEST PUSH2 0x1C73 DUP2 PUSH2 0x1C5F JUMP JUMPDEST DUP3 MSTORE POP POP JUMP JUMPDEST PUSH0 PUSH1 0x20 DUP3 ADD SWAP1 POP PUSH2 0x1C8C PUSH0 DUP4 ADD DUP5 PUSH2 0x1C6A JUMP JUMPDEST SWAP3 SWAP2 POP POP JUMP JUMPDEST PUSH2 0x1C9B DUP2 PUSH2 0x1BEE JUMP JUMPDEST DUP3 MSTORE POP POP JUMP JUMPDEST PUSH0 PUSH1 0x20 DUP3 ADD SWAP1 POP PUSH2 0x1CB4 PUSH0 DUP4 ADD DUP5 PUSH2 0x1C92 JUMP JUMPDEST SWAP3 SWAP2 POP POP JUMP JUMPDEST PUSH0 DUP1 PUSH0 PUSH1 0x60 DUP5 DUP7 SUB SLT ISZERO PUSH2 0x1CD1 JUMPI PUSH2 0x1CD0 PUSH2 0x1B8C JUMP JUMPDEST JUMPDEST PUSH0 PUSH2 0x1CDE DUP7 DUP3 DUP8 ADD PUSH2 0x1BDA JUMP JUMPDEST SWAP4 POP POP PUSH1 0x20 PUSH2 0x1CEF DUP7 DUP3 DUP8 ADD PUSH2 0x1BDA JUMP JUMPDEST SWAP3 POP POP PUSH1 0x40 PUSH2 0x1D00 DUP7 DUP3 DUP8 ADD PUSH2 0x1C0D JUMP JUMPDEST SWAP2 POP POP SWAP3 POP SWAP3 POP SWAP3 JUMP JUMPDEST PUSH0 PUSH1 0xFF DUP3 AND SWAP1 POP SWAP2 SWAP1 POP JUMP JUMPDEST PUSH2 0x1D1F DUP2 PUSH2 0x1D0A JUMP JUMPDEST DUP3 MSTORE POP POP JUMP JUMPDEST PUSH0 PUSH1 0x20 DUP3 ADD SWAP1 POP PUSH2 0x1D38 PUSH0 DUP4 ADD DUP5 PUSH2 0x1D16 JUMP JUMPDEST SWAP3 SWAP2 POP POP JUMP JUMPDEST PUSH0 DUP2 SWAP1 POP SWAP2 SWAP1 POP JUMP JUMPDEST PUSH0 PUSH2 0x1D61 PUSH2 0x1D5C PUSH2 0x1D57 DUP5 PUSH2 0x1B94 JUMP JUMPDEST PUSH2 0x1D3E JUMP JUMPDEST PUSH2 0x1B94 JUMP JUMPDEST SWAP1 POP SWAP2 SWAP1 POP JUMP JUMPDEST PUSH0 PUSH2 0x1D72 DUP3 PUSH2 0x1D47 JUMP JUMPDEST SWAP1 POP SWAP2 SWAP1 POP JUMP JUMPDEST PUSH0 PUSH2 0x1D83 DUP3 PUSH2 0x1D68 JUMP JUMPDEST SWAP1 POP SWAP2 SWAP1 POP JUMP JUMPDEST PUSH2 0x1D93 DUP2 PUSH2 0x1D79 JUMP JUMPDEST DUP3 MSTORE POP POP JUMP JUMPDEST PUSH0 PUSH1 0x20 DUP3 ADD SWAP1 POP PUSH2 0x1DAC PUSH0 DUP4 ADD DUP5 PUSH2 0x1D8A JUMP JUMPDEST SWAP3 SWAP2 POP POP JUMP JUMPDEST PUSH0 DUP1 REVERT JUMPDEST PUSH0 DUP1 REVERT JUMPDEST PUSH32 0x4E487B7100000000000000000000000000000000000000000000000000000000 PUSH0 MSTORE PUSH1 0x41 PUSH1 0x4 MSTORE PUSH1 0x24 PUSH0 REVERT JUMPDEST PUSH2 0x1DF0 DUP3 PUSH2 0x1B1B JUMP JUMPDEST DUP2 ADD DUP2 DUP2 LT PUSH8 0xFFFFFFFFFFFFFFFF DUP3 GT OR ISZERO PUSH2 0x1E0F JUMPI PUSH2 0x1E0E PUSH2 0x1DBA JUMP JUMPDEST JUMPDEST DUP1 PUSH1 0x40 MSTORE POP POP POP JUMP JUMPDEST PUSH0 PUSH2 0x1E21 PUSH2 0x1B83 JUMP JUMPDEST SWAP1 POP PUSH2 0x1E2D DUP3 DUP3 PUSH2 0x1DE7 JUMP JUMPDEST SWAP2 SWAP1 POP JUMP JUMPDEST PUSH0 PUSH8 0xFFFFFFFFFFFFFFFF DUP3 GT ISZERO PUSH2 0x1E4C JUMPI PUSH2 0x1E4B PUSH2 0x1DBA JUMP JUMPDEST JUMPDEST PUSH2 0x1E55 DUP3 PUSH2 0x1B1B JUMP JUMPDEST SWAP1 POP PUSH1 0x20 DUP2 ADD SWAP1 POP SWAP2 SWAP1 POP JUMP JUMPDEST DUP3 DUP2 DUP4 CALLDATACOPY PUSH0 DUP4 DUP4 ADD MSTORE POP POP POP JUMP JUMPDEST PUSH0 PUSH2 0x1E82 PUSH2 0x1E7D DUP5 PUSH2 0x1E32 JUMP JUMPDEST PUSH2 0x1E18 JUMP JUMPDEST SWAP1 POP DUP3 DUP2 MSTORE PUSH1 0x20 DUP2 ADD DUP5 DUP5 DUP5 ADD GT ISZERO PUSH2 0x1E9E JUMPI PUSH2 0x1E9D PUSH2 0x1DB6 JUMP JUMPDEST JUMPDEST PUSH2 0x1EA9 DUP5 DUP3 DUP6 PUSH2 0x1E62 JUMP JUMPDEST POP SWAP4 SWAP3 POP POP POP JUMP JUMPDEST PUSH0 DUP3 PUSH1 0x1F DUP4 ADD SLT PUSH2 0x1EC5 JUMPI PUSH2 0x1EC4 PUSH2 0x1DB2 JUMP JUMPDEST JUMPDEST DUP2 CALLDATALOAD PUSH2 0x1ED5 DUP5 DUP3 PUSH1 0x20 DUP7 ADD PUSH2 0x1E70 JUMP JUMPDEST SWAP2 POP POP SWAP3 SWAP2 POP POP JUMP JUMPDEST PUSH0 DUP1 PUSH1 0x40 DUP4 DUP6 SUB SLT ISZERO PUSH2 0x1EF4 JUMPI PUSH2 0x1EF3 PUSH2 0x1B8C JUMP JUMPDEST JUMPDEST PUSH0 DUP4 ADD CALLDATALOAD PUSH8 0xFFFFFFFFFFFFFFFF DUP2 GT ISZERO PUSH2 0x1F11 JUMPI PUSH2 0x1F10 PUSH2 0x1B90 JUMP JUMPDEST JUMPDEST PUSH2 0x1F1D DUP6 DUP3 DUP7 ADD PUSH2 0x1EB1 JUMP JUMPDEST SWAP3 POP POP PUSH1 0x20 PUSH2 0x1F2E DUP6 DUP3 DUP7 ADD PUSH2 0x1C0D JUMP JUMPDEST SWAP2 POP POP SWAP3 POP SWAP3 SWAP1 POP JUMP JUMPDEST PUSH0 PUSH1 0x20 DUP3 DUP5 SUB SLT ISZERO PUSH2 0x1F4D JUMPI PUSH2 0x1F4C PUSH2 0x1B8C JUMP JUMPDEST JUMPDEST PUSH0 PUSH2 0x1F5A DUP5 DUP3 DUP6 ADD PUSH2 0x1BDA JUMP JUMPDEST SWAP2 POP POP SWAP3 SWAP2 POP POP JUMP JUMPDEST PUSH2 0x1F6C DUP2 PUSH2 0x1BB3 JUMP JUMPDEST DUP3 MSTORE POP POP JUMP JUMPDEST PUSH0 PUSH1 0x20 DUP3 ADD SWAP1 POP PUSH2 0x1F85 PUSH0 DUP4 ADD DUP5 PUSH2 0x1F63 JUMP JUMPDEST SWAP3 SWAP2 POP POP JUMP JUMPDEST PUSH0 PUSH1 0x20 DUP3 DUP5 SUB SLT ISZERO PUSH2 0x1FA0 JUMPI PUSH2 0x1F9F PUSH2 0x1B8C JUMP JUMPDEST JUMPDEST PUSH0 DUP3 ADD CALLDATALOAD PUSH8 0xFFFFFFFFFFFFFFFF DUP2 GT ISZERO PUSH2 0x1FBD JUMPI PUSH2 0x1FBC PUSH2 0x1B90 JUMP JUMPDEST JUMPDEST PUSH2 0x1FC9 DUP5 DUP3 DUP6 ADD PUSH2 0x1EB1 JUMP JUMPDEST SWAP2 POP POP SWAP3 SWAP2 POP POP JUMP JUMPDEST PUSH0 DUP1 PUSH1 0x40 DUP4 DUP6 SUB SLT ISZERO PUSH2 0x1FE8 JUMPI PUSH2 0x1FE7 PUSH2 0x1B8C JUMP JUMPDEST JUMPDEST PUSH0 PUSH2 0x1FF5 DUP6 DUP3 DUP7 ADD PUSH2 0x1BDA JUMP JUMPDEST SWAP3 POP POP PUSH1 0x20 PUSH2 0x2006 DUP6 DUP3 DUP7 ADD PUSH2 0x1BDA JUMP JUMPDEST SWAP2 POP POP SWAP3 POP SWAP3 SWAP1 POP JUMP JUMPDEST PUSH32 0x4E487B7100000000000000000000000000000000000000000000000000000000 PUSH0 MSTORE PUSH1 0x22 PUSH1 0x4 MSTORE PUSH1 0x24 PUSH0 REVERT JUMPDEST PUSH0 PUSH1 0x2 DUP3 DIV SWAP1 POP PUSH1 0x1 DUP3 AND DUP1 PUSH2 0x2054 JUMPI PUSH1 0x7F DUP3 AND SWAP2 POP JUMPDEST PUSH1 0x20 DUP3 LT DUP2 SUB PUSH2 0x2067 JUMPI PUSH2 0x2066 PUSH2 0x2010 JUMP JUMPDEST JUMPDEST POP SWAP2 SWAP1 POP JUMP JUMPDEST PUSH32 0x417070726F76652066756E6374696F6E2069732064697361626C656400000000 PUSH0 DUP3 ADD MSTORE POP JUMP JUMPDEST PUSH0 PUSH2 0x20A1 PUSH1 0x1C DUP4 PUSH2 0x1AE3 JUMP JUMPDEST SWAP2 POP PUSH2 0x20AC DUP3 PUSH2 0x206D JUMP JUMPDEST PUSH1 0x20 DUP3 ADD SWAP1 POP SWAP2 SWAP1 POP JUMP JUMPDEST PUSH0 PUSH1 0x20 DUP3 ADD SWAP1 POP DUP2 DUP2 SUB PUSH0 DUP4 ADD MSTORE PUSH2 0x20CE DUP2 PUSH2 0x2095 JUMP JUMPDEST SWAP1 POP SWAP2 SWAP1 POP JUMP JUMPDEST PUSH0 DUP2 MLOAD SWAP1 POP PUSH2 0x20E3 DUP2 PUSH2 0x1BF7 JUMP JUMPDEST SWAP3 SWAP2 POP POP JUMP JUMPDEST PUSH0 PUSH1 0x20 DUP3 DUP5 SUB SLT ISZERO PUSH2 0x20FE JUMPI PUSH2 0x20FD PUSH2 0x1B8C JUMP JUMPDEST JUMPDEST PUSH0 PUSH2 0x210B DUP5 DUP3 DUP6 ADD PUSH2 0x20D5 JUMP JUMPDEST SWAP2 POP POP SWAP3 SWAP2 POP POP JUMP JUMPDEST PUSH32 0x5472616E7366657220746F207A65726F20616464726573730000000000000000 PUSH0 DUP3 ADD MSTORE POP JUMP JUMPDEST PUSH0 PUSH2 0x2148 PUSH1 0x18 DUP4 PUSH2 0x1AE3 JUMP JUMPDEST SWAP2 POP PUSH2 0x2153 DUP3 PUSH2 0x2114 JUMP JUMPDEST PUSH1 0x20 DUP3 ADD SWAP1 POP SWAP2 SWAP1 POP JUMP JUMPDEST PUSH0 PUSH1 0x20 DUP3 ADD SWAP1 POP DUP2 DUP2 SUB PUSH0 DUP4 ADD MSTORE PUSH2 0x2175 DUP2 PUSH2 0x213C JUMP JUMPDEST SWAP1 POP SWAP2 SWAP1 POP JUMP JUMPDEST PUSH0 PUSH2 0x218E PUSH2 0x2189 DUP5 PUSH2 0x1E32 JUMP JUMPDEST PUSH2 0x1E18 JUMP JUMPDEST SWAP1 POP DUP3 DUP2 MSTORE PUSH1 0x20 DUP2 ADD DUP5 DUP5 DUP5 ADD GT ISZERO PUSH2 0x21AA JUMPI PUSH2 0x21A9 PUSH2 0x1DB6 JUMP JUMPDEST JUMPDEST PUSH2 0x21B5 DUP5 DUP3 DUP6 PUSH2 0x1AF3 JUMP JUMPDEST POP SWAP4 SWAP3 POP POP POP JUMP JUMPDEST PUSH0 DUP3 PUSH1 0x1F DUP4 ADD SLT PUSH2 0x21D1 JUMPI PUSH2 0x21D0 PUSH2 0x1DB2 JUMP JUMPDEST JUMPDEST DUP2 MLOAD PUSH2 0x21E1 DUP5 DUP3 PUSH1 0x20 DUP7 ADD PUSH2 0x217C JUMP JUMPDEST SWAP2 POP POP SWAP3 SWAP2 POP POP JUMP JUMPDEST PUSH0 PUSH1 0x20 DUP3 DUP5 SUB SLT ISZERO PUSH2 0x21FF JUMPI PUSH2 0x21FE PUSH2 0x1B8C JUMP JUMPDEST JUMPDEST PUSH0 DUP3 ADD MLOAD PUSH8 0xFFFFFFFFFFFFFFFF DUP2 GT ISZERO PUSH2 0x221C JUMPI PUSH2 0x221B PUSH2 0x1B90 JUMP JUMPDEST JUMPDEST PUSH2 0x2228 DUP5 DUP3 DUP6 ADD PUSH2 0x21BD JUMP JUMPDEST SWAP2 POP POP SWAP3 SWAP2 POP POP JUMP JUMPDEST PUSH0 DUP2 SWAP1 POP SWAP3 SWAP2 POP POP JUMP JUMPDEST PUSH0 PUSH2 0x2245 DUP3 PUSH2 0x1AD9 JUMP JUMPDEST PUSH2 0x224F DUP2 DUP6 PUSH2 0x2231 JUMP JUMPDEST SWAP4 POP PUSH2 0x225F DUP2 DUP6 PUSH1 0x20 DUP7 ADD PUSH2 0x1AF3 JUMP JUMPDEST DUP1 DUP5 ADD SWAP2 POP POP SWAP3 SWAP2 POP POP JUMP JUMPDEST PUSH0 PUSH2 0x2276 DUP3 DUP5 PUSH2 0x223B JUMP JUMPDEST SWAP2 POP DUP2 SWAP1 POP SWAP3 SWAP2 POP POP JUMP JUMPDEST PUSH32 0x4E6F7420656E6F7567682062616C616E63650000000000000000000000000000 PUSH0 DUP3 ADD MSTORE POP JUMP JUMPDEST PUSH0 PUSH2 0x22B5 PUSH1 0x12 DUP4 PUSH2 0x1AE3 JUMP JUMPDEST SWAP2 POP PUSH2 0x22C0 DUP3 PUSH2 0x2281 JUMP JUMPDEST PUSH1 0x20 DUP3 ADD SWAP1 POP SWAP2 SWAP1 POP JUMP JUMPDEST PUSH0 PUSH1 0x20 DUP3 ADD SWAP1 POP DUP2 DUP2 SUB PUSH0 DUP4 ADD MSTORE PUSH2 0x22E2 DUP2 PUSH2 0x22A9 JUMP JUMPDEST SWAP1 POP SWAP2 SWAP1 POP JUMP JUMPDEST PUSH32 0x4E487B7100000000000000000000000000000000000000000000000000000000 PUSH0 MSTORE PUSH1 0x11 PUSH1 0x4 MSTORE PUSH1 0x24 PUSH0 REVERT JUMPDEST PUSH0 PUSH2 0x2320 DUP3 PUSH2 0x1BEE JUMP JUMPDEST SWAP2 POP PUSH2 0x232B DUP4 PUSH2 0x1BEE JUMP JUMPDEST SWAP3 POP DUP3 DUP3 SUB SWAP1 POP DUP2 DUP2 GT ISZERO PUSH2 0x2343 JUMPI PUSH2 0x2342 PUSH2 0x22E9 JUMP JUMPDEST JUMPDEST SWAP3 SWAP2 POP POP JUMP JUMPDEST PUSH0 PUSH1 0x40 DUP3 ADD SWAP1 POP PUSH2 0x235C PUSH0 DUP4 ADD DUP6 PUSH2 0x1F63 JUMP JUMPDEST PUSH2 0x2369 PUSH1 0x20 DUP4 ADD DUP5 PUSH2 0x1C92 JUMP JUMPDEST SWAP4 SWAP3 POP POP POP JUMP JUMPDEST PUSH2 0x2379 DUP2 PUSH2 0x1C5F JUMP JUMPDEST DUP2 EQ PUSH2 0x2383 JUMPI PUSH0 DUP1 REVERT JUMPDEST POP JUMP JUMPDEST PUSH0 DUP2 MLOAD SWAP1 POP PUSH2 0x2394 DUP2 PUSH2 0x2370 JUMP JUMPDEST SWAP3 SWAP2 POP POP JUMP JUMPDEST PUSH0 PUSH1 0x20 DUP3 DUP5 SUB SLT ISZERO PUSH2 0x23AF JUMPI PUSH2 0x23AE PUSH2 0x1B8C JUMP JUMPDEST JUMPDEST PUSH0 PUSH2 0x23BC DUP5 DUP3 DUP6 ADD PUSH2 0x2386 JUMP JUMPDEST SWAP2 POP POP SWAP3 SWAP2 POP POP JUMP JUMPDEST PUSH32 0x55454E20646F6573206E6F742065786973740000000000000000000000000000 PUSH0 DUP3 ADD MSTORE POP JUMP JUMPDEST PUSH0 PUSH2 0x23F9 PUSH1 0x12 DUP4 PUSH2 0x1AE3 JUMP JUMPDEST SWAP2 POP PUSH2 0x2404 DUP3 PUSH2 0x23C5 JUMP JUMPDEST PUSH1 0x20 DUP3 ADD SWAP1 POP SWAP2 SWAP1 POP JUMP JUMPDEST PUSH0 PUSH1 0x20 DUP3 ADD SWAP1 POP DUP2 DUP2 SUB PUSH0 DUP4 ADD MSTORE PUSH2 0x2426 DUP2 PUSH2 0x23ED JUMP JUMPDEST SWAP1 POP SWAP2 SWAP1 POP JUMP JUMPDEST PUSH32 0x55454E2074617267657420697320656D70747900000000000000000000000000 PUSH0 DUP3 ADD MSTORE POP JUMP JUMPDEST PUSH0 PUSH2 0x2461 PUSH1 0x13 DUP4 PUSH2 0x1AE3 JUMP JUMPDEST SWAP2 POP PUSH2 0x246C DUP3 PUSH2 0x242D JUMP JUMPDEST PUSH1 0x20 DUP3 ADD SWAP1 POP SWAP2 SWAP1 POP JUMP JUMPDEST PUSH0 PUSH1 0x20 DUP3 ADD SWAP1 POP DUP2 DUP2 SUB PUSH0 DUP4 ADD MSTORE PUSH2 0x248E DUP2 PUSH2 0x2455 JUMP JUMPDEST SWAP1 POP SWAP2 SWAP1 POP JUMP JUMPDEST PUSH0 PUSH2 0x249F DUP3 PUSH2 0x1BEE JUMP JUMPDEST SWAP2 POP PUSH2 0x24AA DUP4 PUSH2 0x1BEE JUMP JUMPDEST SWAP3 POP DUP3 DUP3 ADD SWAP1 POP DUP1 DUP3 GT ISZERO PUSH2 0x24C2 JUMPI PUSH2 0x24C1 PUSH2 0x22E9 JUMP JUMPDEST JUMPDEST SWAP3 SWAP2 POP POP JUMP JUMPDEST PUSH0 DUP2 MLOAD SWAP1 POP PUSH2 0x24D6 DUP2 PUSH2 0x1BC4 JUMP JUMPDEST SWAP3 SWAP2 POP POP JUMP JUMPDEST PUSH0 PUSH1 0x20 DUP3 DUP5 SUB SLT ISZERO PUSH2 0x24F1 JUMPI PUSH2 0x24F0 PUSH2 0x1B8C JUMP JUMPDEST JUMPDEST PUSH0 PUSH2 0x24FE DUP5 DUP3 DUP6 ADD PUSH2 0x24C8 JUMP JUMPDEST SWAP2 POP POP SWAP3 SWAP2 POP POP JUMP JUMPDEST PUSH32 0x55454E20697320656D7074790000000000000000000000000000000000000000 PUSH0 DUP3 ADD MSTORE POP JUMP JUMPDEST PUSH0 PUSH2 0x253B PUSH1 0xC DUP4 PUSH2 0x1AE3 JUMP JUMPDEST SWAP2 POP PUSH2 0x2546 DUP3 PUSH2 0x2507 JUMP JUMPDEST PUSH1 0x20 DUP3 ADD SWAP1 POP SWAP2 SWAP1 POP JUMP JUMPDEST PUSH0 PUSH1 0x20 DUP3 ADD SWAP1 POP DUP2 DUP2 SUB PUSH0 DUP4 ADD MSTORE PUSH2 0x2568 DUP2 PUSH2 0x252F JUMP JUMPDEST SWAP1 POP SWAP2 SWAP1 POP JUMP JUMPDEST PUSH0 PUSH1 0x40 DUP3 ADD SWAP1 POP PUSH2 0x2582 PUSH0 DUP4 ADD DUP6 PUSH2 0x1F63 JUMP JUMPDEST PUSH2 0x258F PUSH1 0x20 DUP4 ADD DUP5 PUSH2 0x1F63 JUMP JUMPDEST SWAP4 SWAP3 POP POP POP JUMP JUMPDEST PUSH32 0x496E6372656173652074686520616C6C6F77616E636500000000000000000000 PUSH0 DUP3 ADD MSTORE POP JUMP JUMPDEST PUSH0 PUSH2 0x25CA PUSH1 0x16 DUP4 PUSH2 0x1AE3 JUMP JUMPDEST SWAP2 POP PUSH2 0x25D5 DUP3 PUSH2 0x2596 JUMP JUMPDEST PUSH1 0x20 DUP3 ADD SWAP1 POP SWAP2 SWAP1 POP JUMP JUMPDEST PUSH0 PUSH1 0x20 DUP3 ADD SWAP1 POP DUP2 DUP2 SUB PUSH0 DUP4 ADD MSTORE PUSH2 0x25F7 DUP2 PUSH2 0x25BE JUMP JUMPDEST SWAP1 POP SWAP2 SWAP1 POP JUMP JUMPDEST PUSH0 PUSH1 0x60 DUP3 ADD SWAP1 POP PUSH2 0x2611 PUSH0 DUP4 ADD DUP7 PUSH2 0x1F63 JUMP JUMPDEST PUSH2 0x261E PUSH1 0x20 DUP4 ADD DUP6 PUSH2 0x1F63 JUMP JUMPDEST PUSH2 0x262B PUSH1 0x40 DUP4 ADD DUP5 PUSH2 0x1C92 JUMP JUMPDEST SWAP5 SWAP4 POP POP POP POP JUMP JUMPDEST PUSH32 0x576974686472617720746F20746865207A65726F206164647265737300000000 PUSH0 DUP3 ADD MSTORE POP JUMP JUMPDEST PUSH0 PUSH2 0x2667 PUSH1 0x1C DUP4 PUSH2 0x1AE3 JUMP JUMPDEST SWAP2 POP PUSH2 0x2672 DUP3 PUSH2 0x2633 JUMP JUMPDEST PUSH1 0x20 DUP3 ADD SWAP1 POP SWAP2 SWAP1 POP JUMP JUMPDEST PUSH0 PUSH1 0x20 DUP3 ADD SWAP1 POP DUP2 DUP2 SUB PUSH0 DUP4 ADD MSTORE PUSH2 0x2694 DUP2 PUSH2 0x265B JUMP JUMPDEST SWAP1 POP SWAP2 SWAP1 POP JUMP INVALID LOG2 PUSH5 0x6970667358 0x22 SLT KECCAK256 0xC7 DUP4 PUSH32 0x34154EFBC498FF29B1DDB97B2FF9C73EBAFFA7C47D1857EDA7822541A164736F PUSH13 0x63430008160033000000000000 "
				},
				"gasEstimates": {
					"creation": {
						"codeDepositCost": "1987400",
						"executionCost": "infinite",
						"totalCost": "infinite"
					},
					"external": {
						"admin_withdraw(address,uint256)": "infinite",
						"allowance(address,address)": "infinite",
						"approve(address,uint256)": "949",
						"balanceOf(address)": "infinite",
						"balance_of_uen(string)": "infinite",
						"check_whitelist()": "infinite",
						"decimals()": "450",
						"get_name(string)": "infinite",
						"name()": "infinite",
						"owner()": "2560",
						"renounceOwnership()": "infinite",
						"send_token_to_uen(string,uint256)": "infinite",
						"symbol()": "infinite",
						"targetToken()": "infinite",
						"token_address()": "2538",
						"totalSupply()": "infinite",
						"transfer(address,uint256)": "infinite",
						"transferFrom(address,address,uint256)": "infinite",
						"transferOwnership(address)": "infinite",
						"uen_send(string,uint256)": "infinite",
						"uen_to_balance(string)": "infinite"
					}
				},
				"methodIdentifiers": {
					"admin_withdraw(address,uint256)": "fa863d30",
					"allowance(address,address)": "dd62ed3e",
					"approve(address,uint256)": "095ea7b3",
					"balanceOf(address)": "70a08231",
					"balance_of_uen(string)": "90f31f3b",
					"check_whitelist()": "a3e5b0b2",
					"decimals()": "313ce567",
					"get_name(string)": "a8f5d7a6",
					"name()": "06fdde03",
					"owner()": "8da5cb5b",
					"renounceOwnership()": "715018a6",
					"send_token_to_uen(string,uint256)": "5ab16b26",
					"symbol()": "95d89b41",
					"targetToken()": "327107f7",
					"token_address()": "8c8e8fee",
					"totalSupply()": "18160ddd",
					"transfer(address,uint256)": "a9059cbb",
					"transferFrom(address,address,uint256)": "23b872dd",
					"transferOwnership(address)": "f2fde38b",
					"uen_send(string,uint256)": "332656fd",
					"uen_to_balance(string)": "f22fbdd7"
				}
			},
			"storageLayout": {
				"storage": [
					{
						"astId": 307,
						"contract": "sgdm.sol:sgdm",
						"label": "_balances",
						"offset": 0,
						"slot": "0",
						"type": "t_mapping(t_address,t_uint256)"
					},
					{
						"astId": 313,
						"contract": "sgdm.sol:sgdm",
						"label": "_allowances",
						"offset": 0,
						"slot": "1",
						"type": "t_mapping(t_address,t_mapping(t_address,t_uint256))"
					},
					{
						"astId": 315,
						"contract": "sgdm.sol:sgdm",
						"label": "_totalSupply",
						"offset": 0,
						"slot": "2",
						"type": "t_uint256"
					},
					{
						"astId": 317,
						"contract": "sgdm.sol:sgdm",
						"label": "_name",
						"offset": 0,
						"slot": "3",
						"type": "t_string_storage"
					},
					{
						"astId": 319,
						"contract": "sgdm.sol:sgdm",
						"label": "_symbol",
						"offset": 0,
						"slot": "4",
						"type": "t_string_storage"
					},
					{
						"astId": 8,
						"contract": "sgdm.sol:sgdm",
						"label": "_owner",
						"offset": 0,
						"slot": "5",
						"type": "t_address"
					},
					{
						"astId": 977,
						"contract": "sgdm.sol:sgdm",
						"label": "targetToken",
						"offset": 0,
						"slot": "6",
						"type": "t_contract(IERC20)877"
					},
					{
						"astId": 981,
						"contract": "sgdm.sol:sgdm",
						"label": "uen_to_balance",
						"offset": 0,
						"slot": "7",
						"type": "t_mapping(t_string_memory_ptr,t_uint256)"
					},
					{
						"astId": 984,
						"contract": "sgdm.sol:sgdm",
						"label": "uen_management_contract",
						"offset": 0,
						"slot": "8",
						"type": "t_contract(Iuen_management)970"
					},
					{
						"astId": 987,
						"contract": "sgdm.sol:sgdm",
						"label": "whitelist_contract",
						"offset": 0,
						"slot": "9",
						"type": "t_contract(Iwhitelist)956"
					}
				],
				"types": {
					"t_address": {
						"encoding": "inplace",
						"label": "address",
						"numberOfBytes": "20"
					},
					"t_contract(IERC20)877": {
						"encoding": "inplace",
						"label": "contract IERC20",
						"numberOfBytes": "20"
					},
					"t_contract(Iuen_management)970": {
						"encoding": "inplace",
						"label": "contract Iuen_management",
						"numberOfBytes": "20"
					},
					"t_contract(Iwhitelist)956": {
						"encoding": "inplace",
						"label": "contract Iwhitelist",
						"numberOfBytes": "20"
					},
					"t_mapping(t_address,t_mapping(t_address,t_uint256))": {
						"encoding": "mapping",
						"key": "t_address",
						"label": "mapping(address => mapping(address => uint256))",
						"numberOfBytes": "32",
						"value": "t_mapping(t_address,t_uint256)"
					},
					"t_mapping(t_address,t_uint256)": {
						"encoding": "mapping",
						"key": "t_address",
						"label": "mapping(address => uint256)",
						"numberOfBytes": "32",
						"value": "t_uint256"
					},
					"t_mapping(t_string_memory_ptr,t_uint256)": {
						"encoding": "mapping",
						"key": "t_string_memory_ptr",
						"label": "mapping(string => uint256)",
						"numberOfBytes": "32",
						"value": "t_uint256"
					},
					"t_string_memory_ptr": {
						"encoding": "bytes",
						"label": "string",
						"numberOfBytes": "32"
					},
					"t_string_storage": {
						"encoding": "bytes",
						"label": "string",
						"numberOfBytes": "32"
					},
					"t_uint256": {
						"encoding": "inplace",
						"label": "uint256",
						"numberOfBytes": "32"
					}
				}
			},
			"userdoc": {
				"kind": "user",
				"methods": {},
				"version": 1
			}
		}
	}
}