{
	"data": {
		"bytecode": {
			"linkReferences": {},
			"object": "608060405234801562000010575f80fd5b50604051620027e9380380620027e9833981810160405281019062000036919062000408565b805f73ffffffffffffffffffffffffffffffffffffffff168173ffffffffffffffffffffffffffffffffffffffff1603620000aa575f6040517f1e4fbdf7000000000000000000000000000000000000000000000000000000008152600401620000a191906200045e565b60405180910390fd5b620000bb81620001f060201b60201c565b508160015f6101000a81548173ffffffffffffffffffffffffffffffffffffffff021916908373ffffffffffffffffffffffffffffffffffffffff1602179055508160025f6101000a81548173ffffffffffffffffffffffffffffffffffffffff021916908373ffffffffffffffffffffffffffffffffffffffff16021790555060025f9054906101000a900473ffffffffffffffffffffffffffffffffffffffff1673ffffffffffffffffffffffffffffffffffffffff1663b3d6da6e6040518163ffffffff1660e01b81526004015f60405180830381865afa158015620001a6573d5f803e3d5ffd5b505050506040513d5f823e3d601f19601f82011682018060405250810190620001d09190620006e5565b60039080519060200190620001e7929190620002b1565b50505062000a4f565b5f805f9054906101000a900473ffffffffffffffffffffffffffffffffffffffff169050815f806101000a81548173ffffffffffffffffffffffffffffffffffffffff021916908373ffffffffffffffffffffffffffffffffffffffff1602179055508173ffffffffffffffffffffffffffffffffffffffff168173ffffffffffffffffffffffffffffffffffffffff167f8be0079c531659141344cd1fd0a4f28419497f9722a3daafe3b4186f6b6457e060405160405180910390a35050565b828054828255905f5260205f20908101928215620002fc579160200282015b82811115620002fb578251829081620002ea91906200096b565b5091602001919060010190620002d0565b5b5090506200030b91906200030f565b5090565b5b8082111562000332575f818162000328919062000336565b5060010162000310565b5090565b50805462000344906200076b565b5f825580601f1062000357575062000376565b601f0160209004905f5260205f209081019062000375919062000379565b5b50565b5b8082111562000392575f815f9055506001016200037a565b5090565b5f604051905090565b5f80fd5b5f80fd5b5f73ffffffffffffffffffffffffffffffffffffffff82169050919050565b5f620003d282620003a7565b9050919050565b620003e481620003c6565b8114620003ef575f80fd5b50565b5f815190506200040281620003d9565b92915050565b5f80604083850312156200042157620004206200039f565b5b5f6200043085828601620003f2565b92505060206200044385828601620003f2565b9150509250929050565b6200045881620003c6565b82525050565b5f602082019050620004735f8301846200044d565b92915050565b5f80fd5b5f601f19601f8301169050919050565b7f4e487b71000000000000000000000000000000000000000000000000000000005f52604160045260245ffd5b620004c5826200047d565b810181811067ffffffffffffffff82111715620004e757620004e66200048d565b5b80604052505050565b5f620004fb62000396565b9050620005098282620004ba565b919050565b5f67ffffffffffffffff8211156200052b576200052a6200048d565b5b602082029050602081019050919050565b5f80fd5b5f80fd5b5f67ffffffffffffffff8211156200056157620005606200048d565b5b6200056c826200047d565b9050602081019050919050565b5f5b83811015620005985780820151818401526020810190506200057b565b5f8484015250505050565b5f620005b9620005b38462000544565b620004f0565b905082815260208101848484011115620005d857620005d762000540565b5b620005e584828562000579565b509392505050565b5f82601f83011262000604576200060362000479565b5b815162000616848260208601620005a3565b91505092915050565b5f620006356200062f846200050e565b620004f0565b905080838252602082019050602084028301858111156200065b576200065a6200053c565b5b835b81811015620006a957805167ffffffffffffffff81111562000684576200068362000479565b5b808601620006938982620005ed565b855260208501945050506020810190506200065d565b5050509392505050565b5f82601f830112620006ca57620006c962000479565b5b8151620006dc8482602086016200061f565b91505092915050565b5f60208284031215620006fd57620006fc6200039f565b5b5f82015167ffffffffffffffff8111156200071d576200071c620003a3565b5b6200072b84828501620006b3565b91505092915050565b5f81519050919050565b7f4e487b71000000000000000000000000000000000000000000000000000000005f52602260045260245ffd5b5f60028204905060018216806200078357607f821691505b6020821081036200079957620007986200073e565b5b50919050565b5f819050815f5260205f209050919050565b5f6020601f8301049050919050565b5f82821b905092915050565b5f60088302620007fd7fffffffffffffffffffffffffffffffffffffffffffffffffffffffffffffffff82620007c0565b620008098683620007c0565b95508019841693508086168417925050509392505050565b5f819050919050565b5f819050919050565b5f620008536200084d620008478462000821565b6200082a565b62000821565b9050919050565b5f819050919050565b6200086e8362000833565b620008866200087d826200085a565b848454620007cc565b825550505050565b5f90565b6200089c6200088e565b620008a981848462000863565b505050565b5b81811015620008d057620008c45f8262000892565b600181019050620008af565b5050565b601f8211156200091f57620008e9816200079f565b620008f484620007b1565b8101602085101562000904578190505b6200091c6200091385620007b1565b830182620008ae565b50505b505050565b5f82821c905092915050565b5f620009415f198460080262000924565b1980831691505092915050565b5f6200095b838362000930565b9150826002028217905092915050565b620009768262000734565b67ffffffffffffffff8111156200099257620009916200048d565b5b6200099e82546200076b565b620009ab828285620008d4565b5f60209050601f831160018114620009e1575f8415620009cc578287015190505b620009d885826200094e565b86555062000a47565b601f198416620009f1866200079f565b5f5b8281101562000a1a57848901518255600182019150602085019450602081019050620009f3565b8683101562000a3a578489015162000a36601f89168262000930565b8355505b6001600288020188555050505b505050505050565b611d8c8062000a5d5f395ff3fe608060405234801561000f575f80fd5b50600436106100cd575f3560e01c80638da5cb5b1161008a578063a9b295e311610064578063a9b295e3146101e9578063b30282fa14610219578063b98cb1a414610249578063f2fde38b14610279576100cd565b80638da5cb5b1461017f5780639a82845c1461019d5780639c2badef146101b9576100cd565b806311c2f8e6146100d157806358581383146100ef5780636100b02b1461011f578063715018a61461013b5780637eaabf2f14610145578063858e1a9b14610163575b5f80fd5b6100d9610295565b6040516100e69190610f4f565b60405180910390f35b61010960048036038101906101049190610fb4565b6102ba565b6040516101169190611069565b60405180910390f35b61013960048036038101906101349190611297565b610387565b005b610143610586565b005b61014d610599565b60405161015a91906112ed565b60405180910390f35b61017d600480360381019061017891906113c6565b6105be565b005b610187610908565b60405161019491906112ed565b60405180910390f35b6101b760048036038101906101b29190610fb4565b61092f565b005b6101d360048036038101906101ce9190610fb4565b610a61565b6040516101e09190611069565b60405180910390f35b61020360048036038101906101fe919061143c565b610afc565b60405161021091906112ed565b60405180910390f35b610233600480360381019061022e91906114b6565b610b42565b6040516102409190611069565b60405180910390f35b610263600480360381019061025e919061143c565b610be8565b60405161027091906112ed565b60405180910390f35b610293600480360381019061028e9190610fb4565b610c30565b005b60025f9054906101000a900473ffffffffffffffffffffffffffffffffffffffff1681565b606060055f8373ffffffffffffffffffffffffffffffffffffffff1673ffffffffffffffffffffffffffffffffffffffff1681526020019081526020015f2080546103049061150e565b80601f01602080910402602001604051908101604052809291908181526020018280546103309061150e565b801561037b5780601f106103525761010080835404028352916020019161037b565b820191905f5260205f20905b81548152906001019060200180831161035e57829003601f168201915b50505050509050919050565b61038f610cb4565b60025f9054906101000a900473ffffffffffffffffffffffffffffffffffffffff1673ffffffffffffffffffffffffffffffffffffffff1663b3d6da6e6040518163ffffffff1660e01b81526004015f60405180830381865afa1580156103f8573d5f803e3d5ffd5b505050506040513d5f823e3d601f19601f82011682018060405250810190610420919061165f565b60039080519060200190610435929190610e03565b505f5b8151811015610547576004828281518110610456576104556116a6565b5b602002602001015160405161046b919061170d565b90815260200160405180910390205f6101000a81549073ffffffffffffffffffffffffffffffffffffffff021916905560055f60048484815181106104b3576104b26116a6565b5b60200260200101516040516104c8919061170d565b90815260200160405180910390205f9054906101000a900473ffffffffffffffffffffffffffffffffffffffff1673ffffffffffffffffffffffffffffffffffffffff1673ffffffffffffffffffffffffffffffffffffffff1681526020019081526020015f205f61053a9190610e5a565b8080600101915050610438565b507f98beee4dcdfa3ccda31a4264b56fc086138a1c58e9679b993926dacbc44ff1ba81423360405161057b9392919061187f565b60405180910390a150565b61058e610cb4565b6105975f610d3b565b565b60015f9054906101000a900473ffffffffffffffffffffffffffffffffffffffff1681565b6105c6610cb4565b60025f9054906101000a900473ffffffffffffffffffffffffffffffffffffffff1673ffffffffffffffffffffffffffffffffffffffff1663b3d6da6e6040518163ffffffff1660e01b81526004015f60405180830381865afa15801561062f573d5f803e3d5ffd5b505050506040513d5f823e3d601f19601f82011682018060405250810190610657919061165f565b6003908051906020019061066c929190610e03565b5080518251146106b1576040517f08c379a00000000000000000000000000000000000000000000000000000000081526004016106a89061193e565b60405180910390fd5b5f5b82518110156108c8575f805b60038054905081101561076a57600381815481106106e0576106df6116a6565b5b905f5260205f20016040516020016106f891906119ee565b60405160208183030381529060405280519060200120858481518110610721576107206116a6565b5b6020026020010151604051602001610739919061170d565b604051602081830303815290604052805190602001200361075d576001915061076a565b80806001019150506106bf565b50806107ab576040517f08c379a00000000000000000000000000000000000000000000000000000000081526004016107a290611a4e565b60405180910390fd5b8282815181106107be576107bd6116a6565b5b602002602001015160048584815181106107db576107da6116a6565b5b60200260200101516040516107f0919061170d565b90815260200160405180910390205f6101000a81548173ffffffffffffffffffffffffffffffffffffffff021916908373ffffffffffffffffffffffffffffffffffffffff16021790555083828151811061084e5761084d6116a6565b5b602002602001015160055f85858151811061086c5761086b6116a6565b5b602002602001015173ffffffffffffffffffffffffffffffffffffffff1673ffffffffffffffffffffffffffffffffffffffff1681526020019081526020015f2090816108b99190611bee565b505080806001019150506106b3565b507f98beee4dcdfa3ccda31a4264b56fc086138a1c58e9679b993926dacbc44ff1ba8242336040516108fc93929190611d07565b60405180910390a15050565b5f805f9054906101000a900473ffffffffffffffffffffffffffffffffffffffff16905090565b610937610cb4565b8060015f6101000a81548173ffffffffffffffffffffffffffffffffffffffff021916908373ffffffffffffffffffffffffffffffffffffffff1602179055508060025f6101000a81548173ffffffffffffffffffffffffffffffffffffffff021916908373ffffffffffffffffffffffffffffffffffffffff16021790555060025f9054906101000a900473ffffffffffffffffffffffffffffffffffffffff1673ffffffffffffffffffffffffffffffffffffffff1663b3d6da6e6040518163ffffffff1660e01b81526004015f60405180830381865afa158015610a20573d5f803e3d5ffd5b505050506040513d5f823e3d601f19601f82011682018060405250810190610a48919061165f565b60039080519060200190610a5d929190610e03565b5050565b6005602052805f5260405f205f915090508054610a7d9061150e565b80601f0160208091040260200160405190810160405280929190818152602001828054610aa99061150e565b8015610af45780601f10610acb57610100808354040283529160200191610af4565b820191905f5260205f20905b815481529060010190602001808311610ad757829003601f168201915b505050505081565b5f600482604051610b0d919061170d565b90815260200160405180910390205f9054906101000a900473ffffffffffffffffffffffffffffffffffffffff169050919050565b60038181548110610b51575f80fd5b905f5260205f20015f915090508054610b699061150e565b80601f0160208091040260200160405190810160405280929190818152602001828054610b959061150e565b8015610be05780601f10610bb757610100808354040283529160200191610be0565b820191905f5260205f20905b815481529060010190602001808311610bc357829003601f168201915b505050505081565b6004818051602081018201805184825260208301602085012081835280955050505050505f915054906101000a900473ffffffffffffffffffffffffffffffffffffffff1681565b610c38610cb4565b5f73ffffffffffffffffffffffffffffffffffffffff168173ffffffffffffffffffffffffffffffffffffffff1603610ca8575f6040517f1e4fbdf7000000000000000000000000000000000000000000000000000000008152600401610c9f91906112ed565b60405180910390fd5b610cb181610d3b565b50565b610cbc610dfc565b73ffffffffffffffffffffffffffffffffffffffff16610cda610908565b73ffffffffffffffffffffffffffffffffffffffff1614610d3957610cfd610dfc565b6040517f118cdaa7000000000000000000000000000000000000000000000000000000008152600401610d3091906112ed565b60405180910390fd5b565b5f805f9054906101000a900473ffffffffffffffffffffffffffffffffffffffff169050815f806101000a81548173ffffffffffffffffffffffffffffffffffffffff021916908373ffffffffffffffffffffffffffffffffffffffff1602179055508173ffffffffffffffffffffffffffffffffffffffff168173ffffffffffffffffffffffffffffffffffffffff167f8be0079c531659141344cd1fd0a4f28419497f9722a3daafe3b4186f6b6457e060405160405180910390a35050565b5f33905090565b828054828255905f5260205f20908101928215610e49579160200282015b82811115610e48578251829081610e389190611bee565b5091602001919060010190610e21565b5b509050610e569190610e97565b5090565b508054610e669061150e565b5f825580601f10610e775750610e94565b601f0160209004905f5260205f2090810190610e939190610eba565b5b50565b5b80821115610eb6575f8181610ead9190610e5a565b50600101610e98565b5090565b5b80821115610ed1575f815f905550600101610ebb565b5090565b5f73ffffffffffffffffffffffffffffffffffffffff82169050919050565b5f819050919050565b5f610f17610f12610f0d84610ed5565b610ef4565b610ed5565b9050919050565b5f610f2882610efd565b9050919050565b5f610f3982610f1e565b9050919050565b610f4981610f2f565b82525050565b5f602082019050610f625f830184610f40565b92915050565b5f604051905090565b5f80fd5b5f80fd5b5f610f8382610ed5565b9050919050565b610f9381610f79565b8114610f9d575f80fd5b50565b5f81359050610fae81610f8a565b92915050565b5f60208284031215610fc957610fc8610f71565b5b5f610fd684828501610fa0565b91505092915050565b5f81519050919050565b5f82825260208201905092915050565b5f5b83811015611016578082015181840152602081019050610ffb565b5f8484015250505050565b5f601f19601f8301169050919050565b5f61103b82610fdf565b6110458185610fe9565b9350611055818560208601610ff9565b61105e81611021565b840191505092915050565b5f6020820190508181035f8301526110818184611031565b905092915050565b5f80fd5b7f4e487b71000000000000000000000000000000000000000000000000000000005f52604160045260245ffd5b6110c382611021565b810181811067ffffffffffffffff821117156110e2576110e161108d565b5b80604052505050565b5f6110f4610f68565b905061110082826110ba565b919050565b5f67ffffffffffffffff82111561111f5761111e61108d565b5b602082029050602081019050919050565b5f80fd5b5f80fd5b5f67ffffffffffffffff8211156111525761115161108d565b5b61115b82611021565b9050602081019050919050565b828183375f83830152505050565b5f61118861118384611138565b6110eb565b9050828152602081018484840111156111a4576111a3611134565b5b6111af848285611168565b509392505050565b5f82601f8301126111cb576111ca611089565b5b81356111db848260208601611176565b91505092915050565b5f6111f66111f184611105565b6110eb565b9050808382526020820190506020840283018581111561121957611218611130565b5b835b8181101561126057803567ffffffffffffffff81111561123e5761123d611089565b5b80860161124b89826111b7565b8552602085019450505060208101905061121b565b5050509392505050565b5f82601f83011261127e5761127d611089565b5b813561128e8482602086016111e4565b91505092915050565b5f602082840312156112ac576112ab610f71565b5b5f82013567ffffffffffffffff8111156112c9576112c8610f75565b5b6112d58482850161126a565b91505092915050565b6112e781610f79565b82525050565b5f6020820190506113005f8301846112de565b92915050565b5f67ffffffffffffffff8211156113205761131f61108d565b5b602082029050602081019050919050565b5f61134361133e84611306565b6110eb565b9050808382526020820190506020840283018581111561136657611365611130565b5b835b8181101561138f578061137b8882610fa0565b845260208401935050602081019050611368565b5050509392505050565b5f82601f8301126113ad576113ac611089565b5b81356113bd848260208601611331565b91505092915050565b5f80604083850312156113dc576113db610f71565b5b5f83013567ffffffffffffffff8111156113f9576113f8610f75565b5b6114058582860161126a565b925050602083013567ffffffffffffffff81111561142657611425610f75565b5b61143285828601611399565b9150509250929050565b5f6020828403121561145157611450610f71565b5b5f82013567ffffffffffffffff81111561146e5761146d610f75565b5b61147a848285016111b7565b91505092915050565b5f819050919050565b61149581611483565b811461149f575f80fd5b50565b5f813590506114b08161148c565b92915050565b5f602082840312156114cb576114ca610f71565b5b5f6114d8848285016114a2565b91505092915050565b7f4e487b71000000000000000000000000000000000000000000000000000000005f52602260045260245ffd5b5f600282049050600182168061152557607f821691505b602082108103611538576115376114e1565b5b50919050565b5f61155061154b84611138565b6110eb565b90508281526020810184848401111561156c5761156b611134565b5b611577848285610ff9565b509392505050565b5f82601f83011261159357611592611089565b5b81516115a384826020860161153e565b91505092915050565b5f6115be6115b984611105565b6110eb565b905080838252602082019050602084028301858111156115e1576115e0611130565b5b835b8181101561162857805167ffffffffffffffff81111561160657611605611089565b5b808601611613898261157f565b855260208501945050506020810190506115e3565b5050509392505050565b5f82601f83011261164657611645611089565b5b81516116568482602086016115ac565b91505092915050565b5f6020828403121561167457611673610f71565b5b5f82015167ffffffffffffffff81111561169157611690610f75565b5b61169d84828501611632565b91505092915050565b7f4e487b71000000000000000000000000000000000000000000000000000000005f52603260045260245ffd5b5f81905092915050565b5f6116e782610fdf565b6116f181856116d3565b9350611701818560208601610ff9565b80840191505092915050565b5f61171882846116dd565b915081905092915050565b5f81519050919050565b5f82825260208201905092915050565b5f819050602082019050919050565b5f82825260208201905092915050565b5f61176682610fdf565b611770818561174c565b9350611780818560208601610ff9565b61178981611021565b840191505092915050565b5f61179f838361175c565b905092915050565b5f602082019050919050565b5f6117bd82611723565b6117c7818561172d565b9350836020820285016117d98561173d565b805f5b8581101561181457848403895281516117f58582611794565b9450611800836117a7565b925060208a019950506001810190506117dc565b50829750879550505050505092915050565b61182f81611483565b82525050565b7f57686974656c6973742072656d6f76656420666f722055454e000000000000005f82015250565b5f611869601983610fe9565b915061187482611835565b602082019050919050565b5f6080820190508181035f83015261189781866117b3565b90506118a66020830185611826565b6118b360408301846112de565b81810360608301526118c48161185d565b9050949350505050565b7f4d617070696e6773206d7573742068617665207468652073616d65206c656e675f8201527f7468000000000000000000000000000000000000000000000000000000000000602082015250565b5f611928602283610fe9565b9150611933826118ce565b604082019050919050565b5f6020820190508181035f8301526119558161191c565b9050919050565b5f819050815f5260205f209050919050565b5f815461197a8161150e565b61198481866116d3565b9450600182165f811461199e57600181146119b3576119e5565b60ff19831686528115158202860193506119e5565b6119bc8561195c565b5f5b838110156119dd578154818901526001820191506020810190506119be565b838801955050505b50505092915050565b5f6119f9828461196e565b915081905092915050565b7f55454e20646f6573206e6f7420657869737400000000000000000000000000005f82015250565b5f611a38601283610fe9565b9150611a4382611a04565b602082019050919050565b5f6020820190508181035f830152611a6581611a2c565b9050919050565b5f6020601f8301049050919050565b5f82821b905092915050565b5f60088302611ab67fffffffffffffffffffffffffffffffffffffffffffffffffffffffffffffffff82611a7b565b611ac08683611a7b565b95508019841693508086168417925050509392505050565b5f611af2611aed611ae884611483565b610ef4565b611483565b9050919050565b5f819050919050565b611b0b83611ad8565b611b1f611b1782611af9565b848454611a87565b825550505050565b5f90565b611b33611b27565b611b3e818484611b02565b505050565b5b81811015611b6157611b565f82611b2b565b600181019050611b44565b5050565b601f821115611ba657611b778161195c565b611b8084611a6c565b81016020851015611b8f578190505b611ba3611b9b85611a6c565b830182611b43565b50505b505050565b5f82821c905092915050565b5f611bc65f1984600802611bab565b1980831691505092915050565b5f611bde8383611bb7565b9150826002028217905092915050565b611bf782610fdf565b67ffffffffffffffff811115611c1057611c0f61108d565b5b611c1a825461150e565b611c25828285611b65565b5f60209050601f831160018114611c56575f8415611c44578287015190505b611c4e8582611bd3565b865550611cb5565b601f198416611c648661195c565b5f5b82811015611c8b57848901518255600182019150602085019450602081019050611c66565b86831015611ca85784890151611ca4601f891682611bb7565b8355505b6001600288020188555050505b505050505050565b7f57686974656c69737420616464656420666f722055454e0000000000000000005f82015250565b5f611cf1601783610fe9565b9150611cfc82611cbd565b602082019050919050565b5f6080820190508181035f830152611d1f81866117b3565b9050611d2e6020830185611826565b611d3b60408301846112de565b8181036060830152611d4c81611ce5565b905094935050505056fea2646970667358221220b495181bb369ccbe6528bed2b2d768da0ef257020594f14bcef1cc7769f248eb64736f6c63430008160033",
			"opcodes": "PUSH1 0x80 PUSH1 0x40 MSTORE CALLVALUE DUP1 ISZERO PUSH3 0x10 JUMPI PUSH0 DUP1 REVERT JUMPDEST POP PUSH1 0x40 MLOAD PUSH3 0x27E9 CODESIZE SUB DUP1 PUSH3 0x27E9 DUP4 CODECOPY DUP2 DUP2 ADD PUSH1 0x40 MSTORE DUP2 ADD SWAP1 PUSH3 0x36 SWAP2 SWAP1 PUSH3 0x408 JUMP JUMPDEST DUP1 PUSH0 PUSH20 0xFFFFFFFFFFFFFFFFFFFFFFFFFFFFFFFFFFFFFFFF AND DUP2 PUSH20 0xFFFFFFFFFFFFFFFFFFFFFFFFFFFFFFFFFFFFFFFF AND SUB PUSH3 0xAA JUMPI PUSH0 PUSH1 0x40 MLOAD PUSH32 0x1E4FBDF700000000000000000000000000000000000000000000000000000000 DUP2 MSTORE PUSH1 0x4 ADD PUSH3 0xA1 SWAP2 SWAP1 PUSH3 0x45E JUMP JUMPDEST PUSH1 0x40 MLOAD DUP1 SWAP2 SUB SWAP1 REVERT JUMPDEST PUSH3 0xBB DUP2 PUSH3 0x1F0 PUSH1 0x20 SHL PUSH1 0x20 SHR JUMP JUMPDEST POP DUP2 PUSH1 0x1 PUSH0 PUSH2 0x100 EXP DUP2 SLOAD DUP2 PUSH20 0xFFFFFFFFFFFFFFFFFFFFFFFFFFFFFFFFFFFFFFFF MUL NOT AND SWAP1 DUP4 PUSH20 0xFFFFFFFFFFFFFFFFFFFFFFFFFFFFFFFFFFFFFFFF AND MUL OR SWAP1 SSTORE POP DUP2 PUSH1 0x2 PUSH0 PUSH2 0x100 EXP DUP2 SLOAD DUP2 PUSH20 0xFFFFFFFFFFFFFFFFFFFFFFFFFFFFFFFFFFFFFFFF MUL NOT AND SWAP1 DUP4 PUSH20 0xFFFFFFFFFFFFFFFFFFFFFFFFFFFFFFFFFFFFFFFF AND MUL OR SWAP1 SSTORE POP PUSH1 0x2 PUSH0 SWAP1 SLOAD SWAP1 PUSH2 0x100 EXP SWAP1 DIV PUSH20 0xFFFFFFFFFFFFFFFFFFFFFFFFFFFFFFFFFFFFFFFF AND PUSH20 0xFFFFFFFFFFFFFFFFFFFFFFFFFFFFFFFFFFFFFFFF AND PUSH4 0xB3D6DA6E PUSH1 0x40 MLOAD DUP2 PUSH4 0xFFFFFFFF AND PUSH1 0xE0 SHL DUP2 MSTORE PUSH1 0x4 ADD PUSH0 PUSH1 0x40 MLOAD DUP1 DUP4 SUB DUP2 DUP7 GAS STATICCALL ISZERO DUP1 ISZERO PUSH3 0x1A6 JUMPI RETURNDATASIZE PUSH0 DUP1 RETURNDATACOPY RETURNDATASIZE PUSH0 REVERT JUMPDEST POP POP POP POP PUSH1 0x40 MLOAD RETURNDATASIZE PUSH0 DUP3 RETURNDATACOPY RETURNDATASIZE PUSH1 0x1F NOT PUSH1 0x1F DUP3 ADD AND DUP3 ADD DUP1 PUSH1 0x40 MSTORE POP DUP2 ADD SWAP1 PUSH3 0x1D0 SWAP2 SWAP1 PUSH3 0x6E5 JUMP JUMPDEST PUSH1 0x3 SWAP1 DUP1 MLOAD SWAP1 PUSH1 0x20 ADD SWAP1 PUSH3 0x1E7 SWAP3 SWAP2 SWAP1 PUSH3 0x2B1 JUMP JUMPDEST POP POP POP PUSH3 0xA4F JUMP JUMPDEST PUSH0 DUP1 PUSH0 SWAP1 SLOAD SWAP1 PUSH2 0x100 EXP SWAP1 DIV PUSH20 0xFFFFFFFFFFFFFFFFFFFFFFFFFFFFFFFFFFFFFFFF AND SWAP1 POP DUP2 PUSH0 DUP1 PUSH2 0x100 EXP DUP2 SLOAD DUP2 PUSH20 0xFFFFFFFFFFFFFFFFFFFFFFFFFFFFFFFFFFFFFFFF MUL NOT AND SWAP1 DUP4 PUSH20 0xFFFFFFFFFFFFFFFFFFFFFFFFFFFFFFFFFFFFFFFF AND MUL OR SWAP1 SSTORE POP DUP2 PUSH20 0xFFFFFFFFFFFFFFFFFFFFFFFFFFFFFFFFFFFFFFFF AND DUP2 PUSH20 0xFFFFFFFFFFFFFFFFFFFFFFFFFFFFFFFFFFFFFFFF AND PUSH32 0x8BE0079C531659141344CD1FD0A4F28419497F9722A3DAAFE3B4186F6B6457E0 PUSH1 0x40 MLOAD PUSH1 0x40 MLOAD DUP1 SWAP2 SUB SWAP1 LOG3 POP POP JUMP JUMPDEST DUP3 DUP1 SLOAD DUP3 DUP3 SSTORE SWAP1 PUSH0 MSTORE PUSH1 0x20 PUSH0 KECCAK256 SWAP1 DUP2 ADD SWAP3 DUP3 ISZERO PUSH3 0x2FC JUMPI SWAP2 PUSH1 0x20 MUL DUP3 ADD JUMPDEST DUP3 DUP2 GT ISZERO PUSH3 0x2FB JUMPI DUP3 MLOAD DUP3 SWAP1 DUP2 PUSH3 0x2EA SWAP2 SWAP1 PUSH3 0x96B JUMP JUMPDEST POP SWAP2 PUSH1 0x20 ADD SWAP2 SWAP1 PUSH1 0x1 ADD SWAP1 PUSH3 0x2D0 JUMP JUMPDEST JUMPDEST POP SWAP1 POP PUSH3 0x30B SWAP2 SWAP1 PUSH3 0x30F JUMP JUMPDEST POP SWAP1 JUMP JUMPDEST JUMPDEST DUP1 DUP3 GT ISZERO PUSH3 0x332 JUMPI PUSH0 DUP2 DUP2 PUSH3 0x328 SWAP2 SWAP1 PUSH3 0x336 JUMP JUMPDEST POP PUSH1 0x1 ADD PUSH3 0x310 JUMP JUMPDEST POP SWAP1 JUMP JUMPDEST POP DUP1 SLOAD PUSH3 0x344 SWAP1 PUSH3 0x76B JUMP JUMPDEST PUSH0 DUP3 SSTORE DUP1 PUSH1 0x1F LT PUSH3 0x357 JUMPI POP PUSH3 0x376 JUMP JUMPDEST PUSH1 0x1F ADD PUSH1 0x20 SWAP1 DIV SWAP1 PUSH0 MSTORE PUSH1 0x20 PUSH0 KECCAK256 SWAP1 DUP2 ADD SWAP1 PUSH3 0x375 SWAP2 SWAP1 PUSH3 0x379 JUMP JUMPDEST JUMPDEST POP JUMP JUMPDEST JUMPDEST DUP1 DUP3 GT ISZERO PUSH3 0x392 JUMPI PUSH0 DUP2 PUSH0 SWAP1 SSTORE POP PUSH1 0x1 ADD PUSH3 0x37A JUMP JUMPDEST POP SWAP1 JUMP JUMPDEST PUSH0 PUSH1 0x40 MLOAD SWAP1 POP SWAP1 JUMP JUMPDEST PUSH0 DUP1 REVERT JUMPDEST PUSH0 DUP1 REVERT JUMPDEST PUSH0 PUSH20 0xFFFFFFFFFFFFFFFFFFFFFFFFFFFFFFFFFFFFFFFF DUP3 AND SWAP1 POP SWAP2 SWAP1 POP JUMP JUMPDEST PUSH0 PUSH3 0x3D2 DUP3 PUSH3 0x3A7 JUMP JUMPDEST SWAP1 POP SWAP2 SWAP1 POP JUMP JUMPDEST PUSH3 0x3E4 DUP2 PUSH3 0x3C6 JUMP JUMPDEST DUP2 EQ PUSH3 0x3EF JUMPI PUSH0 DUP1 REVERT JUMPDEST POP JUMP JUMPDEST PUSH0 DUP2 MLOAD SWAP1 POP PUSH3 0x402 DUP2 PUSH3 0x3D9 JUMP JUMPDEST SWAP3 SWAP2 POP POP JUMP JUMPDEST PUSH0 DUP1 PUSH1 0x40 DUP4 DUP6 SUB SLT ISZERO PUSH3 0x421 JUMPI PUSH3 0x420 PUSH3 0x39F JUMP JUMPDEST JUMPDEST PUSH0 PUSH3 0x430 DUP6 DUP3 DUP7 ADD PUSH3 0x3F2 JUMP JUMPDEST SWAP3 POP POP PUSH1 0x20 PUSH3 0x443 DUP6 DUP3 DUP7 ADD PUSH3 0x3F2 JUMP JUMPDEST SWAP2 POP POP SWAP3 POP SWAP3 SWAP1 POP JUMP JUMPDEST PUSH3 0x458 DUP2 PUSH3 0x3C6 JUMP JUMPDEST DUP3 MSTORE POP POP JUMP JUMPDEST PUSH0 PUSH1 0x20 DUP3 ADD SWAP1 POP PUSH3 0x473 PUSH0 DUP4 ADD DUP5 PUSH3 0x44D JUMP JUMPDEST SWAP3 SWAP2 POP POP JUMP JUMPDEST PUSH0 DUP1 REVERT JUMPDEST PUSH0 PUSH1 0x1F NOT PUSH1 0x1F DUP4 ADD AND SWAP1 POP SWAP2 SWAP1 POP JUMP JUMPDEST PUSH32 0x4E487B7100000000000000000000000000000000000000000000000000000000 PUSH0 MSTORE PUSH1 0x41 PUSH1 0x4 MSTORE PUSH1 0x24 PUSH0 REVERT JUMPDEST PUSH3 0x4C5 DUP3 PUSH3 0x47D JUMP JUMPDEST DUP2 ADD DUP2 DUP2 LT PUSH8 0xFFFFFFFFFFFFFFFF DUP3 GT OR ISZERO PUSH3 0x4E7 JUMPI PUSH3 0x4E6 PUSH3 0x48D JUMP JUMPDEST JUMPDEST DUP1 PUSH1 0x40 MSTORE POP POP POP JUMP JUMPDEST PUSH0 PUSH3 0x4FB PUSH3 0x396 JUMP JUMPDEST SWAP1 POP PUSH3 0x509 DUP3 DUP3 PUSH3 0x4BA JUMP JUMPDEST SWAP2 SWAP1 POP JUMP JUMPDEST PUSH0 PUSH8 0xFFFFFFFFFFFFFFFF DUP3 GT ISZERO PUSH3 0x52B JUMPI PUSH3 0x52A PUSH3 0x48D JUMP JUMPDEST JUMPDEST PUSH1 0x20 DUP3 MUL SWAP1 POP PUSH1 0x20 DUP2 ADD SWAP1 POP SWAP2 SWAP1 POP JUMP JUMPDEST PUSH0 DUP1 REVERT JUMPDEST PUSH0 DUP1 REVERT JUMPDEST PUSH0 PUSH8 0xFFFFFFFFFFFFFFFF DUP3 GT ISZERO PUSH3 0x561 JUMPI PUSH3 0x560 PUSH3 0x48D JUMP JUMPDEST JUMPDEST PUSH3 0x56C DUP3 PUSH3 0x47D JUMP JUMPDEST SWAP1 POP PUSH1 0x20 DUP2 ADD SWAP1 POP SWAP2 SWAP1 POP JUMP JUMPDEST PUSH0 JUMPDEST DUP4 DUP2 LT ISZERO PUSH3 0x598 JUMPI DUP1 DUP3 ADD MLOAD DUP2 DUP5 ADD MSTORE PUSH1 0x20 DUP2 ADD SWAP1 POP PUSH3 0x57B JUMP JUMPDEST PUSH0 DUP5 DUP5 ADD MSTORE POP POP POP POP JUMP JUMPDEST PUSH0 PUSH3 0x5B9 PUSH3 0x5B3 DUP5 PUSH3 0x544 JUMP JUMPDEST PUSH3 0x4F0 JUMP JUMPDEST SWAP1 POP DUP3 DUP2 MSTORE PUSH1 0x20 DUP2 ADD DUP5 DUP5 DUP5 ADD GT ISZERO PUSH3 0x5D8 JUMPI PUSH3 0x5D7 PUSH3 0x540 JUMP JUMPDEST JUMPDEST PUSH3 0x5E5 DUP5 DUP3 DUP6 PUSH3 0x579 JUMP JUMPDEST POP SWAP4 SWAP3 POP POP POP JUMP JUMPDEST PUSH0 DUP3 PUSH1 0x1F DUP4 ADD SLT PUSH3 0x604 JUMPI PUSH3 0x603 PUSH3 0x479 JUMP JUMPDEST JUMPDEST DUP2 MLOAD PUSH3 0x616 DUP5 DUP3 PUSH1 0x20 DUP7 ADD PUSH3 0x5A3 JUMP JUMPDEST SWAP2 POP POP SWAP3 SWAP2 POP POP JUMP JUMPDEST PUSH0 PUSH3 0x635 PUSH3 0x62F DUP5 PUSH3 0x50E JUMP JUMPDEST PUSH3 0x4F0 JUMP JUMPDEST SWAP1 POP DUP1 DUP4 DUP3 MSTORE PUSH1 0x20 DUP3 ADD SWAP1 POP PUSH1 0x20 DUP5 MUL DUP4 ADD DUP6 DUP2 GT ISZERO PUSH3 0x65B JUMPI PUSH3 0x65A PUSH3 0x53C JUMP JUMPDEST JUMPDEST DUP4 JUMPDEST DUP2 DUP2 LT ISZERO PUSH3 0x6A9 JUMPI DUP1 MLOAD PUSH8 0xFFFFFFFFFFFFFFFF DUP2 GT ISZERO PUSH3 0x684 JUMPI PUSH3 0x683 PUSH3 0x479 JUMP JUMPDEST JUMPDEST DUP1 DUP7 ADD PUSH3 0x693 DUP10 DUP3 PUSH3 0x5ED JUMP JUMPDEST DUP6 MSTORE PUSH1 0x20 DUP6 ADD SWAP5 POP POP POP PUSH1 0x20 DUP2 ADD SWAP1 POP PUSH3 0x65D JUMP JUMPDEST POP POP POP SWAP4 SWAP3 POP POP POP JUMP JUMPDEST PUSH0 DUP3 PUSH1 0x1F DUP4 ADD SLT PUSH3 0x6CA JUMPI PUSH3 0x6C9 PUSH3 0x479 JUMP JUMPDEST JUMPDEST DUP2 MLOAD PUSH3 0x6DC DUP5 DUP3 PUSH1 0x20 DUP7 ADD PUSH3 0x61F JUMP JUMPDEST SWAP2 POP POP SWAP3 SWAP2 POP POP JUMP JUMPDEST PUSH0 PUSH1 0x20 DUP3 DUP5 SUB SLT ISZERO PUSH3 0x6FD JUMPI PUSH3 0x6FC PUSH3 0x39F JUMP JUMPDEST JUMPDEST PUSH0 DUP3 ADD MLOAD PUSH8 0xFFFFFFFFFFFFFFFF DUP2 GT ISZERO PUSH3 0x71D JUMPI PUSH3 0x71C PUSH3 0x3A3 JUMP JUMPDEST JUMPDEST PUSH3 0x72B DUP5 DUP3 DUP6 ADD PUSH3 0x6B3 JUMP JUMPDEST SWAP2 POP POP SWAP3 SWAP2 POP POP JUMP JUMPDEST PUSH0 DUP2 MLOAD SWAP1 POP SWAP2 SWAP1 POP JUMP JUMPDEST PUSH32 0x4E487B7100000000000000000000000000000000000000000000000000000000 PUSH0 MSTORE PUSH1 0x22 PUSH1 0x4 MSTORE PUSH1 0x24 PUSH0 REVERT JUMPDEST PUSH0 PUSH1 0x2 DUP3 DIV SWAP1 POP PUSH1 0x1 DUP3 AND DUP1 PUSH3 0x783 JUMPI PUSH1 0x7F DUP3 AND SWAP2 POP JUMPDEST PUSH1 0x20 DUP3 LT DUP2 SUB PUSH3 0x799 JUMPI PUSH3 0x798 PUSH3 0x73E JUMP JUMPDEST JUMPDEST POP SWAP2 SWAP1 POP JUMP JUMPDEST PUSH0 DUP2 SWAP1 POP DUP2 PUSH0 MSTORE PUSH1 0x20 PUSH0 KECCAK256 SWAP1 POP SWAP2 SWAP1 POP JUMP JUMPDEST PUSH0 PUSH1 0x20 PUSH1 0x1F DUP4 ADD DIV SWAP1 POP SWAP2 SWAP1 POP JUMP JUMPDEST PUSH0 DUP3 DUP3 SHL SWAP1 POP SWAP3 SWAP2 POP POP JUMP JUMPDEST PUSH0 PUSH1 0x8 DUP4 MUL PUSH3 0x7FD PUSH32 0xFFFFFFFFFFFFFFFFFFFFFFFFFFFFFFFFFFFFFFFFFFFFFFFFFFFFFFFFFFFFFFFF DUP3 PUSH3 0x7C0 JUMP JUMPDEST PUSH3 0x809 DUP7 DUP4 PUSH3 0x7C0 JUMP JUMPDEST SWAP6 POP DUP1 NOT DUP5 AND SWAP4 POP DUP1 DUP7 AND DUP5 OR SWAP3 POP POP POP SWAP4 SWAP3 POP POP POP JUMP JUMPDEST PUSH0 DUP2 SWAP1 POP SWAP2 SWAP1 POP JUMP JUMPDEST PUSH0 DUP2 SWAP1 POP SWAP2 SWAP1 POP JUMP JUMPDEST PUSH0 PUSH3 0x853 PUSH3 0x84D PUSH3 0x847 DUP5 PUSH3 0x821 JUMP JUMPDEST PUSH3 0x82A JUMP JUMPDEST PUSH3 0x821 JUMP JUMPDEST SWAP1 POP SWAP2 SWAP1 POP JUMP JUMPDEST PUSH0 DUP2 SWAP1 POP SWAP2 SWAP1 POP JUMP JUMPDEST PUSH3 0x86E DUP4 PUSH3 0x833 JUMP JUMPDEST PUSH3 0x886 PUSH3 0x87D DUP3 PUSH3 0x85A JUMP JUMPDEST DUP5 DUP5 SLOAD PUSH3 0x7CC JUMP JUMPDEST DUP3 SSTORE POP POP POP POP JUMP JUMPDEST PUSH0 SWAP1 JUMP JUMPDEST PUSH3 0x89C PUSH3 0x88E JUMP JUMPDEST PUSH3 0x8A9 DUP2 DUP5 DUP5 PUSH3 0x863 JUMP JUMPDEST POP POP POP JUMP JUMPDEST JUMPDEST DUP2 DUP2 LT ISZERO PUSH3 0x8D0 JUMPI PUSH3 0x8C4 PUSH0 DUP3 PUSH3 0x892 JUMP JUMPDEST PUSH1 0x1 DUP2 ADD SWAP1 POP PUSH3 0x8AF JUMP JUMPDEST POP POP JUMP JUMPDEST PUSH1 0x1F DUP3 GT ISZERO PUSH3 0x91F JUMPI PUSH3 0x8E9 DUP2 PUSH3 0x79F JUMP JUMPDEST PUSH3 0x8F4 DUP5 PUSH3 0x7B1 JUMP JUMPDEST DUP2 ADD PUSH1 0x20 DUP6 LT ISZERO PUSH3 0x904 JUMPI DUP2 SWAP1 POP JUMPDEST PUSH3 0x91C PUSH3 0x913 DUP6 PUSH3 0x7B1 JUMP JUMPDEST DUP4 ADD DUP3 PUSH3 0x8AE JUMP JUMPDEST POP POP JUMPDEST POP POP POP JUMP JUMPDEST PUSH0 DUP3 DUP3 SHR SWAP1 POP SWAP3 SWAP2 POP POP JUMP JUMPDEST PUSH0 PUSH3 0x941 PUSH0 NOT DUP5 PUSH1 0x8 MUL PUSH3 0x924 JUMP JUMPDEST NOT DUP1 DUP4 AND SWAP2 POP POP SWAP3 SWAP2 POP POP JUMP JUMPDEST PUSH0 PUSH3 0x95B DUP4 DUP4 PUSH3 0x930 JUMP JUMPDEST SWAP2 POP DUP3 PUSH1 0x2 MUL DUP3 OR SWAP1 POP SWAP3 SWAP2 POP POP JUMP JUMPDEST PUSH3 0x976 DUP3 PUSH3 0x734 JUMP JUMPDEST PUSH8 0xFFFFFFFFFFFFFFFF DUP2 GT ISZERO PUSH3 0x992 JUMPI PUSH3 0x991 PUSH3 0x48D JUMP JUMPDEST JUMPDEST PUSH3 0x99E DUP3 SLOAD PUSH3 0x76B JUMP JUMPDEST PUSH3 0x9AB DUP3 DUP3 DUP6 PUSH3 0x8D4 JUMP JUMPDEST PUSH0 PUSH1 0x20 SWAP1 POP PUSH1 0x1F DUP4 GT PUSH1 0x1 DUP2 EQ PUSH3 0x9E1 JUMPI PUSH0 DUP5 ISZERO PUSH3 0x9CC JUMPI DUP3 DUP8 ADD MLOAD SWAP1 POP JUMPDEST PUSH3 0x9D8 DUP6 DUP3 PUSH3 0x94E JUMP JUMPDEST DUP7 SSTORE POP PUSH3 0xA47 JUMP JUMPDEST PUSH1 0x1F NOT DUP5 AND PUSH3 0x9F1 DUP7 PUSH3 0x79F JUMP JUMPDEST PUSH0 JUMPDEST DUP3 DUP2 LT ISZERO PUSH3 0xA1A JUMPI DUP5 DUP10 ADD MLOAD DUP3 SSTORE PUSH1 0x1 DUP3 ADD SWAP2 POP PUSH1 0x20 DUP6 ADD SWAP5 POP PUSH1 0x20 DUP2 ADD SWAP1 POP PUSH3 0x9F3 JUMP JUMPDEST DUP7 DUP4 LT ISZERO PUSH3 0xA3A JUMPI DUP5 DUP10 ADD MLOAD PUSH3 0xA36 PUSH1 0x1F DUP10 AND DUP3 PUSH3 0x930 JUMP JUMPDEST DUP4 SSTORE POP JUMPDEST PUSH1 0x1 PUSH1 0x2 DUP9 MUL ADD DUP9 SSTORE POP POP POP JUMPDEST POP POP POP POP POP POP JUMP JUMPDEST PUSH2 0x1D8C DUP1 PUSH3 0xA5D PUSH0 CODECOPY PUSH0 RETURN INVALID PUSH1 0x80 PUSH1 0x40 MSTORE CALLVALUE DUP1 ISZERO PUSH2 0xF JUMPI PUSH0 DUP1 REVERT JUMPDEST POP PUSH1 0x4 CALLDATASIZE LT PUSH2 0xCD JUMPI PUSH0 CALLDATALOAD PUSH1 0xE0 SHR DUP1 PUSH4 0x8DA5CB5B GT PUSH2 0x8A JUMPI DUP1 PUSH4 0xA9B295E3 GT PUSH2 0x64 JUMPI DUP1 PUSH4 0xA9B295E3 EQ PUSH2 0x1E9 JUMPI DUP1 PUSH4 0xB30282FA EQ PUSH2 0x219 JUMPI DUP1 PUSH4 0xB98CB1A4 EQ PUSH2 0x249 JUMPI DUP1 PUSH4 0xF2FDE38B EQ PUSH2 0x279 JUMPI PUSH2 0xCD JUMP JUMPDEST DUP1 PUSH4 0x8DA5CB5B EQ PUSH2 0x17F JUMPI DUP1 PUSH4 0x9A82845C EQ PUSH2 0x19D JUMPI DUP1 PUSH4 0x9C2BADEF EQ PUSH2 0x1B9 JUMPI PUSH2 0xCD JUMP JUMPDEST DUP1 PUSH4 0x11C2F8E6 EQ PUSH2 0xD1 JUMPI DUP1 PUSH4 0x58581383 EQ PUSH2 0xEF JUMPI DUP1 PUSH4 0x6100B02B EQ PUSH2 0x11F JUMPI DUP1 PUSH4 0x715018A6 EQ PUSH2 0x13B JUMPI DUP1 PUSH4 0x7EAABF2F EQ PUSH2 0x145 JUMPI DUP1 PUSH4 0x858E1A9B EQ PUSH2 0x163 JUMPI JUMPDEST PUSH0 DUP1 REVERT JUMPDEST PUSH2 0xD9 PUSH2 0x295 JUMP JUMPDEST PUSH1 0x40 MLOAD PUSH2 0xE6 SWAP2 SWAP1 PUSH2 0xF4F JUMP JUMPDEST PUSH1 0x40 MLOAD DUP1 SWAP2 SUB SWAP1 RETURN JUMPDEST PUSH2 0x109 PUSH1 0x4 DUP1 CALLDATASIZE SUB DUP2 ADD SWAP1 PUSH2 0x104 SWAP2 SWAP1 PUSH2 0xFB4 JUMP JUMPDEST PUSH2 0x2BA JUMP JUMPDEST PUSH1 0x40 MLOAD PUSH2 0x116 SWAP2 SWAP1 PUSH2 0x1069 JUMP JUMPDEST PUSH1 0x40 MLOAD DUP1 SWAP2 SUB SWAP1 RETURN JUMPDEST PUSH2 0x139 PUSH1 0x4 DUP1 CALLDATASIZE SUB DUP2 ADD SWAP1 PUSH2 0x134 SWAP2 SWAP1 PUSH2 0x1297 JUMP JUMPDEST PUSH2 0x387 JUMP JUMPDEST STOP JUMPDEST PUSH2 0x143 PUSH2 0x586 JUMP JUMPDEST STOP JUMPDEST PUSH2 0x14D PUSH2 0x599 JUMP JUMPDEST PUSH1 0x40 MLOAD PUSH2 0x15A SWAP2 SWAP1 PUSH2 0x12ED JUMP JUMPDEST PUSH1 0x40 MLOAD DUP1 SWAP2 SUB SWAP1 RETURN JUMPDEST PUSH2 0x17D PUSH1 0x4 DUP1 CALLDATASIZE SUB DUP2 ADD SWAP1 PUSH2 0x178 SWAP2 SWAP1 PUSH2 0x13C6 JUMP JUMPDEST PUSH2 0x5BE JUMP JUMPDEST STOP JUMPDEST PUSH2 0x187 PUSH2 0x908 JUMP JUMPDEST PUSH1 0x40 MLOAD PUSH2 0x194 SWAP2 SWAP1 PUSH2 0x12ED JUMP JUMPDEST PUSH1 0x40 MLOAD DUP1 SWAP2 SUB SWAP1 RETURN JUMPDEST PUSH2 0x1B7 PUSH1 0x4 DUP1 CALLDATASIZE SUB DUP2 ADD SWAP1 PUSH2 0x1B2 SWAP2 SWAP1 PUSH2 0xFB4 JUMP JUMPDEST PUSH2 0x92F JUMP JUMPDEST STOP JUMPDEST PUSH2 0x1D3 PUSH1 0x4 DUP1 CALLDATASIZE SUB DUP2 ADD SWAP1 PUSH2 0x1CE SWAP2 SWAP1 PUSH2 0xFB4 JUMP JUMPDEST PUSH2 0xA61 JUMP JUMPDEST PUSH1 0x40 MLOAD PUSH2 0x1E0 SWAP2 SWAP1 PUSH2 0x1069 JUMP JUMPDEST PUSH1 0x40 MLOAD DUP1 SWAP2 SUB SWAP1 RETURN JUMPDEST PUSH2 0x203 PUSH1 0x4 DUP1 CALLDATASIZE SUB DUP2 ADD SWAP1 PUSH2 0x1FE SWAP2 SWAP1 PUSH2 0x143C JUMP JUMPDEST PUSH2 0xAFC JUMP JUMPDEST PUSH1 0x40 MLOAD PUSH2 0x210 SWAP2 SWAP1 PUSH2 0x12ED JUMP JUMPDEST PUSH1 0x40 MLOAD DUP1 SWAP2 SUB SWAP1 RETURN JUMPDEST PUSH2 0x233 PUSH1 0x4 DUP1 CALLDATASIZE SUB DUP2 ADD SWAP1 PUSH2 0x22E SWAP2 SWAP1 PUSH2 0x14B6 JUMP JUMPDEST PUSH2 0xB42 JUMP JUMPDEST PUSH1 0x40 MLOAD PUSH2 0x240 SWAP2 SWAP1 PUSH2 0x1069 JUMP JUMPDEST PUSH1 0x40 MLOAD DUP1 SWAP2 SUB SWAP1 RETURN JUMPDEST PUSH2 0x263 PUSH1 0x4 DUP1 CALLDATASIZE SUB DUP2 ADD SWAP1 PUSH2 0x25E SWAP2 SWAP1 PUSH2 0x143C JUMP JUMPDEST PUSH2 0xBE8 JUMP JUMPDEST PUSH1 0x40 MLOAD PUSH2 0x270 SWAP2 SWAP1 PUSH2 0x12ED JUMP JUMPDEST PUSH1 0x40 MLOAD DUP1 SWAP2 SUB SWAP1 RETURN JUMPDEST PUSH2 0x293 PUSH1 0x4 DUP1 CALLDATASIZE SUB DUP2 ADD SWAP1 PUSH2 0x28E SWAP2 SWAP1 PUSH2 0xFB4 JUMP JUMPDEST PUSH2 0xC30 JUMP JUMPDEST STOP JUMPDEST PUSH1 0x2 PUSH0 SWAP1 SLOAD SWAP1 PUSH2 0x100 EXP SWAP1 DIV PUSH20 0xFFFFFFFFFFFFFFFFFFFFFFFFFFFFFFFFFFFFFFFF AND DUP2 JUMP JUMPDEST PUSH1 0x60 PUSH1 0x5 PUSH0 DUP4 PUSH20 0xFFFFFFFFFFFFFFFFFFFFFFFFFFFFFFFFFFFFFFFF AND PUSH20 0xFFFFFFFFFFFFFFFFFFFFFFFFFFFFFFFFFFFFFFFF AND DUP2 MSTORE PUSH1 0x20 ADD SWAP1 DUP2 MSTORE PUSH1 0x20 ADD PUSH0 KECCAK256 DUP1 SLOAD PUSH2 0x304 SWAP1 PUSH2 0x150E JUMP JUMPDEST DUP1 PUSH1 0x1F ADD PUSH1 0x20 DUP1 SWAP2 DIV MUL PUSH1 0x20 ADD PUSH1 0x40 MLOAD SWAP1 DUP2 ADD PUSH1 0x40 MSTORE DUP1 SWAP3 SWAP2 SWAP1 DUP2 DUP2 MSTORE PUSH1 0x20 ADD DUP3 DUP1 SLOAD PUSH2 0x330 SWAP1 PUSH2 0x150E JUMP JUMPDEST DUP1 ISZERO PUSH2 0x37B JUMPI DUP1 PUSH1 0x1F LT PUSH2 0x352 JUMPI PUSH2 0x100 DUP1 DUP4 SLOAD DIV MUL DUP4 MSTORE SWAP2 PUSH1 0x20 ADD SWAP2 PUSH2 0x37B JUMP JUMPDEST DUP3 ADD SWAP2 SWAP1 PUSH0 MSTORE PUSH1 0x20 PUSH0 KECCAK256 SWAP1 JUMPDEST DUP2 SLOAD DUP2 MSTORE SWAP1 PUSH1 0x1 ADD SWAP1 PUSH1 0x20 ADD DUP1 DUP4 GT PUSH2 0x35E JUMPI DUP3 SWAP1 SUB PUSH1 0x1F AND DUP3 ADD SWAP2 JUMPDEST POP POP POP POP POP SWAP1 POP SWAP2 SWAP1 POP JUMP JUMPDEST PUSH2 0x38F PUSH2 0xCB4 JUMP JUMPDEST PUSH1 0x2 PUSH0 SWAP1 SLOAD SWAP1 PUSH2 0x100 EXP SWAP1 DIV PUSH20 0xFFFFFFFFFFFFFFFFFFFFFFFFFFFFFFFFFFFFFFFF AND PUSH20 0xFFFFFFFFFFFFFFFFFFFFFFFFFFFFFFFFFFFFFFFF AND PUSH4 0xB3D6DA6E PUSH1 0x40 MLOAD DUP2 PUSH4 0xFFFFFFFF AND PUSH1 0xE0 SHL DUP2 MSTORE PUSH1 0x4 ADD PUSH0 PUSH1 0x40 MLOAD DUP1 DUP4 SUB DUP2 DUP7 GAS STATICCALL ISZERO DUP1 ISZERO PUSH2 0x3F8 JUMPI RETURNDATASIZE PUSH0 DUP1 RETURNDATACOPY RETURNDATASIZE PUSH0 REVERT JUMPDEST POP POP POP POP PUSH1 0x40 MLOAD RETURNDATASIZE PUSH0 DUP3 RETURNDATACOPY RETURNDATASIZE PUSH1 0x1F NOT PUSH1 0x1F DUP3 ADD AND DUP3 ADD DUP1 PUSH1 0x40 MSTORE POP DUP2 ADD SWAP1 PUSH2 0x420 SWAP2 SWAP1 PUSH2 0x165F JUMP JUMPDEST PUSH1 0x3 SWAP1 DUP1 MLOAD SWAP1 PUSH1 0x20 ADD SWAP1 PUSH2 0x435 SWAP3 SWAP2 SWAP1 PUSH2 0xE03 JUMP JUMPDEST POP PUSH0 JUMPDEST DUP2 MLOAD DUP2 LT ISZERO PUSH2 0x547 JUMPI PUSH1 0x4 DUP3 DUP3 DUP2 MLOAD DUP2 LT PUSH2 0x456 JUMPI PUSH2 0x455 PUSH2 0x16A6 JUMP JUMPDEST JUMPDEST PUSH1 0x20 MUL PUSH1 0x20 ADD ADD MLOAD PUSH1 0x40 MLOAD PUSH2 0x46B SWAP2 SWAP1 PUSH2 0x170D JUMP JUMPDEST SWAP1 DUP2 MSTORE PUSH1 0x20 ADD PUSH1 0x40 MLOAD DUP1 SWAP2 SUB SWAP1 KECCAK256 PUSH0 PUSH2 0x100 EXP DUP2 SLOAD SWAP1 PUSH20 0xFFFFFFFFFFFFFFFFFFFFFFFFFFFFFFFFFFFFFFFF MUL NOT AND SWAP1 SSTORE PUSH1 0x5 PUSH0 PUSH1 0x4 DUP5 DUP5 DUP2 MLOAD DUP2 LT PUSH2 0x4B3 JUMPI PUSH2 0x4B2 PUSH2 0x16A6 JUMP JUMPDEST JUMPDEST PUSH1 0x20 MUL PUSH1 0x20 ADD ADD MLOAD PUSH1 0x40 MLOAD PUSH2 0x4C8 SWAP2 SWAP1 PUSH2 0x170D JUMP JUMPDEST SWAP1 DUP2 MSTORE PUSH1 0x20 ADD PUSH1 0x40 MLOAD DUP1 SWAP2 SUB SWAP1 KECCAK256 PUSH0 SWAP1 SLOAD SWAP1 PUSH2 0x100 EXP SWAP1 DIV PUSH20 0xFFFFFFFFFFFFFFFFFFFFFFFFFFFFFFFFFFFFFFFF AND PUSH20 0xFFFFFFFFFFFFFFFFFFFFFFFFFFFFFFFFFFFFFFFF AND PUSH20 0xFFFFFFFFFFFFFFFFFFFFFFFFFFFFFFFFFFFFFFFF AND DUP2 MSTORE PUSH1 0x20 ADD SWAP1 DUP2 MSTORE PUSH1 0x20 ADD PUSH0 KECCAK256 PUSH0 PUSH2 0x53A SWAP2 SWAP1 PUSH2 0xE5A JUMP JUMPDEST DUP1 DUP1 PUSH1 0x1 ADD SWAP2 POP POP PUSH2 0x438 JUMP JUMPDEST POP PUSH32 0x98BEEE4DCDFA3CCDA31A4264B56FC086138A1C58E9679B993926DACBC44FF1BA DUP2 TIMESTAMP CALLER PUSH1 0x40 MLOAD PUSH2 0x57B SWAP4 SWAP3 SWAP2 SWAP1 PUSH2 0x187F JUMP JUMPDEST PUSH1 0x40 MLOAD DUP1 SWAP2 SUB SWAP1 LOG1 POP JUMP JUMPDEST PUSH2 0x58E PUSH2 0xCB4 JUMP JUMPDEST PUSH2 0x597 PUSH0 PUSH2 0xD3B JUMP JUMPDEST JUMP JUMPDEST PUSH1 0x1 PUSH0 SWAP1 SLOAD SWAP1 PUSH2 0x100 EXP SWAP1 DIV PUSH20 0xFFFFFFFFFFFFFFFFFFFFFFFFFFFFFFFFFFFFFFFF AND DUP2 JUMP JUMPDEST PUSH2 0x5C6 PUSH2 0xCB4 JUMP JUMPDEST PUSH1 0x2 PUSH0 SWAP1 SLOAD SWAP1 PUSH2 0x100 EXP SWAP1 DIV PUSH20 0xFFFFFFFFFFFFFFFFFFFFFFFFFFFFFFFFFFFFFFFF AND PUSH20 0xFFFFFFFFFFFFFFFFFFFFFFFFFFFFFFFFFFFFFFFF AND PUSH4 0xB3D6DA6E PUSH1 0x40 MLOAD DUP2 PUSH4 0xFFFFFFFF AND PUSH1 0xE0 SHL DUP2 MSTORE PUSH1 0x4 ADD PUSH0 PUSH1 0x40 MLOAD DUP1 DUP4 SUB DUP2 DUP7 GAS STATICCALL ISZERO DUP1 ISZERO PUSH2 0x62F JUMPI RETURNDATASIZE PUSH0 DUP1 RETURNDATACOPY RETURNDATASIZE PUSH0 REVERT JUMPDEST POP POP POP POP PUSH1 0x40 MLOAD RETURNDATASIZE PUSH0 DUP3 RETURNDATACOPY RETURNDATASIZE PUSH1 0x1F NOT PUSH1 0x1F DUP3 ADD AND DUP3 ADD DUP1 PUSH1 0x40 MSTORE POP DUP2 ADD SWAP1 PUSH2 0x657 SWAP2 SWAP1 PUSH2 0x165F JUMP JUMPDEST PUSH1 0x3 SWAP1 DUP1 MLOAD SWAP1 PUSH1 0x20 ADD SWAP1 PUSH2 0x66C SWAP3 SWAP2 SWAP1 PUSH2 0xE03 JUMP JUMPDEST POP DUP1 MLOAD DUP3 MLOAD EQ PUSH2 0x6B1 JUMPI PUSH1 0x40 MLOAD PUSH32 0x8C379A000000000000000000000000000000000000000000000000000000000 DUP2 MSTORE PUSH1 0x4 ADD PUSH2 0x6A8 SWAP1 PUSH2 0x193E JUMP JUMPDEST PUSH1 0x40 MLOAD DUP1 SWAP2 SUB SWAP1 REVERT JUMPDEST PUSH0 JUMPDEST DUP3 MLOAD DUP2 LT ISZERO PUSH2 0x8C8 JUMPI PUSH0 DUP1 JUMPDEST PUSH1 0x3 DUP1 SLOAD SWAP1 POP DUP2 LT ISZERO PUSH2 0x76A JUMPI PUSH1 0x3 DUP2 DUP2 SLOAD DUP2 LT PUSH2 0x6E0 JUMPI PUSH2 0x6DF PUSH2 0x16A6 JUMP JUMPDEST JUMPDEST SWAP1 PUSH0 MSTORE PUSH1 0x20 PUSH0 KECCAK256 ADD PUSH1 0x40 MLOAD PUSH1 0x20 ADD PUSH2 0x6F8 SWAP2 SWAP1 PUSH2 0x19EE JUMP JUMPDEST PUSH1 0x40 MLOAD PUSH1 0x20 DUP2 DUP4 SUB SUB DUP2 MSTORE SWAP1 PUSH1 0x40 MSTORE DUP1 MLOAD SWAP1 PUSH1 0x20 ADD KECCAK256 DUP6 DUP5 DUP2 MLOAD DUP2 LT PUSH2 0x721 JUMPI PUSH2 0x720 PUSH2 0x16A6 JUMP JUMPDEST JUMPDEST PUSH1 0x20 MUL PUSH1 0x20 ADD ADD MLOAD PUSH1 0x40 MLOAD PUSH1 0x20 ADD PUSH2 0x739 SWAP2 SWAP1 PUSH2 0x170D JUMP JUMPDEST PUSH1 0x40 MLOAD PUSH1 0x20 DUP2 DUP4 SUB SUB DUP2 MSTORE SWAP1 PUSH1 0x40 MSTORE DUP1 MLOAD SWAP1 PUSH1 0x20 ADD KECCAK256 SUB PUSH2 0x75D JUMPI PUSH1 0x1 SWAP2 POP PUSH2 0x76A JUMP JUMPDEST DUP1 DUP1 PUSH1 0x1 ADD SWAP2 POP POP PUSH2 0x6BF JUMP JUMPDEST POP DUP1 PUSH2 0x7AB JUMPI PUSH1 0x40 MLOAD PUSH32 0x8C379A000000000000000000000000000000000000000000000000000000000 DUP2 MSTORE PUSH1 0x4 ADD PUSH2 0x7A2 SWAP1 PUSH2 0x1A4E JUMP JUMPDEST PUSH1 0x40 MLOAD DUP1 SWAP2 SUB SWAP1 REVERT JUMPDEST DUP3 DUP3 DUP2 MLOAD DUP2 LT PUSH2 0x7BE JUMPI PUSH2 0x7BD PUSH2 0x16A6 JUMP JUMPDEST JUMPDEST PUSH1 0x20 MUL PUSH1 0x20 ADD ADD MLOAD PUSH1 0x4 DUP6 DUP5 DUP2 MLOAD DUP2 LT PUSH2 0x7DB JUMPI PUSH2 0x7DA PUSH2 0x16A6 JUMP JUMPDEST JUMPDEST PUSH1 0x20 MUL PUSH1 0x20 ADD ADD MLOAD PUSH1 0x40 MLOAD PUSH2 0x7F0 SWAP2 SWAP1 PUSH2 0x170D JUMP JUMPDEST SWAP1 DUP2 MSTORE PUSH1 0x20 ADD PUSH1 0x40 MLOAD DUP1 SWAP2 SUB SWAP1 KECCAK256 PUSH0 PUSH2 0x100 EXP DUP2 SLOAD DUP2 PUSH20 0xFFFFFFFFFFFFFFFFFFFFFFFFFFFFFFFFFFFFFFFF MUL NOT AND SWAP1 DUP4 PUSH20 0xFFFFFFFFFFFFFFFFFFFFFFFFFFFFFFFFFFFFFFFF AND MUL OR SWAP1 SSTORE POP DUP4 DUP3 DUP2 MLOAD DUP2 LT PUSH2 0x84E JUMPI PUSH2 0x84D PUSH2 0x16A6 JUMP JUMPDEST JUMPDEST PUSH1 0x20 MUL PUSH1 0x20 ADD ADD MLOAD PUSH1 0x5 PUSH0 DUP6 DUP6 DUP2 MLOAD DUP2 LT PUSH2 0x86C JUMPI PUSH2 0x86B PUSH2 0x16A6 JUMP JUMPDEST JUMPDEST PUSH1 0x20 MUL PUSH1 0x20 ADD ADD MLOAD PUSH20 0xFFFFFFFFFFFFFFFFFFFFFFFFFFFFFFFFFFFFFFFF AND PUSH20 0xFFFFFFFFFFFFFFFFFFFFFFFFFFFFFFFFFFFFFFFF AND DUP2 MSTORE PUSH1 0x20 ADD SWAP1 DUP2 MSTORE PUSH1 0x20 ADD PUSH0 KECCAK256 SWAP1 DUP2 PUSH2 0x8B9 SWAP2 SWAP1 PUSH2 0x1BEE JUMP JUMPDEST POP POP DUP1 DUP1 PUSH1 0x1 ADD SWAP2 POP POP PUSH2 0x6B3 JUMP JUMPDEST POP PUSH32 0x98BEEE4DCDFA3CCDA31A4264B56FC086138A1C58E9679B993926DACBC44FF1BA DUP3 TIMESTAMP CALLER PUSH1 0x40 MLOAD PUSH2 0x8FC SWAP4 SWAP3 SWAP2 SWAP1 PUSH2 0x1D07 JUMP JUMPDEST PUSH1 0x40 MLOAD DUP1 SWAP2 SUB SWAP1 LOG1 POP POP JUMP JUMPDEST PUSH0 DUP1 PUSH0 SWAP1 SLOAD SWAP1 PUSH2 0x100 EXP SWAP1 DIV PUSH20 0xFFFFFFFFFFFFFFFFFFFFFFFFFFFFFFFFFFFFFFFF AND SWAP1 POP SWAP1 JUMP JUMPDEST PUSH2 0x937 PUSH2 0xCB4 JUMP JUMPDEST DUP1 PUSH1 0x1 PUSH0 PUSH2 0x100 EXP DUP2 SLOAD DUP2 PUSH20 0xFFFFFFFFFFFFFFFFFFFFFFFFFFFFFFFFFFFFFFFF MUL NOT AND SWAP1 DUP4 PUSH20 0xFFFFFFFFFFFFFFFFFFFFFFFFFFFFFFFFFFFFFFFF AND MUL OR SWAP1 SSTORE POP DUP1 PUSH1 0x2 PUSH0 PUSH2 0x100 EXP DUP2 SLOAD DUP2 PUSH20 0xFFFFFFFFFFFFFFFFFFFFFFFFFFFFFFFFFFFFFFFF MUL NOT AND SWAP1 DUP4 PUSH20 0xFFFFFFFFFFFFFFFFFFFFFFFFFFFFFFFFFFFFFFFF AND MUL OR SWAP1 SSTORE POP PUSH1 0x2 PUSH0 SWAP1 SLOAD SWAP1 PUSH2 0x100 EXP SWAP1 DIV PUSH20 0xFFFFFFFFFFFFFFFFFFFFFFFFFFFFFFFFFFFFFFFF AND PUSH20 0xFFFFFFFFFFFFFFFFFFFFFFFFFFFFFFFFFFFFFFFF AND PUSH4 0xB3D6DA6E PUSH1 0x40 MLOAD DUP2 PUSH4 0xFFFFFFFF AND PUSH1 0xE0 SHL DUP2 MSTORE PUSH1 0x4 ADD PUSH0 PUSH1 0x40 MLOAD DUP1 DUP4 SUB DUP2 DUP7 GAS STATICCALL ISZERO DUP1 ISZERO PUSH2 0xA20 JUMPI RETURNDATASIZE PUSH0 DUP1 RETURNDATACOPY RETURNDATASIZE PUSH0 REVERT JUMPDEST POP POP POP POP PUSH1 0x40 MLOAD RETURNDATASIZE PUSH0 DUP3 RETURNDATACOPY RETURNDATASIZE PUSH1 0x1F NOT PUSH1 0x1F DUP3 ADD AND DUP3 ADD DUP1 PUSH1 0x40 MSTORE POP DUP2 ADD SWAP1 PUSH2 0xA48 SWAP2 SWAP1 PUSH2 0x165F JUMP JUMPDEST PUSH1 0x3 SWAP1 DUP1 MLOAD SWAP1 PUSH1 0x20 ADD SWAP1 PUSH2 0xA5D SWAP3 SWAP2 SWAP1 PUSH2 0xE03 JUMP JUMPDEST POP POP JUMP JUMPDEST PUSH1 0x5 PUSH1 0x20 MSTORE DUP1 PUSH0 MSTORE PUSH1 0x40 PUSH0 KECCAK256 PUSH0 SWAP2 POP SWAP1 POP DUP1 SLOAD PUSH2 0xA7D SWAP1 PUSH2 0x150E JUMP JUMPDEST DUP1 PUSH1 0x1F ADD PUSH1 0x20 DUP1 SWAP2 DIV MUL PUSH1 0x20 ADD PUSH1 0x40 MLOAD SWAP1 DUP2 ADD PUSH1 0x40 MSTORE DUP1 SWAP3 SWAP2 SWAP1 DUP2 DUP2 MSTORE PUSH1 0x20 ADD DUP3 DUP1 SLOAD PUSH2 0xAA9 SWAP1 PUSH2 0x150E JUMP JUMPDEST DUP1 ISZERO PUSH2 0xAF4 JUMPI DUP1 PUSH1 0x1F LT PUSH2 0xACB JUMPI PUSH2 0x100 DUP1 DUP4 SLOAD DIV MUL DUP4 MSTORE SWAP2 PUSH1 0x20 ADD SWAP2 PUSH2 0xAF4 JUMP JUMPDEST DUP3 ADD SWAP2 SWAP1 PUSH0 MSTORE PUSH1 0x20 PUSH0 KECCAK256 SWAP1 JUMPDEST DUP2 SLOAD DUP2 MSTORE SWAP1 PUSH1 0x1 ADD SWAP1 PUSH1 0x20 ADD DUP1 DUP4 GT PUSH2 0xAD7 JUMPI DUP3 SWAP1 SUB PUSH1 0x1F AND DUP3 ADD SWAP2 JUMPDEST POP POP POP POP POP DUP2 JUMP JUMPDEST PUSH0 PUSH1 0x4 DUP3 PUSH1 0x40 MLOAD PUSH2 0xB0D SWAP2 SWAP1 PUSH2 0x170D JUMP JUMPDEST SWAP1 DUP2 MSTORE PUSH1 0x20 ADD PUSH1 0x40 MLOAD DUP1 SWAP2 SUB SWAP1 KECCAK256 PUSH0 SWAP1 SLOAD SWAP1 PUSH2 0x100 EXP SWAP1 DIV PUSH20 0xFFFFFFFFFFFFFFFFFFFFFFFFFFFFFFFFFFFFFFFF AND SWAP1 POP SWAP2 SWAP1 POP JUMP JUMPDEST PUSH1 0x3 DUP2 DUP2 SLOAD DUP2 LT PUSH2 0xB51 JUMPI PUSH0 DUP1 REVERT JUMPDEST SWAP1 PUSH0 MSTORE PUSH1 0x20 PUSH0 KECCAK256 ADD PUSH0 SWAP2 POP SWAP1 POP DUP1 SLOAD PUSH2 0xB69 SWAP1 PUSH2 0x150E JUMP JUMPDEST DUP1 PUSH1 0x1F ADD PUSH1 0x20 DUP1 SWAP2 DIV MUL PUSH1 0x20 ADD PUSH1 0x40 MLOAD SWAP1 DUP2 ADD PUSH1 0x40 MSTORE DUP1 SWAP3 SWAP2 SWAP1 DUP2 DUP2 MSTORE PUSH1 0x20 ADD DUP3 DUP1 SLOAD PUSH2 0xB95 SWAP1 PUSH2 0x150E JUMP JUMPDEST DUP1 ISZERO PUSH2 0xBE0 JUMPI DUP1 PUSH1 0x1F LT PUSH2 0xBB7 JUMPI PUSH2 0x100 DUP1 DUP4 SLOAD DIV MUL DUP4 MSTORE SWAP2 PUSH1 0x20 ADD SWAP2 PUSH2 0xBE0 JUMP JUMPDEST DUP3 ADD SWAP2 SWAP1 PUSH0 MSTORE PUSH1 0x20 PUSH0 KECCAK256 SWAP1 JUMPDEST DUP2 SLOAD DUP2 MSTORE SWAP1 PUSH1 0x1 ADD SWAP1 PUSH1 0x20 ADD DUP1 DUP4 GT PUSH2 0xBC3 JUMPI DUP3 SWAP1 SUB PUSH1 0x1F AND DUP3 ADD SWAP2 JUMPDEST POP POP POP POP POP DUP2 JUMP JUMPDEST PUSH1 0x4 DUP2 DUP1 MLOAD PUSH1 0x20 DUP2 ADD DUP3 ADD DUP1 MLOAD DUP5 DUP3 MSTORE PUSH1 0x20 DUP4 ADD PUSH1 0x20 DUP6 ADD KECCAK256 DUP2 DUP4 MSTORE DUP1 SWAP6 POP POP POP POP POP POP PUSH0 SWAP2 POP SLOAD SWAP1 PUSH2 0x100 EXP SWAP1 DIV PUSH20 0xFFFFFFFFFFFFFFFFFFFFFFFFFFFFFFFFFFFFFFFF AND DUP2 JUMP JUMPDEST PUSH2 0xC38 PUSH2 0xCB4 JUMP JUMPDEST PUSH0 PUSH20 0xFFFFFFFFFFFFFFFFFFFFFFFFFFFFFFFFFFFFFFFF AND DUP2 PUSH20 0xFFFFFFFFFFFFFFFFFFFFFFFFFFFFFFFFFFFFFFFF AND SUB PUSH2 0xCA8 JUMPI PUSH0 PUSH1 0x40 MLOAD PUSH32 0x1E4FBDF700000000000000000000000000000000000000000000000000000000 DUP2 MSTORE PUSH1 0x4 ADD PUSH2 0xC9F SWAP2 SWAP1 PUSH2 0x12ED JUMP JUMPDEST PUSH1 0x40 MLOAD DUP1 SWAP2 SUB SWAP1 REVERT JUMPDEST PUSH2 0xCB1 DUP2 PUSH2 0xD3B JUMP JUMPDEST POP JUMP JUMPDEST PUSH2 0xCBC PUSH2 0xDFC JUMP JUMPDEST PUSH20 0xFFFFFFFFFFFFFFFFFFFFFFFFFFFFFFFFFFFFFFFF AND PUSH2 0xCDA PUSH2 0x908 JUMP JUMPDEST PUSH20 0xFFFFFFFFFFFFFFFFFFFFFFFFFFFFFFFFFFFFFFFF AND EQ PUSH2 0xD39 JUMPI PUSH2 0xCFD PUSH2 0xDFC JUMP JUMPDEST PUSH1 0x40 MLOAD PUSH32 0x118CDAA700000000000000000000000000000000000000000000000000000000 DUP2 MSTORE PUSH1 0x4 ADD PUSH2 0xD30 SWAP2 SWAP1 PUSH2 0x12ED JUMP JUMPDEST PUSH1 0x40 MLOAD DUP1 SWAP2 SUB SWAP1 REVERT JUMPDEST JUMP JUMPDEST PUSH0 DUP1 PUSH0 SWAP1 SLOAD SWAP1 PUSH2 0x100 EXP SWAP1 DIV PUSH20 0xFFFFFFFFFFFFFFFFFFFFFFFFFFFFFFFFFFFFFFFF AND SWAP1 POP DUP2 PUSH0 DUP1 PUSH2 0x100 EXP DUP2 SLOAD DUP2 PUSH20 0xFFFFFFFFFFFFFFFFFFFFFFFFFFFFFFFFFFFFFFFF MUL NOT AND SWAP1 DUP4 PUSH20 0xFFFFFFFFFFFFFFFFFFFFFFFFFFFFFFFFFFFFFFFF AND MUL OR SWAP1 SSTORE POP DUP2 PUSH20 0xFFFFFFFFFFFFFFFFFFFFFFFFFFFFFFFFFFFFFFFF AND DUP2 PUSH20 0xFFFFFFFFFFFFFFFFFFFFFFFFFFFFFFFFFFFFFFFF AND PUSH32 0x8BE0079C531659141344CD1FD0A4F28419497F9722A3DAAFE3B4186F6B6457E0 PUSH1 0x40 MLOAD PUSH1 0x40 MLOAD DUP1 SWAP2 SUB SWAP1 LOG3 POP POP JUMP JUMPDEST PUSH0 CALLER SWAP1 POP SWAP1 JUMP JUMPDEST DUP3 DUP1 SLOAD DUP3 DUP3 SSTORE SWAP1 PUSH0 MSTORE PUSH1 0x20 PUSH0 KECCAK256 SWAP1 DUP2 ADD SWAP3 DUP3 ISZERO PUSH2 0xE49 JUMPI SWAP2 PUSH1 0x20 MUL DUP3 ADD JUMPDEST DUP3 DUP2 GT ISZERO PUSH2 0xE48 JUMPI DUP3 MLOAD DUP3 SWAP1 DUP2 PUSH2 0xE38 SWAP2 SWAP1 PUSH2 0x1BEE JUMP JUMPDEST POP SWAP2 PUSH1 0x20 ADD SWAP2 SWAP1 PUSH1 0x1 ADD SWAP1 PUSH2 0xE21 JUMP JUMPDEST JUMPDEST POP SWAP1 POP PUSH2 0xE56 SWAP2 SWAP1 PUSH2 0xE97 JUMP JUMPDEST POP SWAP1 JUMP JUMPDEST POP DUP1 SLOAD PUSH2 0xE66 SWAP1 PUSH2 0x150E JUMP JUMPDEST PUSH0 DUP3 SSTORE DUP1 PUSH1 0x1F LT PUSH2 0xE77 JUMPI POP PUSH2 0xE94 JUMP JUMPDEST PUSH1 0x1F ADD PUSH1 0x20 SWAP1 DIV SWAP1 PUSH0 MSTORE PUSH1 0x20 PUSH0 KECCAK256 SWAP1 DUP2 ADD SWAP1 PUSH2 0xE93 SWAP2 SWAP1 PUSH2 0xEBA JUMP JUMPDEST JUMPDEST POP JUMP JUMPDEST JUMPDEST DUP1 DUP3 GT ISZERO PUSH2 0xEB6 JUMPI PUSH0 DUP2 DUP2 PUSH2 0xEAD SWAP2 SWAP1 PUSH2 0xE5A JUMP JUMPDEST POP PUSH1 0x1 ADD PUSH2 0xE98 JUMP JUMPDEST POP SWAP1 JUMP JUMPDEST JUMPDEST DUP1 DUP3 GT ISZERO PUSH2 0xED1 JUMPI PUSH0 DUP2 PUSH0 SWAP1 SSTORE POP PUSH1 0x1 ADD PUSH2 0xEBB JUMP JUMPDEST POP SWAP1 JUMP JUMPDEST PUSH0 PUSH20 0xFFFFFFFFFFFFFFFFFFFFFFFFFFFFFFFFFFFFFFFF DUP3 AND SWAP1 POP SWAP2 SWAP1 POP JUMP JUMPDEST PUSH0 DUP2 SWAP1 POP SWAP2 SWAP1 POP JUMP JUMPDEST PUSH0 PUSH2 0xF17 PUSH2 0xF12 PUSH2 0xF0D DUP5 PUSH2 0xED5 JUMP JUMPDEST PUSH2 0xEF4 JUMP JUMPDEST PUSH2 0xED5 JUMP JUMPDEST SWAP1 POP SWAP2 SWAP1 POP JUMP JUMPDEST PUSH0 PUSH2 0xF28 DUP3 PUSH2 0xEFD JUMP JUMPDEST SWAP1 POP SWAP2 SWAP1 POP JUMP JUMPDEST PUSH0 PUSH2 0xF39 DUP3 PUSH2 0xF1E JUMP JUMPDEST SWAP1 POP SWAP2 SWAP1 POP JUMP JUMPDEST PUSH2 0xF49 DUP2 PUSH2 0xF2F JUMP JUMPDEST DUP3 MSTORE POP POP JUMP JUMPDEST PUSH0 PUSH1 0x20 DUP3 ADD SWAP1 POP PUSH2 0xF62 PUSH0 DUP4 ADD DUP5 PUSH2 0xF40 JUMP JUMPDEST SWAP3 SWAP2 POP POP JUMP JUMPDEST PUSH0 PUSH1 0x40 MLOAD SWAP1 POP SWAP1 JUMP JUMPDEST PUSH0 DUP1 REVERT JUMPDEST PUSH0 DUP1 REVERT JUMPDEST PUSH0 PUSH2 0xF83 DUP3 PUSH2 0xED5 JUMP JUMPDEST SWAP1 POP SWAP2 SWAP1 POP JUMP JUMPDEST PUSH2 0xF93 DUP2 PUSH2 0xF79 JUMP JUMPDEST DUP2 EQ PUSH2 0xF9D JUMPI PUSH0 DUP1 REVERT JUMPDEST POP JUMP JUMPDEST PUSH0 DUP2 CALLDATALOAD SWAP1 POP PUSH2 0xFAE DUP2 PUSH2 0xF8A JUMP JUMPDEST SWAP3 SWAP2 POP POP JUMP JUMPDEST PUSH0 PUSH1 0x20 DUP3 DUP5 SUB SLT ISZERO PUSH2 0xFC9 JUMPI PUSH2 0xFC8 PUSH2 0xF71 JUMP JUMPDEST JUMPDEST PUSH0 PUSH2 0xFD6 DUP5 DUP3 DUP6 ADD PUSH2 0xFA0 JUMP JUMPDEST SWAP2 POP POP SWAP3 SWAP2 POP POP JUMP JUMPDEST PUSH0 DUP2 MLOAD SWAP1 POP SWAP2 SWAP1 POP JUMP JUMPDEST PUSH0 DUP3 DUP3 MSTORE PUSH1 0x20 DUP3 ADD SWAP1 POP SWAP3 SWAP2 POP POP JUMP JUMPDEST PUSH0 JUMPDEST DUP4 DUP2 LT ISZERO PUSH2 0x1016 JUMPI DUP1 DUP3 ADD MLOAD DUP2 DUP5 ADD MSTORE PUSH1 0x20 DUP2 ADD SWAP1 POP PUSH2 0xFFB JUMP JUMPDEST PUSH0 DUP5 DUP5 ADD MSTORE POP POP POP POP JUMP JUMPDEST PUSH0 PUSH1 0x1F NOT PUSH1 0x1F DUP4 ADD AND SWAP1 POP SWAP2 SWAP1 POP JUMP JUMPDEST PUSH0 PUSH2 0x103B DUP3 PUSH2 0xFDF JUMP JUMPDEST PUSH2 0x1045 DUP2 DUP6 PUSH2 0xFE9 JUMP JUMPDEST SWAP4 POP PUSH2 0x1055 DUP2 DUP6 PUSH1 0x20 DUP7 ADD PUSH2 0xFF9 JUMP JUMPDEST PUSH2 0x105E DUP2 PUSH2 0x1021 JUMP JUMPDEST DUP5 ADD SWAP2 POP POP SWAP3 SWAP2 POP POP JUMP JUMPDEST PUSH0 PUSH1 0x20 DUP3 ADD SWAP1 POP DUP2 DUP2 SUB PUSH0 DUP4 ADD MSTORE PUSH2 0x1081 DUP2 DUP5 PUSH2 0x1031 JUMP JUMPDEST SWAP1 POP SWAP3 SWAP2 POP POP JUMP JUMPDEST PUSH0 DUP1 REVERT JUMPDEST PUSH32 0x4E487B7100000000000000000000000000000000000000000000000000000000 PUSH0 MSTORE PUSH1 0x41 PUSH1 0x4 MSTORE PUSH1 0x24 PUSH0 REVERT JUMPDEST PUSH2 0x10C3 DUP3 PUSH2 0x1021 JUMP JUMPDEST DUP2 ADD DUP2 DUP2 LT PUSH8 0xFFFFFFFFFFFFFFFF DUP3 GT OR ISZERO PUSH2 0x10E2 JUMPI PUSH2 0x10E1 PUSH2 0x108D JUMP JUMPDEST JUMPDEST DUP1 PUSH1 0x40 MSTORE POP POP POP JUMP JUMPDEST PUSH0 PUSH2 0x10F4 PUSH2 0xF68 JUMP JUMPDEST SWAP1 POP PUSH2 0x1100 DUP3 DUP3 PUSH2 0x10BA JUMP JUMPDEST SWAP2 SWAP1 POP JUMP JUMPDEST PUSH0 PUSH8 0xFFFFFFFFFFFFFFFF DUP3 GT ISZERO PUSH2 0x111F JUMPI PUSH2 0x111E PUSH2 0x108D JUMP JUMPDEST JUMPDEST PUSH1 0x20 DUP3 MUL SWAP1 POP PUSH1 0x20 DUP2 ADD SWAP1 POP SWAP2 SWAP1 POP JUMP JUMPDEST PUSH0 DUP1 REVERT JUMPDEST PUSH0 DUP1 REVERT JUMPDEST PUSH0 PUSH8 0xFFFFFFFFFFFFFFFF DUP3 GT ISZERO PUSH2 0x1152 JUMPI PUSH2 0x1151 PUSH2 0x108D JUMP JUMPDEST JUMPDEST PUSH2 0x115B DUP3 PUSH2 0x1021 JUMP JUMPDEST SWAP1 POP PUSH1 0x20 DUP2 ADD SWAP1 POP SWAP2 SWAP1 POP JUMP JUMPDEST DUP3 DUP2 DUP4 CALLDATACOPY PUSH0 DUP4 DUP4 ADD MSTORE POP POP POP JUMP JUMPDEST PUSH0 PUSH2 0x1188 PUSH2 0x1183 DUP5 PUSH2 0x1138 JUMP JUMPDEST PUSH2 0x10EB JUMP JUMPDEST SWAP1 POP DUP3 DUP2 MSTORE PUSH1 0x20 DUP2 ADD DUP5 DUP5 DUP5 ADD GT ISZERO PUSH2 0x11A4 JUMPI PUSH2 0x11A3 PUSH2 0x1134 JUMP JUMPDEST JUMPDEST PUSH2 0x11AF DUP5 DUP3 DUP6 PUSH2 0x1168 JUMP JUMPDEST POP SWAP4 SWAP3 POP POP POP JUMP JUMPDEST PUSH0 DUP3 PUSH1 0x1F DUP4 ADD SLT PUSH2 0x11CB JUMPI PUSH2 0x11CA PUSH2 0x1089 JUMP JUMPDEST JUMPDEST DUP2 CALLDATALOAD PUSH2 0x11DB DUP5 DUP3 PUSH1 0x20 DUP7 ADD PUSH2 0x1176 JUMP JUMPDEST SWAP2 POP POP SWAP3 SWAP2 POP POP JUMP JUMPDEST PUSH0 PUSH2 0x11F6 PUSH2 0x11F1 DUP5 PUSH2 0x1105 JUMP JUMPDEST PUSH2 0x10EB JUMP JUMPDEST SWAP1 POP DUP1 DUP4 DUP3 MSTORE PUSH1 0x20 DUP3 ADD SWAP1 POP PUSH1 0x20 DUP5 MUL DUP4 ADD DUP6 DUP2 GT ISZERO PUSH2 0x1219 JUMPI PUSH2 0x1218 PUSH2 0x1130 JUMP JUMPDEST JUMPDEST DUP4 JUMPDEST DUP2 DUP2 LT ISZERO PUSH2 0x1260 JUMPI DUP1 CALLDATALOAD PUSH8 0xFFFFFFFFFFFFFFFF DUP2 GT ISZERO PUSH2 0x123E JUMPI PUSH2 0x123D PUSH2 0x1089 JUMP JUMPDEST JUMPDEST DUP1 DUP7 ADD PUSH2 0x124B DUP10 DUP3 PUSH2 0x11B7 JUMP JUMPDEST DUP6 MSTORE PUSH1 0x20 DUP6 ADD SWAP5 POP POP POP PUSH1 0x20 DUP2 ADD SWAP1 POP PUSH2 0x121B JUMP JUMPDEST POP POP POP SWAP4 SWAP3 POP POP POP JUMP JUMPDEST PUSH0 DUP3 PUSH1 0x1F DUP4 ADD SLT PUSH2 0x127E JUMPI PUSH2 0x127D PUSH2 0x1089 JUMP JUMPDEST JUMPDEST DUP2 CALLDATALOAD PUSH2 0x128E DUP5 DUP3 PUSH1 0x20 DUP7 ADD PUSH2 0x11E4 JUMP JUMPDEST SWAP2 POP POP SWAP3 SWAP2 POP POP JUMP JUMPDEST PUSH0 PUSH1 0x20 DUP3 DUP5 SUB SLT ISZERO PUSH2 0x12AC JUMPI PUSH2 0x12AB PUSH2 0xF71 JUMP JUMPDEST JUMPDEST PUSH0 DUP3 ADD CALLDATALOAD PUSH8 0xFFFFFFFFFFFFFFFF DUP2 GT ISZERO PUSH2 0x12C9 JUMPI PUSH2 0x12C8 PUSH2 0xF75 JUMP JUMPDEST JUMPDEST PUSH2 0x12D5 DUP5 DUP3 DUP6 ADD PUSH2 0x126A JUMP JUMPDEST SWAP2 POP POP SWAP3 SWAP2 POP POP JUMP JUMPDEST PUSH2 0x12E7 DUP2 PUSH2 0xF79 JUMP JUMPDEST DUP3 MSTORE POP POP JUMP JUMPDEST PUSH0 PUSH1 0x20 DUP3 ADD SWAP1 POP PUSH2 0x1300 PUSH0 DUP4 ADD DUP5 PUSH2 0x12DE JUMP JUMPDEST SWAP3 SWAP2 POP POP JUMP JUMPDEST PUSH0 PUSH8 0xFFFFFFFFFFFFFFFF DUP3 GT ISZERO PUSH2 0x1320 JUMPI PUSH2 0x131F PUSH2 0x108D JUMP JUMPDEST JUMPDEST PUSH1 0x20 DUP3 MUL SWAP1 POP PUSH1 0x20 DUP2 ADD SWAP1 POP SWAP2 SWAP1 POP JUMP JUMPDEST PUSH0 PUSH2 0x1343 PUSH2 0x133E DUP5 PUSH2 0x1306 JUMP JUMPDEST PUSH2 0x10EB JUMP JUMPDEST SWAP1 POP DUP1 DUP4 DUP3 MSTORE PUSH1 0x20 DUP3 ADD SWAP1 POP PUSH1 0x20 DUP5 MUL DUP4 ADD DUP6 DUP2 GT ISZERO PUSH2 0x1366 JUMPI PUSH2 0x1365 PUSH2 0x1130 JUMP JUMPDEST JUMPDEST DUP4 JUMPDEST DUP2 DUP2 LT ISZERO PUSH2 0x138F JUMPI DUP1 PUSH2 0x137B DUP9 DUP3 PUSH2 0xFA0 JUMP JUMPDEST DUP5 MSTORE PUSH1 0x20 DUP5 ADD SWAP4 POP POP PUSH1 0x20 DUP2 ADD SWAP1 POP PUSH2 0x1368 JUMP JUMPDEST POP POP POP SWAP4 SWAP3 POP POP POP JUMP JUMPDEST PUSH0 DUP3 PUSH1 0x1F DUP4 ADD SLT PUSH2 0x13AD JUMPI PUSH2 0x13AC PUSH2 0x1089 JUMP JUMPDEST JUMPDEST DUP2 CALLDATALOAD PUSH2 0x13BD DUP5 DUP3 PUSH1 0x20 DUP7 ADD PUSH2 0x1331 JUMP JUMPDEST SWAP2 POP POP SWAP3 SWAP2 POP POP JUMP JUMPDEST PUSH0 DUP1 PUSH1 0x40 DUP4 DUP6 SUB SLT ISZERO PUSH2 0x13DC JUMPI PUSH2 0x13DB PUSH2 0xF71 JUMP JUMPDEST JUMPDEST PUSH0 DUP4 ADD CALLDATALOAD PUSH8 0xFFFFFFFFFFFFFFFF DUP2 GT ISZERO PUSH2 0x13F9 JUMPI PUSH2 0x13F8 PUSH2 0xF75 JUMP JUMPDEST JUMPDEST PUSH2 0x1405 DUP6 DUP3 DUP7 ADD PUSH2 0x126A JUMP JUMPDEST SWAP3 POP POP PUSH1 0x20 DUP4 ADD CALLDATALOAD PUSH8 0xFFFFFFFFFFFFFFFF DUP2 GT ISZERO PUSH2 0x1426 JUMPI PUSH2 0x1425 PUSH2 0xF75 JUMP JUMPDEST JUMPDEST PUSH2 0x1432 DUP6 DUP3 DUP7 ADD PUSH2 0x1399 JUMP JUMPDEST SWAP2 POP POP SWAP3 POP SWAP3 SWAP1 POP JUMP JUMPDEST PUSH0 PUSH1 0x20 DUP3 DUP5 SUB SLT ISZERO PUSH2 0x1451 JUMPI PUSH2 0x1450 PUSH2 0xF71 JUMP JUMPDEST JUMPDEST PUSH0 DUP3 ADD CALLDATALOAD PUSH8 0xFFFFFFFFFFFFFFFF DUP2 GT ISZERO PUSH2 0x146E JUMPI PUSH2 0x146D PUSH2 0xF75 JUMP JUMPDEST JUMPDEST PUSH2 0x147A DUP5 DUP3 DUP6 ADD PUSH2 0x11B7 JUMP JUMPDEST SWAP2 POP POP SWAP3 SWAP2 POP POP JUMP JUMPDEST PUSH0 DUP2 SWAP1 POP SWAP2 SWAP1 POP JUMP JUMPDEST PUSH2 0x1495 DUP2 PUSH2 0x1483 JUMP JUMPDEST DUP2 EQ PUSH2 0x149F JUMPI PUSH0 DUP1 REVERT JUMPDEST POP JUMP JUMPDEST PUSH0 DUP2 CALLDATALOAD SWAP1 POP PUSH2 0x14B0 DUP2 PUSH2 0x148C JUMP JUMPDEST SWAP3 SWAP2 POP POP JUMP JUMPDEST PUSH0 PUSH1 0x20 DUP3 DUP5 SUB SLT ISZERO PUSH2 0x14CB JUMPI PUSH2 0x14CA PUSH2 0xF71 JUMP JUMPDEST JUMPDEST PUSH0 PUSH2 0x14D8 DUP5 DUP3 DUP6 ADD PUSH2 0x14A2 JUMP JUMPDEST SWAP2 POP POP SWAP3 SWAP2 POP POP JUMP JUMPDEST PUSH32 0x4E487B7100000000000000000000000000000000000000000000000000000000 PUSH0 MSTORE PUSH1 0x22 PUSH1 0x4 MSTORE PUSH1 0x24 PUSH0 REVERT JUMPDEST PUSH0 PUSH1 0x2 DUP3 DIV SWAP1 POP PUSH1 0x1 DUP3 AND DUP1 PUSH2 0x1525 JUMPI PUSH1 0x7F DUP3 AND SWAP2 POP JUMPDEST PUSH1 0x20 DUP3 LT DUP2 SUB PUSH2 0x1538 JUMPI PUSH2 0x1537 PUSH2 0x14E1 JUMP JUMPDEST JUMPDEST POP SWAP2 SWAP1 POP JUMP JUMPDEST PUSH0 PUSH2 0x1550 PUSH2 0x154B DUP5 PUSH2 0x1138 JUMP JUMPDEST PUSH2 0x10EB JUMP JUMPDEST SWAP1 POP DUP3 DUP2 MSTORE PUSH1 0x20 DUP2 ADD DUP5 DUP5 DUP5 ADD GT ISZERO PUSH2 0x156C JUMPI PUSH2 0x156B PUSH2 0x1134 JUMP JUMPDEST JUMPDEST PUSH2 0x1577 DUP5 DUP3 DUP6 PUSH2 0xFF9 JUMP JUMPDEST POP SWAP4 SWAP3 POP POP POP JUMP JUMPDEST PUSH0 DUP3 PUSH1 0x1F DUP4 ADD SLT PUSH2 0x1593 JUMPI PUSH2 0x1592 PUSH2 0x1089 JUMP JUMPDEST JUMPDEST DUP2 MLOAD PUSH2 0x15A3 DUP5 DUP3 PUSH1 0x20 DUP7 ADD PUSH2 0x153E JUMP JUMPDEST SWAP2 POP POP SWAP3 SWAP2 POP POP JUMP JUMPDEST PUSH0 PUSH2 0x15BE PUSH2 0x15B9 DUP5 PUSH2 0x1105 JUMP JUMPDEST PUSH2 0x10EB JUMP JUMPDEST SWAP1 POP DUP1 DUP4 DUP3 MSTORE PUSH1 0x20 DUP3 ADD SWAP1 POP PUSH1 0x20 DUP5 MUL DUP4 ADD DUP6 DUP2 GT ISZERO PUSH2 0x15E1 JUMPI PUSH2 0x15E0 PUSH2 0x1130 JUMP JUMPDEST JUMPDEST DUP4 JUMPDEST DUP2 DUP2 LT ISZERO PUSH2 0x1628 JUMPI DUP1 MLOAD PUSH8 0xFFFFFFFFFFFFFFFF DUP2 GT ISZERO PUSH2 0x1606 JUMPI PUSH2 0x1605 PUSH2 0x1089 JUMP JUMPDEST JUMPDEST DUP1 DUP7 ADD PUSH2 0x1613 DUP10 DUP3 PUSH2 0x157F JUMP JUMPDEST DUP6 MSTORE PUSH1 0x20 DUP6 ADD SWAP5 POP POP POP PUSH1 0x20 DUP2 ADD SWAP1 POP PUSH2 0x15E3 JUMP JUMPDEST POP POP POP SWAP4 SWAP3 POP POP POP JUMP JUMPDEST PUSH0 DUP3 PUSH1 0x1F DUP4 ADD SLT PUSH2 0x1646 JUMPI PUSH2 0x1645 PUSH2 0x1089 JUMP JUMPDEST JUMPDEST DUP2 MLOAD PUSH2 0x1656 DUP5 DUP3 PUSH1 0x20 DUP7 ADD PUSH2 0x15AC JUMP JUMPDEST SWAP2 POP POP SWAP3 SWAP2 POP POP JUMP JUMPDEST PUSH0 PUSH1 0x20 DUP3 DUP5 SUB SLT ISZERO PUSH2 0x1674 JUMPI PUSH2 0x1673 PUSH2 0xF71 JUMP JUMPDEST JUMPDEST PUSH0 DUP3 ADD MLOAD PUSH8 0xFFFFFFFFFFFFFFFF DUP2 GT ISZERO PUSH2 0x1691 JUMPI PUSH2 0x1690 PUSH2 0xF75 JUMP JUMPDEST JUMPDEST PUSH2 0x169D DUP5 DUP3 DUP6 ADD PUSH2 0x1632 JUMP JUMPDEST SWAP2 POP POP SWAP3 SWAP2 POP POP JUMP JUMPDEST PUSH32 0x4E487B7100000000000000000000000000000000000000000000000000000000 PUSH0 MSTORE PUSH1 0x32 PUSH1 0x4 MSTORE PUSH1 0x24 PUSH0 REVERT JUMPDEST PUSH0 DUP2 SWAP1 POP SWAP3 SWAP2 POP POP JUMP JUMPDEST PUSH0 PUSH2 0x16E7 DUP3 PUSH2 0xFDF JUMP JUMPDEST PUSH2 0x16F1 DUP2 DUP6 PUSH2 0x16D3 JUMP JUMPDEST SWAP4 POP PUSH2 0x1701 DUP2 DUP6 PUSH1 0x20 DUP7 ADD PUSH2 0xFF9 JUMP JUMPDEST DUP1 DUP5 ADD SWAP2 POP POP SWAP3 SWAP2 POP POP JUMP JUMPDEST PUSH0 PUSH2 0x1718 DUP3 DUP5 PUSH2 0x16DD JUMP JUMPDEST SWAP2 POP DUP2 SWAP1 POP SWAP3 SWAP2 POP POP JUMP JUMPDEST PUSH0 DUP2 MLOAD SWAP1 POP SWAP2 SWAP1 POP JUMP JUMPDEST PUSH0 DUP3 DUP3 MSTORE PUSH1 0x20 DUP3 ADD SWAP1 POP SWAP3 SWAP2 POP POP JUMP JUMPDEST PUSH0 DUP2 SWAP1 POP PUSH1 0x20 DUP3 ADD SWAP1 POP SWAP2 SWAP1 POP JUMP JUMPDEST PUSH0 DUP3 DUP3 MSTORE PUSH1 0x20 DUP3 ADD SWAP1 POP SWAP3 SWAP2 POP POP JUMP JUMPDEST PUSH0 PUSH2 0x1766 DUP3 PUSH2 0xFDF JUMP JUMPDEST PUSH2 0x1770 DUP2 DUP6 PUSH2 0x174C JUMP JUMPDEST SWAP4 POP PUSH2 0x1780 DUP2 DUP6 PUSH1 0x20 DUP7 ADD PUSH2 0xFF9 JUMP JUMPDEST PUSH2 0x1789 DUP2 PUSH2 0x1021 JUMP JUMPDEST DUP5 ADD SWAP2 POP POP SWAP3 SWAP2 POP POP JUMP JUMPDEST PUSH0 PUSH2 0x179F DUP4 DUP4 PUSH2 0x175C JUMP JUMPDEST SWAP1 POP SWAP3 SWAP2 POP POP JUMP JUMPDEST PUSH0 PUSH1 0x20 DUP3 ADD SWAP1 POP SWAP2 SWAP1 POP JUMP JUMPDEST PUSH0 PUSH2 0x17BD DUP3 PUSH2 0x1723 JUMP JUMPDEST PUSH2 0x17C7 DUP2 DUP6 PUSH2 0x172D JUMP JUMPDEST SWAP4 POP DUP4 PUSH1 0x20 DUP3 MUL DUP6 ADD PUSH2 0x17D9 DUP6 PUSH2 0x173D JUMP JUMPDEST DUP1 PUSH0 JUMPDEST DUP6 DUP2 LT ISZERO PUSH2 0x1814 JUMPI DUP5 DUP5 SUB DUP10 MSTORE DUP2 MLOAD PUSH2 0x17F5 DUP6 DUP3 PUSH2 0x1794 JUMP JUMPDEST SWAP5 POP PUSH2 0x1800 DUP4 PUSH2 0x17A7 JUMP JUMPDEST SWAP3 POP PUSH1 0x20 DUP11 ADD SWAP10 POP POP PUSH1 0x1 DUP2 ADD SWAP1 POP PUSH2 0x17DC JUMP JUMPDEST POP DUP3 SWAP8 POP DUP8 SWAP6 POP POP POP POP POP POP SWAP3 SWAP2 POP POP JUMP JUMPDEST PUSH2 0x182F DUP2 PUSH2 0x1483 JUMP JUMPDEST DUP3 MSTORE POP POP JUMP JUMPDEST PUSH32 0x57686974656C6973742072656D6F76656420666F722055454E00000000000000 PUSH0 DUP3 ADD MSTORE POP JUMP JUMPDEST PUSH0 PUSH2 0x1869 PUSH1 0x19 DUP4 PUSH2 0xFE9 JUMP JUMPDEST SWAP2 POP PUSH2 0x1874 DUP3 PUSH2 0x1835 JUMP JUMPDEST PUSH1 0x20 DUP3 ADD SWAP1 POP SWAP2 SWAP1 POP JUMP JUMPDEST PUSH0 PUSH1 0x80 DUP3 ADD SWAP1 POP DUP2 DUP2 SUB PUSH0 DUP4 ADD MSTORE PUSH2 0x1897 DUP2 DUP7 PUSH2 0x17B3 JUMP JUMPDEST SWAP1 POP PUSH2 0x18A6 PUSH1 0x20 DUP4 ADD DUP6 PUSH2 0x1826 JUMP JUMPDEST PUSH2 0x18B3 PUSH1 0x40 DUP4 ADD DUP5 PUSH2 0x12DE JUMP JUMPDEST DUP2 DUP2 SUB PUSH1 0x60 DUP4 ADD MSTORE PUSH2 0x18C4 DUP2 PUSH2 0x185D JUMP JUMPDEST SWAP1 POP SWAP5 SWAP4 POP POP POP POP JUMP JUMPDEST PUSH32 0x4D617070696E6773206D7573742068617665207468652073616D65206C656E67 PUSH0 DUP3 ADD MSTORE PUSH32 0x7468000000000000000000000000000000000000000000000000000000000000 PUSH1 0x20 DUP3 ADD MSTORE POP JUMP JUMPDEST PUSH0 PUSH2 0x1928 PUSH1 0x22 DUP4 PUSH2 0xFE9 JUMP JUMPDEST SWAP2 POP PUSH2 0x1933 DUP3 PUSH2 0x18CE JUMP JUMPDEST PUSH1 0x40 DUP3 ADD SWAP1 POP SWAP2 SWAP1 POP JUMP JUMPDEST PUSH0 PUSH1 0x20 DUP3 ADD SWAP1 POP DUP2 DUP2 SUB PUSH0 DUP4 ADD MSTORE PUSH2 0x1955 DUP2 PUSH2 0x191C JUMP JUMPDEST SWAP1 POP SWAP2 SWAP1 POP JUMP JUMPDEST PUSH0 DUP2 SWAP1 POP DUP2 PUSH0 MSTORE PUSH1 0x20 PUSH0 KECCAK256 SWAP1 POP SWAP2 SWAP1 POP JUMP JUMPDEST PUSH0 DUP2 SLOAD PUSH2 0x197A DUP2 PUSH2 0x150E JUMP JUMPDEST PUSH2 0x1984 DUP2 DUP7 PUSH2 0x16D3 JUMP JUMPDEST SWAP5 POP PUSH1 0x1 DUP3 AND PUSH0 DUP2 EQ PUSH2 0x199E JUMPI PUSH1 0x1 DUP2 EQ PUSH2 0x19B3 JUMPI PUSH2 0x19E5 JUMP JUMPDEST PUSH1 0xFF NOT DUP4 AND DUP7 MSTORE DUP2 ISZERO ISZERO DUP3 MUL DUP7 ADD SWAP4 POP PUSH2 0x19E5 JUMP JUMPDEST PUSH2 0x19BC DUP6 PUSH2 0x195C JUMP JUMPDEST PUSH0 JUMPDEST DUP4 DUP2 LT ISZERO PUSH2 0x19DD JUMPI DUP2 SLOAD DUP2 DUP10 ADD MSTORE PUSH1 0x1 DUP3 ADD SWAP2 POP PUSH1 0x20 DUP2 ADD SWAP1 POP PUSH2 0x19BE JUMP JUMPDEST DUP4 DUP9 ADD SWAP6 POP POP POP JUMPDEST POP POP POP SWAP3 SWAP2 POP POP JUMP JUMPDEST PUSH0 PUSH2 0x19F9 DUP3 DUP5 PUSH2 0x196E JUMP JUMPDEST SWAP2 POP DUP2 SWAP1 POP SWAP3 SWAP2 POP POP JUMP JUMPDEST PUSH32 0x55454E20646F6573206E6F742065786973740000000000000000000000000000 PUSH0 DUP3 ADD MSTORE POP JUMP JUMPDEST PUSH0 PUSH2 0x1A38 PUSH1 0x12 DUP4 PUSH2 0xFE9 JUMP JUMPDEST SWAP2 POP PUSH2 0x1A43 DUP3 PUSH2 0x1A04 JUMP JUMPDEST PUSH1 0x20 DUP3 ADD SWAP1 POP SWAP2 SWAP1 POP JUMP JUMPDEST PUSH0 PUSH1 0x20 DUP3 ADD SWAP1 POP DUP2 DUP2 SUB PUSH0 DUP4 ADD MSTORE PUSH2 0x1A65 DUP2 PUSH2 0x1A2C JUMP JUMPDEST SWAP1 POP SWAP2 SWAP1 POP JUMP JUMPDEST PUSH0 PUSH1 0x20 PUSH1 0x1F DUP4 ADD DIV SWAP1 POP SWAP2 SWAP1 POP JUMP JUMPDEST PUSH0 DUP3 DUP3 SHL SWAP1 POP SWAP3 SWAP2 POP POP JUMP JUMPDEST PUSH0 PUSH1 0x8 DUP4 MUL PUSH2 0x1AB6 PUSH32 0xFFFFFFFFFFFFFFFFFFFFFFFFFFFFFFFFFFFFFFFFFFFFFFFFFFFFFFFFFFFFFFFF DUP3 PUSH2 0x1A7B JUMP JUMPDEST PUSH2 0x1AC0 DUP7 DUP4 PUSH2 0x1A7B JUMP JUMPDEST SWAP6 POP DUP1 NOT DUP5 AND SWAP4 POP DUP1 DUP7 AND DUP5 OR SWAP3 POP POP POP SWAP4 SWAP3 POP POP POP JUMP JUMPDEST PUSH0 PUSH2 0x1AF2 PUSH2 0x1AED PUSH2 0x1AE8 DUP5 PUSH2 0x1483 JUMP JUMPDEST PUSH2 0xEF4 JUMP JUMPDEST PUSH2 0x1483 JUMP JUMPDEST SWAP1 POP SWAP2 SWAP1 POP JUMP JUMPDEST PUSH0 DUP2 SWAP1 POP SWAP2 SWAP1 POP JUMP JUMPDEST PUSH2 0x1B0B DUP4 PUSH2 0x1AD8 JUMP JUMPDEST PUSH2 0x1B1F PUSH2 0x1B17 DUP3 PUSH2 0x1AF9 JUMP JUMPDEST DUP5 DUP5 SLOAD PUSH2 0x1A87 JUMP JUMPDEST DUP3 SSTORE POP POP POP POP JUMP JUMPDEST PUSH0 SWAP1 JUMP JUMPDEST PUSH2 0x1B33 PUSH2 0x1B27 JUMP JUMPDEST PUSH2 0x1B3E DUP2 DUP5 DUP5 PUSH2 0x1B02 JUMP JUMPDEST POP POP POP JUMP JUMPDEST JUMPDEST DUP2 DUP2 LT ISZERO PUSH2 0x1B61 JUMPI PUSH2 0x1B56 PUSH0 DUP3 PUSH2 0x1B2B JUMP JUMPDEST PUSH1 0x1 DUP2 ADD SWAP1 POP PUSH2 0x1B44 JUMP JUMPDEST POP POP JUMP JUMPDEST PUSH1 0x1F DUP3 GT ISZERO PUSH2 0x1BA6 JUMPI PUSH2 0x1B77 DUP2 PUSH2 0x195C JUMP JUMPDEST PUSH2 0x1B80 DUP5 PUSH2 0x1A6C JUMP JUMPDEST DUP2 ADD PUSH1 0x20 DUP6 LT ISZERO PUSH2 0x1B8F JUMPI DUP2 SWAP1 POP JUMPDEST PUSH2 0x1BA3 PUSH2 0x1B9B DUP6 PUSH2 0x1A6C JUMP JUMPDEST DUP4 ADD DUP3 PUSH2 0x1B43 JUMP JUMPDEST POP POP JUMPDEST POP POP POP JUMP JUMPDEST PUSH0 DUP3 DUP3 SHR SWAP1 POP SWAP3 SWAP2 POP POP JUMP JUMPDEST PUSH0 PUSH2 0x1BC6 PUSH0 NOT DUP5 PUSH1 0x8 MUL PUSH2 0x1BAB JUMP JUMPDEST NOT DUP1 DUP4 AND SWAP2 POP POP SWAP3 SWAP2 POP POP JUMP JUMPDEST PUSH0 PUSH2 0x1BDE DUP4 DUP4 PUSH2 0x1BB7 JUMP JUMPDEST SWAP2 POP DUP3 PUSH1 0x2 MUL DUP3 OR SWAP1 POP SWAP3 SWAP2 POP POP JUMP JUMPDEST PUSH2 0x1BF7 DUP3 PUSH2 0xFDF JUMP JUMPDEST PUSH8 0xFFFFFFFFFFFFFFFF DUP2 GT ISZERO PUSH2 0x1C10 JUMPI PUSH2 0x1C0F PUSH2 0x108D JUMP JUMPDEST JUMPDEST PUSH2 0x1C1A DUP3 SLOAD PUSH2 0x150E JUMP JUMPDEST PUSH2 0x1C25 DUP3 DUP3 DUP6 PUSH2 0x1B65 JUMP JUMPDEST PUSH0 PUSH1 0x20 SWAP1 POP PUSH1 0x1F DUP4 GT PUSH1 0x1 DUP2 EQ PUSH2 0x1C56 JUMPI PUSH0 DUP5 ISZERO PUSH2 0x1C44 JUMPI DUP3 DUP8 ADD MLOAD SWAP1 POP JUMPDEST PUSH2 0x1C4E DUP6 DUP3 PUSH2 0x1BD3 JUMP JUMPDEST DUP7 SSTORE POP PUSH2 0x1CB5 JUMP JUMPDEST PUSH1 0x1F NOT DUP5 AND PUSH2 0x1C64 DUP7 PUSH2 0x195C JUMP JUMPDEST PUSH0 JUMPDEST DUP3 DUP2 LT ISZERO PUSH2 0x1C8B JUMPI DUP5 DUP10 ADD MLOAD DUP3 SSTORE PUSH1 0x1 DUP3 ADD SWAP2 POP PUSH1 0x20 DUP6 ADD SWAP5 POP PUSH1 0x20 DUP2 ADD SWAP1 POP PUSH2 0x1C66 JUMP JUMPDEST DUP7 DUP4 LT ISZERO PUSH2 0x1CA8 JUMPI DUP5 DUP10 ADD MLOAD PUSH2 0x1CA4 PUSH1 0x1F DUP10 AND DUP3 PUSH2 0x1BB7 JUMP JUMPDEST DUP4 SSTORE POP JUMPDEST PUSH1 0x1 PUSH1 0x2 DUP9 MUL ADD DUP9 SSTORE POP POP POP JUMPDEST POP POP POP POP POP POP JUMP JUMPDEST PUSH32 0x57686974656C69737420616464656420666F722055454E000000000000000000 PUSH0 DUP3 ADD MSTORE POP JUMP JUMPDEST PUSH0 PUSH2 0x1CF1 PUSH1 0x17 DUP4 PUSH2 0xFE9 JUMP JUMPDEST SWAP2 POP PUSH2 0x1CFC DUP3 PUSH2 0x1CBD JUMP JUMPDEST PUSH1 0x20 DUP3 ADD SWAP1 POP SWAP2 SWAP1 POP JUMP JUMPDEST PUSH0 PUSH1 0x80 DUP3 ADD SWAP1 POP DUP2 DUP2 SUB PUSH0 DUP4 ADD MSTORE PUSH2 0x1D1F DUP2 DUP7 PUSH2 0x17B3 JUMP JUMPDEST SWAP1 POP PUSH2 0x1D2E PUSH1 0x20 DUP4 ADD DUP6 PUSH2 0x1826 JUMP JUMPDEST PUSH2 0x1D3B PUSH1 0x40 DUP4 ADD DUP5 PUSH2 0x12DE JUMP JUMPDEST DUP2 DUP2 SUB PUSH1 0x60 DUP4 ADD MSTORE PUSH2 0x1D4C DUP2 PUSH2 0x1CE5 JUMP JUMPDEST SWAP1 POP SWAP5 SWAP4 POP POP POP POP JUMP INVALID LOG2 PUSH5 0x6970667358 0x22 SLT KECCAK256 0xB4 SWAP6 XOR SHL 0xB3 PUSH10 0xCCBE6528BED2B2D768DA 0xE CALLCODE JUMPI MUL SDIV SWAP5 CALL 0x4B 0xCE CALL 0xCC PUSH24 0x69F248EB64736F6C63430008160033000000000000000000 "
		},
		"gasEstimates": {
			"creation": {
				"codeDepositCost": "1512800",
				"executionCost": "infinite",
				"totalCost": "infinite"
			},
			"external": {
				"change_uen_list_contract_address(address)": "infinite",
				"get_uen_to_whitelist(string)": "infinite",
				"get_whitelist_to_uen(address)": "infinite",
				"map_whitelist_to_uen(string[],address[])": "infinite",
				"owner()": "2538",
				"remove_whitelist_to_uen_mapping(string[])": "infinite",
				"renounceOwnership()": "infinite",
				"transferOwnership(address)": "infinite",
				"uen_list(uint256)": "infinite",
				"uen_management_contract()": "infinite",
				"uen_management_contract_address()": "2597",
				"uen_to_whitelist(string)": "infinite",
				"whitelist_to_uen(address)": "infinite"
			}
		},
		"methodIdentifiers": {
			"change_uen_list_contract_address(address)": "9a82845c",
			"get_uen_to_whitelist(string)": "a9b295e3",
			"get_whitelist_to_uen(address)": "58581383",
			"map_whitelist_to_uen(string[],address[])": "858e1a9b",
			"owner()": "8da5cb5b",
			"remove_whitelist_to_uen_mapping(string[])": "6100b02b",
			"renounceOwnership()": "715018a6",
			"transferOwnership(address)": "f2fde38b",
			"uen_list(uint256)": "b30282fa",
			"uen_management_contract()": "11c2f8e6",
			"uen_management_contract_address()": "7eaabf2f",
			"uen_to_whitelist(string)": "b98cb1a4",
			"whitelist_to_uen(address)": "9c2badef"
		}
	},
	"abi": [
		{
			"inputs": [
				{
					"internalType": "address",
					"name": "_uen_management_contract_address",
					"type": "address"
				},
				{
					"internalType": "address",
					"name": "_initialOwner",
					"type": "address"
				}
			],
			"stateMutability": "nonpayable",
			"type": "constructor"
		},
		{
			"inputs": [
				{
					"internalType": "address",
					"name": "owner",
					"type": "address"
				}
			],
			"name": "OwnableInvalidOwner",
			"type": "error"
		},
		{
			"inputs": [
				{
					"internalType": "address",
					"name": "account",
					"type": "address"
				}
			],
			"name": "OwnableUnauthorizedAccount",
			"type": "error"
		},
		{
			"anonymous": false,
			"inputs": [
				{
					"indexed": true,
					"internalType": "address",
					"name": "previousOwner",
					"type": "address"
				},
				{
					"indexed": true,
					"internalType": "address",
					"name": "newOwner",
					"type": "address"
				}
			],
			"name": "OwnershipTransferred",
			"type": "event"
		},
		{
			"anonymous": false,
			"inputs": [
				{
					"indexed": false,
					"internalType": "string[]",
					"name": "_uens",
					"type": "string[]"
				},
				{
					"indexed": false,
					"internalType": "uint256",
					"name": "_timestamp",
					"type": "uint256"
				},
				{
					"indexed": false,
					"internalType": "address",
					"name": "_caller",
					"type": "address"
				},
				{
					"indexed": false,
					"internalType": "string",
					"name": "_action",
					"type": "string"
				}
			],
			"name": "whitelist_event",
			"type": "event"
		},
		{
			"inputs": [
				{
					"internalType": "address",
					"name": "_new_uen_list_contract_address",
					"type": "address"
				}
			],
			"name": "change_uen_list_contract_address",
			"outputs": [],
			"stateMutability": "nonpayable",
			"type": "function"
		},
		{
			"inputs": [
				{
					"internalType": "string",
					"name": "_uen",
					"type": "string"
				}
			],
			"name": "get_uen_to_whitelist",
			"outputs": [
				{
					"internalType": "address",
					"name": "",
					"type": "address"
				}
			],
			"stateMutability": "view",
			"type": "function"
		},
		{
			"inputs": [
				{
					"internalType": "address",
					"name": "_whitelist",
					"type": "address"
				}
			],
			"name": "get_whitelist_to_uen",
			"outputs": [
				{
					"internalType": "string",
					"name": "",
					"type": "string"
				}
			],
			"stateMutability": "view",
			"type": "function"
		},
		{
			"inputs": [
				{
					"internalType": "string[]",
					"name": "_uens",
					"type": "string[]"
				},
				{
					"internalType": "address[]",
					"name": "_admins",
					"type": "address[]"
				}
			],
			"name": "map_whitelist_to_uen",
			"outputs": [],
			"stateMutability": "nonpayable",
			"type": "function"
		},
		{
			"inputs": [],
			"name": "owner",
			"outputs": [
				{
					"internalType": "address",
					"name": "",
					"type": "address"
				}
			],
			"stateMutability": "view",
			"type": "function"
		},
		{
			"inputs": [
				{
					"internalType": "string[]",
					"name": "_uens",
					"type": "string[]"
				}
			],
			"name": "remove_whitelist_to_uen_mapping",
			"outputs": [],
			"stateMutability": "nonpayable",
			"type": "function"
		},
		{
			"inputs": [],
			"name": "renounceOwnership",
			"outputs": [],
			"stateMutability": "nonpayable",
			"type": "function"
		},
		{
			"inputs": [
				{
					"internalType": "address",
					"name": "newOwner",
					"type": "address"
				}
			],
			"name": "transferOwnership",
			"outputs": [],
			"stateMutability": "nonpayable",
			"type": "function"
		},
		{
			"inputs": [
				{
					"internalType": "uint256",
					"name": "",
					"type": "uint256"
				}
			],
			"name": "uen_list",
			"outputs": [
				{
					"internalType": "string",
					"name": "",
					"type": "string"
				}
			],
			"stateMutability": "view",
			"type": "function"
		},
		{
			"inputs": [],
			"name": "uen_management_contract",
			"outputs": [
				{
					"internalType": "contract Iuen_management",
					"name": "",
					"type": "address"
				}
			],
			"stateMutability": "view",
			"type": "function"
		},
		{
			"inputs": [],
			"name": "uen_management_contract_address",
			"outputs": [
				{
					"internalType": "address",
					"name": "",
					"type": "address"
				}
			],
			"stateMutability": "view",
			"type": "function"
		},
		{
			"inputs": [
				{
					"internalType": "string",
					"name": "",
					"type": "string"
				}
			],
			"name": "uen_to_whitelist",
			"outputs": [
				{
					"internalType": "address",
					"name": "",
					"type": "address"
				}
			],
			"stateMutability": "view",
			"type": "function"
		},
		{
			"inputs": [
				{
					"internalType": "address",
					"name": "",
					"type": "address"
				}
			],
			"name": "whitelist_to_uen",
			"outputs": [
				{
					"internalType": "string",
					"name": "",
					"type": "string"
				}
			],
			"stateMutability": "view",
			"type": "function"
		}
	]
}